{
  "contractName": "AccessRestriction",
  "abi": [
    {
      "anonymous": false,
      "inputs": [
        {
          "indexed": false,
          "internalType": "address",
          "name": "account",
          "type": "address"
        }
      ],
      "name": "Paused",
      "type": "event"
    },
    {
      "anonymous": false,
      "inputs": [
        {
          "indexed": true,
          "internalType": "bytes32",
          "name": "role",
          "type": "bytes32"
        },
        {
          "indexed": true,
          "internalType": "bytes32",
          "name": "previousAdminRole",
          "type": "bytes32"
        },
        {
          "indexed": true,
          "internalType": "bytes32",
          "name": "newAdminRole",
          "type": "bytes32"
        }
      ],
      "name": "RoleAdminChanged",
      "type": "event"
    },
    {
      "anonymous": false,
      "inputs": [
        {
          "indexed": true,
          "internalType": "bytes32",
          "name": "role",
          "type": "bytes32"
        },
        {
          "indexed": true,
          "internalType": "address",
          "name": "account",
          "type": "address"
        },
        {
          "indexed": true,
          "internalType": "address",
          "name": "sender",
          "type": "address"
        }
      ],
      "name": "RoleGranted",
      "type": "event"
    },
    {
      "anonymous": false,
      "inputs": [
        {
          "indexed": true,
          "internalType": "bytes32",
          "name": "role",
          "type": "bytes32"
        },
        {
          "indexed": true,
          "internalType": "address",
          "name": "account",
          "type": "address"
        },
        {
          "indexed": true,
          "internalType": "address",
          "name": "sender",
          "type": "address"
        }
      ],
      "name": "RoleRevoked",
      "type": "event"
    },
    {
      "anonymous": false,
      "inputs": [
        {
          "indexed": false,
          "internalType": "address",
          "name": "account",
          "type": "address"
        }
      ],
      "name": "Unpaused",
      "type": "event"
    },
    {
      "inputs": [],
      "name": "AUCTION_ROLE",
      "outputs": [
        {
          "internalType": "bytes32",
          "name": "",
          "type": "bytes32"
        }
      ],
      "stateMutability": "view",
      "type": "function",
      "constant": true
    },
    {
      "inputs": [],
      "name": "DEFAULT_ADMIN_ROLE",
      "outputs": [
        {
          "internalType": "bytes32",
          "name": "",
          "type": "bytes32"
        }
      ],
      "stateMutability": "view",
      "type": "function",
      "constant": true
    },
    {
      "inputs": [],
      "name": "INCREMENTAL_SELL_ROLE",
      "outputs": [
        {
          "internalType": "bytes32",
          "name": "",
          "type": "bytes32"
        }
      ],
      "stateMutability": "view",
      "type": "function",
      "constant": true
    },
    {
      "inputs": [],
      "name": "PLANTER_ROLE",
      "outputs": [
        {
          "internalType": "bytes32",
          "name": "",
          "type": "bytes32"
        }
      ],
      "stateMutability": "view",
      "type": "function",
      "constant": true
    },
    {
      "inputs": [],
      "name": "REGULAR_SELL_ROLE",
      "outputs": [
        {
          "internalType": "bytes32",
          "name": "",
          "type": "bytes32"
        }
      ],
      "stateMutability": "view",
      "type": "function",
      "constant": true
    },
    {
      "inputs": [],
      "name": "TREASURY_ROLE",
      "outputs": [
        {
          "internalType": "bytes32",
          "name": "",
          "type": "bytes32"
        }
      ],
      "stateMutability": "view",
      "type": "function",
      "constant": true
    },
    {
      "inputs": [],
      "name": "TREE_FACTORY_ROLE",
      "outputs": [
        {
          "internalType": "bytes32",
          "name": "",
          "type": "bytes32"
        }
      ],
      "stateMutability": "view",
      "type": "function",
      "constant": true
    },
    {
      "inputs": [
        {
          "internalType": "bytes32",
          "name": "role",
          "type": "bytes32"
        }
      ],
      "name": "getRoleAdmin",
      "outputs": [
        {
          "internalType": "bytes32",
          "name": "",
          "type": "bytes32"
        }
      ],
      "stateMutability": "view",
      "type": "function",
      "constant": true
    },
    {
      "inputs": [
        {
          "internalType": "bytes32",
          "name": "role",
          "type": "bytes32"
        },
        {
          "internalType": "address",
          "name": "account",
          "type": "address"
        }
      ],
      "name": "grantRole",
      "outputs": [],
      "stateMutability": "nonpayable",
      "type": "function"
    },
    {
      "inputs": [
        {
          "internalType": "bytes32",
          "name": "role",
          "type": "bytes32"
        },
        {
          "internalType": "address",
          "name": "account",
          "type": "address"
        }
      ],
      "name": "hasRole",
      "outputs": [
        {
          "internalType": "bool",
          "name": "",
          "type": "bool"
        }
      ],
      "stateMutability": "view",
      "type": "function",
      "constant": true
    },
    {
      "inputs": [],
      "name": "isAccessRestriction",
      "outputs": [
        {
          "internalType": "bool",
          "name": "",
          "type": "bool"
        }
      ],
      "stateMutability": "view",
      "type": "function",
      "constant": true
    },
    {
      "inputs": [],
      "name": "paused",
      "outputs": [
        {
          "internalType": "bool",
          "name": "",
          "type": "bool"
        }
      ],
      "stateMutability": "view",
      "type": "function",
      "constant": true
    },
    {
      "inputs": [
        {
          "internalType": "bytes32",
          "name": "role",
          "type": "bytes32"
        },
        {
          "internalType": "address",
          "name": "account",
          "type": "address"
        }
      ],
      "name": "renounceRole",
      "outputs": [],
      "stateMutability": "nonpayable",
      "type": "function"
    },
    {
      "inputs": [
        {
          "internalType": "bytes32",
          "name": "role",
          "type": "bytes32"
        },
        {
          "internalType": "address",
          "name": "account",
          "type": "address"
        }
      ],
      "name": "revokeRole",
      "outputs": [],
      "stateMutability": "nonpayable",
      "type": "function"
    },
    {
      "inputs": [
        {
          "internalType": "bytes4",
          "name": "interfaceId",
          "type": "bytes4"
        }
      ],
      "name": "supportsInterface",
      "outputs": [
        {
          "internalType": "bool",
          "name": "",
          "type": "bool"
        }
      ],
      "stateMutability": "view",
      "type": "function",
      "constant": true
    },
    {
      "inputs": [
        {
          "internalType": "address",
          "name": "_deployer",
          "type": "address"
        }
      ],
      "name": "initialize",
      "outputs": [],
      "stateMutability": "nonpayable",
      "type": "function"
    },
    {
      "inputs": [
        {
          "internalType": "address",
          "name": "_address",
          "type": "address"
        }
      ],
      "name": "ifPlanter",
      "outputs": [],
      "stateMutability": "view",
      "type": "function",
      "constant": true
    },
    {
      "inputs": [
        {
          "internalType": "address",
          "name": "_address",
          "type": "address"
        }
      ],
      "name": "isPlanter",
      "outputs": [
        {
          "internalType": "bool",
          "name": "",
          "type": "bool"
        }
      ],
      "stateMutability": "view",
      "type": "function",
      "constant": true
    },
    {
      "inputs": [
        {
          "internalType": "address",
          "name": "_address",
          "type": "address"
        }
      ],
      "name": "ifAdmin",
      "outputs": [],
      "stateMutability": "view",
      "type": "function",
      "constant": true
    },
    {
      "inputs": [
        {
          "internalType": "address",
          "name": "_address",
          "type": "address"
        }
      ],
      "name": "isAdmin",
      "outputs": [
        {
          "internalType": "bool",
          "name": "",
          "type": "bool"
        }
      ],
      "stateMutability": "view",
      "type": "function",
      "constant": true
    },
    {
      "inputs": [],
      "name": "ifNotPaused",
      "outputs": [],
      "stateMutability": "view",
      "type": "function",
      "constant": true
    },
    {
      "inputs": [],
      "name": "ifPaused",
      "outputs": [],
      "stateMutability": "view",
      "type": "function",
      "constant": true
    },
    {
      "inputs": [],
      "name": "pause",
      "outputs": [],
      "stateMutability": "nonpayable",
      "type": "function"
    },
    {
      "inputs": [],
      "name": "unpause",
      "outputs": [],
      "stateMutability": "nonpayable",
      "type": "function"
    },
    {
      "inputs": [
        {
          "internalType": "address",
          "name": "_address",
          "type": "address"
        }
      ],
      "name": "ifAuction",
      "outputs": [],
      "stateMutability": "view",
      "type": "function",
      "constant": true
    },
    {
      "inputs": [
        {
          "internalType": "address",
          "name": "_address",
          "type": "address"
        }
      ],
      "name": "isAuction",
      "outputs": [
        {
          "internalType": "bool",
          "name": "",
          "type": "bool"
        }
      ],
      "stateMutability": "view",
      "type": "function",
      "constant": true
    },
    {
      "inputs": [
        {
          "internalType": "address",
          "name": "_address",
          "type": "address"
        }
      ],
      "name": "ifIncrementalSell",
      "outputs": [],
      "stateMutability": "view",
      "type": "function",
      "constant": true
    },
    {
      "inputs": [
        {
          "internalType": "address",
          "name": "_address",
          "type": "address"
        }
      ],
      "name": "ifIncrementalSellOrAuction",
      "outputs": [],
      "stateMutability": "view",
      "type": "function",
      "constant": true
    },
    {
      "inputs": [
        {
          "internalType": "address",
          "name": "_address",
          "type": "address"
        }
      ],
      "name": "ifIncrementalSellOrAuctionOrRegularSell",
      "outputs": [],
      "stateMutability": "view",
      "type": "function",
      "constant": true
    },
    {
      "inputs": [
        {
          "internalType": "address",
          "name": "_address",
          "type": "address"
        }
      ],
      "name": "isIncrementalSell",
      "outputs": [
        {
          "internalType": "bool",
          "name": "",
          "type": "bool"
        }
      ],
      "stateMutability": "view",
      "type": "function",
      "constant": true
    },
    {
      "inputs": [
        {
          "internalType": "address",
          "name": "_address",
          "type": "address"
        }
      ],
      "name": "ifTreeFactory",
      "outputs": [],
      "stateMutability": "view",
      "type": "function",
      "constant": true
    },
    {
      "inputs": [
        {
          "internalType": "address",
          "name": "_address",
          "type": "address"
        }
      ],
      "name": "isTreeFactory",
      "outputs": [
        {
          "internalType": "bool",
          "name": "",
          "type": "bool"
        }
      ],
      "stateMutability": "view",
      "type": "function",
      "constant": true
    },
    {
      "inputs": [
        {
          "internalType": "address",
          "name": "_address",
          "type": "address"
        }
      ],
      "name": "ifTreasury",
      "outputs": [],
      "stateMutability": "view",
      "type": "function",
      "constant": true
    },
    {
      "inputs": [
        {
          "internalType": "address",
          "name": "_address",
          "type": "address"
        }
      ],
      "name": "isTreasury",
      "outputs": [
        {
          "internalType": "bool",
          "name": "",
          "type": "bool"
        }
      ],
      "stateMutability": "view",
      "type": "function",
      "constant": true
    },
    {
      "inputs": [
        {
          "internalType": "address",
          "name": "_address",
          "type": "address"
        }
      ],
      "name": "ifRegularSell",
      "outputs": [],
      "stateMutability": "view",
      "type": "function",
      "constant": true
    },
    {
      "inputs": [
        {
          "internalType": "address",
          "name": "_address",
          "type": "address"
        }
      ],
      "name": "isRegularSell",
      "outputs": [
        {
          "internalType": "bool",
          "name": "",
          "type": "bool"
        }
      ],
      "stateMutability": "view",
      "type": "function",
      "constant": true
    }
  ],
  "bytecode": "0x608060405234801561001057600080fd5b506114a5806100206000396000f3fe608060405234801561001057600080fd5b506004361061021c5760003560e01c806365ab51c711610125578063c4d66de8116100ad578063d547741f1161007c578063d547741f146104ae578063d92f4a65146104c1578063eb9535b5146104d4578063efcf8ba0146104e7578063f29bbde81461050e57600080fd5b8063c4d66de81461044e578063d11a57ec14610461578063d26c31f014610488578063d4747a521461049b57600080fd5b80638ebde500116100f45780638ebde5001461040057806391d1485414610413578063a217fddf14610426578063a698a0501461042e578063ba84fd691461044157600080fd5b806365ab51c7146103bf5780636dc1ccab146103d25780638413ec14146103e55780638456cb59146103f857600080fd5b80632f2ff15d116101a8578063430730a311610177578063430730a31461036a5780634d868f9814610391578063516f0a1b146103995780635590f601146103ac5780635c975abb146103b457600080fd5b80632f2ff15d1461032957806334d424541461033c57806336568abe1461034f5780633f4ba83a1461036257600080fd5b8063248a9ca3116101ef578063248a9ca3146102ba57806324d7806c146102dd5780632e0b2731146102f05780632ea8de7f146103035780632f0a0d4c1461031657600080fd5b806301ffc9a7146102215780630225693f1461024957806311e8a19b1461025e5780631f95d6c414610293575b600080fd5b61023461022f366004611262565b610535565b60405190151581526020015b60405180910390f35b61025c610257366004611202565b61056c565b005b6102857fac7c691a03473f8092b89da5909c50347b6fbcf5aadf1fde336cc225dbe6918581565b604051908152602001610240565b6102857ff83548f26d403fffccf722162528cee3be4ab11e3e7934b40e231e4aebbbc4a681565b6102856102c836600461121d565b60009081526065602052604090206001015490565b6102346102eb366004611202565b6105c2565b61025c6102fe366004611202565b6105ce565b610234610311366004611202565b610623565b61025c610324366004611202565b61064f565b61025c610337366004611236565b6106a4565b61025c61034a366004611202565b6106cf565b61025c61035d366004611236565b61071c565b61025c61079a565b6102857fc5e2d1653feba496cf5ce3a744b90ea18acf0df3d036aba9b2f85992a146790681565b61025c6107cb565b6102346103a7366004611202565b610811565b61025c61083d565b60975460ff16610234565b6102346103cd366004611202565b610886565b61025c6103e0366004611202565b6108b2565b61025c6103f3366004611202565b610907565b61025c61092c565b61023461040e366004611202565b61095b565b610234610421366004611236565b610983565b610285600081565b61025c61043c366004611202565b6109ae565b60c9546102349060ff1681565b61025c61045c366004611202565b610a37565b6102857fe1dcbdb91df27212a29bc27177c840cf2f819ecf2187432e1fac86c2dd5dfca981565b61025c610496366004611202565b610ada565b6102346104a9366004611202565b610b2f565b61025c6104bc366004611236565b610b5b565b61025c6104cf366004611202565b610b81565b6102346104e2366004611202565b610be5565b6102857f0ec78d622803f52545ab341c25cba2c48addbe09038a53881a5094d4c34459b681565b6102857f61d7aa1fb0c6989ceddd273d02e982ddc4445762b9b2dd886d67e5cabfed50cd81565b60006001600160e01b03198216637965db0b60e01b148061056657506301ffc9a760e01b6001600160e01b03198316145b92915050565b61057581610811565b6105bf5760405162461bcd60e51b815260206004820152601660248201527543616c6c6572206973206e6f7420547265617375727960501b60448201526064015b60405180910390fd5b50565b60006105668183610983565b6105d781610886565b6105bf5760405162461bcd60e51b815260206004820152601960248201527f43616c6c6572206973206e6f7420526567756c617253656c6c0000000000000060448201526064016105b6565b60006105667f61d7aa1fb0c6989ceddd273d02e982ddc4445762b9b2dd886d67e5cabfed50cd83610983565b61065881610be5565b6105bf5760405162461bcd60e51b815260206004820152601d60248201527f43616c6c6572206973206e6f7420496e6372656d656e74616c53656c6c00000060448201526064016105b6565b6000828152606560205260409020600101546106c08133610c11565b6106ca8383610c75565b505050565b6106d88161095b565b6105bf5760405162461bcd60e51b815260206004820152601560248201527421b0b63632b91034b9903737ba1020bab1ba34b7b760591b60448201526064016105b6565b6001600160a01b038116331461078c5760405162461bcd60e51b815260206004820152602f60248201527f416363657373436f6e74726f6c3a2063616e206f6e6c792072656e6f756e636560448201526e103937b632b9903337b91039b2b63360891b60648201526084016105b6565b6107968282610cfb565b5050565b6107a5600033610983565b6107c15760405162461bcd60e51b81526004016105b690611382565b6107c9610d62565b565b60975460ff16156107c95760405162461bcd60e51b815260206004820152601060248201526f14185d5cd8589b194e881c185d5cd95960821b60448201526064016105b6565b60006105667fe1dcbdb91df27212a29bc27177c840cf2f819ecf2187432e1fac86c2dd5dfca983610983565b60975460ff166107c95760405162461bcd60e51b815260206004820152601460248201527314185d5cd8589b194e881b9bdd081c185d5cd95960621b60448201526064016105b6565b60006105667fac7c691a03473f8092b89da5909c50347b6fbcf5aadf1fde336cc225dbe6918583610983565b6108bb81610623565b6105bf5760405162461bcd60e51b815260206004820152601760248201527f43616c6c6572206973206e6f74206120706c616e74657200000000000000000060448201526064016105b6565b610910816105c2565b6105bf5760405162461bcd60e51b81526004016105b690611382565b610937600033610983565b6109535760405162461bcd60e51b81526004016105b690611382565b6107c9610df5565b60006105667fc5e2d1653feba496cf5ce3a744b90ea18acf0df3d036aba9b2f85992a1467906835b60009182526065602090815260408084206001600160a01b0393909316845291905290205460ff1690565b6109b781610be5565b806109c657506109c68161095b565b806109d557506109d581610886565b6105bf5760405162461bcd60e51b815260206004820152602d60248201527f6e6f7420496e6372656d656e74616c53656c6c206f722041756374696f6e206f60448201526c1c88149959dd5b185c94d95b1b609a1b60648201526084016105b6565b600054610100900460ff1680610a50575060005460ff16155b610a6c5760405162461bcd60e51b81526004016105b690611334565b600054610100900460ff16158015610a8e576000805461ffff19166101011790555b610a96610e70565b610a9e610ef3565b60c9805460ff19166001179055610ab6600083610983565b610ac557610ac5600083610f5a565b8015610796576000805461ff00191690555050565b610ae381610b2f565b6105bf5760405162461bcd60e51b815260206004820152601960248201527f43616c6c6572206973206e6f742054726565466163746f72790000000000000060448201526064016105b6565b60006105667ff83548f26d403fffccf722162528cee3be4ab11e3e7934b40e231e4aebbbc4a683610983565b600082815260656020526040902060010154610b778133610c11565b6106ca8383610cfb565b610b8a81610be5565b80610b995750610b998161095b565b6105bf5760405162461bcd60e51b815260206004820152601e60248201527f6e6f7420496e6372656d656e74616c53656c6c206f722041756374696f6e000060448201526064016105b6565b60006105667f0ec78d622803f52545ab341c25cba2c48addbe09038a53881a5094d4c34459b683610983565b610c1b8282610983565b61079657610c33816001600160a01b03166014610f64565b610c3e836020610f64565b604051602001610c4f92919061128c565b60408051601f198184030181529082905262461bcd60e51b82526105b691600401611301565b610c7f8282610983565b6107965760008281526065602090815260408083206001600160a01b03851684529091529020805460ff19166001179055610cb73390565b6001600160a01b0316816001600160a01b0316837f2f8788117e7eff1d82e926ec794901d17c78024a50270940304540a733656f0d60405160405180910390a45050565b610d058282610983565b156107965760008281526065602090815260408083206001600160a01b0385168085529252808320805460ff1916905551339285917ff6391f5c32d9c69d2a47ea670b442974b53935d1edc7fd64eb21e047a839171b9190a45050565b60975460ff16610dab5760405162461bcd60e51b815260206004820152601460248201527314185d5cd8589b194e881b9bdd081c185d5cd95960621b60448201526064016105b6565b6097805460ff191690557f5db9ee0a495bf2e6ff9c91a7834c1ba4fdd244a5e8aa4e537bd38aeae4b073aa335b6040516001600160a01b03909116815260200160405180910390a1565b60975460ff1615610e3b5760405162461bcd60e51b815260206004820152601060248201526f14185d5cd8589b194e881c185d5cd95960821b60448201526064016105b6565b6097805460ff191660011790557f62e78cea01bee320cd4e420270b5ea74000d11b0c9f74754ebdbfc544b05a258610dd83390565b600054610100900460ff1680610e89575060005460ff16155b610ea55760405162461bcd60e51b81526004016105b690611334565b600054610100900460ff16158015610ec7576000805461ffff19166101011790555b610ecf611107565b610ed7611107565b610edf611107565b80156105bf576000805461ff001916905550565b600054610100900460ff1680610f0c575060005460ff16155b610f285760405162461bcd60e51b81526004016105b690611334565b600054610100900460ff16158015610f4a576000805461ffff19166101011790555b610f52611107565b610edf611171565b6107968282610c75565b60606000610f738360026113c7565b610f7e9060026113af565b67ffffffffffffffff811115610f9657610f96611459565b6040519080825280601f01601f191660200182016040528015610fc0576020820181803683370190505b509050600360fc1b81600081518110610fdb57610fdb611443565b60200101906001600160f81b031916908160001a905350600f60fb1b8160018151811061100a5761100a611443565b60200101906001600160f81b031916908160001a905350600061102e8460026113c7565b6110399060016113af565b90505b60018111156110b1576f181899199a1a9b1b9c1cb0b131b232b360811b85600f166010811061106d5761106d611443565b1a60f81b82828151811061108357611083611443565b60200101906001600160f81b031916908160001a90535060049490941c936110aa81611416565b905061103c565b5083156111005760405162461bcd60e51b815260206004820181905260248201527f537472696e67733a20686578206c656e67746820696e73756666696369656e7460448201526064016105b6565b9392505050565b600054610100900460ff1680611120575060005460ff16155b61113c5760405162461bcd60e51b81526004016105b690611334565b600054610100900460ff16158015610edf576000805461ffff191661010117905580156105bf576000805461ff001916905550565b600054610100900460ff168061118a575060005460ff16155b6111a65760405162461bcd60e51b81526004016105b690611334565b600054610100900460ff161580156111c8576000805461ffff19166101011790555b6097805460ff1916905580156105bf576000805461ff001916905550565b80356001600160a01b03811681146111fd57600080fd5b919050565b60006020828403121561121457600080fd5b611100826111e6565b60006020828403121561122f57600080fd5b5035919050565b6000806040838503121561124957600080fd5b82359150611259602084016111e6565b90509250929050565b60006020828403121561127457600080fd5b81356001600160e01b03198116811461110057600080fd5b7f416363657373436f6e74726f6c3a206163636f756e74200000000000000000008152600083516112c48160178501602088016113e6565b7001034b99036b4b9b9b4b733903937b6329607d1b60179184019182015283516112f58160288401602088016113e6565b01602801949350505050565b60208152600082518060208401526113208160408501602087016113e6565b601f01601f19169190910160400192915050565b6020808252602e908201527f496e697469616c697a61626c653a20636f6e747261637420697320616c72656160408201526d191e481a5b9a5d1a585b1a5e995960921b606082015260800190565b60208082526013908201527221b0b63632b91034b9903737ba1030b236b4b760691b604082015260600190565b600082198211156113c2576113c261142d565b500190565b60008160001904831182151516156113e1576113e161142d565b500290565b60005b838110156114015781810151838201526020016113e9565b83811115611410576000848401525b50505050565b6000816114255761142561142d565b506000190190565b634e487b7160e01b600052601160045260246000fd5b634e487b7160e01b600052603260045260246000fd5b634e487b7160e01b600052604160045260246000fdfea264697066735822122090c89b271e54e55b10206ed41ac0db91676db0f9038f6442964d9bef1daba47a64736f6c63430008060033",
  "immutableReferences": {},
  "source": "// SPDX-License-Identifier: GPL-3.0\n\npragma solidity ^0.8.6;\n\nimport \"@openzeppelin/contracts-upgradeable/access/AccessControlUpgradeable.sol\";\nimport \"@openzeppelin/contracts-upgradeable/security/PausableUpgradeable.sol\";\n\ncontract AccessRestriction is AccessControlUpgradeable, PausableUpgradeable {\n    bytes32 public constant PLANTER_ROLE = keccak256(\"PLANTER_ROLE\");\n    bytes32 public constant AUCTION_ROLE = keccak256(\"AUCTION_ROLE\");\n    bytes32 public constant TREE_FACTORY_ROLE = keccak256(\"TREE_FACTORY_ROLE\");\n    bytes32 public constant TREASURY_ROLE = keccak256(\"TREASURY_ROLE\");\n    bytes32 public constant REGULAR_SELL_ROLE = keccak256(\"REGULAR_SELL_ROLE\");\n\n    bytes32 public constant INCREMENTAL_SELL_ROLE =\n        keccak256(\"INCREMENTAL_SELL_ROLE\");\n    // @dev Sanity check that allows us to ensure that we are pointing to the\n    //  right contract in our setUpdateFactoryAddress() call.\n    bool public isAccessRestriction;\n\n    function initialize(address _deployer) public initializer {\n        AccessControlUpgradeable.__AccessControl_init();\n        PausableUpgradeable.__Pausable_init();\n\n        isAccessRestriction = true;\n\n        if (hasRole(DEFAULT_ADMIN_ROLE, _deployer) == false) {\n            _setupRole(DEFAULT_ADMIN_ROLE, _deployer);\n        }\n    }\n\n    modifier onlyAdmin() {\n        require(hasRole(DEFAULT_ADMIN_ROLE, msg.sender), \"Caller is not admin\");\n        _;\n    }\n\n    function ifPlanter(address _address) public view {\n        require(isPlanter(_address), \"Caller is not a planter\");\n    }\n\n    function isPlanter(address _address) public view returns (bool) {\n        return hasRole(PLANTER_ROLE, _address);\n    }\n\n    function ifAdmin(address _address) public view {\n        require(isAdmin(_address), \"Caller is not admin\");\n    }\n\n    function isAdmin(address _address) public view returns (bool) {\n        return hasRole(DEFAULT_ADMIN_ROLE, _address);\n    }\n\n    function ifNotPaused() public view {\n        require(!paused(), \"Pausable: paused\");\n    }\n\n    function ifPaused() public view {\n        require(paused(), \"Pausable: not paused\");\n    }\n\n    function pause() external onlyAdmin {\n        _pause();\n    }\n\n    function unpause() external onlyAdmin {\n        _unpause();\n    }\n\n    function ifAuction(address _address) public view {\n        require(isAuction(_address), \"Caller is not Auction\");\n    }\n\n    function isAuction(address _address) public view returns (bool) {\n        return hasRole(AUCTION_ROLE, _address);\n    }\n\n    function ifIncrementalSell(address _address) public view {\n        require(isIncrementalSell(_address), \"Caller is not IncrementalSell\");\n    }\n\n    function ifIncrementalSellOrAuction(address _address) public view {\n        require(\n            isIncrementalSell(_address) || isAuction(_address),\n            \"not IncrementalSell or Auction\"\n        );\n    }\n\n    function ifIncrementalSellOrAuctionOrRegularSell(address _address)\n        public\n        view\n    {\n        require(\n            isIncrementalSell(_address) ||\n                isAuction(_address) ||\n                isRegularSell(_address),\n            \"not IncrementalSell or Auction or RegularSell\"\n        );\n    }\n\n    function isIncrementalSell(address _address) public view returns (bool) {\n        return hasRole(INCREMENTAL_SELL_ROLE, _address);\n    }\n\n    function ifTreeFactory(address _address) public view {\n        require(isTreeFactory(_address), \"Caller is not TreeFactory\");\n    }\n\n    function isTreeFactory(address _address) public view returns (bool) {\n        return hasRole(TREE_FACTORY_ROLE, _address);\n    }\n\n    function ifTreasury(address _address) public view {\n        require(isTreasury(_address), \"Caller is not Treasury\");\n    }\n\n    function isTreasury(address _address) public view returns (bool) {\n        return hasRole(TREASURY_ROLE, _address);\n    }\n\n    function ifRegularSell(address _address) public view {\n        require(isRegularSell(_address), \"Caller is not RegularSell\");\n    }\n\n    function isRegularSell(address _address) public view returns (bool) {\n        return hasRole(REGULAR_SELL_ROLE, _address);\n    }\n}\n",
  "sourcePath": "/home/amir/Projects/treejer/contract-latest/contracts/access/AccessRestriction.sol",
  "compiler": {
    "name": "solc",
    "version": "0.8.6+commit.11564f7e.Emscripten.clang"
  },
  "schemaVersion": "3.4.1",
  "updatedAt": "2021-07-27T23:41:05.268Z",
  "networkType": "ethereum",
  "devdoc": {
    "kind": "dev",
    "methods": {
      "getRoleAdmin(bytes32)": {
        "details": "Returns the admin role that controls `role`. See {grantRole} and {revokeRole}. To change a role's admin, use {_setRoleAdmin}."
      },
      "grantRole(bytes32,address)": {
        "details": "Grants `role` to `account`. If `account` had not been already granted `role`, emits a {RoleGranted} event. Requirements: - the caller must have ``role``'s admin role."
      },
      "hasRole(bytes32,address)": {
        "details": "Returns `true` if `account` has been granted `role`."
      },
      "paused()": {
        "details": "Returns true if the contract is paused, and false otherwise."
      },
      "renounceRole(bytes32,address)": {
        "details": "Revokes `role` from the calling account. Roles are often managed via {grantRole} and {revokeRole}: this function's purpose is to provide a mechanism for accounts to lose their privileges if they are compromised (such as when a trusted device is misplaced). If the calling account had been granted `role`, emits a {RoleRevoked} event. Requirements: - the caller must be `account`."
      },
      "revokeRole(bytes32,address)": {
        "details": "Revokes `role` from `account`. If `account` had been granted `role`, emits a {RoleRevoked} event. Requirements: - the caller must have ``role``'s admin role."
      },
      "supportsInterface(bytes4)": {
        "details": "See {IERC165-supportsInterface}."
      }
    },
    "version": 1
  },
  "userdoc": {
    "kind": "user",
    "methods": {},
    "version": 1
  }
}