{
  "contractName": "Allocation",
  "abi": [
    {
      "anonymous": false,
      "inputs": [
        {
          "indexed": false,
          "internalType": "uint256",
          "name": "allocationDataId",
          "type": "uint256"
        }
      ],
      "name": "AllocationDataAdded",
      "type": "event"
    },
    {
      "anonymous": false,
      "inputs": [
        {
          "indexed": false,
          "internalType": "uint256",
          "name": "allocationToTreesLength",
          "type": "uint256"
        }
      ],
      "name": "AllocationToTreeAssigned",
      "type": "event"
    },
    {
      "inputs": [],
      "name": "accessRestriction",
      "outputs": [
        {
          "internalType": "contract IAccessRestriction",
          "name": "",
          "type": "address"
        }
      ],
      "stateMutability": "view",
      "type": "function",
      "constant": true
    },
    {
      "inputs": [
        {
          "internalType": "uint256",
          "name": "",
          "type": "uint256"
        }
      ],
      "name": "allocationToTrees",
      "outputs": [
        {
          "internalType": "uint256",
          "name": "startingTreeId",
          "type": "uint256"
        },
        {
          "internalType": "uint256",
          "name": "allocationDataId",
          "type": "uint256"
        }
      ],
      "stateMutability": "view",
      "type": "function",
      "constant": true
    },
    {
      "inputs": [
        {
          "internalType": "uint256",
          "name": "",
          "type": "uint256"
        }
      ],
      "name": "allocations",
      "outputs": [
        {
          "internalType": "uint16",
          "name": "planterShare",
          "type": "uint16"
        },
        {
          "internalType": "uint16",
          "name": "ambassadorShare",
          "type": "uint16"
        },
        {
          "internalType": "uint16",
          "name": "researchShare",
          "type": "uint16"
        },
        {
          "internalType": "uint16",
          "name": "localDevelopmentShare",
          "type": "uint16"
        },
        {
          "internalType": "uint16",
          "name": "insuranceShare",
          "type": "uint16"
        },
        {
          "internalType": "uint16",
          "name": "treasuryShare",
          "type": "uint16"
        },
        {
          "internalType": "uint16",
          "name": "reserve1Share",
          "type": "uint16"
        },
        {
          "internalType": "uint16",
          "name": "reserve2Share",
          "type": "uint16"
        },
        {
          "internalType": "uint16",
          "name": "exists",
          "type": "uint16"
        }
      ],
      "stateMutability": "view",
      "type": "function",
      "constant": true
    },
    {
      "inputs": [],
      "name": "isAllocation",
      "outputs": [
        {
          "internalType": "bool",
          "name": "",
          "type": "bool"
        }
      ],
      "stateMutability": "view",
      "type": "function",
      "constant": true
    },
    {
      "inputs": [],
      "name": "maxAssignedIndex",
      "outputs": [
        {
          "internalType": "uint256",
          "name": "",
          "type": "uint256"
        }
      ],
      "stateMutability": "view",
      "type": "function",
      "constant": true
    },
    {
      "inputs": [
        {
          "internalType": "address",
          "name": "_accessRestrictionAddress",
          "type": "address"
        }
      ],
      "name": "initialize",
      "outputs": [],
      "stateMutability": "nonpayable",
      "type": "function"
    },
    {
      "inputs": [
        {
          "internalType": "uint16",
          "name": "_planterShare",
          "type": "uint16"
        },
        {
          "internalType": "uint16",
          "name": "_ambassadorShare",
          "type": "uint16"
        },
        {
          "internalType": "uint16",
          "name": "_researchShare",
          "type": "uint16"
        },
        {
          "internalType": "uint16",
          "name": "_localDevelopmentShare",
          "type": "uint16"
        },
        {
          "internalType": "uint16",
          "name": "_insuranceShare",
          "type": "uint16"
        },
        {
          "internalType": "uint16",
          "name": "_treasuryShare",
          "type": "uint16"
        },
        {
          "internalType": "uint16",
          "name": "_reserve1Share",
          "type": "uint16"
        },
        {
          "internalType": "uint16",
          "name": "_reserve2Share",
          "type": "uint16"
        }
      ],
      "name": "addAllocationData",
      "outputs": [],
      "stateMutability": "nonpayable",
      "type": "function"
    },
    {
      "inputs": [
        {
          "internalType": "uint256",
          "name": "_startTreeId",
          "type": "uint256"
        },
        {
          "internalType": "uint256",
          "name": "_endTreeId",
          "type": "uint256"
        },
        {
          "internalType": "uint256",
          "name": "_allocationDataId",
          "type": "uint256"
        }
      ],
      "name": "assignAllocationToTree",
      "outputs": [],
      "stateMutability": "nonpayable",
      "type": "function"
    },
    {
      "inputs": [
        {
          "internalType": "uint256",
          "name": "_treeId",
          "type": "uint256"
        }
      ],
      "name": "exists",
      "outputs": [
        {
          "internalType": "bool",
          "name": "",
          "type": "bool"
        }
      ],
      "stateMutability": "view",
      "type": "function",
      "constant": true
    },
    {
      "inputs": [
        {
          "internalType": "uint256",
          "name": "_treeId",
          "type": "uint256"
        }
      ],
      "name": "findAllocationData",
      "outputs": [
        {
          "internalType": "uint16",
          "name": "planterShare",
          "type": "uint16"
        },
        {
          "internalType": "uint16",
          "name": "ambassadorShare",
          "type": "uint16"
        },
        {
          "internalType": "uint16",
          "name": "researchShare",
          "type": "uint16"
        },
        {
          "internalType": "uint16",
          "name": "localDevelopmentShare",
          "type": "uint16"
        },
        {
          "internalType": "uint16",
          "name": "insuranceShare",
          "type": "uint16"
        },
        {
          "internalType": "uint16",
          "name": "treasuryShare",
          "type": "uint16"
        },
        {
          "internalType": "uint16",
          "name": "reserve1Share",
          "type": "uint16"
        },
        {
          "internalType": "uint16",
          "name": "reserve2Share",
          "type": "uint16"
        }
      ],
      "stateMutability": "view",
      "type": "function",
      "constant": true
    }
  ],
  "bytecode": "0x608060405234801561001057600080fd5b506110c0806100206000396000f3fe608060405234801561001057600080fd5b506004361061009e5760003560e01c80635944d7b4116100665780635944d7b414610218578063ac55026c1461022f578063b0f4b98114610242578063c4d66de81461026a578063d6762c4a1461027d57600080fd5b80630393f3d3146100a35780630a2642bf146101085780632f10d795146101d35780634b91f790146101f05780634f558e7914610205575b600080fd5b6100b66100b1366004610fa9565b6102a8565b6040805161ffff998a16815297891660208901529588169587019590955292861660608601529085166080850152841660a0840152831660c083015290911660e0820152610100015b60405180910390f35b61017e610116366004610fa9565b60066020526000908152604090205461ffff808216916201000081048216916401000000008204811691600160301b8104821691600160401b8204811691600160501b8104821691600160601b8204811691600160701b8104821691600160801b9091041689565b6040805161ffff9a8b168152988a1660208a01529689169688019690965293871660608701529186166080860152851660a0850152841660c0840152831660e0830152909116610100820152610120016100ff565b6002546101e09060ff1681565b60405190151581526020016100ff565b6102036101fe366004610f12565b6104db565b005b6101e0610213366004610fa9565b61079d565b61022160035481565b6040519081526020016100ff565b61020361023d366004610fc2565b6107df565b610255610250366004610fa9565b610cd7565b604080519283526020830191909152016100ff565b610203610278366004610ec0565b610d05565b600454610290906001600160a01b031681565b6040516001600160a01b0390911681526020016100ff565b60008080808080808080805b6005548110156103e9578a600582815481106102d2576102d2611074565b90600052602060002090600202016000015411156103d757600081116103345760405162461bcd60e51b81526020600482015260126024820152711a5b9d985b1a5908199d5b99081b5bd9195b60721b60448201526064015b60405180910390fd5b60066000600561034560018561102c565b8154811061035557610355611074565b6000918252602080832060016002909302019190910154835282019290925260400190205461ffff8082169b5062010000820481169a50640100000000820481169950600160301b820481169850600160401b820481169750600160501b820481169650600160601b820481169550600160701b9091041692506104d0915050565b806103e181611043565b9150506102b4565b5060055461042e5760405162461bcd60e51b81526020600482015260126024820152711a5b9d985b1a5908199d5b99081b5bd9195b60721b604482015260640161032b565b600580546006916000916104449060019061102c565b8154811061045457610454611074565b6000918252602080832060016002909302019190910154835282019290925260400190205461ffff8082169a5062010000820481169950640100000000820481169850600160301b820481169750600160401b820481169650600160501b820481169550600160601b820481169450600160701b909104169150505b919395975091939597565b6004805460405163c4d2a31b60e01b815233928101929092526001600160a01b03169063c4d2a31b9060240160006040518083038186803b15801561051f57600080fd5b505afa158015610533573d6000803e3d6000fd5b5050505080828486888a8c8e6105499190610fee565b6105539190610fee565b61055d9190610fee565b6105679190610fee565b6105719190610fee565b61057b9190610fee565b6105859190610fee565b61ffff16612710146105cd5760405162461bcd60e51b8152602060048201526011602482015270073756d206d75737420626520313030303607c1b604482015260640161032b565b6040518061012001604052808961ffff1681526020018861ffff1681526020018761ffff1681526020018661ffff1681526020018561ffff1681526020018461ffff1681526020018361ffff1681526020018261ffff168152602001600161ffff168152506006600061063f60015490565b815260208082019290925260409081016000208351815493850151928501516060860151608087015160a088015160c089015160e08a0151610100909a015161ffff96871663ffffffff19909a169990991762010000988716989098029790971767ffffffff0000000019166401000000009486169490940267ffff000000000000191693909317600160301b92851692909202919091176bffffffff00000000000000001916600160401b9184169190910261ffff60501b191617600160501b918316919091021763ffffffff60601b1916600160601b9382169390930261ffff60701b191692909217600160701b948316949094029390931761ffff60801b1916600160801b91909216021790556001547f0dd0d313c56d617095a032204241c5152f7c089ade8ddfb595b985d40f3ed0029060405190815260200160405180910390a1610793600180546001019055565b5050505050505050565b6005546000906107af57506000919050565b60056000815481106107c3576107c3611074565b9060005260206000209060020201600001548210159050919050565b6004805460405163c4d2a31b60e01b815233928101929092526001600160a01b03169063c4d2a31b9060240160006040518083038186803b15801561082357600080fd5b505afa158015610837573d6000803e3d6000fd5b505050600082815260066020526040902054600160801b900461ffff16151590506108a45760405162461bcd60e51b815260206004820152601a60248201527f416c6c6f636174696f6e206d6f64656c206e6f7420666f756e64000000000000604482015260640161032b565b60006005805480602002602001604051908101604052809291908181526020016000905b8282101561090e578382906000526020600020906002020160405180604001604052908160008201548152602001600182015481525050815260200190600101906108c8565b505050509050600560006109229190610e66565b6000805b8251811015610b58578583828151811061094257610942611074565b602002602001015160000151101561099c57600583828151811061096857610968611074565b6020908102919091018101518254600181810185556000948552938390208251600290920201908155910151910155610b46565b81610a1f576040805180820190915286815260208101858152600580546001808201835560009290925292517f036b6384b5eca791c62761152d0c79bb0604c104a5fb6f4eb0703f3154bb3db060029094029384015590517f036b6384b5eca791c62761152d0c79bb0604c104a5fb6f4eb0703f3154bb3db19092019190915591505b8160011415610af95784158015610a3557508515155b15610a435760059150610b58565b600081118015610a7b5750828181518110610a6057610a60611074565b602002602001015160000151856001610a799190611014565b105b15610af95760056040518060400160405280876001610a9a9190611014565b815260200185610aab60018661102c565b81518110610abb57610abb611074565b602090810291909101810151810151909152825460018181018555600094855293829020835160029283029091019081559290910151919092015591505b8160021415610b46576005838281518110610b1657610b16611074565b60209081029190910181015182546001818101855560009485529383902082516002909202019081559101519101555b80610b5081611043565b915050610926565b5080610bf25760408051808201909152858152602081018481526005805460018101825560009190915291517f036b6384b5eca791c62761152d0c79bb0604c104a5fb6f4eb0703f3154bb3db0600290930292830155517f036b6384b5eca791c62761152d0c79bb0604c104a5fb6f4eb0703f3154bb3db19091015583158015610be157508415155b15610bee57506005610bf2565b5060015b8060051415610c02576000196003555b8060011415610c9a57836003541015610c1f576003849055610c9a565b815115610c9a5760056040518060400160405280866001610c409190611014565b81526020018460018651610c54919061102c565b81518110610c6457610c64611074565b60209081029190910181015181015190915282546001818101855560009485529382902083516002909202019081559101519101555b6005546040519081527f6274971910d0bc89be7375f4595c08706db6f72b791ccdbebbe798cd373174cc9060200160405180910390a15050505050565b60058181548110610ce757600080fd5b60009182526020909120600290910201805460019091015490915082565b600054610100900460ff1680610d1e575060005460ff16155b610d815760405162461bcd60e51b815260206004820152602e60248201527f496e697469616c697a61626c653a20636f6e747261637420697320616c72656160448201526d191e481a5b9a5d1a585b1a5e995960921b606482015260840161032b565b600054610100900460ff16158015610da3576000805461ffff19166101011790555b6000829050806001600160a01b031663ba84fd696040518163ffffffff1660e01b815260040160206040518083038186803b158015610de157600080fd5b505afa158015610df5573d6000803e3d6000fd5b505050506040513d601f19601f82011682018060405250810190610e199190610ef0565b610e2257600080fd5b6002805460ff19166001179055600480546001600160a01b039092166001600160a01b03199092169190911790558015610e62576000805461ff00191690555b5050565b5080546000825560020290600052602060002090810190610e879190610e8a565b50565b5b80821115610ea55760008082556001820155600201610e8b565b5090565b803561ffff81168114610ebb57600080fd5b919050565b600060208284031215610ed257600080fd5b81356001600160a01b0381168114610ee957600080fd5b9392505050565b600060208284031215610f0257600080fd5b81518015158114610ee957600080fd5b600080600080600080600080610100898b031215610f2f57600080fd5b610f3889610ea9565b9750610f4660208a01610ea9565b9650610f5460408a01610ea9565b9550610f6260608a01610ea9565b9450610f7060808a01610ea9565b9350610f7e60a08a01610ea9565b9250610f8c60c08a01610ea9565b9150610f9a60e08a01610ea9565b90509295985092959890939650565b600060208284031215610fbb57600080fd5b5035919050565b600080600060608486031215610fd757600080fd5b505081359360208301359350604090920135919050565b600061ffff80831681851680830382111561100b5761100b61105e565b01949350505050565b600082198211156110275761102761105e565b500190565b60008282101561103e5761103e61105e565b500390565b60006000198214156110575761105761105e565b5060010190565b634e487b7160e01b600052601160045260246000fd5b634e487b7160e01b600052603260045260246000fdfea2646970667358221220cdc02b2e264eb736fd8b547135be05d153123f2e1b36a797dd41542326bdbe2e64736f6c63430008060033",
  "immutableReferences": {},
  "source": "// SPDX-License-Identifier: GPL-3.0\n\npragma solidity ^0.8.6;\n\nimport \"@openzeppelin/contracts-upgradeable/utils/CountersUpgradeable.sol\";\nimport \"@openzeppelin/contracts-upgradeable/proxy/utils/Initializable.sol\";\nimport \"../access/IAccessRestriction.sol\";\n\npragma abicoder v2;\n\n/** @title Allocation Contract */\n\ncontract Allocation is Initializable {\n    using CountersUpgradeable for CountersUpgradeable.Counter;\n\n    CountersUpgradeable.Counter private allocationCount;\n\n    /** NOTE {isAllocation} set inside the initialize to {true} */\n    bool public isAllocation;\n    /** NOTE maximum index assigned */\n    uint256 public maxAssignedIndex;\n\n    IAccessRestriction public accessRestriction;\n\n    struct AllocationData {\n        uint16 planterShare;\n        uint16 ambassadorShare;\n        uint16 researchShare;\n        uint16 localDevelopmentShare;\n        uint16 insuranceShare;\n        uint16 treasuryShare;\n        uint16 reserve1Share;\n        uint16 reserve2Share;\n        uint16 exists;\n    }\n\n    struct AllocationToTree {\n        uint256 startingTreeId;\n        uint256 allocationDataId;\n    }\n    /**array of strating tree with specific allocation  */\n    AllocationToTree[] public allocationToTrees;\n\n    /** NOTE mapping of allocationDataId to AllocationData*/\n    mapping(uint256 => AllocationData) public allocations;\n\n    event AllocationDataAdded(uint256 allocationDataId);\n\n    event AllocationToTreeAssigned(uint256 allocationToTreesLength);\n\n    /** NOTE modifier to check msg.sender has data manager role */\n    modifier onlyDataManager() {\n        accessRestriction.ifDataManager(msg.sender);\n        _;\n    }\n\n    /**\n     * @dev initialize accessRestriction contract and set true for isAllocation\n     * @param _accessRestrictionAddress set to the address of accessRestriction contract\n     */\n    function initialize(address _accessRestrictionAddress)\n        external\n        initializer\n    {\n        IAccessRestriction candidateContract = IAccessRestriction(\n            _accessRestrictionAddress\n        );\n\n        require(candidateContract.isAccessRestriction());\n\n        isAllocation = true;\n        accessRestriction = candidateContract;\n    }\n\n    /**\n     * @dev admin add a model for allocation data that sum of the\n     * inputs must be 10000\n     * @param _planterShare planter share\n     * @param _ambassadorShare ambassador share\n     * @param _researchShare  research share\n     * @param _localDevelopmentShare local development share\n     * @param _insuranceShare insurance share\n     * @param _treasuryShare _treasuryshare\n     * @param _reserve1Share reserve1 share\n     * @param _reserve2Share reserve2 share\n     */\n    function addAllocationData(\n        uint16 _planterShare,\n        uint16 _ambassadorShare,\n        uint16 _researchShare,\n        uint16 _localDevelopmentShare,\n        uint16 _insuranceShare,\n        uint16 _treasuryShare,\n        uint16 _reserve1Share,\n        uint16 _reserve2Share\n    ) external onlyDataManager {\n        require(\n            _planterShare +\n                _ambassadorShare +\n                _researchShare +\n                _localDevelopmentShare +\n                _insuranceShare +\n                _treasuryShare +\n                _reserve1Share +\n                _reserve2Share ==\n                10000,\n            \"sum must be 10000\"\n        );\n\n        allocations[allocationCount.current()] = AllocationData(\n            _planterShare,\n            _ambassadorShare,\n            _researchShare,\n            _localDevelopmentShare,\n            _insuranceShare,\n            _treasuryShare,\n            _reserve1Share,\n            _reserve2Share,\n            1\n        );\n\n        emit AllocationDataAdded(allocationCount.current());\n\n        allocationCount.increment();\n    }\n\n    /**\n     * @dev admin assign a allocation data to trees starting from\n     * {_startTreeId} and end at {_endTreeId}\n     * @param _startTreeId strating tree id to assign alloction to\n     * @param _endTreeId ending tree id to assign alloction to\n     * @param _allocationDataId allocation data id to assign\n     */\n    function assignAllocationToTree(\n        uint256 _startTreeId,\n        uint256 _endTreeId,\n        uint256 _allocationDataId\n    ) external onlyDataManager {\n        require(\n            allocations[_allocationDataId].exists > 0,\n            \"Allocation model not found\"\n        );\n\n        AllocationToTree[] memory tempAllocationToTree = allocationToTrees;\n\n        delete allocationToTrees;\n\n        uint256 flag = 0;\n\n        for (uint256 i = 0; i < tempAllocationToTree.length; i++) {\n            if (tempAllocationToTree[i].startingTreeId < _startTreeId) {\n                allocationToTrees.push(tempAllocationToTree[i]);\n            } else {\n                if (flag == 0) {\n                    allocationToTrees.push(\n                        AllocationToTree(_startTreeId, _allocationDataId)\n                    );\n                    flag = 1;\n                }\n                if (flag == 1) {\n                    if (_endTreeId == 0 && _startTreeId != 0) {\n                        flag = 5;\n                        break;\n                    }\n                    if (\n                        i > 0 &&\n                        _endTreeId + 1 < tempAllocationToTree[i].startingTreeId\n                    ) {\n                        allocationToTrees.push(\n                            AllocationToTree(\n                                _endTreeId + 1,\n                                tempAllocationToTree[i - 1].allocationDataId\n                            )\n                        );\n                        flag = 2;\n                    }\n                }\n                if (flag == 2) {\n                    allocationToTrees.push(tempAllocationToTree[i]);\n                }\n            }\n        }\n\n        if (flag == 0) {\n            allocationToTrees.push(\n                AllocationToTree(_startTreeId, _allocationDataId)\n            );\n            if (_endTreeId == 0 && _startTreeId != 0) {\n                flag = 5;\n            } else {\n                flag = 1;\n            }\n        }\n\n        if (flag == 5) {\n            maxAssignedIndex = type(uint256).max;\n        }\n\n        if (flag == 1) {\n            if (maxAssignedIndex < _endTreeId) {\n                maxAssignedIndex = _endTreeId;\n            } else if (tempAllocationToTree.length > 0) {\n                allocationToTrees.push(\n                    AllocationToTree(\n                        _endTreeId + 1,\n                        tempAllocationToTree[tempAllocationToTree.length - 1]\n                            .allocationDataId\n                    )\n                );\n            }\n        }\n\n        emit AllocationToTreeAssigned(allocationToTrees.length);\n    }\n\n    /**\n     * @dev check if there is allocation data for {_treeId} or not\n     * @param _treeId id of a tree to check if there is a allocation data\n     * @return true if allocation data exists for {_treeId} and false otherwise\n     */\n\n    function exists(uint256 _treeId) external view returns (bool) {\n        if (allocationToTrees.length == 0) {\n            return false;\n        }\n\n        return _treeId >= allocationToTrees[0].startingTreeId;\n    }\n\n    /**\n     * @dev return allocation data\n     * @param _treeId id of tree to find allocation data\n     * @return planterShare\n     * @return ambassadorShare\n     * @return researchShare\n     * @return localDevelopmentShare\n     * @return insuranceShare\n     * @return treasuryShare\n     * @return reserve1Share\n     * @return reserve2Share\n     */\n    function findAllocationData(uint256 _treeId)\n        external\n        view\n        returns (\n            uint16 planterShare,\n            uint16 ambassadorShare,\n            uint16 researchShare,\n            uint16 localDevelopmentShare,\n            uint16 insuranceShare,\n            uint16 treasuryShare,\n            uint16 reserve1Share,\n            uint16 reserve2Share\n        )\n    {\n        AllocationData storage allocationData;\n\n        for (uint256 i = 0; i < allocationToTrees.length; i++) {\n            if (allocationToTrees[i].startingTreeId > _treeId) {\n                require(i > 0, \"invalid fund model\");\n\n                allocationData = allocations[\n                    allocationToTrees[i - 1].allocationDataId\n                ];\n\n                return (\n                    allocationData.planterShare,\n                    allocationData.ambassadorShare,\n                    allocationData.researchShare,\n                    allocationData.localDevelopmentShare,\n                    allocationData.insuranceShare,\n                    allocationData.treasuryShare,\n                    allocationData.reserve1Share,\n                    allocationData.reserve2Share\n                );\n            }\n        }\n\n        require(allocationToTrees.length > 0, \"invalid fund model\");\n\n        allocationData = allocations[\n            allocationToTrees[allocationToTrees.length - 1].allocationDataId\n        ];\n\n        return (\n            allocationData.planterShare,\n            allocationData.ambassadorShare,\n            allocationData.researchShare,\n            allocationData.localDevelopmentShare,\n            allocationData.insuranceShare,\n            allocationData.treasuryShare,\n            allocationData.reserve1Share,\n            allocationData.reserve2Share\n        );\n    }\n}\n",
  "sourcePath": "/media/ali/New Volume/treejer/contract/contracts/treasury/Allocation.sol",
  "compiler": {
    "name": "solc",
    "version": "0.8.6+commit.11564f7e.Emscripten.clang"
  },
  "schemaVersion": "3.4.3",
  "updatedAt": "2021-10-25T21:10:51.557Z",
  "networkType": "ethereum",
  "devdoc": {
    "kind": "dev",
    "methods": {
      "addAllocationData(uint16,uint16,uint16,uint16,uint16,uint16,uint16,uint16)": {
        "details": "admin add a model for allocation data that sum of the inputs must be 10000",
        "params": {
          "_ambassadorShare": "ambassador share",
          "_insuranceShare": "insurance share",
          "_localDevelopmentShare": "local development share",
          "_planterShare": "planter share",
          "_researchShare": "research share",
          "_reserve1Share": "reserve1 share",
          "_reserve2Share": "reserve2 share",
          "_treasuryShare": "_treasuryshare"
        }
      },
      "assignAllocationToTree(uint256,uint256,uint256)": {
        "details": "admin assign a allocation data to trees starting from {_startTreeId} and end at {_endTreeId}",
        "params": {
          "_allocationDataId": "allocation data id to assign",
          "_endTreeId": "ending tree id to assign alloction to",
          "_startTreeId": "strating tree id to assign alloction to"
        }
      },
      "exists(uint256)": {
        "details": "check if there is allocation data for {_treeId} or not",
        "params": {
          "_treeId": "id of a tree to check if there is a allocation data"
        },
        "returns": {
          "_0": "true if allocation data exists for {_treeId} and false otherwise"
        }
      },
      "findAllocationData(uint256)": {
        "details": "return allocation data",
        "params": {
          "_treeId": "id of tree to find allocation data"
        },
        "returns": {
          "ambassadorShare": "ambassadorShare",
          "insuranceShare": "insuranceShare",
          "localDevelopmentShare": "localDevelopmentShare",
          "planterShare": "planterShare",
          "researchShare": "researchShare",
          "reserve1Share": "reserve1Share",
          "reserve2Share": "reserve2Share",
          "treasuryShare": "treasuryShare"
        }
      },
      "initialize(address)": {
        "details": "initialize accessRestriction contract and set true for isAllocation",
        "params": {
          "_accessRestrictionAddress": "set to the address of accessRestriction contract"
        }
      }
    },
    "title": "Allocation Contract ",
    "version": 1
  },
  "userdoc": {
    "kind": "user",
    "methods": {
      "allocationToTrees(uint256)": {
        "notice": "array of strating tree with specific allocation  "
      },
      "allocations(uint256)": {
        "notice": "NOTE mapping of allocationDataId to AllocationData"
      },
      "isAllocation()": {
        "notice": "NOTE {isAllocation} set inside the initialize to {true} "
      },
      "maxAssignedIndex()": {
        "notice": "NOTE maximum index assigned "
      }
    },
    "version": 1
  }
}