{
  "contractName": "Attribute",
  "abi": [
    {
      "anonymous": false,
      "inputs": [
        {
          "indexed": false,
          "internalType": "uint256",
          "name": "treeId",
          "type": "uint256"
        }
      ],
      "name": "AttributeGenerated",
      "type": "event"
    },
    {
      "anonymous": false,
      "inputs": [
        {
          "indexed": false,
          "internalType": "uint256",
          "name": "treeId",
          "type": "uint256"
        }
      ],
      "name": "AttributeGenerationFailed",
      "type": "event"
    },
    {
      "anonymous": false,
      "inputs": [
        {
          "indexed": false,
          "internalType": "uint64",
          "name": "uniquenessFactor",
          "type": "uint64"
        }
      ],
      "name": "ReservedSymbolReleased",
      "type": "event"
    },
    {
      "anonymous": false,
      "inputs": [
        {
          "indexed": false,
          "internalType": "uint64",
          "name": "uniquenessFactor",
          "type": "uint64"
        }
      ],
      "name": "SymbolReserved",
      "type": "event"
    },
    {
      "inputs": [],
      "name": "accessRestriction",
      "outputs": [
        {
          "internalType": "contract IAccessRestriction",
          "name": "",
          "type": "address"
        }
      ],
      "stateMutability": "view",
      "type": "function",
      "constant": true
    },
    {
      "inputs": [],
      "name": "isAttribute",
      "outputs": [
        {
          "internalType": "bool",
          "name": "",
          "type": "bool"
        }
      ],
      "stateMutability": "view",
      "type": "function",
      "constant": true
    },
    {
      "inputs": [],
      "name": "specialTreeCount",
      "outputs": [
        {
          "internalType": "uint8",
          "name": "",
          "type": "uint8"
        }
      ],
      "stateMutability": "view",
      "type": "function",
      "constant": true
    },
    {
      "inputs": [],
      "name": "treeToken",
      "outputs": [
        {
          "internalType": "contract ITree",
          "name": "",
          "type": "address"
        }
      ],
      "stateMutability": "view",
      "type": "function",
      "constant": true
    },
    {
      "inputs": [
        {
          "internalType": "uint64",
          "name": "",
          "type": "uint64"
        }
      ],
      "name": "uniquenessFactorToGeneratedAttributesCount",
      "outputs": [
        {
          "internalType": "uint32",
          "name": "",
          "type": "uint32"
        }
      ],
      "stateMutability": "view",
      "type": "function",
      "constant": true
    },
    {
      "inputs": [
        {
          "internalType": "uint64",
          "name": "",
          "type": "uint64"
        }
      ],
      "name": "uniquenessFactorToSymbolStatus",
      "outputs": [
        {
          "internalType": "uint128",
          "name": "generatedCount",
          "type": "uint128"
        },
        {
          "internalType": "uint128",
          "name": "status",
          "type": "uint128"
        }
      ],
      "stateMutability": "view",
      "type": "function",
      "constant": true
    },
    {
      "inputs": [
        {
          "internalType": "address",
          "name": "_accessRestrictionAddress",
          "type": "address"
        }
      ],
      "name": "initialize",
      "outputs": [],
      "stateMutability": "nonpayable",
      "type": "function"
    },
    {
      "inputs": [
        {
          "internalType": "address",
          "name": "_address",
          "type": "address"
        }
      ],
      "name": "setTreeTokenAddress",
      "outputs": [],
      "stateMutability": "nonpayable",
      "type": "function"
    },
    {
      "inputs": [
        {
          "internalType": "uint64",
          "name": "_uniquenessFactor",
          "type": "uint64"
        }
      ],
      "name": "reserveSymbol",
      "outputs": [],
      "stateMutability": "nonpayable",
      "type": "function"
    },
    {
      "inputs": [
        {
          "internalType": "uint64",
          "name": "_uniquenessFactor",
          "type": "uint64"
        }
      ],
      "name": "releaseReservedSymbolByAdmin",
      "outputs": [],
      "stateMutability": "nonpayable",
      "type": "function"
    },
    {
      "inputs": [
        {
          "internalType": "uint64",
          "name": "_uniquenessFactor",
          "type": "uint64"
        }
      ],
      "name": "releaseReservedSymbol",
      "outputs": [],
      "stateMutability": "nonpayable",
      "type": "function"
    },
    {
      "inputs": [
        {
          "internalType": "uint256",
          "name": "_treeId",
          "type": "uint256"
        },
        {
          "internalType": "uint64",
          "name": "_attributeUniquenessFactor",
          "type": "uint64"
        },
        {
          "internalType": "uint64",
          "name": "_symbolUniquenessFactor",
          "type": "uint64"
        },
        {
          "internalType": "uint8",
          "name": "_generationType",
          "type": "uint8"
        }
      ],
      "name": "setAttribute",
      "outputs": [],
      "stateMutability": "nonpayable",
      "type": "function"
    },
    {
      "inputs": [
        {
          "internalType": "uint256",
          "name": "_treeId",
          "type": "uint256"
        },
        {
          "internalType": "bytes32",
          "name": "_randomValue",
          "type": "bytes32"
        },
        {
          "internalType": "address",
          "name": "_funder",
          "type": "address"
        },
        {
          "internalType": "uint8",
          "name": "_funderRank",
          "type": "uint8"
        },
        {
          "internalType": "uint8",
          "name": "_generationType",
          "type": "uint8"
        }
      ],
      "name": "createSymbol",
      "outputs": [
        {
          "internalType": "bool",
          "name": "",
          "type": "bool"
        }
      ],
      "stateMutability": "nonpayable",
      "type": "function"
    },
    {
      "inputs": [
        {
          "internalType": "uint256",
          "name": "_treeId",
          "type": "uint256"
        }
      ],
      "name": "createAttribute",
      "outputs": [
        {
          "internalType": "bool",
          "name": "",
          "type": "bool"
        }
      ],
      "stateMutability": "nonpayable",
      "type": "function"
    },
    {
      "inputs": [
        {
          "internalType": "uint256",
          "name": "_treeId",
          "type": "uint256"
        },
        {
          "internalType": "uint64",
          "name": "_uniquenessFactor",
          "type": "uint64"
        }
      ],
      "name": "manageAttributeUniquenessFactor",
      "outputs": [
        {
          "internalType": "uint64",
          "name": "",
          "type": "uint64"
        }
      ],
      "stateMutability": "nonpayable",
      "type": "function"
    },
    {
      "inputs": [
        {
          "internalType": "address",
          "name": "_funder",
          "type": "address"
        }
      ],
      "name": "getFunderRank",
      "outputs": [
        {
          "internalType": "uint8",
          "name": "",
          "type": "uint8"
        }
      ],
      "stateMutability": "view",
      "type": "function",
      "constant": true
    },
    {
      "inputs": [
        {
          "internalType": "uint16",
          "name": "_randomValue",
          "type": "uint16"
        },
        {
          "internalType": "uint8",
          "name": "_funderRank",
          "type": "uint8"
        }
      ],
      "name": "_calcShape",
      "outputs": [
        {
          "internalType": "uint8",
          "name": "",
          "type": "uint8"
        }
      ],
      "stateMutability": "nonpayable",
      "type": "function"
    },
    {
      "inputs": [
        {
          "internalType": "uint8",
          "name": "_randomValue1",
          "type": "uint8"
        },
        {
          "internalType": "uint8",
          "name": "_randomValue2",
          "type": "uint8"
        },
        {
          "internalType": "uint8",
          "name": "_funderRank",
          "type": "uint8"
        }
      ],
      "name": "_calcColors",
      "outputs": [
        {
          "internalType": "uint8",
          "name": "",
          "type": "uint8"
        },
        {
          "internalType": "uint8",
          "name": "",
          "type": "uint8"
        }
      ],
      "stateMutability": "pure",
      "type": "function",
      "constant": true
    },
    {
      "inputs": [
        {
          "internalType": "uint8",
          "name": "_shape",
          "type": "uint8"
        }
      ],
      "name": "_setSpecialTreeColors",
      "outputs": [
        {
          "internalType": "uint8",
          "name": "",
          "type": "uint8"
        },
        {
          "internalType": "uint8",
          "name": "",
          "type": "uint8"
        }
      ],
      "stateMutability": "pure",
      "type": "function",
      "constant": true
    },
    {
      "inputs": [
        {
          "internalType": "uint8",
          "name": "_randomValue",
          "type": "uint8"
        },
        {
          "internalType": "uint8",
          "name": "_funderRank",
          "type": "uint8"
        }
      ],
      "name": "_calcEffects",
      "outputs": [
        {
          "internalType": "uint8",
          "name": "",
          "type": "uint8"
        }
      ],
      "stateMutability": "pure",
      "type": "function",
      "constant": true
    },
    {
      "inputs": [
        {
          "internalType": "uint8",
          "name": "_randomValue",
          "type": "uint8"
        },
        {
          "internalType": "uint8",
          "name": "_funderRank",
          "type": "uint8"
        }
      ],
      "name": "_calcCoefficient",
      "outputs": [
        {
          "internalType": "uint8",
          "name": "",
          "type": "uint8"
        }
      ],
      "stateMutability": "pure",
      "type": "function",
      "constant": true
    }
  ],
  "bytecode": "0x608060405234801561001057600080fd5b50612a25806100206000396000f3fe608060405234801561001057600080fd5b50600436106101365760003560e01c806369959714116100b8578063ca3dac2d1161007c578063ca3dac2d1461031d578063d6762c4a14610330578063d6f374491461034a578063f254ab8f1461035d578063fb05cb9d14610388578063feb8747c1461039b57600080fd5b806369959714146102ab5780637adf582b146102be57806384d20722146102e3578063912cbe10146102f7578063c4d66de81461030a57600080fd5b80632199e777116100ff5780632199e777146101f157806338f1f40f1461020457806339438660146102175780633fbfe48e1461022a578063697d198a1461025757600080fd5b80626ab5211461013b5780630b9cd0041461015057806310720cd61461016357806312cc3ab0146101a357806313e939e2146101ce575b600080fd5b61014e6101493660046127b1565b6103ae565b005b61014e61015e3660046127fe565b61064b565b6101896101713660046127fe565b60026020526000908152604090205463ffffffff1681565b60405163ffffffff90911681526020015b60405180910390f35b6001546101b6906001600160a01b031681565b6040516001600160a01b03909116815260200161019a565b6000546101e19062010000900460ff1681565b604051901515815260200161019a565b6101e16101ff366004612705565b610781565b61014e610212366004612685565b6109fe565b61014e6102253660046127fe565b610b01565b61023d610238366004612850565b610c2f565b6040805160ff93841681529290911660208301520161019a565b61028b6102653660046127fe565b6003602052600090815260409020546001600160801b0380821691600160801b90041682565b604080516001600160801b0393841681529290911660208301520161019a565b61014e6102b93660046127fe565b610eed565b6102d16102cc366004612834565b610fd8565b60405160ff909116815260200161019a565b6001546102d190600160a01b900460ff1681565b6102d1610305366004612685565b6111f6565b61014e610318366004612685565b6112ba565b6101e161032b366004612737565b611428565b6000546101b690630100000090046001600160a01b031681565b61023d610358366004612819565b6116ea565b61037061036b36600461278e565b61189e565b6040516001600160401b03909116815260200161019a565b6102d1610396366004612834565b6119dd565b6102d16103a93660046126c9565b611d2a565b6000546040516324f9e45f60e01b815233600482015263010000009091046001600160a01b0316906324f9e45f9060240160006040518083038186803b1580156103f757600080fd5b505afa15801561040b573d6000803e3d6000fd5b505050506001600160401b0382166000908152600360205260409020546002600160801b9091046001600160801b0316106104835760405162461bcd60e51b81526020600482015260136024820152723a34329039bcb6b137b61034b9903a30b5b2b760691b60448201526064015b60405180910390fd5b6001600160401b03831660009081526002602052604090205463ffffffff16156104ea5760405162461bcd60e51b81526020600482015260186024820152773a34329030ba3a3934b13aba32b99030b932903a30b5b2b760411b604482015260640161047a565b6001600160401b0383811660009081526002602090815260408083208054600163ffffffff19909116811790915593861683526003909152812080546001600160801b0316600360801b81178255909190610546908490612893565b92506101000a8154816001600160801b0302191690836001600160801b0316021790555060006040836001600160401b031664020000000061058891906128be565b61059c911b6001600160401b0386166128be565b600154604051634a31620f60e01b8152600481018890526024810183905260ff851660448201529192506001600160a01b031690634a31620f90606401600060405180830381600087803b1580156105f357600080fd5b505af1158015610607573d6000803e3d6000fd5b505050507fe62e16bb4c3ba3fca8aac05168de1dd8bddf2912682b5f18ba6dde871618a9088560405161063c91815260200190565b60405180910390a15050505050565b60005460405163c4d2a31b60e01b815233600482015263010000009091046001600160a01b03169063c4d2a31b9060240160006040518083038186803b15801561069457600080fd5b505afa1580156106a8573d6000803e3d6000fd5b505050506001600160401b038116600090815260036020526040902054600160801b90046001600160801b03166001146107245760405162461bcd60e51b815260206004820152601b60248201527f7468652061747472696275746573206e6f742072657365727665640000000000604482015260640161047a565b6001600160401b03811660008181526003602090815260409182902080546001600160801b0316905590519182527f6ba6ba07e2267bef6f192322a3509e00e2309b98fa84a555952b9c023c207b6091015b60405180910390a150565b60008060039054906101000a90046001600160a01b03166001600160a01b0316634d868f986040518163ffffffff1660e01b815260040160006040518083038186803b1580156107d057600080fd5b505afa1580156107e4573d6000803e3d6000fd5b505060005460405163ebe6a6f360e01b815233600482015263010000009091046001600160a01b0316925063ebe6a6f3915060240160006040518083038186803b15801561083157600080fd5b505afa158015610845573d6000803e3d6000fd5b5050600154604051634e92fa7f60e11b8152600481018690526001600160a01b039091169250639d25f4fe9150602401602060405180830381600087803b15801561088f57600080fd5b505af11580156108a3573d6000803e3d6000fd5b505050506040513d601f19601f820116820180604052508101906108c791906126a7565b6109f5576000806108d784612064565b9150915081156109ba5760018054604051634a31620f60e01b8152600481018790526001600160401b038416602482015260448101929092526001600160a01b031690634a31620f90606401600060405180830381600087803b15801561093d57600080fd5b505af1158015610951573d6000803e3d6000fd5b5050506001600160401b03821660009081526002602052604090819020805463ffffffff19166001179055517fe62e16bb4c3ba3fca8aac05168de1dd8bddf2912682b5f18ba6dde871618a90891506109ad9086815260200190565b60405180910390a16109ee565b6040518481527f8ccdba1b49831e78b93ff05a5b808664fcb991286710a5e969ce9e9c6945c6fb9060200160405180910390a15b5092915050565b5060015b919050565b600054604051632104fb0560e21b815233600482015263010000009091046001600160a01b031690638413ec149060240160006040518083038186803b158015610a4757600080fd5b505afa158015610a5b573d6000803e3d6000fd5b505050506000819050806001600160a01b03166337b9fd776040518163ffffffff1660e01b815260040160206040518083038186803b158015610a9d57600080fd5b505afa158015610ab1573d6000803e3d6000fd5b505050506040513d601f19601f82011682018060405250810190610ad591906126a7565b610ade57600080fd5b600180546001600160a01b0319166001600160a01b039290921691909117905550565b6000546040516324f9e45f60e01b815233600482015263010000009091046001600160a01b0316906324f9e45f9060240160006040518083038186803b158015610b4a57600080fd5b505afa158015610b5e573d6000803e3d6000fd5b505050506001600160401b038116600090815260036020526040902054600160801b90046001600160801b031615610bd35760405162461bcd60e51b81526020600482015260186024820152773a34329030ba3a3934b13aba32b99030b932903a30b5b2b760411b604482015260640161047a565b6001600160401b03811660008181526003602090815260409182902080546001600160801b0316600160801b17905590519182527f4bb32268d8ca3514a7111f578500b1e78b7227b14987e9b3c9b35e97cdbe61249101610776565b6000806000604051806101000160405280600660ff168152602001600c60ff168152602001601260ff168152602001601660ff168152602001601a60ff168152602001601d60ff168152602001601f60ff168152602001602060ff1681525090506000604051806101000160405280600560ff168152602001600a60ff168152602001600f60ff168152602001601460ff168152602001601860ff168152602001601c60ff168152602001601f60ff168152602001602060ff1681525090506000604051806101000160405280600560ff168152602001600a60ff168152602001600f60ff168152602001601360ff168152602001601760ff168152602001601b60ff168152602001601e60ff168152602001602060ff1681525090506000604051806101000160405280600460ff168152602001600860ff168152602001600c60ff168152602001601060ff168152602001601460ff168152602001601860ff168152602001601c60ff168152602001602060ff168152509050610db26125e9565b8760ff1660031415610dc5575080610dee565b8760ff1660021415610dd8575081610dee565b8760ff1660011415610deb575082610dee565b50835b601f808b1690600760058d811c8216928d1691908d901c16600080805b60088160ff161015610e5857878160ff1660088110610e2c57610e2c6129d9565b602002015160ff168760ff161015610e4657809250610e58565b80610e50816129a3565b915050610e0b565b5060005b60088160ff161015610ea957878160ff1660088110610e7d57610e7d6129d9565b602002015160ff168560ff161015610e9757809150610ea9565b80610ea1816129a3565b915050610e5c565b5084610eb683600861293c565b610ec09190612917565b83610ecc83600861293c565b610ed69190612917565b9c509c505050505050505050505050935093915050565b60005460405163ebe6a6f360e01b815233600482015263010000009091046001600160a01b03169063ebe6a6f39060240160006040518083038186803b158015610f3657600080fd5b505afa158015610f4a573d6000803e3d6000fd5b505050506001600160401b038116600090815260036020526040902054600160801b90046001600160801b031660011415610fd5576001600160401b03811660008181526003602090815260409182902080546001600160801b0316905590519182527f6ba6ba07e2267bef6f192322a3509e00e2309b98fa84a555952b9c023c207b609101610776565b50565b60008060405180610100016040528060be60ff16815260200160e160ff16815260200160eb60ff16815260200160f460ff16815260200160fa60ff16815260200160fd60ff16815260200160fe60ff16815260200160ff80168152509050600060405180610100016040528060af60ff16815260200160cd60ff16815260200160e160ff16815260200160f060ff16815260200160f860ff16815260200160fc60ff16815260200160fe60ff16815260200160ff80168152509050600060405180610100016040528060aa60ff16815260200160c860ff16815260200160da60ff16815260200160e860ff16815260200160f560ff16815260200160fa60ff16815260200160fd60ff16815260200160ff801681525090506000604051806101000160405280608060ff16815260200160c060ff16815260200160d260ff16815260200160e360ff16815260200160f060ff16815260200160f960ff16815260200160fc60ff16815260200160ff801681525090506111556125e9565b8660ff1660031415611168575080611191565b8660ff166002141561117b575081611191565b8660ff166001141561118e575082611191565b50835b60005b60088160ff1610156111e557818160ff16600881106111b5576111b56129d9565b602002015160ff168960ff16116111d35795506111f0945050505050565b806111dd816129a3565b915050611194565b506000955050505050505b92915050565b6001546040516370a0823160e01b81526001600160a01b03838116600483015260009283929116906370a082319060240160206040518083038186803b15801561123f57600080fd5b505afa158015611253573d6000803e3d6000fd5b505050506040513d601f19601f82011682018060405250810190611277919061271e565b905061271081111561128c5750600392915050565b6103e881111561129f5750600292915050565b60648111156112b15750600192915050565b50600092915050565b600054610100900460ff16806112d3575060005460ff16155b6113365760405162461bcd60e51b815260206004820152602e60248201527f496e697469616c697a61626c653a20636f6e747261637420697320616c72656160448201526d191e481a5b9a5d1a585b1a5e995960921b606482015260840161047a565b600054610100900460ff16158015611358576000805461ffff19166101011790555b6000829050806001600160a01b031663ba84fd696040518163ffffffff1660e01b815260040160206040518083038186803b15801561139657600080fd5b505afa1580156113aa573d6000803e3d6000fd5b505050506040513d601f19601f820116820180604052508101906113ce91906126a7565b6113d757600080fd5b600080546001805460ff60a01b191690556001600160a01b0390921663010000000262010000600160b81b031990921691909117620100001790558015611424576000805461ff00191690555b5050565b60008060039054906101000a90046001600160a01b03166001600160a01b0316634d868f986040518163ffffffff1660e01b815260040160006040518083038186803b15801561147757600080fd5b505afa15801561148b573d6000803e3d6000fd5b505060005460405163ebe6a6f360e01b815233600482015263010000009091046001600160a01b0316925063ebe6a6f3915060240160006040518083038186803b1580156114d857600080fd5b505afa1580156114ec573d6000803e3d6000fd5b5050600154604051634e92fa7f60e11b8152600481018a90526001600160a01b039091169250639d25f4fe9150602401602060405180830381600087803b15801561153657600080fd5b505af115801561154a573d6000803e3d6000fd5b505050506040513d601f19601f8201168201806040525081019061156e91906126a7565b6116dd57600080805b61271081101561166257604051606088901b6bffffffffffffffffffffffff191660208201526034810189905260f886901b6001600160f81b0319166054820152600080356001600160e01b0319166055830152605982018b905260798201839052906099016040516020818303038152906040528051906020012060001c905060005b6004811015611642576001600160401b038216935061161c8b858a8a612180565b9450841561162957611642565b60409190911c908061163a81612988565b9150506115fb565b50831561164f5750611662565b508061165a81612988565b915050611577565b5081156116a1576040518881527fe62e16bb4c3ba3fca8aac05168de1dd8bddf2912682b5f18ba6dde871618a9089060200160405180910390a16116d5565b6040518881527f8ccdba1b49831e78b93ff05a5b808664fcb991286710a5e969ce9e9c6945c6fb9060200160405180910390a15b5090506116e1565b5060015b95945050505050565b6000806000604051806102000160405280600660ff168152602001600c60ff168152602001601260ff168152602001601660ff168152602001601a60ff168152602001601d60ff168152602001601f60ff168152602001602060ff168152602001600660ff168152602001600c60ff168152602001601260ff168152602001601660ff168152602001601a60ff168152602001601d60ff168152602001601f60ff168152602001602060ff1681525090506000604051806102000160405280600560ff168152602001600a60ff168152602001600f60ff168152602001601460ff168152602001601860ff168152602001601c60ff168152602001601f60ff168152602001602060ff168152602001600660ff168152602001600c60ff168152602001601260ff168152602001601660ff168152602001601a60ff168152602001601d60ff168152602001601f60ff168152602001602060ff168152509050816080866118579190612965565b60ff166010811061186a5761186a6129d9565b60200201518161187b608088612965565b60ff166010811061188e5761188e6129d9565b6020020151935093505050915091565b6000805460405163ebe6a6f360e01b815233600482015263010000009091046001600160a01b03169063ebe6a6f39060240160006040518083038186803b1580156118e857600080fd5b505afa1580156118fc573d6000803e3d6000fd5b505050506001600160401b03821660009081526002602052604090205463ffffffff1661192a5750806111f0565b6001600160401b038216600090815260026020526040812080546001929061195990849063ffffffff166128d6565b92506101000a81548163ffffffff021916908363ffffffff16021790555060008061198385612064565b91509150816119d45760405162461bcd60e51b815260206004820152601960248201527f756e6971756520617474726962757465206e6f742066756e6400000000000000604482015260640161047a565b91506111f09050565b600080604051806102000160405280603260ff168152602001606460ff168152602001609660ff16815260200160c860ff16815260200160d260ff16815260200160dc60ff16815260200160e660ff16815260200160eb60ff16815260200160f060ff16815260200160f560ff16815260200160f860ff16815260200160fb60ff16815260200160fc60ff16815260200160fd60ff16815260200160fe60ff16815260200160ff801681525090506000604051806102000160405280602a60ff168152602001605460ff168152602001607e60ff16815260200160a860ff16815260200160b560ff16815260200160c260ff16815260200160cf60ff16815260200160d860ff16815260200160e160ff16815260200160ea60ff16815260200160f060ff16815260200160f660ff16815260200160fa60ff16815260200160fc60ff16815260200160fe60ff16815260200160ff801681525090506000604051806102000160405280602860ff168152602001605060ff168152602001607860ff16815260200160a060ff16815260200160ad60ff16815260200160ba60ff16815260200160c760ff16815260200160d060ff16815260200160d960ff16815260200160e260ff16815260200160e960ff16815260200160f060ff16815260200160f460ff16815260200160f860ff16815260200160fc60ff16815260200160ff801681525090506000604051806102000160405280601960ff168152602001603260ff168152602001604b60ff168152602001606460ff168152602001607360ff168152602001608260ff168152602001609160ff168152602001609c60ff16815260200160a760ff16815260200160b260ff16815260200160bc60ff16815260200160c660ff16815260200160d660ff16815260200160e460ff16815260200160f260ff16815260200160ff80168152509050611c9a612608565b8660ff1660031415611cad575080611cd6565b8660ff1660021415611cc0575081611cd6565b8660ff1660011415611cd3575082611cd6565b50835b60005b60108160ff1610156111e557818160ff1660108110611cfa57611cfa6129d9565b602002015160ff168960ff1611611d185795506111f0945050505050565b80611d22816129a3565b915050611cd9565b600080604051806101200160405280608061ffff16815260200161010061ffff16815260200161014061ffff16815260200161018061ffff1681526020016101b061ffff1681526020016101e061ffff1681526020016101f061ffff1681526020016101ff61ffff16815260200161020061ffff1681525090506000604051806101200160405280606e61ffff16815260200160c861ffff16815260200161012261ffff16815260200161016861ffff1681526020016101a461ffff1681526020016101d661ffff1681526020016101ea61ffff1681526020016101ff61ffff16815260200161020061ffff1681525090506000604051806101200160405280605a61ffff16815260200160be61ffff16815260200161011861ffff16815260200161015e61ffff16815260200161019a61ffff1681526020016101c261ffff1681526020016101e061ffff1681526020016101fe61ffff16815260200161020061ffff1681525090506000604051806101200160405280604061ffff16815260200160b061ffff16815260200161011061ffff16815260200161015461ffff16815260200161019061ffff1681526020016101cc61ffff1681526020016101f061ffff1681526020016101fc61ffff16815260200161020061ffff168152509050611f14612627565b8660ff1660031415611f27575080611f50565b8660ff1660021415611f3a575081611f50565b8660ff1660011415611f4d575082611f50565b50835b6000600f8916610fff60048b901c1682805b60098160ff161015611fb157858160ff1660098110611f8357611f836129d9565b602002015161ffff168361ffff161015611f9f57809150611fb1565b80611fa9816129a3565b915050611f62565b508060ff166008141561203b576001546010600160a01b90910460ff16101561202957600154611fec90600160a01b900460ff166080612917565b935060018060148282829054906101000a900460ff1661200c9190612917565b92506101000a81548160ff021916908360ff160217905550612054565b612034836070612917565b9350612054565b8261204782601061293c565b6120519190612917565b93505b50919a9950505050505050505050565b60008080805b61271081101561217357604051600080356001600160e01b03191660208301526024820187905260448201839052906064016040516020818303038152906040528051906020012060001c905060005b600481101561215e576001600160401b03821660008181526002602052604090205490945063ffffffff166120f85750600196929550919350505050565b6001600160401b038416600090815260026020526040812080546001929061212790849063ffffffff166128d6565b92506101000a81548163ffffffff021916908363ffffffff160217905550604082901c91508061215681612988565b9150506120ba565b5050808061216b90612988565b91505061206a565b5060009485945092505050565b6001600160401b03831660009081526002602052604081205463ffffffff1661258f57604080516008808252610120820190925260009160208201610100803683370190505090508460005b6008811015612222578160ff168382815181106121eb576121eb6129d9565b602002602001019060ff16908160ff16815250506008826001600160401b0316901c9150808061221a90612988565b9150506121cc565b50600061223387611fff1687611d2a565b905060008060808360ff16101561228d576122838560028151811061225a5761225a6129d9565b602002602001015186600381518110612275576122756129d9565b60200260200101518a610c2f565b909250905061229c565b612296836116ea565b90925090505b60006122c2866004815181106122b4576122b46129d9565b60200260200101518a6119dd565b9050600063ff000000601883901b1662ff0000601085901b166122f061ff00600888901b1660ff89166128f5565b6122fa91906128f5565b61230491906128f5565b6001600160401b038116600090815260036020526040902054909150600160801b90046001600160801b0316156123b1576001600160401b038116600090815260036020526040902054612362906001600160801b03166001612893565b6001600160401b0391909116600090815260036020526040812080546fffffffffffffffffffffffffffffffff19166001600160801b039093169290921790915596506125e195505050505050565b60006123d7886005815181106123c9576123c96129d9565b60200260200101518c610fd8565b9050600060406123fb64ff00000000602085901b166001600160401b0386166128be565b61240f911b6001600160401b038f166128be565b9050600260036000856001600160401b03166001600160401b0316815260200190815260200160002060000160106101000a8154816001600160801b0302191690836001600160801b03160217905550600160036000856001600160401b03166001600160401b0316815260200190815260200160002060000160006101000a8154816001600160801b0302191690836001600160801b031602179055506001600260008f6001600160401b03166001600160401b0316815260200190815260200160002060006101000a81548163ffffffff021916908363ffffffff160217905550600160009054906101000a90046001600160a01b03166001600160a01b0316634a31620f8f838e6040518463ffffffff1660e01b815260040161254b93929190928352602083019190915260ff16604082015260600190565b600060405180830381600087803b15801561256557600080fd5b505af1158015612579573d6000803e3d6000fd5b50505050600199505050505050505050506125e1565b6001600160401b03841660009081526002602052604081208054600192906125be90849063ffffffff166128d6565b92506101000a81548163ffffffff021916908363ffffffff160217905550600090505b949350505050565b6040518061010001604052806008906020820280368337509192915050565b6040518061020001604052806010906020820280368337509192915050565b6040518061012001604052806009906020820280368337509192915050565b80356001600160a01b03811681146109f957600080fd5b80356001600160401b03811681146109f957600080fd5b803560ff811681146109f957600080fd5b60006020828403121561269757600080fd5b6126a082612646565b9392505050565b6000602082840312156126b957600080fd5b815180151581146126a057600080fd5b600080604083850312156126dc57600080fd5b823561ffff811681146126ee57600080fd5b91506126fc60208401612674565b90509250929050565b60006020828403121561271757600080fd5b5035919050565b60006020828403121561273057600080fd5b5051919050565b600080600080600060a0868803121561274f57600080fd5b853594506020860135935061276660408701612646565b925061277460608701612674565b915061278260808701612674565b90509295509295909350565b600080604083850312156127a157600080fd5b823591506126fc6020840161265d565b600080600080608085870312156127c757600080fd5b843593506127d76020860161265d565b92506127e56040860161265d565b91506127f360608601612674565b905092959194509250565b60006020828403121561281057600080fd5b6126a08261265d565b60006020828403121561282b57600080fd5b6126a082612674565b6000806040838503121561284757600080fd5b6126ee83612674565b60008060006060848603121561286557600080fd5b61286e84612674565b925061287c60208501612674565b915061288a60408501612674565b90509250925092565b60006001600160801b038083168185168083038211156128b5576128b56129c3565b01949350505050565b600082198211156128d1576128d16129c3565b500190565b600063ffffffff8083168185168083038211156128b5576128b56129c3565b60006001600160401b038083168185168083038211156128b5576128b56129c3565b600060ff821660ff84168060ff03821115612934576129346129c3565b019392505050565b600060ff821660ff84168160ff048111821515161561295d5761295d6129c3565b029392505050565b600060ff821660ff84168082101561297f5761297f6129c3565b90039392505050565b600060001982141561299c5761299c6129c3565b5060010190565b600060ff821660ff8114156129ba576129ba6129c3565b60010192915050565b634e487b7160e01b600052601160045260246000fd5b634e487b7160e01b600052603260045260246000fdfea2646970667358221220982a1b1884c90e4bd30ca08b9a00a8e8c4a0386a343b77a83f9462a2240dd59764736f6c63430008060033",
  "immutableReferences": {},
  "source": "// // SPDX-License-Identifier: MIT\n\npragma solidity ^0.8.6;\n\nimport \"@openzeppelin/contracts-upgradeable/proxy/utils/Initializable.sol\";\nimport \"@openzeppelin/contracts-upgradeable/utils/math/SafeCastUpgradeable.sol\";\nimport \"../access/IAccessRestriction.sol\";\nimport \"../tree/ITree.sol\";\n\n/** @title Attribute Contract */\ncontract Attribute is Initializable {\n    using SafeCastUpgradeable for uint256;\n\n    bool public isAttribute;\n    IAccessRestriction public accessRestriction;\n    ITree public treeToken;\n\n    /** NOTE parameters of randomTreeGeneration*/\n\n    struct SymbolStatus {\n        uint128 generatedCount;\n        uint128 status; // 0 free, 1 reserved , 2 set, 3 setByAdmin\n    }\n\n    uint8 public specialTreeCount;\n\n    /** NOTE mapping from unique attributes id to number of generations */\n    mapping(uint64 => uint32) public uniquenessFactorToGeneratedAttributesCount;\n\n    /** NOTE mapping from unique symbol id to number of generations  */\n    mapping(uint64 => SymbolStatus) public uniquenessFactorToSymbolStatus;\n\n    event AttributeGenerated(uint256 treeId);\n    event AttributeGenerationFailed(uint256 treeId);\n    event SymbolReserved(uint64 uniquenessFactor);\n    event ReservedSymbolReleased(uint64 uniquenessFactor);\n    /** NOTE modifier to check msg.sender has admin role */\n    modifier onlyAdmin() {\n        accessRestriction.ifAdmin(msg.sender);\n        _;\n    }\n\n    /** NOTE modifier for check msg.sender has TreejerContract role */\n    modifier onlyTreejerContract() {\n        accessRestriction.ifTreejerContract(msg.sender);\n        _;\n    }\n\n    /** NOTE modifier to check msg.sender has data manager role */\n    modifier onlyDataManager() {\n        accessRestriction.ifDataManager(msg.sender);\n        _;\n    }\n\n    /** NOTE modifier to check msg.sender has data manager or treejer contract role */\n    modifier onlyDataManagerOrTreejerContract() {\n        accessRestriction.ifDataManagerOrTreejerContract(msg.sender);\n        _;\n    }\n\n    /** NOTE modifier for check if function is not paused*/\n    modifier ifNotPaused() {\n        accessRestriction.ifNotPaused();\n        _;\n    }\n\n    /**\n     * @dev initialize accessRestriction contract and set true for isAttribute\n     * @param _accessRestrictionAddress set to the address of accessRestriction contract\n     */\n    function initialize(address _accessRestrictionAddress)\n        external\n        initializer\n    {\n        IAccessRestriction candidateContract = IAccessRestriction(\n            _accessRestrictionAddress\n        );\n        require(candidateContract.isAccessRestriction());\n        isAttribute = true;\n        specialTreeCount = 0;\n        accessRestriction = candidateContract;\n    }\n\n    /**\n     * @dev admin set TreeToken contract address\n     * @param _address set to the address of TreeToken contract\n     */\n    function setTreeTokenAddress(address _address) external onlyAdmin {\n        ITree candidateContract = ITree(_address);\n\n        require(candidateContract.isTree());\n\n        treeToken = candidateContract;\n    }\n\n    /**\n     * @dev reserve a unique symbol\n     * @param _uniquenessFactor unique symbol to reserve\n     */\n    function reserveSymbol(uint64 _uniquenessFactor)\n        external\n        onlyDataManagerOrTreejerContract\n    {\n        require(\n            uniquenessFactorToSymbolStatus[_uniquenessFactor].status == 0,\n            \"the attributes are taken\"\n        );\n        uniquenessFactorToSymbolStatus[_uniquenessFactor].status = 1;\n\n        emit SymbolReserved(_uniquenessFactor);\n    }\n\n    /**\n     * @dev free reservation of a unique symbol\n     * @param _uniquenessFactor unique symbol to reserve\n     */\n\n    function releaseReservedSymbolByAdmin(uint64 _uniquenessFactor)\n        external\n        onlyDataManager\n    {\n        require(\n            uniquenessFactorToSymbolStatus[_uniquenessFactor].status == 1,\n            \"the attributes not reserved\"\n        );\n\n        uniquenessFactorToSymbolStatus[_uniquenessFactor].status = 0;\n\n        emit ReservedSymbolReleased(_uniquenessFactor);\n    }\n\n    /**\n     * @dev free reservation of a unique symbol\n     * @param _uniquenessFactor unique symbol to reserve\n     */\n    function releaseReservedSymbol(uint64 _uniquenessFactor)\n        external\n        onlyTreejerContract\n    {\n        if (uniquenessFactorToSymbolStatus[_uniquenessFactor].status == 1) {\n            uniquenessFactorToSymbolStatus[_uniquenessFactor].status = 0;\n            emit ReservedSymbolReleased(_uniquenessFactor);\n        }\n    }\n\n    /**\n     * @dev admin assigns symbol to specified treeId\n     * @param _treeId id of tree\n     * @param _attributeUniquenessFactor unique symbol code to assign\n     */\n    function setAttribute(\n        uint256 _treeId,\n        uint64 _attributeUniquenessFactor,\n        uint64 _symbolUniquenessFactor,\n        uint8 _generationType\n    ) external onlyDataManagerOrTreejerContract {\n        require(\n            uniquenessFactorToSymbolStatus[_symbolUniquenessFactor].status < 2,\n            \"the symbol is taken\"\n        );\n        require(\n            uniquenessFactorToGeneratedAttributesCount[\n                _attributeUniquenessFactor\n            ] == 0,\n            \"the attributes are taken\"\n        );\n        uniquenessFactorToGeneratedAttributesCount[\n            _attributeUniquenessFactor\n        ] = 1;\n        uniquenessFactorToSymbolStatus[_symbolUniquenessFactor].status = 3;\n        uniquenessFactorToSymbolStatus[_symbolUniquenessFactor]\n            .generatedCount += 1;\n\n        uint256 uniquenessFactor = _attributeUniquenessFactor +\n            ((uint256(_symbolUniquenessFactor) + (2 << 32)) << 64);\n\n        treeToken.setAttributes(_treeId, uniquenessFactor, _generationType);\n\n        emit AttributeGenerated(_treeId);\n    }\n\n    /**\n     * @dev generate a 256 bits random number as a base for attributes and slice it\n     * in 28 bits parts\n     * @param _treeId id of tree\n     * @return if unique attribute generated successfully\n     */\n    function createSymbol(\n        uint256 _treeId,\n        bytes32 _randomValue,\n        address _funder,\n        uint8 _funderRank,\n        uint8 _generationType\n    ) external ifNotPaused onlyTreejerContract returns (bool) {\n        if (!treeToken.attributeExists(_treeId)) {\n            bool flag = false;\n            uint64 tempRandomValue;\n\n            for (uint256 j = 0; j < 10000; j++) {\n                uint256 randomValue = uint256(\n                    keccak256(\n                        abi.encodePacked(\n                            _funder,\n                            _randomValue,\n                            _generationType,\n                            msg.sig,\n                            _treeId,\n                            j\n                        )\n                    )\n                );\n\n                for (uint256 i = 0; i < 4; i++) {\n                    tempRandomValue = uint64(randomValue & type(uint64).max);\n\n                    flag = _generateUniquenessFactor(\n                        _treeId,\n                        tempRandomValue,\n                        _funderRank,\n                        _generationType\n                    );\n                    if (flag) {\n                        break;\n                    }\n\n                    randomValue >>= 64;\n                }\n                if (flag) {\n                    break;\n                }\n            }\n            if (flag) {\n                emit AttributeGenerated(_treeId);\n            } else {\n                emit AttributeGenerationFailed(_treeId);\n            }\n\n            return flag;\n        } else {\n            return true;\n        }\n    }\n\n    function createAttribute(uint256 _treeId)\n        external\n        ifNotPaused\n        onlyTreejerContract\n        returns (bool)\n    {\n        if (!treeToken.attributeExists(_treeId)) {\n            (\n                bool flag,\n                uint64 uniquenessFactor\n            ) = _generateAttributeUniquenessFactor(_treeId);\n\n            if (flag) {\n                treeToken.setAttributes(_treeId, uniquenessFactor, 1);\n                uniquenessFactorToGeneratedAttributesCount[\n                    uniquenessFactor\n                ] = 1;\n\n                emit AttributeGenerated(_treeId);\n            } else {\n                emit AttributeGenerationFailed(_treeId);\n            }\n\n            return flag;\n        } else {\n            return true;\n        }\n    }\n\n    function manageAttributeUniquenessFactor(\n        uint256 _treeId,\n        uint64 _uniquenessFactor\n    ) external onlyTreejerContract returns (uint64) {\n        if (\n            uniquenessFactorToGeneratedAttributesCount[_uniquenessFactor] == 0\n        ) {\n            return _uniquenessFactor;\n        } else {\n            uniquenessFactorToGeneratedAttributesCount[_uniquenessFactor] += 1;\n\n            (\n                bool flag,\n                uint64 uniquenessFactor\n            ) = _generateAttributeUniquenessFactor(_treeId);\n\n            require(flag, \"unique attribute not fund\");\n\n            return uniquenessFactor;\n        }\n    }\n\n    /**\n     * @dev the function Tries to Calculate the rank of buyer based on transaction statistics of\n     * his/her wallet\n     * @param _funder address of funder\n     */\n    function getFunderRank(address _funder) external view returns (uint8) {\n        uint256 ownedTrees = treeToken.balanceOf(_funder);\n\n        if (ownedTrees > 10000) {\n            return 3;\n        } else if (ownedTrees > 1000) {\n            return 2;\n        } else if (ownedTrees > 100) {\n            return 1;\n        }\n\n        return 0;\n    }\n\n    function _generateAttributeUniquenessFactor(uint256 _treeId)\n        private\n        returns (bool, uint64)\n    {\n        uint64 uniquenessFactor;\n\n        for (uint256 j = 0; j < 10000; j++) {\n            uint256 randomValue = uint256(\n                keccak256(abi.encodePacked(msg.sig, _treeId, j))\n            );\n\n            for (uint256 i = 0; i < 4; i++) {\n                uniquenessFactor = uint64(randomValue & type(uint64).max);\n\n                if (\n                    uniquenessFactorToGeneratedAttributesCount[\n                        uniquenessFactor\n                    ] == 0\n                ) {\n                    return (true, uniquenessFactor);\n                } else {\n                    uniquenessFactorToGeneratedAttributesCount[\n                        uniquenessFactor\n                    ] += 1;\n\n                    randomValue >>= 64;\n                }\n            }\n        }\n        return (false, 0);\n    }\n\n    /**\n     * @dev calculates the random attributes from random number\n     * @param _treeId id of tree\n     * @param _randomValue a 28 bits random attribute generator number\n     * @return if generated random attribute is unique\n     */\n    function _generateUniquenessFactor(\n        uint256 _treeId,\n        uint64 _randomValue,\n        uint8 _funderRank,\n        uint8 _generationType\n    ) private returns (bool) {\n        if (uniquenessFactorToGeneratedAttributesCount[_randomValue] == 0) {\n            uint8[] memory attributes = new uint8[](8);\n\n            uint64 tempRandomValue = _randomValue;\n            for (uint256 j = 0; j < 8; j++) {\n                attributes[j] = uint8(tempRandomValue & 255);\n\n                tempRandomValue >>= 8;\n            }\n\n            uint8 shape = _calcShape(uint16(_randomValue & 8191), _funderRank); //8191 = 2^13-1\n\n            uint8 trunkColor;\n            uint8 crownColor;\n\n            if (shape < 128) {\n                (trunkColor, crownColor) = _calcColors(\n                    attributes[2],\n                    attributes[3],\n                    _funderRank\n                );\n            } else {\n                (trunkColor, crownColor) = _setSpecialTreeColors(shape);\n            }\n\n            uint8 effect = _calcEffects(attributes[4], _funderRank);\n\n            uint64 symbolUniquenessFactor = shape +\n                (uint64(trunkColor) << 8) +\n                (uint64(crownColor) << 16) +\n                (uint64(effect) << 24);\n\n            if (\n                uniquenessFactorToSymbolStatus[symbolUniquenessFactor].status >\n                0\n            ) {\n                uniquenessFactorToSymbolStatus[symbolUniquenessFactor]\n                    .generatedCount =\n                    uniquenessFactorToSymbolStatus[symbolUniquenessFactor]\n                        .generatedCount +\n                    1;\n                return false;\n            }\n            uint8 coefficient = _calcCoefficient(attributes[5], _funderRank);\n\n            uint256 uniquenessFactor = _randomValue +\n                ((symbolUniquenessFactor + (uint256(coefficient) << 32)) << 64);\n\n            uniquenessFactorToSymbolStatus[symbolUniquenessFactor].status = 2;\n            uniquenessFactorToSymbolStatus[symbolUniquenessFactor]\n                .generatedCount = 1;\n            uniquenessFactorToGeneratedAttributesCount[_randomValue] = 1;\n            treeToken.setAttributes(_treeId, uniquenessFactor, _generationType);\n\n            return true;\n        } else {\n            uniquenessFactorToGeneratedAttributesCount[_randomValue] += 1;\n            return false;\n        }\n    }\n\n    function _calcShape(uint16 _randomValue, uint8 _funderRank)\n        public\n        returns (uint8)\n    {\n        uint16[9] memory probRank0 = [\n            128,\n            256,\n            320,\n            384,\n            432,\n            480,\n            496,\n            511,\n            512\n        ];\n        uint16[9] memory probRank1 = [\n            110,\n            200,\n            290,\n            360,\n            420,\n            470,\n            490,\n            511,\n            512\n        ];\n        uint16[9] memory probRank2 = [\n            90,\n            190,\n            280,\n            350,\n            410,\n            450,\n            480,\n            510,\n            512\n        ];\n        uint16[9] memory probRank3 = [\n            64,\n            176,\n            272,\n            340,\n            400,\n            460,\n            496,\n            508,\n            512\n        ];\n        uint16[9] memory selectedRankProb;\n\n        if (_funderRank == 3) {\n            selectedRankProb = probRank3;\n        } else if (_funderRank == 2) {\n            selectedRankProb = probRank2;\n        } else if (_funderRank == 1) {\n            selectedRankProb = probRank1;\n        } else {\n            selectedRankProb = probRank0;\n        }\n\n        uint8 shape;\n\n        uint8 randomValueFirstFourBit = uint8(_randomValue & 15);\n\n        uint16 probability = _randomValue >> 4;\n\n        uint8 result = 0;\n\n        for (uint8 j = 0; j < 9; j++) {\n            if (probability < selectedRankProb[j]) {\n                result = j;\n                break;\n            }\n        }\n\n        if (result == 8) {\n            if (specialTreeCount < 16) {\n                shape = 128 + specialTreeCount;\n                specialTreeCount += 1;\n            } else {\n                shape = 112 + randomValueFirstFourBit;\n            }\n        } else {\n            shape = result * 16 + randomValueFirstFourBit;\n        }\n\n        return shape;\n    }\n\n    function _calcColors(\n        uint8 _randomValue1,\n        uint8 _randomValue2,\n        uint8 _funderRank\n    ) public pure returns (uint8, uint8) {\n        uint8[8] memory probRank0 = [6, 12, 18, 22, 26, 29, 31, 32];\n        uint8[8] memory probRank1 = [5, 10, 15, 20, 24, 28, 31, 32];\n        uint8[8] memory probRank2 = [5, 10, 15, 19, 23, 27, 30, 32];\n        uint8[8] memory probRank3 = [4, 8, 12, 16, 20, 24, 28, 32];\n        uint8[8] memory selectedRankProb;\n\n        if (_funderRank == 3) {\n            selectedRankProb = probRank3;\n        } else if (_funderRank == 2) {\n            selectedRankProb = probRank2;\n        } else if (_funderRank == 1) {\n            selectedRankProb = probRank1;\n        } else {\n            selectedRankProb = probRank0;\n        }\n\n        uint8 probability1 = _randomValue1 & 31;\n\n        uint8 randomValue1Last3Bit = _randomValue1 >> 5;\n        uint8 probability2 = _randomValue2 & 31;\n\n        uint8 randomValue2Last3Bit = _randomValue2 >> 5;\n        uint8 result1 = 0;\n        uint8 result2 = 0;\n\n        for (uint8 i = 0; i < 8; i++) {\n            if (probability1 < selectedRankProb[i]) {\n                result1 = i;\n                break;\n            }\n        }\n\n        for (uint8 j = 0; j < 8; j++) {\n            if (probability2 < selectedRankProb[j]) {\n                result2 = j;\n                break;\n            }\n        }\n\n        return (\n            result1 * 8 + randomValue1Last3Bit,\n            result2 * 8 + randomValue2Last3Bit\n        );\n    }\n\n    function _setSpecialTreeColors(uint8 _shape)\n        public\n        pure\n        returns (uint8, uint8)\n    {\n        uint8[16] memory trunks = [\n            6,\n            12,\n            18,\n            22,\n            26,\n            29,\n            31,\n            32,\n            6,\n            12,\n            18,\n            22,\n            26,\n            29,\n            31,\n            32\n        ];\n        uint8[16] memory crowns = [\n            5,\n            10,\n            15,\n            20,\n            24,\n            28,\n            31,\n            32,\n            6,\n            12,\n            18,\n            22,\n            26,\n            29,\n            31,\n            32\n        ];\n        return (trunks[_shape - 128], crowns[_shape - 128]);\n    }\n\n    function _calcEffects(uint8 _randomValue, uint8 _funderRank)\n        public\n        pure\n        returns (uint8)\n    {\n        uint8[16] memory probRank0 = [\n            50,\n            100,\n            150,\n            200,\n            210,\n            220,\n            230,\n            235,\n            240,\n            245,\n            248,\n            251,\n            252,\n            253,\n            254,\n            255\n        ];\n        uint8[16] memory probRank1 = [\n            42,\n            84,\n            126,\n            168,\n            181,\n            194,\n            207,\n            216,\n            225,\n            234,\n            240,\n            246,\n            250,\n            252,\n            254,\n            255\n        ];\n        uint8[16] memory probRank2 = [\n            40,\n            80,\n            120,\n            160,\n            173,\n            186,\n            199,\n            208,\n            217,\n            226,\n            233,\n            240,\n            244,\n            248,\n            252,\n            255\n        ];\n        uint8[16] memory probRank3 = [\n            25,\n            50,\n            75,\n            100,\n            115,\n            130,\n            145,\n            156,\n            167,\n            178,\n            188,\n            198,\n            214,\n            228,\n            242,\n            255\n        ];\n\n        uint8[16] memory selectedRankProb;\n\n        if (_funderRank == 3) {\n            selectedRankProb = probRank3;\n        } else if (_funderRank == 2) {\n            selectedRankProb = probRank2;\n        } else if (_funderRank == 1) {\n            selectedRankProb = probRank1;\n        } else {\n            selectedRankProb = probRank0;\n        }\n\n        for (uint8 j = 0; j < 16; j++) {\n            if (_randomValue <= selectedRankProb[j]) {\n                return j;\n            }\n        }\n\n        return 0;\n    }\n\n    function _calcCoefficient(uint8 _randomValue, uint8 _funderRank)\n        public\n        pure\n        returns (uint8)\n    {\n        uint8[8] memory probRank0 = [190, 225, 235, 244, 250, 253, 254, 255];\n        uint8[8] memory probRank1 = [175, 205, 225, 240, 248, 252, 254, 255];\n        uint8[8] memory probRank2 = [170, 200, 218, 232, 245, 250, 253, 255];\n        uint8[8] memory probRank3 = [128, 192, 210, 227, 240, 249, 252, 255];\n\n        uint8[8] memory selectedRankProb;\n\n        if (_funderRank == 3) {\n            selectedRankProb = probRank3;\n        } else if (_funderRank == 2) {\n            selectedRankProb = probRank2;\n        } else if (_funderRank == 1) {\n            selectedRankProb = probRank1;\n        } else {\n            selectedRankProb = probRank0;\n        }\n\n        for (uint8 j = 0; j < 8; j++) {\n            if (_randomValue <= selectedRankProb[j]) {\n                return j;\n            }\n        }\n\n        return 0;\n    }\n}\n",
  "sourcePath": "/media/ali/New Volume/treejer/contract/contracts/tree/Attribute.sol",
  "compiler": {
    "name": "solc",
    "version": "0.8.6+commit.11564f7e.Emscripten.clang"
  },
  "schemaVersion": "3.4.1",
  "updatedAt": "2021-10-12T15:13:52.126Z",
  "networkType": "ethereum",
  "devdoc": {
    "kind": "dev",
    "methods": {
      "createSymbol(uint256,bytes32,address,uint8,uint8)": {
        "details": "generate a 256 bits random number as a base for attributes and slice it in 28 bits parts",
        "params": {
          "_treeId": "id of tree"
        },
        "returns": {
          "_0": "if unique attribute generated successfully"
        }
      },
      "getFunderRank(address)": {
        "details": "the function Tries to Calculate the rank of buyer based on transaction statistics of his/her wallet",
        "params": {
          "_funder": "address of funder"
        }
      },
      "initialize(address)": {
        "details": "initialize accessRestriction contract and set true for isAttribute",
        "params": {
          "_accessRestrictionAddress": "set to the address of accessRestriction contract"
        }
      },
      "releaseReservedSymbol(uint64)": {
        "details": "free reservation of a unique symbol",
        "params": {
          "_uniquenessFactor": "unique symbol to reserve"
        }
      },
      "releaseReservedSymbolByAdmin(uint64)": {
        "details": "free reservation of a unique symbol",
        "params": {
          "_uniquenessFactor": "unique symbol to reserve"
        }
      },
      "reserveSymbol(uint64)": {
        "details": "reserve a unique symbol",
        "params": {
          "_uniquenessFactor": "unique symbol to reserve"
        }
      },
      "setAttribute(uint256,uint64,uint64,uint8)": {
        "details": "admin assigns symbol to specified treeId",
        "params": {
          "_attributeUniquenessFactor": "unique symbol code to assign",
          "_treeId": "id of tree"
        }
      },
      "setTreeTokenAddress(address)": {
        "details": "admin set TreeToken contract address",
        "params": {
          "_address": "set to the address of TreeToken contract"
        }
      }
    },
    "title": "Attribute Contract ",
    "version": 1
  },
  "userdoc": {
    "kind": "user",
    "methods": {
      "uniquenessFactorToGeneratedAttributesCount(uint64)": {
        "notice": "NOTE mapping from unique attributes id to number of generations "
      },
      "uniquenessFactorToSymbolStatus(uint64)": {
        "notice": "NOTE mapping from unique symbol id to number of generations  "
      }
    },
    "version": 1
  }
}