{
  "contractName": "Attribute",
  "abi": [
    {
      "anonymous": false,
      "inputs": [
        {
          "indexed": false,
          "internalType": "uint256",
          "name": "treeId",
          "type": "uint256"
        }
      ],
      "name": "AttributeGenerated",
      "type": "event"
    },
    {
      "anonymous": false,
      "inputs": [
        {
          "indexed": false,
          "internalType": "uint256",
          "name": "treeId",
          "type": "uint256"
        }
      ],
      "name": "AttributeGenerationFailed",
      "type": "event"
    },
    {
      "anonymous": false,
      "inputs": [
        {
          "indexed": false,
          "internalType": "uint64",
          "name": "uniquenessFactor",
          "type": "uint64"
        }
      ],
      "name": "ReservedSymbolReleased",
      "type": "event"
    },
    {
      "anonymous": false,
      "inputs": [
        {
          "indexed": false,
          "internalType": "uint64",
          "name": "uniquenessFactor",
          "type": "uint64"
        }
      ],
      "name": "SymbolReserved",
      "type": "event"
    },
    {
      "inputs": [],
      "name": "accessRestriction",
      "outputs": [
        {
          "internalType": "contract IAccessRestriction",
          "name": "",
          "type": "address"
        }
      ],
      "stateMutability": "view",
      "type": "function",
      "constant": true
    },
    {
      "inputs": [],
      "name": "isAttribute",
      "outputs": [
        {
          "internalType": "bool",
          "name": "",
          "type": "bool"
        }
      ],
      "stateMutability": "view",
      "type": "function",
      "constant": true
    },
    {
      "inputs": [],
      "name": "specialTreeCount",
      "outputs": [
        {
          "internalType": "uint8",
          "name": "",
          "type": "uint8"
        }
      ],
      "stateMutability": "view",
      "type": "function",
      "constant": true
    },
    {
      "inputs": [],
      "name": "treeToken",
      "outputs": [
        {
          "internalType": "contract ITree",
          "name": "",
          "type": "address"
        }
      ],
      "stateMutability": "view",
      "type": "function",
      "constant": true
    },
    {
      "inputs": [
        {
          "internalType": "uint64",
          "name": "",
          "type": "uint64"
        }
      ],
      "name": "uniquenessFactorToGeneratedAttributesCount",
      "outputs": [
        {
          "internalType": "uint32",
          "name": "",
          "type": "uint32"
        }
      ],
      "stateMutability": "view",
      "type": "function",
      "constant": true
    },
    {
      "inputs": [
        {
          "internalType": "uint64",
          "name": "",
          "type": "uint64"
        }
      ],
      "name": "uniquenessFactorToSymbolStatus",
      "outputs": [
        {
          "internalType": "uint128",
          "name": "generatedCount",
          "type": "uint128"
        },
        {
          "internalType": "uint128",
          "name": "status",
          "type": "uint128"
        }
      ],
      "stateMutability": "view",
      "type": "function",
      "constant": true
    },
    {
      "inputs": [
        {
          "internalType": "address",
          "name": "_accessRestrictionAddress",
          "type": "address"
        }
      ],
      "name": "initialize",
      "outputs": [],
      "stateMutability": "nonpayable",
      "type": "function"
    },
    {
      "inputs": [
        {
          "internalType": "address",
          "name": "_address",
          "type": "address"
        }
      ],
      "name": "setTreeTokenAddress",
      "outputs": [],
      "stateMutability": "nonpayable",
      "type": "function"
    },
    {
      "inputs": [
        {
          "internalType": "uint64",
          "name": "_uniquenessFactor",
          "type": "uint64"
        }
      ],
      "name": "reserveSymbol",
      "outputs": [],
      "stateMutability": "nonpayable",
      "type": "function"
    },
    {
      "inputs": [
        {
          "internalType": "uint64",
          "name": "_uniquenessFactor",
          "type": "uint64"
        }
      ],
      "name": "releaseReservedSymbolByAdmin",
      "outputs": [],
      "stateMutability": "nonpayable",
      "type": "function"
    },
    {
      "inputs": [
        {
          "internalType": "uint64",
          "name": "_uniquenessFactor",
          "type": "uint64"
        }
      ],
      "name": "releaseReservedSymbol",
      "outputs": [],
      "stateMutability": "nonpayable",
      "type": "function"
    },
    {
      "inputs": [
        {
          "internalType": "uint256",
          "name": "_treeId",
          "type": "uint256"
        },
        {
          "internalType": "uint64",
          "name": "_attributeUniquenessFactor",
          "type": "uint64"
        },
        {
          "internalType": "uint64",
          "name": "_symbolUniquenessFactor",
          "type": "uint64"
        },
        {
          "internalType": "uint8",
          "name": "_generationType",
          "type": "uint8"
        }
      ],
      "name": "setAttribute",
      "outputs": [],
      "stateMutability": "nonpayable",
      "type": "function"
    },
    {
      "inputs": [
        {
          "internalType": "uint256",
          "name": "_treeId",
          "type": "uint256"
        },
        {
          "internalType": "bytes32",
          "name": "_randomValue",
          "type": "bytes32"
        },
        {
          "internalType": "address",
          "name": "_funder",
          "type": "address"
        },
        {
          "internalType": "uint8",
          "name": "_funderRank",
          "type": "uint8"
        },
        {
          "internalType": "uint8",
          "name": "_generationType",
          "type": "uint8"
        }
      ],
      "name": "createSymbol",
      "outputs": [
        {
          "internalType": "bool",
          "name": "",
          "type": "bool"
        }
      ],
      "stateMutability": "nonpayable",
      "type": "function"
    },
    {
      "inputs": [
        {
          "internalType": "uint256",
          "name": "_treeId",
          "type": "uint256"
        }
      ],
      "name": "createAttribute",
      "outputs": [
        {
          "internalType": "bool",
          "name": "",
          "type": "bool"
        }
      ],
      "stateMutability": "nonpayable",
      "type": "function"
    },
    {
      "inputs": [
        {
          "internalType": "uint256",
          "name": "_treeId",
          "type": "uint256"
        },
        {
          "internalType": "uint64",
          "name": "_uniquenessFactor",
          "type": "uint64"
        }
      ],
      "name": "manageAttributeUniquenessFactor",
      "outputs": [
        {
          "internalType": "uint64",
          "name": "",
          "type": "uint64"
        }
      ],
      "stateMutability": "nonpayable",
      "type": "function"
    },
    {
      "inputs": [
        {
          "internalType": "address",
          "name": "_funder",
          "type": "address"
        }
      ],
      "name": "getFunderRank",
      "outputs": [
        {
          "internalType": "uint8",
          "name": "",
          "type": "uint8"
        }
      ],
      "stateMutability": "view",
      "type": "function",
      "constant": true
    }
  ],
  "bytecode": "0x608060405234801561001057600080fd5b506128cc806100206000396000f3fe608060405234801561001057600080fd5b50600436106100ff5760003560e01c8063697d198a11610097578063c4d66de811610066578063c4d66de814610293578063ca3dac2d146102a6578063d6762c4a146102b9578063f254ab8f146102d357600080fd5b8063697d198a146101f3578063699597141461024757806384d207221461025a578063912cbe101461028057600080fd5b806313e939e2116100d357806313e939e2146101975780632199e777146101ba57806338f1f40f146101cd57806339438660146101e057600080fd5b80626ab521146101045780630b9cd0041461011957806310720cd61461012c57806312cc3ab01461016c575b600080fd5b6101176101123660046126d2565b6102fe565b005b61011761012736600461271f565b61059b565b61015261013a36600461271f565b60026020526000908152604090205463ffffffff1681565b60405163ffffffff90911681526020015b60405180910390f35b60015461017f906001600160a01b031681565b6040516001600160a01b039091168152602001610163565b6000546101aa9062010000900460ff1681565b6040519015158152602001610163565b6101aa6101c836600461261d565b6106d1565b6101176101db3660046125d9565b61094e565b6101176101ee36600461271f565b610a51565b61022761020136600461271f565b6003602052600090815260409020546001600160801b0380821691600160801b90041682565b604080516001600160801b03938416815292909116602083015201610163565b61011761025536600461271f565b610b7f565b60015461026e90600160a01b900460ff1681565b60405160ff9091168152602001610163565b61026e61028e3660046125d9565b610c6a565b6101176102a13660046125d9565b610d2e565b6101aa6102b436600461264f565b610e9c565b60005461017f90630100000090046001600160a01b031681565b6102e66102e13660046126a6565b61115e565b6040516001600160401b039091168152602001610163565b6000546040516324f9e45f60e01b815233600482015263010000009091046001600160a01b0316906324f9e45f9060240160006040518083038186803b15801561034757600080fd5b505afa15801561035b573d6000803e3d6000fd5b505050506001600160401b0382166000908152600360205260409020546002600160801b9091046001600160801b0316106103d35760405162461bcd60e51b81526020600482015260136024820152723a34329039bcb6b137b61034b9903a30b5b2b760691b60448201526064015b60405180910390fd5b6001600160401b03831660009081526002602052604090205463ffffffff161561043a5760405162461bcd60e51b81526020600482015260186024820152773a34329030ba3a3934b13aba32b99030b932903a30b5b2b760411b60448201526064016103ca565b6001600160401b0383811660009081526002602090815260408083208054600163ffffffff19909116811790915593861683526003909152812080546001600160801b0316600360801b8117825590919061049690849061273a565b92506101000a8154816001600160801b0302191690836001600160801b0316021790555060006040836001600160401b03166402000000006104d89190612765565b6104ec911b6001600160401b038616612765565b600154604051634a31620f60e01b8152600481018890526024810183905260ff851660448201529192506001600160a01b031690634a31620f90606401600060405180830381600087803b15801561054357600080fd5b505af1158015610557573d6000803e3d6000fd5b505050507fe62e16bb4c3ba3fca8aac05168de1dd8bddf2912682b5f18ba6dde871618a9088560405161058c91815260200190565b60405180910390a15050505050565b60005460405163c4d2a31b60e01b815233600482015263010000009091046001600160a01b03169063c4d2a31b9060240160006040518083038186803b1580156105e457600080fd5b505afa1580156105f8573d6000803e3d6000fd5b505050506001600160401b038116600090815260036020526040902054600160801b90046001600160801b03166001146106745760405162461bcd60e51b815260206004820152601b60248201527f7468652061747472696275746573206e6f74207265736572766564000000000060448201526064016103ca565b6001600160401b03811660008181526003602090815260409182902080546001600160801b0316905590519182527f6ba6ba07e2267bef6f192322a3509e00e2309b98fa84a555952b9c023c207b6091015b60405180910390a150565b60008060039054906101000a90046001600160a01b03166001600160a01b0316634d868f986040518163ffffffff1660e01b815260040160006040518083038186803b15801561072057600080fd5b505afa158015610734573d6000803e3d6000fd5b505060005460405163ebe6a6f360e01b815233600482015263010000009091046001600160a01b0316925063ebe6a6f3915060240160006040518083038186803b15801561078157600080fd5b505afa158015610795573d6000803e3d6000fd5b5050600154604051634e92fa7f60e11b8152600481018690526001600160a01b039091169250639d25f4fe9150602401602060405180830381600087803b1580156107df57600080fd5b505af11580156107f3573d6000803e3d6000fd5b505050506040513d601f19601f8201168201806040525081019061081791906125fb565b61094557600080610827846112a3565b91509150811561090a5760018054604051634a31620f60e01b8152600481018790526001600160401b038416602482015260448101929092526001600160a01b031690634a31620f90606401600060405180830381600087803b15801561088d57600080fd5b505af11580156108a1573d6000803e3d6000fd5b5050506001600160401b03821660009081526002602052604090819020805463ffffffff19166001179055517fe62e16bb4c3ba3fca8aac05168de1dd8bddf2912682b5f18ba6dde871618a90891506108fd9086815260200190565b60405180910390a161093e565b6040518481527f8ccdba1b49831e78b93ff05a5b808664fcb991286710a5e969ce9e9c6945c6fb9060200160405180910390a15b5092915050565b5060015b919050565b600054604051632104fb0560e21b815233600482015263010000009091046001600160a01b031690638413ec149060240160006040518083038186803b15801561099757600080fd5b505afa1580156109ab573d6000803e3d6000fd5b505050506000819050806001600160a01b03166337b9fd776040518163ffffffff1660e01b815260040160206040518083038186803b1580156109ed57600080fd5b505afa158015610a01573d6000803e3d6000fd5b505050506040513d601f19601f82011682018060405250810190610a2591906125fb565b610a2e57600080fd5b600180546001600160a01b0319166001600160a01b039290921691909117905550565b6000546040516324f9e45f60e01b815233600482015263010000009091046001600160a01b0316906324f9e45f9060240160006040518083038186803b158015610a9a57600080fd5b505afa158015610aae573d6000803e3d6000fd5b505050506001600160401b038116600090815260036020526040902054600160801b90046001600160801b031615610b235760405162461bcd60e51b81526020600482015260186024820152773a34329030ba3a3934b13aba32b99030b932903a30b5b2b760411b60448201526064016103ca565b6001600160401b03811660008181526003602090815260409182902080546001600160801b0316600160801b17905590519182527f4bb32268d8ca3514a7111f578500b1e78b7227b14987e9b3c9b35e97cdbe612491016106c6565b60005460405163ebe6a6f360e01b815233600482015263010000009091046001600160a01b03169063ebe6a6f39060240160006040518083038186803b158015610bc857600080fd5b505afa158015610bdc573d6000803e3d6000fd5b505050506001600160401b038116600090815260036020526040902054600160801b90046001600160801b031660011415610c67576001600160401b03811660008181526003602090815260409182902080546001600160801b0316905590519182527f6ba6ba07e2267bef6f192322a3509e00e2309b98fa84a555952b9c023c207b6091016106c6565b50565b6001546040516370a0823160e01b81526001600160a01b03838116600483015260009283929116906370a082319060240160206040518083038186803b158015610cb357600080fd5b505afa158015610cc7573d6000803e3d6000fd5b505050506040513d601f19601f82011682018060405250810190610ceb9190612636565b9050612710811115610d005750600392915050565b6103e8811115610d135750600292915050565b6064811115610d255750600192915050565b50600092915050565b600054610100900460ff1680610d47575060005460ff16155b610daa5760405162461bcd60e51b815260206004820152602e60248201527f496e697469616c697a61626c653a20636f6e747261637420697320616c72656160448201526d191e481a5b9a5d1a585b1a5e995960921b60648201526084016103ca565b600054610100900460ff16158015610dcc576000805461ffff19166101011790555b6000829050806001600160a01b031663ba84fd696040518163ffffffff1660e01b815260040160206040518083038186803b158015610e0a57600080fd5b505afa158015610e1e573d6000803e3d6000fd5b505050506040513d601f19601f82011682018060405250810190610e4291906125fb565b610e4b57600080fd5b600080546001805460ff60a01b191690556001600160a01b0390921663010000000262010000600160b81b031990921691909117620100001790558015610e98576000805461ff00191690555b5050565b60008060039054906101000a90046001600160a01b03166001600160a01b0316634d868f986040518163ffffffff1660e01b815260040160006040518083038186803b158015610eeb57600080fd5b505afa158015610eff573d6000803e3d6000fd5b505060005460405163ebe6a6f360e01b815233600482015263010000009091046001600160a01b0316925063ebe6a6f3915060240160006040518083038186803b158015610f4c57600080fd5b505afa158015610f60573d6000803e3d6000fd5b5050600154604051634e92fa7f60e11b8152600481018a90526001600160a01b039091169250639d25f4fe9150602401602060405180830381600087803b158015610faa57600080fd5b505af1158015610fbe573d6000803e3d6000fd5b505050506040513d601f19601f82011682018060405250810190610fe291906125fb565b61115157600080805b6127108110156110d657604051606088901b6bffffffffffffffffffffffff191660208201526034810189905260f886901b6001600160f81b0319166054820152600080356001600160e01b0319166055830152605982018b905260798201839052906099016040516020818303038152906040528051906020012060001c905060005b60048110156110b6576001600160401b03821693506110908b858a8a6113bf565b9450841561109d576110b6565b60409190911c90806110ae8161282f565b91505061106f565b5083156110c357506110d6565b50806110ce8161282f565b915050610feb565b508115611115576040518881527fe62e16bb4c3ba3fca8aac05168de1dd8bddf2912682b5f18ba6dde871618a9089060200160405180910390a1611149565b6040518881527f8ccdba1b49831e78b93ff05a5b808664fcb991286710a5e969ce9e9c6945c6fb9060200160405180910390a15b509050611155565b5060015b95945050505050565b6000805460405163ebe6a6f360e01b815233600482015263010000009091046001600160a01b03169063ebe6a6f39060240160006040518083038186803b1580156111a857600080fd5b505afa1580156111bc573d6000803e3d6000fd5b505050506001600160401b03821660009081526002602052604090205463ffffffff166111ea57508061129d565b6001600160401b038216600090815260026020526040812080546001929061121990849063ffffffff1661277d565b92506101000a81548163ffffffff021916908363ffffffff160217905550600080611243856112a3565b91509150816112945760405162461bcd60e51b815260206004820152601960248201527f756e6971756520617474726962757465206e6f742066756e640000000000000060448201526064016103ca565b915061129d9050565b92915050565b60008080805b6127108110156113b257604051600080356001600160e01b03191660208301526024820187905260448201839052906064016040516020818303038152906040528051906020012060001c905060005b600481101561139d576001600160401b03821660008181526002602052604090205490945063ffffffff166113375750600196929550919350505050565b6001600160401b038416600090815260026020526040812080546001929061136690849063ffffffff1661277d565b92506101000a81548163ffffffff021916908363ffffffff160217905550604082901c9150806113958161282f565b9150506112f9565b505080806113aa9061282f565b9150506112a9565b5060009485945092505050565b6001600160401b03831660009081526002602052604081205463ffffffff166117ce57604080516008808252610120820190925260009160208201610100803683370190505090508460005b6008811015611461578160ff1683828151811061142a5761142a612880565b602002602001019060ff16908160ff16815250506008826001600160401b0316901c915080806114599061282f565b91505061140b565b50600061147287611fff1687611828565b905060008060808360ff1610156114cc576114c28560028151811061149957611499612880565b6020026020010151866003815181106114b4576114b4612880565b60200260200101518a611b62565b90925090506114db565b6114d583611e20565b90925090505b6000611501866004815181106114f3576114f3612880565b60200260200101518a611fd4565b9050600063ff000000601883901b1662ff0000601085901b1661152f61ff00600888901b1660ff891661279c565b611539919061279c565b611543919061279c565b6001600160401b038116600090815260036020526040902054909150600160801b90046001600160801b0316156115f0576001600160401b0381166000908152600360205260409020546115a1906001600160801b0316600161273a565b6001600160401b0391909116600090815260036020526040812080546fffffffffffffffffffffffffffffffff19166001600160801b0390931692909217909155965061182095505050505050565b60006116168860058151811061160857611608612880565b60200260200101518c612330565b90506000604061163a64ff00000000602085901b166001600160401b038616612765565b61164e911b6001600160401b038f16612765565b9050600260036000856001600160401b03166001600160401b0316815260200190815260200160002060000160106101000a8154816001600160801b0302191690836001600160801b03160217905550600160036000856001600160401b03166001600160401b0316815260200190815260200160002060000160006101000a8154816001600160801b0302191690836001600160801b031602179055506001600260008f6001600160401b03166001600160401b0316815260200190815260200160002060006101000a81548163ffffffff021916908363ffffffff160217905550600160009054906101000a90046001600160a01b03166001600160a01b0316634a31620f8f838e6040518463ffffffff1660e01b815260040161178a93929190928352602083019190915260ff16604082015260600190565b600060405180830381600087803b1580156117a457600080fd5b505af11580156117b8573d6000803e3d6000fd5b5050505060019950505050505050505050611820565b6001600160401b03841660009081526002602052604081208054600192906117fd90849063ffffffff1661277d565b92506101000a81548163ffffffff021916908363ffffffff160217905550600090505b949350505050565b600080604051806101200160405280608061ffff16815260200161010061ffff16815260200161014061ffff16815260200161018061ffff1681526020016101b061ffff1681526020016101e061ffff1681526020016101f061ffff1681526020016101ff61ffff16815260200161020061ffff1681525090506000604051806101200160405280606e61ffff16815260200160c861ffff16815260200161012261ffff16815260200161016861ffff1681526020016101a461ffff1681526020016101d661ffff1681526020016101ea61ffff1681526020016101ff61ffff16815260200161020061ffff1681525090506000604051806101200160405280605a61ffff16815260200160be61ffff16815260200161011861ffff16815260200161015e61ffff16815260200161019a61ffff1681526020016101c261ffff1681526020016101e061ffff1681526020016101fe61ffff16815260200161020061ffff1681525090506000604051806101200160405280604061ffff16815260200160b061ffff16815260200161011061ffff16815260200161015461ffff16815260200161019061ffff1681526020016101cc61ffff1681526020016101f061ffff1681526020016101fc61ffff16815260200161020061ffff168152509050611a1261253d565b8660ff1660031415611a25575080611a4e565b8660ff1660021415611a38575081611a4e565b8660ff1660011415611a4b575082611a4e565b50835b6000600f8916610fff60048b901c1682805b60098160ff161015611aaf57858160ff1660098110611a8157611a81612880565b602002015161ffff168361ffff161015611a9d57809150611aaf565b80611aa78161284a565b915050611a60565b508060ff1660081415611b39576001546010600160a01b90910460ff161015611b2757600154611aea90600160a01b900460ff1660806127be565b935060018060148282829054906101000a900460ff16611b0a91906127be565b92506101000a81548160ff021916908360ff160217905550611b52565b611b328360706127be565b9350611b52565b82611b458260106127e3565b611b4f91906127be565b93505b50919a9950505050505050505050565b6000806000604051806101000160405280600660ff168152602001600c60ff168152602001601260ff168152602001601660ff168152602001601a60ff168152602001601d60ff168152602001601f60ff168152602001602060ff1681525090506000604051806101000160405280600560ff168152602001600a60ff168152602001600f60ff168152602001601460ff168152602001601860ff168152602001601c60ff168152602001601f60ff168152602001602060ff1681525090506000604051806101000160405280600560ff168152602001600a60ff168152602001600f60ff168152602001601360ff168152602001601760ff168152602001601b60ff168152602001601e60ff168152602001602060ff1681525090506000604051806101000160405280600460ff168152602001600860ff168152602001600c60ff168152602001601060ff168152602001601460ff168152602001601860ff168152602001601c60ff168152602001602060ff168152509050611ce561255c565b8760ff1660031415611cf8575080611d21565b8760ff1660021415611d0b575081611d21565b8760ff1660011415611d1e575082611d21565b50835b601f808b1690600760058d811c8216928d1691908d901c16600080805b60088160ff161015611d8b57878160ff1660088110611d5f57611d5f612880565b602002015160ff168760ff161015611d7957809250611d8b565b80611d838161284a565b915050611d3e565b5060005b60088160ff161015611ddc57878160ff1660088110611db057611db0612880565b602002015160ff168560ff161015611dca57809150611ddc565b80611dd48161284a565b915050611d8f565b5084611de98360086127e3565b611df391906127be565b83611dff8360086127e3565b611e0991906127be565b9c509c505050505050505050505050935093915050565b6000806000604051806102000160405280600660ff168152602001600c60ff168152602001601260ff168152602001601660ff168152602001601a60ff168152602001601d60ff168152602001601f60ff168152602001602060ff168152602001600660ff168152602001600c60ff168152602001601260ff168152602001601660ff168152602001601a60ff168152602001601d60ff168152602001601f60ff168152602001602060ff1681525090506000604051806102000160405280600560ff168152602001600a60ff168152602001600f60ff168152602001601460ff168152602001601860ff168152602001601c60ff168152602001601f60ff168152602001602060ff168152602001600660ff168152602001600c60ff168152602001601260ff168152602001601660ff168152602001601a60ff168152602001601d60ff168152602001601f60ff168152602001602060ff16815250905081608086611f8d919061280c565b60ff1660108110611fa057611fa0612880565b602002015181611fb160808861280c565b60ff1660108110611fc457611fc4612880565b6020020151935093505050915091565b600080604051806102000160405280603260ff168152602001606460ff168152602001609660ff16815260200160c860ff16815260200160d260ff16815260200160dc60ff16815260200160e660ff16815260200160eb60ff16815260200160f060ff16815260200160f560ff16815260200160f860ff16815260200160fb60ff16815260200160fc60ff16815260200160fd60ff16815260200160fe60ff16815260200160ff801681525090506000604051806102000160405280602a60ff168152602001605460ff168152602001607e60ff16815260200160a860ff16815260200160b560ff16815260200160c260ff16815260200160cf60ff16815260200160d860ff16815260200160e160ff16815260200160ea60ff16815260200160f060ff16815260200160f660ff16815260200160fa60ff16815260200160fc60ff16815260200160fe60ff16815260200160ff801681525090506000604051806102000160405280602860ff168152602001605060ff168152602001607860ff16815260200160a060ff16815260200160ad60ff16815260200160ba60ff16815260200160c760ff16815260200160d060ff16815260200160d960ff16815260200160e260ff16815260200160e960ff16815260200160f060ff16815260200160f460ff16815260200160f860ff16815260200160fc60ff16815260200160ff801681525090506000604051806102000160405280601960ff168152602001603260ff168152602001604b60ff168152602001606460ff168152602001607360ff168152602001608260ff168152602001609160ff168152602001609c60ff16815260200160a760ff16815260200160b260ff16815260200160bc60ff16815260200160c660ff16815260200160d660ff16815260200160e460ff16815260200160f260ff16815260200160ff8016815250905061229161257b565b8660ff16600314156122a45750806122cd565b8660ff16600214156122b75750816122cd565b8660ff16600114156122ca5750826122cd565b50835b60005b60108160ff16101561232157818160ff16601081106122f1576122f1612880565b602002015160ff168960ff161161230f57955061129d945050505050565b806123198161284a565b9150506122d0565b50600098975050505050505050565b60008060405180610100016040528060be60ff16815260200160e160ff16815260200160eb60ff16815260200160f460ff16815260200160fa60ff16815260200160fd60ff16815260200160fe60ff16815260200160ff80168152509050600060405180610100016040528060af60ff16815260200160cd60ff16815260200160e160ff16815260200160f060ff16815260200160f860ff16815260200160fc60ff16815260200160fe60ff16815260200160ff80168152509050600060405180610100016040528060aa60ff16815260200160c860ff16815260200160da60ff16815260200160e860ff16815260200160f560ff16815260200160fa60ff16815260200160fd60ff16815260200160ff801681525090506000604051806101000160405280608060ff16815260200160c060ff16815260200160d260ff16815260200160e360ff16815260200160f060ff16815260200160f960ff16815260200160fc60ff16815260200160ff801681525090506124ad61255c565b8660ff16600314156124c05750806124e9565b8660ff16600214156124d35750816124e9565b8660ff16600114156124e65750826124e9565b50835b60005b60088160ff16101561232157818160ff166008811061250d5761250d612880565b602002015160ff168960ff161161252b57955061129d945050505050565b806125358161284a565b9150506124ec565b6040518061012001604052806009906020820280368337509192915050565b6040518061010001604052806008906020820280368337509192915050565b6040518061020001604052806010906020820280368337509192915050565b80356001600160a01b038116811461094957600080fd5b80356001600160401b038116811461094957600080fd5b803560ff8116811461094957600080fd5b6000602082840312156125eb57600080fd5b6125f48261259a565b9392505050565b60006020828403121561260d57600080fd5b815180151581146125f457600080fd5b60006020828403121561262f57600080fd5b5035919050565b60006020828403121561264857600080fd5b5051919050565b600080600080600060a0868803121561266757600080fd5b853594506020860135935061267e6040870161259a565b925061268c606087016125c8565b915061269a608087016125c8565b90509295509295909350565b600080604083850312156126b957600080fd5b823591506126c9602084016125b1565b90509250929050565b600080600080608085870312156126e857600080fd5b843593506126f8602086016125b1565b9250612706604086016125b1565b9150612714606086016125c8565b905092959194509250565b60006020828403121561273157600080fd5b6125f4826125b1565b60006001600160801b0380831681851680830382111561275c5761275c61286a565b01949350505050565b600082198211156127785761277861286a565b500190565b600063ffffffff80831681851680830382111561275c5761275c61286a565b60006001600160401b0380831681851680830382111561275c5761275c61286a565b600060ff821660ff84168060ff038211156127db576127db61286a565b019392505050565b600060ff821660ff84168160ff04811182151516156128045761280461286a565b029392505050565b600060ff821660ff8416808210156128265761282661286a565b90039392505050565b60006000198214156128435761284361286a565b5060010190565b600060ff821660ff8114156128615761286161286a565b60010192915050565b634e487b7160e01b600052601160045260246000fd5b634e487b7160e01b600052603260045260246000fdfea26469706673582212201d19458ca4612f745e016ea7d6e1c23e65c290bfa5dc321d4acfe05939352f6064736f6c63430008060033",
  "immutableReferences": {},
  "source": "// // SPDX-License-Identifier: MIT\n\npragma solidity ^0.8.6;\n\nimport \"@openzeppelin/contracts-upgradeable/proxy/utils/Initializable.sol\";\nimport \"@openzeppelin/contracts-upgradeable/utils/math/SafeCastUpgradeable.sol\";\nimport \"../access/IAccessRestriction.sol\";\nimport \"../tree/ITree.sol\";\n\n/** @title Attribute Contract */\ncontract Attribute is Initializable {\n    using SafeCastUpgradeable for uint256;\n\n    bool public isAttribute;\n    IAccessRestriction public accessRestriction;\n    ITree public treeToken;\n\n    /** NOTE parameters of randomTreeGeneration*/\n\n    struct SymbolStatus {\n        uint128 generatedCount;\n        uint128 status; // 0 free, 1 reserved , 2 set, 3 setByAdmin\n    }\n\n    uint8 public specialTreeCount;\n\n    /** NOTE mapping from unique attributes id to number of generations */\n    mapping(uint64 => uint32) public uniquenessFactorToGeneratedAttributesCount;\n\n    /** NOTE mapping from unique symbol id to number of generations  */\n    mapping(uint64 => SymbolStatus) public uniquenessFactorToSymbolStatus;\n\n    event AttributeGenerated(uint256 treeId);\n    event AttributeGenerationFailed(uint256 treeId);\n    event SymbolReserved(uint64 uniquenessFactor);\n    event ReservedSymbolReleased(uint64 uniquenessFactor);\n    /** NOTE modifier to check msg.sender has admin role */\n    modifier onlyAdmin() {\n        accessRestriction.ifAdmin(msg.sender);\n        _;\n    }\n\n    /** NOTE modifier for check msg.sender has TreejerContract role */\n    modifier onlyTreejerContract() {\n        accessRestriction.ifTreejerContract(msg.sender);\n        _;\n    }\n\n    /** NOTE modifier to check msg.sender has data manager role */\n    modifier onlyDataManager() {\n        accessRestriction.ifDataManager(msg.sender);\n        _;\n    }\n\n    /** NOTE modifier to check msg.sender has data manager or treejer contract role */\n    modifier onlyDataManagerOrTreejerContract() {\n        accessRestriction.ifDataManagerOrTreejerContract(msg.sender);\n        _;\n    }\n\n    /** NOTE modifier for check if function is not paused*/\n    modifier ifNotPaused() {\n        accessRestriction.ifNotPaused();\n        _;\n    }\n\n    /**\n     * @dev initialize accessRestriction contract and set true for isAttribute\n     * @param _accessRestrictionAddress set to the address of accessRestriction contract\n     */\n    function initialize(address _accessRestrictionAddress)\n        external\n        initializer\n    {\n        IAccessRestriction candidateContract = IAccessRestriction(\n            _accessRestrictionAddress\n        );\n        require(candidateContract.isAccessRestriction());\n        isAttribute = true;\n        specialTreeCount = 0;\n        accessRestriction = candidateContract;\n    }\n\n    /**\n     * @dev admin set TreeToken contract address\n     * @param _address set to the address of TreeToken contract\n     */\n    function setTreeTokenAddress(address _address) external onlyAdmin {\n        ITree candidateContract = ITree(_address);\n\n        require(candidateContract.isTree());\n\n        treeToken = candidateContract;\n    }\n\n    /**\n     * @dev reserve a unique symbol\n     * @param _uniquenessFactor unique symbol to reserve\n     */\n    function reserveSymbol(uint64 _uniquenessFactor)\n        external\n        onlyDataManagerOrTreejerContract\n    {\n        require(\n            uniquenessFactorToSymbolStatus[_uniquenessFactor].status == 0,\n            \"the attributes are taken\"\n        );\n        uniquenessFactorToSymbolStatus[_uniquenessFactor].status = 1;\n\n        emit SymbolReserved(_uniquenessFactor);\n    }\n\n    /**\n     * @dev free reservation of a unique symbol\n     * @param _uniquenessFactor unique symbol to reserve\n     */\n\n    function releaseReservedSymbolByAdmin(uint64 _uniquenessFactor)\n        external\n        onlyDataManager\n    {\n        require(\n            uniquenessFactorToSymbolStatus[_uniquenessFactor].status == 1,\n            \"the attributes not reserved\"\n        );\n\n        uniquenessFactorToSymbolStatus[_uniquenessFactor].status = 0;\n\n        emit ReservedSymbolReleased(_uniquenessFactor);\n    }\n\n    /**\n     * @dev free reservation of a unique symbol\n     * @param _uniquenessFactor unique symbol to reserve\n     */\n    function releaseReservedSymbol(uint64 _uniquenessFactor)\n        external\n        onlyTreejerContract\n    {\n        if (uniquenessFactorToSymbolStatus[_uniquenessFactor].status == 1) {\n            uniquenessFactorToSymbolStatus[_uniquenessFactor].status = 0;\n            emit ReservedSymbolReleased(_uniquenessFactor);\n        }\n    }\n\n    /**\n     * @dev admin assigns symbol to specified treeId\n     * @param _treeId id of tree\n     * @param _attributeUniquenessFactor unique symbol code to assign\n     */\n    function setAttribute(\n        uint256 _treeId,\n        uint64 _attributeUniquenessFactor,\n        uint64 _symbolUniquenessFactor,\n        uint8 _generationType\n    ) external onlyDataManagerOrTreejerContract {\n        require(\n            uniquenessFactorToSymbolStatus[_symbolUniquenessFactor].status < 2,\n            \"the symbol is taken\"\n        );\n        require(\n            uniquenessFactorToGeneratedAttributesCount[\n                _attributeUniquenessFactor\n            ] == 0,\n            \"the attributes are taken\"\n        );\n        uniquenessFactorToGeneratedAttributesCount[\n            _attributeUniquenessFactor\n        ] = 1;\n        uniquenessFactorToSymbolStatus[_symbolUniquenessFactor].status = 3;\n        uniquenessFactorToSymbolStatus[_symbolUniquenessFactor]\n            .generatedCount += 1;\n\n        uint256 uniquenessFactor = _attributeUniquenessFactor +\n            ((uint256(_symbolUniquenessFactor) + (2 << 32)) << 64);\n\n        treeToken.setAttributes(_treeId, uniquenessFactor, _generationType);\n\n        emit AttributeGenerated(_treeId);\n    }\n\n    /**\n     * @dev generate a 256 bits random number as a base for attributes and slice it\n     * in 28 bits parts\n     * @param _treeId id of tree\n     * @return if unique attribute generated successfully\n     */\n    function createSymbol(\n        uint256 _treeId,\n        bytes32 _randomValue,\n        address _funder,\n        uint8 _funderRank,\n        uint8 _generationType\n    ) external ifNotPaused onlyTreejerContract returns (bool) {\n        if (!treeToken.attributeExists(_treeId)) {\n            bool flag = false;\n            uint64 tempRandomValue;\n\n            for (uint256 j = 0; j < 10000; j++) {\n                uint256 randomValue = uint256(\n                    keccak256(\n                        abi.encodePacked(\n                            _funder,\n                            _randomValue,\n                            _generationType,\n                            msg.sig,\n                            _treeId,\n                            j\n                        )\n                    )\n                );\n\n                for (uint256 i = 0; i < 4; i++) {\n                    tempRandomValue = uint64(randomValue & type(uint64).max);\n\n                    flag = _generateUniquenessFactor(\n                        _treeId,\n                        tempRandomValue,\n                        _funderRank,\n                        _generationType\n                    );\n                    if (flag) {\n                        break;\n                    }\n\n                    randomValue >>= 64;\n                }\n                if (flag) {\n                    break;\n                }\n            }\n            if (flag) {\n                emit AttributeGenerated(_treeId);\n            } else {\n                emit AttributeGenerationFailed(_treeId);\n            }\n\n            return flag;\n        } else {\n            return true;\n        }\n    }\n\n    function createAttribute(uint256 _treeId)\n        external\n        ifNotPaused\n        onlyTreejerContract\n        returns (bool)\n    {\n        if (!treeToken.attributeExists(_treeId)) {\n            (\n                bool flag,\n                uint64 uniquenessFactor\n            ) = _generateAttributeUniquenessFactor(_treeId);\n\n            if (flag) {\n                treeToken.setAttributes(_treeId, uniquenessFactor, 1);\n                uniquenessFactorToGeneratedAttributesCount[\n                    uniquenessFactor\n                ] = 1;\n\n                emit AttributeGenerated(_treeId);\n            } else {\n                emit AttributeGenerationFailed(_treeId);\n            }\n\n            return flag;\n        } else {\n            return true;\n        }\n    }\n\n    function manageAttributeUniquenessFactor(\n        uint256 _treeId,\n        uint64 _uniquenessFactor\n    ) external onlyTreejerContract returns (uint64) {\n        if (\n            uniquenessFactorToGeneratedAttributesCount[_uniquenessFactor] == 0\n        ) {\n            return _uniquenessFactor;\n        } else {\n            uniquenessFactorToGeneratedAttributesCount[_uniquenessFactor] += 1;\n\n            (\n                bool flag,\n                uint64 uniquenessFactor\n            ) = _generateAttributeUniquenessFactor(_treeId);\n\n            require(flag, \"unique attribute not fund\");\n\n            return uniquenessFactor;\n        }\n    }\n\n    /**\n     * @dev the function Tries to Calculate the rank of buyer based on transaction statistics of\n     * his/her wallet\n     * @param _funder address of funder\n     */\n    function getFunderRank(address _funder) external view returns (uint8) {\n        uint256 ownedTrees = treeToken.balanceOf(_funder);\n\n        if (ownedTrees > 10000) {\n            return 3;\n        } else if (ownedTrees > 1000) {\n            return 2;\n        } else if (ownedTrees > 100) {\n            return 1;\n        }\n\n        return 0;\n    }\n\n    function _generateAttributeUniquenessFactor(uint256 _treeId)\n        private\n        returns (bool, uint64)\n    {\n        uint64 uniquenessFactor;\n\n        for (uint256 j = 0; j < 10000; j++) {\n            uint256 randomValue = uint256(\n                keccak256(abi.encodePacked(msg.sig, _treeId, j))\n            );\n\n            for (uint256 i = 0; i < 4; i++) {\n                uniquenessFactor = uint64(randomValue & type(uint64).max);\n\n                if (\n                    uniquenessFactorToGeneratedAttributesCount[\n                        uniquenessFactor\n                    ] == 0\n                ) {\n                    return (true, uniquenessFactor);\n                } else {\n                    uniquenessFactorToGeneratedAttributesCount[\n                        uniquenessFactor\n                    ] += 1;\n\n                    randomValue >>= 64;\n                }\n            }\n        }\n        return (false, 0);\n    }\n\n    /**\n     * @dev calculates the random attributes from random number\n     * @param _treeId id of tree\n     * @param _randomValue a 28 bits random attribute generator number\n     * @return if generated random attribute is unique\n     */\n    function _generateUniquenessFactor(\n        uint256 _treeId,\n        uint64 _randomValue,\n        uint8 _funderRank,\n        uint8 _generationType\n    ) private returns (bool) {\n        if (uniquenessFactorToGeneratedAttributesCount[_randomValue] == 0) {\n            uint8[] memory attributes = new uint8[](8);\n\n            uint64 tempRandomValue = _randomValue;\n            for (uint256 j = 0; j < 8; j++) {\n                attributes[j] = uint8(tempRandomValue & 255);\n\n                tempRandomValue >>= 8;\n            }\n\n            uint8 shape = _calcShape(uint16(_randomValue & 8191), _funderRank); //8191 = 2^13-1\n\n            uint8 trunkColor;\n            uint8 crownColor;\n\n            if (shape < 128) {\n                (trunkColor, crownColor) = _calcColors(\n                    attributes[2],\n                    attributes[3],\n                    _funderRank\n                );\n            } else {\n                (trunkColor, crownColor) = _setSpecialTreeColors(shape);\n            }\n\n            uint8 effect = _calcEffects(attributes[4], _funderRank);\n\n            uint64 symbolUniquenessFactor = shape +\n                (uint64(trunkColor) << 8) +\n                (uint64(crownColor) << 16) +\n                (uint64(effect) << 24);\n\n            if (\n                uniquenessFactorToSymbolStatus[symbolUniquenessFactor].status >\n                0\n            ) {\n                uniquenessFactorToSymbolStatus[symbolUniquenessFactor]\n                    .generatedCount =\n                    uniquenessFactorToSymbolStatus[symbolUniquenessFactor]\n                        .generatedCount +\n                    1;\n                return false;\n            }\n            uint8 coefficient = _calcCoefficient(attributes[5], _funderRank);\n\n            uint256 uniquenessFactor = _randomValue +\n                ((symbolUniquenessFactor + (uint256(coefficient) << 32)) << 64);\n\n            uniquenessFactorToSymbolStatus[symbolUniquenessFactor].status = 2;\n            uniquenessFactorToSymbolStatus[symbolUniquenessFactor]\n                .generatedCount = 1;\n            uniquenessFactorToGeneratedAttributesCount[_randomValue] = 1;\n            treeToken.setAttributes(_treeId, uniquenessFactor, _generationType);\n\n            return true;\n        } else {\n            uniquenessFactorToGeneratedAttributesCount[_randomValue] += 1;\n            return false;\n        }\n    }\n\n    function _calcShape(uint16 _randomValue, uint8 _funderRank)\n        private\n        returns (uint8)\n    {\n        uint16[9] memory probRank0 = [\n            128,\n            256,\n            320,\n            384,\n            432,\n            480,\n            496,\n            511,\n            512\n        ];\n        uint16[9] memory probRank1 = [\n            110,\n            200,\n            290,\n            360,\n            420,\n            470,\n            490,\n            511,\n            512\n        ];\n        uint16[9] memory probRank2 = [\n            90,\n            190,\n            280,\n            350,\n            410,\n            450,\n            480,\n            510,\n            512\n        ];\n        uint16[9] memory probRank3 = [\n            64,\n            176,\n            272,\n            340,\n            400,\n            460,\n            496,\n            508,\n            512\n        ];\n        uint16[9] memory selectedRankProb;\n\n        if (_funderRank == 3) {\n            selectedRankProb = probRank3;\n        } else if (_funderRank == 2) {\n            selectedRankProb = probRank2;\n        } else if (_funderRank == 1) {\n            selectedRankProb = probRank1;\n        } else {\n            selectedRankProb = probRank0;\n        }\n\n        uint8 shape;\n\n        uint8 randomValueFirstFourBit = uint8(_randomValue & 15);\n\n        uint16 probability = _randomValue >> 4;\n\n        uint8 result = 0;\n\n        for (uint8 j = 0; j < 9; j++) {\n            if (probability < selectedRankProb[j]) {\n                result = j;\n                break;\n            }\n        }\n\n        if (result == 8) {\n            if (specialTreeCount < 16) {\n                shape = 128 + specialTreeCount;\n                specialTreeCount += 1;\n            } else {\n                shape = 112 + randomValueFirstFourBit;\n            }\n        } else {\n            shape = result * 16 + randomValueFirstFourBit;\n        }\n\n        return shape;\n    }\n\n    function _calcColors(\n        uint8 _randomValue1,\n        uint8 _randomValue2,\n        uint8 _funderRank\n    ) private pure returns (uint8, uint8) {\n        uint8[8] memory probRank0 = [6, 12, 18, 22, 26, 29, 31, 32];\n        uint8[8] memory probRank1 = [5, 10, 15, 20, 24, 28, 31, 32];\n        uint8[8] memory probRank2 = [5, 10, 15, 19, 23, 27, 30, 32];\n        uint8[8] memory probRank3 = [4, 8, 12, 16, 20, 24, 28, 32];\n        uint8[8] memory selectedRankProb;\n\n        if (_funderRank == 3) {\n            selectedRankProb = probRank3;\n        } else if (_funderRank == 2) {\n            selectedRankProb = probRank2;\n        } else if (_funderRank == 1) {\n            selectedRankProb = probRank1;\n        } else {\n            selectedRankProb = probRank0;\n        }\n\n        uint8 probability1 = _randomValue1 & 31;\n\n        uint8 randomValue1Last3Bit = _randomValue1 >> 5;\n        uint8 probability2 = _randomValue2 & 31;\n\n        uint8 randomValue2Last3Bit = _randomValue2 >> 5;\n        uint8 result1 = 0;\n        uint8 result2 = 0;\n\n        for (uint8 i = 0; i < 8; i++) {\n            if (probability1 < selectedRankProb[i]) {\n                result1 = i;\n                break;\n            }\n        }\n\n        for (uint8 j = 0; j < 8; j++) {\n            if (probability2 < selectedRankProb[j]) {\n                result2 = j;\n                break;\n            }\n        }\n\n        return (\n            result1 * 8 + randomValue1Last3Bit,\n            result2 * 8 + randomValue2Last3Bit\n        );\n    }\n\n    function _setSpecialTreeColors(uint8 _shape)\n        private\n        pure\n        returns (uint8, uint8)\n    {\n        uint8[16] memory trunks = [\n            6,\n            12,\n            18,\n            22,\n            26,\n            29,\n            31,\n            32,\n            6,\n            12,\n            18,\n            22,\n            26,\n            29,\n            31,\n            32\n        ];\n        uint8[16] memory crowns = [\n            5,\n            10,\n            15,\n            20,\n            24,\n            28,\n            31,\n            32,\n            6,\n            12,\n            18,\n            22,\n            26,\n            29,\n            31,\n            32\n        ];\n        return (trunks[_shape - 128], crowns[_shape - 128]);\n    }\n\n    function _calcEffects(uint8 _randomValue, uint8 _funderRank)\n        private\n        pure\n        returns (uint8)\n    {\n        uint8[16] memory probRank0 = [\n            50,\n            100,\n            150,\n            200,\n            210,\n            220,\n            230,\n            235,\n            240,\n            245,\n            248,\n            251,\n            252,\n            253,\n            254,\n            255\n        ];\n        uint8[16] memory probRank1 = [\n            42,\n            84,\n            126,\n            168,\n            181,\n            194,\n            207,\n            216,\n            225,\n            234,\n            240,\n            246,\n            250,\n            252,\n            254,\n            255\n        ];\n        uint8[16] memory probRank2 = [\n            40,\n            80,\n            120,\n            160,\n            173,\n            186,\n            199,\n            208,\n            217,\n            226,\n            233,\n            240,\n            244,\n            248,\n            252,\n            255\n        ];\n        uint8[16] memory probRank3 = [\n            25,\n            50,\n            75,\n            100,\n            115,\n            130,\n            145,\n            156,\n            167,\n            178,\n            188,\n            198,\n            214,\n            228,\n            242,\n            255\n        ];\n\n        uint8[16] memory selectedRankProb;\n\n        if (_funderRank == 3) {\n            selectedRankProb = probRank3;\n        } else if (_funderRank == 2) {\n            selectedRankProb = probRank2;\n        } else if (_funderRank == 1) {\n            selectedRankProb = probRank1;\n        } else {\n            selectedRankProb = probRank0;\n        }\n\n        for (uint8 j = 0; j < 16; j++) {\n            if (_randomValue <= selectedRankProb[j]) {\n                return j;\n            }\n        }\n\n        return 0;\n    }\n\n    function _calcCoefficient(uint8 _randomValue, uint8 _funderRank)\n        private\n        pure\n        returns (uint8)\n    {\n        uint8[8] memory probRank0 = [190, 225, 235, 244, 250, 253, 254, 255];\n        uint8[8] memory probRank1 = [175, 205, 225, 240, 248, 252, 254, 255];\n        uint8[8] memory probRank2 = [170, 200, 218, 232, 245, 250, 253, 255];\n        uint8[8] memory probRank3 = [128, 192, 210, 227, 240, 249, 252, 255];\n\n        uint8[8] memory selectedRankProb;\n\n        if (_funderRank == 3) {\n            selectedRankProb = probRank3;\n        } else if (_funderRank == 2) {\n            selectedRankProb = probRank2;\n        } else if (_funderRank == 1) {\n            selectedRankProb = probRank1;\n        } else {\n            selectedRankProb = probRank0;\n        }\n\n        for (uint8 j = 0; j < 8; j++) {\n            if (_randomValue <= selectedRankProb[j]) {\n                return j;\n            }\n        }\n\n        return 0;\n    }\n}\n",
  "sourcePath": "/media/ali/New Volume/treejer/contract/contracts/tree/Attribute.sol",
  "compiler": {
    "name": "solc",
    "version": "0.8.6+commit.11564f7e.Emscripten.clang"
  },
  "schemaVersion": "3.4.3",
  "updatedAt": "2021-10-25T21:10:51.612Z",
  "networkType": "ethereum",
  "devdoc": {
    "kind": "dev",
    "methods": {
      "createSymbol(uint256,bytes32,address,uint8,uint8)": {
        "details": "generate a 256 bits random number as a base for attributes and slice it in 28 bits parts",
        "params": {
          "_treeId": "id of tree"
        },
        "returns": {
          "_0": "if unique attribute generated successfully"
        }
      },
      "getFunderRank(address)": {
        "details": "the function Tries to Calculate the rank of buyer based on transaction statistics of his/her wallet",
        "params": {
          "_funder": "address of funder"
        }
      },
      "initialize(address)": {
        "details": "initialize accessRestriction contract and set true for isAttribute",
        "params": {
          "_accessRestrictionAddress": "set to the address of accessRestriction contract"
        }
      },
      "releaseReservedSymbol(uint64)": {
        "details": "free reservation of a unique symbol",
        "params": {
          "_uniquenessFactor": "unique symbol to reserve"
        }
      },
      "releaseReservedSymbolByAdmin(uint64)": {
        "details": "free reservation of a unique symbol",
        "params": {
          "_uniquenessFactor": "unique symbol to reserve"
        }
      },
      "reserveSymbol(uint64)": {
        "details": "reserve a unique symbol",
        "params": {
          "_uniquenessFactor": "unique symbol to reserve"
        }
      },
      "setAttribute(uint256,uint64,uint64,uint8)": {
        "details": "admin assigns symbol to specified treeId",
        "params": {
          "_attributeUniquenessFactor": "unique symbol code to assign",
          "_treeId": "id of tree"
        }
      },
      "setTreeTokenAddress(address)": {
        "details": "admin set TreeToken contract address",
        "params": {
          "_address": "set to the address of TreeToken contract"
        }
      }
    },
    "title": "Attribute Contract ",
    "version": 1
  },
  "userdoc": {
    "kind": "user",
    "methods": {
      "uniquenessFactorToGeneratedAttributesCount(uint64)": {
        "notice": "NOTE mapping from unique attributes id to number of generations "
      },
      "uniquenessFactorToSymbolStatus(uint64)": {
        "notice": "NOTE mapping from unique symbol id to number of generations  "
      }
    },
    "version": 1
  }
}