{
  "contractName": "DaiFund",
  "abi": [
    {
      "anonymous": false,
      "inputs": [
        {
          "indexed": false,
          "internalType": "uint256",
          "name": "amount",
          "type": "uint256"
        },
        {
          "indexed": false,
          "internalType": "address",
          "name": "account",
          "type": "address"
        },
        {
          "indexed": false,
          "internalType": "string",
          "name": "reason",
          "type": "string"
        }
      ],
      "name": "InsuranceBalanceWithdrew",
      "type": "event"
    },
    {
      "anonymous": false,
      "inputs": [
        {
          "indexed": false,
          "internalType": "uint256",
          "name": "amount",
          "type": "uint256"
        },
        {
          "indexed": false,
          "internalType": "address",
          "name": "account",
          "type": "address"
        },
        {
          "indexed": false,
          "internalType": "string",
          "name": "reason",
          "type": "string"
        }
      ],
      "name": "LocalDevelopmentBalanceWithdrew",
      "type": "event"
    },
    {
      "anonymous": false,
      "inputs": [
        {
          "indexed": false,
          "internalType": "uint256",
          "name": "amount",
          "type": "uint256"
        },
        {
          "indexed": false,
          "internalType": "address",
          "name": "account",
          "type": "address"
        },
        {
          "indexed": false,
          "internalType": "string",
          "name": "reason",
          "type": "string"
        }
      ],
      "name": "ResearchBalanceWithdrew",
      "type": "event"
    },
    {
      "anonymous": false,
      "inputs": [
        {
          "indexed": false,
          "internalType": "uint256",
          "name": "amount",
          "type": "uint256"
        },
        {
          "indexed": false,
          "internalType": "address",
          "name": "account",
          "type": "address"
        },
        {
          "indexed": false,
          "internalType": "string",
          "name": "reason",
          "type": "string"
        }
      ],
      "name": "Reserve1BalanceWithdrew",
      "type": "event"
    },
    {
      "anonymous": false,
      "inputs": [
        {
          "indexed": false,
          "internalType": "uint256",
          "name": "amount",
          "type": "uint256"
        },
        {
          "indexed": false,
          "internalType": "address",
          "name": "account",
          "type": "address"
        },
        {
          "indexed": false,
          "internalType": "string",
          "name": "reason",
          "type": "string"
        }
      ],
      "name": "Reserve2BalanceWithdrew",
      "type": "event"
    },
    {
      "anonymous": false,
      "inputs": [
        {
          "indexed": false,
          "internalType": "uint256",
          "name": "amount",
          "type": "uint256"
        },
        {
          "indexed": false,
          "internalType": "address",
          "name": "account",
          "type": "address"
        },
        {
          "indexed": false,
          "internalType": "string",
          "name": "reason",
          "type": "string"
        }
      ],
      "name": "TreasuryBalanceWithdrew",
      "type": "event"
    },
    {
      "anonymous": false,
      "inputs": [
        {
          "indexed": false,
          "internalType": "uint256",
          "name": "treeId",
          "type": "uint256"
        },
        {
          "indexed": false,
          "internalType": "uint256",
          "name": "amount",
          "type": "uint256"
        },
        {
          "indexed": false,
          "internalType": "uint256",
          "name": "planterPart",
          "type": "uint256"
        }
      ],
      "name": "TreeFunded",
      "type": "event"
    },
    {
      "anonymous": false,
      "inputs": [],
      "name": "TreeFundedBatch",
      "type": "event"
    },
    {
      "inputs": [],
      "name": "accessRestriction",
      "outputs": [
        {
          "internalType": "contract IAccessRestriction",
          "name": "",
          "type": "address"
        }
      ],
      "stateMutability": "view",
      "type": "function",
      "constant": true
    },
    {
      "inputs": [],
      "name": "daiToken",
      "outputs": [
        {
          "internalType": "contract IERC20Upgradeable",
          "name": "",
          "type": "address"
        }
      ],
      "stateMutability": "view",
      "type": "function",
      "constant": true
    },
    {
      "inputs": [],
      "name": "insuranceAddress",
      "outputs": [
        {
          "internalType": "address",
          "name": "",
          "type": "address"
        }
      ],
      "stateMutability": "view",
      "type": "function",
      "constant": true
    },
    {
      "inputs": [],
      "name": "isDaiFund",
      "outputs": [
        {
          "internalType": "bool",
          "name": "",
          "type": "bool"
        }
      ],
      "stateMutability": "view",
      "type": "function",
      "constant": true
    },
    {
      "inputs": [],
      "name": "localDevelopmentAddress",
      "outputs": [
        {
          "internalType": "address",
          "name": "",
          "type": "address"
        }
      ],
      "stateMutability": "view",
      "type": "function",
      "constant": true
    },
    {
      "inputs": [],
      "name": "planterFundContract",
      "outputs": [
        {
          "internalType": "contract IPlanterFund",
          "name": "",
          "type": "address"
        }
      ],
      "stateMutability": "view",
      "type": "function",
      "constant": true
    },
    {
      "inputs": [],
      "name": "researchAddress",
      "outputs": [
        {
          "internalType": "address",
          "name": "",
          "type": "address"
        }
      ],
      "stateMutability": "view",
      "type": "function",
      "constant": true
    },
    {
      "inputs": [],
      "name": "reserve1Address",
      "outputs": [
        {
          "internalType": "address",
          "name": "",
          "type": "address"
        }
      ],
      "stateMutability": "view",
      "type": "function",
      "constant": true
    },
    {
      "inputs": [],
      "name": "reserve2Address",
      "outputs": [
        {
          "internalType": "address",
          "name": "",
          "type": "address"
        }
      ],
      "stateMutability": "view",
      "type": "function",
      "constant": true
    },
    {
      "inputs": [],
      "name": "totalBalances",
      "outputs": [
        {
          "internalType": "uint256",
          "name": "research",
          "type": "uint256"
        },
        {
          "internalType": "uint256",
          "name": "localDevelopment",
          "type": "uint256"
        },
        {
          "internalType": "uint256",
          "name": "insurance",
          "type": "uint256"
        },
        {
          "internalType": "uint256",
          "name": "treasury",
          "type": "uint256"
        },
        {
          "internalType": "uint256",
          "name": "reserve1",
          "type": "uint256"
        },
        {
          "internalType": "uint256",
          "name": "reserve2",
          "type": "uint256"
        }
      ],
      "stateMutability": "view",
      "type": "function",
      "constant": true
    },
    {
      "inputs": [],
      "name": "treasuryAddress",
      "outputs": [
        {
          "internalType": "address",
          "name": "",
          "type": "address"
        }
      ],
      "stateMutability": "view",
      "type": "function",
      "constant": true
    },
    {
      "inputs": [
        {
          "internalType": "address",
          "name": "_accessRestrictionAddress",
          "type": "address"
        }
      ],
      "name": "initialize",
      "outputs": [],
      "stateMutability": "nonpayable",
      "type": "function"
    },
    {
      "inputs": [
        {
          "internalType": "address",
          "name": "_daiTokenAddress",
          "type": "address"
        }
      ],
      "name": "setDaiTokenAddress",
      "outputs": [],
      "stateMutability": "nonpayable",
      "type": "function"
    },
    {
      "inputs": [
        {
          "internalType": "address",
          "name": "_address",
          "type": "address"
        }
      ],
      "name": "setPlanterFundContractAddress",
      "outputs": [],
      "stateMutability": "nonpayable",
      "type": "function"
    },
    {
      "inputs": [
        {
          "internalType": "address payable",
          "name": "_address",
          "type": "address"
        }
      ],
      "name": "setResearchAddress",
      "outputs": [],
      "stateMutability": "nonpayable",
      "type": "function"
    },
    {
      "inputs": [
        {
          "internalType": "address payable",
          "name": "_address",
          "type": "address"
        }
      ],
      "name": "setLocalDevelopmentAddress",
      "outputs": [],
      "stateMutability": "nonpayable",
      "type": "function"
    },
    {
      "inputs": [
        {
          "internalType": "address payable",
          "name": "_address",
          "type": "address"
        }
      ],
      "name": "setInsuranceAddress",
      "outputs": [],
      "stateMutability": "nonpayable",
      "type": "function"
    },
    {
      "inputs": [
        {
          "internalType": "address payable",
          "name": "_address",
          "type": "address"
        }
      ],
      "name": "setTreasuryAddress",
      "outputs": [],
      "stateMutability": "nonpayable",
      "type": "function"
    },
    {
      "inputs": [
        {
          "internalType": "address payable",
          "name": "_address",
          "type": "address"
        }
      ],
      "name": "setReserve1Address",
      "outputs": [],
      "stateMutability": "nonpayable",
      "type": "function"
    },
    {
      "inputs": [
        {
          "internalType": "address payable",
          "name": "_address",
          "type": "address"
        }
      ],
      "name": "setReserve2Address",
      "outputs": [],
      "stateMutability": "nonpayable",
      "type": "function"
    },
    {
      "inputs": [
        {
          "internalType": "uint256",
          "name": "_treeId",
          "type": "uint256"
        },
        {
          "internalType": "uint256",
          "name": "_amount",
          "type": "uint256"
        },
        {
          "internalType": "uint16",
          "name": "_planterShare",
          "type": "uint16"
        },
        {
          "internalType": "uint16",
          "name": "_ambassadorShare",
          "type": "uint16"
        },
        {
          "internalType": "uint16",
          "name": "_researchShare",
          "type": "uint16"
        },
        {
          "internalType": "uint16",
          "name": "_localDevelopmentShare",
          "type": "uint16"
        },
        {
          "internalType": "uint16",
          "name": "_insuranceShare",
          "type": "uint16"
        },
        {
          "internalType": "uint16",
          "name": "_treasuryShare",
          "type": "uint16"
        },
        {
          "internalType": "uint16",
          "name": "_reserve1Share",
          "type": "uint16"
        },
        {
          "internalType": "uint16",
          "name": "_reserve2Share",
          "type": "uint16"
        }
      ],
      "name": "fundTree",
      "outputs": [],
      "stateMutability": "nonpayable",
      "type": "function"
    },
    {
      "inputs": [
        {
          "internalType": "uint256",
          "name": "_totalPlanterAmount",
          "type": "uint256"
        },
        {
          "internalType": "uint256",
          "name": "_totalAmbassadorAmount",
          "type": "uint256"
        },
        {
          "internalType": "uint256",
          "name": "_totalResearch",
          "type": "uint256"
        },
        {
          "internalType": "uint256",
          "name": "_totalLocalDevelopment",
          "type": "uint256"
        },
        {
          "internalType": "uint256",
          "name": "_totalInsurance",
          "type": "uint256"
        },
        {
          "internalType": "uint256",
          "name": "_totalTreasury",
          "type": "uint256"
        },
        {
          "internalType": "uint256",
          "name": "_totalReserve1",
          "type": "uint256"
        },
        {
          "internalType": "uint256",
          "name": "_totalReserve2",
          "type": "uint256"
        }
      ],
      "name": "fundTreeBatch",
      "outputs": [],
      "stateMutability": "nonpayable",
      "type": "function"
    },
    {
      "inputs": [
        {
          "internalType": "uint256",
          "name": "_amount",
          "type": "uint256"
        }
      ],
      "name": "transferReferrerDai",
      "outputs": [],
      "stateMutability": "nonpayable",
      "type": "function"
    },
    {
      "inputs": [
        {
          "internalType": "uint256",
          "name": "_amount",
          "type": "uint256"
        },
        {
          "internalType": "string",
          "name": "_reason",
          "type": "string"
        }
      ],
      "name": "withdrawResearchBalance",
      "outputs": [],
      "stateMutability": "nonpayable",
      "type": "function"
    },
    {
      "inputs": [
        {
          "internalType": "uint256",
          "name": "_amount",
          "type": "uint256"
        },
        {
          "internalType": "string",
          "name": "_reason",
          "type": "string"
        }
      ],
      "name": "withdrawLocalDevelopmentBalance",
      "outputs": [],
      "stateMutability": "nonpayable",
      "type": "function"
    },
    {
      "inputs": [
        {
          "internalType": "uint256",
          "name": "_amount",
          "type": "uint256"
        },
        {
          "internalType": "string",
          "name": "_reason",
          "type": "string"
        }
      ],
      "name": "withdrawInsuranceBalance",
      "outputs": [],
      "stateMutability": "nonpayable",
      "type": "function"
    },
    {
      "inputs": [
        {
          "internalType": "uint256",
          "name": "_amount",
          "type": "uint256"
        },
        {
          "internalType": "string",
          "name": "_reason",
          "type": "string"
        }
      ],
      "name": "withdrawTreasuryBalance",
      "outputs": [],
      "stateMutability": "nonpayable",
      "type": "function"
    },
    {
      "inputs": [
        {
          "internalType": "uint256",
          "name": "_amount",
          "type": "uint256"
        },
        {
          "internalType": "string",
          "name": "_reason",
          "type": "string"
        }
      ],
      "name": "withdrawReserve1Balance",
      "outputs": [],
      "stateMutability": "nonpayable",
      "type": "function"
    },
    {
      "inputs": [
        {
          "internalType": "uint256",
          "name": "_amount",
          "type": "uint256"
        },
        {
          "internalType": "string",
          "name": "_reason",
          "type": "string"
        }
      ],
      "name": "withdrawReserve2Balance",
      "outputs": [],
      "stateMutability": "nonpayable",
      "type": "function"
    }
  ],
  "bytecode": "0x608060405234801561001057600080fd5b506122d6806100206000396000f3fe608060405234801561001057600080fd5b50600436106101cf5760003560e01c8063a864e68811610104578063c4d66de8116100a2578063e218a75211610071578063e218a7521461041d578063e5a41e2514610430578063f1326b1514610443578063f50639811461045657600080fd5b8063c4d66de8146103ca578063c5f956af146103dd578063d6762c4a146103f0578063e1c6cddf1461040a57600080fd5b8063b3675832116100de578063b36758321461037e578063b5e1eabd14610391578063bb208f55146103a4578063be22f546146103b757600080fd5b8063a864e68814610335578063ab7806a214610348578063b005e1021461036b57600080fd5b806380d663ea11610171578063979260bd1161014b578063979260bd146102b1578063a38b7270146102c4578063a69a2ad1146102d7578063a6a45cdf1461032257600080fd5b806380d663ea146102785780638f76719b1461028b578063935dd4ac1461029e57600080fd5b80635773780d116101ad5780635773780d1461022c57806363cb2afb1461023f5780636605bfda146102525780637169029d1461026557600080fd5b806321ee217a146101d45780632401273c146101e95780632cf2ec9e14610219575b600080fd5b6101e76101e2366004611f5a565b610469565b005b600b546101fc906001600160a01b031681565b6040516001600160a01b0390911681526020015b60405180910390f35b6009546101fc906001600160a01b031681565b6101e761023a366004611f5a565b61051e565b600d546101fc906001600160a01b031681565b6101e7610260366004611f5a565b610621565b6101e7610273366004611f5a565b6106cd565b6001546101fc906001600160a01b031681565b6101e7610299366004611f5a565b610779565b6101e76102ac366004611fa0565b610825565b600e546101fc906001600160a01b031681565b6101e76102d2366004611fb9565b61099a565b6003546004546005546006546007546008546102f595949392919086565b604080519687526020870195909552938501929092526060840152608083015260a082015260c001610210565b6101e7610330366004611fb9565b610bcf565b6101e7610343366004611fb9565b610df5565b60005461035b9062010000900460ff1681565b6040519015158152602001610210565b6101e7610379366004611fb9565b61101b565b6101e761038c366004612035565b611241565b600a546101fc906001600160a01b031681565b6101e76103b2366004611f5a565b6115a0565b6002546101fc906001600160a01b031681565b6101e76103d8366004611f5a565b61164c565b600c546101fc906001600160a01b031681565b6000546101fc90630100000090046001600160a01b031681565b6101e7610418366004611f5a565b6117ac565b6101e761042b366004611fb9565b611858565b6101e761043e3660046120e1565b611a7e565b6101e7610451366004611f5a565b611c72565b6101e7610464366004611fb9565b611d1e565b600054604051632104fb0560e21b815233600482015263010000009091046001600160a01b031690638413ec149060240160006040518083038186803b1580156104b257600080fd5b505afa1580156104c6573d6000803e3d6000fd5b5083925050506001600160a01b0381166104fb5760405162461bcd60e51b81526004016104f290612192565b60405180910390fd5b50600d80546001600160a01b0319166001600160a01b0392909216919091179055565b600054604051632104fb0560e21b815233600482015263010000009091046001600160a01b031690638413ec149060240160006040518083038186803b15801561056757600080fd5b505afa15801561057b573d6000803e3d6000fd5b505050506000819050806001600160a01b031663349904da6040518163ffffffff1660e01b815260040160206040518083038186803b1580156105bd57600080fd5b505afa1580156105d1573d6000803e3d6000fd5b505050506040513d601f19601f820116820180604052508101906105f59190611f7e565b6105fe57600080fd5b600180546001600160a01b0319166001600160a01b039290921691909117905550565b600054604051632104fb0560e21b815233600482015263010000009091046001600160a01b031690638413ec149060240160006040518083038186803b15801561066a57600080fd5b505afa15801561067e573d6000803e3d6000fd5b5083925050506001600160a01b0381166106aa5760405162461bcd60e51b81526004016104f290612192565b50600c80546001600160a01b0319166001600160a01b0392909216919091179055565b600054604051632104fb0560e21b815233600482015263010000009091046001600160a01b031690638413ec149060240160006040518083038186803b15801561071657600080fd5b505afa15801561072a573d6000803e3d6000fd5b5083925050506001600160a01b0381166107565760405162461bcd60e51b81526004016104f290612192565b50600e80546001600160a01b0319166001600160a01b0392909216919091179055565b600054604051632104fb0560e21b815233600482015263010000009091046001600160a01b031690638413ec149060240160006040518083038186803b1580156107c257600080fd5b505afa1580156107d6573d6000803e3d6000fd5b5083925050506001600160a01b0381166108025760405162461bcd60e51b81526004016104f290612192565b50600a80546001600160a01b0319166001600160a01b0392909216919091179055565b60005460405163ebe6a6f360e01b815233600482015263010000009091046001600160a01b03169063ebe6a6f39060240160006040518083038186803b15801561086e57600080fd5b505afa158015610882573d6000803e3d6000fd5b5050505080600380015410156108d15760405162461bcd60e51b8152602060048201526014602482015273098d2e2ead2c8d2e8f240dcdee840cadcdeeaced60631b60448201526064016104f2565b806003800160008282546108e5919061225b565b909155505060025460015460405163a9059cbb60e01b81526001600160a01b03918216600482015260248101849052600092919091169063a9059cbb90604401602060405180830381600087803b15801561093f57600080fd5b505af1158015610953573d6000803e3d6000fd5b505050506040513d601f19601f820116820180604052508101906109779190611f7e565b9050806109965760405162461bcd60e51b81526004016104f290612163565b5050565b600060039054906101000a90046001600160a01b03166001600160a01b0316634d868f986040518163ffffffff1660e01b815260040160006040518083038186803b1580156109e857600080fd5b505afa1580156109fc573d6000803e3d6000fd5b5050600054604051632104fb0560e21b815233600482015263010000009091046001600160a01b03169250638413ec14915060240160006040518083038186803b158015610a4957600080fd5b505afa158015610a5d573d6000803e3d6000fd5b50506009546001600160a01b031691505080610a8b5760405162461bcd60e51b81526004016104f290612192565b6003548411801590610a9d5750600084115b610ab95760405162461bcd60e51b81526004016104f290612136565b8360036000016000828254610ace919061225b565b909155505060025460095460405163a9059cbb60e01b81526001600160a01b03918216600482015260248101879052600092919091169063a9059cbb90604401602060405180830381600087803b158015610b2857600080fd5b505af1158015610b3c573d6000803e3d6000fd5b505050506040513d601f19601f82011682018060405250810190610b609190611f7e565b905080610b7f5760405162461bcd60e51b81526004016104f290612163565b6009546040517f089ad476ae3c1b2e69d13588d790baaa84babf9b609e0c3e989462a3ec1a9e0091610bc09188916001600160a01b031690889088906121bb565b60405180910390a15050505050565b600060039054906101000a90046001600160a01b03166001600160a01b0316634d868f986040518163ffffffff1660e01b815260040160006040518083038186803b158015610c1d57600080fd5b505afa158015610c31573d6000803e3d6000fd5b5050600054604051632104fb0560e21b815233600482015263010000009091046001600160a01b03169250638413ec14915060240160006040518083038186803b158015610c7e57600080fd5b505afa158015610c92573d6000803e3d6000fd5b5050600d546001600160a01b031691505080610cc05760405162461bcd60e51b81526004016104f290612192565b6007548411801590610cd25750600084115b610cee5760405162461bcd60e51b81526004016104f290612136565b8360036004016000828254610d03919061225b565b9091555050600254600d5460405163a9059cbb60e01b81526001600160a01b03918216600482015260248101879052600092919091169063a9059cbb90604401602060405180830381600087803b158015610d5d57600080fd5b505af1158015610d71573d6000803e3d6000fd5b505050506040513d601f19601f82011682018060405250810190610d959190611f7e565b905080610db45760405162461bcd60e51b81526004016104f290612163565b600d546040517f7751df118e40529fccb7b79395d7eb57ed187628770d2c8bbf20f99263179baa91610bc09188916001600160a01b031690889088906121bb565b600060039054906101000a90046001600160a01b03166001600160a01b0316634d868f986040518163ffffffff1660e01b815260040160006040518083038186803b158015610e4357600080fd5b505afa158015610e57573d6000803e3d6000fd5b5050600054604051632104fb0560e21b815233600482015263010000009091046001600160a01b03169250638413ec14915060240160006040518083038186803b158015610ea457600080fd5b505afa158015610eb8573d6000803e3d6000fd5b5050600e546001600160a01b031691505080610ee65760405162461bcd60e51b81526004016104f290612192565b6008548411801590610ef85750600084115b610f145760405162461bcd60e51b81526004016104f290612136565b8360036005016000828254610f29919061225b565b9091555050600254600e5460405163a9059cbb60e01b81526001600160a01b03918216600482015260248101879052600092919091169063a9059cbb90604401602060405180830381600087803b158015610f8357600080fd5b505af1158015610f97573d6000803e3d6000fd5b505050506040513d601f19601f82011682018060405250810190610fbb9190611f7e565b905080610fda5760405162461bcd60e51b81526004016104f290612163565b600e546040517f05e3bd1cbce052a5979f9a6d81ba06a0981431a3f6623095bc2c2f5f6744f42691610bc09188916001600160a01b031690889088906121bb565b600060039054906101000a90046001600160a01b03166001600160a01b0316634d868f986040518163ffffffff1660e01b815260040160006040518083038186803b15801561106957600080fd5b505afa15801561107d573d6000803e3d6000fd5b5050600054604051632104fb0560e21b815233600482015263010000009091046001600160a01b03169250638413ec14915060240160006040518083038186803b1580156110ca57600080fd5b505afa1580156110de573d6000803e3d6000fd5b5050600b546001600160a01b03169150508061110c5760405162461bcd60e51b81526004016104f290612192565b600554841180159061111e5750600084115b61113a5760405162461bcd60e51b81526004016104f290612136565b836003600201600082825461114f919061225b565b9091555050600254600b5460405163a9059cbb60e01b81526001600160a01b03918216600482015260248101879052600092919091169063a9059cbb90604401602060405180830381600087803b1580156111a957600080fd5b505af11580156111bd573d6000803e3d6000fd5b505050506040513d601f19601f820116820180604052508101906111e19190611f7e565b9050806112005760405162461bcd60e51b81526004016104f290612163565b600b546040517f04d746950c36a30cd172d661d429bb5c5ea99b2f9eb1d8839d7b97e75e20643d91610bc09188916001600160a01b031690889088906121bb565b60005460405163ebe6a6f360e01b815233600482015263010000009091046001600160a01b03169063ebe6a6f39060240160006040518083038186803b15801561128a57600080fd5b505afa15801561129e573d6000803e3d6000fd5b505050506127108461ffff168a6112b5919061223c565b6112bf919061221a565b600580546000906112d1908490612202565b9091555061271090506112e861ffff87168b61223c565b6112f2919061221a565b60048054600090611304908490612202565b90915550612710905061131b61ffff84168b61223c565b611325919061221a565b60078054600090611337908490612202565b90915550612710905061134e61ffff83168b61223c565b611358919061221a565b6008805460009061136a908490612202565b90915550612710905061138161ffff85168b61223c565b61138b919061221a565b6006805460009061139d908490612202565b9091555061271090506113b461ffff88168b61223c565b6113be919061221a565b600380546000906113d0908490612202565b90915550600090506127106113e961ffff8b168c61223c565b6113f3919061221a565b9050600061271061140861ffff8b168d61223c565b611412919061221a565b6002546001549192506000916001600160a01b039182169163a9059cbb911661143b8587612202565b6040516001600160e01b031960e085901b1681526001600160a01b0390921660048301526024820152604401602060405180830381600087803b15801561148157600080fd5b505af1158015611495573d6000803e3d6000fd5b505050506040513d601f19601f820116820180604052508101906114b99190611f7e565b9050806114d85760405162461bcd60e51b81526004016104f290612163565b600154604051634bbcae3360e11b8152600481018f905260248101859052604481018490526001600160a01b03909116906397795c6690606401600060405180830381600087803b15801561152c57600080fd5b505af1158015611540573d6000803e3d6000fd5b505050507f347f488d341632b8f0297fc353e08cc384d9a8c7bb93600a7ede83515b56b9948d8d84866115739190612202565b6040805193845260208401929092529082015260600160405180910390a150505050505050505050505050565b600054604051632104fb0560e21b815233600482015263010000009091046001600160a01b031690638413ec149060240160006040518083038186803b1580156115e957600080fd5b505afa1580156115fd573d6000803e3d6000fd5b5083925050506001600160a01b0381166116295760405162461bcd60e51b81526004016104f290612192565b50600b80546001600160a01b0319166001600160a01b0392909216919091179055565b600054610100900460ff1680611665575060005460ff16155b6116c85760405162461bcd60e51b815260206004820152602e60248201527f496e697469616c697a61626c653a20636f6e747261637420697320616c72656160448201526d191e481a5b9a5d1a585b1a5e995960921b60648201526084016104f2565b600054610100900460ff161580156116ea576000805461ffff19166101011790555b6000829050806001600160a01b031663ba84fd696040518163ffffffff1660e01b815260040160206040518083038186803b15801561172857600080fd5b505afa15801561173c573d6000803e3d6000fd5b505050506040513d601f19601f820116820180604052508101906117609190611f7e565b61176957600080fd5b600080546001600160a01b0390921663010000000262010000600160b81b031990921691909117620100001790558015610996576000805461ff00191690555050565b600054604051632104fb0560e21b815233600482015263010000009091046001600160a01b031690638413ec149060240160006040518083038186803b1580156117f557600080fd5b505afa158015611809573d6000803e3d6000fd5b5083925050506001600160a01b0381166118355760405162461bcd60e51b81526004016104f290612192565b50600980546001600160a01b0319166001600160a01b0392909216919091179055565b600060039054906101000a90046001600160a01b03166001600160a01b0316634d868f986040518163ffffffff1660e01b815260040160006040518083038186803b1580156118a657600080fd5b505afa1580156118ba573d6000803e3d6000fd5b5050600054604051632104fb0560e21b815233600482015263010000009091046001600160a01b03169250638413ec14915060240160006040518083038186803b15801561190757600080fd5b505afa15801561191b573d6000803e3d6000fd5b5050600a546001600160a01b0316915050806119495760405162461bcd60e51b81526004016104f290612192565b600454841180159061195b5750600084115b6119775760405162461bcd60e51b81526004016104f290612136565b836003600101600082825461198c919061225b565b9091555050600254600a5460405163a9059cbb60e01b81526001600160a01b03918216600482015260248101879052600092919091169063a9059cbb90604401602060405180830381600087803b1580156119e657600080fd5b505af11580156119fa573d6000803e3d6000fd5b505050506040513d601f19601f82011682018060405250810190611a1e9190611f7e565b905080611a3d5760405162461bcd60e51b81526004016104f290612163565b600a546040517ff3eae86b7e55a245daebeb81b673beb23720493d02b3a002dfb444e1c3b75bf091610bc09188916001600160a01b031690889088906121bb565b60005460405163ebe6a6f360e01b815233600482015263010000009091046001600160a01b03169063ebe6a6f39060240160006040518083038186803b158015611ac757600080fd5b505afa158015611adb573d6000803e3d6000fd5b505050508560036000016000828254611af49190612202565b909155505060048054869190600090611b0e908490612202565b909155505060058054859190600090611b28908490612202565b909155505060068054849190600090611b42908490612202565b909155505060078054839190600090611b5c908490612202565b909155505060088054829190600090611b76908490612202565b90915550506002546001546000916001600160a01b039081169163a9059cbb9116611ba18b8d612202565b6040516001600160e01b031960e085901b1681526001600160a01b0390921660048301526024820152604401602060405180830381600087803b158015611be757600080fd5b505af1158015611bfb573d6000803e3d6000fd5b505050506040513d601f19601f82011682018060405250810190611c1f9190611f7e565b905080611c3e5760405162461bcd60e51b81526004016104f290612163565b6040517fca28042b42a4dc0e3c83200879ace7424274b60db7de700fddc1a65d227f91fb90600090a1505050505050505050565b600054604051632104fb0560e21b815233600482015263010000009091046001600160a01b031690638413ec149060240160006040518083038186803b158015611cbb57600080fd5b505afa158015611ccf573d6000803e3d6000fd5b5083925050506001600160a01b038116611cfb5760405162461bcd60e51b81526004016104f290612192565b50600280546001600160a01b0319166001600160a01b0392909216919091179055565b600060039054906101000a90046001600160a01b03166001600160a01b0316634d868f986040518163ffffffff1660e01b815260040160006040518083038186803b158015611d6c57600080fd5b505afa158015611d80573d6000803e3d6000fd5b5050600054604051632104fb0560e21b815233600482015263010000009091046001600160a01b03169250638413ec14915060240160006040518083038186803b158015611dcd57600080fd5b505afa158015611de1573d6000803e3d6000fd5b5050600c546001600160a01b031691505080611e0f5760405162461bcd60e51b81526004016104f290612192565b6006548411801590611e215750600084115b611e3d5760405162461bcd60e51b81526004016104f290612136565b83600380016000828254611e51919061225b565b9091555050600254600c5460405163a9059cbb60e01b81526001600160a01b03918216600482015260248101879052600092919091169063a9059cbb90604401602060405180830381600087803b158015611eab57600080fd5b505af1158015611ebf573d6000803e3d6000fd5b505050506040513d601f19601f82011682018060405250810190611ee39190611f7e565b905080611f025760405162461bcd60e51b81526004016104f290612163565b600c546040517fd1a91c319bf356387819b3ae1c850a519beac3eb65916e12b665ad9dce02224391610bc09188916001600160a01b031690889088906121bb565b803561ffff81168114611f5557600080fd5b919050565b600060208284031215611f6c57600080fd5b8135611f7781612288565b9392505050565b600060208284031215611f9057600080fd5b81518015158114611f7757600080fd5b600060208284031215611fb257600080fd5b5035919050565b600080600060408486031215611fce57600080fd5b83359250602084013567ffffffffffffffff80821115611fed57600080fd5b818601915086601f83011261200157600080fd5b81358181111561201057600080fd5b87602082850101111561202257600080fd5b6020830194508093505050509250925092565b6000806000806000806000806000806101408b8d03121561205557600080fd5b8a35995060208b0135985061206c60408c01611f43565b975061207a60608c01611f43565b965061208860808c01611f43565b955061209660a08c01611f43565b94506120a460c08c01611f43565b93506120b260e08c01611f43565b92506120c16101008c01611f43565b91506120d06101208c01611f43565b90509295989b9194979a5092959850565b600080600080600080600080610100898b0312156120fe57600080fd5b505086359860208801359850604088013597606081013597506080810135965060a0810135955060c0810135945060e0013592509050565b6020808252601390820152721a5b9cdd59999a58da595b9d08185b5bdd5b9d606a1b604082015260600190565b6020808252601590820152743ab739bab1b1b2b9b9b33ab6103a3930b739b332b960591b604082015260600190565b6020808252600f908201526e696e76616c6964206164647265737360881b604082015260600190565b8481526001600160a01b03841660208201526060604082018190528101829052818360808301376000818301608090810191909152601f909201601f191601019392505050565b6000821982111561221557612215612272565b500190565b60008261223757634e487b7160e01b600052601260045260246000fd5b500490565b600081600019048311821515161561225657612256612272565b500290565b60008282101561226d5761226d612272565b500390565b634e487b7160e01b600052601160045260246000fd5b6001600160a01b038116811461229d57600080fd5b5056fea2646970667358221220bdcaf7210c94d65afa3ea3a5bef16daf1e790412aa0941e6309d22d7a8d365ee64736f6c63430008060033",
  "immutableReferences": {},
  "source": "// SPDX-License-Identifier: GPL-3.0\n\npragma solidity ^0.8.6;\n\nimport \"@openzeppelin/contracts-upgradeable/utils/CountersUpgradeable.sol\";\nimport \"@openzeppelin/contracts-upgradeable/proxy/utils/Initializable.sol\";\nimport \"@openzeppelin/contracts-upgradeable/token/ERC20/IERC20Upgradeable.sol\";\nimport \"../access/IAccessRestriction.sol\";\nimport \"./IPlanterFund.sol\";\n\n/** @title DaiFund Contract */\ncontract DaiFund is Initializable {\n    /** NOTE {isDaiFund} set inside the initialize to {true} */\n    bool public isDaiFund;\n\n    IAccessRestriction public accessRestriction;\n    IPlanterFund public planterFundContract;\n    IERC20Upgradeable public daiToken;\n\n    /** NOTE {totalBalances} is struct of TotalFund that keep total share of\n     * research, localDevelopment,insurance,treejerDeveop,reserve1\n     * and reserve2\n     */\n    TotalBalances public totalBalances;\n\n    address public researchAddress;\n    address public localDevelopmentAddress;\n    address public insuranceAddress;\n    address public treasuryAddress;\n    address public reserve1Address;\n    address public reserve2Address;\n\n    struct TotalBalances {\n        uint256 research;\n        uint256 localDevelopment;\n        uint256 insurance;\n        uint256 treasury;\n        uint256 reserve1;\n        uint256 reserve2;\n    }\n\n    event ResearchBalanceWithdrew(\n        uint256 amount,\n        address account,\n        string reason\n    );\n    event LocalDevelopmentBalanceWithdrew(\n        uint256 amount,\n        address account,\n        string reason\n    );\n    event InsuranceBalanceWithdrew(\n        uint256 amount,\n        address account,\n        string reason\n    );\n    event TreasuryBalanceWithdrew(\n        uint256 amount,\n        address account,\n        string reason\n    );\n    event Reserve1BalanceWithdrew(\n        uint256 amount,\n        address account,\n        string reason\n    );\n    event Reserve2BalanceWithdrew(\n        uint256 amount,\n        address account,\n        string reason\n    );\n\n    event TreeFunded(uint256 treeId, uint256 amount, uint256 planterPart);\n\n    event TreeFundedBatch();\n\n    /** NOTE modifier to check msg.sender has admin role */\n    modifier onlyAdmin() {\n        accessRestriction.ifAdmin(msg.sender);\n        _;\n    }\n\n    /** NOTE modifier for check if function is not paused*/\n    modifier ifNotPaused() {\n        accessRestriction.ifNotPaused();\n        _;\n    }\n\n    /** NOTE modifier for check msg.sender has TreejerContract role */\n    modifier onlyTreejerContract() {\n        accessRestriction.ifTreejerContract(msg.sender);\n        _;\n    }\n    /** NOTE modifier for check valid address */\n    modifier validAddress(address _address) {\n        require(_address != address(0), \"invalid address\");\n        _;\n    }\n\n    /**\n     * @dev initialize accessRestriction contract and set true for isDaiFund\n     * @param _accessRestrictionAddress set to the address of accessRestriction contract\n     */\n    function initialize(address _accessRestrictionAddress)\n        external\n        initializer\n    {\n        IAccessRestriction candidateContract = IAccessRestriction(\n            _accessRestrictionAddress\n        );\n\n        require(candidateContract.isAccessRestriction());\n\n        isDaiFund = true;\n        accessRestriction = candidateContract;\n    }\n\n    /**\n     * @dev admin set DaiToken address\n     * @param _daiTokenAddress set to the address of DaiToken\n     */\n    function setDaiTokenAddress(address _daiTokenAddress)\n        external\n        onlyAdmin\n        validAddress(_daiTokenAddress)\n    {\n        IERC20Upgradeable candidateContract = IERC20Upgradeable(\n            _daiTokenAddress\n        );\n        daiToken = candidateContract;\n    }\n\n    /**\n     * @dev admin set PlanterFund address\n     * @param _address set to the address of PlanterFund\n     */\n    function setPlanterFundContractAddress(address _address)\n        external\n        onlyAdmin\n    {\n        IPlanterFund candidateContract = IPlanterFund(_address);\n        require(candidateContract.isPlanterFund());\n        planterFundContract = candidateContract;\n    }\n\n    /**\n     * @dev admin set research address to fund\n     * @param _address research address\n     */\n    function setResearchAddress(address payable _address)\n        external\n        onlyAdmin\n        validAddress(_address)\n    {\n        researchAddress = _address;\n    }\n\n    /**\n     * @dev admin set localDevelopment address to fund\n     * @param _address local development address\n     */\n    function setLocalDevelopmentAddress(address payable _address)\n        external\n        onlyAdmin\n        validAddress(_address)\n    {\n        localDevelopmentAddress = _address;\n    }\n\n    /**\n     * @dev admin set insurance address to fund\n     * @param _address insurance fund address\n     */\n    function setInsuranceAddress(address payable _address)\n        external\n        onlyAdmin\n        validAddress(_address)\n    {\n        insuranceAddress = _address;\n    }\n\n    /**\n     * @dev admin set treasury address to fund\n     * @param _address treejer develop address\n     */\n    function setTreasuryAddress(address payable _address)\n        external\n        onlyAdmin\n        validAddress(_address)\n    {\n        treasuryAddress = _address;\n    }\n\n    /**\n     * @dev admin set reserve1 address to fund\n     * @param _address reserve1 address\n     */\n    function setReserve1Address(address payable _address)\n        external\n        onlyAdmin\n        validAddress(_address)\n    {\n        reserve1Address = _address;\n    }\n\n    /**\n     * @dev admin set reserve2 address to fund\n     * @param _address reserve2 address\n     */\n    function setReserve2Address(address payable _address)\n        external\n        onlyAdmin\n        validAddress(_address)\n    {\n        reserve2Address = _address;\n    }\n\n    /**\n     * @dev fund a tree by RegularSale contract and based on allocation data\n     * of tree, shares divide beetwen (planter, ambassador, research,\n     * localDevelopment, insurance, treasury, reserve1 and reserve2)\n     * and added to the totalBalances of each part,\n     * @param _treeId id of a tree to fund\n     * NOTE planter and ambassador share transfer to PlanterFund contract\n     * and add to totalFund section there\n     */\n    function fundTree(\n        uint256 _treeId,\n        uint256 _amount,\n        uint16 _planterShare,\n        uint16 _ambassadorShare,\n        uint16 _researchShare,\n        uint16 _localDevelopmentShare,\n        uint16 _insuranceShare,\n        uint16 _treasuryShare,\n        uint16 _reserve1Share,\n        uint16 _reserve2Share\n    ) external onlyTreejerContract {\n        totalBalances.insurance += (_amount * _insuranceShare) / 10000;\n\n        totalBalances.localDevelopment +=\n            (_amount * _localDevelopmentShare) /\n            10000;\n\n        totalBalances.reserve1 += (_amount * _reserve1Share) / 10000;\n\n        totalBalances.reserve2 += (_amount * _reserve2Share) / 10000;\n\n        totalBalances.treasury += (_amount * _treasuryShare) / 10000;\n\n        totalBalances.research += (_amount * _researchShare) / 10000;\n\n        uint256 planterAmount = (_amount * _planterShare) / 10000;\n        uint256 ambassadorAmount = (_amount * _ambassadorShare) / 10000;\n\n        bool success = daiToken.transfer(\n            address(planterFundContract),\n            planterAmount + ambassadorAmount\n        );\n\n        require(success, \"unsuccessful transfer\");\n\n        planterFundContract.updateProjectedEarnings(\n            _treeId,\n            planterAmount,\n            ambassadorAmount\n        );\n\n        emit TreeFunded(_treeId, _amount, planterAmount + ambassadorAmount);\n    }\n\n    //TODO : ADD_COMMENT\n    function fundTreeBatch(\n        uint256 _totalPlanterAmount,\n        uint256 _totalAmbassadorAmount,\n        uint256 _totalResearch,\n        uint256 _totalLocalDevelopment,\n        uint256 _totalInsurance,\n        uint256 _totalTreasury,\n        uint256 _totalReserve1,\n        uint256 _totalReserve2\n    ) external onlyTreejerContract {\n        totalBalances.research += _totalResearch;\n\n        totalBalances.localDevelopment += _totalLocalDevelopment;\n\n        totalBalances.insurance += _totalInsurance;\n\n        totalBalances.treasury += _totalTreasury;\n\n        totalBalances.reserve1 += _totalReserve1;\n\n        totalBalances.reserve2 += _totalReserve2;\n\n        bool success = daiToken.transfer(\n            address(planterFundContract),\n            _totalPlanterAmount + _totalAmbassadorAmount\n        );\n\n        require(success, \"unsuccessful transfer\");\n\n        emit TreeFundedBatch();\n    }\n\n    //TODO:ADD_COMMENTS\n    function transferReferrerDai(uint256 _amount) external onlyTreejerContract {\n        require(totalBalances.treasury >= _amount, \"Liquidity not enough\");\n\n        totalBalances.treasury -= _amount;\n\n        bool success = daiToken.transfer(address(planterFundContract), _amount);\n\n        require(success, \"unsuccessful transfer\");\n    }\n\n    /**\n     * @dev admin withdraw {_amount} from research totalBalances in case of\n     * valid {_amount}  and daiToken transfer to {researchAddress}\n     * @param _amount amount to withdraw\n     * @param _reason reason to withdraw\n     */\n    function withdrawResearchBalance(uint256 _amount, string calldata _reason)\n        external\n        ifNotPaused\n        onlyAdmin\n        validAddress(researchAddress)\n    {\n        require(\n            _amount <= totalBalances.research && _amount > 0,\n            \"insufficient amount\"\n        );\n\n        totalBalances.research -= _amount;\n\n        bool success = daiToken.transfer(researchAddress, _amount);\n\n        require(success, \"unsuccessful transfer\");\n\n        emit ResearchBalanceWithdrew(_amount, researchAddress, _reason);\n    }\n\n    /**\n     * @dev admin withdraw {_amount} from localDevelopment totalBalances in case of\n     * valid {_amount} and daiToken transfer to {localDevelopmentAddress}\n     * @param _amount amount to withdraw\n     * @param _reason reason to withdraw\n     */\n    function withdrawLocalDevelopmentBalance(\n        uint256 _amount,\n        string calldata _reason\n    ) external ifNotPaused onlyAdmin validAddress(localDevelopmentAddress) {\n        require(\n            _amount <= totalBalances.localDevelopment && _amount > 0,\n            \"insufficient amount\"\n        );\n\n        totalBalances.localDevelopment -= _amount;\n\n        bool success = daiToken.transfer(localDevelopmentAddress, _amount);\n\n        require(success, \"unsuccessful transfer\");\n\n        emit LocalDevelopmentBalanceWithdrew(\n            _amount,\n            localDevelopmentAddress,\n            _reason\n        );\n    }\n\n    /**\n     * @dev admin withdraw {_amount} from insurance totalBalances in case of\n     * valid {_amount} and daiToken transfer to {insuranceAddress}\n     * @param _amount amount to withdraw\n     * @param _reason reason to withdraw\n     */\n    function withdrawInsuranceBalance(uint256 _amount, string calldata _reason)\n        external\n        ifNotPaused\n        onlyAdmin\n        validAddress(insuranceAddress)\n    {\n        require(\n            _amount <= totalBalances.insurance && _amount > 0,\n            \"insufficient amount\"\n        );\n\n        totalBalances.insurance -= _amount;\n\n        bool success = daiToken.transfer(insuranceAddress, _amount);\n\n        require(success, \"unsuccessful transfer\");\n\n        emit InsuranceBalanceWithdrew(_amount, insuranceAddress, _reason);\n    }\n\n    /**\n     * @dev admin withdraw {_amount} from treasury totalBalances in case of\n     * valid {_amount} and daiToken transfer to {treasuryAddress}\n     * @param _amount amount to withdraw\n     * @param _reason reason to withdraw\n     */\n    function withdrawTreasuryBalance(uint256 _amount, string calldata _reason)\n        external\n        ifNotPaused\n        onlyAdmin\n        validAddress(treasuryAddress)\n    {\n        require(\n            _amount <= totalBalances.treasury && _amount > 0,\n            \"insufficient amount\"\n        );\n\n        totalBalances.treasury -= _amount;\n\n        bool success = daiToken.transfer(treasuryAddress, _amount);\n\n        require(success, \"unsuccessful transfer\");\n\n        emit TreasuryBalanceWithdrew(_amount, treasuryAddress, _reason);\n    }\n\n    /**\n     * @dev admin withdraw {_amount} from reserve1 totalBalances in case of\n     * valid {_amount} and daiToken transfer to {reserve1Address}\n     * @param _amount amount to withdraw\n     * @param _reason reason to withdraw\n     */\n    function withdrawReserve1Balance(uint256 _amount, string calldata _reason)\n        external\n        ifNotPaused\n        onlyAdmin\n        validAddress(reserve1Address)\n    {\n        require(\n            _amount <= totalBalances.reserve1 && _amount > 0,\n            \"insufficient amount\"\n        );\n\n        totalBalances.reserve1 -= _amount;\n\n        bool success = daiToken.transfer(reserve1Address, _amount);\n\n        require(success, \"unsuccessful transfer\");\n\n        emit Reserve1BalanceWithdrew(_amount, reserve1Address, _reason);\n    }\n\n    /**\n     * @dev admin withdraw {_amount} from reserve2 totalBalances in case of\n     * valid {_amount} and daiToken transfer to {reserve2Address}\n     * @param _amount amount to withdraw\n     * @param _reason reason to withdraw\n     */\n    function withdrawReserve2Balance(uint256 _amount, string calldata _reason)\n        external\n        ifNotPaused\n        onlyAdmin\n        validAddress(reserve2Address)\n    {\n        require(\n            _amount <= totalBalances.reserve2 && _amount > 0,\n            \"insufficient amount\"\n        );\n\n        totalBalances.reserve2 -= _amount;\n\n        bool success = daiToken.transfer(reserve2Address, _amount);\n\n        require(success, \"unsuccessful transfer\");\n\n        emit Reserve2BalanceWithdrew(_amount, reserve2Address, _reason);\n    }\n}\n",
  "sourcePath": "/media/ali/New Volume/treejer/contract/contracts/treasury/DaiFund.sol",
  "compiler": {
    "name": "solc",
    "version": "0.8.6+commit.11564f7e.Emscripten.clang"
  },
  "schemaVersion": "3.4.1",
  "updatedAt": "2021-10-12T15:07:51.412Z",
  "networkType": "ethereum",
  "devdoc": {
    "kind": "dev",
    "methods": {
      "fundTree(uint256,uint256,uint16,uint16,uint16,uint16,uint16,uint16,uint16,uint16)": {
        "details": "fund a tree by RegularSale contract and based on allocation data of tree, shares divide beetwen (planter, ambassador, research, localDevelopment, insurance, treasury, reserve1 and reserve2) and added to the totalBalances of each part,",
        "params": {
          "_treeId": "id of a tree to fund NOTE planter and ambassador share transfer to PlanterFund contract and add to totalFund section there"
        }
      },
      "initialize(address)": {
        "details": "initialize accessRestriction contract and set true for isDaiFund",
        "params": {
          "_accessRestrictionAddress": "set to the address of accessRestriction contract"
        }
      },
      "setDaiTokenAddress(address)": {
        "details": "admin set DaiToken address",
        "params": {
          "_daiTokenAddress": "set to the address of DaiToken"
        }
      },
      "setInsuranceAddress(address)": {
        "details": "admin set insurance address to fund",
        "params": {
          "_address": "insurance fund address"
        }
      },
      "setLocalDevelopmentAddress(address)": {
        "details": "admin set localDevelopment address to fund",
        "params": {
          "_address": "local development address"
        }
      },
      "setPlanterFundContractAddress(address)": {
        "details": "admin set PlanterFund address",
        "params": {
          "_address": "set to the address of PlanterFund"
        }
      },
      "setResearchAddress(address)": {
        "details": "admin set research address to fund",
        "params": {
          "_address": "research address"
        }
      },
      "setReserve1Address(address)": {
        "details": "admin set reserve1 address to fund",
        "params": {
          "_address": "reserve1 address"
        }
      },
      "setReserve2Address(address)": {
        "details": "admin set reserve2 address to fund",
        "params": {
          "_address": "reserve2 address"
        }
      },
      "setTreasuryAddress(address)": {
        "details": "admin set treasury address to fund",
        "params": {
          "_address": "treejer develop address"
        }
      },
      "withdrawInsuranceBalance(uint256,string)": {
        "details": "admin withdraw {_amount} from insurance totalBalances in case of valid {_amount} and daiToken transfer to {insuranceAddress}",
        "params": {
          "_amount": "amount to withdraw",
          "_reason": "reason to withdraw"
        }
      },
      "withdrawLocalDevelopmentBalance(uint256,string)": {
        "details": "admin withdraw {_amount} from localDevelopment totalBalances in case of valid {_amount} and daiToken transfer to {localDevelopmentAddress}",
        "params": {
          "_amount": "amount to withdraw",
          "_reason": "reason to withdraw"
        }
      },
      "withdrawResearchBalance(uint256,string)": {
        "details": "admin withdraw {_amount} from research totalBalances in case of valid {_amount}  and daiToken transfer to {researchAddress}",
        "params": {
          "_amount": "amount to withdraw",
          "_reason": "reason to withdraw"
        }
      },
      "withdrawReserve1Balance(uint256,string)": {
        "details": "admin withdraw {_amount} from reserve1 totalBalances in case of valid {_amount} and daiToken transfer to {reserve1Address}",
        "params": {
          "_amount": "amount to withdraw",
          "_reason": "reason to withdraw"
        }
      },
      "withdrawReserve2Balance(uint256,string)": {
        "details": "admin withdraw {_amount} from reserve2 totalBalances in case of valid {_amount} and daiToken transfer to {reserve2Address}",
        "params": {
          "_amount": "amount to withdraw",
          "_reason": "reason to withdraw"
        }
      },
      "withdrawTreasuryBalance(uint256,string)": {
        "details": "admin withdraw {_amount} from treasury totalBalances in case of valid {_amount} and daiToken transfer to {treasuryAddress}",
        "params": {
          "_amount": "amount to withdraw",
          "_reason": "reason to withdraw"
        }
      }
    },
    "title": "DaiFund Contract ",
    "version": 1
  },
  "userdoc": {
    "kind": "user",
    "methods": {
      "isDaiFund()": {
        "notice": "NOTE {isDaiFund} set inside the initialize to {true} "
      },
      "totalBalances()": {
        "notice": "NOTE {totalBalances} is struct of TotalFund that keep total share of research, localDevelopment,insurance,treejerDeveop,reserve1 and reserve2"
      }
    },
    "version": 1
  }
}