{
  "contractName": "HonoraryTree",
  "abi": [
    {
      "anonymous": false,
      "inputs": [
        {
          "indexed": false,
          "internalType": "address",
          "name": "recipient",
          "type": "address"
        }
      ],
      "name": "ClaimFailed",
      "type": "event"
    },
    {
      "anonymous": false,
      "inputs": [
        {
          "indexed": false,
          "internalType": "uint256",
          "name": "treeId",
          "type": "uint256"
        }
      ],
      "name": "Claimed",
      "type": "event"
    },
    {
      "anonymous": false,
      "inputs": [
        {
          "indexed": false,
          "internalType": "address",
          "name": "recipient",
          "type": "address"
        }
      ],
      "name": "RecipientAdded",
      "type": "event"
    },
    {
      "anonymous": false,
      "inputs": [
        {
          "indexed": false,
          "internalType": "address",
          "name": "recipient",
          "type": "address"
        }
      ],
      "name": "RecipientUpdated",
      "type": "event"
    },
    {
      "anonymous": false,
      "inputs": [
        {
          "indexed": false,
          "internalType": "uint256",
          "name": "referralTreePaymentToPlanter",
          "type": "uint256"
        },
        {
          "indexed": false,
          "internalType": "uint256",
          "name": "referralTreePaymentToAmbassador",
          "type": "uint256"
        }
      ],
      "name": "ReferralTreePaymentsUpdated",
      "type": "event"
    },
    {
      "anonymous": false,
      "inputs": [],
      "name": "TreeRangeReleased",
      "type": "event"
    },
    {
      "anonymous": false,
      "inputs": [],
      "name": "TreeRangeSet",
      "type": "event"
    },
    {
      "inputs": [],
      "name": "accessRestriction",
      "outputs": [
        {
          "internalType": "contract IAccessRestriction",
          "name": "",
          "type": "address"
        }
      ],
      "stateMutability": "view",
      "type": "function",
      "constant": true
    },
    {
      "inputs": [],
      "name": "attribute",
      "outputs": [
        {
          "internalType": "contract IAttribute",
          "name": "",
          "type": "address"
        }
      ],
      "stateMutability": "view",
      "type": "function",
      "constant": true
    },
    {
      "inputs": [],
      "name": "claimedCount",
      "outputs": [
        {
          "internalType": "uint256",
          "name": "",
          "type": "uint256"
        }
      ],
      "stateMutability": "view",
      "type": "function",
      "constant": true
    },
    {
      "inputs": [],
      "name": "currentTreeId",
      "outputs": [
        {
          "internalType": "uint256",
          "name": "",
          "type": "uint256"
        }
      ],
      "stateMutability": "view",
      "type": "function",
      "constant": true
    },
    {
      "inputs": [],
      "name": "daiToken",
      "outputs": [
        {
          "internalType": "contract IERC20Upgradeable",
          "name": "",
          "type": "address"
        }
      ],
      "stateMutability": "view",
      "type": "function",
      "constant": true
    },
    {
      "inputs": [],
      "name": "isHonoraryTree",
      "outputs": [
        {
          "internalType": "bool",
          "name": "",
          "type": "bool"
        }
      ],
      "stateMutability": "view",
      "type": "function",
      "constant": true
    },
    {
      "inputs": [
        {
          "internalType": "address",
          "name": "forwarder",
          "type": "address"
        }
      ],
      "name": "isTrustedForwarder",
      "outputs": [
        {
          "internalType": "bool",
          "name": "",
          "type": "bool"
        }
      ],
      "stateMutability": "view",
      "type": "function",
      "constant": true
    },
    {
      "inputs": [],
      "name": "planterFundContract",
      "outputs": [
        {
          "internalType": "contract IPlanterFund",
          "name": "",
          "type": "address"
        }
      ],
      "stateMutability": "view",
      "type": "function",
      "constant": true
    },
    {
      "inputs": [],
      "name": "prePaidTreeCount",
      "outputs": [
        {
          "internalType": "uint256",
          "name": "",
          "type": "uint256"
        }
      ],
      "stateMutability": "view",
      "type": "function",
      "constant": true
    },
    {
      "inputs": [
        {
          "internalType": "address",
          "name": "",
          "type": "address"
        }
      ],
      "name": "recipients",
      "outputs": [
        {
          "internalType": "uint64",
          "name": "expiryDate",
          "type": "uint64"
        },
        {
          "internalType": "uint64",
          "name": "startDate",
          "type": "uint64"
        },
        {
          "internalType": "uint64",
          "name": "status",
          "type": "uint64"
        }
      ],
      "stateMutability": "view",
      "type": "function",
      "constant": true
    },
    {
      "inputs": [],
      "name": "referralTreePaymentToAmbassador",
      "outputs": [
        {
          "internalType": "uint256",
          "name": "",
          "type": "uint256"
        }
      ],
      "stateMutability": "view",
      "type": "function",
      "constant": true
    },
    {
      "inputs": [],
      "name": "referralTreePaymentToPlanter",
      "outputs": [
        {
          "internalType": "uint256",
          "name": "",
          "type": "uint256"
        }
      ],
      "stateMutability": "view",
      "type": "function",
      "constant": true
    },
    {
      "inputs": [
        {
          "internalType": "uint256",
          "name": "",
          "type": "uint256"
        }
      ],
      "name": "symbols",
      "outputs": [
        {
          "internalType": "uint64",
          "name": "",
          "type": "uint64"
        }
      ],
      "stateMutability": "view",
      "type": "function",
      "constant": true
    },
    {
      "inputs": [],
      "name": "treeFactory",
      "outputs": [
        {
          "internalType": "contract ITreeFactory",
          "name": "",
          "type": "address"
        }
      ],
      "stateMutability": "view",
      "type": "function",
      "constant": true
    },
    {
      "inputs": [],
      "name": "trustedForwarder",
      "outputs": [
        {
          "internalType": "address",
          "name": "",
          "type": "address"
        }
      ],
      "stateMutability": "view",
      "type": "function",
      "constant": true
    },
    {
      "inputs": [],
      "name": "upTo",
      "outputs": [
        {
          "internalType": "uint256",
          "name": "",
          "type": "uint256"
        }
      ],
      "stateMutability": "view",
      "type": "function",
      "constant": true
    },
    {
      "inputs": [
        {
          "internalType": "uint256",
          "name": "",
          "type": "uint256"
        }
      ],
      "name": "used",
      "outputs": [
        {
          "internalType": "bool",
          "name": "",
          "type": "bool"
        }
      ],
      "stateMutability": "view",
      "type": "function",
      "constant": true
    },
    {
      "inputs": [],
      "name": "versionRecipient",
      "outputs": [
        {
          "internalType": "string",
          "name": "",
          "type": "string"
        }
      ],
      "stateMutability": "pure",
      "type": "function",
      "constant": true
    },
    {
      "inputs": [
        {
          "internalType": "address",
          "name": "_accessRestrictionAddress",
          "type": "address"
        },
        {
          "internalType": "uint256",
          "name": "_referralTreePaymentToPlanter",
          "type": "uint256"
        },
        {
          "internalType": "uint256",
          "name": "_referralTreePaymentToAmbassador",
          "type": "uint256"
        }
      ],
      "name": "initialize",
      "outputs": [],
      "stateMutability": "nonpayable",
      "type": "function"
    },
    {
      "inputs": [
        {
          "internalType": "address",
          "name": "_address",
          "type": "address"
        }
      ],
      "name": "setTrustedForwarder",
      "outputs": [],
      "stateMutability": "nonpayable",
      "type": "function"
    },
    {
      "inputs": [
        {
          "internalType": "address",
          "name": "_daiTokenAddress",
          "type": "address"
        }
      ],
      "name": "setDaiTokenAddress",
      "outputs": [],
      "stateMutability": "nonpayable",
      "type": "function"
    },
    {
      "inputs": [
        {
          "internalType": "address",
          "name": "_address",
          "type": "address"
        }
      ],
      "name": "setAttributesAddress",
      "outputs": [],
      "stateMutability": "nonpayable",
      "type": "function"
    },
    {
      "inputs": [
        {
          "internalType": "address",
          "name": "_address",
          "type": "address"
        }
      ],
      "name": "setTreeFactoryAddress",
      "outputs": [],
      "stateMutability": "nonpayable",
      "type": "function"
    },
    {
      "inputs": [
        {
          "internalType": "address",
          "name": "_address",
          "type": "address"
        }
      ],
      "name": "setPlanterFundAddress",
      "outputs": [],
      "stateMutability": "nonpayable",
      "type": "function"
    },
    {
      "inputs": [
        {
          "internalType": "address",
          "name": "_sponsor",
          "type": "address"
        },
        {
          "internalType": "uint256",
          "name": "_startTreeId",
          "type": "uint256"
        },
        {
          "internalType": "uint256",
          "name": "_upTo",
          "type": "uint256"
        }
      ],
      "name": "setTreeRange",
      "outputs": [],
      "stateMutability": "nonpayable",
      "type": "function"
    },
    {
      "inputs": [],
      "name": "releaseTreeRange",
      "outputs": [],
      "stateMutability": "nonpayable",
      "type": "function"
    },
    {
      "inputs": [
        {
          "internalType": "uint64",
          "name": "_uniquenessFactor",
          "type": "uint64"
        }
      ],
      "name": "reserveSymbol",
      "outputs": [],
      "stateMutability": "nonpayable",
      "type": "function"
    },
    {
      "inputs": [],
      "name": "releaseReservedSymbol",
      "outputs": [],
      "stateMutability": "nonpayable",
      "type": "function"
    },
    {
      "inputs": [
        {
          "internalType": "address",
          "name": "_recipient",
          "type": "address"
        },
        {
          "internalType": "uint64",
          "name": "_startDate",
          "type": "uint64"
        },
        {
          "internalType": "uint64",
          "name": "_expiryDate",
          "type": "uint64"
        }
      ],
      "name": "addRecipient",
      "outputs": [],
      "stateMutability": "nonpayable",
      "type": "function"
    },
    {
      "inputs": [
        {
          "internalType": "address",
          "name": "_recipient",
          "type": "address"
        },
        {
          "internalType": "uint64",
          "name": "_startDate",
          "type": "uint64"
        },
        {
          "internalType": "uint64",
          "name": "_expiryDate",
          "type": "uint64"
        }
      ],
      "name": "updateRecipient",
      "outputs": [],
      "stateMutability": "nonpayable",
      "type": "function"
    },
    {
      "inputs": [
        {
          "internalType": "uint256",
          "name": "_referralTreePaymentToPlanter",
          "type": "uint256"
        },
        {
          "internalType": "uint256",
          "name": "_referralTreePaymentToAmbassador",
          "type": "uint256"
        }
      ],
      "name": "updateReferralTreePayments",
      "outputs": [],
      "stateMutability": "nonpayable",
      "type": "function"
    },
    {
      "inputs": [],
      "name": "claim",
      "outputs": [],
      "stateMutability": "nonpayable",
      "type": "function"
    }
  ],
  "bytecode": "0x608060405234801561001057600080fd5b5061218b806100206000396000f3fe608060405234801561001057600080fd5b50600436106101f05760003560e01c806380d663ea1161010f578063ccce413b116100a2578063eb82031211610071578063eb82031214610457578063edfd5eff146104c0578063f1326b15146104c9578063fc58f0b3146104dc57600080fd5b8063ccce413b146103f3578063d32965861461041e578063d6762c4a14610431578063da7422281461044457600080fd5b8063be22f546116100de578063be22f546146103b1578063c08fa1a4146103c4578063c96bd9ee146103cd578063cc683117146103e057600080fd5b806380d663ea146103795780639b7a668d1461038c5780639bcc7f8e1461039f578063a44ad586146103a857600080fd5b8063421ef6d4116101875780634e71d92d116101565780634e71d92d1461031d578063572b6c05146103255780637a1ac61e1461034d5780637da0a8771461036057600080fd5b8063421ef6d4146102a5578063486ff0cd146102b85780634ad07f9e146102f75780634e559b851461030a57600080fd5b8063122b8af7116101c3578063122b8af71461025257806314b42c771461025f578063227329581461028a578063394386601461029257600080fd5b8063020fe6e5146101f55780630467db2e1461021d5780630bf351f8146102345780631004c6a614610249575b600080fd5b610208610203366004611f0f565b6104e4565b60405190151581526020015b60405180910390f35b610226600f5481565b604051908152602001610214565b610247610242366004611e1c565b610518565b005b610226600b5481565b6009546102089060ff1681565b600454610272906001600160a01b031681565b6040516001600160a01b039091168152602001610214565b61024761062a565b6102476102a0366004611f4a565b6107c1565b600254610272906001600160a01b031681565b604080518082018252601d81527f322e322e302b747265656a65722e6972656c6179726563697069656e74000000602082015290516102149190611f84565b610247610305366004611e1c565b610940565b610247610318366004611e71565b610a52565b610247610ba8565b610208610333366004611e1c565b6000546201000090046001600160a01b0390811691161490565b61024761035b366004611e3e565b611295565b600054610272906201000090046001600160a01b031681565b600354610272906001600160a01b031681565b61024761039a366004611e71565b611403565b610226600c5481565b610226600e5481565b600554610272906001600160a01b031681565b610226600a5481565b6102476103db366004611e1c565b6114fb565b6102476103ee366004611e3e565b61160d565b610406610401366004611f0f565b61195b565b6040516001600160401b039091168152602001610214565b61024761042c366004611f28565b611998565b600154610272906001600160a01b031681565b610247610452366004611e1c565b611a4f565b610496610465366004611e1c565b6006602052600090815260409020546001600160401b0380821691600160401b8104821691600160801b9091041683565b604080516001600160401b0394851681529284166020840152921691810191909152606001610214565b610226600d5481565b6102476104d7366004611e1c565b611b34565b610247611c11565b600881815481106104f457600080fd5b9060005260206000209060209182820401919006915054906101000a900460ff1681565b6001546001600160a01b0316638413ec14610531611d4d565b6040516001600160e01b031960e084901b1681526001600160a01b03909116600482015260240160006040518083038186803b15801561057057600080fd5b505afa158015610584573d6000803e3d6000fd5b505050506000819050806001600160a01b031663e0eb4eb96040518163ffffffff1660e01b815260040160206040518083038186803b1580156105c657600080fd5b505afa1580156105da573d6000803e3d6000fd5b505050506040513d601f19601f820116820180604052508101906105fe9190611eba565b61060757600080fd5b600280546001600160a01b0319166001600160a01b039290921691909117905550565b6001546001600160a01b031663c4d2a31b610643611d4d565b6040516001600160e01b031960e084901b1681526001600160a01b03909116600482015260240160006040518083038186803b15801561068257600080fd5b505afa158015610696573d6000803e3d6000fd5b5050505060005b6007548110156107a157600881815481106106ba576106ba61212a565b90600052602060002090602091828204019190069054906101000a900460ff1661078f57600454600780546001600160a01b039092169163699597149190849081106107085761070861212a565b90600052602060002090600491828204019190066008029054906101000a90046001600160401b03166040518263ffffffff1660e01b815260040161075c91906001600160401b0391909116815260200190565b600060405180830381600087803b15801561077657600080fd5b505af115801561078a573d6000803e3d6000fd5b505050505b80610799816120ba565b91505061069d565b506107ae60076000611d87565b6107ba60086000611daf565b6000600a55565b6001546001600160a01b031663c4d2a31b6107da611d4d565b6040516001600160e01b031960e084901b1681526001600160a01b03909116600482015260240160006040518083038186803b15801561081957600080fd5b505afa15801561082d573d6000803e3d6000fd5b5050600480546040516301ca1c3360e51b81526001600160401b038616928101929092526001600160a01b0316925063394386609150602401600060405180830381600087803b15801561088057600080fd5b505af1158015610894573d6000803e3d6000fd5b5050600780546001818101909255600481047fa66cc928b5edb82af9bd49922954155ab7b0942694bea4ce44661d9a8736c6880180546001600160401b0396871660086003909416840261010090810a918202989091021990911696909617905580549182018155600052602081047ff3f7a9fe364faab93b216da50a3214154f22a0a2b415b23a84c8169e8b636ee301805460ff601f90931690950a91909102199093169092555050565b6001546001600160a01b0316638413ec14610959611d4d565b6040516001600160e01b031960e084901b1681526001600160a01b03909116600482015260240160006040518083038186803b15801561099857600080fd5b505afa1580156109ac573d6000803e3d6000fd5b505050506000819050806001600160a01b031663349904da6040518163ffffffff1660e01b815260040160206040518083038186803b1580156109ee57600080fd5b505afa158015610a02573d6000803e3d6000fd5b505050506040513d601f19601f82011682018060405250810190610a269190611eba565b610a2f57600080fd5b600380546001600160a01b0319166001600160a01b039290921691909117905550565b6001546001600160a01b031663c4d2a31b610a6b611d4d565b6040516001600160e01b031960e084901b1681526001600160a01b03909116600482015260240160006040518083038186803b158015610aaa57600080fd5b505afa158015610abe573d6000803e3d6000fd5b505050506001600160a01b03831660009081526006602052604090208054600160801b90046001600160401b0316600114610b355760405162461bcd60e51b8152602060048201526012602482015271537461747573206d757374206265206f6e6560701b60448201526064015b60405180910390fd5b80546001600160401b03848116600160401b026001600160801b0319909216908416171781556040517f566f16f5ede69bb6f837d5da3a6cf41c863ba95621d677ff3c931aa687da646690610b9a9086906001600160a01b0391909116815260200190565b60405180910390a150505050565b600060066000610bb6611d4d565b6001600160a01b0316815260208101919091526040016000208054909150426001600160401b03909116118015610bfe5750805442600160401b9091046001600160401b0316105b8015610c1b57508054600160801b90046001600160401b03166001145b610c5d5760405162461bcd60e51b8152602060048201526013602482015272796f752063616e7420636c61696d207472656560681b6044820152606401610b2c565b600c54600b5410610caa5760405162461bcd60e51b8152602060048201526017602482015276747265657320617265206e6f7420617661696c61626c6560481b6044820152606401610b2c565b600754600a5410610cfd5760405162461bcd60e51b815260206004820152601960248201527f6e6f2073796d626f6c2065786973747320666f722067696674000000000000006044820152606401610b2c565b8054600b546040516000928392610d30926001600160401b0380841693600160401b900416918591369190602001611fd9565b6040516020818303038152906040528051906020012060001c905060008060008060005b600754811015610fab57600a54600754610d6e91906120a3565b935060008411610d7f576000610d89565b610d8984876120d5565b92506000915060005b600754811015610f8d5760088181548110610daf57610daf61212a565b90600052602060002090602091828204019190069054906101000a900460ff16610f7b5783831415610f6d576001600a6000828254610dee919061202d565b92505081905550600160088281548110610e0a57610e0a61212a565b90600052602060002090602091828204019190066101000a81548160ff0219169083151502179055506000600460009054906101000a90046001600160a01b03166001600160a01b031663697d198a60078481548110610e6c57610e6c61212a565b90600052602060002090600491828204019190066008029054906101000a90046001600160401b03166040518263ffffffff1660e01b8152600401610ec091906001600160401b0391909116815260200190565b604080518083038186803b158015610ed757600080fd5b505afa158015610eeb573d6000803e3d6000fd5b505050506040513d601f19601f82011682018060405250810190610f0f9190611edc565b915050806001600160801b031660011415610f675760078281548110610f3757610f3761212a565b90600052602060002090600491828204019190066008029054906101000a90046001600160401b03169650600198505b50610f8d565b610f7860018461202d565b92505b80610f85816120ba565b915050610d92565b508615610f9957610fab565b80610fa3816120ba565b915050610d54565b5085156112475760048054600b5460405163f254ab8f60e01b8152928301526001600160401b03871660248301526000916001600160a01b039091169063f254ab8f90604401602060405180830381600087803b15801561100b57600080fd5b505af115801561101f573d6000803e3d6000fd5b505050506040513d601f19601f820116820180604052508101906110439190611f67565b60048054600b54604051626ab52160e01b8152928301526001600160401b03808416602484015288166044830152601260648301529192506001600160a01b0390911690626ab52190608401600060405180830381600087803b1580156110a957600080fd5b505af11580156110bd573d6000803e3d6000fd5b5050600354600b54600e54600f54604051634bbcae3360e11b81526001600160a01b0390941695506397795c669450611109936004019283526020830191909152604082015260600190565b600060405180830381600087803b15801561112357600080fd5b505af1158015611137573d6000803e3d6000fd5b5050600254600b546001600160a01b039091169250639c8446f7915061115b611d4d565b6040516001600160e01b031960e085901b16815260048101929092526001600160a01b03166024820152604401600060405180830381600087803b1580156111a257600080fd5b505af11580156111b6573d6000803e3d6000fd5b505050507f7a355715549cfe7c1cba26304350343fbddc4b4f72d3ce3e7c27117dd20b5cb8600b546040516111ed91815260200190565b60405180910390a16001600b6000828254611208919061202d565b9091555060069050600061121a611d4d565b6001600160a01b03168152602081019190915260400160002080546001600160c01b03191690555061128c565b7f7775c359eeb62b3e10c2488776894ac2cd9716a42dd7c174198f6c653bf293b0611270611d4d565b6040516001600160a01b03909116815260200160405180910390a15b50505050505050565b600054610100900460ff16806112ae575060005460ff16155b6113115760405162461bcd60e51b815260206004820152602e60248201527f496e697469616c697a61626c653a20636f6e747261637420697320616c72656160448201526d191e481a5b9a5d1a585b1a5e995960921b6064820152608401610b2c565b600054610100900460ff16158015611333576000805461ffff19166101011790555b6000849050806001600160a01b031663ba84fd696040518163ffffffff1660e01b815260040160206040518083038186803b15801561137157600080fd5b505afa158015611385573d6000803e3d6000fd5b505050506040513d601f19601f820116820180604052508101906113a99190611eba565b6113b257600080fd5b6009805460ff1916600190811790915580546001600160a01b039092166001600160a01b0319909216919091179055600e839055600f82905580156113fd576000805461ff00191690555b50505050565b6001546001600160a01b031663c4d2a31b61141c611d4d565b6040516001600160e01b031960e084901b1681526001600160a01b03909116600482015260240160006040518083038186803b15801561145b57600080fd5b505afa15801561146f573d6000803e3d6000fd5b505050506001600160a01b038316600081815260066020908152604091829020805467ffffffffffffffff60801b196001600160401b03888116600160401b026001600160801b0319909316908816179190911716600160801b178155915192835290917f4205b1cf2b33c8147cc02b8fb0c9d3ff098218a686b0dd94b1e35d3c3968ad8c9101610b9a565b6001546001600160a01b0316638413ec14611514611d4d565b6040516001600160e01b031960e084901b1681526001600160a01b03909116600482015260240160006040518083038186803b15801561155357600080fd5b505afa158015611567573d6000803e3d6000fd5b505050506000819050806001600160a01b03166313e939e26040518163ffffffff1660e01b815260040160206040518083038186803b1580156115a957600080fd5b505afa1580156115bd573d6000803e3d6000fd5b505050506040513d601f19601f820116820180604052508101906115e19190611eba565b6115ea57600080fd5b600480546001600160a01b0319166001600160a01b039290921691909117905550565b6001546001600160a01b031663c4d2a31b611626611d4d565b6040516001600160e01b031960e084901b1681526001600160a01b03909116600482015260240160006040518083038186803b15801561166557600080fd5b505afa158015611679573d6000803e3d6000fd5b505050508181116116bc5760405162461bcd60e51b815260206004820152600d60248201526c696e76616c69642072616e676560981b6044820152606401610b2c565b600b54600c54146117055760405162461bcd60e51b815260206004820152601360248201527263616e742073657420676966742072616e676560681b6044820152606401610b2c565b600254604051631a96348b60e21b81526004810184905260248101839052600560448201526000916001600160a01b031690636a58d22c90606401602060405180830381600087803b15801561175a57600080fd5b505af115801561176e573d6000803e3d6000fd5b505050506040513d601f19601f820116820180604052508101906117929190611eba565b9050806117db5760405162461bcd60e51b8152602060048201526017602482015276747265657320617265206e6f7420617661696c61626c6560481b6044820152606401610b2c565b600b839055600c829055600d546000906117f585856120a3565b6117ff9190612064565b9050600081131561191e57600554600354600f54600e546000936001600160a01b03908116936323b872dd938b93919092169161183b9161202d565b6118459087612045565b6040516001600160e01b031960e086901b1681526001600160a01b0393841660048201529290911660248301526044820152606401602060405180830381600087803b15801561189457600080fd5b505af11580156118a8573d6000803e3d6000fd5b505050506040513d601f19601f820116820180604052508101906118cc9190611eba565b9050806119135760405162461bcd60e51b81526020600482015260156024820152743ab739bab1b1b2b9b9b33ab6103a3930b739b332b960591b6044820152606401610b2c565b506000600d5561192b565b611927816120f7565b600d555b6040517fc9031ecd887a5f98093af869339839394c711bc2c7e97d772871573e6bfcf3c490600090a15050505050565b6007818154811061196b57600080fd5b9060005260206000209060049182820401919006600802915054906101000a90046001600160401b031681565b6001546001600160a01b031663c4d2a31b6119b1611d4d565b6040516001600160e01b031960e084901b1681526001600160a01b03909116600482015260240160006040518083038186803b1580156119f057600080fd5b505afa158015611a04573d6000803e3d6000fd5b505050600e83905550600f81905560408051838152602081018390527f5b6d2659e778550dfa407ecbaeb9c5f6287669ec10120c7a828fbdd8303e8211910160405180910390a15050565b6001546001600160a01b0316638413ec14611a68611d4d565b6040516001600160e01b031960e084901b1681526001600160a01b03909116600482015260240160006040518083038186803b158015611aa757600080fd5b505afa158015611abb573d6000803e3d6000fd5b5083925050506001600160a01b038116611b095760405162461bcd60e51b815260206004820152600f60248201526e696e76616c6964206164647265737360881b6044820152606401610b2c565b50600080546001600160a01b03909216620100000262010000600160b01b0319909216919091179055565b6001546001600160a01b0316638413ec14611b4d611d4d565b6040516001600160e01b031960e084901b1681526001600160a01b03909116600482015260240160006040518083038186803b158015611b8c57600080fd5b505afa158015611ba0573d6000803e3d6000fd5b5083925050506001600160a01b038116611bee5760405162461bcd60e51b815260206004820152600f60248201526e696e76616c6964206164647265737360881b6044820152606401610b2c565b50600580546001600160a01b0319166001600160a01b0392909216919091179055565b6001546001600160a01b031663c4d2a31b611c2a611d4d565b6040516001600160e01b031960e084901b1681526001600160a01b03909116600482015260240160006040518083038186803b158015611c6957600080fd5b505afa158015611c7d573d6000803e3d6000fd5b5050600254600b54600c5460405163713507bb60e01b815260048101929092526024820152600560448201526001600160a01b03909116925063713507bb9150606401600060405180830381600087803b158015611cda57600080fd5b505af1158015611cee573d6000803e3d6000fd5b50505050600b54600c54611d0291906120a3565b600d6000828254611d13919061202d565b90915550506000600c819055600b8190556040517f09f678b09876e063b84d1369e13740a31323102932bd652f29894ce76dfdfcaf9190a1565b600060143610801590611d7057506000546201000090046001600160a01b031633145b15611d82575060131936013560601c90565b503390565b508054600082556003016004900490600052602060002090810190611dac9190611dd0565b50565b50805460008255601f016020900490600052602060002090810190611dac91905b5b80821115611de55760008155600101611dd1565b5090565b80356001600160a01b0381168114611e0057600080fd5b919050565b80516001600160801b0381168114611e0057600080fd5b600060208284031215611e2e57600080fd5b611e3782611de9565b9392505050565b600080600060608486031215611e5357600080fd5b611e5c84611de9565b95602085013595506040909401359392505050565b600080600060608486031215611e8657600080fd5b611e8f84611de9565b92506020840135611e9f81612140565b91506040840135611eaf81612140565b809150509250925092565b600060208284031215611ecc57600080fd5b81518015158114611e3757600080fd5b60008060408385031215611eef57600080fd5b611ef883611e05565b9150611f0660208401611e05565b90509250929050565b600060208284031215611f2157600080fd5b5035919050565b60008060408385031215611f3b57600080fd5b50508035926020909101359150565b600060208284031215611f5c57600080fd5b8135611e3781612140565b600060208284031215611f7957600080fd5b8151611e3781612140565b600060208083528351808285015260005b81811015611fb157858101830151858201604001528201611f95565b81811115611fc3576000604083870101525b50601f01601f1916929092016040019392505050565b60006001600160401b03808816835280871660208401525060806040830152836080830152838560a0840137600060a0858401015260a0601f19601f86011683010190508260608301529695505050505050565b6000821982111561204057612040612114565b500190565b600081600019048311821515161561205f5761205f612114565b500290565b60008083128015600160ff1b85018412161561208257612082612114565b6001600160ff1b038401831381161561209d5761209d612114565b50500390565b6000828210156120b5576120b5612114565b500390565b60006000198214156120ce576120ce612114565b5060010190565b6000826120f257634e487b7160e01b600052601260045260246000fd5b500690565b6000600160ff1b82141561210d5761210d612114565b5060000390565b634e487b7160e01b600052601160045260246000fd5b634e487b7160e01b600052603260045260246000fd5b6001600160401b0381168114611dac57600080fdfea2646970667358221220c4532ea58c42ef844ab0bf4353e2513f2537723d5b9b872ba9288dc28ac9769a64736f6c63430008060033",
  "immutableReferences": {},
  "source": "// // SPDX-License-Identifier: GPL-3.0\n\npragma solidity ^0.8.6;\n\nimport \"@openzeppelin/contracts-upgradeable/proxy/utils/Initializable.sol\";\nimport \"@openzeppelin/contracts-upgradeable/token/ERC20/IERC20Upgradeable.sol\";\nimport \"../access/IAccessRestriction.sol\";\nimport \"../tree/ITreeFactory.sol\";\nimport \"../tree/IAttribute.sol\";\nimport \"../treasury/IPlanterFund.sol\";\nimport \"../gsn/RelayRecipient.sol\";\n\n/** @title HonoraryTree */\n\ncontract HonoraryTree is Initializable, RelayRecipient {\n    IAccessRestriction public accessRestriction;\n    ITreeFactory public treeFactory;\n    IPlanterFund public planterFundContract;\n    IAttribute public attribute;\n    IERC20Upgradeable public daiToken;\n\n    struct Recipient {\n        uint64 expiryDate;\n        uint64 startDate;\n        uint64 status;\n    }\n    /** NOTE mapping of recipient address to Recipient struct */\n    mapping(address => Recipient) public recipients;\n    /** NOTE array of symbols */\n    uint64[] public symbols;\n    /** array of bool to show a symbol is used or not*/\n    bool[] public used;\n\n    /** NOTE {isHonoraryTree} set inside the initialize to {true} */\n    bool public isHonoraryTree;\n\n    uint256 public claimedCount;\n    uint256 public currentTreeId;\n    uint256 public upTo;\n    uint256 public prePaidTreeCount;\n\n    /**NOTE {referralTreePaymentToPlanter} is share of plater when a tree claimed for someone*/\n    uint256 public referralTreePaymentToPlanter;\n    /**NOTE {referralTreePaymentToAmbassador} is share of ambassador when a tree claimed for someone*/\n    uint256 public referralTreePaymentToAmbassador;\n\n    event TreeRangeSet();\n    event TreeRangeReleased();\n\n    event RecipientUpdated(address recipient);\n    event RecipientAdded(address recipient);\n\n    event ReferralTreePaymentsUpdated(\n        uint256 referralTreePaymentToPlanter,\n        uint256 referralTreePaymentToAmbassador\n    );\n\n    event Claimed(uint256 treeId);\n    event ClaimFailed(address recipient);\n\n    /** NOTE modifier to check msg.sender has admin role */\n    modifier onlyAdmin() {\n        accessRestriction.ifAdmin(_msgSender());\n        _;\n    }\n\n    /** NOTE modifier to check msg.sender has data manager role */\n    modifier onlyDataManager() {\n        accessRestriction.ifDataManager(_msgSender());\n        _;\n    }\n\n    /** NOTE modifier for check valid address */\n    modifier validAddress(address _address) {\n        require(_address != address(0), \"invalid address\");\n        _;\n    }\n\n    /**\n     * @dev initialize accessRestriction contract and set true for isHonoraryTree\n     * set referralTreePaymentToPlanter and referralTreePaymentToAmbassador initial value\n     * @param _accessRestrictionAddress set to the address of accessRestriction contract\n     * @param _referralTreePaymentToPlanter initial planter fund\n     * @param _referralTreePaymentToAmbassador initial ambassador fund\n     */\n    function initialize(\n        address _accessRestrictionAddress,\n        uint256 _referralTreePaymentToPlanter,\n        uint256 _referralTreePaymentToAmbassador\n    ) external initializer {\n        IAccessRestriction candidateContract = IAccessRestriction(\n            _accessRestrictionAddress\n        );\n        require(candidateContract.isAccessRestriction());\n        isHonoraryTree = true;\n        accessRestriction = candidateContract;\n        referralTreePaymentToPlanter = _referralTreePaymentToPlanter;\n        referralTreePaymentToAmbassador = _referralTreePaymentToAmbassador;\n    }\n\n    /**\n     * @dev admin set the trustedForwarder adress\n     * @param _address is the address of trusted forwarder\n     */\n\n    function setTrustedForwarder(address _address)\n        external\n        onlyAdmin\n        validAddress(_address)\n    {\n        trustedForwarder = _address;\n    }\n\n    /**\n     * @dev admin set DaiToken contract address\n     * @param _daiTokenAddress set to the address of DaiToken contract\n     */\n    function setDaiTokenAddress(address _daiTokenAddress)\n        external\n        onlyAdmin\n        validAddress(_daiTokenAddress)\n    {\n        IERC20Upgradeable candidateContract = IERC20Upgradeable(\n            _daiTokenAddress\n        );\n        daiToken = candidateContract;\n    }\n\n    /**\n     * @dev admin set Attribute contract address\n     * @param _address set to the address of Attribute contract\n     */\n\n    function setAttributesAddress(address _address) external onlyAdmin {\n        IAttribute candidateContract = IAttribute(_address);\n        require(candidateContract.isAttribute());\n        attribute = candidateContract;\n    }\n\n    /**\n     * @dev admin set TreeFactory contract address\n     * @param _address set to the address of TreeFactory contract\n     */\n\n    function setTreeFactoryAddress(address _address) external onlyAdmin {\n        ITreeFactory candidateContract = ITreeFactory(_address);\n        require(candidateContract.isTreeFactory());\n        treeFactory = candidateContract;\n    }\n\n    /**\n     * @dev admin set PlanterFund contract address\n     * @param _address set to the address of PlanterFund contract\n     */\n\n    function setPlanterFundAddress(address _address) external onlyAdmin {\n        IPlanterFund candidateContract = IPlanterFund(_address);\n        require(candidateContract.isPlanterFund());\n        planterFundContract = candidateContract;\n    }\n\n    /**\n     * @dev admin set a range of trees with saleType of '0' for honorary trees\n     * NOTE saleType of tree set to '5'\n     * NOTE the prepaid amount is deducted from the total amount t pay\n     * @param _sponsor address of account pay for value of honorary trees\n     * @param _startTreeId start tree id of honorary tree to claim\n     * @param _upTo end tree id of honorary tree to claim\n     */\n\n    function setTreeRange(\n        address _sponsor,\n        uint256 _startTreeId,\n        uint256 _upTo\n    ) external onlyDataManager {\n        require(_upTo > _startTreeId, \"invalid range\");\n        require(upTo == currentTreeId, \"cant set gift range\");\n\n        bool isAvailable = treeFactory.manageSaleTypeBatch(\n            _startTreeId,\n            _upTo,\n            5\n        );\n        require(isAvailable, \"trees are not available\");\n\n        currentTreeId = _startTreeId;\n        upTo = _upTo;\n\n        int256 extraPrePaid = int256(_upTo - _startTreeId) -\n            int256(prePaidTreeCount);\n\n        if (extraPrePaid > 0) {\n            bool success = daiToken.transferFrom(\n                _sponsor,\n                address(planterFundContract),\n                uint256(extraPrePaid) *\n                    (referralTreePaymentToPlanter +\n                        referralTreePaymentToAmbassador)\n            );\n\n            require(success, \"unsuccessful transfer\");\n\n            prePaidTreeCount = 0;\n        } else {\n            prePaidTreeCount = uint256(-extraPrePaid);\n        }\n\n        emit TreeRangeSet();\n    }\n\n    /**\n     * @dev admin release tree range\n     * NOTE saleType of trees set to '0'\n     * NOTE calculate prePaidCount value to deducte from number of tree count\n     * when new tree range set\n     */\n    function releaseTreeRange() external onlyDataManager {\n        treeFactory.resetSaleTypeBatch(currentTreeId, upTo, 5);\n        prePaidTreeCount += upTo - currentTreeId;\n        upTo = 0;\n        currentTreeId = 0;\n        emit TreeRangeReleased();\n    }\n\n    /**\n     * @dev admin reserve a symbol\n     * @param _uniquenessFactor unique symbol to reserve\n     */\n    function reserveSymbol(uint64 _uniquenessFactor) external onlyDataManager {\n        attribute.reserveSymbol(_uniquenessFactor);\n        symbols.push(_uniquenessFactor);\n        used.push(false);\n    }\n\n    /**\n     * @dev admin release all reserved and not used symbols\n     */\n    function releaseReservedSymbol() external onlyDataManager {\n        for (uint256 i = 0; i < symbols.length; i++) {\n            if (!used[i]) {\n                attribute.releaseReservedSymbol(symbols[i]);\n            }\n        }\n\n        delete symbols;\n        delete used;\n        claimedCount = 0;\n    }\n\n    /**\n     * @dev admin add recipient\n     * @param _recipient address of recipient\n     * @param _startDate start date for {_recipient} to claim tree\n     * @param _expiryDate expiry date for {_recipient} to claim tree\n     */\n    function addRecipient(\n        address _recipient,\n        uint64 _startDate,\n        uint64 _expiryDate\n    ) external onlyDataManager {\n        Recipient storage recipientData = recipients[_recipient];\n\n        recipientData.expiryDate = _expiryDate;\n        recipientData.startDate = _startDate;\n        recipientData.status = 1;\n\n        emit RecipientAdded(_recipient);\n    }\n\n    /**\n     * @dev admin update {_recipient} data\n     * @param _recipient address of recipient to update date\n     * @param _startDate new start date for {_recipient} to claim tree\n     * @param _expiryDate new expiry date for {_recipient} to claim tree\n     */\n    function updateRecipient(\n        address _recipient,\n        uint64 _startDate,\n        uint64 _expiryDate\n    ) external onlyDataManager {\n        Recipient storage recipientData = recipients[_recipient];\n\n        require(recipientData.status == 1, \"Status must be one\");\n\n        recipientData.expiryDate = _expiryDate;\n        recipientData.startDate = _startDate;\n        emit RecipientUpdated(_recipient);\n    }\n\n    /** @dev admin can set referral tree payments\n     * @param _referralTreePaymentToPlanter is referral tree payment to planter amount\n     * @param _referralTreePaymentToAmbassador is referral tree payment to ambassador amount\n     */\n    function updateReferralTreePayments(\n        uint256 _referralTreePaymentToPlanter,\n        uint256 _referralTreePaymentToAmbassador\n    ) external onlyDataManager {\n        referralTreePaymentToPlanter = _referralTreePaymentToPlanter;\n        referralTreePaymentToAmbassador = _referralTreePaymentToAmbassador;\n\n        emit ReferralTreePaymentsUpdated(\n            _referralTreePaymentToPlanter,\n            _referralTreePaymentToAmbassador\n        );\n    }\n\n    /**\n     * @dev recipient claim a tree and tree minted to recipient.\n     * projected earnings updated and random attributes set for that tree\n     */\n    function claim() external {\n        Recipient storage recipientData = recipients[_msgSender()];\n        require(\n            recipientData.expiryDate > block.timestamp &&\n                recipientData.startDate < block.timestamp &&\n                recipientData.status == 1,\n            \"you cant claim tree\"\n        );\n\n        require(currentTreeId < upTo, \"trees are not available\");\n        require(claimedCount < symbols.length, \"no symbol exists for gift\");\n\n        bool flag = false;\n\n        uint256 randomValue = uint256(\n            keccak256(\n                abi.encode(\n                    recipientData.expiryDate,\n                    recipientData.startDate,\n                    msg.data,\n                    currentTreeId\n                )\n            )\n        );\n\n        uint64 selectedSymbol;\n        uint256 remainedSymbolCount;\n        uint256 selectedFreeSymbolIndex;\n        uint256 index;\n\n        for (uint256 i = 0; i < symbols.length; i++) {\n            remainedSymbolCount = symbols.length - claimedCount;\n            selectedFreeSymbolIndex = remainedSymbolCount > 0\n                ? randomValue % remainedSymbolCount\n                : 0;\n            index = 0;\n\n            for (uint256 j = 0; j < symbols.length; j++) {\n                if (!used[j]) {\n                    if (index == selectedFreeSymbolIndex) {\n                        claimedCount += 1;\n                        used[j] = true;\n\n                        (, uint128 status) = attribute\n                            .uniquenessFactorToSymbolStatus(symbols[j]);\n\n                        if (status == 1) {\n                            selectedSymbol = symbols[j];\n                            flag = true;\n                        }\n\n                        break;\n                    }\n                    index += 1;\n                }\n            }\n            if (flag) {\n                break;\n            }\n        }\n\n        if (flag) {\n            uint64 uniquenessFactor = attribute.manageAttributeUniquenessFactor(\n                currentTreeId,\n                uint64(randomValue & type(uint64).max)\n            );\n\n            attribute.setAttribute(\n                currentTreeId,\n                uniquenessFactor,\n                selectedSymbol,\n                18\n            );\n\n            planterFundContract.updateProjectedEarnings(\n                currentTreeId,\n                referralTreePaymentToPlanter,\n                referralTreePaymentToAmbassador\n            );\n\n            treeFactory.mintAssignedTree(currentTreeId, _msgSender());\n\n            emit Claimed(currentTreeId);\n\n            currentTreeId += 1;\n\n            delete recipients[_msgSender()];\n        } else {\n            emit ClaimFailed(_msgSender());\n        }\n    }\n}\n",
  "sourcePath": "/media/ali/New Volume/treejer/contract/contracts/honoraryTree/HonoraryTree.sol",
  "compiler": {
    "name": "solc",
    "version": "0.8.6+commit.11564f7e.Emscripten.clang"
  },
  "schemaVersion": "3.4.3",
  "updatedAt": "2021-10-25T21:06:28.567Z",
  "networkType": "ethereum",
  "devdoc": {
    "kind": "dev",
    "methods": {
      "addRecipient(address,uint64,uint64)": {
        "details": "admin add recipient",
        "params": {
          "_expiryDate": "expiry date for {_recipient} to claim tree",
          "_recipient": "address of recipient",
          "_startDate": "start date for {_recipient} to claim tree"
        }
      },
      "claim()": {
        "details": "recipient claim a tree and tree minted to recipient. projected earnings updated and random attributes set for that tree"
      },
      "initialize(address,uint256,uint256)": {
        "details": "initialize accessRestriction contract and set true for isHonoraryTree set referralTreePaymentToPlanter and referralTreePaymentToAmbassador initial value",
        "params": {
          "_accessRestrictionAddress": "set to the address of accessRestriction contract",
          "_referralTreePaymentToAmbassador": "initial ambassador fund",
          "_referralTreePaymentToPlanter": "initial planter fund"
        }
      },
      "releaseReservedSymbol()": {
        "details": "admin release all reserved and not used symbols"
      },
      "releaseTreeRange()": {
        "details": "admin release tree range NOTE saleType of trees set to '0' NOTE calculate prePaidCount value to deducte from number of tree count when new tree range set"
      },
      "reserveSymbol(uint64)": {
        "details": "admin reserve a symbol",
        "params": {
          "_uniquenessFactor": "unique symbol to reserve"
        }
      },
      "setAttributesAddress(address)": {
        "details": "admin set Attribute contract address",
        "params": {
          "_address": "set to the address of Attribute contract"
        }
      },
      "setDaiTokenAddress(address)": {
        "details": "admin set DaiToken contract address",
        "params": {
          "_daiTokenAddress": "set to the address of DaiToken contract"
        }
      },
      "setPlanterFundAddress(address)": {
        "details": "admin set PlanterFund contract address",
        "params": {
          "_address": "set to the address of PlanterFund contract"
        }
      },
      "setTreeFactoryAddress(address)": {
        "details": "admin set TreeFactory contract address",
        "params": {
          "_address": "set to the address of TreeFactory contract"
        }
      },
      "setTreeRange(address,uint256,uint256)": {
        "details": "admin set a range of trees with saleType of '0' for honorary trees NOTE saleType of tree set to '5' NOTE the prepaid amount is deducted from the total amount t pay",
        "params": {
          "_sponsor": "address of account pay for value of honorary trees",
          "_startTreeId": "start tree id of honorary tree to claim",
          "_upTo": "end tree id of honorary tree to claim"
        }
      },
      "setTrustedForwarder(address)": {
        "details": "admin set the trustedForwarder adress",
        "params": {
          "_address": "is the address of trusted forwarder"
        }
      },
      "updateRecipient(address,uint64,uint64)": {
        "details": "admin update {_recipient} data",
        "params": {
          "_expiryDate": "new expiry date for {_recipient} to claim tree",
          "_recipient": "address of recipient to update date",
          "_startDate": "new start date for {_recipient} to claim tree"
        }
      },
      "updateReferralTreePayments(uint256,uint256)": {
        "details": "admin can set referral tree payments",
        "params": {
          "_referralTreePaymentToAmbassador": "is referral tree payment to ambassador amount",
          "_referralTreePaymentToPlanter": "is referral tree payment to planter amount"
        }
      },
      "versionRecipient()": {
        "details": "return version recipient "
      }
    },
    "title": "HonoraryTree ",
    "version": 1
  },
  "userdoc": {
    "kind": "user",
    "methods": {
      "isHonoraryTree()": {
        "notice": "NOTE {isHonoraryTree} set inside the initialize to {true} "
      },
      "isTrustedForwarder(address)": {
        "notice": "return if the forwarder is trusted to forward relayed transactions to us. the forwarder is required to verify the sender's signature, and verify the call is not a replay."
      },
      "recipients(address)": {
        "notice": "NOTE mapping of recipient address to Recipient struct "
      },
      "referralTreePaymentToAmbassador()": {
        "notice": "NOTE {referralTreePaymentToAmbassador} is share of ambassador when a tree claimed for someone"
      },
      "referralTreePaymentToPlanter()": {
        "notice": "NOTE {referralTreePaymentToPlanter} is share of plater when a tree claimed for someone"
      },
      "symbols(uint256)": {
        "notice": "NOTE array of symbols "
      },
      "used(uint256)": {
        "notice": "array of bool to show a symbol is used or not"
      }
    },
    "version": 1
  }
}