{
  "contractName": "IncrementalSell",
  "abi": [
    {
      "anonymous": false,
      "inputs": [
        {
          "indexed": false,
          "internalType": "uint256",
          "name": "treeId",
          "type": "uint256"
        },
        {
          "indexed": false,
          "internalType": "address",
          "name": "buyer",
          "type": "address"
        },
        {
          "indexed": false,
          "internalType": "uint256",
          "name": "amount",
          "type": "uint256"
        }
      ],
      "name": "IncrementalTreeSold",
      "type": "event"
    },
    {
      "inputs": [],
      "name": "accessRestriction",
      "outputs": [
        {
          "internalType": "contract IAccessRestriction",
          "name": "",
          "type": "address"
        }
      ],
      "stateMutability": "view",
      "type": "function",
      "constant": true
    },
    {
      "inputs": [],
      "name": "incrementalPrice",
      "outputs": [
        {
          "internalType": "uint256",
          "name": "startTree",
          "type": "uint256"
        },
        {
          "internalType": "uint256",
          "name": "endTree",
          "type": "uint256"
        },
        {
          "internalType": "uint256",
          "name": "initialPrice",
          "type": "uint256"
        },
        {
          "internalType": "uint64",
          "name": "increaseStep",
          "type": "uint64"
        },
        {
          "internalType": "uint64",
          "name": "increaseRatio",
          "type": "uint64"
        }
      ],
      "stateMutability": "view",
      "type": "function",
      "constant": true
    },
    {
      "inputs": [],
      "name": "isIncrementalSell",
      "outputs": [
        {
          "internalType": "bool",
          "name": "",
          "type": "bool"
        }
      ],
      "stateMutability": "view",
      "type": "function",
      "constant": true
    },
    {
      "inputs": [
        {
          "internalType": "address",
          "name": "",
          "type": "address"
        }
      ],
      "name": "lastBuy",
      "outputs": [
        {
          "internalType": "uint256",
          "name": "",
          "type": "uint256"
        }
      ],
      "stateMutability": "view",
      "type": "function",
      "constant": true
    },
    {
      "inputs": [],
      "name": "treasury",
      "outputs": [
        {
          "internalType": "contract ITreasury",
          "name": "",
          "type": "address"
        }
      ],
      "stateMutability": "view",
      "type": "function",
      "constant": true
    },
    {
      "inputs": [],
      "name": "treeFactory",
      "outputs": [
        {
          "internalType": "contract ITreeFactory",
          "name": "",
          "type": "address"
        }
      ],
      "stateMutability": "view",
      "type": "function",
      "constant": true
    },
    {
      "inputs": [
        {
          "internalType": "address",
          "name": "_accessRestrictionAddress",
          "type": "address"
        }
      ],
      "name": "initialize",
      "outputs": [],
      "stateMutability": "nonpayable",
      "type": "function"
    },
    {
      "inputs": [
        {
          "internalType": "address",
          "name": "_address",
          "type": "address"
        }
      ],
      "name": "setTreeFactoryAddress",
      "outputs": [],
      "stateMutability": "nonpayable",
      "type": "function"
    },
    {
      "inputs": [
        {
          "internalType": "address",
          "name": "_address",
          "type": "address"
        }
      ],
      "name": "setTreasuryAddress",
      "outputs": [],
      "stateMutability": "nonpayable",
      "type": "function"
    },
    {
      "inputs": [
        {
          "internalType": "uint256",
          "name": "startTree",
          "type": "uint256"
        },
        {
          "internalType": "uint256",
          "name": "initialPrice",
          "type": "uint256"
        },
        {
          "internalType": "uint64",
          "name": "treeCount",
          "type": "uint64"
        },
        {
          "internalType": "uint64",
          "name": "steps",
          "type": "uint64"
        },
        {
          "internalType": "uint64",
          "name": "incrementRate",
          "type": "uint64"
        }
      ],
      "name": "addTreeSells",
      "outputs": [],
      "stateMutability": "nonpayable",
      "type": "function"
    },
    {
      "inputs": [
        {
          "internalType": "uint256",
          "name": "treeCount",
          "type": "uint256"
        }
      ],
      "name": "updateIncrementalEnd",
      "outputs": [],
      "stateMutability": "nonpayable",
      "type": "function"
    },
    {
      "inputs": [
        {
          "internalType": "uint256",
          "name": "treeId",
          "type": "uint256"
        }
      ],
      "name": "buyTree",
      "outputs": [],
      "stateMutability": "payable",
      "type": "function",
      "payable": true
    }
  ],
  "bytecode": "0x608060405234801561001057600080fd5b506110f0806100206000396000f3fe6080604052600436106100a75760003560e01c806361d027b31161006457806361d027b3146101e75780636605bfda14610207578063c1adf7bc14610227578063c4d66de814610262578063ca24138f14610282578063d6762c4a1461029557600080fd5b80630bf351f8146100ac5780630f5f2fbb146100ce5780631c4722a31461013e5780631de079821461015e5780633820661a1461018f578063421ef6d4146101af575b600080fd5b3480156100b857600080fd5b506100cc6100c7366004610f2d565b6102bb565b005b3480156100da57600080fd5b50600354600454600554600654610105939291906001600160401b0380821691600160401b90041685565b604080519586526020860194909452928401919091526001600160401b03908116606084015216608082015260a0015b60405180910390f35b34801561014a57600080fd5b506100cc610159366004610f98565b6103bd565b34801561016a57600080fd5b5060025461017f90600160a01b900460ff1681565b6040519015158152602001610135565b34801561019b57600080fd5b506100cc6101aa366004610f7f565b610781565b3480156101bb57600080fd5b506001546101cf906001600160a01b031681565b6040516001600160a01b039091168152602001610135565b3480156101f357600080fd5b506002546101cf906001600160a01b031681565b34801561021357600080fd5b506100cc610222366004610f2d565b61090e565b34801561023357600080fd5b50610254610242366004610f2d565b60076020526000908152604090205481565b604051908152602001610135565b34801561026e57600080fd5b506100cc61027d366004610f2d565b610a10565b6100cc610290366004610f7f565b610b7e565b3480156102a157600080fd5b506000546101cf906201000090046001600160a01b031681565b600054604051632104fb0560e21b8152336004820152620100009091046001600160a01b031690638413ec149060240160006040518083038186803b15801561030357600080fd5b505afa158015610317573d6000803e3d6000fd5b505050506000819050806001600160a01b031663e0eb4eb96040518163ffffffff1660e01b815260040160206040518083038186803b15801561035957600080fd5b505afa15801561036d573d6000803e3d6000fd5b505050506040513d601f19601f820116820180604052508101906103919190610f5d565b61039a57600080fd5b600180546001600160a01b0319166001600160a01b039290921691909117905550565b600054604051632104fb0560e21b8152336004820152620100009091046001600160a01b031690638413ec149060240160006040518083038186803b15801561040557600080fd5b505afa158015610419573d6000803e3d6000fd5b505050506000836001600160401b03161161047b5760405162461bcd60e51b815260206004820152601860248201527f61737369676e206174206c65617374206f6e652074726565000000000000000060448201526064015b60405180910390fd5b606485116104cb5760405162461bcd60e51b815260206004820152601760248201527f74726565732061726520756e6465722041756374696f6e0000000000000000006044820152606401610472565b6000826001600160401b0316116104f45760405162461bcd60e51b815260040161047290610fef565b60025460405163cb8b5da360e01b8152600481018790526001600160a01b039091169063cb8b5da39060240160206040518083038186803b15801561053857600080fd5b505afa15801561054c573d6000803e3d6000fd5b505050506040513d601f19601f820116820180604052508101906105709190610f5d565b6105bc5760405162461bcd60e51b815260206004820181905260248201527f6571756976616c616e742066756e64204d6f64656c206e6f74206578697374736044820152606401610472565b6006546003906001600160401b03161561063a5760018054825491830154604051635c8bbd2f60e01b8152600481019390935260248301526001600160a01b031690635c8bbd2f90604401600060405180830381600087803b15801561062157600080fd5b505af1158015610635573d6000803e3d6000fd5b505050505b6001546001600160a01b0316632ed094618761065f6001600160401b03881682611034565b6040516001600160e01b031960e085901b16815260048101929092526024820152604401602060405180830381600087803b15801561069d57600080fd5b505af11580156106b1573d6000803e3d6000fd5b505050506040513d601f19601f820116820180604052508101906106d59190610f5d565b6107215760405162461bcd60e51b815260206004820181905260248201527f747265657320617265206e6f7420617661696c61626c6520666f722073656c6c6044820152606401610472565b8581556107376001600160401b03851687611034565b60018201556002810194909455600390930180546001600160401b03948516600160401b026fffffffffffffffffffffffffffffffff199091169490921693909317179091555050565b600054604051632104fb0560e21b8152336004820152620100009091046001600160a01b031690638413ec149060240160006040518083038186803b1580156107c957600080fd5b505afa1580156107dd573d6000803e3d6000fd5b5050600654600392506001600160401b03161515905061080f5760405162461bcd60e51b815260040161047290610fef565b60018054908201546001600160a01b0390911690632ed09461906108338582611034565b6040516001600160e01b031960e085901b16815260048101929092526024820152604401602060405180830381600087803b15801561087157600080fd5b505af1158015610885573d6000803e3d6000fd5b505050506040513d601f19601f820116820180604052508101906108a99190610f5d565b6108f55760405162461bcd60e51b815260206004820181905260248201527f747265657320617265206e6f7420617661696c61626c6520666f722073656c6c6044820152606401610472565b8181600101546109059190611034565b60019091015550565b600054604051632104fb0560e21b8152336004820152620100009091046001600160a01b031690638413ec149060240160006040518083038186803b15801561095657600080fd5b505afa15801561096a573d6000803e3d6000fd5b505050506000819050806001600160a01b031663842a3bdd6040518163ffffffff1660e01b815260040160206040518083038186803b1580156109ac57600080fd5b505afa1580156109c0573d6000803e3d6000fd5b505050506040513d601f19601f820116820180604052508101906109e49190610f5d565b6109ed57600080fd5b600280546001600160a01b0319166001600160a01b039290921691909117905550565b600054610100900460ff1680610a29575060005460ff16155b610a8c5760405162461bcd60e51b815260206004820152602e60248201527f496e697469616c697a61626c653a20636f6e747261637420697320616c72656160448201526d191e481a5b9a5d1a585b1a5e995960921b6064820152608401610472565b600054610100900460ff16158015610aae576000805461ffff19166101011790555b6000829050806001600160a01b031663ba84fd696040518163ffffffff1660e01b815260040160206040518083038186803b158015610aec57600080fd5b505afa158015610b00573d6000803e3d6000fd5b505050506040513d601f19601f82011682018060405250810190610b249190610f5d565b610b2d57600080fd5b6002805460ff60a01b1916600160a01b179055600080546001600160a01b03909216620100000262010000600160b01b03199092169190911790558015610b7a576000805461ff00191690555b5050565b600060029054906101000a90046001600160a01b03166001600160a01b0316634d868f986040518163ffffffff1660e01b815260040160006040518083038186803b158015610bcc57600080fd5b505afa158015610be0573d6000803e3d6000fd5b50506040805160a081018252600354815260045460208201819052600554928201929092526006546001600160401b038082166060840152600160401b9091041660808201529250831090508015610c39575080518210155b610c855760405162461bcd60e51b815260206004820152601f60248201527f74726565206973206e6f7420696e20696e6372656d656e74616c2073656c6c006044820152606401610472565b60608101518151339134916000916001600160401b031690610ca7908761108d565b610cb1919061104c565b9050600061271085608001516001600160401b0316866040015184610cd6919061106e565b610ce0919061106e565b610cea919061104c565b8560400151610cf99190611034565b9050610d076102bc4261108d565b6001600160a01b0385166000908152600760205260409020541115610d9b576064610d3382605a61106e565b610d3d919061104c565b831015610d7d5760405162461bcd60e51b815260206004820152600e60248201526d1b1bddc81c1c9a58d9481c185a5960921b6044820152606401610472565b6001600160a01b038416600090815260076020526040812055610df8565b80831015610ddc5760405162461bcd60e51b815260206004820152600e60248201526d1b1bddc81c1c9a58d9481c185a5960921b6044820152606401610472565b6001600160a01b03841660009081526007602052604090204290555b600254604051639faa98bf60e01b8152600481018890526001600160a01b0390911690639faa98bf9085906024016000604051808303818588803b158015610e3f57600080fd5b505af1158015610e53573d6000803e3d6000fd5b50506001546040516377a4078f60e11b8152600481018b90526001600160a01b038981166024830152909116935063ef480f1e92506044019050600060405180830381600087803b158015610ea757600080fd5b505af1158015610ebb573d6000803e3d6000fd5b5050604080518981526001600160a01b03881660208201529081018690527fb55ff93e2d19c0774a8734020459e420f60fdcf9216f639f37af01b856cef9569250606001905060405180910390a1505050505050565b80356001600160401b0381168114610f2857600080fd5b919050565b600060208284031215610f3f57600080fd5b81356001600160a01b0381168114610f5657600080fd5b9392505050565b600060208284031215610f6f57600080fd5b81518015158114610f5657600080fd5b600060208284031215610f9157600080fd5b5035919050565b600080600080600060a08688031215610fb057600080fd5b8535945060208601359350610fc760408701610f11565b9250610fd560608701610f11565b9150610fe360808701610f11565b90509295509295909350565b60208082526025908201527f696e6372656d656e74616c20706572696f642073686f756c6420626520706f73604082015264697469766560d81b606082015260800190565b60008219821115611047576110476110a4565b500190565b60008261106957634e487b7160e01b600052601260045260246000fd5b500490565b6000816000190483118215151615611088576110886110a4565b500290565b60008282101561109f5761109f6110a4565b500390565b634e487b7160e01b600052601160045260246000fdfea2646970667358221220090d1fc3e58f2227a3c92f8072c4fc61c43c38866461dddcc1304f4d60751f1164736f6c63430008060033",
  "immutableReferences": {},
  "source": "// // SPDX-License-Identifier: MIT\npragma solidity ^0.8.6;\n\nimport \"@openzeppelin/contracts-upgradeable/proxy/utils/Initializable.sol\";\nimport \"../access/IAccessRestriction.sol\";\nimport \"../tree/ITreeFactory.sol\";\nimport \"../treasury/ITreasury.sol\";\n\ncontract IncrementalSell is Initializable {\n    IAccessRestriction public accessRestriction;\n    ITreeFactory public treeFactory;\n    ITreasury public treasury;\n    bool public isIncrementalSell;\n\n    struct IncrementalPrice {\n        uint256 startTree;\n        uint256 endTree;\n        uint256 initialPrice;\n        uint64 increaseStep;\n        uint64 increaseRatio;\n    }\n\n    IncrementalPrice public incrementalPrice;\n\n    mapping(address => uint256) public lastBuy;\n\n    event IncrementalTreeSold(uint256 treeId, address buyer, uint256 amount);\n\n    modifier onlyAdmin() {\n        accessRestriction.ifAdmin(msg.sender);\n        _;\n    }\n\n    modifier ifNotPaused() {\n        accessRestriction.ifNotPaused();\n        _;\n    }\n\n    function initialize(address _accessRestrictionAddress) public initializer {\n        IAccessRestriction candidateContract = IAccessRestriction(\n            _accessRestrictionAddress\n        );\n        require(candidateContract.isAccessRestriction());\n        isIncrementalSell = true;\n        accessRestriction = candidateContract;\n    }\n\n    function setTreeFactoryAddress(address _address) external onlyAdmin {\n        ITreeFactory candidateContract = ITreeFactory(_address);\n        require(candidateContract.isTreeFactory());\n        treeFactory = candidateContract;\n    }\n\n    function setTreasuryAddress(address _address) external onlyAdmin {\n        ITreasury candidateContract = ITreasury(_address);\n        require(candidateContract.isTreasury());\n        treasury = candidateContract;\n    }\n\n    function addTreeSells(\n        uint256 startTree,\n        uint256 initialPrice,\n        uint64 treeCount,\n        uint64 steps,\n        uint64 incrementRate\n    ) external onlyAdmin {\n        require(treeCount > 0, \"assign at least one tree\");\n        require(startTree > 100, \"trees are under Auction\");\n        require(steps > 0, \"incremental period should be positive\");\n        require(\n            treasury.distributionModelExistance(startTree),\n            \"equivalant fund Model not exists\"\n        );\n        IncrementalPrice storage incrPrice = incrementalPrice;\n\n        if (incrPrice.increaseStep > 0) {\n            treeFactory.bulkRevert(incrPrice.startTree, incrPrice.endTree);\n        }\n\n        require(\n            treeFactory.bulkAvailability(startTree, startTree + treeCount),\n            \"trees are not available for sell\"\n        );\n\n        incrPrice.startTree = startTree;\n        incrPrice.endTree = startTree + treeCount;\n        incrPrice.initialPrice = initialPrice;\n        incrPrice.increaseStep = steps;\n        incrPrice.increaseRatio = incrementRate;\n    }\n\n    function updateIncrementalEnd(uint256 treeCount) external onlyAdmin {\n        IncrementalPrice storage incrPrice = incrementalPrice;\n        require(\n            incrPrice.increaseStep > 0,\n            \"incremental period should be positive\"\n        );\n        require(\n            treeFactory.bulkAvailability(\n                incrPrice.endTree,\n                incrPrice.endTree + treeCount\n            ),\n            \"trees are not available for sell\"\n        );\n        incrPrice.endTree = incrPrice.endTree + treeCount;\n    }\n\n    function buyTree(uint256 treeId) external payable ifNotPaused {\n        //check if treeId is in this incrementalSell\n        IncrementalPrice memory incPrice = incrementalPrice;\n        require(\n            treeId < incPrice.endTree && treeId >= incPrice.startTree,\n            \"tree is not in incremental sell\"\n        );\n\n        address buyer = msg.sender;\n        uint256 amount = msg.value;\n        //calc tree price based on treeId\n        uint256 steps = (treeId - incPrice.startTree) / incPrice.increaseStep;\n        uint256 treePrice = incPrice.initialPrice +\n            (steps * incPrice.initialPrice * incPrice.increaseRatio) /\n            10000;\n\n        //checking price paid is enough for buying the treeId checking discounts\n        if (lastBuy[buyer] > block.timestamp - 700 seconds) {\n            require(amount >= (treePrice * 90) / 100, \"low price paid\");\n            lastBuy[buyer] = 0;\n        } else {\n            require(amount >= treePrice, \"low price paid\");\n            lastBuy[buyer] = block.timestamp;\n        }\n\n        treasury.fundTree{value: amount}(treeId);\n        treeFactory.updateOwnerIncremental(treeId, buyer);\n\n        emit IncrementalTreeSold(treeId, buyer, amount);\n    }\n}\n",
  "sourcePath": "/home/amir/Projects/treejer/contract-latest/contracts/incrementalSell/IncrementalSell.sol",
  "compiler": {
    "name": "solc",
    "version": "0.8.6+commit.11564f7e.Emscripten.clang"
  },
  "schemaVersion": "3.4.1",
  "updatedAt": "2021-07-27T23:41:05.349Z",
  "networkType": "ethereum",
  "devdoc": {
    "kind": "dev",
    "methods": {},
    "version": 1
  },
  "userdoc": {
    "kind": "user",
    "methods": {},
    "version": 1
  }
}