{
  "contractName": "IncrementalSale",
  "abi": [
    {
      "anonymous": false,
      "inputs": [],
      "name": "IncrementalSaleDataUpdated",
      "type": "event"
    },
    {
      "anonymous": false,
      "inputs": [],
      "name": "IncrementalSaleUpdated",
      "type": "event"
    },
    {
      "anonymous": false,
      "inputs": [
        {
          "indexed": false,
          "internalType": "address",
          "name": "funder",
          "type": "address"
        },
        {
          "indexed": false,
          "internalType": "address",
          "name": "recipient",
          "type": "address"
        },
        {
          "indexed": false,
          "internalType": "address",
          "name": "referrer",
          "type": "address"
        },
        {
          "indexed": false,
          "internalType": "uint256",
          "name": "startTreeId",
          "type": "uint256"
        },
        {
          "indexed": false,
          "internalType": "uint256",
          "name": "count",
          "type": "uint256"
        }
      ],
      "name": "TreeFunded",
      "type": "event"
    },
    {
      "inputs": [],
      "name": "accessRestriction",
      "outputs": [
        {
          "internalType": "contract IAccessRestriction",
          "name": "",
          "type": "address"
        }
      ],
      "stateMutability": "view",
      "type": "function",
      "constant": true
    },
    {
      "inputs": [],
      "name": "allocation",
      "outputs": [
        {
          "internalType": "contract IAllocation",
          "name": "",
          "type": "address"
        }
      ],
      "stateMutability": "view",
      "type": "function",
      "constant": true
    },
    {
      "inputs": [],
      "name": "attribute",
      "outputs": [
        {
          "internalType": "contract IAttribute",
          "name": "",
          "type": "address"
        }
      ],
      "stateMutability": "view",
      "type": "function",
      "constant": true
    },
    {
      "inputs": [],
      "name": "incrementalSaleData",
      "outputs": [
        {
          "internalType": "uint256",
          "name": "startTreeId",
          "type": "uint256"
        },
        {
          "internalType": "uint256",
          "name": "endTreeId",
          "type": "uint256"
        },
        {
          "internalType": "uint256",
          "name": "initialPrice",
          "type": "uint256"
        },
        {
          "internalType": "uint64",
          "name": "increments",
          "type": "uint64"
        },
        {
          "internalType": "uint64",
          "name": "priceJump",
          "type": "uint64"
        }
      ],
      "stateMutability": "view",
      "type": "function",
      "constant": true
    },
    {
      "inputs": [],
      "name": "isIncrementalSale",
      "outputs": [
        {
          "internalType": "bool",
          "name": "",
          "type": "bool"
        }
      ],
      "stateMutability": "view",
      "type": "function",
      "constant": true
    },
    {
      "inputs": [
        {
          "internalType": "address",
          "name": "forwarder",
          "type": "address"
        }
      ],
      "name": "isTrustedForwarder",
      "outputs": [
        {
          "internalType": "bool",
          "name": "",
          "type": "bool"
        }
      ],
      "stateMutability": "view",
      "type": "function",
      "constant": true
    },
    {
      "inputs": [],
      "name": "lastSold",
      "outputs": [
        {
          "internalType": "uint256",
          "name": "",
          "type": "uint256"
        }
      ],
      "stateMutability": "view",
      "type": "function",
      "constant": true
    },
    {
      "inputs": [],
      "name": "planterFundContract",
      "outputs": [
        {
          "internalType": "contract IPlanterFund",
          "name": "",
          "type": "address"
        }
      ],
      "stateMutability": "view",
      "type": "function",
      "constant": true
    },
    {
      "inputs": [],
      "name": "regularSale",
      "outputs": [
        {
          "internalType": "contract IRegularSale",
          "name": "",
          "type": "address"
        }
      ],
      "stateMutability": "view",
      "type": "function",
      "constant": true
    },
    {
      "inputs": [],
      "name": "treeFactory",
      "outputs": [
        {
          "internalType": "contract ITreeFactory",
          "name": "",
          "type": "address"
        }
      ],
      "stateMutability": "view",
      "type": "function",
      "constant": true
    },
    {
      "inputs": [],
      "name": "trustedForwarder",
      "outputs": [
        {
          "internalType": "address",
          "name": "",
          "type": "address"
        }
      ],
      "stateMutability": "view",
      "type": "function",
      "constant": true
    },
    {
      "inputs": [],
      "name": "versionRecipient",
      "outputs": [
        {
          "internalType": "string",
          "name": "",
          "type": "string"
        }
      ],
      "stateMutability": "pure",
      "type": "function",
      "constant": true
    },
    {
      "inputs": [],
      "name": "wethFund",
      "outputs": [
        {
          "internalType": "contract IWethFund",
          "name": "",
          "type": "address"
        }
      ],
      "stateMutability": "view",
      "type": "function",
      "constant": true
    },
    {
      "inputs": [],
      "name": "wethToken",
      "outputs": [
        {
          "internalType": "contract IERC20Upgradeable",
          "name": "",
          "type": "address"
        }
      ],
      "stateMutability": "view",
      "type": "function",
      "constant": true
    },
    {
      "inputs": [
        {
          "internalType": "address",
          "name": "_accessRestrictionAddress",
          "type": "address"
        }
      ],
      "name": "initialize",
      "outputs": [],
      "stateMutability": "nonpayable",
      "type": "function"
    },
    {
      "inputs": [
        {
          "internalType": "address",
          "name": "_address",
          "type": "address"
        }
      ],
      "name": "setTrustedForwarder",
      "outputs": [],
      "stateMutability": "nonpayable",
      "type": "function"
    },
    {
      "inputs": [
        {
          "internalType": "address",
          "name": "_address",
          "type": "address"
        }
      ],
      "name": "setPlanterFundAddress",
      "outputs": [],
      "stateMutability": "nonpayable",
      "type": "function"
    },
    {
      "inputs": [
        {
          "internalType": "address",
          "name": "_address",
          "type": "address"
        }
      ],
      "name": "setRegularSaleAddress",
      "outputs": [],
      "stateMutability": "nonpayable",
      "type": "function"
    },
    {
      "inputs": [
        {
          "internalType": "address",
          "name": "_address",
          "type": "address"
        }
      ],
      "name": "setTreeFactoryAddress",
      "outputs": [],
      "stateMutability": "nonpayable",
      "type": "function"
    },
    {
      "inputs": [
        {
          "internalType": "address",
          "name": "_address",
          "type": "address"
        }
      ],
      "name": "setWethFundAddress",
      "outputs": [],
      "stateMutability": "nonpayable",
      "type": "function"
    },
    {
      "inputs": [
        {
          "internalType": "address",
          "name": "_address",
          "type": "address"
        }
      ],
      "name": "setWethTokenAddress",
      "outputs": [],
      "stateMutability": "nonpayable",
      "type": "function"
    },
    {
      "inputs": [
        {
          "internalType": "address",
          "name": "_address",
          "type": "address"
        }
      ],
      "name": "setAllocationAddress",
      "outputs": [],
      "stateMutability": "nonpayable",
      "type": "function"
    },
    {
      "inputs": [
        {
          "internalType": "address",
          "name": "_address",
          "type": "address"
        }
      ],
      "name": "setAttributesAddress",
      "outputs": [],
      "stateMutability": "nonpayable",
      "type": "function"
    },
    {
      "inputs": [
        {
          "internalType": "uint256",
          "name": "_startTreeId",
          "type": "uint256"
        },
        {
          "internalType": "uint256",
          "name": "_initialPrice",
          "type": "uint256"
        },
        {
          "internalType": "uint64",
          "name": "_treeCount",
          "type": "uint64"
        },
        {
          "internalType": "uint64",
          "name": "_increments",
          "type": "uint64"
        },
        {
          "internalType": "uint64",
          "name": "_priceJump",
          "type": "uint64"
        }
      ],
      "name": "createIncrementalSale",
      "outputs": [],
      "stateMutability": "nonpayable",
      "type": "function"
    },
    {
      "inputs": [
        {
          "internalType": "uint256",
          "name": "_count",
          "type": "uint256"
        }
      ],
      "name": "removeIncrementalSale",
      "outputs": [],
      "stateMutability": "nonpayable",
      "type": "function"
    },
    {
      "inputs": [
        {
          "internalType": "uint256",
          "name": "_treeCount",
          "type": "uint256"
        }
      ],
      "name": "updateEndTreeId",
      "outputs": [],
      "stateMutability": "nonpayable",
      "type": "function"
    },
    {
      "inputs": [
        {
          "internalType": "uint256",
          "name": "_count",
          "type": "uint256"
        },
        {
          "internalType": "address",
          "name": "_referrer",
          "type": "address"
        },
        {
          "internalType": "address",
          "name": "_recipient",
          "type": "address"
        }
      ],
      "name": "fundTree",
      "outputs": [],
      "stateMutability": "nonpayable",
      "type": "function"
    },
    {
      "inputs": [
        {
          "internalType": "uint256",
          "name": "_initialPrice",
          "type": "uint256"
        },
        {
          "internalType": "uint64",
          "name": "_increments",
          "type": "uint64"
        },
        {
          "internalType": "uint64",
          "name": "_priceJump",
          "type": "uint64"
        }
      ],
      "name": "updateIncrementalSaleData",
      "outputs": [],
      "stateMutability": "nonpayable",
      "type": "function"
    }
  ],
  "bytecode": "0x608060405234801561001057600080fd5b5061284b806100206000396000f3fe608060405234801561001057600080fd5b50600436106101c45760003560e01c80636fa627bb116100f9578063c4d66de811610097578063da74222811610071578063da74222814610453578063e81c4c3e14610466578063efc8577014610479578063f7dff4b01461049057600080fd5b8063c4d66de81461041a578063c96bd9ee1461042d578063d6762c4a1461044057600080fd5b8063881e4cb4116100d3578063881e4cb4146103ce57806388a17bde146103e157806395ab5aa5146103f4578063a31250f81461040757600080fd5b80636fa627bb1461038f5780637da0a877146103a257806380d663ea146103bb57600080fd5b8063486ff0cd11610166578063572b6c0511610140578063572b6c051461032e57806359bac35b146103565780636acc9777146103695780636d1f65ef1461037c57600080fd5b8063486ff0cd146102c95780634ad07f9e146103085780634b57b0be1461031b57600080fd5b80633b3780d3116101a25780633b3780d3146102215780633e93de6c14610234578063421ef6d41461025857806345c4f8cd1461026b57600080fd5b80630bf351f8146101c957806314b42c77146101de57806321d9e3d11461020e575b600080fd5b6101dc6101d73660046124a5565b6104a3565b005b6006546101f1906001600160a01b031681565b6040516001600160a01b0390911681526020015b60405180910390f35b6101dc61021c3660046125b2565b6105b5565b6101dc61022f366004612645565b610ac9565b60005461024890600160b01b900460ff1681565b6040519015158152602001610205565b6003546101f1906001600160a01b031681565b600a54600b54600c54600d54610295939291906001600160401b0380821691600160401b90041685565b604080519586526020860194909452928401919091526001600160401b03908116606084015216608082015260a001610205565b604080518082018252601d81527f322e322e302b747265656a65722e6972656c6179726563697069656e7400000060208201529051610205919061269b565b6101dc6103163660046124a5565b610bc1565b6009546101f1906001600160a01b031681565b61024861033c3660046124a5565b6000546201000090046001600160a01b0390811691161490565b6101dc6103643660046124a5565b610cd3565b6101dc6103773660046124a5565b610de5565b6101dc61038a3660046125ee565b610ec2565b6101dc61039d366004612580565b6112cf565b6000546101f1906201000090046001600160a01b031681565b6007546101f1906001600160a01b031681565b6101dc6103dc3660046124a5565b61148e565b6005546101f1906001600160a01b031681565b6008546101f1906001600160a01b031681565b6101dc610415366004612580565b6115a0565b6101dc6104283660046124a5565b61176d565b6101dc61043b3660046124a5565b6118d4565b6002546101f1906001600160a01b031681565b6101dc6104613660046124a5565b6119e6565b6101dc6104743660046124a5565b611acb565b61048260015481565b604051908152602001610205565b6004546101f1906001600160a01b031681565b6002546001600160a01b0316638413ec146104bc611bdd565b6040516001600160e01b031960e084901b1681526001600160a01b03909116600482015260240160006040518083038186803b1580156104fb57600080fd5b505afa15801561050f573d6000803e3d6000fd5b505050506000819050806001600160a01b031663e0eb4eb96040518163ffffffff1660e01b815260040160206040518083038186803b15801561055157600080fd5b505afa158015610565573d6000803e3d6000fd5b505050506040513d601f19601f8201168201806040525081019061058991906124c7565b61059257600080fd5b600380546001600160a01b0319166001600160a01b039290921691909117905550565b600260009054906101000a90046001600160a01b03166001600160a01b0316634d868f986040518163ffffffff1660e01b815260040160006040518083038186803b15801561060357600080fd5b505afa158015610617573d6000803e3d6000fd5b5050505060658310801561062b5750600083115b6106735760405162461bcd60e51b81526020600482015260146024820152730436f756e74206d757374206265206c74203130360641b60448201526064015b60405180910390fd5b600b54600154600a9190610688908690612735565b106106e15760405162461bcd60e51b815260206004820152602360248201527f4e6f7420656e6f756768207472656520696e20696e6372656d656e74616c2073604482015262195b1b60ea1b606482015260840161066a565b600060015460016106f29190612735565b600383015483549192506000916001600160401b039091169061071590846127cd565b61071f919061274d565b6003840154600285015491925060009161271091600160401b90046001600160401b03169061074e908561276f565b610758919061276f565b610762919061274d565b84600201546107719190612735565b9050600061077f828961276f565b855460038701549192506000918691906001600160401b03166107a3876001612735565b6107ad919061276f565b6107b79190612735565b6107c191906127cd565b6107cb908a61278e565b90505b6000811315610843576003860154600287015461271091600160401b90046001600160401b031690610800908461276f565b61080a919061276f565b610814919061274d565b61081e9083612735565b600387015490925061083c906001600160401b031660070b8261278e565b90506107ce565b60095482906001600160a01b03166370a0823161085e611bdd565b6040516001600160e01b031960e084901b1681526001600160a01b03909116600482015260240160206040518083038186803b15801561089d57600080fd5b505afa1580156108b1573d6000803e3d6000fd5b505050506040513d601f19601f820116820180604052508101906108d59190612599565b10156109145760405162461bcd60e51b815260206004820152600e60248201526d1b1bddc81c1c9a58d9481c185a5960921b604482015260640161066a565b6009546000906001600160a01b03166323b872dd610930611bdd565b6004805460405160e085901b6001600160e01b03191681526001600160a01b039384169281019290925291909116602482015260448101869052606401602060405180830381600087803b15801561098757600080fd5b505af115801561099b573d6000803e3d6000fd5b505050506040513d601f19601f820116820180604052508101906109bf91906124c7565b905080610a065760405162461bcd60e51b81526020600482015260156024820152743ab739bab1b1b2b9b9b33ab6103a3930b739b332b960591b604482015260640161066a565b60006001600160a01b03891615610a1d5788610a25565b610a25611bdd565b9050610a3c878c610a34611bdd565b848e89611c17565b9650610a496001886127cd565b6001557f036c2aedd2a9fd7043cbdabf33e199aa70cdf09074e600cf862dea17b004188c610a75611bdd565b828c610a818f8c6127cd565b604080516001600160a01b039586168152938516602085015291909316908201526060810191909152608081018d905260a00160405180910390a15050505050505050505050565b6002546001600160a01b031663c4d2a31b610ae2611bdd565b6040516001600160e01b031960e084901b1681526001600160a01b03909116600482015260240160006040518083038186803b158015610b2157600080fd5b505afa158015610b35573d6000803e3d6000fd5b505050506000826001600160401b031611610b625760405162461bcd60e51b815260040161066a906126f0565b600c839055600d80546001600160401b03838116600160401b026001600160801b031990921690851617179055604051600a907f7f6a0aab5a693fe5abfbdbea247da773975456d0f806b8d96cecd07ab4adef4f90600090a150505050565b6002546001600160a01b0316638413ec14610bda611bdd565b6040516001600160e01b031960e084901b1681526001600160a01b03909116600482015260240160006040518083038186803b158015610c1957600080fd5b505afa158015610c2d573d6000803e3d6000fd5b505050506000819050806001600160a01b031663349904da6040518163ffffffff1660e01b815260040160206040518083038186803b158015610c6f57600080fd5b505afa158015610c83573d6000803e3d6000fd5b505050506040513d601f19601f82011682018060405250810190610ca791906124c7565b610cb057600080fd5b600780546001600160a01b0319166001600160a01b039290921691909117905550565b6002546001600160a01b0316638413ec14610cec611bdd565b6040516001600160e01b031960e084901b1681526001600160a01b03909116600482015260240160006040518083038186803b158015610d2b57600080fd5b505afa158015610d3f573d6000803e3d6000fd5b505050506000819050806001600160a01b0316632f10d7956040518163ffffffff1660e01b815260040160206040518083038186803b158015610d8157600080fd5b505afa158015610d95573d6000803e3d6000fd5b505050506040513d601f19601f82011682018060405250810190610db991906124c7565b610dc257600080fd5b600580546001600160a01b0319166001600160a01b039290921691909117905550565b6002546001600160a01b0316638413ec14610dfe611bdd565b6040516001600160e01b031960e084901b1681526001600160a01b03909116600482015260240160006040518083038186803b158015610e3d57600080fd5b505afa158015610e51573d6000803e3d6000fd5b5083925050506001600160a01b038116610e9f5760405162461bcd60e51b815260206004820152600f60248201526e696e76616c6964206164647265737360881b604482015260640161066a565b50600980546001600160a01b0319166001600160a01b0392909216919091179055565b6002546001600160a01b031663c4d2a31b610edb611bdd565b6040516001600160e01b031960e084901b1681526001600160a01b03909116600482015260240160006040518083038186803b158015610f1a57600080fd5b505afa158015610f2e573d6000803e3d6000fd5b505050506000836001600160401b031611610f8b5760405162461bcd60e51b815260206004820152601860248201527f61737369676e206174206c65617374206f6e6520747265650000000000000000604482015260640161066a565b60648511610fdb5760405162461bcd60e51b815260206004820152601760248201527f74726565732061726520756e6465722041756374696f6e000000000000000000604482015260640161066a565b6000826001600160401b0316116110045760405162461bcd60e51b815260040161066a906126f0565b600554604051634f558e7960e01b8152600481018790526001600160a01b0390911690634f558e799060240160206040518083038186803b15801561104857600080fd5b505afa15801561105c573d6000803e3d6000fd5b505050506040513d601f19601f8201168201806040525081019061108091906124c7565b6110cc5760405162461bcd60e51b815260206004820181905260248201527f6571756976616c616e742066756e64204d6f64656c206e6f7420657869737473604482015260640161066a565b600d54600a906001600160401b031615611153576003548154600183015460405163713507bb60e01b815260048101929092526024820152600260448201526001600160a01b039091169063713507bb90606401600060405180830381600087803b15801561113a57600080fd5b505af115801561114e573d6000803e3d6000fd5b505050505b6003546001600160a01b0316636a58d22c876111786001600160401b03881682612735565b6040516001600160e01b031960e085901b1681526004810192909252602482015260026044820152606401602060405180830381600087803b1580156111bd57600080fd5b505af11580156111d1573d6000803e3d6000fd5b505050506040513d601f19601f820116820180604052508101906111f591906124c7565b6112415760405162461bcd60e51b815260206004820181905260248201527f747265657320617265206e6f7420617661696c61626c6520666f722073656c6c604482015260640161066a565b8581556112576001600160401b03851687612735565b600180830191909155600282018690556003820180546001600160401b03858116600160401b026001600160801b03199092169087161717905561129b90876127cd565b6001556040517f7fca326170516a3030cd5655f7c17f2ab58d4060795b758991ee82342c39bd9390600090a1505050505050565b6002546001600160a01b031663c4d2a31b6112e8611bdd565b6040516001600160e01b031960e084901b1681526001600160a01b03909116600482015260240160006040518083038186803b15801561132757600080fd5b505afa15801561133b573d6000803e3d6000fd5b5050600a805490925060009150611353908490612735565b60038301549091506001600160401b031615801590611376575081600101548111155b6113e05760405162461bcd60e51b815260206004820152603560248201527f496e6372656d656e74616c53616c65206e6f74206578697374206f7220636f756044820152746e74206d757374206265206c7420656e645472656560581b606482015260840161066a565b600354825460405163713507bb60e01b8152600481019190915260248101839052600260448201526001600160a01b039091169063713507bb90606401600060405180830381600087803b15801561143757600080fd5b505af115801561144b573d6000803e3d6000fd5b5050508183555061145d6001826127cd565b6001556040517f7fca326170516a3030cd5655f7c17f2ab58d4060795b758991ee82342c39bd9390600090a1505050565b6002546001600160a01b0316638413ec146114a7611bdd565b6040516001600160e01b031960e084901b1681526001600160a01b03909116600482015260240160006040518083038186803b1580156114e657600080fd5b505afa1580156114fa573d6000803e3d6000fd5b505050506000819050806001600160a01b031663a6cd16fd6040518163ffffffff1660e01b815260040160206040518083038186803b15801561153c57600080fd5b505afa158015611550573d6000803e3d6000fd5b505050506040513d601f19601f8201168201806040525081019061157491906124c7565b61157d57600080fd5b600480546001600160a01b0319166001600160a01b039290921691909117905550565b6002546001600160a01b031663c4d2a31b6115b9611bdd565b6040516001600160e01b031960e084901b1681526001600160a01b03909116600482015260240160006040518083038186803b1580156115f857600080fd5b505afa15801561160c573d6000803e3d6000fd5b5050600d54600a92506001600160401b03161515905061163e5760405162461bcd60e51b815260040161066a906126f0565b60035460018201546001600160a01b0390911690636a58d22c906116628582612735565b6040516001600160e01b031960e085901b1681526004810192909252602482015260026044820152606401602060405180830381600087803b1580156116a757600080fd5b505af11580156116bb573d6000803e3d6000fd5b505050506040513d601f19601f820116820180604052508101906116df91906124c7565b61172b5760405162461bcd60e51b815260206004820181905260248201527f747265657320617265206e6f7420617661696c61626c6520666f722073656c6c604482015260640161066a565b81816001015461173b9190612735565b60018201556040517f7fca326170516a3030cd5655f7c17f2ab58d4060795b758991ee82342c39bd9390600090a15050565b600054610100900460ff1680611786575060005460ff16155b6117e95760405162461bcd60e51b815260206004820152602e60248201527f496e697469616c697a61626c653a20636f6e747261637420697320616c72656160448201526d191e481a5b9a5d1a585b1a5e995960921b606482015260840161066a565b600054610100900460ff1615801561180b576000805461ffff19166101011790555b6000829050806001600160a01b031663ba84fd696040518163ffffffff1660e01b815260040160206040518083038186803b15801561184957600080fd5b505afa15801561185d573d6000803e3d6000fd5b505050506040513d601f19601f8201168201806040525081019061188191906124c7565b61188a57600080fd5b6000805460ff60b01b1916600160b01b179055600280546001600160a01b039092166001600160a01b031990921691909117905580156118d0576000805461ff00191690555b5050565b6002546001600160a01b0316638413ec146118ed611bdd565b6040516001600160e01b031960e084901b1681526001600160a01b03909116600482015260240160006040518083038186803b15801561192c57600080fd5b505afa158015611940573d6000803e3d6000fd5b505050506000819050806001600160a01b03166313e939e26040518163ffffffff1660e01b815260040160206040518083038186803b15801561198257600080fd5b505afa158015611996573d6000803e3d6000fd5b505050506040513d601f19601f820116820180604052508101906119ba91906124c7565b6119c357600080fd5b600680546001600160a01b0319166001600160a01b039290921691909117905550565b6002546001600160a01b0316638413ec146119ff611bdd565b6040516001600160e01b031960e084901b1681526001600160a01b03909116600482015260240160006040518083038186803b158015611a3e57600080fd5b505afa158015611a52573d6000803e3d6000fd5b5083925050506001600160a01b038116611aa05760405162461bcd60e51b815260206004820152600f60248201526e696e76616c6964206164647265737360881b604482015260640161066a565b50600080546001600160a01b03909216620100000262010000600160b01b0319909216919091179055565b6002546001600160a01b0316638413ec14611ae4611bdd565b6040516001600160e01b031960e084901b1681526001600160a01b03909116600482015260240160006040518083038186803b158015611b2357600080fd5b505afa158015611b37573d6000803e3d6000fd5b505050506000819050806001600160a01b0316636a837c8e6040518163ffffffff1660e01b815260040160206040518083038186803b158015611b7957600080fd5b505afa158015611b8d573d6000803e3d6000fd5b505050506040513d601f19601f82011682018060405250810190611bb191906124c7565b611bba57600080fd5b600880546001600160a01b0319166001600160a01b039290921691909117905550565b600060143610801590611c0057506000546201000090046001600160a01b031633145b15611c12575060131936013560601c90565b503390565b600080600a9050611c6660405180610100016040528060008152602001600081526020016000815260200160008152602001600081526020016000815260200160008152602001600081525090565b88878760005b8b811015611f8857600386015460028701548754600092612710926001600160401b03600160401b830481169391921690611ca7908a6127cd565b611cb1919061274d565b611cbb919061276f565b611cc5919061276f565b611ccf919061274d565b8760020154611cde9190612735565b600554604051630393f3d360e01b81526004810188905291925060009182918291829182918291829182916001600160a01b031690630393f3d39060240161010060405180830381600087803b158015611d3757600080fd5b505af1158015611d4b573d6000803e3d6000fd5b505050506040513d601f19601f82011682018060405250810190611d6f91906124e9565b975097509750975097509750975097506127108861ffff168a611d92919061276f565b611d9c919061274d565b8e518f90611dab908390612735565b905250612710611dbf61ffff89168b61276f565b611dc9919061274d565b8e602001818151611dda9190612735565b905250612710611dee61ffff88168b61276f565b611df8919061274d565b8e604001818151611e099190612735565b905250612710611e1d61ffff87168b61276f565b611e27919061274d565b8e606001818151611e389190612735565b905250612710611e4c61ffff86168b61276f565b611e56919061274d565b8e608001818151611e679190612735565b905250612710611e7b61ffff85168b61276f565b611e85919061274d565b8e60a001818151611e969190612735565b905250612710611eaa61ffff84168b61276f565b611eb4919061274d565b8e60c001818151611ec59190612735565b905250612710611ed961ffff83168b61276f565b611ee3919061274d565b8e60e001818151611ef49190612735565b905250600354604051639c8446f760e01b8152600481018f90526001600160a01b038d8116602483015290911690639c8446f790604401600060405180830381600087803b158015611f4557600080fd5b505af1158015611f59573d6000803e3d6000fd5b5050505060018d611f6a9190612735565b9c505050505050505050508080611f80906127e4565b915050611c6c565b50600480548551602087015160408089015160608a015160808b015160a08c015160c08d015160e08e0151955163e5a41e2560e01b8152998a0197909752602489019590955260448801929092526064870152608486015260a485019190915260c484019190915260e48301526000916001600160a01b039091169063e5a41e259061010401602060405180830381600087803b15801561202857600080fd5b505af115801561203c573d6000803e3d6000fd5b505050506040513d601f19601f820116820180604052508101906120609190612599565b90506120c38d8d838860200151896000015161207c9190612735565b8951612088908761276f565b612092919061274d565b60208a01518a516120a39190612735565b60208b01516120b2908861276f565b6120bc919061274d565b8d8961214a565b6001600160a01b038916156121395760085460405163211b1cdd60e01b81526001600160a01b038b81166004830152602482018f90529091169063211b1cdd90604401600060405180830381600087803b15801561212057600080fd5b505af1158015612134573d6000803e3d6000fd5b505050505b50919b9a5050505050505050505050565b600654604051630912cbe160e41b81526001600160a01b038381166004830152600a9260009291169063912cbe109060240160206040518083038186803b15801561219457600080fd5b505afa1580156121a8573d6000803e3d6000fd5b505050506040513d601f19601f820116820180604052508101906121cc9190612678565b905060005b888110156124545760006127108460030160089054906101000a90046001600160401b03166001600160401b031685600201548660030160009054906101000a90046001600160401b03166001600160401b031687600001548f61223591906127cd565b61223f919061274d565b612249919061276f565b612253919061276f565b61225d919061274d565b846002015461226c9190612735565b905060008661227b838b61276f565b612285919061274d565b9050600087612294848b61276f565b61229e919061274d565b9050600760009054906101000a90046001600160a01b03166001600160a01b03166397795c668e84846040518463ffffffff1660e01b81526004016122f6939291909283526020830191909152604082015260600190565b600060405180830381600087803b15801561231057600080fd5b505af1158015612324573d6000803e3d6000fd5b5050604080516020810186905290810184905260608101869052608081018e90526000925060a0019050604051602081830303815290604052805190602001209050600660009054906101000a90046001600160a01b03166001600160a01b031663ca3dac2d8f838b8a60106040518663ffffffff1660e01b81526004016123dd95949392919094855260208501939093526001600160a01b0391909116604084015260ff908116606084015216608082015260a00190565b602060405180830381600087803b1580156123f757600080fd5b505af115801561240b573d6000803e3d6000fd5b505050506040513d601f19601f8201168201806040525081019061242f91906124c7565b5061243b60018f612735565b9d5050505050808061244c906127e4565b9150506121d1565b50505050505050505050565b80356001600160a01b038116811461247757600080fd5b919050565b805161ffff8116811461247757600080fd5b80356001600160401b038116811461247757600080fd5b6000602082840312156124b757600080fd5b6124c082612460565b9392505050565b6000602082840312156124d957600080fd5b815180151581146124c057600080fd5b600080600080600080600080610100898b03121561250657600080fd5b61250f8961247c565b975061251d60208a0161247c565b965061252b60408a0161247c565b955061253960608a0161247c565b945061254760808a0161247c565b935061255560a08a0161247c565b925061256360c08a0161247c565b915061257160e08a0161247c565b90509295985092959890939650565b60006020828403121561259257600080fd5b5035919050565b6000602082840312156125ab57600080fd5b5051919050565b6000806000606084860312156125c757600080fd5b833592506125d760208501612460565b91506125e560408501612460565b90509250925092565b600080600080600060a0868803121561260657600080fd5b853594506020860135935061261d6040870161248e565b925061262b6060870161248e565b91506126396080870161248e565b90509295509295909350565b60008060006060848603121561265a57600080fd5b8335925061266a6020850161248e565b91506125e56040850161248e565b60006020828403121561268a57600080fd5b815160ff811681146124c057600080fd5b600060208083528351808285015260005b818110156126c8578581018301518582016040015282016126ac565b818111156126da576000604083870101525b50601f01601f1916929092016040019392505050565b60208082526025908201527f696e6372656d656e74616c20706572696f642073686f756c6420626520706f73604082015264697469766560d81b606082015260800190565b60008219821115612748576127486127ff565b500190565b60008261276a57634e487b7160e01b600052601260045260246000fd5b500490565b6000816000190483118215151615612789576127896127ff565b500290565b60008083128015600160ff1b8501841216156127ac576127ac6127ff565b6001600160ff1b03840183138116156127c7576127c76127ff565b50500390565b6000828210156127df576127df6127ff565b500390565b60006000198214156127f8576127f86127ff565b5060010190565b634e487b7160e01b600052601160045260246000fdfea2646970667358221220b25c19ced0a192dcfa44b2ec030a87756f7107fdeb4d9b9ffe0841d5eef9337664736f6c63430008060033",
  "immutableReferences": {},
  "source": "// // SPDX-License-Identifier: GPL-3.0\npragma solidity ^0.8.6;\n\nimport \"@openzeppelin/contracts-upgradeable/proxy/utils/Initializable.sol\";\nimport \"@openzeppelin/contracts-upgradeable/token/ERC20/IERC20Upgradeable.sol\";\nimport \"../access/IAccessRestriction.sol\";\nimport \"../tree/ITreeFactory.sol\";\nimport \"../treasury/IWethFund.sol\";\nimport \"../treasury/IAllocation.sol\";\nimport \"../treasury/IPlanterFund.sol\";\nimport \"../tree/IAttribute.sol\";\nimport \"../regularSale/IRegularSale.sol\";\nimport \"../gsn/RelayRecipient.sol\";\n\ncontract IncrementalSale is Initializable, RelayRecipient {\n    /** NOTE {isIncrementalSale} set inside the initialize to {true} */\n    bool public isIncrementalSale;\n    /** NOTE last tree id sold in incremetal sale */\n    uint256 public lastSold;\n\n    IAccessRestriction public accessRestriction;\n    ITreeFactory public treeFactory;\n    IWethFund public wethFund;\n    IAllocation public allocation;\n    IAttribute public attribute;\n    IPlanterFund public planterFundContract;\n    IRegularSale public regularSale;\n    IERC20Upgradeable public wethToken;\n\n    struct IncrementalSaleData {\n        uint256 startTreeId;\n        uint256 endTreeId;\n        uint256 initialPrice;\n        uint64 increments;\n        uint64 priceJump;\n    }\n\n    struct TotalBalances {\n        uint256 planter;\n        uint256 ambassador;\n        uint256 research;\n        uint256 localDevelopment;\n        uint256 insurance;\n        uint256 treasury;\n        uint256 reserve1;\n        uint256 reserve2;\n    }\n\n    /** NOTE {incrementalSaleData} store startTreeId, endTreeId, initialPrice,\n     *  increments, priceJump values\n     */\n    IncrementalSaleData public incrementalSaleData;\n\n    event TreeFunded(\n        address funder,\n        address recipient,\n        address referrer,\n        uint256 startTreeId,\n        uint256 count\n    );\n    event IncrementalSaleUpdated();\n    event IncrementalSaleDataUpdated();\n\n    /** NOTE modifier to check msg.sender has admin role */\n    modifier onlyAdmin() {\n        accessRestriction.ifAdmin(_msgSender());\n        _;\n    }\n\n    /** NOTE modifier to check msg.sender has data manager role */\n    modifier onlyDataManager() {\n        accessRestriction.ifDataManager(_msgSender());\n        _;\n    }\n\n    /** NOTE modifier for check if function is not paused */\n    modifier ifNotPaused() {\n        accessRestriction.ifNotPaused();\n        _;\n    }\n\n    /** NOTE modifier for check valid address */\n    modifier validAddress(address _address) {\n        require(_address != address(0), \"invalid address\");\n        _;\n    }\n\n    /**\n     * @dev initialize AccessRestriction contract and set true for isIncrementalSale\n     * @param _accessRestrictionAddress set to the address of AccessRestriction contract\n     */\n    function initialize(address _accessRestrictionAddress)\n        external\n        initializer\n    {\n        IAccessRestriction candidateContract = IAccessRestriction(\n            _accessRestrictionAddress\n        );\n        require(candidateContract.isAccessRestriction());\n        isIncrementalSale = true;\n        accessRestriction = candidateContract;\n    }\n\n    /**\n     * @dev admin set trusted forwarder address\n     * @param _address set to {trustedForwarder}\n     */\n    function setTrustedForwarder(address _address)\n        external\n        onlyAdmin\n        validAddress(_address)\n    {\n        trustedForwarder = _address;\n    }\n\n    /**\n     * @dev admin set PlanterFund contract address\n     * @param _address set to the address of PlanterFund contract\n     */\n\n    function setPlanterFundAddress(address _address) external onlyAdmin {\n        IPlanterFund candidateContract = IPlanterFund(_address);\n        require(candidateContract.isPlanterFund());\n        planterFundContract = candidateContract;\n    }\n\n    /**\n     * @dev admin set RegularSale contract address\n     * @param _address set to the address of RegularSale contract\n     */\n    function setRegularSaleAddress(address _address) external onlyAdmin {\n        IRegularSale candidateContract = IRegularSale(_address);\n        require(candidateContract.isRegularSale());\n        regularSale = candidateContract;\n    }\n\n    /** @dev admin set TreeFactory contract address\n     * @param _address set to the address of TreeFactory contract\n     */\n    function setTreeFactoryAddress(address _address) external onlyAdmin {\n        ITreeFactory candidateContract = ITreeFactory(_address);\n        require(candidateContract.isTreeFactory());\n        treeFactory = candidateContract;\n    }\n\n    /** @dev admin set WethFund contract address\n     * @param _address set to the address of WethFund contract\n     */\n    function setWethFundAddress(address _address) external onlyAdmin {\n        IWethFund candidateContract = IWethFund(_address);\n\n        require(candidateContract.isWethFund());\n\n        wethFund = candidateContract;\n    }\n\n    /** @dev admin set wethToken contract address\n     * @param _address set to the address of WethToken contract\n     */\n    function setWethTokenAddress(address _address)\n        external\n        onlyAdmin\n        validAddress(_address)\n    {\n        IERC20Upgradeable candidateContract = IERC20Upgradeable(_address);\n        wethToken = candidateContract;\n    }\n\n    /**\n     * @dev admin set Allocation contract address\n     * @param _address set to the address of Allocation contract\n     */\n    function setAllocationAddress(address _address) external onlyAdmin {\n        IAllocation candidateContract = IAllocation(_address);\n        require(candidateContract.isAllocation());\n        allocation = candidateContract;\n    }\n\n    /**\n     * @dev admin set Attribute contract address\n     * @param _address set to the address of Attribute contract\n     */\n\n    function setAttributesAddress(address _address) external onlyAdmin {\n        IAttribute candidateContract = IAttribute(_address);\n        require(candidateContract.isAttribute());\n        attribute = candidateContract;\n    }\n\n    /**\n     * @dev admin set a tree range from {startTreeId} to {startTreeId + treeCount}\n     * for incremental sales\n     * @param _startTreeId starting treeId\n     * @param _initialPrice initialPrice of trees\n     * @param _treeCount number of tree in incremental sell\n     * @param _increments number of trees after which the price increases\n     * @param _priceJump price jump\n     */\n    function createIncrementalSale(\n        uint256 _startTreeId,\n        uint256 _initialPrice,\n        uint64 _treeCount,\n        uint64 _increments,\n        uint64 _priceJump\n    ) external onlyDataManager {\n        require(_treeCount > 0, \"assign at least one tree\");\n        require(_startTreeId > 100, \"trees are under Auction\");\n        require(_increments > 0, \"incremental period should be positive\");\n        require(\n            allocation.exists(_startTreeId),\n            \"equivalant fund Model not exists\"\n        );\n\n        IncrementalSaleData storage incSaleData = incrementalSaleData;\n\n        if (incSaleData.increments > 0) {\n            treeFactory.resetSaleTypeBatch(\n                incSaleData.startTreeId,\n                incSaleData.endTreeId,\n                2\n            );\n        }\n\n        require(\n            treeFactory.manageSaleTypeBatch(\n                _startTreeId,\n                _startTreeId + _treeCount,\n                2\n            ),\n            \"trees are not available for sell\"\n        );\n\n        incSaleData.startTreeId = _startTreeId;\n        incSaleData.endTreeId = _startTreeId + _treeCount;\n        incSaleData.initialPrice = _initialPrice;\n        incSaleData.increments = _increments;\n        incSaleData.priceJump = _priceJump;\n\n        lastSold = _startTreeId - 1;\n\n        emit IncrementalSaleUpdated();\n    }\n\n    /**\n     * @dev remove some trees from incremental sale and reset saleType of that trees\n     * NOTE {_count} trees removed from first of the incremetalSale tree range\n     * @param _count is number of trees to remove\n     */\n    function removeIncrementalSale(uint256 _count) external onlyDataManager {\n        IncrementalSaleData storage incSaleData = incrementalSaleData;\n\n        uint256 newStartTreeId = incSaleData.startTreeId + _count;\n\n        require(\n            incSaleData.increments > 0 &&\n                newStartTreeId <= incSaleData.endTreeId,\n            \"IncrementalSale not exist or count must be lt endTree\"\n        );\n\n        treeFactory.resetSaleTypeBatch(\n            incSaleData.startTreeId,\n            newStartTreeId,\n            2\n        );\n\n        incSaleData.startTreeId = newStartTreeId;\n        lastSold = newStartTreeId - 1;\n\n        emit IncrementalSaleUpdated();\n    }\n\n    /**\n     * @dev admin update endTreeId of incrementalSale tree range\n     * @param _treeCount number of trees added at the end of the incrementalSale\n     * tree range\n     */\n    function updateEndTreeId(uint256 _treeCount) external onlyDataManager {\n        IncrementalSaleData storage incSaleData = incrementalSaleData;\n        require(\n            incSaleData.increments > 0,\n            \"incremental period should be positive\"\n        );\n        require(\n            treeFactory.manageSaleTypeBatch(\n                incSaleData.endTreeId,\n                incSaleData.endTreeId + _treeCount,\n                2\n            ),\n            \"trees are not available for sell\"\n        );\n        incSaleData.endTreeId = incSaleData.endTreeId + _treeCount;\n\n        emit IncrementalSaleUpdated();\n    }\n\n    /**\n     * @dev fund {_count} tree\n     * NOTE if {_recipient} address exist tree minted to the {_recipient}\n     * and mint to the function caller otherwise\n     * NOTE function caller pay for the price of trees\n     * NOTE total price calculated based on the incrementalSaleData\n     * NOTE based on the allocation data for tree totalBalances and PlanterFund\n     * contract balance updated\n     * NOTE generate unique symbols for trees\n     * @param _count number of trees to fund\n     * @param _referrer address of referrer\n     * @param _recipient address of recipient\n     */\n    function fundTree(\n        uint256 _count,\n        address _referrer,\n        address _recipient\n    ) external ifNotPaused {\n        require(_count < 101 && _count > 0, \"Count must be lt 100\");\n\n        IncrementalSaleData storage incSaleData = incrementalSaleData;\n\n        require(\n            lastSold + _count < incSaleData.endTreeId,\n            \"Not enough tree in incremental sell\"\n        );\n\n        uint256 tempLastSold = lastSold + 1;\n\n        uint256 y = (tempLastSold - incSaleData.startTreeId) /\n            incSaleData.increments;\n\n        uint256 tempLastSoldPrice = incSaleData.initialPrice +\n            (y * incSaleData.initialPrice * incSaleData.priceJump) /\n            10000;\n\n        uint256 totalPrice = _count * tempLastSoldPrice;\n\n        int256 extra = int256(_count) -\n            int256(\n                (y + 1) *\n                    incSaleData.increments +\n                    incSaleData.startTreeId -\n                    tempLastSold\n            );\n\n        while (extra > 0) {\n            totalPrice +=\n                (uint256(extra) *\n                    incSaleData.initialPrice *\n                    incSaleData.priceJump) /\n                10000;\n            extra -= int64(incSaleData.increments);\n        }\n\n        //transfer totalPrice to wethFund\n        require(\n            wethToken.balanceOf(_msgSender()) >= totalPrice,\n            \"low price paid\"\n        );\n\n        bool success = wethToken.transferFrom(\n            _msgSender(),\n            address(wethFund),\n            totalPrice\n        );\n\n        require(success, \"unsuccessful transfer\");\n\n        address recipient = _recipient == address(0)\n            ? _msgSender()\n            : _recipient;\n\n        tempLastSold = _setAllocation(\n            tempLastSold,\n            _count,\n            _msgSender(),\n            recipient,\n            _referrer,\n            totalPrice\n        );\n\n        lastSold = tempLastSold - 1;\n\n        emit TreeFunded(\n            _msgSender(),\n            recipient,\n            _referrer,\n            tempLastSold - _count,\n            _count\n        );\n    }\n\n    /** @dev admin update incrementalSaleData\n     * @param _initialPrice initialPrice of trees\n     * @param _increments number of trees after which the price increases\n     * @param _priceJump price jump\n     */\n    function updateIncrementalSaleData(\n        uint256 _initialPrice,\n        uint64 _increments,\n        uint64 _priceJump\n    ) external onlyDataManager {\n        require(_increments > 0, \"incremental period should be positive\");\n\n        IncrementalSaleData storage incSaleData = incrementalSaleData;\n\n        incSaleData.initialPrice = _initialPrice;\n        incSaleData.increments = _increments;\n        incSaleData.priceJump = _priceJump;\n\n        emit IncrementalSaleDataUpdated();\n    }\n\n    /**\n     * @dev calculate amount of each part in totalBalances based on the tree allocation\n     * data and total price of trees and update them in totalBlances.\n     * NOTE trees minted to the recipient\n     * @param _tempLastSold last tree id sold in incremetal sale\n     * @param _count number of trees to fund\n     * @param _funder address of funder\n     * @param _recipient address of recipient\n     * @param _referrer address of referrer\n     * @param _totalPrice total price of trees\n     * @return new last sold tree id\n     */\n    function _setAllocation(\n        uint256 _tempLastSold,\n        uint256 _count,\n        address _funder,\n        address _recipient,\n        address _referrer,\n        uint256 _totalPrice\n    ) private returns (uint256) {\n        IncrementalSaleData storage incSaleData = incrementalSaleData;\n\n        TotalBalances memory totalBalances;\n\n        uint256 tempLastSold = _tempLastSold;\n\n        address funder = _funder;\n        address recipient = _recipient;\n\n        for (uint256 i = 0; i < _count; i++) {\n            uint256 treePrice = incSaleData.initialPrice +\n                (((tempLastSold - incSaleData.startTreeId) /\n                    incSaleData.increments) *\n                    incSaleData.initialPrice *\n                    incSaleData.priceJump) /\n                10000;\n\n            (\n                uint16 planterShare,\n                uint16 ambassadorShare,\n                uint16 researchShare,\n                uint16 localDevelopmentShare,\n                uint16 insuranceShare,\n                uint16 treasuryShare,\n                uint16 reserve1Share,\n                uint16 reserve2Share\n            ) = allocation.findAllocationData(tempLastSold);\n\n            totalBalances.planter += (treePrice * planterShare) / 10000;\n            totalBalances.ambassador += (treePrice * ambassadorShare) / 10000;\n            totalBalances.research += (treePrice * researchShare) / 10000;\n            totalBalances.localDevelopment +=\n                (treePrice * localDevelopmentShare) /\n                10000;\n            totalBalances.insurance += (treePrice * insuranceShare) / 10000;\n            totalBalances.treasury += (treePrice * treasuryShare) / 10000;\n            totalBalances.reserve1 += (treePrice * reserve1Share) / 10000;\n            totalBalances.reserve2 += (treePrice * reserve2Share) / 10000;\n\n            treeFactory.mintAssignedTree(tempLastSold, recipient);\n\n            tempLastSold += 1;\n        }\n\n        uint256 daiAmount = wethFund.fundTreeBatch(\n            totalBalances.planter,\n            totalBalances.ambassador,\n            totalBalances.research,\n            totalBalances.localDevelopment,\n            totalBalances.insurance,\n            totalBalances.treasury,\n            totalBalances.reserve1,\n            totalBalances.reserve2\n        );\n\n        _setPlanterAllocation(\n            _tempLastSold,\n            _count,\n            daiAmount,\n            (daiAmount * totalBalances.planter) /\n                (totalBalances.planter + totalBalances.ambassador), //planterDaiAmount\n            (daiAmount * totalBalances.ambassador) /\n                (totalBalances.planter + totalBalances.ambassador), //ambassadorDaiAmount\n            _totalPrice,\n            funder\n        );\n\n        if (_referrer != address(0)) {\n            regularSale.updateReferrerClaimableTreesWeth(_referrer, _count);\n        }\n\n        return tempLastSold;\n    }\n\n    /**\n     * @dev update projected earning in PlanterFund and create symbol for tree\n     * @param _tempLastSold last tree id sold in incremetal sale\n     * @param _count number of trees to fund\n     * @param _daiAmount total dai amount\n     * @param _planterDaiAmount total planter dai share\n     * @param _ambassadorDaiAmount total ambassador dai share\n     * @param _totalPrice total price\n     * @param _funder address of funder\n     */\n    function _setPlanterAllocation(\n        uint256 _tempLastSold,\n        uint256 _count,\n        uint256 _daiAmount,\n        uint256 _planterDaiAmount,\n        uint256 _ambassadorDaiAmount,\n        uint256 _totalPrice,\n        address _funder\n    ) private {\n        IncrementalSaleData storage incSaleData = incrementalSaleData;\n\n        uint8 funderRank = attribute.getFunderRank(_funder);\n\n        for (uint256 i = 0; i < _count; i++) {\n            uint256 treePrice = incSaleData.initialPrice +\n                (((_tempLastSold - incSaleData.startTreeId) /\n                    incSaleData.increments) *\n                    incSaleData.initialPrice *\n                    incSaleData.priceJump) /\n                10000;\n\n            uint256 planterDaiAmount = (_planterDaiAmount * treePrice) /\n                _totalPrice;\n\n            uint256 ambassadorDaiAmount = (_ambassadorDaiAmount * treePrice) /\n                _totalPrice;\n\n            planterFundContract.updateProjectedEarnings(\n                _tempLastSold,\n                planterDaiAmount,\n                ambassadorDaiAmount\n            );\n\n            bytes32 randTree = keccak256(\n                abi.encodePacked(\n                    planterDaiAmount,\n                    ambassadorDaiAmount,\n                    treePrice,\n                    _daiAmount\n                )\n            );\n\n            attribute.createSymbol(\n                _tempLastSold,\n                randTree,\n                _funder,\n                funderRank,\n                16\n            );\n\n            _tempLastSold += 1;\n        }\n    }\n}\n",
  "sourcePath": "/media/ali/New Volume/treejer/contract/contracts/incrementalSale/IncrementalSale.sol",
  "compiler": {
    "name": "solc",
    "version": "0.8.6+commit.11564f7e.Emscripten.clang"
  },
  "schemaVersion": "3.4.3",
  "updatedAt": "2021-10-25T21:03:43.243Z",
  "networkType": "ethereum",
  "devdoc": {
    "kind": "dev",
    "methods": {
      "createIncrementalSale(uint256,uint256,uint64,uint64,uint64)": {
        "details": "admin set a tree range from {startTreeId} to {startTreeId + treeCount} for incremental sales",
        "params": {
          "_increments": "number of trees after which the price increases",
          "_initialPrice": "initialPrice of trees",
          "_priceJump": "price jump",
          "_startTreeId": "starting treeId",
          "_treeCount": "number of tree in incremental sell"
        }
      },
      "fundTree(uint256,address,address)": {
        "details": "fund {_count} tree NOTE if {_recipient} address exist tree minted to the {_recipient} and mint to the function caller otherwise NOTE function caller pay for the price of trees NOTE total price calculated based on the incrementalSaleData NOTE based on the allocation data for tree totalBalances and PlanterFund contract balance updated NOTE generate unique symbols for trees",
        "params": {
          "_count": "number of trees to fund",
          "_recipient": "address of recipient",
          "_referrer": "address of referrer"
        }
      },
      "initialize(address)": {
        "details": "initialize AccessRestriction contract and set true for isIncrementalSale",
        "params": {
          "_accessRestrictionAddress": "set to the address of AccessRestriction contract"
        }
      },
      "removeIncrementalSale(uint256)": {
        "details": "remove some trees from incremental sale and reset saleType of that trees NOTE {_count} trees removed from first of the incremetalSale tree range",
        "params": {
          "_count": "is number of trees to remove"
        }
      },
      "setAllocationAddress(address)": {
        "details": "admin set Allocation contract address",
        "params": {
          "_address": "set to the address of Allocation contract"
        }
      },
      "setAttributesAddress(address)": {
        "details": "admin set Attribute contract address",
        "params": {
          "_address": "set to the address of Attribute contract"
        }
      },
      "setPlanterFundAddress(address)": {
        "details": "admin set PlanterFund contract address",
        "params": {
          "_address": "set to the address of PlanterFund contract"
        }
      },
      "setRegularSaleAddress(address)": {
        "details": "admin set RegularSale contract address",
        "params": {
          "_address": "set to the address of RegularSale contract"
        }
      },
      "setTreeFactoryAddress(address)": {
        "details": "admin set TreeFactory contract address",
        "params": {
          "_address": "set to the address of TreeFactory contract"
        }
      },
      "setTrustedForwarder(address)": {
        "details": "admin set trusted forwarder address",
        "params": {
          "_address": "set to {trustedForwarder}"
        }
      },
      "setWethFundAddress(address)": {
        "details": "admin set WethFund contract address",
        "params": {
          "_address": "set to the address of WethFund contract"
        }
      },
      "setWethTokenAddress(address)": {
        "details": "admin set wethToken contract address",
        "params": {
          "_address": "set to the address of WethToken contract"
        }
      },
      "updateEndTreeId(uint256)": {
        "details": "admin update endTreeId of incrementalSale tree range",
        "params": {
          "_treeCount": "number of trees added at the end of the incrementalSale tree range"
        }
      },
      "updateIncrementalSaleData(uint256,uint64,uint64)": {
        "details": "admin update incrementalSaleData",
        "params": {
          "_increments": "number of trees after which the price increases",
          "_initialPrice": "initialPrice of trees",
          "_priceJump": "price jump"
        }
      },
      "versionRecipient()": {
        "details": "return version recipient "
      }
    },
    "version": 1
  },
  "userdoc": {
    "kind": "user",
    "methods": {
      "incrementalSaleData()": {
        "notice": "NOTE {incrementalSaleData} store startTreeId, endTreeId, initialPrice,  increments, priceJump values"
      },
      "isIncrementalSale()": {
        "notice": "NOTE {isIncrementalSale} set inside the initialize to {true} "
      },
      "isTrustedForwarder(address)": {
        "notice": "return if the forwarder is trusted to forward relayed transactions to us. the forwarder is required to verify the sender's signature, and verify the call is not a replay."
      },
      "lastSold()": {
        "notice": "NOTE last tree id sold in incremetal sale "
      }
    },
    "version": 1
  }
}