{
  "contractName": "Planter",
  "abi": [
    {
      "anonymous": false,
      "inputs": [
        {
          "indexed": false,
          "internalType": "address",
          "name": "planter",
          "type": "address"
        }
      ],
      "name": "AcceptedByOrganization",
      "type": "event"
    },
    {
      "anonymous": false,
      "inputs": [
        {
          "indexed": false,
          "internalType": "address",
          "name": "organization",
          "type": "address"
        }
      ],
      "name": "OrganizationJoined",
      "type": "event"
    },
    {
      "anonymous": false,
      "inputs": [
        {
          "indexed": false,
          "internalType": "address",
          "name": "planter",
          "type": "address"
        }
      ],
      "name": "OrganizationMemberShareUpdated",
      "type": "event"
    },
    {
      "anonymous": false,
      "inputs": [
        {
          "indexed": false,
          "internalType": "address",
          "name": "planter",
          "type": "address"
        }
      ],
      "name": "PlanterJoined",
      "type": "event"
    },
    {
      "anonymous": false,
      "inputs": [
        {
          "indexed": false,
          "internalType": "address",
          "name": "planter",
          "type": "address"
        }
      ],
      "name": "PlanterUpdated",
      "type": "event"
    },
    {
      "anonymous": false,
      "inputs": [
        {
          "indexed": false,
          "internalType": "address",
          "name": "planter",
          "type": "address"
        }
      ],
      "name": "RejectedByOrganization",
      "type": "event"
    },
    {
      "inputs": [],
      "name": "accessRestriction",
      "outputs": [
        {
          "internalType": "contract IAccessRestriction",
          "name": "",
          "type": "address"
        }
      ],
      "stateMutability": "view",
      "type": "function",
      "constant": true
    },
    {
      "inputs": [
        {
          "internalType": "address",
          "name": "",
          "type": "address"
        }
      ],
      "name": "invitedBy",
      "outputs": [
        {
          "internalType": "address",
          "name": "",
          "type": "address"
        }
      ],
      "stateMutability": "view",
      "type": "function",
      "constant": true
    },
    {
      "inputs": [],
      "name": "isPlanter",
      "outputs": [
        {
          "internalType": "bool",
          "name": "",
          "type": "bool"
        }
      ],
      "stateMutability": "view",
      "type": "function",
      "constant": true
    },
    {
      "inputs": [
        {
          "internalType": "address",
          "name": "forwarder",
          "type": "address"
        }
      ],
      "name": "isTrustedForwarder",
      "outputs": [
        {
          "internalType": "bool",
          "name": "",
          "type": "bool"
        }
      ],
      "stateMutability": "view",
      "type": "function",
      "constant": true
    },
    {
      "inputs": [
        {
          "internalType": "address",
          "name": "",
          "type": "address"
        }
      ],
      "name": "memberOf",
      "outputs": [
        {
          "internalType": "address",
          "name": "",
          "type": "address"
        }
      ],
      "stateMutability": "view",
      "type": "function",
      "constant": true
    },
    {
      "inputs": [
        {
          "internalType": "address",
          "name": "",
          "type": "address"
        },
        {
          "internalType": "address",
          "name": "",
          "type": "address"
        }
      ],
      "name": "organizationMemberShare",
      "outputs": [
        {
          "internalType": "uint256",
          "name": "",
          "type": "uint256"
        }
      ],
      "stateMutability": "view",
      "type": "function",
      "constant": true
    },
    {
      "inputs": [
        {
          "internalType": "address",
          "name": "",
          "type": "address"
        }
      ],
      "name": "planters",
      "outputs": [
        {
          "internalType": "uint8",
          "name": "planterType",
          "type": "uint8"
        },
        {
          "internalType": "uint8",
          "name": "status",
          "type": "uint8"
        },
        {
          "internalType": "uint16",
          "name": "countryCode",
          "type": "uint16"
        },
        {
          "internalType": "uint32",
          "name": "score",
          "type": "uint32"
        },
        {
          "internalType": "uint32",
          "name": "supplyCap",
          "type": "uint32"
        },
        {
          "internalType": "uint32",
          "name": "plantedCount",
          "type": "uint32"
        },
        {
          "internalType": "uint64",
          "name": "longitude",
          "type": "uint64"
        },
        {
          "internalType": "uint64",
          "name": "latitude",
          "type": "uint64"
        }
      ],
      "stateMutability": "view",
      "type": "function",
      "constant": true
    },
    {
      "inputs": [],
      "name": "trustedForwarder",
      "outputs": [
        {
          "internalType": "address",
          "name": "",
          "type": "address"
        }
      ],
      "stateMutability": "view",
      "type": "function",
      "constant": true
    },
    {
      "inputs": [],
      "name": "versionRecipient",
      "outputs": [
        {
          "internalType": "string",
          "name": "",
          "type": "string"
        }
      ],
      "stateMutability": "pure",
      "type": "function",
      "constant": true
    },
    {
      "inputs": [
        {
          "internalType": "address",
          "name": "_accessRestrictionAddress",
          "type": "address"
        }
      ],
      "name": "initialize",
      "outputs": [],
      "stateMutability": "nonpayable",
      "type": "function"
    },
    {
      "inputs": [
        {
          "internalType": "address",
          "name": "_address",
          "type": "address"
        }
      ],
      "name": "setTrustedForwarder",
      "outputs": [],
      "stateMutability": "nonpayable",
      "type": "function"
    },
    {
      "inputs": [
        {
          "internalType": "uint8",
          "name": "_planterType",
          "type": "uint8"
        },
        {
          "internalType": "uint64",
          "name": "_longitude",
          "type": "uint64"
        },
        {
          "internalType": "uint64",
          "name": "_latitude",
          "type": "uint64"
        },
        {
          "internalType": "uint16",
          "name": "_countryCode",
          "type": "uint16"
        },
        {
          "internalType": "address",
          "name": "_invitedBy",
          "type": "address"
        },
        {
          "internalType": "address",
          "name": "_organization",
          "type": "address"
        }
      ],
      "name": "join",
      "outputs": [],
      "stateMutability": "nonpayable",
      "type": "function"
    },
    {
      "inputs": [
        {
          "internalType": "address",
          "name": "_planter",
          "type": "address"
        },
        {
          "internalType": "uint8",
          "name": "_planterType",
          "type": "uint8"
        },
        {
          "internalType": "uint64",
          "name": "_longitude",
          "type": "uint64"
        },
        {
          "internalType": "uint64",
          "name": "_latitude",
          "type": "uint64"
        },
        {
          "internalType": "uint16",
          "name": "_countryCode",
          "type": "uint16"
        },
        {
          "internalType": "address",
          "name": "_invitedBy",
          "type": "address"
        },
        {
          "internalType": "address",
          "name": "_organization",
          "type": "address"
        }
      ],
      "name": "joinByAdmin",
      "outputs": [],
      "stateMutability": "nonpayable",
      "type": "function"
    },
    {
      "inputs": [
        {
          "internalType": "address",
          "name": "_organization",
          "type": "address"
        },
        {
          "internalType": "uint64",
          "name": "_longitude",
          "type": "uint64"
        },
        {
          "internalType": "uint64",
          "name": "_latitude",
          "type": "uint64"
        },
        {
          "internalType": "uint16",
          "name": "_countryCode",
          "type": "uint16"
        },
        {
          "internalType": "uint32",
          "name": "_supplyCap",
          "type": "uint32"
        },
        {
          "internalType": "address",
          "name": "_invitedBy",
          "type": "address"
        }
      ],
      "name": "joinOrganization",
      "outputs": [],
      "stateMutability": "nonpayable",
      "type": "function"
    },
    {
      "inputs": [
        {
          "internalType": "uint8",
          "name": "_planterType",
          "type": "uint8"
        },
        {
          "internalType": "address",
          "name": "_organization",
          "type": "address"
        }
      ],
      "name": "updatePlanterType",
      "outputs": [],
      "stateMutability": "nonpayable",
      "type": "function"
    },
    {
      "inputs": [
        {
          "internalType": "address",
          "name": "_planter",
          "type": "address"
        },
        {
          "internalType": "bool",
          "name": "_acceptance",
          "type": "bool"
        }
      ],
      "name": "acceptPlanterByOrganization",
      "outputs": [],
      "stateMutability": "nonpayable",
      "type": "function"
    },
    {
      "inputs": [
        {
          "internalType": "address",
          "name": "_planter",
          "type": "address"
        },
        {
          "internalType": "uint32",
          "name": "_supplyCap",
          "type": "uint32"
        }
      ],
      "name": "updateSupplyCap",
      "outputs": [],
      "stateMutability": "nonpayable",
      "type": "function"
    },
    {
      "inputs": [
        {
          "internalType": "address",
          "name": "_planter",
          "type": "address"
        },
        {
          "internalType": "address",
          "name": "_assignedPlanterAddress",
          "type": "address"
        }
      ],
      "name": "manageAssignedTreePermission",
      "outputs": [
        {
          "internalType": "bool",
          "name": "",
          "type": "bool"
        }
      ],
      "stateMutability": "nonpayable",
      "type": "function"
    },
    {
      "inputs": [
        {
          "internalType": "address",
          "name": "_planter",
          "type": "address"
        },
        {
          "internalType": "uint256",
          "name": "_organizationMemberShareAmount",
          "type": "uint256"
        }
      ],
      "name": "updateOrganizationMemberShare",
      "outputs": [],
      "stateMutability": "nonpayable",
      "type": "function"
    },
    {
      "inputs": [
        {
          "internalType": "address",
          "name": "_planter",
          "type": "address"
        }
      ],
      "name": "getOrganizationMemberData",
      "outputs": [
        {
          "internalType": "bool",
          "name": "",
          "type": "bool"
        },
        {
          "internalType": "address",
          "name": "",
          "type": "address"
        },
        {
          "internalType": "address",
          "name": "",
          "type": "address"
        },
        {
          "internalType": "uint256",
          "name": "",
          "type": "uint256"
        }
      ],
      "stateMutability": "view",
      "type": "function",
      "constant": true
    },
    {
      "inputs": [
        {
          "internalType": "address",
          "name": "_planter",
          "type": "address"
        }
      ],
      "name": "reducePlantedCount",
      "outputs": [],
      "stateMutability": "nonpayable",
      "type": "function"
    },
    {
      "inputs": [
        {
          "internalType": "address",
          "name": "_planter",
          "type": "address"
        }
      ],
      "name": "manageTreePermission",
      "outputs": [
        {
          "internalType": "bool",
          "name": "",
          "type": "bool"
        }
      ],
      "stateMutability": "nonpayable",
      "type": "function"
    },
    {
      "inputs": [
        {
          "internalType": "address",
          "name": "_planter",
          "type": "address"
        },
        {
          "internalType": "address",
          "name": "_verifier",
          "type": "address"
        }
      ],
      "name": "canVerify",
      "outputs": [
        {
          "internalType": "bool",
          "name": "",
          "type": "bool"
        }
      ],
      "stateMutability": "view",
      "type": "function",
      "constant": true
    },
    {
      "inputs": [
        {
          "internalType": "address",
          "name": "_planter",
          "type": "address"
        }
      ],
      "name": "canAssignTree",
      "outputs": [
        {
          "internalType": "bool",
          "name": "",
          "type": "bool"
        }
      ],
      "stateMutability": "view",
      "type": "function",
      "constant": true
    }
  ],
  "bytecode": "0x608060405234801561001057600080fd5b50612634806100206000396000f3fe608060405234801561001057600080fd5b50600436106101585760003560e01c806384e4e699116100c3578063d3a907d61161007c578063d3a907d614610398578063d6762c4a1461046c578063da7422281461047f578063dda4ad4714610492578063f1f8d7da146104a5578063fc5c2c7f146104ce57600080fd5b806384e4e699146102f457806394bfbff914610307578063a1f74f0e1461031a578063bd8e46941461032d578063c4d66de814610340578063c670d5c61461035357600080fd5b80634dbdb44a116101155780634dbdb44a14610241578063516849551461027a57806355c3a79e1461028d578063572b6c05146102a05780635eb5f4a1146102c85780637da0a877146102db57600080fd5b806303dc8deb1461015d5780630649d9301461018657806333fd9ea1146101995780633b4c9891146101ae5780633d9b75df146101ef578063486ff0cd14610202575b600080fd5b60005461017190600160b01b900460ff1681565b60405190151581526020015b60405180910390f35b6101716101943660046121e9565b6104e1565b6101ac6101a73660046121ce565b61067b565b005b6101d76101bc3660046121ce565b6004602052600090815260409020546001600160a01b031681565b6040516001600160a01b03909116815260200161017d565b6101716101fd3660046121ce565b6107a8565b604080518082018252601d81527f322e322e302b747265656a65722e6972656c6179726563697069656e740000006020820152905161017d9190612434565b61026c61024f3660046121e9565b600560209081526000928352604080842090915290825290205481565b60405190815260200161017d565b6101ac610288366004612253565b6107e4565b61017161029b3660046121e9565b610a29565b6101716102ae3660046121ce565b6000546201000090046001600160a01b0390811691161490565b6101ac6102d636600461221c565b610b20565b6000546101d7906201000090046001600160a01b031681565b6101ac6103023660046122a7565b610d55565b6101ac61031536600461227d565b611056565b6101716103283660046121ce565b6111e1565b6101ac61033b36600461231b565b611337565b6101ac61034e3660046121ce565b6116e1565b6103666103613660046121ce565b611848565b60405161017d949392919093151584526001600160a01b03928316602085015291166040830152606082015260800190565b6104106103a63660046121ce565b60026020526000908152604090205460ff8082169161010081049091169061ffff620100008204169063ffffffff6401000000008204811691600160401b8104821691600160601b8204169067ffffffffffffffff600160801b8204811691600160c01b90041688565b6040805160ff998a16815298909716602089015261ffff9095169587019590955263ffffffff928316606087015290821660808601521660a084015267ffffffffffffffff91821660c08401521660e08201526101000161017d565b6001546101d7906001600160a01b031681565b6101ac61048d3660046121ce565b611946565b6101ac6104a03660046123da565b611a2b565b6101d76104b33660046121ce565b6003602052600090815260409020546001600160a01b031681565b6101ac6104dc3660046123be565b611e35565b6001546000906001600160a01b031663ebe6a6f36104fd612129565b6040516001600160e01b031960e084901b1681526001600160a01b03909116600482015260240160006040518083038186803b15801561053c57600080fd5b505afa158015610550573d6000803e3d6000fd5b505050506001600160a01b0383166000908152600260205260409020805460ff161561066f57826001600160a01b0316846001600160a01b031614806105c15750805460ff1660031480156105c157506001600160a01b038481166000908152600460205260409020548116908416145b1561066f57805460ff6101009091041660011480156105f65750805463ffffffff600160401b82048116600160601b90920416105b1561066f5780546001908290600c9061061d908490600160601b900463ffffffff1661258a565b82546101009290920a63ffffffff8181021990931691831602179091558254600160401b81048216600160601b90910490911610905061066557805461ff0019166102001781555b6001915050610675565b60009150505b92915050565b6001600160a01b038116600090815260026020526040902054819060ff166106be5760405162461bcd60e51b81526004016106b590612489565b60405180910390fd5b6001546001600160a01b031663ebe6a6f36106d7612129565b6040516001600160e01b031960e084901b1681526001600160a01b03909116600482015260240160006040518083038186803b15801561071657600080fd5b505afa15801561072a573d6000803e3d6000fd5b505050506001600160a01b038216600090815260026020526040902080546001908290600c90610768908490600160601b900463ffffffff166125b2565b825461010092830a63ffffffff8181021990921692909116021790915582540460ff166002141590506107a357805461ff0019166101001781555b505050565b6001600160a01b0381166000908152600260205260408120805460ff61010090910416600114806107dd5750805460ff166002145b9392505050565b600260006107f0612129565b6001600160a01b0316815260208101919091526040016000205460ff1660021461085c5760405162461bcd60e51b815260206004820152601b60248201527f506c616e746572206973206e6f74206f7267616e697a6174696f6e000000000060448201526064016106b5565b6001600160a01b038216600090815260026020526040902054829060ff166108965760405162461bcd60e51b81526004016106b590612489565b6001600160a01b038316600090815260026020526040902054610100900460ff166108fc5760405162461bcd60e51b8152602060048201526016602482015275696e76616c696420706c616e7465722073746174757360501b60448201526064016106b5565b610904612129565b6001600160a01b0384811660009081526004602052604090205481169116146109675760405162461bcd60e51b815260206004820152601560248201527434b73b30b634b21034b7383aba10383630b73a32b960591b60448201526064016106b5565b61271182106109b85760405162461bcd60e51b815260206004820152601760248201527f696e76616c6964207061796d656e7420706f7274696f6e00000000000000000060448201526064016106b5565b81600560006109c5612129565b6001600160a01b0390811682526020808301939093526040918201600090812091881680825291845282902093909355519182527fafec87f3f5eafec8bf3e82ecc83c1a5c4e745339521735e5372b757d3905eeec910160405180910390a1505050565b6001600160a01b03808316600090815260026020526040808220549284168252812054909160ff908116916101009004166001821115610b15578060ff1660011480610a7857508060ff166002145b15610b15578160ff1660021415610ab1575050506001600160a01b03818116600090815260046020526040902054811690831614610675565b8160ff1660031415610b15576001600160a01b03808616600090815260046020526040808220548784168352912054821691161480610b0c57506001600160a01b038581166000908152600460205260409020548116908516145b92505050610675565b506000949350505050565b60026000610b2c612129565b6001600160a01b0316815260208101919091526040016000205460ff16600214610b985760405162461bcd60e51b815260206004820152601b60248201527f506c616e746572206973206e6f74206f7267616e697a6174696f6e000000000060448201526064016106b5565b6001600160a01b038216600090815260026020526040902054829060ff16610bd25760405162461bcd60e51b81526004016106b590612489565b610bda612129565b6001600160a01b0384811660009081526004602052604090205481169116148015610c2357506001600160a01b038316600090815260026020526040902054610100900460ff16155b610c7a5760405162461bcd60e51b815260206004820152602260248201527f506c616e746572206e6f742072657175657374206f72206e6f742070656e64696044820152616e6760f01b60648201526084016106b5565b6001600160a01b03831660009081526002602052604090208215610ce657805461ff0019166101001781556040516001600160a01b03851681527f051b4b22140b33d543a888666188b0b245a0bec5a5fbad9a7056a5466bad0f489060200160405180910390a1610d4f565b805461ffff19166101011781556001600160a01b03841660008181526004602090815260409182902080546001600160a01b031916905590519182527f79101b3eb6902749f086c56104914b9b6a60917c4a7bdccb2291d6d13d61468b91015b60405180910390a15b50505050565b6001546001600160a01b031663c4d2a31b610d6e612129565b6040516001600160e01b031960e084901b1681526001600160a01b03909116600482015260240160006040518083038186803b158015610dad57600080fd5b505afa158015610dc1573d6000803e3d6000fd5b505050506001600160a01b03861660009081526002602052604090205460ff16158015610e665750600154604051632ea8de7f60e01b81526001600160a01b03888116600483015290911690632ea8de7f9060240160206040518083038186803b158015610e2e57600080fd5b505afa158015610e42573d6000803e3d6000fd5b505050506040513d601f19601f82011682018060405250810190610e6691906123a1565b610e825760405162461bcd60e51b81526004016106b590612553565b6001600160a01b03811615610f7d57610e99612129565b6001600160a01b0316816001600160a01b031614158015610f325750600154604051632ea8de7f60e01b81526001600160a01b03838116600483015290911690632ea8de7f9060240160206040518083038186803b158015610efa57600080fd5b505afa158015610f0e573d6000803e3d6000fd5b505050506040513d601f19601f82011682018060405250810190610f3291906123a1565b610f4e5760405162461bcd60e51b81526004016106b5906124b9565b6001600160a01b03868116600090815260036020526040902080546001600160a01b0319169183169190911790555b6001600160a01b038616600081815260026020908152604091829020805461010263ffffffff199091166201000061ffff8a1602171777ffffffffffffffff00000000ffffffff00000000000000001916600160401b63ffffffff88160267ffffffffffffffff60801b191617600160801b67ffffffffffffffff8b811691909102919091176001600160c01b0316600160c01b918a1691909102178155915192835290917f0683c1983fc01a6c39efeeb42a844c7e32245a86701889a8113c677d17a1b243910160405180910390a150505050505050565b6001546001600160a01b031663c4d2a31b61106f612129565b6040516001600160e01b031960e084901b1681526001600160a01b03909116600482015260240160006040518083038186803b1580156110ae57600080fd5b505afa1580156110c2573d6000803e3d6000fd5b5050506001600160a01b03831660009081526002602052604090205483915060ff166111005760405162461bcd60e51b81526004016106b590612489565b6001600160a01b0383166000908152600260205260409020805463ffffffff600160601b90910481169084161161116d5760405162461bcd60e51b81526020600482015260116024820152700696e76616c696420737570706c7943617607c1b60448201526064016106b5565b805463ffffffff60401b1916600160401b63ffffffff85160217808255610100900460ff16600214156111a857805461ff0019166101001781555b6040516001600160a01b03851681527f4f4c4d7a603e71ff6fc5aca4b16d1aee54c290be7eb4b17a72535c562724ce7690602001610d46565b6001600160a01b038116600090815260026020526040812054829060ff1661121b5760405162461bcd60e51b81526004016106b590612489565b6001546001600160a01b031663ebe6a6f3611234612129565b6040516001600160e01b031960e084901b1681526001600160a01b03909116600482015260240160006040518083038186803b15801561127357600080fd5b505afa158015611287573d6000803e3d6000fd5b505050506001600160a01b03831660009081526002602052604090208054600161010090910460ff16141561132b5780546001908290600c906112d8908490600160601b900463ffffffff1661258a565b82546101009290920a63ffffffff8181021990931691831602179091558254600160401b81048216600160601b9091049091161415905061132157805461ff0019166102001781555b6001925050611331565b60009250505b50919050565b6001546001600160a01b031663c4d2a31b611350612129565b6040516001600160e01b031960e084901b1681526001600160a01b03909116600482015260240160006040518083038186803b15801561138f57600080fd5b505afa1580156113a3573d6000803e3d6000fd5b5050600154604051632ea8de7f60e01b81526001600160a01b038b811660048301529091169250632ea8de7f915060240160206040518083038186803b1580156113ec57600080fd5b505afa158015611400573d6000803e3d6000fd5b505050506040513d601f19601f8201168201806040525081019061142491906123a1565b801561144957506001600160a01b03871660009081526002602052604090205460ff16155b6114655760405162461bcd60e51b81526004016106b590612553565b8560ff166001148061147a57508560ff166003145b6114965760405162461bcd60e51b81526004016106b59061251c565b8560ff166003141561150d576001600160a01b03811660009081526002602081905260409091205460ff16146114de5760405162461bcd60e51b81526004016106b5906124e5565b6001600160a01b03878116600090815260046020526040902080546001600160a01b0319169183169190911790555b6001600160a01b0382161561160157866001600160a01b0316826001600160a01b0316141580156115b65750600154604051632ea8de7f60e01b81526001600160a01b03848116600483015290911690632ea8de7f9060240160206040518083038186803b15801561157e57600080fd5b505afa158015611592573d6000803e3d6000fd5b505050506040513d601f19601f820116820180604052508101906115b691906123a1565b6115d25760405162461bcd60e51b81526004016106b5906124b9565b6001600160a01b03878116600090815260036020526040902080546001600160a01b0319169184169190911790555b6001600160a01b038716600081815260026020908152604091829020805461010060ff8c1661ffff1990921691909117176bffffffff00000000ffff000019166201000061ffff89160263ffffffff60401b19161768640000000000000000176fffffffffffffffffffffffffffffffff16600160801b67ffffffffffffffff8b8116919091026001600160c01b031691909117600160c01b918a1691909102178155915192835290917f62e552a7fa5dc9fa8f99c995acac83e51a3f5f91af2dccd5c0da81697e86ec6f91015b60405180910390a15050505050505050565b600054610100900460ff16806116fa575060005460ff16155b61175d5760405162461bcd60e51b815260206004820152602e60248201527f496e697469616c697a61626c653a20636f6e747261637420697320616c72656160448201526d191e481a5b9a5d1a585b1a5e995960921b60648201526084016106b5565b600054610100900460ff1615801561177f576000805461ffff19166101011790555b6000829050806001600160a01b031663ba84fd696040518163ffffffff1660e01b815260040160206040518083038186803b1580156117bd57600080fd5b505afa1580156117d1573d6000803e3d6000fd5b505050506040513d601f19601f820116820180604052508101906117f591906123a1565b6117fe57600080fd5b6000805460ff60b01b1916600160b01b179055600180546001600160a01b039092166001600160a01b03199092169190911790558015611844576000805461ff00191690555b5050565b6001600160a01b0381166000908152600260205260408120805482918291829190610100900460ff16600414806118815750805460ff16155b1561189a5760008060008094509450945094505061193f565b805460ff16600114806118b15750805460ff166002145b806118c357508054610100900460ff16155b156118f5575050506001600160a01b03808416600090815260036020526040812054600194509092501661271061193f565b505050506001600160a01b03828116600081815260046020908152604080832054600383528184205490861680855260058452828520958552949092529091205460019450919216905b9193509193565b6001546001600160a01b0316638413ec1461195f612129565b6040516001600160e01b031960e084901b1681526001600160a01b03909116600482015260240160006040518083038186803b15801561199e57600080fd5b505afa1580156119b2573d6000803e3d6000fd5b5083925050506001600160a01b038116611a005760405162461bcd60e51b815260206004820152600f60248201526e696e76616c6964206164647265737360881b60448201526064016106b5565b50600080546001600160a01b03909216620100000262010000600160b01b0319909216919091179055565b6001546001600160a01b0316632ea8de7f611a44612129565b6040516001600160e01b031960e084901b1681526001600160a01b03909116600482015260240160206040518083038186803b158015611a8357600080fd5b505afa158015611a97573d6000803e3d6000fd5b505050506040513d601f19601f82011682018060405250810190611abb91906123a1565b8015611aed575060026000611ace612129565b6001600160a01b0316815260208101919091526040016000205460ff16155b611b095760405162461bcd60e51b81526004016106b590612553565b8560ff1660011480611b1e57508560ff166003145b611b3a5760405162461bcd60e51b81526004016106b59061251c565b8560ff1660031415611b82576001600160a01b03811660009081526002602081905260409091205460ff1614611b825760405162461bcd60e51b81526004016106b5906124e5565b6001600160a01b03821615611c8d57611b99612129565b6001600160a01b0316826001600160a01b031614158015611c325750600154604051632ea8de7f60e01b81526001600160a01b03848116600483015290911690632ea8de7f9060240160206040518083038186803b158015611bfa57600080fd5b505afa158015611c0e573d6000803e3d6000fd5b505050506040513d601f19601f82011682018060405250810190611c3291906123a1565b611c4e5760405162461bcd60e51b81526004016106b5906124b9565b8160036000611c5b612129565b6001600160a01b039081168252602082019290925260400160002080546001600160a01b031916929091169190911790555b6001600360ff88161415611cf1578160046000611ca8612129565b6001600160a01b03166001600160a01b0316815260200190815260200160002060006101000a8154816001600160a01b0302191690836001600160a01b03160217905550600090505b600060026000611cff612129565b6001600160a01b03166001600160a01b031681526020019081526020016000209050878160000160006101000a81548160ff021916908360ff160217905550818160000160016101000a81548160ff021916908360ff160217905550848160000160026101000a81548161ffff021916908361ffff16021790555060648160000160086101000a81548163ffffffff021916908363ffffffff160217905550868160000160106101000a81548167ffffffffffffffff021916908367ffffffffffffffff160217905550858160000160186101000a81548167ffffffffffffffff021916908367ffffffffffffffff1602179055507f62e552a7fa5dc9fa8f99c995acac83e51a3f5f91af2dccd5c0da81697e86ec6f611e1d612129565b6040516001600160a01b0390911681526020016116cf565b611e3d612129565b6001600160a01b03811660009081526002602052604090205460ff16611e755760405162461bcd60e51b81526004016106b590612489565b8260ff1660011480611e8a57508260ff166003145b611ea65760405162461bcd60e51b81526004016106b59061251c565b600060026000611eb4612129565b6001600160a01b0316815260208101919091526040016000208054909150610100900460ff161580611ef05750805460ff610100909104166001145b611f355760405162461bcd60e51b8152602060048201526016602482015275696e76616c696420706c616e7465722073746174757360501b60448201526064016106b5565b805460ff1660021415611f8a5760405162461bcd60e51b815260206004820152601d60248201527f43616c6c6572206973206f7267616e697a6174696f6e506c616e74657200000060448201526064016106b5565b8360ff166003141561201e576001600160a01b03831660009081526002602081905260409091205460ff1614611fd25760405162461bcd60e51b81526004016106b5906124e5565b8260046000611fdf612129565b6001600160a01b039081168252602082019290925260400160002080546001600160a01b03191692909116919091179055805461ff00191681556120db565b805460ff166003146120725760405162461bcd60e51b815260206004820152601d60248201527f696e76616c696420706c616e7465725479706520696e206368616e676500000060448201526064016106b5565b805460ff16600314156120bf5760006004600061208d612129565b6001600160a01b039081168252602082019290925260400160002080546001600160a01b031916929091169190911790555b8054610100900460ff166120db57805461ff0019166101001781555b805460ff191660ff85161781557f4f4c4d7a603e71ff6fc5aca4b16d1aee54c290be7eb4b17a72535c562724ce76612111612129565b6040516001600160a01b039091168152602001610d46565b60006014361080159061214c57506000546201000090046001600160a01b031633145b1561215e575060131936013560601c90565b503390565b80356001600160a01b038116811461217a57600080fd5b919050565b803561ffff8116811461217a57600080fd5b803563ffffffff8116811461217a57600080fd5b803567ffffffffffffffff8116811461217a57600080fd5b803560ff8116811461217a57600080fd5b6000602082840312156121e057600080fd5b6107dd82612163565b600080604083850312156121fc57600080fd5b61220583612163565b915061221360208401612163565b90509250929050565b6000806040838503121561222f57600080fd5b61223883612163565b91506020830135612248816125ed565b809150509250929050565b6000806040838503121561226657600080fd5b61226f83612163565b946020939093013593505050565b6000806040838503121561229057600080fd5b61229983612163565b915061221360208401612191565b60008060008060008060c087890312156122c057600080fd5b6122c987612163565b95506122d7602088016121a5565b94506122e5604088016121a5565b93506122f36060880161217f565b925061230160808801612191565b915061230f60a08801612163565b90509295509295509295565b600080600080600080600060e0888a03121561233657600080fd5b61233f88612163565b965061234d602089016121bd565b955061235b604089016121a5565b9450612369606089016121a5565b93506123776080890161217f565b925061238560a08901612163565b915061239360c08901612163565b905092959891949750929550565b6000602082840312156123b357600080fd5b81516107dd816125ed565b600080604083850312156123d157600080fd5b612205836121bd565b60008060008060008060c087890312156123f357600080fd5b6123fc876121bd565b955061240a602088016121a5565b9450612418604088016121a5565b93506124266060880161217f565b925061230160808801612163565b600060208083528351808285015260005b8181101561246157858101830151858201604001528201612445565b81811115612473576000604083870101525b50601f01601f1916929092016040019392505050565b6020808252601690820152751c1b185b9d195c88191bd95cc81b9bdd08195e1a5cdd60521b604082015260600190565b602080825260129082015271696e76697465644279206e6f74207472756560701b604082015260600190565b6020808252601e908201527f6f7267616e697a6174696f6e2061646472657373206e6f742076616c69640000604082015260600190565b6020808252601e908201527f706c616e74657254797065206e6f7420616c6c6f7765642076616c7565730000604082015260600190565b60208082526019908201527f55736572206578697374206f72206e6f7420706c616e74657200000000000000604082015260600190565b600063ffffffff8083168185168083038211156125a9576125a96125d7565b01949350505050565b600063ffffffff838116908316818110156125cf576125cf6125d7565b039392505050565b634e487b7160e01b600052601160045260246000fd5b80151581146125fb57600080fd5b5056fea2646970667358221220a76064342942be358f0c301c0ad0ebe590f042be6bb4b606228024db95946ff564736f6c63430008060033",
  "immutableReferences": {},
  "source": "// SPDX-License-Identifier: GPL-3.0\n\npragma solidity ^0.8.6;\n\nimport \"@openzeppelin/contracts-upgradeable/proxy/utils/Initializable.sol\";\n\nimport \"@openzeppelin/contracts-upgradeable/utils/math/SafeCastUpgradeable.sol\";\nimport \"../access/IAccessRestriction.sol\";\nimport \"../gsn/RelayRecipient.sol\";\n\n/** @title Planter contract */\ncontract Planter is Initializable, RelayRecipient {\n    using SafeCastUpgradeable for uint256;\n\n    /** NOTE {isPlanter} set inside the initialize to {true} */\n    bool public isPlanter;\n\n    IAccessRestriction public accessRestriction;\n\n    struct PlanterData {\n        uint8 planterType;\n        uint8 status;\n        uint16 countryCode;\n        uint32 score;\n        uint32 supplyCap;\n        uint32 plantedCount;\n        uint64 longitude;\n        uint64 latitude;\n    }\n\n    /** NOTE mapping of planterAddress to PlanterData */\n    mapping(address => PlanterData) public planters;\n\n    /** NOTE mapping of planterAddress to address of invitedBy */\n    mapping(address => address) public invitedBy;\n\n    /** NOTE mapping of planterAddress to organizationAddress that planter is member of it */\n    mapping(address => address) public memberOf;\n\n    /** NOTE mapping of organizationAddress to mapping of planterAddress to portionValue */\n    mapping(address => mapping(address => uint256))\n        public organizationMemberShare;\n\n    event PlanterJoined(address planter);\n    event OrganizationJoined(address organization);\n    event PlanterUpdated(address planter);\n    event AcceptedByOrganization(address planter);\n    event RejectedByOrganization(address planter);\n    event OrganizationMemberShareUpdated(address planter);\n\n    /** NOTE modifier to check msg.sender has admin role */\n    modifier onlyAdmin() {\n        accessRestriction.ifAdmin(_msgSender());\n        _;\n    }\n\n    /** NOTE modifier to check msg.sender has data manager role */\n    modifier onlyDataManager() {\n        accessRestriction.ifDataManager(_msgSender());\n        _;\n    }\n\n    /** NOTE modifier for check _planter is exist*/\n    modifier existPlanter(address _planter) {\n        require(planters[_planter].planterType > 0, \"planter does not exist\");\n        _;\n    }\n\n    /** NOTE modifier for check valid address */\n    modifier validAddress(address _address) {\n        require(_address != address(0), \"invalid address\");\n        _;\n    }\n\n    /** NOTE modifier for check msg.sender planterType is organization*/\n    modifier onlyOrganization() {\n        require(\n            planters[_msgSender()].planterType == 2,\n            \"Planter is not organization\"\n        );\n        _;\n    }\n\n    /** NOTE modifier for check msg.sender has TreejerContract role*/\n    modifier onlyTreejerContract() {\n        accessRestriction.ifTreejerContract(_msgSender());\n        _;\n    }\n\n    /**\n     * @dev initialize accessRestriction contract and set true for isPlanter\n     * @param _accessRestrictionAddress set to the address of accessRestriction contract\n     */\n    function initialize(address _accessRestrictionAddress)\n        external\n        initializer\n    {\n        IAccessRestriction candidateContract = IAccessRestriction(\n            _accessRestrictionAddress\n        );\n        require(candidateContract.isAccessRestriction());\n        isPlanter = true;\n        accessRestriction = candidateContract;\n    }\n\n    /**\n     * @dev set trusted forwarder address\n     * @param _address set to {trustedForwarder}\n     */\n    function setTrustedForwarder(address _address)\n        external\n        onlyAdmin\n        validAddress(_address)\n    {\n        trustedForwarder = _address;\n    }\n\n    /**\n     * @dev based on {_planterType} a planter can join as individual planter or\n     * member of an organization\n     * @param _planterType 1 for individual and 3 for member of organization\n     * @param _longitude longitude value\n     * @param _latitude latitude value\n     * @param _countryCode country code\n     * @param _invitedBy address of referral\n     * @param _organization address of organization to be member of\n     * NOTE if join as a member of an organization, when that organization\n     * accept planter, planter status set to active\n     */\n    function join(\n        uint8 _planterType,\n        uint64 _longitude,\n        uint64 _latitude,\n        uint16 _countryCode,\n        address _invitedBy,\n        address _organization\n    ) external {\n        require(\n            accessRestriction.isPlanter(_msgSender()) &&\n                planters[_msgSender()].planterType == 0,\n            \"User exist or not planter\"\n        );\n\n        require(\n            _planterType == 1 || _planterType == 3,\n            \"planterType not allowed values\"\n        );\n\n        if (_planterType == 3) {\n            require(\n                planters[_organization].planterType == 2,\n                \"organization address not valid\"\n            );\n        }\n\n        if (_invitedBy != address(0)) {\n            require(\n                _invitedBy != _msgSender() &&\n                    accessRestriction.isPlanter(_invitedBy),\n                \"invitedBy not true\"\n            );\n\n            invitedBy[_msgSender()] = _invitedBy;\n        }\n\n        uint8 status = 1;\n\n        if (_planterType == 3) {\n            memberOf[_msgSender()] = _organization;\n            status = 0;\n        }\n\n        PlanterData storage planterData = planters[_msgSender()];\n\n        planterData.planterType = _planterType;\n        planterData.status = status;\n        planterData.countryCode = _countryCode;\n        planterData.supplyCap = 100;\n        planterData.longitude = _longitude;\n        planterData.latitude = _latitude;\n\n        emit PlanterJoined(_msgSender());\n    }\n\n    //TODO: ADD_COMMENT\n    function joinByAdmin(\n        address _planter,\n        uint8 _planterType,\n        uint64 _longitude,\n        uint64 _latitude,\n        uint16 _countryCode,\n        address _invitedBy,\n        address _organization\n    ) external onlyDataManager {\n        require(\n            accessRestriction.isPlanter(_planter) &&\n                planters[_planter].planterType == 0,\n            \"User exist or not planter\"\n        );\n\n        require(\n            _planterType == 1 || _planterType == 3,\n            \"planterType not allowed values\"\n        );\n\n        if (_planterType == 3) {\n            require(\n                planters[_organization].planterType == 2,\n                \"organization address not valid\"\n            );\n\n            memberOf[_planter] = _organization;\n        }\n\n        if (_invitedBy != address(0)) {\n            require(\n                _invitedBy != _planter &&\n                    accessRestriction.isPlanter(_invitedBy),\n                \"invitedBy not true\"\n            );\n\n            invitedBy[_planter] = _invitedBy;\n        }\n\n        PlanterData storage planterData = planters[_planter];\n\n        planterData.planterType = _planterType;\n        planterData.status = 1;\n        planterData.countryCode = _countryCode;\n        planterData.supplyCap = 100;\n        planterData.longitude = _longitude;\n        planterData.latitude = _latitude;\n\n        emit PlanterJoined(_planter);\n    }\n\n    /**\n     * @dev admin add a plater as organization (planterType 2) so planterType 3\n     * can be member of these planters.\n     * @param _organization address of organization planter\n     * @param _longitude longitude value\n     * @param _latitude latitude value\n     * @param _countryCode country code\n     * @param _supplyCap plant supplyCap of organization planter\n     * @param _invitedBy address of referral\n     */\n    function joinOrganization(\n        address _organization,\n        uint64 _longitude,\n        uint64 _latitude,\n        uint16 _countryCode,\n        uint32 _supplyCap,\n        address _invitedBy\n    ) external onlyDataManager {\n        require(\n            planters[_organization].planterType == 0 &&\n                accessRestriction.isPlanter(_organization),\n            \"User exist or not planter\"\n        );\n\n        if (_invitedBy != address(0)) {\n            require(\n                _invitedBy != _msgSender() &&\n                    accessRestriction.isPlanter(_invitedBy),\n                \"invitedBy not true\"\n            );\n\n            invitedBy[_organization] = _invitedBy;\n        }\n\n        PlanterData storage planterData = planters[_organization];\n\n        planterData.planterType = 2;\n        planterData.status = 1;\n        planterData.countryCode = _countryCode;\n        planterData.supplyCap = _supplyCap;\n        planterData.longitude = _longitude;\n        planterData.latitude = _latitude;\n\n        emit OrganizationJoined(_organization);\n    }\n\n    //TODO:remove this function??\n\n    /**\n     * @dev planter with planterType 1 , 3 can update their planterType using this\n     * function.\n     * planterType 3 (member of organization) can change to\n     * planterType 1 (individual planter) with input value {_planterType}\n     * of 1 and zeroAddress as {_organization}\n     * or choose other organization to be member of with\n     * input value {_planterType} of 3 and {_organization}.\n     * planterType 1 can only change to planterType 3 with input value\n     * {_planter} of 3 and {_organization}\n     * if planter planterType 3 choose another oraganization\n     * or planterType 1 chage to planterType 3, they must be accepted by the\n     * organization to be an active planter\n     */\n    function updatePlanterType(uint8 _planterType, address _organization)\n        external\n        existPlanter(_msgSender())\n    {\n        require(\n            _planterType == 1 || _planterType == 3,\n            \"planterType not allowed values\"\n        );\n\n        PlanterData storage planterData = planters[_msgSender()];\n\n        require(\n            planterData.status == 0 || planterData.status == 1,\n            \"invalid planter status\"\n        );\n\n        require(planterData.planterType != 2, \"Caller is organizationPlanter\");\n\n        if (_planterType == 3) {\n            require(\n                planters[_organization].planterType == 2,\n                \"organization address not valid\"\n            );\n\n            memberOf[_msgSender()] = _organization;\n\n            planterData.status = 0;\n        } else {\n            require(\n                planterData.planterType == 3,\n                \"invalid planterType in change\"\n            );\n\n            if (planterData.planterType == 3) {\n                memberOf[_msgSender()] = address(0);\n            }\n\n            if (planterData.status == 0) {\n                planterData.status = 1;\n            }\n        }\n\n        planterData.planterType = _planterType;\n\n        emit PlanterUpdated(_msgSender());\n    }\n\n    /** @dev organization can accept planter to be it's member or reject\n     * @param _planter address of planter\n     * @param _acceptance accept or reject\n     */\n    function acceptPlanterByOrganization(address _planter, bool _acceptance)\n        external\n        onlyOrganization\n        existPlanter(_planter)\n    {\n        require(\n            memberOf[_planter] == _msgSender() &&\n                planters[_planter].status == 0,\n            \"Planter not request or not pending\"\n        );\n\n        PlanterData storage planterData = planters[_planter];\n\n        if (_acceptance) {\n            planterData.status = 1;\n\n            emit AcceptedByOrganization(_planter);\n        } else {\n            planterData.status = 1;\n            planterData.planterType = 1;\n            memberOf[_planter] = address(0);\n\n            emit RejectedByOrganization(_planter);\n        }\n    }\n\n    /** @dev admin update supplyCap of planter {_planter}\n     * @param _planter address of planter to update supplyCap\n     * @param _supplyCap supplyCap that set to planter supplyCap\n     */\n    function updateSupplyCap(address _planter, uint32 _supplyCap)\n        external\n        onlyDataManager\n        existPlanter(_planter)\n    {\n        PlanterData storage planterData = planters[_planter];\n        require(_supplyCap > planterData.plantedCount, \"invalid supplyCap\");\n        planterData.supplyCap = _supplyCap;\n        if (planterData.status == 2) {\n            planterData.status = 1;\n        }\n        emit PlanterUpdated(_planter);\n    }\n\n    /** @dev return if a planter can plant a tree and increase planter plantedCount 1 time.\n     * @param _planter address of planter who want to plant tree\n     * @param _assignedPlanterAddress address of planter that tree assigned to\n     * @return if a planter can plant a tree or not\n     */\n    function manageAssignedTreePermission(\n        address _planter,\n        address _assignedPlanterAddress\n    ) external onlyTreejerContract returns (bool) {\n        PlanterData storage planterData = planters[_planter];\n        if (planterData.planterType > 0) {\n            if (\n                _planter == _assignedPlanterAddress ||\n                (planterData.planterType == 3 &&\n                    memberOf[_planter] == _assignedPlanterAddress)\n            ) {\n                if (\n                    planterData.status == 1 &&\n                    planterData.plantedCount < planterData.supplyCap\n                ) {\n                    planterData.plantedCount += 1;\n\n                    if (planterData.plantedCount >= planterData.supplyCap) {\n                        planterData.status = 2;\n                    }\n                    return true;\n                }\n            }\n        }\n\n        return false;\n    }\n\n    /** @dev oragnization can update planterPayment rules of it's members\n     * @param _planter address of planter\n     * @param _organizationMemberShareAmount payment portion value\n     * NOTE only organization (planterType = 2) can call this function\n     */\n    function updateOrganizationMemberShare(\n        address _planter,\n        uint256 _organizationMemberShareAmount\n    ) external onlyOrganization existPlanter(_planter) {\n        require(planters[_planter].status > 0, \"invalid planter status\");\n        require(memberOf[_planter] == _msgSender(), \"invalid input planter\");\n        require(\n            _organizationMemberShareAmount < 10001,\n            \"invalid payment portion\"\n        );\n\n        organizationMemberShare[_msgSender()][\n            _planter\n        ] = _organizationMemberShareAmount;\n\n        emit OrganizationMemberShareUpdated(_planter);\n    }\n\n    /** @dev return planter paymentPortion for an accepted organizationPlanter\n     * @param _planter address of planter to get payment portion\n     * @return {true} as first param in valid planter case and seccond param is\n     * address of organization that {_planter} is member of it.\n     * and third param is address of referral and the last one is portion value\n     */\n    function getOrganizationMemberData(address _planter)\n        external\n        view\n        returns (\n            bool,\n            address,\n            address,\n            uint256\n        )\n    {\n        PlanterData storage planterData = planters[_planter];\n        if (planterData.status == 4 || planterData.planterType == 0) {\n            return (false, address(0), address(0), 0);\n        } else {\n            if (\n                planterData.planterType == 1 ||\n                planterData.planterType == 2 ||\n                planterData.status == 0\n            ) {\n                return (true, address(0), invitedBy[_planter], 10000);\n            } else {\n                return (\n                    true,\n                    memberOf[_planter],\n                    invitedBy[_planter],\n                    organizationMemberShare[memberOf[_planter]][_planter]\n                );\n            }\n        }\n    }\n\n    /** @dev when tree plant of {_planter} rejected, plantedCount of {_planter}\n     * must reduce 1 time and if planter status is full supplyCap {2} update it to active {1}\n     * @param _planter address of planter\n     * NOTE only treeFactory contract can call this function\n     */\n    function reducePlantedCount(address _planter)\n        external\n        existPlanter(_planter)\n        onlyTreejerContract\n    {\n        PlanterData storage planterData = planters[_planter];\n\n        planterData.plantedCount -= 1;\n\n        if (planterData.status == 2) {\n            planterData.status = 1;\n        }\n    }\n\n    /** @dev check that planter {_planter} can plant regular tree\n     * @param _planter address of planter\n     * NOTE treeFactory contract can call this function\n     * NOTE change status to full supplyCap if plantedCount be equal with\n     * planter supplyCap after increase plantedCount by 1\n     * @return true in case of planter status is active {1}\n     */\n    function manageTreePermission(address _planter)\n        external\n        existPlanter(_planter)\n        onlyTreejerContract\n        returns (bool)\n    {\n        PlanterData storage planterData = planters[_planter];\n\n        if (planterData.status == 1) {\n            planterData.plantedCount += 1;\n\n            if (planterData.plantedCount == planterData.supplyCap) {\n                planterData.status = 2;\n            }\n            return true;\n        }\n        return false;\n    }\n\n    /** @dev check that {_verifier} can verify plant or update requests of {_planter}\n     * @param _planter address of planter\n     * @param _verifier address of verifier\n     * @return true in case of {_verifier} can verify {_planter} and false otherwise\n     */\n    function canVerify(address _planter, address _verifier)\n        external\n        view\n        returns (bool)\n    {\n        uint8 planterType = planters[_planter].planterType;\n\n        uint8 verifierStatus = planters[_verifier].status;\n\n        if (planterType > 1) {\n            if (verifierStatus == 1 || verifierStatus == 2) {\n                if (planterType == 2) {\n                    return memberOf[_verifier] == _planter;\n                } else if (planterType == 3) {\n                    return\n                        memberOf[_verifier] == memberOf[_planter] ||\n                        memberOf[_planter] == _verifier;\n                }\n            }\n        }\n        return false;\n    }\n\n    /** @dev check allowance to assign tree to planter {_planter}\n     * @param _planter address of assignee planter\n     * @return true in case of active planter or orgnization planter and false otherwise\n     */\n    function canAssignTree(address _planter) external view returns (bool) {\n        PlanterData storage planterData = planters[_planter];\n\n        return planterData.status == 1 || planterData.planterType == 2;\n    }\n}\n",
  "sourcePath": "/media/ali/New Volume/treejer/contract/contracts/planter/Planter.sol",
  "compiler": {
    "name": "solc",
    "version": "0.8.6+commit.11564f7e.Emscripten.clang"
  },
  "schemaVersion": "3.4.1",
  "updatedAt": "2021-10-12T15:17:07.378Z",
  "networkType": "ethereum",
  "devdoc": {
    "kind": "dev",
    "methods": {
      "acceptPlanterByOrganization(address,bool)": {
        "details": "organization can accept planter to be it's member or reject",
        "params": {
          "_acceptance": "accept or reject",
          "_planter": "address of planter"
        }
      },
      "canAssignTree(address)": {
        "details": "check allowance to assign tree to planter {_planter}",
        "params": {
          "_planter": "address of assignee planter"
        },
        "returns": {
          "_0": "true in case of active planter or orgnization planter and false otherwise"
        }
      },
      "canVerify(address,address)": {
        "details": "check that {_verifier} can verify plant or update requests of {_planter}",
        "params": {
          "_planter": "address of planter",
          "_verifier": "address of verifier"
        },
        "returns": {
          "_0": "true in case of {_verifier} can verify {_planter} and false otherwise"
        }
      },
      "getOrganizationMemberData(address)": {
        "details": "return planter paymentPortion for an accepted organizationPlanter",
        "params": {
          "_planter": "address of planter to get payment portion"
        },
        "returns": {
          "_0": "{true} as first param in valid planter case and seccond param is address of organization that {_planter} is member of it. and third param is address of referral and the last one is portion value"
        }
      },
      "initialize(address)": {
        "details": "initialize accessRestriction contract and set true for isPlanter",
        "params": {
          "_accessRestrictionAddress": "set to the address of accessRestriction contract"
        }
      },
      "join(uint8,uint64,uint64,uint16,address,address)": {
        "details": "based on {_planterType} a planter can join as individual planter or member of an organization",
        "params": {
          "_countryCode": "country code",
          "_invitedBy": "address of referral",
          "_latitude": "latitude value",
          "_longitude": "longitude value",
          "_organization": "address of organization to be member of NOTE if join as a member of an organization, when that organization accept planter, planter status set to active",
          "_planterType": "1 for individual and 3 for member of organization"
        }
      },
      "joinOrganization(address,uint64,uint64,uint16,uint32,address)": {
        "details": "admin add a plater as organization (planterType 2) so planterType 3 can be member of these planters.",
        "params": {
          "_countryCode": "country code",
          "_invitedBy": "address of referral",
          "_latitude": "latitude value",
          "_longitude": "longitude value",
          "_organization": "address of organization planter",
          "_supplyCap": "plant supplyCap of organization planter"
        }
      },
      "manageAssignedTreePermission(address,address)": {
        "details": "return if a planter can plant a tree and increase planter plantedCount 1 time.",
        "params": {
          "_assignedPlanterAddress": "address of planter that tree assigned to",
          "_planter": "address of planter who want to plant tree"
        },
        "returns": {
          "_0": "if a planter can plant a tree or not"
        }
      },
      "manageTreePermission(address)": {
        "details": "check that planter {_planter} can plant regular tree",
        "params": {
          "_planter": "address of planter NOTE treeFactory contract can call this function NOTE change status to full supplyCap if plantedCount be equal with planter supplyCap after increase plantedCount by 1"
        },
        "returns": {
          "_0": "true in case of planter status is active {1}"
        }
      },
      "reducePlantedCount(address)": {
        "details": "when tree plant of {_planter} rejected, plantedCount of {_planter} must reduce 1 time and if planter status is full supplyCap {2} update it to active {1}",
        "params": {
          "_planter": "address of planter NOTE only treeFactory contract can call this function"
        }
      },
      "setTrustedForwarder(address)": {
        "details": "set trusted forwarder address",
        "params": {
          "_address": "set to {trustedForwarder}"
        }
      },
      "updateOrganizationMemberShare(address,uint256)": {
        "details": "oragnization can update planterPayment rules of it's members",
        "params": {
          "_organizationMemberShareAmount": "payment portion value NOTE only organization (planterType = 2) can call this function",
          "_planter": "address of planter"
        }
      },
      "updatePlanterType(uint8,address)": {
        "details": "planter with planterType 1 , 3 can update their planterType using this function. planterType 3 (member of organization) can change to planterType 1 (individual planter) with input value {_planterType} of 1 and zeroAddress as {_organization} or choose other organization to be member of with input value {_planterType} of 3 and {_organization}. planterType 1 can only change to planterType 3 with input value {_planter} of 3 and {_organization} if planter planterType 3 choose another oraganization or planterType 1 chage to planterType 3, they must be accepted by the organization to be an active planter"
      },
      "updateSupplyCap(address,uint32)": {
        "details": "admin update supplyCap of planter {_planter}",
        "params": {
          "_planter": "address of planter to update supplyCap",
          "_supplyCap": "supplyCap that set to planter supplyCap"
        }
      },
      "versionRecipient()": {
        "details": "return version recipient "
      }
    },
    "title": "Planter contract ",
    "version": 1
  },
  "userdoc": {
    "kind": "user",
    "methods": {
      "invitedBy(address)": {
        "notice": "NOTE mapping of planterAddress to address of invitedBy "
      },
      "isPlanter()": {
        "notice": "NOTE {isPlanter} set inside the initialize to {true} "
      },
      "isTrustedForwarder(address)": {
        "notice": "return if the forwarder is trusted to forward relayed transactions to us. the forwarder is required to verify the sender's signature, and verify the call is not a replay."
      },
      "memberOf(address)": {
        "notice": "NOTE mapping of planterAddress to organizationAddress that planter is member of it "
      },
      "organizationMemberShare(address,address)": {
        "notice": "NOTE mapping of organizationAddress to mapping of planterAddress to portionValue "
      },
      "planters(address)": {
        "notice": "NOTE mapping of planterAddress to PlanterData "
      }
    },
    "version": 1
  }
}