{
  "contractName": "PlanterFund",
  "abi": [
    {
      "anonymous": false,
      "inputs": [
        {
          "indexed": false,
          "internalType": "uint256",
          "name": "amount",
          "type": "uint256"
        },
        {
          "indexed": false,
          "internalType": "address",
          "name": "account",
          "type": "address"
        }
      ],
      "name": "BalanceWithdrew",
      "type": "event"
    },
    {
      "anonymous": false,
      "inputs": [],
      "name": "MinWithdrawableAmountUpdated",
      "type": "event"
    },
    {
      "anonymous": false,
      "inputs": [
        {
          "indexed": false,
          "internalType": "uint256",
          "name": "treeId",
          "type": "uint256"
        },
        {
          "indexed": false,
          "internalType": "address",
          "name": "planter",
          "type": "address"
        },
        {
          "indexed": false,
          "internalType": "uint256",
          "name": "amount",
          "type": "uint256"
        },
        {
          "indexed": false,
          "internalType": "address",
          "name": "ambassador",
          "type": "address"
        }
      ],
      "name": "PlanterTotalClaimedUpdated",
      "type": "event"
    },
    {
      "anonymous": false,
      "inputs": [
        {
          "indexed": false,
          "internalType": "uint256",
          "name": "treeId",
          "type": "uint256"
        },
        {
          "indexed": false,
          "internalType": "uint256",
          "name": "planterAmount",
          "type": "uint256"
        },
        {
          "indexed": false,
          "internalType": "uint256",
          "name": "ambassadorAmount",
          "type": "uint256"
        }
      ],
      "name": "ProjectedEarningUpdated",
      "type": "event"
    },
    {
      "inputs": [],
      "name": "accessRestriction",
      "outputs": [
        {
          "internalType": "contract IAccessRestriction",
          "name": "",
          "type": "address"
        }
      ],
      "stateMutability": "view",
      "type": "function",
      "constant": true
    },
    {
      "inputs": [
        {
          "internalType": "address",
          "name": "",
          "type": "address"
        }
      ],
      "name": "balances",
      "outputs": [
        {
          "internalType": "uint256",
          "name": "",
          "type": "uint256"
        }
      ],
      "stateMutability": "view",
      "type": "function",
      "constant": true
    },
    {
      "inputs": [],
      "name": "daiToken",
      "outputs": [
        {
          "internalType": "contract IERC20Upgradeable",
          "name": "",
          "type": "address"
        }
      ],
      "stateMutability": "view",
      "type": "function",
      "constant": true
    },
    {
      "inputs": [],
      "name": "isPlanterFund",
      "outputs": [
        {
          "internalType": "bool",
          "name": "",
          "type": "bool"
        }
      ],
      "stateMutability": "view",
      "type": "function",
      "constant": true
    },
    {
      "inputs": [
        {
          "internalType": "address",
          "name": "forwarder",
          "type": "address"
        }
      ],
      "name": "isTrustedForwarder",
      "outputs": [
        {
          "internalType": "bool",
          "name": "",
          "type": "bool"
        }
      ],
      "stateMutability": "view",
      "type": "function",
      "constant": true
    },
    {
      "inputs": [],
      "name": "minWithdrawable",
      "outputs": [
        {
          "internalType": "uint256",
          "name": "",
          "type": "uint256"
        }
      ],
      "stateMutability": "view",
      "type": "function",
      "constant": true
    },
    {
      "inputs": [],
      "name": "planterContract",
      "outputs": [
        {
          "internalType": "contract IPlanter",
          "name": "",
          "type": "address"
        }
      ],
      "stateMutability": "view",
      "type": "function",
      "constant": true
    },
    {
      "inputs": [],
      "name": "totalBalances",
      "outputs": [
        {
          "internalType": "uint256",
          "name": "planter",
          "type": "uint256"
        },
        {
          "internalType": "uint256",
          "name": "ambassador",
          "type": "uint256"
        },
        {
          "internalType": "uint256",
          "name": "localDevelopment",
          "type": "uint256"
        }
      ],
      "stateMutability": "view",
      "type": "function",
      "constant": true
    },
    {
      "inputs": [
        {
          "internalType": "uint256",
          "name": "",
          "type": "uint256"
        }
      ],
      "name": "treeToAmbassadorProjectedEarning",
      "outputs": [
        {
          "internalType": "uint256",
          "name": "",
          "type": "uint256"
        }
      ],
      "stateMutability": "view",
      "type": "function",
      "constant": true
    },
    {
      "inputs": [
        {
          "internalType": "uint256",
          "name": "",
          "type": "uint256"
        }
      ],
      "name": "treeToPlanterProjectedEarning",
      "outputs": [
        {
          "internalType": "uint256",
          "name": "",
          "type": "uint256"
        }
      ],
      "stateMutability": "view",
      "type": "function",
      "constant": true
    },
    {
      "inputs": [
        {
          "internalType": "uint256",
          "name": "",
          "type": "uint256"
        }
      ],
      "name": "treeToPlanterTotalClaimed",
      "outputs": [
        {
          "internalType": "uint256",
          "name": "",
          "type": "uint256"
        }
      ],
      "stateMutability": "view",
      "type": "function",
      "constant": true
    },
    {
      "inputs": [],
      "name": "trustedForwarder",
      "outputs": [
        {
          "internalType": "address",
          "name": "",
          "type": "address"
        }
      ],
      "stateMutability": "view",
      "type": "function",
      "constant": true
    },
    {
      "inputs": [],
      "name": "versionRecipient",
      "outputs": [
        {
          "internalType": "string",
          "name": "",
          "type": "string"
        }
      ],
      "stateMutability": "pure",
      "type": "function",
      "constant": true
    },
    {
      "inputs": [
        {
          "internalType": "address",
          "name": "_accessRestrictionAddress",
          "type": "address"
        }
      ],
      "name": "initialize",
      "outputs": [],
      "stateMutability": "nonpayable",
      "type": "function"
    },
    {
      "inputs": [
        {
          "internalType": "address",
          "name": "_address",
          "type": "address"
        }
      ],
      "name": "setTrustedForwarder",
      "outputs": [],
      "stateMutability": "nonpayable",
      "type": "function"
    },
    {
      "inputs": [
        {
          "internalType": "address",
          "name": "_address",
          "type": "address"
        }
      ],
      "name": "setPlanterContractAddress",
      "outputs": [],
      "stateMutability": "nonpayable",
      "type": "function"
    },
    {
      "inputs": [
        {
          "internalType": "address",
          "name": "_address",
          "type": "address"
        }
      ],
      "name": "setDaiTokenAddress",
      "outputs": [],
      "stateMutability": "nonpayable",
      "type": "function"
    },
    {
      "inputs": [
        {
          "internalType": "uint256",
          "name": "_amount",
          "type": "uint256"
        }
      ],
      "name": "updateWithdrawableAmount",
      "outputs": [],
      "stateMutability": "nonpayable",
      "type": "function"
    },
    {
      "inputs": [
        {
          "internalType": "uint256",
          "name": "_treeId",
          "type": "uint256"
        },
        {
          "internalType": "uint256",
          "name": "_planterAmount",
          "type": "uint256"
        },
        {
          "internalType": "uint256",
          "name": "_ambassadorAmount",
          "type": "uint256"
        }
      ],
      "name": "updateProjectedEarnings",
      "outputs": [],
      "stateMutability": "nonpayable",
      "type": "function"
    },
    {
      "inputs": [
        {
          "internalType": "uint256",
          "name": "_treeId",
          "type": "uint256"
        },
        {
          "internalType": "address",
          "name": "_planter",
          "type": "address"
        },
        {
          "internalType": "uint64",
          "name": "_treeStatus",
          "type": "uint64"
        }
      ],
      "name": "updatePlanterTotalClaimed",
      "outputs": [],
      "stateMutability": "nonpayable",
      "type": "function"
    },
    {
      "inputs": [
        {
          "internalType": "uint256",
          "name": "_amount",
          "type": "uint256"
        }
      ],
      "name": "withdrawBalance",
      "outputs": [],
      "stateMutability": "nonpayable",
      "type": "function"
    }
  ],
  "bytecode": "0x608060405234801561001057600080fd5b50611227806100206000396000f3fe608060405234801561001057600080fd5b50600436106101375760003560e01c8063a69a2ad1116100b8578063c74146931161007c578063c741469314610315578063d6762c4a14610335578063da74222814610348578063da76d5cd1461035b578063f1326b151461036e578063fa9ee5031461038157600080fd5b8063a69a2ad11461029c578063b0b82469146102c9578063be22f546146102dc578063c0ba4aff146102ef578063c4d66de81461030257600080fd5b8063486ff0cd116100ff578063486ff0cd146101e7578063572b6c05146102265780637da0a8771461024e5780638012b7431461026757806397795c661461028757600080fd5b806327e235e31461013c5780632ed1fc5c1461016f57806330295d0614610178578063349904da14610198578063375b4270146101bc575b600080fd5b61015c61014a366004610fdb565b600b6020526000908152604090205481565b6040519081526020015b60405180910390f35b61015c60015481565b61015c61018636600461106a565b60086020526000908152604090205481565b6000546101ac90600160b01b900460ff1681565b6040519015158152602001610166565b6003546101cf906001600160a01b031681565b6040516001600160a01b039091168152602001610166565b604080518082018252601d81527f322e322e302b747265656a65722e6972656c6179726563697069656e740000006020820152905161016691906110fe565b6101ac610234366004610fdb565b6000546201000090046001600160a01b0390811691161490565b6000546101cf906201000090046001600160a01b031681565b61015c61027536600461106a565b60096020526000908152604090205481565b61029a6102953660046110d2565b610394565b005b6005546006546007546102ae92919083565b60408051938452602084019290925290820152606001610166565b61029a6102d736600461106a565b61049b565b6004546101cf906001600160a01b031681565b61029a6102fd366004611083565b610527565b61029a610310366004610fdb565b6108ed565b61015c61032336600461106a565b600a6020526000908152604090205481565b6002546101cf906001600160a01b031681565b61029a610356366004610fdb565b610a60565b61029a61036936600461106a565b610b45565b61029a61037c366004610fdb565b610d9d565b61029a61038f366004610fdb565b610e7a565b6002546001600160a01b031663ebe6a6f36103ad610f8c565b6040516001600160e01b031960e084901b1681526001600160a01b03909116600482015260240160006040518083038186803b1580156103ec57600080fd5b505afa158015610400573d6000803e3d6000fd5b50505060008481526008602090815260408083208690556009909152812083905560058054859350909190610436908490611153565b909155505060068054829190600090610450908490611153565b909155505060408051848152602081018490529081018290527f658f322f9229b30c6fc7cd495ff7eb9b3a93da7ea8140713ed7d2532fbdf4ab29060600160405180910390a1505050565b60025460405163c4d2a31b60e01b81523360048201526001600160a01b039091169063c4d2a31b9060240160006040518083038186803b1580156104de57600080fd5b505afa1580156104f2573d6000803e3d6000fd5b5050506001829055506040517ff8f4f8c515453c5c52d96c54033bb4de62e70142014b6b6888eee0d3ce02849990600090a150565b6002546001600160a01b031663ebe6a6f3610540610f8c565b6040516001600160e01b031960e084901b1681526001600160a01b03909116600482015260240160006040518083038186803b15801561057f57600080fd5b505afa158015610593573d6000803e3d6000fd5b505050600084815260086020526040902054151590506105f35760405162461bcd60e51b81526020600482015260166024820152751c1b185b9d195c88199d5b99081b9bdd08195e1a5cdd60521b60448201526064015b60405180910390fd5b6003546040516363386ae360e11b81526001600160a01b038481166004830152600092839283928392169063c670d5c69060240160806040518083038186803b15801561063f57600080fd5b505afa158015610653573d6000803e3d6000fd5b505050506040513d601f19601f82011682018060405250810190610677919061101a565b935093509350935083156108e45760006165408667ffffffffffffffff1611156106c7576000888152600a60209081526040808320546008909252909120546106c091906111ac565b9050610712565b6000888152600a6020908152604080832054600890925290912054616540906106fb9067ffffffffffffffff8a169061118d565b610705919061116b565b61070f91906111ac565b90505b80156108e257600088815260086020908152604080832054600990925282205461073d90849061118d565b610747919061116b565b9050806005600101600082825461075e91906111ac565b90915550506001600160a01b0384166107915780600560020160008282546107869190611153565b909155506107bf9050565b6001600160a01b0384166000908152600b6020526040812080548392906107b9908490611153565b90915550505b81600560000160008282546107d491906111ac565b9091555061271090506107e784826111ac565b6107f1908461118d565b6107fb919061116b565b6001600160a01b0386166000908152600b602052604081208054909190610823908490611153565b90915550506000898152600a602052604081208054849290610846908490611153565b909155506127109050610859848461118d565b610863919061116b565b6001600160a01b0389166000908152600b60205260408120805490919061088b908490611153565b9091555050604080518a81526001600160a01b038a811660208301528183018590528616606082015290517f42bc662de64da6aa158b5a87f6ef3a8338d84eec31d4dd4f416f83d36308e63b9181900360800190a1505b505b50505050505050565b600054610100900460ff1680610906575060005460ff16155b6109695760405162461bcd60e51b815260206004820152602e60248201527f496e697469616c697a61626c653a20636f6e747261637420697320616c72656160448201526d191e481a5b9a5d1a585b1a5e995960921b60648201526084016105ea565b600054610100900460ff1615801561098b576000805461ffff19166101011790555b6000829050806001600160a01b031663ba84fd696040518163ffffffff1660e01b815260040160206040518083038186803b1580156109c957600080fd5b505afa1580156109dd573d6000803e3d6000fd5b505050506040513d601f19601f82011682018060405250810190610a019190610fff565b610a0a57600080fd5b6000805460ff60b01b1916600160b01b1790556706f05b59d3b20000600155600280546001600160a01b039092166001600160a01b03199092169190911790558015610a5c576000805461ff00191690555b5050565b6002546001600160a01b0316638413ec14610a79610f8c565b6040516001600160e01b031960e084901b1681526001600160a01b03909116600482015260240160006040518083038186803b158015610ab857600080fd5b505afa158015610acc573d6000803e3d6000fd5b5083925050506001600160a01b038116610b1a5760405162461bcd60e51b815260206004820152600f60248201526e696e76616c6964206164647265737360881b60448201526064016105ea565b50600080546001600160a01b03909216620100000262010000600160b01b0319909216919091179055565b600260009054906101000a90046001600160a01b03166001600160a01b0316634d868f986040518163ffffffff1660e01b815260040160006040518083038186803b158015610b9357600080fd5b505afa158015610ba7573d6000803e3d6000fd5b50505050600b6000610bb7610f8c565b6001600160a01b03166001600160a01b03168152602001908152602001600020548111158015610be957506001548110155b610c2b5760405162461bcd60e51b81526020600482015260136024820152721a5b9cdd59999a58da595b9d08185b5bdd5b9d606a1b60448201526064016105ea565b80600b6000610c38610f8c565b6001600160a01b03166001600160a01b031681526020019081526020016000206000828254610c6791906111ac565b90915550506004546000906001600160a01b031663a9059cbb610c88610f8c565b6040516001600160e01b031960e084901b1681526001600160a01b03909116600482015260248101859052604401602060405180830381600087803b158015610cd057600080fd5b505af1158015610ce4573d6000803e3d6000fd5b505050506040513d601f19601f82011682018060405250810190610d089190610fff565b905080610d4f5760405162461bcd60e51b81526020600482015260156024820152743ab739bab1b1b2b9b9b33ab6103a3930b739b332b960591b60448201526064016105ea565b7fa35010e501b7cbcb7bbef636ae49bb8510f178a4cfd1666b20c67be10d1fead282610d79610f8c565b604080519283526001600160a01b0390911660208301520160405180910390a15050565b6002546001600160a01b0316638413ec14610db6610f8c565b6040516001600160e01b031960e084901b1681526001600160a01b03909116600482015260240160006040518083038186803b158015610df557600080fd5b505afa158015610e09573d6000803e3d6000fd5b5083925050506001600160a01b038116610e575760405162461bcd60e51b815260206004820152600f60248201526e696e76616c6964206164647265737360881b60448201526064016105ea565b50600480546001600160a01b0319166001600160a01b0392909216919091179055565b6002546001600160a01b0316638413ec14610e93610f8c565b6040516001600160e01b031960e084901b1681526001600160a01b03909116600482015260240160006040518083038186803b158015610ed257600080fd5b505afa158015610ee6573d6000803e3d6000fd5b505050506000819050806001600160a01b03166303dc8deb6040518163ffffffff1660e01b815260040160206040518083038186803b158015610f2857600080fd5b505afa158015610f3c573d6000803e3d6000fd5b505050506040513d601f19601f82011682018060405250810190610f609190610fff565b610f6957600080fd5b600380546001600160a01b0319166001600160a01b039290921691909117905550565b600060143610801590610faf57506000546201000090046001600160a01b031633145b15610fc1575060131936013560601c90565b503390565b80518015158114610fd657600080fd5b919050565b600060208284031215610fed57600080fd5b8135610ff8816111d9565b9392505050565b60006020828403121561101157600080fd5b610ff882610fc6565b6000806000806080858703121561103057600080fd5b61103985610fc6565b93506020850151611049816111d9565b604086015190935061105a816111d9565b6060959095015193969295505050565b60006020828403121561107c57600080fd5b5035919050565b60008060006060848603121561109857600080fd5b8335925060208401356110aa816111d9565b9150604084013567ffffffffffffffff811681146110c757600080fd5b809150509250925092565b6000806000606084860312156110e757600080fd5b505081359360208301359350604090920135919050565b600060208083528351808285015260005b8181101561112b5785810183015185820160400152820161110f565b8181111561113d576000604083870101525b50601f01601f1916929092016040019392505050565b60008219821115611166576111666111c3565b500190565b60008261118857634e487b7160e01b600052601260045260246000fd5b500490565b60008160001904831182151516156111a7576111a76111c3565b500290565b6000828210156111be576111be6111c3565b500390565b634e487b7160e01b600052601160045260246000fd5b6001600160a01b03811681146111ee57600080fd5b5056fea26469706673582212207db37b48ba31605024ffccba6c22f226a6d2a5dc1b7c2358c6faa496c13a211664736f6c63430008060033",
  "immutableReferences": {},
  "source": "// SPDX-License-Identifier: GPL-3.0\n\npragma solidity ^0.8.6;\n\nimport \"@openzeppelin/contracts-upgradeable/utils/CountersUpgradeable.sol\";\nimport \"@openzeppelin/contracts-upgradeable/proxy/utils/Initializable.sol\";\nimport \"@openzeppelin/contracts-upgradeable/token/ERC20/IERC20Upgradeable.sol\";\n\nimport \"../access/IAccessRestriction.sol\";\nimport \"../planter/IPlanter.sol\";\nimport \"../gsn/RelayRecipient.sol\";\n\n/** @title PlanterFund Contract */\n\ncontract PlanterFund is Initializable, RelayRecipient {\n    /** NOTE {isPlanterFund} set inside the initialize to {true} */\n    bool public isPlanterFund;\n\n    /** NOTE minimum withdrawable amount */\n    uint256 public minWithdrawable;\n\n    IAccessRestriction public accessRestriction;\n    IPlanter public planterContract;\n    IERC20Upgradeable public daiToken;\n\n    struct TotalBalances {\n        uint256 planter;\n        uint256 ambassador;\n        uint256 localDevelopment;\n    }\n\n    /** NOTE totalBalances keep total share of\n     * planter, ambassador, localDevelopment\n     */\n    TotalBalances public totalBalances;\n\n    /** NOTE mapping of treeId to planterProjectedEarning*/\n    mapping(uint256 => uint256) public treeToPlanterProjectedEarning;\n\n    /** NOTE mapping of treeId to ambassadorProjectedEarning*/\n    mapping(uint256 => uint256) public treeToAmbassadorProjectedEarning;\n\n    /** NOTE mpping of treeId to treeToPlanterTotalClaimed balance*/\n    mapping(uint256 => uint256) public treeToPlanterTotalClaimed;\n\n    /** NOTE mapping of planter address to planter balance*/\n    mapping(address => uint256) public balances;\n\n    event PlanterTotalClaimedUpdated(\n        uint256 treeId,\n        address planter,\n        uint256 amount,\n        address ambassador\n    );\n    event BalanceWithdrew(uint256 amount, address account);\n    event ProjectedEarningUpdated(\n        uint256 treeId,\n        uint256 planterAmount,\n        uint256 ambassadorAmount\n    );\n\n    event MinWithdrawableAmountUpdated();\n\n    /** NOTE modifier to check msg.sender has admin role */\n    modifier onlyAdmin() {\n        accessRestriction.ifAdmin(_msgSender());\n        _;\n    }\n\n    /** NOTE modifier to check msg.sender has data manager role */\n    modifier onlyDataManager() {\n        accessRestriction.ifDataManager(msg.sender);\n        _;\n    }\n\n    /** NOTE modifier for check if function is not paused */\n    modifier ifNotPaused() {\n        accessRestriction.ifNotPaused();\n        _;\n    }\n\n    /** NOTE modifier for check msg.sender has TreejerContract role */\n    modifier onlyTreejerContract() {\n        accessRestriction.ifTreejerContract(_msgSender());\n        _;\n    }\n\n    /** NOTE modifier for check valid address */\n    modifier validAddress(address _address) {\n        require(_address != address(0), \"invalid address\");\n        _;\n    }\n\n    /**\n     * @dev initialize AccessRestriction contract and set true for isPlanterFund\n     * @param _accessRestrictionAddress set to the address of AccessRestriction contract\n     */\n    function initialize(address _accessRestrictionAddress)\n        external\n        initializer\n    {\n        IAccessRestriction candidateContract = IAccessRestriction(\n            _accessRestrictionAddress\n        );\n\n        require(candidateContract.isAccessRestriction());\n\n        isPlanterFund = true;\n        minWithdrawable = .5 ether;\n        accessRestriction = candidateContract;\n    }\n\n    /**\n     * @dev set trusted forwarder address\n     * @param _address set to {trustedForwarder}\n     */\n    function setTrustedForwarder(address _address)\n        external\n        onlyAdmin\n        validAddress(_address)\n    {\n        trustedForwarder = _address;\n    }\n\n    /**\n     * @dev admin set Planter contract address\n     * @param _address set to the address of Planter contract\n     */\n    function setPlanterContractAddress(address _address) external onlyAdmin {\n        IPlanter candidateContract = IPlanter(_address);\n        require(candidateContract.isPlanter());\n        planterContract = candidateContract;\n    }\n\n    /**\n     * @dev admin set DaiToken contract address\n     * @param _address set to the address of DaiToken contract\n     */\n    function setDaiTokenAddress(address _address)\n        external\n        onlyAdmin\n        validAddress(_address)\n    {\n        IERC20Upgradeable candidateContract = IERC20Upgradeable(_address);\n        daiToken = candidateContract;\n    }\n\n    /** @dev admin set the minimum amount to withdraw\n     * @param _amount is minimum withdrawable amount\n     */\n    function updateWithdrawableAmount(uint256 _amount)\n        external\n        onlyDataManager\n    {\n        minWithdrawable = _amount;\n\n        emit MinWithdrawableAmountUpdated();\n    }\n\n    /**\n     * @dev set projected earnings\n     * @param _treeId id of tree to set projected earning for\n     * @param _planterAmount planter amount\n     * @param _ambassadorAmount ambassador amount\n     */\n    function updateProjectedEarnings(\n        uint256 _treeId,\n        uint256 _planterAmount,\n        uint256 _ambassadorAmount\n    ) external onlyTreejerContract {\n        treeToPlanterProjectedEarning[_treeId] = _planterAmount;\n        treeToAmbassadorProjectedEarning[_treeId] = _ambassadorAmount;\n\n        totalBalances.planter += _planterAmount;\n        totalBalances.ambassador += _ambassadorAmount;\n\n        emit ProjectedEarningUpdated(\n            _treeId,\n            _planterAmount,\n            _ambassadorAmount\n        );\n    }\n\n    /**\n     * @dev based on the {_treeStatus} planter total claimable amount updated in every tree\n     * update verifying\n     * @param _treeId id of a tree that planter's total claimable amount updated for\n     * @param _planter  address of planter to fund\n     * @param _treeStatus status of tree\n     */\n    function updatePlanterTotalClaimed(\n        uint256 _treeId,\n        address _planter,\n        uint64 _treeStatus\n    ) external onlyTreejerContract {\n        require(\n            treeToPlanterProjectedEarning[_treeId] > 0,\n            \"planter fund not exist\"\n        );\n\n        (\n            bool exists,\n            address organizationAddress,\n            address ambassadorAddress,\n            uint256 share\n        ) = planterContract.getOrganizationMemberData(_planter);\n\n        if (exists) {\n            uint256 totalPayableAmountToPlanter;\n\n            if (_treeStatus > 25920) {\n                //25920 = 30 * 24 * 36\n\n                totalPayableAmountToPlanter =\n                    treeToPlanterProjectedEarning[_treeId] -\n                    treeToPlanterTotalClaimed[_treeId];\n            } else {\n                totalPayableAmountToPlanter =\n                    ((treeToPlanterProjectedEarning[_treeId] * _treeStatus) /\n                        25920) -\n                    treeToPlanterTotalClaimed[_treeId];\n            }\n\n            if (totalPayableAmountToPlanter > 0) {\n                uint256 totalPayableAmountToAmbassador = (treeToAmbassadorProjectedEarning[\n                        _treeId\n                    ] * totalPayableAmountToPlanter) /\n                        treeToPlanterProjectedEarning[_treeId];\n\n                //referral calculation section\n\n                totalBalances.ambassador -= totalPayableAmountToAmbassador;\n\n                if (ambassadorAddress == address(0)) {\n                    totalBalances\n                        .localDevelopment += totalPayableAmountToAmbassador;\n                } else {\n                    balances[\n                        ambassadorAddress\n                    ] += totalPayableAmountToAmbassador;\n                }\n\n                totalBalances.planter -= totalPayableAmountToPlanter;\n\n                balances[organizationAddress] +=\n                    (totalPayableAmountToPlanter * (10000 - share)) /\n                    10000;\n\n                //planter calculation section\n\n                treeToPlanterTotalClaimed[\n                    _treeId\n                ] += totalPayableAmountToPlanter;\n\n                balances[_planter] +=\n                    (totalPayableAmountToPlanter * share) /\n                    10000;\n\n                emit PlanterTotalClaimedUpdated(\n                    _treeId,\n                    _planter,\n                    totalPayableAmountToPlanter,\n                    ambassadorAddress\n                );\n            }\n        }\n    }\n\n    /**\n     * @dev planter withdraw {_amount} from balances\n     * @param _amount amount to withdraw\n     */\n    function withdrawBalance(uint256 _amount) external ifNotPaused {\n        require(\n            _amount <= balances[_msgSender()] && _amount >= minWithdrawable,\n            \"insufficient amount\"\n        );\n\n        balances[_msgSender()] -= _amount;\n\n        bool success = daiToken.transfer(_msgSender(), _amount);\n\n        require(success, \"unsuccessful transfer\");\n\n        emit BalanceWithdrew(_amount, _msgSender());\n    }\n}\n",
  "sourcePath": "/media/ali/New Volume/treejer/contract/contracts/treasury/PlanterFund.sol",
  "compiler": {
    "name": "solc",
    "version": "0.8.6+commit.11564f7e.Emscripten.clang"
  },
  "schemaVersion": "3.4.3",
  "updatedAt": "2021-10-25T21:15:05.961Z",
  "networkType": "ethereum",
  "devdoc": {
    "kind": "dev",
    "methods": {
      "initialize(address)": {
        "details": "initialize AccessRestriction contract and set true for isPlanterFund",
        "params": {
          "_accessRestrictionAddress": "set to the address of AccessRestriction contract"
        }
      },
      "setDaiTokenAddress(address)": {
        "details": "admin set DaiToken contract address",
        "params": {
          "_address": "set to the address of DaiToken contract"
        }
      },
      "setPlanterContractAddress(address)": {
        "details": "admin set Planter contract address",
        "params": {
          "_address": "set to the address of Planter contract"
        }
      },
      "setTrustedForwarder(address)": {
        "details": "set trusted forwarder address",
        "params": {
          "_address": "set to {trustedForwarder}"
        }
      },
      "updatePlanterTotalClaimed(uint256,address,uint64)": {
        "details": "based on the {_treeStatus} planter total claimable amount updated in every tree update verifying",
        "params": {
          "_planter": "address of planter to fund",
          "_treeId": "id of a tree that planter's total claimable amount updated for",
          "_treeStatus": "status of tree"
        }
      },
      "updateProjectedEarnings(uint256,uint256,uint256)": {
        "details": "set projected earnings",
        "params": {
          "_ambassadorAmount": "ambassador amount",
          "_planterAmount": "planter amount",
          "_treeId": "id of tree to set projected earning for"
        }
      },
      "updateWithdrawableAmount(uint256)": {
        "details": "admin set the minimum amount to withdraw",
        "params": {
          "_amount": "is minimum withdrawable amount"
        }
      },
      "versionRecipient()": {
        "details": "return version recipient "
      },
      "withdrawBalance(uint256)": {
        "details": "planter withdraw {_amount} from balances",
        "params": {
          "_amount": "amount to withdraw"
        }
      }
    },
    "title": "PlanterFund Contract ",
    "version": 1
  },
  "userdoc": {
    "kind": "user",
    "methods": {
      "balances(address)": {
        "notice": "NOTE mapping of planter address to planter balance"
      },
      "isPlanterFund()": {
        "notice": "NOTE {isPlanterFund} set inside the initialize to {true} "
      },
      "isTrustedForwarder(address)": {
        "notice": "return if the forwarder is trusted to forward relayed transactions to us. the forwarder is required to verify the sender's signature, and verify the call is not a replay."
      },
      "minWithdrawable()": {
        "notice": "NOTE minimum withdrawable amount "
      },
      "totalBalances()": {
        "notice": "NOTE totalBalances keep total share of planter, ambassador, localDevelopment"
      },
      "treeToAmbassadorProjectedEarning(uint256)": {
        "notice": "NOTE mapping of treeId to ambassadorProjectedEarning"
      },
      "treeToPlanterProjectedEarning(uint256)": {
        "notice": "NOTE mapping of treeId to planterProjectedEarning"
      },
      "treeToPlanterTotalClaimed(uint256)": {
        "notice": "NOTE mpping of treeId to treeToPlanterTotalClaimed balance"
      }
    },
    "version": 1
  }
}