{
  "contractName": "RegularSale",
  "abi": [
    {
      "anonymous": false,
      "inputs": [
        {
          "indexed": false,
          "internalType": "uint256",
          "name": "lastFundedTreeId",
          "type": "uint256"
        }
      ],
      "name": "LastFundedTreeIdUpdated",
      "type": "event"
    },
    {
      "anonymous": false,
      "inputs": [
        {
          "indexed": false,
          "internalType": "uint256",
          "name": "price",
          "type": "uint256"
        }
      ],
      "name": "PriceUpdated",
      "type": "event"
    },
    {
      "anonymous": false,
      "inputs": [
        {
          "indexed": false,
          "internalType": "address",
          "name": "referrer",
          "type": "address"
        },
        {
          "indexed": false,
          "internalType": "uint256",
          "name": "count",
          "type": "uint256"
        },
        {
          "indexed": false,
          "internalType": "uint256",
          "name": "amount",
          "type": "uint256"
        }
      ],
      "name": "ReferralRewardClaimed",
      "type": "event"
    },
    {
      "anonymous": false,
      "inputs": [
        {
          "indexed": false,
          "internalType": "uint256",
          "name": "referralTreePaymentToPlanter",
          "type": "uint256"
        },
        {
          "indexed": false,
          "internalType": "uint256",
          "name": "referralTreePaymentToAmbassador",
          "type": "uint256"
        }
      ],
      "name": "ReferralTreePaymentsUpdated",
      "type": "event"
    },
    {
      "anonymous": false,
      "inputs": [
        {
          "indexed": false,
          "internalType": "uint256",
          "name": "count",
          "type": "uint256"
        }
      ],
      "name": "ReferralTriggerCountUpdated",
      "type": "event"
    },
    {
      "anonymous": false,
      "inputs": [
        {
          "indexed": false,
          "internalType": "address",
          "name": "recipient",
          "type": "address"
        },
        {
          "indexed": false,
          "internalType": "uint256",
          "name": "treeId",
          "type": "uint256"
        },
        {
          "indexed": false,
          "internalType": "uint256",
          "name": "price",
          "type": "uint256"
        }
      ],
      "name": "RegularMint",
      "type": "event"
    },
    {
      "anonymous": false,
      "inputs": [
        {
          "indexed": false,
          "internalType": "address",
          "name": "funder",
          "type": "address"
        },
        {
          "indexed": false,
          "internalType": "address",
          "name": "recipient",
          "type": "address"
        },
        {
          "indexed": false,
          "internalType": "address",
          "name": "referrer",
          "type": "address"
        },
        {
          "indexed": false,
          "internalType": "uint256",
          "name": "count",
          "type": "uint256"
        },
        {
          "indexed": false,
          "internalType": "uint256",
          "name": "amount",
          "type": "uint256"
        }
      ],
      "name": "TreeFunded",
      "type": "event"
    },
    {
      "anonymous": false,
      "inputs": [
        {
          "indexed": false,
          "internalType": "address",
          "name": "funder",
          "type": "address"
        },
        {
          "indexed": false,
          "internalType": "address",
          "name": "recipient",
          "type": "address"
        },
        {
          "indexed": false,
          "internalType": "address",
          "name": "referrer",
          "type": "address"
        },
        {
          "indexed": false,
          "internalType": "uint256",
          "name": "treeId",
          "type": "uint256"
        },
        {
          "indexed": false,
          "internalType": "uint256",
          "name": "amount",
          "type": "uint256"
        }
      ],
      "name": "TreeFundedById",
      "type": "event"
    },
    {
      "inputs": [],
      "name": "accessRestriction",
      "outputs": [
        {
          "internalType": "contract IAccessRestriction",
          "name": "",
          "type": "address"
        }
      ],
      "stateMutability": "view",
      "type": "function",
      "constant": true
    },
    {
      "inputs": [],
      "name": "allocation",
      "outputs": [
        {
          "internalType": "contract IAllocation",
          "name": "",
          "type": "address"
        }
      ],
      "stateMutability": "view",
      "type": "function",
      "constant": true
    },
    {
      "inputs": [],
      "name": "attribute",
      "outputs": [
        {
          "internalType": "contract IAttribute",
          "name": "",
          "type": "address"
        }
      ],
      "stateMutability": "view",
      "type": "function",
      "constant": true
    },
    {
      "inputs": [],
      "name": "daiFund",
      "outputs": [
        {
          "internalType": "contract IDaiFund",
          "name": "",
          "type": "address"
        }
      ],
      "stateMutability": "view",
      "type": "function",
      "constant": true
    },
    {
      "inputs": [],
      "name": "daiToken",
      "outputs": [
        {
          "internalType": "contract IERC20Upgradeable",
          "name": "",
          "type": "address"
        }
      ],
      "stateMutability": "view",
      "type": "function",
      "constant": true
    },
    {
      "inputs": [],
      "name": "isRegularSale",
      "outputs": [
        {
          "internalType": "bool",
          "name": "",
          "type": "bool"
        }
      ],
      "stateMutability": "view",
      "type": "function",
      "constant": true
    },
    {
      "inputs": [
        {
          "internalType": "address",
          "name": "forwarder",
          "type": "address"
        }
      ],
      "name": "isTrustedForwarder",
      "outputs": [
        {
          "internalType": "bool",
          "name": "",
          "type": "bool"
        }
      ],
      "stateMutability": "view",
      "type": "function",
      "constant": true
    },
    {
      "inputs": [],
      "name": "lastFundedTreeId",
      "outputs": [
        {
          "internalType": "uint256",
          "name": "",
          "type": "uint256"
        }
      ],
      "stateMutability": "view",
      "type": "function",
      "constant": true
    },
    {
      "inputs": [],
      "name": "planterFundContract",
      "outputs": [
        {
          "internalType": "contract IPlanterFund",
          "name": "",
          "type": "address"
        }
      ],
      "stateMutability": "view",
      "type": "function",
      "constant": true
    },
    {
      "inputs": [],
      "name": "price",
      "outputs": [
        {
          "internalType": "uint256",
          "name": "",
          "type": "uint256"
        }
      ],
      "stateMutability": "view",
      "type": "function",
      "constant": true
    },
    {
      "inputs": [],
      "name": "referralTreePaymentToAmbassador",
      "outputs": [
        {
          "internalType": "uint256",
          "name": "",
          "type": "uint256"
        }
      ],
      "stateMutability": "view",
      "type": "function",
      "constant": true
    },
    {
      "inputs": [],
      "name": "referralTreePaymentToPlanter",
      "outputs": [
        {
          "internalType": "uint256",
          "name": "",
          "type": "uint256"
        }
      ],
      "stateMutability": "view",
      "type": "function",
      "constant": true
    },
    {
      "inputs": [],
      "name": "referralTriggerCount",
      "outputs": [
        {
          "internalType": "uint256",
          "name": "",
          "type": "uint256"
        }
      ],
      "stateMutability": "view",
      "type": "function",
      "constant": true
    },
    {
      "inputs": [
        {
          "internalType": "address",
          "name": "",
          "type": "address"
        }
      ],
      "name": "referrerClaimableTreesDai",
      "outputs": [
        {
          "internalType": "uint256",
          "name": "",
          "type": "uint256"
        }
      ],
      "stateMutability": "view",
      "type": "function",
      "constant": true
    },
    {
      "inputs": [
        {
          "internalType": "address",
          "name": "",
          "type": "address"
        }
      ],
      "name": "referrerClaimableTreesWeth",
      "outputs": [
        {
          "internalType": "uint256",
          "name": "",
          "type": "uint256"
        }
      ],
      "stateMutability": "view",
      "type": "function",
      "constant": true
    },
    {
      "inputs": [
        {
          "internalType": "address",
          "name": "",
          "type": "address"
        }
      ],
      "name": "referrerCount",
      "outputs": [
        {
          "internalType": "uint256",
          "name": "",
          "type": "uint256"
        }
      ],
      "stateMutability": "view",
      "type": "function",
      "constant": true
    },
    {
      "inputs": [],
      "name": "treeFactory",
      "outputs": [
        {
          "internalType": "contract ITreeFactory",
          "name": "",
          "type": "address"
        }
      ],
      "stateMutability": "view",
      "type": "function",
      "constant": true
    },
    {
      "inputs": [],
      "name": "trustedForwarder",
      "outputs": [
        {
          "internalType": "address",
          "name": "",
          "type": "address"
        }
      ],
      "stateMutability": "view",
      "type": "function",
      "constant": true
    },
    {
      "inputs": [],
      "name": "versionRecipient",
      "outputs": [
        {
          "internalType": "string",
          "name": "",
          "type": "string"
        }
      ],
      "stateMutability": "pure",
      "type": "function",
      "constant": true
    },
    {
      "inputs": [],
      "name": "wethFund",
      "outputs": [
        {
          "internalType": "contract IWethFund",
          "name": "",
          "type": "address"
        }
      ],
      "stateMutability": "view",
      "type": "function",
      "constant": true
    },
    {
      "inputs": [
        {
          "internalType": "address",
          "name": "_accessRestrictionAddress",
          "type": "address"
        },
        {
          "internalType": "uint256",
          "name": "_price",
          "type": "uint256"
        }
      ],
      "name": "initialize",
      "outputs": [],
      "stateMutability": "nonpayable",
      "type": "function"
    },
    {
      "inputs": [
        {
          "internalType": "address",
          "name": "_address",
          "type": "address"
        }
      ],
      "name": "setTrustedForwarder",
      "outputs": [],
      "stateMutability": "nonpayable",
      "type": "function"
    },
    {
      "inputs": [
        {
          "internalType": "address",
          "name": "_address",
          "type": "address"
        }
      ],
      "name": "setTreeFactoryAddress",
      "outputs": [],
      "stateMutability": "nonpayable",
      "type": "function"
    },
    {
      "inputs": [
        {
          "internalType": "address",
          "name": "_address",
          "type": "address"
        }
      ],
      "name": "setDaiFundAddress",
      "outputs": [],
      "stateMutability": "nonpayable",
      "type": "function"
    },
    {
      "inputs": [
        {
          "internalType": "address",
          "name": "_address",
          "type": "address"
        }
      ],
      "name": "setDaiTokenAddress",
      "outputs": [],
      "stateMutability": "nonpayable",
      "type": "function"
    },
    {
      "inputs": [
        {
          "internalType": "address",
          "name": "_address",
          "type": "address"
        }
      ],
      "name": "setAllocationAddress",
      "outputs": [],
      "stateMutability": "nonpayable",
      "type": "function"
    },
    {
      "inputs": [
        {
          "internalType": "address",
          "name": "_address",
          "type": "address"
        }
      ],
      "name": "setPlanterFundAddress",
      "outputs": [],
      "stateMutability": "nonpayable",
      "type": "function"
    },
    {
      "inputs": [
        {
          "internalType": "address",
          "name": "_address",
          "type": "address"
        }
      ],
      "name": "setWethFundAddress",
      "outputs": [],
      "stateMutability": "nonpayable",
      "type": "function"
    },
    {
      "inputs": [
        {
          "internalType": "address",
          "name": "_address",
          "type": "address"
        }
      ],
      "name": "setAttributesAddress",
      "outputs": [],
      "stateMutability": "nonpayable",
      "type": "function"
    },
    {
      "inputs": [
        {
          "internalType": "uint256",
          "name": "_price",
          "type": "uint256"
        }
      ],
      "name": "updatePrice",
      "outputs": [],
      "stateMutability": "nonpayable",
      "type": "function"
    },
    {
      "inputs": [
        {
          "internalType": "uint256",
          "name": "_lastFundedTreeId",
          "type": "uint256"
        }
      ],
      "name": "updateLastFundedTreeId",
      "outputs": [],
      "stateMutability": "nonpayable",
      "type": "function"
    },
    {
      "inputs": [
        {
          "internalType": "uint256",
          "name": "_count",
          "type": "uint256"
        },
        {
          "internalType": "address",
          "name": "_referrer",
          "type": "address"
        },
        {
          "internalType": "address",
          "name": "_recipient",
          "type": "address"
        }
      ],
      "name": "fundTree",
      "outputs": [],
      "stateMutability": "nonpayable",
      "type": "function"
    },
    {
      "inputs": [
        {
          "internalType": "uint256",
          "name": "_treeId",
          "type": "uint256"
        },
        {
          "internalType": "address",
          "name": "_referrer",
          "type": "address"
        },
        {
          "internalType": "address",
          "name": "_recipient",
          "type": "address"
        }
      ],
      "name": "fundTreeById",
      "outputs": [],
      "stateMutability": "nonpayable",
      "type": "function"
    },
    {
      "inputs": [
        {
          "internalType": "uint256",
          "name": "_referralTreePaymentToPlanter",
          "type": "uint256"
        },
        {
          "internalType": "uint256",
          "name": "_referralTreePaymentToAmbassador",
          "type": "uint256"
        }
      ],
      "name": "updateReferralTreePayments",
      "outputs": [],
      "stateMutability": "nonpayable",
      "type": "function"
    },
    {
      "inputs": [
        {
          "internalType": "uint256",
          "name": "_count",
          "type": "uint256"
        }
      ],
      "name": "updateReferralTriggerCount",
      "outputs": [],
      "stateMutability": "nonpayable",
      "type": "function"
    },
    {
      "inputs": [
        {
          "internalType": "address",
          "name": "_referrer",
          "type": "address"
        },
        {
          "internalType": "uint256",
          "name": "_count",
          "type": "uint256"
        }
      ],
      "name": "updateReferrerClaimableTreesWeth",
      "outputs": [],
      "stateMutability": "nonpayable",
      "type": "function"
    },
    {
      "inputs": [],
      "name": "claimReferralReward",
      "outputs": [],
      "stateMutability": "nonpayable",
      "type": "function"
    }
  ],
  "bytecode": "0x608060405234801561001057600080fd5b50612a84806100206000396000f3fe608060405234801561001057600080fd5b50600436106102275760003560e01c80638d6cc56d11610130578063d3296586116100b8578063e817c1bc1161007c578063e817c1bc146104f1578063f1326b1514610504578063f7dff4b014610517578063f976279d1461052a578063fd9da76f1461054a57600080fd5b8063d32965861461049c578063d6762c4a146104af578063d910412d146104c2578063da742228146104cb578063e597a424146104de57600080fd5b8063b1df6665116100ff578063b1df666514610430578063be22f54614610443578063c413bac414610456578063c96bd9ee14610476578063cd6dc6871461048957600080fd5b80638d6cc56d146104035780639b4b2c9c14610416578063a035b1fe1461041e578063a44ad5861461042757600080fd5b8063572b6c05116101b35780637da0a877116101825780637da0a8771461039e5780637fba15ac146103b757806380d663ea146103ca578063881e4cb4146103dd57806388a17bde146103f057600080fd5b8063572b6c051461032657806359bac35b1461035e5780636a837c8e14610371578063716026921461037e57600080fd5b806321d9e3d1116101fa57806321d9e3d11461029b578063421ef6d4146102ae578063486ff0cd146102c15780634ad07f9e146103005780634cb5d3711461031357600080fd5b80630467db2e1461022c5780630bf351f81461024857806314b42c771461025d578063211b1cdd14610288575b600080fd5b61023560055481565b6040519081526020015b60405180910390f35b61025b610256366004612767565b610553565b005b600c54610270906001600160a01b031681565b6040516001600160a01b03909116815260200161023f565b61025b610296366004612789565b610665565b61025b6102a936600461289e565b610706565b600b54610270906001600160a01b031681565b604080518082018252601d81527f322e322e302b747265656a65722e6972656c6179726563697069656e740000006020820152905161023f91906128fc565b61025b61030e366004612767565b610f4d565b61025b61032136600461289e565b61105f565b61034e610334366004612767565b6000546201000090046001600160a01b0390811691161490565b604051901515815260200161023f565b61025b61036c366004612767565b61157f565b60035461034e9060ff1681565b61023561038c366004612767565b60096020526000908152604090205481565b600054610270906201000090046001600160a01b031681565b61025b6103c536600461286c565b611691565b601054610270906001600160a01b031681565b61025b6103eb366004612767565b61178e565b600e54610270906001600160a01b031681565b61025b61041136600461286c565b6118a0565b61025b611945565b61023560025481565b61023560045481565b600d54610270906001600160a01b031681565b600f54610270906001600160a01b031681565b610235610464366004612767565b60086020526000908152604090205481565b61025b610484366004612767565b611d4e565b61025b610497366004612789565b611e60565b61025b6104aa3660046128da565b612036565b600a54610270906001600160a01b031681565b61023560015481565b61025b6104d9366004612767565b6120ed565b61025b6104ec36600461286c565b6121d2565b61025b6104ff366004612767565b612277565b61025b610512366004612767565b612389565b601154610270906001600160a01b031681565b610235610538366004612767565b60076020526000908152604090205481565b61023560065481565b600a546001600160a01b0316638413ec1461056c612466565b6040516001600160e01b031960e084901b1681526001600160a01b03909116600482015260240160006040518083038186803b1580156105ab57600080fd5b505afa1580156105bf573d6000803e3d6000fd5b505050506000819050806001600160a01b031663e0eb4eb96040518163ffffffff1660e01b815260040160206040518083038186803b15801561060157600080fd5b505afa158015610615573d6000803e3d6000fd5b505050506040513d601f19601f8201168201806040525081019061063991906127b3565b61064257600080fd5b600b80546001600160a01b0319166001600160a01b039290921691909117905550565b600a546001600160a01b031663ebe6a6f361067e612466565b6040516001600160e01b031960e084901b1681526001600160a01b03909116600482015260240160006040518083038186803b1580156106bd57600080fd5b505afa1580156106d1573d6000803e3d6000fd5b505050506001600160a01b038216600090815260076020526040812080548392906106fd908490612951565b90915550505050565b6000831180156107165750606583105b6107575760405162461bcd60e51b815260206004820152600d60248201526c1a5b9d985b1a590818dbdd5b9d609a1b60448201526064015b60405180910390fd5b600083600254610767919061298b565b600f5490915081906001600160a01b03166370a08231610785612466565b6040516001600160e01b031960e084901b1681526001600160a01b03909116600482015260240160206040518083038186803b1580156107c457600080fd5b505afa1580156107d8573d6000803e3d6000fd5b505050506040513d601f19601f820116820180604052508101906107fc9190612885565b101561083b5760405162461bcd60e51b815260206004820152600e60248201526d1a5b9d985b1a5908185b5bdd5b9d60921b604482015260640161074e565b600f546000906001600160a01b03166323b872dd610857612466565b600d5460405160e084901b6001600160e01b03191681526001600160a01b0392831660048201529116602482015260448101859052606401602060405180830381600087803b1580156108a957600080fd5b505af11580156108bd573d6000803e3d6000fd5b505050506040513d601f19601f820116820180604052508101906108e191906127b3565b9050806109285760405162461bcd60e51b81526020600482015260156024820152743ab739bab1b1b2b9b9b33ab6103a3930b739b332b960591b604482015260640161074e565b60006001600160a01b0384161561093f5783610947565b610947612466565b90507f036c2aedd2a9fd7043cbdabf33e199aa70cdf09074e600cf862dea17b004188c610972612466565b604080516001600160a01b039283168152828516602082015291881690820152606081018890526080810185905260a00160405180910390a1600060015490506109fa60405180610100016040528060008152602001600081526020016000815260200160008152602001600081526020016000815260200160008152602001600081525090565b60005b88811015610e7057600b5460405163111a3a9960e11b8152600481018590526001600160a01b03868116602483015290911690632234753290604401602060405180830381600087803b158015610a5357600080fd5b505af1158015610a67573d6000803e3d6000fd5b505050506040513d601f19601f82011682018060405250810190610a8b9190612885565b600c54604051632199e77760e01b8152600481018390529194506001600160a01b031690632199e77790602401602060405180830381600087803b158015610ad257600080fd5b505af1158015610ae6573d6000803e3d6000fd5b505050506040513d601f19601f82011682018060405250810190610b0a91906127b3565b50600e54604051630393f3d360e01b81526004810185905260009182918291829182918291829182916001600160a01b0390911690630393f3d39060240161010060405180830381600087803b158015610b6357600080fd5b505af1158015610b77573d6000803e3d6000fd5b505050506040513d601f19601f82011682018060405250810190610b9b91906127d5565b975097509750975097509750975097506127108861ffff16600254610bc0919061298b565b610bca9190612969565b8a518b90610bd9908390612951565b90525060025461271090610bf29061ffff8a169061298b565b610bfc9190612969565b8a602001818151610c0d9190612951565b90525060025461271090610c269061ffff89169061298b565b610c309190612969565b8a604001818151610c419190612951565b90525060025461271090610c5a9061ffff88169061298b565b610c649190612969565b8a606001818151610c759190612951565b90525060025461271090610c8e9061ffff87169061298b565b610c989190612969565b8a608001818151610ca99190612951565b90525060025461271090610cc29061ffff86169061298b565b610ccc9190612969565b8a60a001818151610cdd9190612951565b90525060025461271090610cf69061ffff85169061298b565b610d009190612969565b8a60c001818151610d119190612951565b90525060025461271090610d2a9061ffff84169061298b565b610d349190612969565b8a60e001818151610d459190612951565b9052506010546002546001600160a01b03909116906397795c66908d9061271090610d759061ffff8e169061298b565b610d7f9190612969565b6127108b61ffff16600254610d94919061298b565b610d9e9190612969565b6040516001600160e01b031960e086901b168152600481019390935260248301919091526044820152606401600060405180830381600087803b158015610de457600080fd5b505af1158015610df8573d6000803e3d6000fd5b505050507f60b886b51751221ddd934ac803d3ba36fb23ef92053ffd07f770f2599c0475a58c8c600254604051610e4d939291906001600160a01b039390931683526020830191909152604082015260600190565b60405180910390a150505050505050508080610e6890612a00565b9150506109fd565b50600d54815160208301516040808501516060860151608087015160a088015160c089015160e08a0151955163e5a41e2560e01b81526004810198909852602488019690965260448701939093526064860191909152608485015260a484015260c483019190915260e48201526001600160a01b039091169063e5a41e259061010401600060405180830381600087803b158015610f0d57600080fd5b505af1158015610f21573d6000803e3d6000fd5b5050506001839055506001600160a01b03871615610f4357610f4387896124a0565b5050505050505050565b600a546001600160a01b0316638413ec14610f66612466565b6040516001600160e01b031960e084901b1681526001600160a01b03909116600482015260240160006040518083038186803b158015610fa557600080fd5b505afa158015610fb9573d6000803e3d6000fd5b505050506000819050806001600160a01b031663349904da6040518163ffffffff1660e01b815260040160206040518083038186803b158015610ffb57600080fd5b505afa15801561100f573d6000803e3d6000fd5b505050506040513d601f19601f8201168201806040525081019061103391906127b3565b61103c57600080fd5b601080546001600160a01b0319166001600160a01b039290921691909117905550565b600154831161109f5760405162461bcd60e51b815260206004820152600c60248201526b696e76616c6964207472656560a01b604482015260640161074e565b600254600f546001600160a01b03166370a082316110bb612466565b6040516001600160e01b031960e084901b1681526001600160a01b03909116600482015260240160206040518083038186803b1580156110fa57600080fd5b505afa15801561110e573d6000803e3d6000fd5b505050506040513d601f19601f820116820180604052508101906111329190612885565b10156111715760405162461bcd60e51b815260206004820152600e60248201526d1a5b9d985b1a5908185b5bdd5b9d60921b604482015260640161074e565b600f546000906001600160a01b03166323b872dd61118d612466565b600d5460025460405160e085901b6001600160e01b03191681526001600160a01b0393841660048201529290911660248301526044820152606401602060405180830381600087803b1580156111e257600080fd5b505af11580156111f6573d6000803e3d6000fd5b505050506040513d601f19601f8201168201806040525081019061121a91906127b3565b9050806112615760405162461bcd60e51b81526020600482015260156024820152743ab739bab1b1b2b9b9b33ab6103a3930b739b332b960591b604482015260640161074e565b60006001600160a01b038316156112785782611280565b611280612466565b600b5460405163738b11ab60e01b8152600481018890526001600160a01b03808416602483015292935087929091169063738b11ab90604401600060405180830381600087803b1580156112d357600080fd5b505af11580156112e7573d6000803e3d6000fd5b5050600c54604051632199e77760e01b8152600481018590526001600160a01b039091169250632199e7779150602401602060405180830381600087803b15801561133157600080fd5b505af1158015611345573d6000803e3d6000fd5b505050506040513d601f19601f8201168201806040525081019061136991906127b3565b50600e54604051630393f3d360e01b81526004810183905260009182918291829182918291829182916001600160a01b0390911690630393f3d39060240161010060405180830381600087803b1580156113c257600080fd5b505af11580156113d6573d6000803e3d6000fd5b505050506040513d601f19601f820116820180604052508101906113fa91906127d5565b97509750975097509750975097509750600d60009054906101000a90046001600160a01b03166001600160a01b031663b36758328a6002548b8b8b8b8b8b8b8b6040518b63ffffffff1660e01b81526004016114ac9a99989796959493929190998a5260208a019890985261ffff96871660408a01529486166060890152928516608088015290841660a0870152831660c0860152821660e08501528116610100840152166101208201526101400190565b600060405180830381600087803b1580156114c657600080fd5b505af11580156114da573d6000803e3d6000fd5b505050506001600160a01b038d16156114f8576114f88d60016124a0565b7f01f3b848d675f67a39d4833daeb45e3b87800e009c93b8a15a3eeec44cd355a6611521612466565b8b8f8c6002546040516115679594939291906001600160a01b03958616815293851660208501529190931660408301526060820192909252608081019190915260a00190565b60405180910390a15050505050505050505050505050565b600a546001600160a01b0316638413ec14611598612466565b6040516001600160e01b031960e084901b1681526001600160a01b03909116600482015260240160006040518083038186803b1580156115d757600080fd5b505afa1580156115eb573d6000803e3d6000fd5b505050506000819050806001600160a01b0316632f10d7956040518163ffffffff1660e01b815260040160206040518083038186803b15801561162d57600080fd5b505afa158015611641573d6000803e3d6000fd5b505050506040513d601f19601f8201168201806040525081019061166591906127b3565b61166e57600080fd5b600e80546001600160a01b0319166001600160a01b039290921691909117905550565b600a546001600160a01b031663c4d2a31b6116aa612466565b6040516001600160e01b031960e084901b1681526001600160a01b03909116600482015260240160006040518083038186803b1580156116e957600080fd5b505afa1580156116fd573d6000803e3d6000fd5b5050505060015481116117525760405162461bcd60e51b815260206004820152601f60248201527f496e707574206d757374206265206774206c617374207472656520736f6c6400604482015260640161074e565b60018190556040518181527f2066143e84429fe8e16df8598c1ea9f8a9f24f384439008eca306d2161538b21906020015b60405180910390a150565b600a546001600160a01b0316638413ec146117a7612466565b6040516001600160e01b031960e084901b1681526001600160a01b03909116600482015260240160006040518083038186803b1580156117e657600080fd5b505afa1580156117fa573d6000803e3d6000fd5b505050506000819050806001600160a01b031663a6cd16fd6040518163ffffffff1660e01b815260040160206040518083038186803b15801561183c57600080fd5b505afa158015611850573d6000803e3d6000fd5b505050506040513d601f19601f8201168201806040525081019061187491906127b3565b61187d57600080fd5b601180546001600160a01b0319166001600160a01b039290921691909117905550565b600a546001600160a01b031663c4d2a31b6118b9612466565b6040516001600160e01b031960e084901b1681526001600160a01b03909116600482015260240160006040518083038186803b1580156118f857600080fd5b505afa15801561190c573d6000803e3d6000fd5b5050506002829055506040518181527f66cbca4f3c64fecf1dcb9ce094abcf7f68c3450a1d4e3a8e917dd621edb4ebe090602001611783565b600060076000611953612466565b6001600160a01b03166001600160a01b031681526020019081526020016000205460086000611980612466565b6001600160a01b03166001600160a01b03168152602001908152602001600020546119ab9190612951565b9050600081116119f25760405162461bcd60e51b815260206004820152601260248201527134b73b30b634b21033b4b33a1037bbb732b960711b604482015260640161074e565b60328111156119ff575060325b60008160086000611a0e612466565b6001600160a01b03166001600160a01b0316815260200190815260200160002054611a3991906129aa565b90506000600019821315611b0757600554600454611a579190612951565b611a61908461298b565b90508260086000611a70612466565b6001600160a01b03166001600160a01b031681526020019081526020016000206000828254611a9f91906129e9565b9091555050600d546040516324d7752b60e21b8152600481018390526001600160a01b039091169063935dd4ac90602401600060405180830381600087803b158015611aea57600080fd5b505af1158015611afe573d6000803e3d6000fd5b50505050611ce7565b600060086000611b15612466565b6001600160a01b03166001600160a01b03168152602001908152602001600020541115611c0957600554600454611b4c9190612951565b60086000611b58612466565b6001600160a01b03166001600160a01b0316815260200190815260200160002054611b83919061298b565b9050600060086000611b93612466565b6001600160a01b0390811682526020820192909252604090810160002092909255600d5491516324d7752b60e21b81526004810184905291169063935dd4ac90602401600060405180830381600087803b158015611bf057600080fd5b505af1158015611c04573d6000803e3d6000fd5b505050505b6000600554600454611c1b9190612951565b611c2484612a1b565b611c2e919061298b565b9050611c3983612a1b565b60076000611c45612466565b6001600160a01b03166001600160a01b031681526020019081526020016000206000828254611c7491906129e9565b9091555050601154604051631490b51160e21b8152600481018390526001600160a01b0390911690635242d44490602401600060405180830381600087803b158015611cbf57600080fd5b505af1158015611cd3573d6000803e3d6000fd5b505050508082611ce39190612951565b9150505b7fce3b3ce90fa7f727cf812c7b66d63765d0e97b4dadd2db11c70ebf96328376f3611d10612466565b604080516001600160a01b03909216825260208201869052810183905260600160405180910390a1611d4983611d44612466565b61254d565b505050565b600a546001600160a01b0316638413ec14611d67612466565b6040516001600160e01b031960e084901b1681526001600160a01b03909116600482015260240160006040518083038186803b158015611da657600080fd5b505afa158015611dba573d6000803e3d6000fd5b505050506000819050806001600160a01b03166313e939e26040518163ffffffff1660e01b815260040160206040518083038186803b158015611dfc57600080fd5b505afa158015611e10573d6000803e3d6000fd5b505050506040513d601f19601f82011682018060405250810190611e3491906127b3565b611e3d57600080fd5b600c80546001600160a01b0319166001600160a01b039290921691909117905550565b600054610100900460ff1680611e79575060005460ff16155b611edc5760405162461bcd60e51b815260206004820152602e60248201527f496e697469616c697a61626c653a20636f6e747261637420697320616c72656160448201526d191e481a5b9a5d1a585b1a5e995960921b606482015260840161074e565b600054610100900460ff16158015611efe576000805461ffff19166101011790555b6000839050806001600160a01b031663ba84fd696040518163ffffffff1660e01b815260040160206040518083038186803b158015611f3c57600080fd5b505afa158015611f50573d6000803e3d6000fd5b505050506040513d601f19601f82011682018060405250810190611f7491906127b3565b611f7d57600080fd5b600a80546001600160a01b0319166001600160a01b0383161790556003805460ff1916600190811790915561271090556014600681905560028490556040519081527ffb42eb7bced9c07773455159ea64c6233bfd5d08a1d46475f276302d8c0b71589060200160405180910390a16040518381527f66cbca4f3c64fecf1dcb9ce094abcf7f68c3450a1d4e3a8e917dd621edb4ebe09060200160405180910390a1508015611d49576000805461ff0019169055505050565b600a546001600160a01b031663c4d2a31b61204f612466565b6040516001600160e01b031960e084901b1681526001600160a01b03909116600482015260240160006040518083038186803b15801561208e57600080fd5b505afa1580156120a2573d6000803e3d6000fd5b505050600483905550600581905560408051838152602081018390527f5b6d2659e778550dfa407ecbaeb9c5f6287669ec10120c7a828fbdd8303e8211910160405180910390a15050565b600a546001600160a01b0316638413ec14612106612466565b6040516001600160e01b031960e084901b1681526001600160a01b03909116600482015260240160006040518083038186803b15801561214557600080fd5b505afa158015612159573d6000803e3d6000fd5b5083925050506001600160a01b0381166121a75760405162461bcd60e51b815260206004820152600f60248201526e696e76616c6964206164647265737360881b604482015260640161074e565b50600080546001600160a01b03909216620100000262010000600160b01b0319909216919091179055565b600a546001600160a01b031663c4d2a31b6121eb612466565b6040516001600160e01b031960e084901b1681526001600160a01b03909116600482015260240160006040518083038186803b15801561222a57600080fd5b505afa15801561223e573d6000803e3d6000fd5b5050506006829055506040518181527ffb42eb7bced9c07773455159ea64c6233bfd5d08a1d46475f276302d8c0b715890602001611783565b600a546001600160a01b0316638413ec14612290612466565b6040516001600160e01b031960e084901b1681526001600160a01b03909116600482015260240160006040518083038186803b1580156122cf57600080fd5b505afa1580156122e3573d6000803e3d6000fd5b505050506000819050806001600160a01b031663ab7806a26040518163ffffffff1660e01b815260040160206040518083038186803b15801561232557600080fd5b505afa158015612339573d6000803e3d6000fd5b505050506040513d601f19601f8201168201806040525081019061235d91906127b3565b61236657600080fd5b600d80546001600160a01b0319166001600160a01b039290921691909117905550565b600a546001600160a01b0316638413ec146123a2612466565b6040516001600160e01b031960e084901b1681526001600160a01b03909116600482015260240160006040518083038186803b1580156123e157600080fd5b505afa1580156123f5573d6000803e3d6000fd5b5083925050506001600160a01b0381166124435760405162461bcd60e51b815260206004820152600f60248201526e696e76616c6964206164647265737360881b604482015260640161074e565b50600f80546001600160a01b0319166001600160a01b0392909216919091179055565b60006014361080159061248957506000546201000090046001600160a01b031633145b1561249b575060131936013560601c90565b503390565b6001600160a01b0382166000908152600960205260408120546124c4908390612951565b9050600654811061252d576000600654826124df9190612969565b9050600654816124ef919061298b565b6124f990836129e9565b6001600160a01b038516600090815260086020526040812080549294508392909190612526908490612951565b9091555050505b6001600160a01b0390921660009081526009602052604090209190915550565b60015460005b8381101561273157600b5460405163111a3a9960e11b8152600481018490526001600160a01b03858116602483015290911690632234753290604401602060405180830381600087803b1580156125a957600080fd5b505af11580156125bd573d6000803e3d6000fd5b505050506040513d601f19601f820116820180604052508101906125e19190612885565b600c54604051632199e77760e01b8152600481018390529193506001600160a01b031690632199e77790602401602060405180830381600087803b15801561262857600080fd5b505af115801561263c573d6000803e3d6000fd5b505050506040513d601f19601f8201168201806040525081019061266091906127b3565b5060105460048054600554604051634bbcae3360e11b8152928301869052602483019190915260448201526001600160a01b03909116906397795c6690606401600060405180830381600087803b1580156126ba57600080fd5b505af11580156126ce573d6000803e3d6000fd5b5050600254604080516001600160a01b03881681526020810187905280820192909252517f60b886b51751221ddd934ac803d3ba36fb23ef92053ffd07f770f2599c0475a59350908190036060019150a18061272981612a00565b915050612553565b506001555050565b80356001600160a01b038116811461275057600080fd5b919050565b805161ffff8116811461275057600080fd5b60006020828403121561277957600080fd5b61278282612739565b9392505050565b6000806040838503121561279c57600080fd5b6127a583612739565b946020939093013593505050565b6000602082840312156127c557600080fd5b8151801515811461278257600080fd5b600080600080600080600080610100898b0312156127f257600080fd5b6127fb89612755565b975061280960208a01612755565b965061281760408a01612755565b955061282560608a01612755565b945061283360808a01612755565b935061284160a08a01612755565b925061284f60c08a01612755565b915061285d60e08a01612755565b90509295985092959890939650565b60006020828403121561287e57600080fd5b5035919050565b60006020828403121561289757600080fd5b5051919050565b6000806000606084860312156128b357600080fd5b833592506128c360208501612739565b91506128d160408501612739565b90509250925092565b600080604083850312156128ed57600080fd5b50508035926020909101359150565b600060208083528351808285015260005b818110156129295785810183015185820160400152820161290d565b8181111561293b576000604083870101525b50601f01601f1916929092016040019392505050565b6000821982111561296457612964612a38565b500190565b60008261298657634e487b7160e01b600052601260045260246000fd5b500490565b60008160001904831182151516156129a5576129a5612a38565b500290565b60008083128015600160ff1b8501841216156129c8576129c8612a38565b6001600160ff1b03840183138116156129e3576129e3612a38565b50500390565b6000828210156129fb576129fb612a38565b500390565b6000600019821415612a1457612a14612a38565b5060010190565b6000600160ff1b821415612a3157612a31612a38565b5060000390565b634e487b7160e01b600052601160045260246000fdfea2646970667358221220f167650d7ffcaa1f08160c18eb55134f01ecbd89f0bbc03258079b47aba038e764736f6c63430008060033",
  "immutableReferences": {},
  "source": "// SPDX-License-Identifier: GPL-3.0\n\npragma solidity ^0.8.6;\n\nimport \"@openzeppelin/contracts-upgradeable/proxy/utils/Initializable.sol\";\nimport \"@openzeppelin/contracts-upgradeable/token/ERC20/IERC20Upgradeable.sol\";\nimport \"../access/IAccessRestriction.sol\";\nimport \"../tree/ITreeFactory.sol\";\nimport \"../treasury/IDaiFund.sol\";\nimport \"../tree/IAttribute.sol\";\nimport \"../treasury/IAllocation.sol\";\nimport \"../gsn/RelayRecipient.sol\";\nimport \"../treasury/IPlanterFund.sol\";\nimport \"../treasury/IWethFund.sol\";\n\n/** @title RegularSale contract */\ncontract RegularSale is Initializable, RelayRecipient {\n    uint256 public lastFundedTreeId;\n    uint256 public price;\n\n    /** NOTE {isRegularSale} set inside the initialize to {true} */\n    bool public isRegularSale;\n\n    /** NOTE referralTreePaymentToPlanter amount */\n    uint256 public referralTreePaymentToPlanter;\n\n    /** NOTE referralTreePaymentToAmbassador amount */\n    uint256 public referralTreePaymentToAmbassador;\n    /** NOTE referralTriggerCount   */\n    uint256 public referralTriggerCount;\n    /** NOTE mapping of referrer address to claimableTreesWeth */\n    mapping(address => uint256) public referrerClaimableTreesWeth;\n    /** NOTE mapping of referrer address to claimableTreesDai */\n    mapping(address => uint256) public referrerClaimableTreesDai;\n    /** NOTE mapping of referrer address to referrerCount */\n    mapping(address => uint256) public referrerCount;\n\n    struct TotalBalances {\n        uint256 planter;\n        uint256 ambassador;\n        uint256 research;\n        uint256 localDevelopment;\n        uint256 insurance;\n        uint256 treasury;\n        uint256 reserve1;\n        uint256 reserve2;\n    }\n\n    IAccessRestriction public accessRestriction;\n    ITreeFactory public treeFactory;\n    IAttribute public attribute;\n    IDaiFund public daiFund;\n    IAllocation public allocation;\n    IERC20Upgradeable public daiToken;\n    IPlanterFund public planterFundContract;\n    IWethFund public wethFund;\n\n    event PriceUpdated(uint256 price);\n    event TreeFunded(\n        address funder,\n        address recipient,\n        address referrer,\n        uint256 count,\n        uint256 amount\n    );\n    event RegularMint(address recipient, uint256 treeId, uint256 price);\n    event TreeFundedById(\n        address funder,\n        address recipient,\n        address referrer,\n        uint256 treeId,\n        uint256 amount\n    );\n    event LastFundedTreeIdUpdated(uint256 lastFundedTreeId);\n    event ReferralTriggerCountUpdated(uint256 count);\n    event ReferralTreePaymentsUpdated(\n        uint256 referralTreePaymentToPlanter,\n        uint256 referralTreePaymentToAmbassador\n    );\n\n    event ReferralRewardClaimed(\n        address referrer,\n        uint256 count,\n        uint256 amount\n    );\n\n    /** NOTE modifier to check msg.sender has admin role */\n    modifier onlyAdmin() {\n        accessRestriction.ifAdmin(_msgSender());\n        _;\n    }\n\n    /** NOTE modifier to check msg.sender has data manager role */\n    modifier onlyDataManager() {\n        accessRestriction.ifDataManager(_msgSender());\n        _;\n    }\n\n    /** NOTE modifier for check msg.sender has TreejerContract role*/\n    modifier onlyTreejerContract() {\n        accessRestriction.ifTreejerContract(_msgSender());\n        _;\n    }\n\n    /** NOTE modifier for check valid address */\n    modifier validAddress(address _address) {\n        require(_address != address(0), \"invalid address\");\n        _;\n    }\n\n    /**\n     * @dev initialize AccessRestriction contract and set true for isRegularSale\n     * set {_price} to tree price and 10000 to lastFundedTreeId and 20 to referralTriggerCount\n     * @param _accessRestrictionAddress set to the address of AccessRestriction contract\n     * @param _price initial tree price\n     */\n    function initialize(address _accessRestrictionAddress, uint256 _price)\n        external\n        initializer\n    {\n        IAccessRestriction candidateContract = IAccessRestriction(\n            _accessRestrictionAddress\n        );\n        require(candidateContract.isAccessRestriction());\n        accessRestriction = candidateContract;\n\n        isRegularSale = true;\n        lastFundedTreeId = 10000;\n\n        referralTriggerCount = 20;\n        price = _price;\n\n        emit ReferralTriggerCountUpdated(20);\n        emit PriceUpdated(_price);\n    }\n\n    // **** SET ADDRESS SECTION ****\n\n    /**\n     * @dev admin set trusted forwarder address\n     * @param _address set to {trustedForwarder}\n     */\n    function setTrustedForwarder(address _address)\n        external\n        onlyAdmin\n        validAddress(_address)\n    {\n        trustedForwarder = _address;\n    }\n\n    /** @dev admin set TreeFactory contract address\n     * @param _address set to the address of TreeFactory contract\n     */\n    function setTreeFactoryAddress(address _address) external onlyAdmin {\n        ITreeFactory candidateContract = ITreeFactory(_address);\n\n        require(candidateContract.isTreeFactory());\n\n        treeFactory = candidateContract;\n    }\n\n    /** @dev admin set DaiFund contract address\n     * @param _address set to the address of DaiFund contract\n     */\n    function setDaiFundAddress(address _address) external onlyAdmin {\n        IDaiFund candidateContract = IDaiFund(_address);\n\n        require(candidateContract.isDaiFund());\n\n        daiFund = candidateContract;\n    }\n\n    /** @dev admin set DaiToken contract address\n     * @param _address set to the address of DaiToken contract\n     */\n    function setDaiTokenAddress(address _address)\n        external\n        onlyAdmin\n        validAddress(_address)\n    {\n        IERC20Upgradeable candidateContract = IERC20Upgradeable(_address);\n        daiToken = candidateContract;\n    }\n\n    /**\n     * @dev admin set Allocation contract address\n     * @param _address set to the address of Allocation contract\n     */\n    function setAllocationAddress(address _address) external onlyAdmin {\n        IAllocation candidateContract = IAllocation(_address);\n        require(candidateContract.isAllocation());\n        allocation = candidateContract;\n    }\n\n    /** @dev admin set PlanterFund contract address\n     * @param _address set to the address of PlanterFund contract\n     */\n    function setPlanterFundAddress(address _address) external onlyAdmin {\n        IPlanterFund candidateContract = IPlanterFund(_address);\n\n        require(candidateContract.isPlanterFund());\n\n        planterFundContract = candidateContract;\n    }\n\n    /** @dev admin set WethFund contract address\n     * @param _address set to the address of WethFund contract\n     */\n    function setWethFundAddress(address _address) external onlyAdmin {\n        IWethFund candidateContract = IWethFund(_address);\n\n        require(candidateContract.isWethFund());\n\n        wethFund = candidateContract;\n    }\n\n    /**\n     * @dev admin set Attributes contract address\n     * @param _address set to the address of Attribute contract\n     */\n\n    function setAttributesAddress(address _address) external onlyAdmin {\n        IAttribute candidateContract = IAttribute(_address);\n        require(candidateContract.isAttribute());\n        attribute = candidateContract;\n    }\n\n    // **** FUNDTREE SECTION ****\n\n    /** @dev admin set the price of trees\n     * @param _price price of tree\n     */\n    function updatePrice(uint256 _price) external onlyDataManager {\n        price = _price;\n        emit PriceUpdated(_price);\n    }\n\n    /**\n     * @dev admin update lastFundedTreeId\n     * @param _lastFundedTreeId id of last funded tree\n     */\n    function updateLastFundedTreeId(uint256 _lastFundedTreeId)\n        external\n        onlyDataManager\n    {\n        require(\n            _lastFundedTreeId > lastFundedTreeId,\n            \"Input must be gt last tree sold\"\n        );\n\n        lastFundedTreeId = _lastFundedTreeId;\n\n        emit LastFundedTreeIdUpdated(_lastFundedTreeId);\n    }\n\n    /**\n     * @dev fund {_count} tree\n     * NOTE if {_recipient} address exist trees minted to the {_recipient}\n     * and mint to the function caller otherwise\n     * NOTE function caller pay for the price of trees\n     * NOTE based on the allocation data for tree totalBalances and PlanterFund\n     * contract balance and projected earnings updated\n     * NOTE generate unique symbols for trees\n     * NOTE if referrer address exists {_count} added to the referrerCount\n     * @param _count number of trees to fund\n     * @param _referrer address of referrer\n     * @param _recipient address of recipient\n     */\n    function fundTree(\n        uint256 _count,\n        address _referrer,\n        address _recipient\n    ) external {\n        require(_count > 0 && _count < 101, \"invalid count\");\n\n        uint256 totalPrice = price * _count;\n\n        require(\n            daiToken.balanceOf(_msgSender()) >= totalPrice,\n            \"invalid amount\"\n        );\n\n        bool success = daiToken.transferFrom(\n            _msgSender(),\n            address(daiFund),\n            totalPrice\n        );\n\n        require(success, \"unsuccessful transfer\");\n\n        address recipient = _recipient == address(0)\n            ? _msgSender()\n            : _recipient;\n\n        emit TreeFunded(_msgSender(), recipient, _referrer, _count, totalPrice);\n\n        uint256 tempLastFundedTreeId = lastFundedTreeId;\n\n        TotalBalances memory totalBalances;\n\n        for (uint256 i = 0; i < _count; i++) {\n            tempLastFundedTreeId = treeFactory.mintTree(\n                tempLastFundedTreeId,\n                recipient\n            );\n\n            attribute.createAttribute(tempLastFundedTreeId);\n\n            (\n                uint16 planterShare,\n                uint16 ambassadorShare,\n                uint16 researchShare,\n                uint16 localDevelopmentShare,\n                uint16 insuranceShare,\n                uint16 treasuryShare,\n                uint16 reserve1Share,\n                uint16 reserve2Share\n            ) = allocation.findAllocationData(tempLastFundedTreeId);\n\n            totalBalances.planter += (price * planterShare) / 10000;\n            totalBalances.ambassador += (price * ambassadorShare) / 10000;\n            totalBalances.research += (price * researchShare) / 10000;\n            totalBalances.localDevelopment +=\n                (price * localDevelopmentShare) /\n                10000;\n            totalBalances.insurance += (price * insuranceShare) / 10000;\n            totalBalances.treasury += (price * treasuryShare) / 10000;\n            totalBalances.reserve1 += (price * reserve1Share) / 10000;\n            totalBalances.reserve2 += (price * reserve2Share) / 10000;\n\n            planterFundContract.updateProjectedEarnings(\n                tempLastFundedTreeId,\n                (price * planterShare) / 10000,\n                (price * ambassadorShare) / 10000\n            );\n\n            emit RegularMint(recipient, tempLastFundedTreeId, price);\n        }\n\n        daiFund.fundTreeBatch(\n            totalBalances.planter,\n            totalBalances.ambassador,\n            totalBalances.research,\n            totalBalances.localDevelopment,\n            totalBalances.insurance,\n            totalBalances.treasury,\n            totalBalances.reserve1,\n            totalBalances.reserve2\n        );\n\n        lastFundedTreeId = tempLastFundedTreeId;\n\n        if (_referrer != address(0)) {\n            _calculateReferrerCount(_referrer, _count);\n        }\n    }\n\n    /**\n     * @dev fund {_count} tree\n     * NOTE if {_recipient} address exist tree minted to the {_recipient}\n     * and mint to the function caller otherwise\n     * NOTE function caller pay for the price of trees\n     * NOTE based on the allocation data for tree totalBalances and PlanterFund\n     * contract balance and projected earnings updated\n     * NOTE generate unique symbols for trees\n     * NOTE if referrer address exists {_count} added to the referrerCount\n     * @param _treeId id of tree to fund\n     * @param _referrer address of referrer\n     * @param _recipient address of recipient\n     */\n    function fundTreeById(\n        uint256 _treeId,\n        address _referrer,\n        address _recipient\n    ) external {\n        require(_treeId > lastFundedTreeId, \"invalid tree\");\n\n        require(daiToken.balanceOf(_msgSender()) >= price, \"invalid amount\");\n\n        bool success = daiToken.transferFrom(\n            _msgSender(),\n            address(daiFund),\n            price\n        );\n\n        require(success, \"unsuccessful transfer\");\n\n        address recipient = _recipient == address(0)\n            ? _msgSender()\n            : _recipient;\n\n        uint256 treeId = _treeId;\n\n        treeFactory.mintTreeById(treeId, recipient);\n\n        attribute.createAttribute(treeId);\n\n        (\n            uint16 planterShare,\n            uint16 ambassadorShare,\n            uint16 researchShare,\n            uint16 localDevelopmentmentShare,\n            uint16 insuranceShare,\n            uint16 treasuryShare,\n            uint16 reserve1Share,\n            uint16 reserve2Share\n        ) = allocation.findAllocationData(treeId);\n\n        daiFund.fundTree(\n            treeId,\n            price,\n            planterShare,\n            ambassadorShare,\n            researchShare,\n            localDevelopmentmentShare,\n            insuranceShare,\n            treasuryShare,\n            reserve1Share,\n            reserve2Share\n        );\n\n        if (_referrer != address(0)) {\n            _calculateReferrerCount(_referrer, 1);\n        }\n\n        emit TreeFundedById(_msgSender(), recipient, _referrer, treeId, price);\n    }\n\n    // **** REFERRAL SECTION ****\n\n    /**\n     * @dev admin update referral tree payments\n     * @param _referralTreePaymentToPlanter is referral tree payment to planter amount\n     * @param _referralTreePaymentToAmbassador is referral tree payment to ambassador amount\n     */\n    function updateReferralTreePayments(\n        uint256 _referralTreePaymentToPlanter,\n        uint256 _referralTreePaymentToAmbassador\n    ) external onlyDataManager {\n        referralTreePaymentToPlanter = _referralTreePaymentToPlanter;\n        referralTreePaymentToAmbassador = _referralTreePaymentToAmbassador;\n\n        emit ReferralTreePaymentsUpdated(\n            _referralTreePaymentToPlanter,\n            _referralTreePaymentToAmbassador\n        );\n    }\n\n    /**\n     * @dev admin update referral trigger count\n     * @param _count number set to referralTriggerCount\n     */\n    function updateReferralTriggerCount(uint256 _count)\n        external\n        onlyDataManager\n    {\n        referralTriggerCount = _count;\n        emit ReferralTriggerCountUpdated(_count);\n    }\n\n    /**\n     * @dev update referrer claimable trees\n     * @param _referrer address of referrer\n     * @param _count amount added to referrerClaimableTreesWeth\n     */\n    function updateReferrerClaimableTreesWeth(address _referrer, uint256 _count)\n        external\n        onlyTreejerContract\n    {\n        referrerClaimableTreesWeth[_referrer] += _count;\n    }\n\n    /**\n     * @dev update referrerCount and calculate referrerClaimableTreesDai based on\n     * referrerCount and referralTriggerCount\n     * @param _referrer address of referrer\n     * @param _count added number to referrerCount of referrer\n     */\n    function _calculateReferrerCount(address _referrer, uint256 _count)\n        private\n    {\n        uint256 tempReferrerCount = referrerCount[_referrer] + _count;\n\n        if (tempReferrerCount >= referralTriggerCount) {\n            uint256 toClaimCount = tempReferrerCount / referralTriggerCount;\n            tempReferrerCount -= toClaimCount * referralTriggerCount;\n            referrerClaimableTreesDai[_referrer] += toClaimCount;\n        }\n\n        referrerCount[_referrer] = tempReferrerCount;\n    }\n\n    /**\n     * @dev referrer claim rewards and trees mint to the referral\n     * NOTE referrer can claim up to 45 trees in each request\n     */\n    function claimReferralReward() external {\n        uint256 claimableTreesCount = referrerClaimableTreesDai[_msgSender()] +\n            referrerClaimableTreesWeth[_msgSender()];\n\n        require(claimableTreesCount > 0, \"invalid gift owner\");\n\n        if (claimableTreesCount > 50) {\n            claimableTreesCount = 50;\n        }\n\n        int256 difference = int256(referrerClaimableTreesDai[_msgSender()]) -\n            int256(claimableTreesCount);\n\n        uint256 totalPrice = 0;\n\n        if (difference > -1) {\n            totalPrice =\n                claimableTreesCount *\n                (referralTreePaymentToPlanter +\n                    referralTreePaymentToAmbassador);\n\n            referrerClaimableTreesDai[_msgSender()] -= claimableTreesCount;\n\n            daiFund.transferReferrerDai(totalPrice);\n        } else {\n            if (referrerClaimableTreesDai[_msgSender()] > 0) {\n                totalPrice =\n                    referrerClaimableTreesDai[_msgSender()] *\n                    (referralTreePaymentToPlanter +\n                        referralTreePaymentToAmbassador);\n\n                referrerClaimableTreesDai[_msgSender()] = 0;\n\n                daiFund.transferReferrerDai(totalPrice);\n            }\n\n            uint256 claimableTreesWethTotalPrice = uint256(-difference) *\n                (referralTreePaymentToPlanter +\n                    referralTreePaymentToAmbassador);\n\n            referrerClaimableTreesWeth[_msgSender()] -= uint256(-difference);\n\n            wethFund.updateDaiDebtToPlanterContract(\n                claimableTreesWethTotalPrice\n            );\n\n            totalPrice += claimableTreesWethTotalPrice;\n        }\n\n        emit ReferralRewardClaimed(\n            _msgSender(),\n            claimableTreesCount,\n            totalPrice\n        );\n\n        _mintReferralReward(claimableTreesCount, _msgSender());\n    }\n\n    /**\n     * @dev mint trees to the referral and update projected earnings\n     * @param _count number of trees to mint\n     * @param _referrer address of referrer\n     */\n    function _mintReferralReward(uint256 _count, address _referrer) private {\n        uint256 tempLastFundedTreeId = lastFundedTreeId;\n\n        for (uint256 i = 0; i < _count; i++) {\n            tempLastFundedTreeId = treeFactory.mintTree(\n                tempLastFundedTreeId,\n                _referrer\n            );\n\n            attribute.createAttribute(tempLastFundedTreeId);\n\n            planterFundContract.updateProjectedEarnings(\n                tempLastFundedTreeId,\n                referralTreePaymentToPlanter,\n                referralTreePaymentToAmbassador\n            );\n\n            emit RegularMint(_referrer, tempLastFundedTreeId, price);\n        }\n\n        lastFundedTreeId = tempLastFundedTreeId;\n    }\n}\n",
  "sourcePath": "/media/ali/New Volume/treejer/contract/contracts/regularSale/RegularSale.sol",
  "compiler": {
    "name": "solc",
    "version": "0.8.6+commit.11564f7e.Emscripten.clang"
  },
  "schemaVersion": "3.4.3",
  "updatedAt": "2021-10-25T21:10:51.464Z",
  "networkType": "ethereum",
  "devdoc": {
    "kind": "dev",
    "methods": {
      "claimReferralReward()": {
        "details": "referrer claim rewards and trees mint to the referral NOTE referrer can claim up to 45 trees in each request"
      },
      "fundTree(uint256,address,address)": {
        "details": "fund {_count} tree NOTE if {_recipient} address exist trees minted to the {_recipient} and mint to the function caller otherwise NOTE function caller pay for the price of trees NOTE based on the allocation data for tree totalBalances and PlanterFund contract balance and projected earnings updated NOTE generate unique symbols for trees NOTE if referrer address exists {_count} added to the referrerCount",
        "params": {
          "_count": "number of trees to fund",
          "_recipient": "address of recipient",
          "_referrer": "address of referrer"
        }
      },
      "fundTreeById(uint256,address,address)": {
        "details": "fund {_count} tree NOTE if {_recipient} address exist tree minted to the {_recipient} and mint to the function caller otherwise NOTE function caller pay for the price of trees NOTE based on the allocation data for tree totalBalances and PlanterFund contract balance and projected earnings updated NOTE generate unique symbols for trees NOTE if referrer address exists {_count} added to the referrerCount",
        "params": {
          "_recipient": "address of recipient",
          "_referrer": "address of referrer",
          "_treeId": "id of tree to fund"
        }
      },
      "initialize(address,uint256)": {
        "details": "initialize AccessRestriction contract and set true for isRegularSale set {_price} to tree price and 10000 to lastFundedTreeId and 20 to referralTriggerCount",
        "params": {
          "_accessRestrictionAddress": "set to the address of AccessRestriction contract",
          "_price": "initial tree price"
        }
      },
      "setAllocationAddress(address)": {
        "details": "admin set Allocation contract address",
        "params": {
          "_address": "set to the address of Allocation contract"
        }
      },
      "setAttributesAddress(address)": {
        "details": "admin set Attributes contract address",
        "params": {
          "_address": "set to the address of Attribute contract"
        }
      },
      "setDaiFundAddress(address)": {
        "details": "admin set DaiFund contract address",
        "params": {
          "_address": "set to the address of DaiFund contract"
        }
      },
      "setDaiTokenAddress(address)": {
        "details": "admin set DaiToken contract address",
        "params": {
          "_address": "set to the address of DaiToken contract"
        }
      },
      "setPlanterFundAddress(address)": {
        "details": "admin set PlanterFund contract address",
        "params": {
          "_address": "set to the address of PlanterFund contract"
        }
      },
      "setTreeFactoryAddress(address)": {
        "details": "admin set TreeFactory contract address",
        "params": {
          "_address": "set to the address of TreeFactory contract"
        }
      },
      "setTrustedForwarder(address)": {
        "details": "admin set trusted forwarder address",
        "params": {
          "_address": "set to {trustedForwarder}"
        }
      },
      "setWethFundAddress(address)": {
        "details": "admin set WethFund contract address",
        "params": {
          "_address": "set to the address of WethFund contract"
        }
      },
      "updateLastFundedTreeId(uint256)": {
        "details": "admin update lastFundedTreeId",
        "params": {
          "_lastFundedTreeId": "id of last funded tree"
        }
      },
      "updatePrice(uint256)": {
        "details": "admin set the price of trees",
        "params": {
          "_price": "price of tree"
        }
      },
      "updateReferralTreePayments(uint256,uint256)": {
        "details": "admin update referral tree payments",
        "params": {
          "_referralTreePaymentToAmbassador": "is referral tree payment to ambassador amount",
          "_referralTreePaymentToPlanter": "is referral tree payment to planter amount"
        }
      },
      "updateReferralTriggerCount(uint256)": {
        "details": "admin update referral trigger count",
        "params": {
          "_count": "number set to referralTriggerCount"
        }
      },
      "updateReferrerClaimableTreesWeth(address,uint256)": {
        "details": "update referrer claimable trees",
        "params": {
          "_count": "amount added to referrerClaimableTreesWeth",
          "_referrer": "address of referrer"
        }
      },
      "versionRecipient()": {
        "details": "return version recipient "
      }
    },
    "title": "RegularSale contract ",
    "version": 1
  },
  "userdoc": {
    "kind": "user",
    "methods": {
      "isRegularSale()": {
        "notice": "NOTE {isRegularSale} set inside the initialize to {true} "
      },
      "isTrustedForwarder(address)": {
        "notice": "return if the forwarder is trusted to forward relayed transactions to us. the forwarder is required to verify the sender's signature, and verify the call is not a replay."
      },
      "referralTreePaymentToAmbassador()": {
        "notice": "NOTE referralTreePaymentToAmbassador amount "
      },
      "referralTreePaymentToPlanter()": {
        "notice": "NOTE referralTreePaymentToPlanter amount "
      },
      "referralTriggerCount()": {
        "notice": "NOTE referralTriggerCount   "
      },
      "referrerClaimableTreesDai(address)": {
        "notice": "NOTE mapping of referrer address to claimableTreesDai "
      },
      "referrerClaimableTreesWeth(address)": {
        "notice": "NOTE mapping of referrer address to claimableTreesWeth "
      },
      "referrerCount(address)": {
        "notice": "NOTE mapping of referrer address to referrerCount "
      }
    },
    "version": 1
  }
}