{
  "contractName": "RelayRecipient",
  "abi": [
    {
      "inputs": [
        {
          "internalType": "address",
          "name": "forwarder",
          "type": "address"
        }
      ],
      "name": "isTrustedForwarder",
      "outputs": [
        {
          "internalType": "bool",
          "name": "",
          "type": "bool"
        }
      ],
      "stateMutability": "view",
      "type": "function"
    },
    {
      "inputs": [],
      "name": "trustedForwarder",
      "outputs": [
        {
          "internalType": "address",
          "name": "",
          "type": "address"
        }
      ],
      "stateMutability": "view",
      "type": "function"
    },
    {
      "inputs": [],
      "name": "versionRecipient",
      "outputs": [
        {
          "internalType": "string",
          "name": "",
          "type": "string"
        }
      ],
      "stateMutability": "pure",
      "type": "function"
    }
  ],
  "bytecode": "0x608060405234801561001057600080fd5b506101a6806100206000396000f3fe608060405234801561001057600080fd5b50600436106100415760003560e01c8063486ff0cd14610046578063572b6c051461008e5780637da0a877146100c0575b600080fd5b604080518082018252601d81527f322e322e302b747265656a65722e6972656c6179726563697069656e7400000060208201529051610085919061011b565b60405180910390f35b6100b061009c3660046100eb565b6000546001600160a01b0391821691161490565b6040519015158152602001610085565b6000546100d3906001600160a01b031681565b6040516001600160a01b039091168152602001610085565b6000602082840312156100fd57600080fd5b81356001600160a01b038116811461011457600080fd5b9392505050565b600060208083528351808285015260005b818110156101485785810183015185820160400152820161012c565b8181111561015a576000604083870101525b50601f01601f191692909201604001939250505056fea2646970667358221220889e66638f6aea8551e1d17d2e5cd67e673ba8abcedec64ec32c726bbe333ad564736f6c63430008060033",
  "immutableReferences": {},
  "source": "// SPDX-License-Identifier: GPL-3.0\n\npragma solidity >=0.7.6;\n\nimport \"./externalFile/BaseRelayRecipient.sol\";\n\ncontract RelayRecipient is BaseRelayRecipient {\n    function versionRecipient() external pure override returns (string memory) {\n        return \"2.2.0+treejer.irelayrecipient\";\n    }\n}\n",
  "sourcePath": "/home/amir/Projects/treejer/contract-latest/contracts/gsn/RelayRecipient.sol",
  "compiler": {
    "name": "solc",
    "version": "0.8.6+commit.11564f7e.Emscripten.clang"
  },
  "schemaVersion": "3.4.1",
  "updatedAt": "2021-07-27T23:15:40.730Z",
  "devdoc": {
    "kind": "dev",
    "methods": {},
    "version": 1
  },
  "userdoc": {
    "kind": "user",
    "methods": {
      "isTrustedForwarder(address)": {
        "notice": "return if the forwarder is trusted to forward relayed transactions to us. the forwarder is required to verify the sender's signature, and verify the call is not a replay."
      }
    },
    "version": 1
  }
}