{
  "contractName": "Treasury",
  "abi": [
    {
      "anonymous": false,
      "inputs": [
        {
          "indexed": false,
          "internalType": "string",
          "name": "description",
          "type": "string"
        }
      ],
      "name": "DistributionModelOfTreeNotExist",
      "type": "event"
    },
    {
      "anonymous": false,
      "inputs": [
        {
          "indexed": false,
          "internalType": "uint256",
          "name": "startingTreeId",
          "type": "uint256"
        },
        {
          "indexed": false,
          "internalType": "uint256",
          "name": "endingTreeId",
          "type": "uint256"
        },
        {
          "indexed": false,
          "internalType": "uint256",
          "name": "distributionModelId",
          "type": "uint256"
        }
      ],
      "name": "FundDistributionModelAssigned",
      "type": "event"
    },
    {
      "anonymous": false,
      "inputs": [
        {
          "indexed": false,
          "internalType": "uint256",
          "name": "amount",
          "type": "uint256"
        },
        {
          "indexed": false,
          "internalType": "address",
          "name": "account",
          "type": "address"
        },
        {
          "indexed": false,
          "internalType": "string",
          "name": "reason",
          "type": "string"
        }
      ],
      "name": "LocalDevelopBalanceWithdrawn",
      "type": "event"
    },
    {
      "anonymous": false,
      "inputs": [
        {
          "indexed": false,
          "internalType": "uint256",
          "name": "amount",
          "type": "uint256"
        },
        {
          "indexed": false,
          "internalType": "address",
          "name": "account",
          "type": "address"
        },
        {
          "indexed": false,
          "internalType": "string",
          "name": "reason",
          "type": "string"
        }
      ],
      "name": "OtherBalanceWithdrawn1",
      "type": "event"
    },
    {
      "anonymous": false,
      "inputs": [
        {
          "indexed": false,
          "internalType": "uint256",
          "name": "amount",
          "type": "uint256"
        },
        {
          "indexed": false,
          "internalType": "address",
          "name": "account",
          "type": "address"
        },
        {
          "indexed": false,
          "internalType": "string",
          "name": "reason",
          "type": "string"
        }
      ],
      "name": "OtherBalanceWithdrawn2",
      "type": "event"
    },
    {
      "anonymous": false,
      "inputs": [
        {
          "indexed": false,
          "internalType": "uint256",
          "name": "amount",
          "type": "uint256"
        },
        {
          "indexed": false,
          "internalType": "address",
          "name": "account",
          "type": "address"
        }
      ],
      "name": "PlanterBalanceWithdrawn",
      "type": "event"
    },
    {
      "anonymous": false,
      "inputs": [
        {
          "indexed": false,
          "internalType": "uint256",
          "name": "treeId",
          "type": "uint256"
        },
        {
          "indexed": false,
          "internalType": "address",
          "name": "planterId",
          "type": "address"
        },
        {
          "indexed": false,
          "internalType": "uint256",
          "name": "amount",
          "type": "uint256"
        }
      ],
      "name": "PlanterFunded",
      "type": "event"
    },
    {
      "anonymous": false,
      "inputs": [
        {
          "indexed": false,
          "internalType": "uint256",
          "name": "amount",
          "type": "uint256"
        },
        {
          "indexed": false,
          "internalType": "address",
          "name": "account",
          "type": "address"
        },
        {
          "indexed": false,
          "internalType": "string",
          "name": "reason",
          "type": "string"
        }
      ],
      "name": "RescueBalanceWithdrawn",
      "type": "event"
    },
    {
      "anonymous": false,
      "inputs": [
        {
          "indexed": false,
          "internalType": "uint256",
          "name": "amount",
          "type": "uint256"
        },
        {
          "indexed": false,
          "internalType": "address",
          "name": "account",
          "type": "address"
        },
        {
          "indexed": false,
          "internalType": "string",
          "name": "reason",
          "type": "string"
        }
      ],
      "name": "TreeResearchBalanceWithdrawn",
      "type": "event"
    },
    {
      "anonymous": false,
      "inputs": [
        {
          "indexed": false,
          "internalType": "uint256",
          "name": "amount",
          "type": "uint256"
        },
        {
          "indexed": false,
          "internalType": "address",
          "name": "account",
          "type": "address"
        },
        {
          "indexed": false,
          "internalType": "string",
          "name": "reason",
          "type": "string"
        }
      ],
      "name": "TreejerDevelopBalanceWithdrawn",
      "type": "event"
    },
    {
      "inputs": [],
      "name": "accessRestriction",
      "outputs": [
        {
          "internalType": "contract IAccessRestriction",
          "name": "",
          "type": "address"
        }
      ],
      "stateMutability": "view",
      "type": "function",
      "constant": true
    },
    {
      "inputs": [
        {
          "internalType": "uint256",
          "name": "",
          "type": "uint256"
        }
      ],
      "name": "assignModels",
      "outputs": [
        {
          "internalType": "uint256",
          "name": "startingTreeId",
          "type": "uint256"
        },
        {
          "internalType": "uint256",
          "name": "distributionModelId",
          "type": "uint256"
        }
      ],
      "stateMutability": "view",
      "type": "function",
      "constant": true
    },
    {
      "inputs": [
        {
          "internalType": "address",
          "name": "",
          "type": "address"
        }
      ],
      "name": "balances",
      "outputs": [
        {
          "internalType": "uint256",
          "name": "",
          "type": "uint256"
        }
      ],
      "stateMutability": "view",
      "type": "function",
      "constant": true
    },
    {
      "inputs": [
        {
          "internalType": "uint256",
          "name": "",
          "type": "uint256"
        }
      ],
      "name": "fundDistributions",
      "outputs": [
        {
          "internalType": "uint16",
          "name": "planterFund",
          "type": "uint16"
        },
        {
          "internalType": "uint16",
          "name": "referralFund",
          "type": "uint16"
        },
        {
          "internalType": "uint16",
          "name": "treeResearch",
          "type": "uint16"
        },
        {
          "internalType": "uint16",
          "name": "localDevelop",
          "type": "uint16"
        },
        {
          "internalType": "uint16",
          "name": "rescueFund",
          "type": "uint16"
        },
        {
          "internalType": "uint16",
          "name": "treejerDevelop",
          "type": "uint16"
        },
        {
          "internalType": "uint16",
          "name": "reserveFund1",
          "type": "uint16"
        },
        {
          "internalType": "uint16",
          "name": "reserveFund2",
          "type": "uint16"
        },
        {
          "internalType": "uint16",
          "name": "exists",
          "type": "uint16"
        }
      ],
      "stateMutability": "view",
      "type": "function",
      "constant": true
    },
    {
      "inputs": [],
      "name": "isTreasury",
      "outputs": [
        {
          "internalType": "bool",
          "name": "",
          "type": "bool"
        }
      ],
      "stateMutability": "view",
      "type": "function",
      "constant": true
    },
    {
      "inputs": [
        {
          "internalType": "address",
          "name": "forwarder",
          "type": "address"
        }
      ],
      "name": "isTrustedForwarder",
      "outputs": [
        {
          "internalType": "bool",
          "name": "",
          "type": "bool"
        }
      ],
      "stateMutability": "view",
      "type": "function",
      "constant": true
    },
    {
      "inputs": [],
      "name": "localDevelopAddress",
      "outputs": [
        {
          "internalType": "address payable",
          "name": "",
          "type": "address"
        }
      ],
      "stateMutability": "view",
      "type": "function",
      "constant": true
    },
    {
      "inputs": [],
      "name": "maxAssignedIndex",
      "outputs": [
        {
          "internalType": "uint256",
          "name": "",
          "type": "uint256"
        }
      ],
      "stateMutability": "view",
      "type": "function",
      "constant": true
    },
    {
      "inputs": [],
      "name": "planterContract",
      "outputs": [
        {
          "internalType": "contract IPlanter",
          "name": "",
          "type": "address"
        }
      ],
      "stateMutability": "view",
      "type": "function",
      "constant": true
    },
    {
      "inputs": [
        {
          "internalType": "uint256",
          "name": "",
          "type": "uint256"
        }
      ],
      "name": "planterFunds",
      "outputs": [
        {
          "internalType": "uint256",
          "name": "",
          "type": "uint256"
        }
      ],
      "stateMutability": "view",
      "type": "function",
      "constant": true
    },
    {
      "inputs": [
        {
          "internalType": "uint256",
          "name": "",
          "type": "uint256"
        }
      ],
      "name": "plantersPaid",
      "outputs": [
        {
          "internalType": "uint256",
          "name": "",
          "type": "uint256"
        }
      ],
      "stateMutability": "view",
      "type": "function",
      "constant": true
    },
    {
      "inputs": [
        {
          "internalType": "uint256",
          "name": "",
          "type": "uint256"
        }
      ],
      "name": "referralFunds",
      "outputs": [
        {
          "internalType": "uint256",
          "name": "",
          "type": "uint256"
        }
      ],
      "stateMutability": "view",
      "type": "function",
      "constant": true
    },
    {
      "inputs": [],
      "name": "rescueFundAddress",
      "outputs": [
        {
          "internalType": "address payable",
          "name": "",
          "type": "address"
        }
      ],
      "stateMutability": "view",
      "type": "function",
      "constant": true
    },
    {
      "inputs": [],
      "name": "reserveFundAddress1",
      "outputs": [
        {
          "internalType": "address payable",
          "name": "",
          "type": "address"
        }
      ],
      "stateMutability": "view",
      "type": "function",
      "constant": true
    },
    {
      "inputs": [],
      "name": "reserveFundAddress2",
      "outputs": [
        {
          "internalType": "address payable",
          "name": "",
          "type": "address"
        }
      ],
      "stateMutability": "view",
      "type": "function",
      "constant": true
    },
    {
      "inputs": [],
      "name": "totalFunds",
      "outputs": [
        {
          "internalType": "uint256",
          "name": "planterFund",
          "type": "uint256"
        },
        {
          "internalType": "uint256",
          "name": "referralFund",
          "type": "uint256"
        },
        {
          "internalType": "uint256",
          "name": "treeResearch",
          "type": "uint256"
        },
        {
          "internalType": "uint256",
          "name": "localDevelop",
          "type": "uint256"
        },
        {
          "internalType": "uint256",
          "name": "rescueFund",
          "type": "uint256"
        },
        {
          "internalType": "uint256",
          "name": "treejerDevelop",
          "type": "uint256"
        },
        {
          "internalType": "uint256",
          "name": "reserveFund1",
          "type": "uint256"
        },
        {
          "internalType": "uint256",
          "name": "reserveFund2",
          "type": "uint256"
        }
      ],
      "stateMutability": "view",
      "type": "function",
      "constant": true
    },
    {
      "inputs": [],
      "name": "treeResearchAddress",
      "outputs": [
        {
          "internalType": "address payable",
          "name": "",
          "type": "address"
        }
      ],
      "stateMutability": "view",
      "type": "function",
      "constant": true
    },
    {
      "inputs": [],
      "name": "treejerDevelopAddress",
      "outputs": [
        {
          "internalType": "address payable",
          "name": "",
          "type": "address"
        }
      ],
      "stateMutability": "view",
      "type": "function",
      "constant": true
    },
    {
      "inputs": [],
      "name": "trustedForwarder",
      "outputs": [
        {
          "internalType": "address",
          "name": "",
          "type": "address"
        }
      ],
      "stateMutability": "view",
      "type": "function",
      "constant": true
    },
    {
      "inputs": [],
      "name": "versionRecipient",
      "outputs": [
        {
          "internalType": "string",
          "name": "",
          "type": "string"
        }
      ],
      "stateMutability": "pure",
      "type": "function",
      "constant": true
    },
    {
      "inputs": [
        {
          "internalType": "address",
          "name": "_accessRestrictionAddress",
          "type": "address"
        }
      ],
      "name": "initialize",
      "outputs": [],
      "stateMutability": "nonpayable",
      "type": "function"
    },
    {
      "inputs": [
        {
          "internalType": "address",
          "name": "_address",
          "type": "address"
        }
      ],
      "name": "setTrustedForwarder",
      "outputs": [],
      "stateMutability": "nonpayable",
      "type": "function"
    },
    {
      "inputs": [
        {
          "internalType": "address",
          "name": "_address",
          "type": "address"
        }
      ],
      "name": "setPlanterContractAddress",
      "outputs": [],
      "stateMutability": "nonpayable",
      "type": "function"
    },
    {
      "inputs": [
        {
          "internalType": "address payable",
          "name": "_address",
          "type": "address"
        }
      ],
      "name": "setTreeResearchAddress",
      "outputs": [],
      "stateMutability": "nonpayable",
      "type": "function"
    },
    {
      "inputs": [
        {
          "internalType": "address payable",
          "name": "_address",
          "type": "address"
        }
      ],
      "name": "setLocalDevelopAddress",
      "outputs": [],
      "stateMutability": "nonpayable",
      "type": "function"
    },
    {
      "inputs": [
        {
          "internalType": "address payable",
          "name": "_address",
          "type": "address"
        }
      ],
      "name": "setRescueFundAddress",
      "outputs": [],
      "stateMutability": "nonpayable",
      "type": "function"
    },
    {
      "inputs": [
        {
          "internalType": "address payable",
          "name": "_address",
          "type": "address"
        }
      ],
      "name": "setTreejerDevelopAddress",
      "outputs": [],
      "stateMutability": "nonpayable",
      "type": "function"
    },
    {
      "inputs": [
        {
          "internalType": "address payable",
          "name": "_address",
          "type": "address"
        }
      ],
      "name": "setReserveFund1Address",
      "outputs": [],
      "stateMutability": "nonpayable",
      "type": "function"
    },
    {
      "inputs": [
        {
          "internalType": "address payable",
          "name": "_address",
          "type": "address"
        }
      ],
      "name": "setReserveFund2Address",
      "outputs": [],
      "stateMutability": "nonpayable",
      "type": "function"
    },
    {
      "inputs": [
        {
          "internalType": "uint16",
          "name": "_planter",
          "type": "uint16"
        },
        {
          "internalType": "uint16",
          "name": "_referral",
          "type": "uint16"
        },
        {
          "internalType": "uint16",
          "name": "_treeResearch",
          "type": "uint16"
        },
        {
          "internalType": "uint16",
          "name": "_localDevelop",
          "type": "uint16"
        },
        {
          "internalType": "uint16",
          "name": "_rescueFund",
          "type": "uint16"
        },
        {
          "internalType": "uint16",
          "name": "_treejerDevelop",
          "type": "uint16"
        },
        {
          "internalType": "uint16",
          "name": "_reserveFund1",
          "type": "uint16"
        },
        {
          "internalType": "uint16",
          "name": "_reserveFund2",
          "type": "uint16"
        }
      ],
      "name": "addFundDistributionModel",
      "outputs": [],
      "stateMutability": "nonpayable",
      "type": "function"
    },
    {
      "inputs": [
        {
          "internalType": "uint256",
          "name": "_startTreeId",
          "type": "uint256"
        },
        {
          "internalType": "uint256",
          "name": "_endTreeId",
          "type": "uint256"
        },
        {
          "internalType": "uint256",
          "name": "_distributionModelId",
          "type": "uint256"
        }
      ],
      "name": "assignTreeFundDistributionModel",
      "outputs": [],
      "stateMutability": "nonpayable",
      "type": "function"
    },
    {
      "inputs": [
        {
          "internalType": "uint256",
          "name": "_treeId",
          "type": "uint256"
        }
      ],
      "name": "fundTree",
      "outputs": [],
      "stateMutability": "payable",
      "type": "function",
      "payable": true
    },
    {
      "inputs": [
        {
          "internalType": "uint256",
          "name": "_treeId",
          "type": "uint256"
        },
        {
          "internalType": "address",
          "name": "_planterId",
          "type": "address"
        },
        {
          "internalType": "uint64",
          "name": "_treeStatus",
          "type": "uint64"
        }
      ],
      "name": "fundPlanter",
      "outputs": [],
      "stateMutability": "nonpayable",
      "type": "function"
    },
    {
      "inputs": [
        {
          "internalType": "uint256",
          "name": "_treeId",
          "type": "uint256"
        }
      ],
      "name": "distributionModelExistance",
      "outputs": [
        {
          "internalType": "bool",
          "name": "",
          "type": "bool"
        }
      ],
      "stateMutability": "view",
      "type": "function",
      "constant": true
    },
    {
      "inputs": [
        {
          "internalType": "uint256",
          "name": "_amount",
          "type": "uint256"
        },
        {
          "internalType": "string",
          "name": "_reason",
          "type": "string"
        }
      ],
      "name": "withdrawTreeResearch",
      "outputs": [],
      "stateMutability": "nonpayable",
      "type": "function"
    },
    {
      "inputs": [
        {
          "internalType": "uint256",
          "name": "_amount",
          "type": "uint256"
        },
        {
          "internalType": "string",
          "name": "_reason",
          "type": "string"
        }
      ],
      "name": "withdrawLocalDevelop",
      "outputs": [],
      "stateMutability": "nonpayable",
      "type": "function"
    },
    {
      "inputs": [
        {
          "internalType": "uint256",
          "name": "_amount",
          "type": "uint256"
        },
        {
          "internalType": "string",
          "name": "_reason",
          "type": "string"
        }
      ],
      "name": "withdrawRescueFund",
      "outputs": [],
      "stateMutability": "nonpayable",
      "type": "function"
    },
    {
      "inputs": [
        {
          "internalType": "uint256",
          "name": "_amount",
          "type": "uint256"
        },
        {
          "internalType": "string",
          "name": "_reason",
          "type": "string"
        }
      ],
      "name": "withdrawTreejerDevelop",
      "outputs": [],
      "stateMutability": "nonpayable",
      "type": "function"
    },
    {
      "inputs": [
        {
          "internalType": "uint256",
          "name": "_amount",
          "type": "uint256"
        },
        {
          "internalType": "string",
          "name": "_reason",
          "type": "string"
        }
      ],
      "name": "withdrawReserveFund1",
      "outputs": [],
      "stateMutability": "nonpayable",
      "type": "function"
    },
    {
      "inputs": [
        {
          "internalType": "uint256",
          "name": "_amount",
          "type": "uint256"
        },
        {
          "internalType": "string",
          "name": "_reason",
          "type": "string"
        }
      ],
      "name": "withdrawReserveFund2",
      "outputs": [],
      "stateMutability": "nonpayable",
      "type": "function"
    },
    {
      "inputs": [
        {
          "internalType": "uint256",
          "name": "_amount",
          "type": "uint256"
        }
      ],
      "name": "withdrawPlanterBalance",
      "outputs": [],
      "stateMutability": "nonpayable",
      "type": "function"
    }
  ],
  "bytecode": "0x608060405234801561001057600080fd5b506131e4806100206000396000f3fe6080604052600436106102465760003560e01c8063968ed60011610139578063cb13011c116100b6578063e5356a651161007a578063e5356a651461083f578063ebf209da1461085f578063eec2a20314610894578063f4ee266c146108b4578063fa9ee503146108e1578063ff4eb8bb1461090157600080fd5b8063cb13011c14610792578063cb8b5da3146107b2578063d49fa06b146107d2578063d6762c4a146107ff578063da7422281461081f57600080fd5b8063a037edcc116100fd578063a037edcc146106f2578063a305cdee14610712578063a47fddb014610732578063ba6138a514610752578063c4d66de81461077257600080fd5b8063968ed60014610611578063985710ab1461067f57806399fece401461069f5780639e6454aa146106bf5780639faa98bf146106df57600080fd5b8063572b6c05116101c75780637a876fd81161018b5780637a876fd8146105715780637da0a877146105915780638194b85b146105b7578063842a3bdd146105d757806384457b63146105f157600080fd5b8063572b6c05146104b65780635944d7b4146104fb5780635f335a9314610511578063673dba2114610531578063723439511461055157600080fd5b8063375b42701161020e578063375b4270146103dd57806341ceea17146103fd578063486ff0cd1461042a5780634fe4967414610476578063536ad73a1461049657600080fd5b80630a43649a1461024b5780631087a2fe14610288578063233ac7aa1461036057806327e235e314610382578063310f6dec146103bd575b600080fd5b34801561025757600080fd5b50600f5461026b906001600160a01b031681565b6040516001600160a01b0390911681526020015b60405180910390f35b34801561029457600080fd5b5061030b6102a3366004612eba565b60156020526000908152604090205461ffff808216916201000081048216916401000000008204811691600160301b8104821691600160401b8204811691600160501b8104821691600160601b8204811691600160701b8104821691600160801b9091041689565b6040805161ffff9a8b168152988a1660208a01529689169688019690965293871660608701529186166080860152851660a0850152841660c0840152831660e08301529091166101008201526101200161027f565b34801561036c57600080fd5b5061038061037b366004612d9b565b610921565b005b34801561038e57600080fd5b506103af61039d366004612d9b565b60196020526000908152604090205481565b60405190815260200161027f565b3480156103c957600080fd5b5060105461026b906001600160a01b031681565b3480156103e957600080fd5b5060055461026b906001600160a01b031681565b34801561040957600080fd5b506103af610418366004612eba565b60166020526000908152604090205481565b34801561043657600080fd5b50604080518082018252601d81527f322e322e302b747265656a65722e6972656c6179726563697069656e740000006020820152905161027f9190612fca565b34801561048257600080fd5b50610380610491366004612d9b565b6109b4565b3480156104a257600080fd5b506103806104b1366004612f22565b610a47565b3480156104c257600080fd5b506104eb6104d1366004612d9b565b6000546201000090046001600160a01b0390811691161490565b604051901515815260200161027f565b34801561050757600080fd5b506103af60035481565b34801561051d57600080fd5b5060135461026b906001600160a01b031681565b34801561053d57600080fd5b5061038061054c366004612f22565b610c2b565b34801561055d57600080fd5b5061038061056c366004612f9e565b610ded565b34801561057d57600080fd5b5060125461026b906001600160a01b031681565b34801561059d57600080fd5b5060005461026b906201000090046001600160a01b031681565b3480156105c357600080fd5b506103806105d2366004612d9b565b611304565b3480156105e357600080fd5b506002546104eb9060ff1681565b3480156105fd57600080fd5b5061038061060c366004612d9b565b611397565b34801561061d57600080fd5b50600654600754600854600954600a54600b54600c54600d54610644979695949392919088565b604080519889526020890197909752958701949094526060860192909252608085015260a084015260c083015260e08201526101000161027f565b34801561068b57600080fd5b5061038061069a366004612e23565b61142a565b3480156106ab57600080fd5b506103806106ba366004612f22565b6116a8565b3480156106cb57600080fd5b506103806106da366004612d9b565b61186a565b6103806106ed366004612eba565b6118fd565b3480156106fe57600080fd5b50600e5461026b906001600160a01b031681565b34801561071e57600080fd5b5061038061072d366004612ed3565b611c61565b34801561073e57600080fd5b5060115461026b906001600160a01b031681565b34801561075e57600080fd5b5061038061076d366004612f22565b61201b565b34801561077e57600080fd5b5061038061078d366004612d9b565b6121db565b34801561079e57600080fd5b506103806107ad366004612d9b565b61233c565b3480156107be57600080fd5b506104eb6107cd366004612eba565b6123cf565b3480156107de57600080fd5b506103af6107ed366004612eba565b60176020526000908152604090205481565b34801561080b57600080fd5b5060045461026b906001600160a01b031681565b34801561082b57600080fd5b5061038061083a366004612d9b565b612411565b34801561084b57600080fd5b5061038061085a366004612f22565b6124ac565b34801561086b57600080fd5b5061087f61087a366004612eba565b61266e565b6040805192835260208301919091520161027f565b3480156108a057600080fd5b506103806108af366004612eba565b61269c565b3480156108c057600080fd5b506103af6108cf366004612eba565b60186020526000908152604090205481565b3480156108ed57600080fd5b506103806108fc366004612d9b565b612856565b34801561090d57600080fd5b5061038061091c366004612f22565b612968565b6004546001600160a01b0316638413ec1461093a612b2a565b6040516001600160e01b031960e084901b1681526001600160a01b03909116600482015260240160006040518083038186803b15801561097957600080fd5b505afa15801561098d573d6000803e3d6000fd5b5050601180546001600160a01b0319166001600160a01b0394909416939093179092555050565b6004546001600160a01b0316638413ec146109cd612b2a565b6040516001600160e01b031960e084901b1681526001600160a01b03909116600482015260240160006040518083038186803b158015610a0c57600080fd5b505afa158015610a20573d6000803e3d6000fd5b5050601380546001600160a01b0319166001600160a01b0394909416939093179092555050565b60048054604080516309b0d1f360e31b815290516001600160a01b0390921692634d868f98928282019260009290829003018186803b158015610a8957600080fd5b505afa158015610a9d573d6000803e3d6000fd5b50506004546001600160a01b03169150638413ec149050610abc612b2a565b6040516001600160e01b031960e084901b1681526001600160a01b03909116600482015260240160006040518083038186803b158015610afb57600080fd5b505afa158015610b0f573d6000803e3d6000fd5b50506010546001600160a01b031691505080610b465760405162461bcd60e51b8152600401610b3d9061304c565b60405180910390fd5b600a548411801590610b585750600084115b610b745760405162461bcd60e51b8152600401610b3d9061301f565b8360066004016000828254610b89919061313b565b90915550506010546040516001600160a01b039091169085156108fc029086906000818181858888f1935050505015610c0a576010546040517f85700b57d5ec89a15f491812de22a34a5bdca335fc68880dbab357cf81151fab91610bfd9187916001600160a01b03169087908790613075565b60405180910390a1610c25565b8360066004016000828254610c1f91906130e2565b90915550505b50505050565b60048054604080516309b0d1f360e31b815290516001600160a01b0390921692634d868f98928282019260009290829003018186803b158015610c6d57600080fd5b505afa158015610c81573d6000803e3d6000fd5b50506004546001600160a01b03169150638413ec149050610ca0612b2a565b6040516001600160e01b031960e084901b1681526001600160a01b03909116600482015260240160006040518083038186803b158015610cdf57600080fd5b505afa158015610cf3573d6000803e3d6000fd5b50506011546001600160a01b031691505080610d215760405162461bcd60e51b8152600401610b3d9061304c565b600b548411801590610d335750600084115b610d4f5760405162461bcd60e51b8152600401610b3d9061301f565b8360066005016000828254610d64919061313b565b90915550506011546040516001600160a01b039091169085156108fc029086906000818181858888f1935050505015610dd8576011546040517f174f34055ef4d06c26032b349f20281a6e7b69b17352d03a658bb3c02561367b91610bfd9187916001600160a01b03169087908790613075565b8360066005016000828254610c1f91906130e2565b6004546001600160a01b0316638413ec14610e06612b2a565b6040516001600160e01b031960e084901b1681526001600160a01b03909116600482015260240160006040518083038186803b158015610e4557600080fd5b505afa158015610e59573d6000803e3d6000fd5b505050600082815260156020526040902054600160801b900461ffff1615159050610ec65760405162461bcd60e51b815260206004820152601c60248201527f446973747269627574696f6e206d6f64656c206e6f7420666f756e64000000006044820152606401610b3d565b60006014805480602002602001604051908101604052809291908181526020016000905b82821015610f3057838290600052602060002090600202016040518060400160405290816000820154815260200160018201548152505081526020019060010190610eea565b50505050905060146000610f449190612d39565b6000805b825181101561117a5785838281518110610f6457610f64613183565b6020026020010151600001511015610fbe576014838281518110610f8a57610f8a613183565b6020908102919091018101518254600181810185556000948552938390208251600290920201908155910151910155611168565b81611041576040805180820190915286815260208101858152601480546001808201835560009290925292517fce6d7b5282bd9a3661ae061feed1dbda4e52ab073b1f9285be6e155d9c38d4ec60029094029384015590517fce6d7b5282bd9a3661ae061feed1dbda4e52ab073b1f9285be6e155d9c38d4ed9092019190915591505b816001141561111b578415801561105757508515155b15611065576005915061117a565b60008111801561109d575082818151811061108257611082613183565b60200260200101516000015185600161109b91906130e2565b105b1561111b57601460405180604001604052808760016110bc91906130e2565b8152602001856110cd60018661313b565b815181106110dd576110dd613183565b602090810291909101810151810151909152825460018181018555600094855293829020835160029283029091019081559290910151919092015591505b816002141561116857601483828151811061113857611138613183565b60209081029190910181015182546001818101855560009485529383902082516002909202019081559101519101555b8061117281613152565b915050610f48565b50806112145760408051808201909152858152602081018481526014805460018101825560009190915291517fce6d7b5282bd9a3661ae061feed1dbda4e52ab073b1f9285be6e155d9c38d4ec600290930292830155517fce6d7b5282bd9a3661ae061feed1dbda4e52ab073b1f9285be6e155d9c38d4ed909101558315801561120357508415155b1561121057506005611214565b5060015b8060051415611224576000196003555b80600114156112bc578360035410156112415760038490556112bc565b8151156112bc576014604051806040016040528086600161126291906130e2565b81526020018460018651611276919061313b565b8151811061128657611286613183565b60209081029190910181015181015190915282546001818101855560009485529382902083516002909202019081559101519101555b60408051868152602081018690529081018490527f6d9f75916b7ed1ab71a7b1427b912c06fc4f8d8494071c36cee10594152612419060600160405180910390a15050505050565b6004546001600160a01b0316638413ec1461131d612b2a565b6040516001600160e01b031960e084901b1681526001600160a01b03909116600482015260240160006040518083038186803b15801561135c57600080fd5b505afa158015611370573d6000803e3d6000fd5b5050600e80546001600160a01b0319166001600160a01b0394909416939093179092555050565b6004546001600160a01b0316638413ec146113b0612b2a565b6040516001600160e01b031960e084901b1681526001600160a01b03909116600482015260240160006040518083038186803b1580156113ef57600080fd5b505afa158015611403573d6000803e3d6000fd5b5050601280546001600160a01b0319166001600160a01b0394909416939093179092555050565b6004546001600160a01b0316638413ec14611443612b2a565b6040516001600160e01b031960e084901b1681526001600160a01b03909116600482015260240160006040518083038186803b15801561148257600080fd5b505afa158015611496573d6000803e3d6000fd5b5050505060006114b7856114b2886114b28b6114b28f8f612b64565b612b64565b90506114cb826114b2856114b28886612b64565b61ffff16612710146115135760405162461bcd60e51b8152602060048201526011602482015270073756d206d75737420626520313030303607c1b6044820152606401610b3d565b6040518061012001604052808a61ffff1681526020018961ffff1681526020018861ffff1681526020018761ffff1681526020018661ffff1681526020018561ffff1681526020018461ffff1681526020018361ffff168152602001600161ffff168152506015600061158560015490565b815260208082019290925260409081016000208351815493850151928501516060860151608087015160a088015160c089015160e08a0151610100909a015161ffff96871663ffffffff19909a169990991762010000988716989098029790971767ffffffff0000000019166401000000009486169490940267ffff000000000000191693909317600160301b92851692909202919091176bffffffff00000000000000001916600160401b9184169190910261ffff60501b191617600160501b918316919091021763ffffffff60601b1916600160601b9382169390930261ffff60701b191692909217600160701b948316949094029390931761ffff60801b1916600160801b91909216021790556001805481019055505050505050505050565b60048054604080516309b0d1f360e31b815290516001600160a01b0390921692634d868f98928282019260009290829003018186803b1580156116ea57600080fd5b505afa1580156116fe573d6000803e3d6000fd5b50506004546001600160a01b03169150638413ec14905061171d612b2a565b6040516001600160e01b031960e084901b1681526001600160a01b03909116600482015260240160006040518083038186803b15801561175c57600080fd5b505afa158015611770573d6000803e3d6000fd5b5050600f546001600160a01b03169150508061179e5760405162461bcd60e51b8152600401610b3d9061304c565b60095484118015906117b05750600084115b6117cc5760405162461bcd60e51b8152600401610b3d9061301f565b83600660030160008282546117e1919061313b565b9091555050600f546040516001600160a01b039091169085156108fc029086906000818181858888f193505050501561185557600f546040517ff55afe4fbf5e2382822e10e484a70ef4849c01a0e4764cfb653bdeea7e47e72891610bfd9187916001600160a01b03169087908790613075565b8360066003016000828254610c1f91906130e2565b6004546001600160a01b0316638413ec14611883612b2a565b6040516001600160e01b031960e084901b1681526001600160a01b03909116600482015260240160006040518083038186803b1580156118c257600080fd5b505afa1580156118d6573d6000803e3d6000fd5b5050600f80546001600160a01b0319166001600160a01b0394909416939093179092555050565b6004546001600160a01b031663a698a050611916612b2a565b6040516001600160e01b031960e084901b1681526001600160a01b03909116600482015260240160006040518083038186803b15801561195557600080fd5b505afa158015611969573d6000803e3d6000fd5b50505050600060156000601461197e85612bd2565b8154811061198e5761198e613183565b600091825260208083206001600290930201919091015483528281019390935260409182019020815161012081018352905461ffff8082168084526201000083048216958401959095526401000000008204811693830193909352600160301b810483166060830152600160401b810483166080830152600160501b8104831660a0830152600160601b8104831660c0830152600160701b8104831660e0830152600160801b9004909116610100820152915061271090611a4f903461311c565b611a5991906130fa565b60008381526016602090815260409091209190915581015161271090611a839061ffff163461311c565b611a8d91906130fa565b60008381526017602090815260409091209190915581015161271090611ab79061ffff163461311c565b611ac191906130fa565b60078054600090611ad39084906130e2565b9091555050606081015161271090611aef9061ffff163461311c565b611af991906130fa565b60098054600090611b0b9084906130e2565b909155505060c081015161271090611b279061ffff163461311c565b611b3191906130fa565b600c8054600090611b439084906130e2565b909155505060e081015161271090611b5f9061ffff163461311c565b611b6991906130fa565b600d8054600090611b7b9084906130e2565b9091555050805161271090611b949061ffff163461311c565b611b9e91906130fa565b60068054600090611bb09084906130e2565b9091555050608081015161271090611bcc9061ffff163461311c565b611bd691906130fa565b600a8054600090611be89084906130e2565b909155505060a081015161271090611c049061ffff163461311c565b611c0e91906130fa565b600b8054600090611c209084906130e2565b9091555050604081015161271090611c3c9061ffff163461311c565b611c4691906130fa565b60088054600090611c589084906130e2565b90915550505050565b6004546001600160a01b031663d26c31f0611c7a612b2a565b6040516001600160e01b031960e084901b1681526001600160a01b03909116600482015260240160006040518083038186803b158015611cb957600080fd5b505afa158015611ccd573d6000803e3d6000fd5b50505060008481526016602052604090205415159050611d285760405162461bcd60e51b81526020600482015260166024820152751c1b185b9d195c88199d5b99081b9bdd08195e1a5cdd60521b6044820152606401610b3d565b600554604051632293869960e21b81526001600160a01b0384811660048301526000928392839283921690638a4e1a649060240160806040518083038186803b158015611d7457600080fd5b505afa158015611d88573d6000803e3d6000fd5b505050506040513d601f19601f82011682018060405250810190611dac9190612dd3565b935093509350935083156120125760006165408667ffffffffffffffff161115611dfc57600088815260186020908152604080832054601690925290912054611df5919061313b565b9050611e47565b60008881526018602090815260408083205460169092529091205461654090611e309067ffffffffffffffff8a169061311c565b611e3a91906130fa565b611e44919061313b565b90505b8015612010576000888152601660209081526040808320546017909252822054611e7290849061311c565b611e7c91906130fa565b90508060066001016000828254611e93919061313b565b90915550506001600160a01b038416611ec6578060066003016000828254611ebb91906130e2565b90915550611ef49050565b6001600160a01b03841660009081526019602052604081208054839290611eee9084906130e2565b90915550505b8160066000016000828254611f09919061313b565b90915550612710905080611f1d858261313b565b611f27908561311c565b611f3191906130fa565b6001600160a01b03871660009081526019602052604081208054909190611f599084906130e2565b909155505060008a81526018602052604081208054859290611f7c9084906130e2565b90915550819050611f8d858561311c565b611f9791906130fa565b6001600160a01b038a1660009081526019602052604081208054909190611fbf9084906130e2565b9091555050604080518b81526001600160a01b038b1660208201529081018490527f3f6d99598b083c21a3be6109f92576af05ed04b2f6adb69e7fdba837587d0a249060600160405180910390a150505b505b50505050505050565b60048054604080516309b0d1f360e31b815290516001600160a01b0390921692634d868f98928282019260009290829003018186803b15801561205d57600080fd5b505afa158015612071573d6000803e3d6000fd5b50506004546001600160a01b03169150638413ec149050612090612b2a565b6040516001600160e01b031960e084901b1681526001600160a01b03909116600482015260240160006040518083038186803b1580156120cf57600080fd5b505afa1580156120e3573d6000803e3d6000fd5b50506012546001600160a01b0316915050806121115760405162461bcd60e51b8152600401610b3d9061304c565b600c5484118015906121235750600084115b61213f5760405162461bcd60e51b8152600401610b3d9061301f565b83600680016000828254612153919061313b565b90915550506012546040516001600160a01b039091169085156108fc029086906000818181858888f19350505050156121c7576012546040517f501286d717ee3362f62d57ef5e2b66b4a2f201d1fd59bdce590f9980a6f471a891610bfd9187916001600160a01b03169087908790613075565b83600680016000828254610c1f91906130e2565b600054610100900460ff16806121f4575060005460ff16155b6122575760405162461bcd60e51b815260206004820152602e60248201527f496e697469616c697a61626c653a20636f6e747261637420697320616c72656160448201526d191e481a5b9a5d1a585b1a5e995960921b6064820152608401610b3d565b600054610100900460ff16158015612279576000805461ffff19166101011790555b6000829050806001600160a01b031663ba84fd696040518163ffffffff1660e01b815260040160206040518083038186803b1580156122b757600080fd5b505afa1580156122cb573d6000803e3d6000fd5b505050506040513d601f19601f820116820180604052508101906122ef9190612db8565b6122f857600080fd5b6002805460ff19166001179055600480546001600160a01b039092166001600160a01b03199092169190911790558015612338576000805461ff00191690555b5050565b6004546001600160a01b0316638413ec14612355612b2a565b6040516001600160e01b031960e084901b1681526001600160a01b03909116600482015260240160006040518083038186803b15801561239457600080fd5b505afa1580156123a8573d6000803e3d6000fd5b5050601080546001600160a01b0319166001600160a01b0394909416939093179092555050565b6014546000906123e157506000919050565b60146000815481106123f5576123f5613183565b9060005260206000209060020201600001548210159050919050565b6004546001600160a01b0316638413ec1461242a612b2a565b6040516001600160e01b031960e084901b1681526001600160a01b03909116600482015260240160006040518083038186803b15801561246957600080fd5b505afa15801561247d573d6000803e3d6000fd5b5050600080546001600160a01b03909416620100000262010000600160b01b0319909416939093179092555050565b60048054604080516309b0d1f360e31b815290516001600160a01b0390921692634d868f98928282019260009290829003018186803b1580156124ee57600080fd5b505afa158015612502573d6000803e3d6000fd5b50506004546001600160a01b03169150638413ec149050612521612b2a565b6040516001600160e01b031960e084901b1681526001600160a01b03909116600482015260240160006040518083038186803b15801561256057600080fd5b505afa158015612574573d6000803e3d6000fd5b50506013546001600160a01b0316915050806125a25760405162461bcd60e51b8152600401610b3d9061304c565b600d5484118015906125b45750600084115b6125d05760405162461bcd60e51b8152600401610b3d9061301f565b83600660070160008282546125e5919061313b565b90915550506013546040516001600160a01b039091169085156108fc029086906000818181858888f1935050505015612659576013546040517fcfaf3b5656109c7872a85973c4f4c2c1e1f318d91c8a850ec28ae3d1ba80cd4e91610bfd9187916001600160a01b03169087908790613075565b8360066007016000828254610c1f91906130e2565b6014818154811061267e57600080fd5b60009182526020909120600290910201805460019091015490915082565b60048054604080516309b0d1f360e31b815290516001600160a01b0390921692634d868f98928282019260009290829003018186803b1580156126de57600080fd5b505afa1580156126f2573d6000803e3d6000fd5b5050505060196000612702612b2a565b6001600160a01b03166001600160a01b031681526020019081526020016000205481111580156127325750600081115b61274e5760405162461bcd60e51b8152600401610b3d9061301f565b806019600061275b612b2a565b6001600160a01b03166001600160a01b03168152602001908152602001600020600082825461278a919061313b565b909155506127989050612b2a565b6001600160a01b03166108fc829081150290604051600060405180830381858888f1935050505015612811577fb5548ad4dc15f51b16bc62fa1801c6ddb9ab76c808358661dcb78ae1ac377456816127ee612b2a565b604080519283526001600160a01b0390911660208301520160405180910390a150565b806019600061281e612b2a565b6001600160a01b03166001600160a01b03168152602001908152602001600020600082825461284d91906130e2565b90915550505b50565b6004546001600160a01b0316638413ec1461286f612b2a565b6040516001600160e01b031960e084901b1681526001600160a01b03909116600482015260240160006040518083038186803b1580156128ae57600080fd5b505afa1580156128c2573d6000803e3d6000fd5b505050506000819050806001600160a01b03166303dc8deb6040518163ffffffff1660e01b815260040160206040518083038186803b15801561290457600080fd5b505afa158015612918573d6000803e3d6000fd5b505050506040513d601f19601f8201168201806040525081019061293c9190612db8565b61294557600080fd5b600580546001600160a01b0319166001600160a01b039290921691909117905550565b60048054604080516309b0d1f360e31b815290516001600160a01b0390921692634d868f98928282019260009290829003018186803b1580156129aa57600080fd5b505afa1580156129be573d6000803e3d6000fd5b50506004546001600160a01b03169150638413ec1490506129dd612b2a565b6040516001600160e01b031960e084901b1681526001600160a01b03909116600482015260240160006040518083038186803b158015612a1c57600080fd5b505afa158015612a30573d6000803e3d6000fd5b5050600e546001600160a01b031691505080612a5e5760405162461bcd60e51b8152600401610b3d9061304c565b6008548411801590612a705750600084115b612a8c5760405162461bcd60e51b8152600401610b3d9061301f565b8360066002016000828254612aa1919061313b565b9091555050600e546040516001600160a01b039091169085156108fc029086906000818181858888f1935050505015612b1557600e546040517f346dd4608342f0849c2ae92a528abcdbde8cf41ca01d05ed0855ad4a3fe38bb591610bfd9187916001600160a01b03169087908790613075565b8360066002016000828254610c1f91906130e2565b600060143610801590612b4d57506000546201000090046001600160a01b031633145b15612b5f575060131936013560601c90565b503390565b600080612b7183856130bc565b90508361ffff168161ffff161015612bcb5760405162461bcd60e51b815260206004820152601b60248201527f536166654d6174683a206164646974696f6e206f766572666c6f7700000000006044820152606401610b3d565b9392505050565b6000805b601454811015612c6e578260148281548110612bf457612bf4613183565b9060005260206000209060020201600001541115612c5c5760008111612c515760405162461bcd60e51b81526020600482015260126024820152711a5b9d985b1a5908199d5b99081b5bd9195b60721b6044820152606401610b3d565b612bcb60018261313b565b80612c6681613152565b915050612bd6565b600354831115612cf4577f538d2b994829c56ec35e31442f127040852d7d03fe8e69c1cd007126e01e09cd604051612ceb906020808252602b908201527f7468657265206973206e6f2061737369676e65642076616c75657320666f722060408201526a1d1a1a5cc81d1c9959525960aa1b606082015260800190565b60405180910390a15b60008111612c515760405162461bcd60e51b81526020600482015260126024820152711a5b9d985b1a5908199d5b99081b5bd9195b60721b6044820152606401610b3d565b508054600082556002029060005260206000209081019061285391905b80821115612d705760008082556001820155600201612d56565b5090565b80518015158114612d8457600080fd5b919050565b803561ffff81168114612d8457600080fd5b600060208284031215612dad57600080fd5b8135612bcb81613199565b600060208284031215612dca57600080fd5b612bcb82612d74565b60008060008060808587031215612de957600080fd5b612df285612d74565b93506020850151612e0281613199565b6040860151909350612e1381613199565b6060959095015193969295505050565b600080600080600080600080610100898b031215612e4057600080fd5b612e4989612d89565b9750612e5760208a01612d89565b9650612e6560408a01612d89565b9550612e7360608a01612d89565b9450612e8160808a01612d89565b9350612e8f60a08a01612d89565b9250612e9d60c08a01612d89565b9150612eab60e08a01612d89565b90509295985092959890939650565b600060208284031215612ecc57600080fd5b5035919050565b600080600060608486031215612ee857600080fd5b833592506020840135612efa81613199565b9150604084013567ffffffffffffffff81168114612f1757600080fd5b809150509250925092565b600080600060408486031215612f3757600080fd5b83359250602084013567ffffffffffffffff80821115612f5657600080fd5b818601915086601f830112612f6a57600080fd5b813581811115612f7957600080fd5b876020828501011115612f8b57600080fd5b6020830194508093505050509250925092565b600080600060608486031215612fb357600080fd5b505081359360208301359350604090920135919050565b600060208083528351808285015260005b81811015612ff757858101830151858201604001528201612fdb565b81811115613009576000604083870101525b50601f01601f1916929092016040019392505050565b6020808252601390820152721a5b9cdd59999a58da595b9d08185b5bdd5b9d606a1b604082015260600190565b6020808252600f908201526e696e76616c6964206164647265737360881b604082015260600190565b8481526001600160a01b03841660208201526060604082018190528101829052818360808301376000818301608090810191909152601f909201601f191601019392505050565b600061ffff8083168185168083038211156130d9576130d961316d565b01949350505050565b600082198211156130f5576130f561316d565b500190565b60008261311757634e487b7160e01b600052601260045260246000fd5b500490565b60008160001904831182151516156131365761313661316d565b500290565b60008282101561314d5761314d61316d565b500390565b60006000198214156131665761316661316d565b5060010190565b634e487b7160e01b600052601160045260246000fd5b634e487b7160e01b600052603260045260246000fd5b6001600160a01b038116811461285357600080fdfea2646970667358221220363e979ef19fb7356c0817167e7687c7c94b7a7b5e7524155c9ce03dd50c459a64736f6c63430008060033",
  "immutableReferences": {},
  "source": "// SPDX-License-Identifier: MIT\n\npragma solidity >=0.7.6;\n\nimport \"@openzeppelin/contracts-upgradeable/utils/CountersUpgradeable.sol\";\nimport \"@openzeppelin/contracts-upgradeable/proxy/utils/Initializable.sol\";\nimport \"../access/IAccessRestriction.sol\";\nimport \"../planter/IPlanter.sol\";\nimport \"../gsn/RelayRecipient.sol\";\n\n/** @title Treasury Contract */\n\ncontract Treasury is Initializable, RelayRecipient {\n    using CountersUpgradeable for CountersUpgradeable.Counter;\n\n    CountersUpgradeable.Counter private fundDistributionCount;\n\n    uint256 constant MAX_UINT256 = 2**256 - 1;\n    bool public isTreasury;\n    uint256 public maxAssignedIndex;\n\n    IAccessRestriction public accessRestriction;\n    IPlanter public planterContract;\n\n    TotalFunds public totalFunds;\n\n    address payable public treeResearchAddress;\n    address payable public localDevelopAddress;\n    address payable public rescueFundAddress;\n    address payable public treejerDevelopAddress;\n    address payable public reserveFundAddress1;\n    address payable public reserveFundAddress2;\n\n    struct FundDistribution {\n        uint16 planterFund;\n        uint16 referralFund;\n        uint16 treeResearch;\n        uint16 localDevelop;\n        uint16 rescueFund;\n        uint16 treejerDevelop;\n        uint16 reserveFund1;\n        uint16 reserveFund2;\n        uint16 exists;\n    }\n\n    struct TotalFunds {\n        uint256 planterFund;\n        uint256 referralFund;\n        uint256 treeResearch;\n        uint256 localDevelop;\n        uint256 rescueFund;\n        uint256 treejerDevelop;\n        uint256 reserveFund1;\n        uint256 reserveFund2;\n    }\n\n    struct AssignModel {\n        uint256 startingTreeId;\n        uint256 distributionModelId;\n    }\n\n    AssignModel[] public assignModels;\n\n    mapping(uint256 => FundDistribution) public fundDistributions;\n    mapping(uint256 => uint256) public planterFunds;\n    mapping(uint256 => uint256) public referralFunds;\n    mapping(uint256 => uint256) public plantersPaid;\n    mapping(address => uint256) public balances;\n\n    event DistributionModelOfTreeNotExist(string description);\n    event FundDistributionModelAssigned(\n        uint256 startingTreeId,\n        uint256 endingTreeId,\n        uint256 distributionModelId\n    );\n    event PlanterFunded(uint256 treeId, address planterId, uint256 amount);\n    event PlanterBalanceWithdrawn(uint256 amount, address account);\n\n    event TreeResearchBalanceWithdrawn(\n        uint256 amount,\n        address account,\n        string reason\n    );\n    event LocalDevelopBalanceWithdrawn(\n        uint256 amount,\n        address account,\n        string reason\n    );\n    event RescueBalanceWithdrawn(\n        uint256 amount,\n        address account,\n        string reason\n    );\n    event TreejerDevelopBalanceWithdrawn(\n        uint256 amount,\n        address account,\n        string reason\n    );\n    event OtherBalanceWithdrawn1(\n        uint256 amount,\n        address account,\n        string reason\n    );\n    event OtherBalanceWithdrawn2(\n        uint256 amount,\n        address account,\n        string reason\n    );\n\n    modifier onlyAdmin() {\n        accessRestriction.ifAdmin(_msgSender());\n        _;\n    }\n    modifier ifNotPaused() {\n        accessRestriction.ifNotPaused();\n        _;\n    }\n    modifier onlyAuction() {\n        accessRestriction.ifAuction(_msgSender());\n        _;\n    }\n    modifier onlyTreeFactory() {\n        accessRestriction.ifTreeFactory(_msgSender());\n        _;\n    }\n    modifier validAddress(address _address) {\n        require(_address != address(0), \"invalid address\");\n        _;\n    }\n\n    function initialize(address _accessRestrictionAddress) public initializer {\n        IAccessRestriction candidateContract = IAccessRestriction(\n            _accessRestrictionAddress\n        );\n\n        require(candidateContract.isAccessRestriction());\n\n        isTreasury = true;\n        accessRestriction = candidateContract;\n    }\n\n    /**\n     * @dev set trusted forwarder address\n     * @param _address set to {trustedForwarder}\n     */\n    function setTrustedForwarder(address _address) external onlyAdmin {\n        trustedForwarder = _address;\n    }\n\n    /**\n     * @dev admin set planter contract address\n     * @param _address set to the address of planter contract\n     */\n    function setPlanterContractAddress(address _address) external onlyAdmin {\n        IPlanter candidateContract = IPlanter(_address);\n        require(candidateContract.isPlanter());\n        planterContract = candidateContract;\n    }\n\n    /**\n     * @dev admin set treeResearch  address to fund\n     * @param _address tree research address\n     */\n    function setTreeResearchAddress(address payable _address)\n        external\n        onlyAdmin\n    {\n        treeResearchAddress = _address;\n    }\n\n    /**\n     * @dev admin set localDevelop  address to fund\n     * @param _address local develop address\n     */\n    function setLocalDevelopAddress(address payable _address)\n        external\n        onlyAdmin\n    {\n        localDevelopAddress = _address;\n    }\n\n    /**\n     * @dev admin set rescue address to fund\n     * @param _address rescue fund address\n     */\n    function setRescueFundAddress(address payable _address) external onlyAdmin {\n        rescueFundAddress = _address;\n    }\n\n    /**\n     * @dev admin set treejerDevelop  address to fund\n     * @param _address treejer develop address\n     */\n    function setTreejerDevelopAddress(address payable _address)\n        external\n        onlyAdmin\n    {\n        treejerDevelopAddress = _address;\n    }\n\n    /**\n     * @dev admin set reserveFund1  address to fund\n     * @param _address reserveFund1 address\n     */\n    function setReserveFund1Address(address payable _address)\n        external\n        onlyAdmin\n    {\n        reserveFundAddress1 = _address;\n    }\n\n    /**\n     * @dev admin set reserveFund2  address to fund\n     * @param _address reserveFund2 address\n     */\n    function setReserveFund2Address(address payable _address)\n        external\n        onlyAdmin\n    {\n        reserveFundAddress2 = _address;\n    }\n\n    /**\n     * @dev admin add a model for funding distribution that sum of the inputs must be 10000\n     * @param _planter planter share\n     * @param _referral referral share\n     * @param _treeResearch tree research share\n     * @param _localDevelop local develop share\n     * @param _rescueFund rescue share\n     * @param _treejerDevelop treejer develop share\n     * @param _reserveFund1 other fund1 share\n     * @param _reserveFund2 other fund2 share\n     */\n    function addFundDistributionModel(\n        uint16 _planter,\n        uint16 _referral,\n        uint16 _treeResearch,\n        uint16 _localDevelop,\n        uint16 _rescueFund,\n        uint16 _treejerDevelop,\n        uint16 _reserveFund1,\n        uint16 _reserveFund2\n    ) external onlyAdmin {\n        uint16 totalSum = _add(\n            _rescueFund,\n            _add(_localDevelop, _add(_treeResearch, _add(_planter, _referral)))\n        );\n\n        require(\n            _add(\n                _reserveFund2,\n                _add(_reserveFund1, _add(_treejerDevelop, totalSum))\n            ) == 10000,\n            \"sum must be 10000\"\n        );\n\n        fundDistributions[fundDistributionCount.current()] = FundDistribution(\n            _planter,\n            _referral,\n            _treeResearch,\n            _localDevelop,\n            _rescueFund,\n            _treejerDevelop,\n            _reserveFund1,\n            _reserveFund2,\n            1\n        );\n\n        fundDistributionCount.increment();\n    }\n\n    /**\n     * @dev admin assgign a funding distribution model to trees start from\n     * {_startTreeId} and end at {_endTreeId}\n     * @param _startTreeId strating tree id to assign distribution model to\n     * @param _endTreeId ending tree id to assign distribution model to\n     * @param _distributionModelId distribution model id to assign\n     */\n    function assignTreeFundDistributionModel(\n        uint256 _startTreeId,\n        uint256 _endTreeId,\n        uint256 _distributionModelId\n    ) external onlyAdmin {\n        require(\n            fundDistributions[_distributionModelId].exists > 0,\n            \"Distribution model not found\"\n        );\n\n        AssignModel[] memory localAssigns = assignModels;\n\n        delete assignModels;\n\n        uint256 checkFlag = 0;\n\n        for (uint256 i = 0; i < localAssigns.length; i++) {\n            if (localAssigns[i].startingTreeId < _startTreeId) {\n                assignModels.push(localAssigns[i]);\n            } else {\n                if (checkFlag == 0) {\n                    assignModels.push(\n                        AssignModel(_startTreeId, _distributionModelId)\n                    );\n                    checkFlag = 1;\n                }\n                if (checkFlag == 1) {\n                    if (_endTreeId == 0 && _startTreeId != 0) {\n                        checkFlag = 5;\n                        break;\n                    }\n                    if (\n                        i > 0 && _endTreeId + 1 < localAssigns[i].startingTreeId\n                    ) {\n                        assignModels.push(\n                            AssignModel(\n                                _endTreeId + 1,\n                                localAssigns[i - 1].distributionModelId\n                            )\n                        );\n                        checkFlag = 2;\n                    }\n                }\n                if (checkFlag == 2) {\n                    assignModels.push(localAssigns[i]);\n                }\n            }\n        }\n\n        if (checkFlag == 0) {\n            assignModels.push(AssignModel(_startTreeId, _distributionModelId));\n            if (_endTreeId == 0 && _startTreeId != 0) {\n                checkFlag = 5;\n            } else {\n                checkFlag = 1;\n            }\n        }\n\n        if (checkFlag == 5) {\n            maxAssignedIndex = MAX_UINT256;\n        }\n\n        if (checkFlag == 1) {\n            if (maxAssignedIndex < _endTreeId) {\n                maxAssignedIndex = _endTreeId;\n            } else if (localAssigns.length > 0) {\n                assignModels.push(\n                    AssignModel(\n                        _endTreeId + 1,\n                        localAssigns[localAssigns.length - 1]\n                            .distributionModelId\n                    )\n                );\n            }\n        }\n\n        emit FundDistributionModelAssigned(\n            _startTreeId,\n            _endTreeId,\n            _distributionModelId\n        );\n    }\n\n    /**\n     * @dev fund a tree by Auction or RegularSell contracts and based on distribution\n     * model of tree shares divide beetwen community\n     * @param _treeId id of a tree to fund\n     */\n    function fundTree(uint256 _treeId) external payable {\n        accessRestriction.ifIncrementalSellOrAuctionOrRegularSell(_msgSender());\n\n        FundDistribution memory dm = fundDistributions[\n            assignModels[_findTreeDistributionModelId(_treeId)]\n            .distributionModelId\n        ];\n\n        planterFunds[_treeId] = (msg.value * dm.planterFund) / 10000;\n\n        referralFunds[_treeId] = (msg.value * dm.referralFund) / 10000;\n\n        totalFunds.referralFund += (msg.value * dm.referralFund) / 10000;\n\n        totalFunds.localDevelop += (msg.value * dm.localDevelop) / 10000;\n\n        totalFunds.reserveFund1 += (msg.value * dm.reserveFund1) / 10000;\n\n        totalFunds.reserveFund2 += (msg.value * dm.reserveFund2) / 10000;\n\n        totalFunds.planterFund += (msg.value * dm.planterFund) / 10000;\n        totalFunds.rescueFund += (msg.value * dm.rescueFund) / 10000;\n\n        totalFunds.treejerDevelop += (msg.value * dm.treejerDevelop) / 10000;\n\n        totalFunds.treeResearch += ((msg.value * dm.treeResearch) / 10000);\n    }\n\n    /**\n     * @dev based on the treeStatus planter charged in every tree update verifying\n     *\n     * @param _treeId id of a tree to fund\n     * @param _planterId  address of planter to fund\n     * @param _treeStatus status of tree\n     */\n\n    function fundPlanter(\n        uint256 _treeId,\n        address _planterId,\n        uint64 _treeStatus\n    ) external onlyTreeFactory {\n        require(planterFunds[_treeId] > 0, \"planter fund not exist\");\n\n        (\n            bool getBool,\n            address gottenOrganizationAddress,\n            address gottenReferralAddress,\n            uint256 gottenPortion\n        ) = planterContract.getPlanterPaymentPortion(_planterId);\n\n        if (getBool) {\n            uint256 totalPayablePlanter;\n\n            if (_treeStatus > 25920) {\n                //25920 = 30 * 24 * 36\n\n                totalPayablePlanter =\n                    planterFunds[_treeId] -\n                    plantersPaid[_treeId];\n            } else {\n                totalPayablePlanter =\n                    ((planterFunds[_treeId] * _treeStatus) / 25920) -\n                    plantersPaid[_treeId];\n            }\n\n            if (totalPayablePlanter > 0) {\n                uint256 totalPayableRefferal = (referralFunds[_treeId] *\n                    totalPayablePlanter) / planterFunds[_treeId];\n\n                //referral calculation section\n\n                totalFunds.referralFund -= totalPayableRefferal;\n\n                if (gottenReferralAddress == address(0)) {\n                    totalFunds.localDevelop += totalPayableRefferal;\n                } else {\n                    balances[gottenReferralAddress] += totalPayableRefferal;\n                }\n\n                totalFunds.planterFund -= totalPayablePlanter;\n\n                //Organization calculation section\n                uint256 fullPortion = 10000;\n\n                balances[gottenOrganizationAddress] +=\n                    (totalPayablePlanter * (fullPortion - gottenPortion)) /\n                    fullPortion;\n\n                //planter calculation section\n\n                plantersPaid[_treeId] += totalPayablePlanter;\n\n                balances[_planterId] +=\n                    (totalPayablePlanter * gottenPortion) /\n                    fullPortion;\n\n                emit PlanterFunded(_treeId, _planterId, totalPayablePlanter);\n            }\n        }\n    }\n\n    /**\n     * @dev check if there is distribution model for {_treeId} or not\n     * @param _treeId id of a tree to check if there is a distributionModel\n     * @return true in case of distributionModel existance for {_treeId} and false otherwise\n     */\n\n    function distributionModelExistance(uint256 _treeId)\n        external\n        view\n        returns (bool)\n    {\n        if (assignModels.length == 0) {\n            return false;\n        }\n\n        return _treeId >= assignModels[0].startingTreeId;\n    }\n\n    /**\n     * @dev admin withdraw {_amount} from treeResearch totalFund in case of valid {_amount}\n     * and money transfer to {treeResearchAddress}\n     * @param _amount amount to withdraw\n     * @param _reason reason to withdraw\n     */\n    function withdrawTreeResearch(uint256 _amount, string calldata _reason)\n        external\n        ifNotPaused\n        onlyAdmin\n        validAddress(treeResearchAddress)\n    {\n        require(\n            _amount <= totalFunds.treeResearch && _amount > 0,\n            \"insufficient amount\"\n        );\n\n        totalFunds.treeResearch -= _amount;\n\n        if (treeResearchAddress.send(_amount)) {\n            emit TreeResearchBalanceWithdrawn(\n                _amount,\n                treeResearchAddress,\n                _reason\n            );\n        } else {\n            totalFunds.treeResearch += _amount;\n        }\n    }\n\n    /**\n     * @dev admin withdraw {_amount} from localDevelop totalFund in case of valid {_amount}\n     * and money transfer to {localDevelopAddress}\n     * @param _amount amount to withdraw\n     * @param _reason reason to withdraw\n     */\n    function withdrawLocalDevelop(uint256 _amount, string calldata _reason)\n        external\n        ifNotPaused\n        onlyAdmin\n        validAddress(localDevelopAddress)\n    {\n        require(\n            _amount <= totalFunds.localDevelop && _amount > 0,\n            \"insufficient amount\"\n        );\n\n        totalFunds.localDevelop -= _amount;\n\n        if (localDevelopAddress.send(_amount)) {\n            emit LocalDevelopBalanceWithdrawn(\n                _amount,\n                localDevelopAddress,\n                _reason\n            );\n        } else {\n            totalFunds.localDevelop += _amount;\n        }\n    }\n\n    /**\n     * @dev admin withdraw {_amount} from rescueFund totalFund in case of valid {_amount}\n     * and money transfer to {rescueFundAddress}\n     * @param _amount amount to withdraw\n     * @param _reason reason to withdraw\n     */\n    function withdrawRescueFund(uint256 _amount, string calldata _reason)\n        external\n        ifNotPaused\n        onlyAdmin\n        validAddress(rescueFundAddress)\n    {\n        require(\n            _amount <= totalFunds.rescueFund && _amount > 0,\n            \"insufficient amount\"\n        );\n\n        totalFunds.rescueFund -= _amount;\n\n        if (rescueFundAddress.send(_amount)) {\n            emit RescueBalanceWithdrawn(_amount, rescueFundAddress, _reason);\n        } else {\n            totalFunds.rescueFund += _amount;\n        }\n    }\n\n    /**\n     * @dev admin withdraw {_amount} from treejerDevelop totalFund in case of valid {_amount}\n     * and money transfer to {treejerDevelopAddress}\n     * @param _amount amount to withdraw\n     * @param _reason reason to withdraw\n     */\n    function withdrawTreejerDevelop(uint256 _amount, string calldata _reason)\n        external\n        ifNotPaused\n        onlyAdmin\n        validAddress(treejerDevelopAddress)\n    {\n        require(\n            _amount <= totalFunds.treejerDevelop && _amount > 0,\n            \"insufficient amount\"\n        );\n\n        totalFunds.treejerDevelop -= _amount;\n\n        if (treejerDevelopAddress.send(_amount)) {\n            emit TreejerDevelopBalanceWithdrawn(\n                _amount,\n                treejerDevelopAddress,\n                _reason\n            );\n        } else {\n            totalFunds.treejerDevelop += _amount;\n        }\n    }\n\n    /**\n     * @dev admin withdraw {_amount} from reserveFund1 totalFund in case of valid {_amount}\n     * and money transfer to {reserveFundAddress1}\n     * @param _amount amount to withdraw\n     * @param _reason reason to withdraw\n     */\n    function withdrawReserveFund1(uint256 _amount, string calldata _reason)\n        external\n        ifNotPaused\n        onlyAdmin\n        validAddress(reserveFundAddress1)\n    {\n        require(\n            _amount <= totalFunds.reserveFund1 && _amount > 0,\n            \"insufficient amount\"\n        );\n\n        totalFunds.reserveFund1 -= _amount;\n\n        if (reserveFundAddress1.send(_amount)) {\n            emit OtherBalanceWithdrawn1(_amount, reserveFundAddress1, _reason);\n        } else {\n            totalFunds.reserveFund1 += _amount;\n        }\n    }\n\n    /**\n     * @dev admin withdraw {_amount} from reserveFund2 totalFund in case of valid {_amount}\n     * and money transfer to {reserveFundAddress2}\n     * @param _amount amount to withdraw\n     * @param _reason reason to withdraw\n     */\n    function withdrawReserveFund2(uint256 _amount, string calldata _reason)\n        external\n        ifNotPaused\n        onlyAdmin\n        validAddress(reserveFundAddress2)\n    {\n        require(\n            _amount <= totalFunds.reserveFund2 && _amount > 0,\n            \"insufficient amount\"\n        );\n\n        totalFunds.reserveFund2 -= _amount;\n\n        if (reserveFundAddress2.send(_amount)) {\n            emit OtherBalanceWithdrawn2(_amount, reserveFundAddress2, _reason);\n        } else {\n            totalFunds.reserveFund2 += _amount;\n        }\n    }\n\n    /**\n     * @dev planter withdraw {_amount} from planter's balances in case of valid {_amount}\n     * and money transfer to planters address (to msgSender())\n     * @param _amount amount to withdraw\n     */\n    function withdrawPlanterBalance(uint256 _amount) external ifNotPaused {\n        require(\n            _amount <= balances[_msgSender()] && _amount > 0,\n            \"insufficient amount\"\n        );\n\n        balances[_msgSender()] -= _amount;\n\n        if (payable(_msgSender()).send(_amount)) {\n            emit PlanterBalanceWithdrawn(_amount, _msgSender());\n        } else {\n            balances[_msgSender()] += _amount;\n        }\n    }\n\n    /**\n     * @dev private function to find index of assignModels to {_treeId}\n     * @param _treeId id of tree to find assignModels of it\n     */\n    function _findTreeDistributionModelId(uint256 _treeId)\n        private\n        returns (uint256)\n    {\n        uint256 i = 0;\n\n        for (i; i < assignModels.length; i++) {\n            if (assignModels[i].startingTreeId > _treeId) {\n                require(i > 0, \"invalid fund model\");\n                return i - 1;\n            }\n        }\n\n        if (_treeId > maxAssignedIndex) {\n            emit DistributionModelOfTreeNotExist(\n                \"there is no assigned values for this treeId\"\n            );\n        }\n        require(i > 0, \"invalid fund model\");\n        return i - 1;\n    }\n\n    /**\n     * @dev privte function to calculate sum of two number safely\n     * @param a input 1\n     * @param b input 2\n     * @return sum of inputs thar is uint256\n     */\n\n    function _add(uint16 a, uint16 b) private pure returns (uint16) {\n        uint16 c = a + b;\n\n        require(c >= a, \"SafeMath: addition overflow\");\n\n        return c;\n    }\n}\n",
  "sourcePath": "/home/amir/Projects/treejer/contract-latest/contracts/treasury/Treasury.sol",
  "compiler": {
    "name": "solc",
    "version": "0.8.6+commit.11564f7e.Emscripten.clang"
  },
  "schemaVersion": "3.4.1",
  "updatedAt": "2021-07-27T23:41:05.316Z",
  "networkType": "ethereum",
  "devdoc": {
    "kind": "dev",
    "methods": {
      "addFundDistributionModel(uint16,uint16,uint16,uint16,uint16,uint16,uint16,uint16)": {
        "details": "admin add a model for funding distribution that sum of the inputs must be 10000",
        "params": {
          "_localDevelop": "local develop share",
          "_planter": "planter share",
          "_referral": "referral share",
          "_rescueFund": "rescue share",
          "_reserveFund1": "other fund1 share",
          "_reserveFund2": "other fund2 share",
          "_treeResearch": "tree research share",
          "_treejerDevelop": "treejer develop share"
        }
      },
      "assignTreeFundDistributionModel(uint256,uint256,uint256)": {
        "details": "admin assgign a funding distribution model to trees start from {_startTreeId} and end at {_endTreeId}",
        "params": {
          "_distributionModelId": "distribution model id to assign",
          "_endTreeId": "ending tree id to assign distribution model to",
          "_startTreeId": "strating tree id to assign distribution model to"
        }
      },
      "distributionModelExistance(uint256)": {
        "details": "check if there is distribution model for {_treeId} or not",
        "params": {
          "_treeId": "id of a tree to check if there is a distributionModel"
        },
        "returns": {
          "_0": "true in case of distributionModel existance for {_treeId} and false otherwise"
        }
      },
      "fundPlanter(uint256,address,uint64)": {
        "details": "based on the treeStatus planter charged in every tree update verifying",
        "params": {
          "_planterId": "address of planter to fund",
          "_treeId": "id of a tree to fund",
          "_treeStatus": "status of tree"
        }
      },
      "fundTree(uint256)": {
        "details": "fund a tree by Auction or RegularSell contracts and based on distribution model of tree shares divide beetwen community",
        "params": {
          "_treeId": "id of a tree to fund"
        }
      },
      "setLocalDevelopAddress(address)": {
        "details": "admin set localDevelop  address to fund",
        "params": {
          "_address": "local develop address"
        }
      },
      "setPlanterContractAddress(address)": {
        "details": "admin set planter contract address",
        "params": {
          "_address": "set to the address of planter contract"
        }
      },
      "setRescueFundAddress(address)": {
        "details": "admin set rescue address to fund",
        "params": {
          "_address": "rescue fund address"
        }
      },
      "setReserveFund1Address(address)": {
        "details": "admin set reserveFund1  address to fund",
        "params": {
          "_address": "reserveFund1 address"
        }
      },
      "setReserveFund2Address(address)": {
        "details": "admin set reserveFund2  address to fund",
        "params": {
          "_address": "reserveFund2 address"
        }
      },
      "setTreeResearchAddress(address)": {
        "details": "admin set treeResearch  address to fund",
        "params": {
          "_address": "tree research address"
        }
      },
      "setTreejerDevelopAddress(address)": {
        "details": "admin set treejerDevelop  address to fund",
        "params": {
          "_address": "treejer develop address"
        }
      },
      "setTrustedForwarder(address)": {
        "details": "set trusted forwarder address",
        "params": {
          "_address": "set to {trustedForwarder}"
        }
      },
      "withdrawLocalDevelop(uint256,string)": {
        "details": "admin withdraw {_amount} from localDevelop totalFund in case of valid {_amount} and money transfer to {localDevelopAddress}",
        "params": {
          "_amount": "amount to withdraw",
          "_reason": "reason to withdraw"
        }
      },
      "withdrawPlanterBalance(uint256)": {
        "details": "planter withdraw {_amount} from planter's balances in case of valid {_amount} and money transfer to planters address (to msgSender())",
        "params": {
          "_amount": "amount to withdraw"
        }
      },
      "withdrawRescueFund(uint256,string)": {
        "details": "admin withdraw {_amount} from rescueFund totalFund in case of valid {_amount} and money transfer to {rescueFundAddress}",
        "params": {
          "_amount": "amount to withdraw",
          "_reason": "reason to withdraw"
        }
      },
      "withdrawReserveFund1(uint256,string)": {
        "details": "admin withdraw {_amount} from reserveFund1 totalFund in case of valid {_amount} and money transfer to {reserveFundAddress1}",
        "params": {
          "_amount": "amount to withdraw",
          "_reason": "reason to withdraw"
        }
      },
      "withdrawReserveFund2(uint256,string)": {
        "details": "admin withdraw {_amount} from reserveFund2 totalFund in case of valid {_amount} and money transfer to {reserveFundAddress2}",
        "params": {
          "_amount": "amount to withdraw",
          "_reason": "reason to withdraw"
        }
      },
      "withdrawTreeResearch(uint256,string)": {
        "details": "admin withdraw {_amount} from treeResearch totalFund in case of valid {_amount} and money transfer to {treeResearchAddress}",
        "params": {
          "_amount": "amount to withdraw",
          "_reason": "reason to withdraw"
        }
      },
      "withdrawTreejerDevelop(uint256,string)": {
        "details": "admin withdraw {_amount} from treejerDevelop totalFund in case of valid {_amount} and money transfer to {treejerDevelopAddress}",
        "params": {
          "_amount": "amount to withdraw",
          "_reason": "reason to withdraw"
        }
      }
    },
    "title": "Treasury Contract ",
    "version": 1
  },
  "userdoc": {
    "kind": "user",
    "methods": {
      "isTrustedForwarder(address)": {
        "notice": "return if the forwarder is trusted to forward relayed transactions to us. the forwarder is required to verify the sender's signature, and verify the call is not a replay."
      }
    },
    "version": 1
  }
}