{
  "contractName": "TreeFactory",
  "abi": [
    {
      "anonymous": false,
      "inputs": [
        {
          "indexed": false,
          "internalType": "uint256",
          "name": "treeId",
          "type": "uint256"
        }
      ],
      "name": "AssignedTreePlanted",
      "type": "event"
    },
    {
      "anonymous": false,
      "inputs": [
        {
          "indexed": false,
          "internalType": "uint256",
          "name": "treeId",
          "type": "uint256"
        }
      ],
      "name": "AssignedTreeRejected",
      "type": "event"
    },
    {
      "anonymous": false,
      "inputs": [
        {
          "indexed": false,
          "internalType": "uint256",
          "name": "treeId",
          "type": "uint256"
        }
      ],
      "name": "AssignedTreeVerified",
      "type": "event"
    },
    {
      "anonymous": false,
      "inputs": [
        {
          "indexed": false,
          "internalType": "uint256",
          "name": "treeId",
          "type": "uint256"
        }
      ],
      "name": "TreeAssigned",
      "type": "event"
    },
    {
      "anonymous": false,
      "inputs": [
        {
          "indexed": false,
          "internalType": "uint256",
          "name": "treeId",
          "type": "uint256"
        }
      ],
      "name": "TreeListed",
      "type": "event"
    },
    {
      "anonymous": false,
      "inputs": [
        {
          "indexed": false,
          "internalType": "uint256",
          "name": "treeId",
          "type": "uint256"
        }
      ],
      "name": "TreePlanted",
      "type": "event"
    },
    {
      "anonymous": false,
      "inputs": [
        {
          "indexed": false,
          "internalType": "uint256",
          "name": "treeId",
          "type": "uint256"
        }
      ],
      "name": "TreeRejected",
      "type": "event"
    },
    {
      "anonymous": false,
      "inputs": [
        {
          "indexed": false,
          "internalType": "uint256",
          "name": "treeId",
          "type": "uint256"
        },
        {
          "indexed": false,
          "internalType": "string",
          "name": "treeSpecs",
          "type": "string"
        }
      ],
      "name": "TreeSpecsUpdated",
      "type": "event"
    },
    {
      "anonymous": false,
      "inputs": [],
      "name": "TreeUpdateIntervalChanged",
      "type": "event"
    },
    {
      "anonymous": false,
      "inputs": [
        {
          "indexed": false,
          "internalType": "uint256",
          "name": "treeId",
          "type": "uint256"
        }
      ],
      "name": "TreeUpdateRejected",
      "type": "event"
    },
    {
      "anonymous": false,
      "inputs": [
        {
          "indexed": false,
          "internalType": "uint256",
          "name": "treeId",
          "type": "uint256"
        }
      ],
      "name": "TreeUpdated",
      "type": "event"
    },
    {
      "anonymous": false,
      "inputs": [
        {
          "indexed": false,
          "internalType": "uint256",
          "name": "treeId",
          "type": "uint256"
        }
      ],
      "name": "TreeUpdatedVerified",
      "type": "event"
    },
    {
      "anonymous": false,
      "inputs": [
        {
          "indexed": false,
          "internalType": "uint256",
          "name": "treeId",
          "type": "uint256"
        },
        {
          "indexed": false,
          "internalType": "uint256",
          "name": "tempTreeId",
          "type": "uint256"
        }
      ],
      "name": "TreeVerified",
      "type": "event"
    },
    {
      "inputs": [],
      "name": "accessRestriction",
      "outputs": [
        {
          "internalType": "contract IAccessRestriction",
          "name": "",
          "type": "address"
        }
      ],
      "stateMutability": "view",
      "type": "function",
      "constant": true
    },
    {
      "inputs": [],
      "name": "isTreeFactory",
      "outputs": [
        {
          "internalType": "bool",
          "name": "",
          "type": "bool"
        }
      ],
      "stateMutability": "view",
      "type": "function",
      "constant": true
    },
    {
      "inputs": [
        {
          "internalType": "address",
          "name": "forwarder",
          "type": "address"
        }
      ],
      "name": "isTrustedForwarder",
      "outputs": [
        {
          "internalType": "bool",
          "name": "",
          "type": "bool"
        }
      ],
      "stateMutability": "view",
      "type": "function",
      "constant": true
    },
    {
      "inputs": [],
      "name": "lastRegualarTreeId",
      "outputs": [
        {
          "internalType": "uint256",
          "name": "",
          "type": "uint256"
        }
      ],
      "stateMutability": "view",
      "type": "function",
      "constant": true
    },
    {
      "inputs": [],
      "name": "planterContract",
      "outputs": [
        {
          "internalType": "contract IPlanter",
          "name": "",
          "type": "address"
        }
      ],
      "stateMutability": "view",
      "type": "function",
      "constant": true
    },
    {
      "inputs": [],
      "name": "planterFund",
      "outputs": [
        {
          "internalType": "contract IPlanterFund",
          "name": "",
          "type": "address"
        }
      ],
      "stateMutability": "view",
      "type": "function",
      "constant": true
    },
    {
      "inputs": [
        {
          "internalType": "uint256",
          "name": "",
          "type": "uint256"
        }
      ],
      "name": "tempTrees",
      "outputs": [
        {
          "internalType": "uint64",
          "name": "birthDate",
          "type": "uint64"
        },
        {
          "internalType": "uint64",
          "name": "plantDate",
          "type": "uint64"
        },
        {
          "internalType": "uint64",
          "name": "countryCode",
          "type": "uint64"
        },
        {
          "internalType": "uint64",
          "name": "otherData",
          "type": "uint64"
        },
        {
          "internalType": "address",
          "name": "planter",
          "type": "address"
        },
        {
          "internalType": "string",
          "name": "treeSpecs",
          "type": "string"
        }
      ],
      "stateMutability": "view",
      "type": "function",
      "constant": true
    },
    {
      "inputs": [],
      "name": "treeToken",
      "outputs": [
        {
          "internalType": "contract ITree",
          "name": "",
          "type": "address"
        }
      ],
      "stateMutability": "view",
      "type": "function",
      "constant": true
    },
    {
      "inputs": [],
      "name": "treeUpdateInterval",
      "outputs": [
        {
          "internalType": "uint256",
          "name": "",
          "type": "uint256"
        }
      ],
      "stateMutability": "view",
      "type": "function",
      "constant": true
    },
    {
      "inputs": [
        {
          "internalType": "uint256",
          "name": "",
          "type": "uint256"
        }
      ],
      "name": "treeUpdates",
      "outputs": [
        {
          "internalType": "string",
          "name": "updateSpecs",
          "type": "string"
        },
        {
          "internalType": "uint64",
          "name": "updateStatus",
          "type": "uint64"
        }
      ],
      "stateMutability": "view",
      "type": "function",
      "constant": true
    },
    {
      "inputs": [
        {
          "internalType": "uint256",
          "name": "",
          "type": "uint256"
        }
      ],
      "name": "trees",
      "outputs": [
        {
          "internalType": "address",
          "name": "planter",
          "type": "address"
        },
        {
          "internalType": "uint256",
          "name": "species",
          "type": "uint256"
        },
        {
          "internalType": "uint32",
          "name": "countryCode",
          "type": "uint32"
        },
        {
          "internalType": "uint32",
          "name": "saleType",
          "type": "uint32"
        },
        {
          "internalType": "uint64",
          "name": "treeStatus",
          "type": "uint64"
        },
        {
          "internalType": "uint64",
          "name": "plantDate",
          "type": "uint64"
        },
        {
          "internalType": "uint64",
          "name": "birthDate",
          "type": "uint64"
        },
        {
          "internalType": "string",
          "name": "treeSpecs",
          "type": "string"
        }
      ],
      "stateMutability": "view",
      "type": "function",
      "constant": true
    },
    {
      "inputs": [],
      "name": "trustedForwarder",
      "outputs": [
        {
          "internalType": "address",
          "name": "",
          "type": "address"
        }
      ],
      "stateMutability": "view",
      "type": "function",
      "constant": true
    },
    {
      "inputs": [],
      "name": "versionRecipient",
      "outputs": [
        {
          "internalType": "string",
          "name": "",
          "type": "string"
        }
      ],
      "stateMutability": "pure",
      "type": "function",
      "constant": true
    },
    {
      "inputs": [
        {
          "internalType": "address",
          "name": "_accessRestrictionAddress",
          "type": "address"
        }
      ],
      "name": "initialize",
      "outputs": [],
      "stateMutability": "nonpayable",
      "type": "function"
    },
    {
      "inputs": [
        {
          "internalType": "address",
          "name": "_address",
          "type": "address"
        }
      ],
      "name": "setTrustedForwarder",
      "outputs": [],
      "stateMutability": "nonpayable",
      "type": "function"
    },
    {
      "inputs": [
        {
          "internalType": "address",
          "name": "_address",
          "type": "address"
        }
      ],
      "name": "setPlanterFundAddress",
      "outputs": [],
      "stateMutability": "nonpayable",
      "type": "function"
    },
    {
      "inputs": [
        {
          "internalType": "address",
          "name": "_address",
          "type": "address"
        }
      ],
      "name": "setPlanterContractAddress",
      "outputs": [],
      "stateMutability": "nonpayable",
      "type": "function"
    },
    {
      "inputs": [
        {
          "internalType": "address",
          "name": "_address",
          "type": "address"
        }
      ],
      "name": "setTreeTokenAddress",
      "outputs": [],
      "stateMutability": "nonpayable",
      "type": "function"
    },
    {
      "inputs": [
        {
          "internalType": "uint256",
          "name": "_seconds",
          "type": "uint256"
        }
      ],
      "name": "setUpdateInterval",
      "outputs": [],
      "stateMutability": "nonpayable",
      "type": "function"
    },
    {
      "inputs": [
        {
          "internalType": "uint256",
          "name": "_treeId",
          "type": "uint256"
        },
        {
          "internalType": "string",
          "name": "_treeSpecs",
          "type": "string"
        }
      ],
      "name": "listTree",
      "outputs": [],
      "stateMutability": "nonpayable",
      "type": "function"
    },
    {
      "inputs": [
        {
          "internalType": "uint256",
          "name": "_treeId",
          "type": "uint256"
        },
        {
          "internalType": "address",
          "name": "_planter",
          "type": "address"
        }
      ],
      "name": "assignTree",
      "outputs": [],
      "stateMutability": "nonpayable",
      "type": "function"
    },
    {
      "inputs": [
        {
          "internalType": "uint256",
          "name": "_treeId",
          "type": "uint256"
        },
        {
          "internalType": "string",
          "name": "_treeSpecs",
          "type": "string"
        },
        {
          "internalType": "uint64",
          "name": "_birthDate",
          "type": "uint64"
        },
        {
          "internalType": "uint16",
          "name": "_countryCode",
          "type": "uint16"
        }
      ],
      "name": "plantAssignedTree",
      "outputs": [],
      "stateMutability": "nonpayable",
      "type": "function"
    },
    {
      "inputs": [
        {
          "internalType": "uint256",
          "name": "_treeId",
          "type": "uint256"
        },
        {
          "internalType": "bool",
          "name": "_isVerified",
          "type": "bool"
        }
      ],
      "name": "verifyAssignedTree",
      "outputs": [],
      "stateMutability": "nonpayable",
      "type": "function"
    },
    {
      "inputs": [
        {
          "internalType": "uint256",
          "name": "_treeId",
          "type": "uint256"
        },
        {
          "internalType": "string",
          "name": "_treeSpecs",
          "type": "string"
        }
      ],
      "name": "updateTree",
      "outputs": [],
      "stateMutability": "nonpayable",
      "type": "function"
    },
    {
      "inputs": [
        {
          "internalType": "uint256",
          "name": "_treeId",
          "type": "uint256"
        },
        {
          "internalType": "bool",
          "name": "_isVerified",
          "type": "bool"
        }
      ],
      "name": "verifyUpdate",
      "outputs": [],
      "stateMutability": "nonpayable",
      "type": "function"
    },
    {
      "inputs": [
        {
          "internalType": "uint256",
          "name": "_treeId",
          "type": "uint256"
        },
        {
          "internalType": "uint32",
          "name": "_saleType",
          "type": "uint32"
        }
      ],
      "name": "manageSaleType",
      "outputs": [
        {
          "internalType": "uint32",
          "name": "",
          "type": "uint32"
        }
      ],
      "stateMutability": "nonpayable",
      "type": "function"
    },
    {
      "inputs": [
        {
          "internalType": "uint256",
          "name": "_treeId",
          "type": "uint256"
        },
        {
          "internalType": "address",
          "name": "_funder",
          "type": "address"
        }
      ],
      "name": "mintAssignedTree",
      "outputs": [],
      "stateMutability": "nonpayable",
      "type": "function"
    },
    {
      "inputs": [
        {
          "internalType": "uint256",
          "name": "_treeId",
          "type": "uint256"
        }
      ],
      "name": "resetSaleType",
      "outputs": [],
      "stateMutability": "nonpayable",
      "type": "function"
    },
    {
      "inputs": [
        {
          "internalType": "uint256",
          "name": "_startTreeId",
          "type": "uint256"
        },
        {
          "internalType": "uint256",
          "name": "_endTreeId",
          "type": "uint256"
        },
        {
          "internalType": "uint256",
          "name": "_saleType",
          "type": "uint256"
        }
      ],
      "name": "resetSaleTypeBatch",
      "outputs": [],
      "stateMutability": "nonpayable",
      "type": "function"
    },
    {
      "inputs": [
        {
          "internalType": "uint256",
          "name": "_startTreeId",
          "type": "uint256"
        },
        {
          "internalType": "uint256",
          "name": "_endTreeId",
          "type": "uint256"
        },
        {
          "internalType": "uint32",
          "name": "_saleType",
          "type": "uint32"
        }
      ],
      "name": "manageSaleTypeBatch",
      "outputs": [
        {
          "internalType": "bool",
          "name": "",
          "type": "bool"
        }
      ],
      "stateMutability": "nonpayable",
      "type": "function"
    },
    {
      "inputs": [
        {
          "internalType": "string",
          "name": "_treeSpecs",
          "type": "string"
        },
        {
          "internalType": "uint64",
          "name": "_birthDate",
          "type": "uint64"
        },
        {
          "internalType": "uint16",
          "name": "_countryCode",
          "type": "uint16"
        }
      ],
      "name": "plantTree",
      "outputs": [],
      "stateMutability": "nonpayable",
      "type": "function"
    },
    {
      "inputs": [
        {
          "internalType": "uint256",
          "name": "_tempTreeId",
          "type": "uint256"
        },
        {
          "internalType": "bool",
          "name": "_isVerified",
          "type": "bool"
        }
      ],
      "name": "verifyTree",
      "outputs": [],
      "stateMutability": "nonpayable",
      "type": "function"
    },
    {
      "inputs": [
        {
          "internalType": "uint256",
          "name": "_lastFundedTreeId",
          "type": "uint256"
        },
        {
          "internalType": "address",
          "name": "_funder",
          "type": "address"
        }
      ],
      "name": "mintTree",
      "outputs": [
        {
          "internalType": "uint256",
          "name": "",
          "type": "uint256"
        }
      ],
      "stateMutability": "nonpayable",
      "type": "function"
    },
    {
      "inputs": [
        {
          "internalType": "uint256",
          "name": "_treeId",
          "type": "uint256"
        },
        {
          "internalType": "address",
          "name": "_funder",
          "type": "address"
        }
      ],
      "name": "mintTreeById",
      "outputs": [],
      "stateMutability": "nonpayable",
      "type": "function"
    },
    {
      "inputs": [
        {
          "internalType": "uint64",
          "name": "_treeId",
          "type": "uint64"
        },
        {
          "internalType": "string",
          "name": "_treeSpecs",
          "type": "string"
        }
      ],
      "name": "updateTreeSpecs",
      "outputs": [],
      "stateMutability": "nonpayable",
      "type": "function"
    }
  ],
  "bytecode": "0x608060405234801561001057600080fd5b50613bc4806100206000396000f3fe608060405234801561001057600080fd5b50600436106102115760003560e01c80637124c68311610125578063b7c924fc116100ad578063d6762c4a1161007c578063d6762c4a14610517578063da7422281461052f578063dc8aa57814610542578063e0eb4eb91461054b578063fa9ee5031461055857600080fd5b8063b7c924fc146104b6578063be49fa97146104c9578063c4d66de8146104dc578063c6826fc9146104ef57600080fd5b80637da0a877116100f45780637da0a877146104515780638fc5ab4d1461046a5780639c8446f71461047d578063ac5064a014610490578063b0449325146104a357600080fd5b80637124c683146103f1578063713507bb14610404578063738b11ab146104175780637a5080221461042a57600080fd5b80633891577f116101a85780634ad07f9e116101775780634ad07f9e1461036d5780634dc933ef14610380578063572b6c05146103935780636a58d22c146103cb5780636fd5214b146103de57600080fd5b80633891577f146102f557806338f1f40f146103085780633dc96d331461031b578063486ff0cd1461032e57600080fd5b806322347532116101e4578063223475321461029b57806329e7178b146102ae5780632ef6dabe146102cf578063375b4270146102e257600080fd5b806309ca4e5d146102165780630a3912561461022b57806312cc3ab01461025957806321b05e5914610284575b600080fd5b610229610224366004613690565b61056b565b005b61023e6102393660046135d0565b61080d565b60405161025096959493929190613a27565b60405180910390f35b60035461026c906001600160a01b031681565b6040516001600160a01b039091168152602001610250565b61028d60075481565b604051908152602001610250565b61028d6102a93660046135e9565b6108ef565b6102c16102bc3660046135d0565b610b68565b604051610250929190613943565b6102296102dd3660046135e9565b610c15565b60055461026c906001600160a01b031681565b60045461026c906001600160a01b031681565b610229610316366004613534565b610e12565b61022961032936600461383c565b610f29565b604080518082018252601d81527f322e322e302b747265656a65722e6972656c6179726563697069656e74000000602082015290516102509190613930565b61022961037b366004613534565b611077565b61022961038e3660046136fe565b61118e565b6103bb6103a1366004613534565b6000546201000090046001600160a01b0390811691161490565b6040519015158152602001610250565b6103bb6103d93660046137e4565b6113fd565b6102296103ec366004613615565b61159b565b6102296103ff3660046135d0565b611ad1565b6102296104123660046137b8565b611b77565b6102296104253660046135e9565b611c55565b61043d6104383660046135d0565b611dd0565b6040516102509897969594939291906138c2565b60005461026c906201000090046001600160a01b031681565b610229610478366004613615565b611ec7565b61022961048b3660046135e9565b61238c565b61022961049e3660046135d0565b61248b565b6102296104b136600461356c565b612521565b6102296104c4366004613615565b61276a565b6102296104d7366004613645565b612b62565b6102296104ea366004613534565b612ca1565b6105026104fd366004613819565b612e09565b60405163ffffffff9091168152602001610250565b60025461026c9061010090046001600160a01b031681565b61022961053d366004613534565b612fc6565b61028d60065481565b6002546103bb9060ff1681565b610229610566366004613534565b6130b0565b6000858152600860205260409020600280820154600160401b90046001600160401b0316146105e15760405162461bcd60e51b815260206004820152601d60248201527f696e76616c696420747265652073746174757320666f7220706c616e7400000060448201526064015b60405180910390fd5b6005546000906001600160a01b0316630649d9306105fd6131c7565b845460405160e084901b6001600160e01b03191681526001600160a01b03928316600482015291166024820152604401602060405180830381600087803b15801561064757600080fd5b505af115801561065b573d6000803e3d6000fd5b505050506040513d601f19601f8201168201806040525081019061067f919061354f565b9050806106ce5760405162461bcd60e51b815260206004820152601a60248201527f706c616e74696e67207065726d697373696f6e2064656e69656400000000000060448201526064016105d8565b81546001600160a01b03166106e16131c7565b6001600160a01b031614610713576106f76131c7565b82546001600160a01b0319166001600160a01b03919091161782555b600087815260096020526040902061072c8188886132d2565b506001818101805467ffffffffffffffff191690911790556002830180546001600160401b038716600160c01b02640100000000600160c01b0390911661ffff87161717905561077b42613201565b60028401805477ffffffffffffffffffffffffffffffff00000000000000001916600160801b6001600160401b03939093169290920267ffffffffffffffff60401b191691909117680300000000000000001790556040518881527f503b1a425e60188ed8f261fa766526cc490233516afaca990304c007989d40629060200160405180910390a15050505050505050565b600a602052600090815260409020805460018201546002830180546001600160401b0380851695600160401b8604821695600160801b8104831695600160c01b909104909216936001600160a01b039092169290919061086c90613afe565b80601f016020809104026020016040519081016040528092919081815260200182805461089890613afe565b80156108e55780601f106108ba576101008083540402835291602001916108e5565b820191906000526020600020905b8154815290600101906020018083116108c857829003601f168201915b5050505050905086565b60025460009061010090046001600160a01b031663ebe6a6f36109106131c7565b6040516001600160e01b031960e084901b1681526001600160a01b03909116600482015260240160006040518083038186803b15801561094f57600080fd5b505afa158015610963573d6000803e3d6000fd5b5050505060008360016109769190613a7e565b60008181526008602052604081206002015491925090600160401b90046001600160401b03161580156109c55750600082815260086020526040902060020154600160201b900463ffffffff16155b80610a1b5750600082815260086020526040902060020154600160401b90046001600160401b03166004148015610a1b575060008281526008602052604090206002015463ffffffff600160201b909104166004145b90505b80610ad957610a2e826001613a7e565b600081815260086020526040902060020154909250600160401b90046001600160401b0316158015610a7c5750600082815260086020526040902060020154600160201b900463ffffffff16155b80610ad25750600082815260086020526040902060020154600160401b90046001600160401b03166004148015610ad2575060008281526008602052604090206002015463ffffffff600160201b909104166004145b9050610a1e565b60008281526008602052604090819020600201805463ffffffff60201b191690556003549051632851206560e21b81526001600160a01b038681166004830152602482018590529091169063a144819490604401600060405180830381600087803b158015610b4757600080fd5b505af1158015610b5b573d6000803e3d6000fd5b5093979650505050505050565b600960205260009081526040902080548190610b8390613afe565b80601f0160208091040260200160405190810160405280929190818152602001828054610baf90613afe565b8015610bfc5780601f10610bd157610100808354040283529160200191610bfc565b820191906000526020600020905b815481529060010190602001808311610bdf57829003601f168201915b505050600190930154919250506001600160401b031682565b60025461010090046001600160a01b031663c4d2a31b610c336131c7565b6040516001600160e01b031960e084901b1681526001600160a01b03909116600482015260240160006040518083038186803b158015610c7257600080fd5b505afa158015610c86573d6000803e3d6000fd5b5050506000838152600860205260409020600280820154919250600160401b9091046001600160401b031614610cf75760405162461bcd60e51b815260206004820152601660248201527534b73b30b634b2103a3932b2903a379030b9b9b4b3b760511b60448201526064016105d8565b600554604051633d9b75df60e01b81526001600160a01b03848116600483015290911690633d9b75df9060240160206040518083038186803b158015610d3c57600080fd5b505afa158015610d50573d6000803e3d6000fd5b505050506040513d601f19601f82011682018060405250810190610d74919061354f565b610dc05760405162461bcd60e51b815260206004820152601c60248201527f63616e27742061737369676e207472656520746f20706c616e7465720000000060448201526064016105d8565b80546001600160a01b0319166001600160a01b0383161781556040518381527f5569e20f761862546a9a892a1fd4508e29978c6a2673afb7ec47675e8cf6b465906020015b60405180910390a1505050565b60025461010090046001600160a01b0316638413ec14610e306131c7565b6040516001600160e01b031960e084901b1681526001600160a01b03909116600482015260240160006040518083038186803b158015610e6f57600080fd5b505afa158015610e83573d6000803e3d6000fd5b505050506000819050806001600160a01b03166337b9fd776040518163ffffffff1660e01b815260040160206040518083038186803b158015610ec557600080fd5b505afa158015610ed9573d6000803e3d6000fd5b505050506040513d601f19601f82011682018060405250810190610efd919061354f565b610f0657600080fd5b600380546001600160a01b0319166001600160a01b039290921691909117905550565b60025461010090046001600160a01b031663d449b6ac610f476131c7565b6040516001600160e01b031960e084901b1681526001600160a01b03909116600482015260240160006040518083038186803b158015610f8657600080fd5b505afa158015610f9a573d6000803e3d6000fd5b5050506001600160401b0380851660008181526009602052604090206001908101549193509116141561100f5760405162461bcd60e51b815260206004820152601760248201527f74726565206861732070656e64696e672075706461746500000000000000000060448201526064016105d8565b6001600160401b03841660009081526008602052604090206110359060030184846132d2565b507fe057d65b6e89ca5556afee78d44476007a26185cff8218bc9e2d10f5bb0d6f6b848484604051611069939291906139e8565b60405180910390a150505050565b60025461010090046001600160a01b0316638413ec146110956131c7565b6040516001600160e01b031960e084901b1681526001600160a01b03909116600482015260240160006040518083038186803b1580156110d457600080fd5b505afa1580156110e8573d6000803e3d6000fd5b505050506000819050806001600160a01b031663349904da6040518163ffffffff1660e01b815260040160206040518083038186803b15801561112a57600080fd5b505afa15801561113e573d6000803e3d6000fd5b505050506040513d601f19601f82011682018060405250810190611162919061354f565b61116b57600080fd5b600480546001600160a01b0319166001600160a01b039290921691909117905550565b6111966131c7565b6000838152600860205260409020546001600160a01b0390811691161461120b5760405162461bcd60e51b8152602060048201526024808201527f4f6e6c7920506c616e746572206f6620747265652063616e2073656e642075706044820152636461746560e01b60648201526084016105d8565b6000828152600860205260409020600201546003600160401b9091046001600160401b0316116112705760405162461bcd60e51b815260206004820152601060248201526f151c9959481b9bdd081c1b185b9d195960821b60448201526064016105d8565b60008281526009602052604090206001908101546001600160401b031614156112db5760405162461bcd60e51b815260206004820152601d60248201527f7570646174652074726565207374617475732069732070656e64696e6700000060448201526064016105d8565b60075460008381526008602052604090206002015461130c90600160401b90046001600160401b0316610e10613ab8565b6001600160401b031661131f9190613a7e565b60008381526008602052604090206002015461134b9190600160801b90046001600160401b0316613a7e565b4210156113925760405162461bcd60e51b81526020600482015260156024820152740aae0c8c2e8ca40e8d2daca40dcdee840e4cac2c6d605b1b60448201526064016105d8565b6000828152600960209081526040909120825190916113b5918391850190613352565b506001818101805467ffffffffffffffff191690911790556040518381527fb02fa78938a60840517eef874d53897819ea37cc053e40aac321dc45dcfed4a890602001610e05565b60025460009061010090046001600160a01b031663ebe6a6f361141e6131c7565b6040516001600160e01b031960e084901b1681526001600160a01b03909116600482015260240160006040518083038186803b15801561145d57600080fd5b505afa158015611471573d6000803e3d6000fd5b5086925050505b8381101561154457600081815260086020526040902060020154600160201b900463ffffffff161515806115235750600354604051634f558e7960e01b8152600481018390526001600160a01b0390911690634f558e799060240160206040518083038186803b1580156114eb57600080fd5b505afa1580156114ff573d6000803e3d6000fd5b505050506040513d601f19601f82011682018060405250810190611523919061354f565b15611532576000915050611594565b8061153c81613b39565b915050611478565b50835b8381101561158e576000818152600860205260409020600201805463ffffffff60201b1916600160201b63ffffffff8616021790558061158681613b39565b915050611547565b50600190505b9392505050565b600260019054906101000a90046001600160a01b03166001600160a01b0316634d868f986040518163ffffffff1660e01b815260040160006040518083038186803b1580156115e957600080fd5b505afa1580156115fd573d6000803e3d6000fd5b505050506116096131c7565b6000838152600860205260409020546001600160a01b03908116911614156116435760405162461bcd60e51b81526004016105d8906139a5565b60008281526009602052604090206001908101546001600160401b0316146116ad5760405162461bcd60e51b815260206004820152601d60248201527f75706461746520737461747573206d7573742062652070656e64696e6700000060448201526064016105d8565b6000828152600860205260409020600201546003600160401b9091046001600160401b0316116117125760405162461bcd60e51b815260206004820152601060248201526f151c9959481b9bdd081c1b185b9d195960821b60448201526064016105d8565b60025461010090046001600160a01b0316637aa153b46117306131c7565b6040516001600160e01b031960e084901b1681526001600160a01b03909116600482015260240160206040518083038186803b15801561176f57600080fd5b505afa158015611783573d6000803e3d6000fd5b505050506040513d601f19601f820116820180604052508101906117a7919061354f565b8061185857506005546000838152600860205260409020546001600160a01b03918216916355c3a79e91166117da6131c7565b6040516001600160e01b031960e085901b1681526001600160a01b0392831660048201529116602482015260440160206040518083038186803b15801561182057600080fd5b505afa158015611834573d6000803e3d6000fd5b505050506040513d601f19601f82011682018060405250810190611858919061354f565b6118745760405162461bcd60e51b81526004016105d89061396e565b60008281526009602052604090208115611a8957600083815260086020526040812060018301805467ffffffffffffffff1916600317905560028101549091906118e590610e10906118d690600160801b90046001600160401b031642613ae7565b6118e09190613a96565b61326d565b6002830154909150600160401b90046001600160401b031663ffffffff8216111561192f5760028201805467ffffffffffffffff60401b191663ffffffff8316600160401b021790555b82546003830190849061194190613afe565b61194c9291906133c6565b50600354604051634f558e7960e01b8152600481018790526001600160a01b0390911690634f558e799060240160206040518083038186803b15801561199157600080fd5b505afa1580156119a5573d6000803e3d6000fd5b505050506040513d601f19601f820116820180604052508101906119c9919061354f565b15611a4f57600480548354600285015460405163c0ba4aff60e01b81529384018990526001600160a01b039182166024850152600160401b90046001600160401b03166044840152169063c0ba4aff90606401600060405180830381600087803b158015611a3657600080fd5b505af1158015611a4a573d6000803e3d6000fd5b505050505b6040518581527f50dc150da4a25245987f08b8287e8418fa686f9fa829464e548245dff47345e19060200160405180910390a15050505050565b60018101805467ffffffffffffffff191660021790556040517fd673279ff35d1b6d6338f6c7540f40288d9660bf5f39d7c8a8b27eb206844f7390610e059085815260200190565b60025461010090046001600160a01b031663c4d2a31b611aef6131c7565b6040516001600160e01b031960e084901b1681526001600160a01b03909116600482015260240160006040518083038186803b158015611b2e57600080fd5b505afa158015611b42573d6000803e3d6000fd5b5050506007829055506040517f724a8c86a27543b6d373c576963d00ead954c78a72015a1929b5757edeaa06c890600090a150565b60025461010090046001600160a01b031663ebe6a6f3611b956131c7565b6040516001600160e01b031960e084901b1681526001600160a01b03909116600482015260240160006040518083038186803b158015611bd457600080fd5b505afa158015611be8573d6000803e3d6000fd5b5085925050505b82811015611c4f57600081815260086020526040902060020154600160201b900463ffffffff16821415611c3d576000818152600860205260409020600201805463ffffffff60201b191690555b80611c4781613b39565b915050611bef565b50505050565b60025461010090046001600160a01b031663ebe6a6f3611c736131c7565b6040516001600160e01b031960e084901b1681526001600160a01b03909116600482015260240160006040518083038186803b158015611cb257600080fd5b505afa158015611cc6573d6000803e3d6000fd5b50505060008381526008602052604090206002810154909150600160401b90046001600160401b03166004148015611d105750600281015463ffffffff600160201b909104166004145b611d535760405162461bcd60e51b81526020600482015260146024820152731d1c9959481b5d5cdd081899481c1b185b9d195960621b60448201526064016105d8565b60028101805463ffffffff60201b19169055600354604051632851206560e21b81526001600160a01b038481166004830152602482018690529091169063a144819490604401600060405180830381600087803b158015611db357600080fd5b505af1158015611dc7573d6000803e3d6000fd5b50505050505050565b60086020526000908152604090208054600182015460028301546003840180546001600160a01b0390941694929363ffffffff80841694600160201b8504909116936001600160401b03600160401b8204811694600160801b8304821694600160c01b9093049091169291611e4490613afe565b80601f0160208091040260200160405190810160405280929190818152602001828054611e7090613afe565b8015611ebd5780601f10611e9257610100808354040283529160200191611ebd565b820191906000526020600020905b815481529060010190602001808311611ea057829003601f168201915b5050505050905088565b6000828152600a60205260409020611edd6131c7565b60018201546001600160a01b0390811691161415611f0d5760405162461bcd60e51b81526004016105d8906139a5565b60025461010090046001600160a01b0316637aa153b4611f2b6131c7565b6040516001600160e01b031960e084901b1681526001600160a01b03909116600482015260240160206040518083038186803b158015611f6a57600080fd5b505afa158015611f7e573d6000803e3d6000fd5b505050506040513d601f19601f82011682018060405250810190611fa2919061354f565b80612049575060055460018201546001600160a01b03918216916355c3a79e9116611fcb6131c7565b6040516001600160e01b031960e085901b1681526001600160a01b0392831660048201529116602482015260440160206040518083038186803b15801561201157600080fd5b505afa158015612025573d6000803e3d6000fd5b505050506040513d601f19601f82011682018060405250810190612049919061354f565b6120655760405162461bcd60e51b81526004016105d89061396e565b8054600160401b90046001600160401b03166120bb5760405162461bcd60e51b81526020600482015260156024820152741c9959dd5b185c951c9959481b9bdd08195e1a5cdd605a1b60448201526064016105d8565b811561232057600060065460016120d29190613a7e565b90505b600081815260086020526040902060020154600160401b90046001600160401b03161580156121205750600081815260086020526040902060020154600160201b900463ffffffff16155b6121365761212f816001613a7e565b90506120d5565b6006819055600081815260086020526040902082546002808301805467ffffffffffffffff60801b198116600160401b9094046001600160401b03908116600160801b908102958617845588540461ffff1677ffffffffffffffff000000000000000000000000ffffffff19831663ffffffff198716178117845588546fffffffffffffffffffffffff00000000909316640100000000600160c01b03909616959095179094179316600160c01b0292909217909155830180546003830191906121ff90613afe565b61220a9291906133c6565b50600183015481546001600160a01b039182166001600160a01b031990911617825560028201805467ffffffffffffffff60401b1916600160421b179055600354600654604051634f558e7960e01b81526004810191909152911690634f558e799060240160206040518083038186803b15801561228757600080fd5b505afa15801561229b573d6000803e3d6000fd5b505050506040513d601f19601f820116820180604052508101906122bf919061354f565b6122dd5760028101805463ffffffff60201b19166404000000001790555b60065460408051918252602082018790527fb00267d7be02f7bb102fc396d213483002dc6a0b026646ec40cc29c92a092b54910160405180910390a15050612354565b6040518381527fa9575f46e68545de141e3ca99ed4d1c7a814076adc5b7214da6b0a2cb44135569060200160405180910390a15b6000838152600a602052604081208181556001810180546001600160a01b0319169055906123856002830182613441565b5050505050565b60025461010090046001600160a01b031663ebe6a6f36123aa6131c7565b6040516001600160e01b031960e084901b1681526001600160a01b03909116600482015260240160006040518083038186803b1580156123e957600080fd5b505afa1580156123fd573d6000803e3d6000fd5b50505060008381526008602052604090819020600201805463ffffffff60201b191690556003549051632851206560e21b81526001600160a01b03848116600483015260248201869052909116915063a144819490604401600060405180830381600087803b15801561246f57600080fd5b505af1158015612483573d6000803e3d6000fd5b505050505050565b60025461010090046001600160a01b031663ebe6a6f36124a96131c7565b6040516001600160e01b031960e084901b1681526001600160a01b03909116600482015260240160006040518083038186803b1580156124e857600080fd5b505afa1580156124fc573d6000803e3d6000fd5b505050600091825250600860205260409020600201805463ffffffff60201b19169055565b6005546001600160a01b031663a1f74f0e61253a6131c7565b6040516001600160e01b031960e084901b1681526001600160a01b039091166004820152602401602060405180830381600087803b15801561257b57600080fd5b505af115801561258f573d6000803e3d6000fd5b505050506040513d601f19601f820116820180604052508101906125b3919061354f565b6125bc57600080fd5b6040518060c00160405280836001600160401b031681526020016125df42613201565b6001600160401b0316815261ffff83166020820152600060408201526060016126066131c7565b6001600160a01b0316815260200185858080601f0160208091040260200160405190810160405280939291908181526020018383808284376000920182905250939094525050600154600a92508152602080820192909252604090810160002083518154858501519386015160608701516001600160401b03908116600160c01b026001600160c01b03928216600160801b02929092166fffffffffffffffffffffffffffffffff968216600160401b026fffffffffffffffffffffffffffffffff19909416919094161791909117939093161791909117815560808301516001820180546001600160a01b039092166001600160a01b031990921691909117905560a08301518051919261272392600285019290910190613352565b50506001547f6efeb6d0d0a494d52bc4a4c7fce81b3374786e440b2459f8ef1d87f170021907915060405190815260200160405180910390a1611c4f600180546001019055565b600260019054906101000a90046001600160a01b03166001600160a01b0316634d868f986040518163ffffffff1660e01b815260040160006040518083038186803b1580156127b857600080fd5b505afa1580156127cc573d6000803e3d6000fd5b50505060008381526008602052604090206002810154909150600160401b90046001600160401b031660031461283a5760405162461bcd60e51b8152602060048201526013602482015272696e76616c696420747265652073746174757360681b60448201526064016105d8565b6128426131c7565b81546001600160a01b03908116911614156128ab5760405162461bcd60e51b815260206004820152602360248201527f506c616e746572206f6620747265652063616e2774206163636570742075706460448201526261746560e81b60648201526084016105d8565b60025461010090046001600160a01b0316637aa153b46128c96131c7565b6040516001600160e01b031960e084901b1681526001600160a01b03909116600482015260240160206040518083038186803b15801561290857600080fd5b505afa15801561291c573d6000803e3d6000fd5b505050506040513d601f19601f82011682018060405250810190612940919061354f565b806129e4575060055481546001600160a01b03918216916355c3a79e91166129666131c7565b6040516001600160e01b031960e085901b1681526001600160a01b0392831660048201529116602482015260440160206040518083038186803b1580156129ac57600080fd5b505afa1580156129c0573d6000803e3d6000fd5b505050506040513d601f19601f820116820180604052508101906129e4919061354f565b612a005760405162461bcd60e51b81526004016105d89061396e565b60008381526009602052604090208215612a9e57805460038301908290612a2690613afe565b612a319291906133c6565b5060028201805467ffffffffffffffff60401b1916600160421b179055600181018054600367ffffffffffffffff199091161790556040518481527f84877ccbface2d9faaae31e1d836044ce2bec38ea03584b8b86d18f050d5dda99060200160405180910390a1611c4f565b6002828101805467ffffffffffffffff60401b1916600160411b17905560018201805467ffffffffffffffff1916909117905560055482546040516333fd9ea160e01b81526001600160a01b0391821660048201529116906333fd9ea190602401600060405180830381600087803b158015612b1957600080fd5b505af1158015612b2d573d6000803e3d6000fd5b505050507f757078b47c8e43ba433477862b6756d44e0e727466986d807a29c933392723738460405161106991815260200190565b60025461010090046001600160a01b031663c4d2a31b612b806131c7565b6040516001600160e01b031960e084901b1681526001600160a01b03909116600482015260240160006040518083038186803b158015612bbf57600080fd5b505afa158015612bd3573d6000803e3d6000fd5b505050600084815260086020526040902060020154600160401b90046001600160401b0316159050612c385760405162461bcd60e51b815260206004820152600e60248201526d6475706c6963617465207472656560901b60448201526064016105d8565b600083815260086020526040902060028101805467ffffffffffffffff60401b1916600160411b179055612c706003820184846132d2565b506040518481527fa4af200dc5a6779ca0b468c7da84df9212cacc9efa51c54cf145b4f8308796b490602001611069565b600054610100900460ff1680612cba575060005460ff16155b612d1d5760405162461bcd60e51b815260206004820152602e60248201527f496e697469616c697a61626c653a20636f6e747261637420697320616c72656160448201526d191e481a5b9a5d1a585b1a5e995960921b60648201526084016105d8565b600054610100900460ff16158015612d3f576000805461ffff19166101011790555b6000829050806001600160a01b031663ba84fd696040518163ffffffff1660e01b815260040160206040518083038186803b158015612d7d57600080fd5b505afa158015612d91573d6000803e3d6000fd5b505050506040513d601f19601f82011682018060405250810190612db5919061354f565b612dbe57600080fd5b600280546001600160a01b03909216610100026001600160a81b031990921691909117600117905561271060065562093a806007558015612e05576000805461ff00191690555b5050565b60025460009061010090046001600160a01b031663ebe6a6f3612e2a6131c7565b6040516001600160e01b031960e084901b1681526001600160a01b03909116600482015260240160006040518083038186803b158015612e6957600080fd5b505afa158015612e7d573d6000803e3d6000fd5b505050600084815260086020526040902060020154849150600160401b90046001600160401b0316612ee05760405162461bcd60e51b815260206004820152600c60248201526b696e76616c6964207472656560a01b60448201526064016105d8565b600354604051634f558e7960e01b8152600481018690526001600160a01b0390911690634f558e799060240160206040518083038186803b158015612f2457600080fd5b505afa158015612f38573d6000803e3d6000fd5b505050506040513d601f19601f82011682018060405250810190612f5c919061354f565b15612f6a5760019150612fbf565b600084815260086020526040902060020154600160201b900463ffffffff1680612fbc576000858152600860205260409020600201805463ffffffff60201b1916600160201b63ffffffff8716021790555b91505b5092915050565b60025461010090046001600160a01b0316638413ec14612fe46131c7565b6040516001600160e01b031960e084901b1681526001600160a01b03909116600482015260240160006040518083038186803b15801561302357600080fd5b505afa158015613037573d6000803e3d6000fd5b5083925050506001600160a01b0381166130855760405162461bcd60e51b815260206004820152600f60248201526e696e76616c6964206164647265737360881b60448201526064016105d8565b50600080546001600160a01b03909216620100000262010000600160b01b0319909216919091179055565b60025461010090046001600160a01b0316638413ec146130ce6131c7565b6040516001600160e01b031960e084901b1681526001600160a01b03909116600482015260240160006040518083038186803b15801561310d57600080fd5b505afa158015613121573d6000803e3d6000fd5b505050506000819050806001600160a01b03166303dc8deb6040518163ffffffff1660e01b815260040160206040518083038186803b15801561316357600080fd5b505afa158015613177573d6000803e3d6000fd5b505050506040513d601f19601f8201168201806040525081019061319b919061354f565b6131a457600080fd5b600580546001600160a01b0319166001600160a01b039290921691909117905550565b6000601436108015906131ea57506000546201000090046001600160a01b031633145b156131fc575060131936013560601c90565b503390565b60006001600160401b038211156132695760405162461bcd60e51b815260206004820152602660248201527f53616665436173743a2076616c756520646f65736e27742066697420696e203660448201526534206269747360d01b60648201526084016105d8565b5090565b600063ffffffff8211156132695760405162461bcd60e51b815260206004820152602660248201527f53616665436173743a2076616c756520646f65736e27742066697420696e203360448201526532206269747360d01b60648201526084016105d8565b8280546132de90613afe565b90600052602060002090601f0160209004810192826133005760008555613346565b82601f106133195782800160ff19823516178555613346565b82800160010185558215613346579182015b8281111561334657823582559160200191906001019061332b565b5061326992915061347e565b82805461335e90613afe565b90600052602060002090601f0160209004810192826133805760008555613346565b82601f1061339957805160ff1916838001178555613346565b82800160010185558215613346579182015b828111156133465782518255916020019190600101906133ab565b8280546133d290613afe565b90600052602060002090601f0160209004810192826133f45760008555613346565b82601f106134055780548555613346565b8280016001018555821561334657600052602060002091601f016020900482015b82811115613346578254825591600101919060010190613426565b50805461344d90613afe565b6000825580601f1061345d575050565b601f01602090049060005260206000209081019061347b919061347e565b50565b5b80821115613269576000815560010161347f565b80356001600160a01b03811681146134aa57600080fd5b919050565b60008083601f8401126134c157600080fd5b5081356001600160401b038111156134d857600080fd5b6020830191508360208285010111156134f057600080fd5b9250929050565b803561ffff811681146134aa57600080fd5b803563ffffffff811681146134aa57600080fd5b80356001600160401b03811681146134aa57600080fd5b60006020828403121561354657600080fd5b61159482613493565b60006020828403121561356157600080fd5b815161159481613b80565b6000806000806060858703121561358257600080fd5b84356001600160401b0381111561359857600080fd5b6135a4878288016134af565b90955093506135b790506020860161351d565b91506135c5604086016134f7565b905092959194509250565b6000602082840312156135e257600080fd5b5035919050565b600080604083850312156135fc57600080fd5b8235915061360c60208401613493565b90509250929050565b6000806040838503121561362857600080fd5b82359150602083013561363a81613b80565b809150509250929050565b60008060006040848603121561365a57600080fd5b8335925060208401356001600160401b0381111561367757600080fd5b613683868287016134af565b9497909650939450505050565b6000806000806000608086880312156136a857600080fd5b8535945060208601356001600160401b038111156136c557600080fd5b6136d1888289016134af565b90955093506136e490506040870161351d565b91506136f2606087016134f7565b90509295509295909350565b6000806040838503121561371157600080fd5b8235915060208301356001600160401b038082111561372f57600080fd5b818501915085601f83011261374357600080fd5b81358181111561375557613755613b6a565b604051601f8201601f19908116603f0116810190838211818310171561377d5761377d613b6a565b8160405282815288602084870101111561379657600080fd5b8260208601602083013760006020848301015280955050505050509250929050565b6000806000606084860312156137cd57600080fd5b505081359360208301359350604090920135919050565b6000806000606084860312156137f957600080fd5b833592506020840135915061381060408501613509565b90509250925092565b6000806040838503121561382c57600080fd5b8235915061360c60208401613509565b60008060006040848603121561385157600080fd5b61385a8461351d565b925060208401356001600160401b0381111561367757600080fd5b6000815180845260005b8181101561389b5760208185018101518683018201520161387f565b818111156138ad576000602083870101525b50601f01601f19169290920160200192915050565b6001600160a01b03891681526020810188905263ffffffff8781166040830152861660608201526001600160401b03858116608083015284811660a0830152831660c082015261010060e0820181905260009061392183820185613875565b9b9a5050505050505050505050565b6020815260006115946020830184613875565b6040815260006139566040830185613875565b90506001600160401b03831660208301529392505050565b60208082526018908201527f696e76616c69642061636365737320746f207665726966790000000000000000604082015260600190565b60208082526023908201527f506c616e746572206f6620747265652063616e2774207665726966792075706460408201526261746560e81b606082015260800190565b6001600160401b038416815260406020820152816040820152818360608301376000818301606090810191909152601f909201601f1916010192915050565b6001600160401b03878116825286811660208301528581166040830152841660608201526001600160a01b038316608082015260c060a08201819052600090613a7290830184613875565b98975050505050505050565b60008219821115613a9157613a91613b54565b500190565b600082613ab357634e487b7160e01b600052601260045260246000fd5b500490565b60006001600160401b0380831681851681830481118215151615613ade57613ade613b54565b02949350505050565b600082821015613af957613af9613b54565b500390565b600181811c90821680613b1257607f821691505b60208210811415613b3357634e487b7160e01b600052602260045260246000fd5b50919050565b6000600019821415613b4d57613b4d613b54565b5060010190565b634e487b7160e01b600052601160045260246000fd5b634e487b7160e01b600052604160045260246000fd5b801515811461347b57600080fdfea2646970667358221220ed8504f2f866833b058976550b922c7e1a31f14ae9dedebd0adc65706fa076ef64736f6c63430008060033",
  "immutableReferences": {},
  "source": "// SPDX-License-Identifier: GPL-3.0\n\npragma solidity ^0.8.6;\n\nimport \"@openzeppelin/contracts-upgradeable/utils/math/SafeCastUpgradeable.sol\";\n\nimport \"@openzeppelin/contracts-upgradeable/utils/CountersUpgradeable.sol\";\nimport \"@openzeppelin/contracts-upgradeable/proxy/utils/Initializable.sol\";\nimport \"../access/IAccessRestriction.sol\";\nimport \"../gsn/RelayRecipient.sol\";\nimport \"../tree/ITree.sol\";\nimport \"../treasury/IPlanterFund.sol\";\nimport \"../planter/IPlanter.sol\";\n\n/** @title TreeFactory Contract */\ncontract TreeFactory is Initializable, RelayRecipient {\n    using CountersUpgradeable for CountersUpgradeable.Counter;\n    using SafeCastUpgradeable for uint256;\n    using SafeCastUpgradeable for uint32;\n\n    CountersUpgradeable.Counter private pendingRegularTreeId;\n\n    /** NOTE {isTreeFactory} set inside the initialize to {true} */\n    bool public isTreeFactory;\n\n    IAccessRestriction public accessRestriction;\n    ITree public treeToken;\n    IPlanterFund public planterFund;\n    IPlanter public planterContract;\n\n    uint256 public lastRegualarTreeId;\n    uint256 public treeUpdateInterval;\n\n    struct TreeData {\n        address planter;\n        uint256 species;\n        uint32 countryCode;\n        uint32 saleType;\n        uint64 treeStatus;\n        uint64 plantDate;\n        uint64 birthDate;\n        string treeSpecs;\n    }\n\n    struct TreeUpdate {\n        string updateSpecs;\n        uint64 updateStatus;\n    }\n\n    struct TempTree {\n        uint64 birthDate;\n        uint64 plantDate;\n        uint64 countryCode;\n        uint64 otherData;\n        address planter;\n        string treeSpecs;\n    }\n    /** NOTE mapping of treeId to TreeData Struct */\n    mapping(uint256 => TreeData) public trees;\n    /** NOTE mapping of treeId to TreeUpdate struct */\n    mapping(uint256 => TreeUpdate) public treeUpdates;\n    /** NOTE mapping of treeId to TempTree struct */\n    mapping(uint256 => TempTree) public tempTrees;\n\n    event TreeListed(uint256 treeId);\n    event TreeAssigned(uint256 treeId);\n    event AssignedTreePlanted(uint256 treeId);\n    event AssignedTreeVerified(uint256 treeId);\n    event AssignedTreeRejected(uint256 treeId);\n    event TreeUpdated(uint256 treeId);\n    event TreeUpdatedVerified(uint256 treeId);\n    event TreeUpdateRejected(uint256 treeId);\n    event TreePlanted(uint256 treeId);\n    event TreeVerified(uint256 treeId, uint256 tempTreeId);\n    event TreeRejected(uint256 treeId);\n    event TreeUpdateIntervalChanged();\n    event TreeSpecsUpdated(uint256 treeId, string treeSpecs);\n\n    /** NOTE modifier to check msg.sender has admin role */\n    modifier onlyAdmin() {\n        accessRestriction.ifAdmin(_msgSender());\n        _;\n    }\n\n    /** NOTE modifier to check msg.sender has data manager role */\n    modifier onlyDataManager() {\n        accessRestriction.ifDataManager(_msgSender());\n        _;\n    }\n\n    /** NOTE modifier for check if function is not paused*/\n    modifier ifNotPaused() {\n        accessRestriction.ifNotPaused();\n        _;\n    }\n\n    /** NOTE modifier to check msg.sender has script role */\n    modifier onlyScript() {\n        accessRestriction.ifScript(_msgSender());\n        _;\n    }\n\n    /** NOTE modifier for check msg.sender has TreejerContract role */\n    modifier onlyTreejerContract() {\n        accessRestriction.ifTreejerContract(_msgSender());\n        _;\n    }\n\n    /** NOTE modifier for check treeId to be valid tree */\n    modifier validTree(uint256 _treeId) {\n        require(trees[_treeId].treeStatus > 0, \"invalid tree\");\n        _;\n    }\n\n    /** NOTE modifier for check tree has not pending update */\n    modifier notHavePendingUpdate(uint256 _treeId) {\n        require(\n            treeUpdates[_treeId].updateStatus != 1,\n            \"tree has pending update\"\n        );\n        _;\n    }\n\n    /** NOTE modifier for check valid address */\n    modifier validAddress(address _address) {\n        require(_address != address(0), \"invalid address\");\n        _;\n    }\n\n    /**\n     * @dev initialize AccessRestriction contract and set true for isTreeFactory\n     * @param _accessRestrictionAddress set to the address of AccessRestriction contract\n     * NOTE set lastRegualarTreeId to 10000\n     */\n    function initialize(address _accessRestrictionAddress)\n        external\n        initializer\n    {\n        IAccessRestriction candidateContract = IAccessRestriction(\n            _accessRestrictionAddress\n        );\n\n        require(candidateContract.isAccessRestriction());\n\n        isTreeFactory = true;\n        accessRestriction = candidateContract;\n        lastRegualarTreeId = 10000;\n        treeUpdateInterval = 604800;\n    }\n\n    /**\n     * @dev set trusted forwarder address\n     * @param _address set to {trustedForwarder}\n     */\n    function setTrustedForwarder(address _address)\n        external\n        onlyAdmin\n        validAddress(_address)\n    {\n        trustedForwarder = _address;\n    }\n\n    /**\n     * @dev admin set PlanterFund contract address\n     * @param _address set to the address of PlanterFund contract\n     */\n    function setPlanterFundAddress(address _address) external onlyAdmin {\n        IPlanterFund candidateContract = IPlanterFund(_address);\n\n        require(candidateContract.isPlanterFund());\n\n        planterFund = candidateContract;\n    }\n\n    /**\n     * @dev admin set Planter contract address\n     * @param _address set to the address of Planter contract\n     */\n    function setPlanterContractAddress(address _address) external onlyAdmin {\n        IPlanter candidateContract = IPlanter(_address);\n\n        require(candidateContract.isPlanter());\n\n        planterContract = candidateContract;\n    }\n\n    /**\n     * @dev admin set TreeToken contract address\n     * @param _address set to the address of TreeToken contract\n     */\n    function setTreeTokenAddress(address _address) external onlyAdmin {\n        ITree candidateContract = ITree(_address);\n\n        require(candidateContract.isTree());\n\n        treeToken = candidateContract;\n    }\n\n    /** @dev admin set the minimum time to send next update request\n     * @param _seconds time to next update request\n     */\n    function setUpdateInterval(uint256 _seconds) external onlyDataManager {\n        treeUpdateInterval = _seconds;\n\n        emit TreeUpdateIntervalChanged();\n    }\n\n    /**\n     * @dev admin list tree\n     * @param _treeId id of tree to list\n     * @param _treeSpecs tree specs\n     */\n    function listTree(uint256 _treeId, string calldata _treeSpecs)\n        external\n        onlyDataManager\n    {\n        require(trees[_treeId].treeStatus == 0, \"duplicate tree\");\n\n        TreeData storage treeData = trees[_treeId];\n\n        treeData.treeStatus = 2;\n        treeData.treeSpecs = _treeSpecs;\n\n        emit TreeListed(_treeId);\n    }\n\n    /**\n     * @dev admin assign an existing tree to planter\n     * NOTE tree must be not planted\n     * @param _treeId id of tree to assign\n     * @param _planter assignee planter\n     */\n    function assignTree(uint256 _treeId, address _planter)\n        external\n        onlyDataManager\n    {\n        TreeData storage treeData = trees[_treeId];\n\n        require(treeData.treeStatus == 2, \"invalid tree to assign\");\n\n        require(\n            planterContract.canAssignTree(_planter),\n            \"can't assign tree to planter\"\n        );\n\n        treeData.planter = _planter;\n\n        emit TreeAssigned(_treeId);\n    }\n\n    /**\n     * @dev planter with permission to plant, can plant its assigned tree\n     * @param _treeId id of tree to plant\n     * @param _treeSpecs tree specs\n     * @param _birthDate birth date of tree\n     * @param _countryCode country code of tree\n     */\n    function plantAssignedTree(\n        uint256 _treeId,\n        string calldata _treeSpecs,\n        uint64 _birthDate,\n        uint16 _countryCode\n    ) external {\n        TreeData storage treeData = trees[_treeId];\n\n        require(treeData.treeStatus == 2, \"invalid tree status for plant\");\n\n        bool canPlant = planterContract.manageAssignedTreePermission(\n            _msgSender(),\n            treeData.planter\n        );\n\n        require(canPlant, \"planting permission denied\");\n\n        if (_msgSender() != treeData.planter) {\n            treeData.planter = _msgSender();\n        }\n\n        TreeUpdate storage treeUpdateData = treeUpdates[_treeId];\n\n        treeUpdateData.updateSpecs = _treeSpecs;\n        treeUpdateData.updateStatus = 1;\n\n        treeData.countryCode = _countryCode;\n        treeData.birthDate = _birthDate;\n        treeData.plantDate = block.timestamp.toUint64();\n        treeData.treeStatus = 3;\n\n        emit AssignedTreePlanted(_treeId);\n    }\n\n    /**\n     * @dev admin or allowed verifier can verify or reject plant for assigned tree.\n     * @param _treeId id of tree to verifiy\n     * @param _isVerified true for verify and false for reject\n     */\n    function verifyAssignedTree(uint256 _treeId, bool _isVerified)\n        external\n        ifNotPaused\n    {\n        TreeData storage treeData = trees[_treeId];\n\n        require(treeData.treeStatus == 3, \"invalid tree status\");\n\n        require(\n            treeData.planter != _msgSender(),\n            \"Planter of tree can't accept update\"\n        );\n\n        require(\n            accessRestriction.isDataManager(_msgSender()) ||\n                planterContract.canVerify(treeData.planter, _msgSender()),\n            \"invalid access to verify\"\n        );\n\n        TreeUpdate storage treeUpdateData = treeUpdates[_treeId];\n\n        if (_isVerified) {\n            treeData.treeSpecs = treeUpdateData.updateSpecs;\n            treeData.treeStatus = 4;\n            treeUpdateData.updateStatus = 3;\n\n            emit AssignedTreeVerified(_treeId);\n        } else {\n            treeData.treeStatus = 2;\n            treeUpdateData.updateStatus = 2;\n            planterContract.reducePlantedCount(treeData.planter);\n\n            emit AssignedTreeRejected(_treeId);\n        }\n    }\n\n    /**\n     * @dev planter of tree send update request for tree\n     * @param _treeId id of tree to update\n     * @param _treeSpecs tree specs\n     */\n    function updateTree(uint256 _treeId, string memory _treeSpecs) external {\n        require(\n            trees[_treeId].planter == _msgSender(),\n            \"Only Planter of tree can send update\"\n        );\n\n        require(trees[_treeId].treeStatus > 3, \"Tree not planted\");\n\n        require(\n            treeUpdates[_treeId].updateStatus != 1,\n            \"update tree status is pending\"\n        );\n\n        require(\n            block.timestamp >=\n                trees[_treeId].plantDate +\n                    ((trees[_treeId].treeStatus * 3600) + treeUpdateInterval),\n            \"Update time not reach\"\n        );\n\n        TreeUpdate storage treeUpdateData = treeUpdates[_treeId];\n\n        treeUpdateData.updateSpecs = _treeSpecs;\n        treeUpdateData.updateStatus = 1;\n\n        emit TreeUpdated(_treeId);\n    }\n\n    /**\n     * @dev admin or allowed verifier can verifiy or reject update request for tree.\n     * NOTE based on the current time of verifing and plant date, age of tree\n     * calculated and set as the treeStatus\n     * NOTE if a token exist for that tree (minted before) planter of tree funded\n     * based on calculated tree status\n     * @param _treeId id of tree to verify update request\n     * @param _isVerified true for verify and false for reject\n     */\n    function verifyUpdate(uint256 _treeId, bool _isVerified)\n        external\n        ifNotPaused\n    {\n        require(\n            trees[_treeId].planter != _msgSender(),\n            \"Planter of tree can't verify update\"\n        );\n\n        require(\n            treeUpdates[_treeId].updateStatus == 1,\n            \"update status must be pending\"\n        );\n\n        require(trees[_treeId].treeStatus > 3, \"Tree not planted\");\n\n        require(\n            accessRestriction.isDataManager(_msgSender()) ||\n                planterContract.canVerify(trees[_treeId].planter, _msgSender()),\n            \"invalid access to verify\"\n        );\n\n        TreeUpdate storage treeUpdateData = treeUpdates[_treeId];\n\n        if (_isVerified) {\n            TreeData storage treeData = trees[_treeId];\n\n            treeUpdateData.updateStatus = 3;\n\n            uint32 age = ((block.timestamp - treeData.plantDate) / 3600)\n                .toUint32();\n\n            if (age > treeData.treeStatus) {\n                treeData.treeStatus = age;\n            }\n\n            treeData.treeSpecs = treeUpdateData.updateSpecs;\n\n            if (treeToken.exists(_treeId)) {\n                planterFund.updatePlanterTotalClaimed(\n                    _treeId,\n                    treeData.planter,\n                    treeData.treeStatus\n                );\n            }\n\n            emit TreeUpdatedVerified(_treeId);\n        } else {\n            treeUpdateData.updateStatus = 2;\n\n            emit TreeUpdateRejected(_treeId);\n        }\n    }\n\n    /**\n     * @dev check if a tree is free to take part in sale and set {_saleType}\n     * to saleType of tree when tree is not in use\n     * @param _treeId id of tree to check\n     * @param _saleType saleType for tree\n     * @return 0 if a tree ready for a sale and 1 if a tree is in use or minted before\n     */\n    function manageSaleType(uint256 _treeId, uint32 _saleType)\n        external\n        onlyTreejerContract\n        validTree(_treeId)\n        returns (uint32)\n    {\n        if (treeToken.exists(_treeId)) {\n            return 1;\n        }\n\n        uint32 currentSaleType = trees[_treeId].saleType;\n\n        if (currentSaleType == 0) {\n            trees[_treeId].saleType = _saleType;\n        }\n\n        return currentSaleType;\n    }\n\n    /**\n     * @dev mint a tree to funder and set saleType to 0\n     * @param _treeId id of tree to mint\n     * @param _funder address of funder to mint tree for\n     */\n    function mintAssignedTree(uint256 _treeId, address _funder)\n        external\n        onlyTreejerContract\n    {\n        trees[_treeId].saleType = 0;\n        treeToken.safeMint(_funder, _treeId);\n    }\n\n    /**\n     * @dev reset saleType value of tree\n     * @param _treeId id of tree to reset saleType value\n     */\n    function resetSaleType(uint256 _treeId) external onlyTreejerContract {\n        trees[_treeId].saleType = 0;\n    }\n\n    /**\n     * @dev reset saleType of trees in range of {_startTreeId} and {_endTreeId}\n     * with saleType value of {_saleType}\n     * @param _startTreeId starting tree id to reset saleType\n     * @param _endTreeId ending tree id to reset saleType\n     * @param _saleType saleType value of trees\n     */\n    function resetSaleTypeBatch(\n        uint256 _startTreeId,\n        uint256 _endTreeId,\n        uint256 _saleType\n    ) external onlyTreejerContract {\n        for (uint256 i = _startTreeId; i < _endTreeId; i++) {\n            if (trees[i].saleType == _saleType) {\n                trees[i].saleType = 0;\n            }\n        }\n    }\n\n    /**\n     * @dev set {_saleType} to saleType of trees in range {_startTreeId} and {_endTreeId}\n     * @param _startTreeId starting tree id to set saleType value\n     * @param _endTreeId _ending tree id to set saleType value\n     * @param _saleType saleType value\n     * @return true if all trees saleType value successfully set and false otherwise\n     */\n    function manageSaleTypeBatch(\n        uint256 _startTreeId,\n        uint256 _endTreeId,\n        uint32 _saleType\n    ) external onlyTreejerContract returns (bool) {\n        for (uint256 i = _startTreeId; i < _endTreeId; i++) {\n            if (trees[i].saleType > 0 || treeToken.exists(i)) {\n                return false;\n            }\n        }\n        for (uint256 j = _startTreeId; j < _endTreeId; j++) {\n            trees[j].saleType = _saleType;\n        }\n        return true;\n    }\n\n    /**\n     * @dev planter plant a tree\n     * @param _treeSpecs tree specs\n     * @param _birthDate birthDate of the tree\n     * @param _countryCode country code of tree\n     */\n    function plantTree(\n        string calldata _treeSpecs,\n        uint64 _birthDate,\n        uint16 _countryCode\n    ) external {\n        require(planterContract.manageTreePermission(_msgSender()));\n\n        tempTrees[pendingRegularTreeId.current()] = TempTree(\n            _birthDate,\n            block.timestamp.toUint64(),\n            _countryCode,\n            0,\n            _msgSender(),\n            _treeSpecs\n        );\n\n        emit TreePlanted(pendingRegularTreeId.current());\n\n        pendingRegularTreeId.increment();\n    }\n\n    /**\n     * @dev admin or allowed verifier can verify or rejects the pending trees\n     * @param _tempTreeId tempTreeId to verify\n     * @param _isVerified true for verify and false for reject\n     */\n    function verifyTree(uint256 _tempTreeId, bool _isVerified) external {\n        TempTree storage tempTreeData = tempTrees[_tempTreeId];\n\n        require(\n            tempTreeData.planter != _msgSender(),\n            \"Planter of tree can't verify update\"\n        );\n\n        require(\n            accessRestriction.isDataManager(_msgSender()) ||\n                planterContract.canVerify(tempTreeData.planter, _msgSender()),\n            \"invalid access to verify\"\n        );\n\n        require(tempTreeData.plantDate > 0, \"regularTree not exist\");\n\n        if (_isVerified) {\n            uint256 tempLastRegularTreeId = lastRegualarTreeId + 1;\n\n            while (\n                !(trees[tempLastRegularTreeId].treeStatus == 0 &&\n                    trees[tempLastRegularTreeId].saleType == 0)\n            ) {\n                tempLastRegularTreeId = tempLastRegularTreeId + 1;\n            }\n\n            lastRegualarTreeId = tempLastRegularTreeId;\n\n            TreeData storage treeData = trees[lastRegualarTreeId];\n\n            treeData.plantDate = tempTreeData.plantDate;\n            treeData.countryCode = uint16(tempTreeData.countryCode);\n            treeData.birthDate = tempTreeData.birthDate;\n            treeData.treeSpecs = tempTreeData.treeSpecs;\n            treeData.planter = tempTreeData.planter;\n            treeData.treeStatus = 4;\n\n            if (!treeToken.exists(lastRegualarTreeId)) {\n                treeData.saleType = 4;\n            }\n            emit TreeVerified(lastRegualarTreeId, _tempTreeId);\n        } else {\n            emit TreeRejected(_tempTreeId);\n        }\n\n        delete tempTrees[_tempTreeId];\n    }\n\n    /**\n     * @dev mint a tree to funder of tree\n     * @param _lastFundedTreeId The last tree funded in the regular sale\n     * @param _funder funder of a new tree sold in Regular\n     * @return the last tree funded after update\n     */\n    function mintTree(uint256 _lastFundedTreeId, address _funder)\n        external\n        onlyTreejerContract\n        returns (uint256)\n    {\n        uint256 tempLastFundedTreeId = _lastFundedTreeId + 1;\n\n        bool flag = (trees[tempLastFundedTreeId].treeStatus == 0 &&\n            trees[tempLastFundedTreeId].saleType == 0) ||\n            (trees[tempLastFundedTreeId].treeStatus == 4 &&\n                trees[tempLastFundedTreeId].saleType == 4);\n\n        while (!flag) {\n            tempLastFundedTreeId = tempLastFundedTreeId + 1;\n\n            flag =\n                (trees[tempLastFundedTreeId].treeStatus == 0 &&\n                    trees[tempLastFundedTreeId].saleType == 0) ||\n                (trees[tempLastFundedTreeId].treeStatus == 4 &&\n                    trees[tempLastFundedTreeId].saleType == 4);\n        }\n\n        trees[tempLastFundedTreeId].saleType = 0;\n\n        treeToken.safeMint(_funder, tempLastFundedTreeId);\n\n        return tempLastFundedTreeId;\n    }\n\n    /**\n     * @dev mint an already planted tree with id to funder\n     * @param _treeId tree id to mint\n     * @param _funder address of funder\n     */\n    function mintTreeById(uint256 _treeId, address _funder)\n        external\n        onlyTreejerContract\n    {\n        TreeData storage treeData = trees[_treeId];\n\n        require(\n            treeData.treeStatus == 4 && treeData.saleType == 4,\n            \"tree must be planted\"\n        );\n\n        treeData.saleType = 0;\n\n        treeToken.safeMint(_funder, _treeId);\n    }\n\n    /**\n     * @dev script role update treeSpecs\n     * @param _treeId id of tree to update treeSpecs\n     * @param _treeSpecs new tree specs\n     */\n    function updateTreeSpecs(uint64 _treeId, string calldata _treeSpecs)\n        external\n        onlyScript\n        notHavePendingUpdate(_treeId)\n    {\n        trees[_treeId].treeSpecs = _treeSpecs;\n\n        emit TreeSpecsUpdated(_treeId, _treeSpecs);\n    }\n}\n",
  "sourcePath": "/media/ali/New Volume/treejer/contract/contracts/tree/TreeFactory.sol",
  "compiler": {
    "name": "solc",
    "version": "0.8.6+commit.11564f7e.Emscripten.clang"
  },
  "schemaVersion": "3.4.3",
  "updatedAt": "2021-10-25T21:14:14.646Z",
  "networkType": "ethereum",
  "devdoc": {
    "kind": "dev",
    "methods": {
      "assignTree(uint256,address)": {
        "details": "admin assign an existing tree to planter NOTE tree must be not planted",
        "params": {
          "_planter": "assignee planter",
          "_treeId": "id of tree to assign"
        }
      },
      "initialize(address)": {
        "details": "initialize AccessRestriction contract and set true for isTreeFactory",
        "params": {
          "_accessRestrictionAddress": "set to the address of AccessRestriction contract NOTE set lastRegualarTreeId to 10000"
        }
      },
      "listTree(uint256,string)": {
        "details": "admin list tree",
        "params": {
          "_treeId": "id of tree to list",
          "_treeSpecs": "tree specs"
        }
      },
      "manageSaleType(uint256,uint32)": {
        "details": "check if a tree is free to take part in sale and set {_saleType} to saleType of tree when tree is not in use",
        "params": {
          "_saleType": "saleType for tree",
          "_treeId": "id of tree to check"
        },
        "returns": {
          "_0": "0 if a tree ready for a sale and 1 if a tree is in use or minted before"
        }
      },
      "manageSaleTypeBatch(uint256,uint256,uint32)": {
        "details": "set {_saleType} to saleType of trees in range {_startTreeId} and {_endTreeId}",
        "params": {
          "_endTreeId": "_ending tree id to set saleType value",
          "_saleType": "saleType value",
          "_startTreeId": "starting tree id to set saleType value"
        },
        "returns": {
          "_0": "true if all trees saleType value successfully set and false otherwise"
        }
      },
      "mintAssignedTree(uint256,address)": {
        "details": "mint a tree to funder and set saleType to 0",
        "params": {
          "_funder": "address of funder to mint tree for",
          "_treeId": "id of tree to mint"
        }
      },
      "mintTree(uint256,address)": {
        "details": "mint a tree to funder of tree",
        "params": {
          "_funder": "funder of a new tree sold in Regular",
          "_lastFundedTreeId": "The last tree funded in the regular sale"
        },
        "returns": {
          "_0": "the last tree funded after update"
        }
      },
      "mintTreeById(uint256,address)": {
        "details": "mint an already planted tree with id to funder",
        "params": {
          "_funder": "address of funder",
          "_treeId": "tree id to mint"
        }
      },
      "plantAssignedTree(uint256,string,uint64,uint16)": {
        "details": "planter with permission to plant, can plant its assigned tree",
        "params": {
          "_birthDate": "birth date of tree",
          "_countryCode": "country code of tree",
          "_treeId": "id of tree to plant",
          "_treeSpecs": "tree specs"
        }
      },
      "plantTree(string,uint64,uint16)": {
        "details": "planter plant a tree",
        "params": {
          "_birthDate": "birthDate of the tree",
          "_countryCode": "country code of tree",
          "_treeSpecs": "tree specs"
        }
      },
      "resetSaleType(uint256)": {
        "details": "reset saleType value of tree",
        "params": {
          "_treeId": "id of tree to reset saleType value"
        }
      },
      "resetSaleTypeBatch(uint256,uint256,uint256)": {
        "details": "reset saleType of trees in range of {_startTreeId} and {_endTreeId} with saleType value of {_saleType}",
        "params": {
          "_endTreeId": "ending tree id to reset saleType",
          "_saleType": "saleType value of trees",
          "_startTreeId": "starting tree id to reset saleType"
        }
      },
      "setPlanterContractAddress(address)": {
        "details": "admin set Planter contract address",
        "params": {
          "_address": "set to the address of Planter contract"
        }
      },
      "setPlanterFundAddress(address)": {
        "details": "admin set PlanterFund contract address",
        "params": {
          "_address": "set to the address of PlanterFund contract"
        }
      },
      "setTreeTokenAddress(address)": {
        "details": "admin set TreeToken contract address",
        "params": {
          "_address": "set to the address of TreeToken contract"
        }
      },
      "setTrustedForwarder(address)": {
        "details": "set trusted forwarder address",
        "params": {
          "_address": "set to {trustedForwarder}"
        }
      },
      "setUpdateInterval(uint256)": {
        "details": "admin set the minimum time to send next update request",
        "params": {
          "_seconds": "time to next update request"
        }
      },
      "updateTree(uint256,string)": {
        "details": "planter of tree send update request for tree",
        "params": {
          "_treeId": "id of tree to update",
          "_treeSpecs": "tree specs"
        }
      },
      "updateTreeSpecs(uint64,string)": {
        "details": "script role update treeSpecs",
        "params": {
          "_treeId": "id of tree to update treeSpecs",
          "_treeSpecs": "new tree specs"
        }
      },
      "verifyAssignedTree(uint256,bool)": {
        "details": "admin or allowed verifier can verify or reject plant for assigned tree.",
        "params": {
          "_isVerified": "true for verify and false for reject",
          "_treeId": "id of tree to verifiy"
        }
      },
      "verifyTree(uint256,bool)": {
        "details": "admin or allowed verifier can verify or rejects the pending trees",
        "params": {
          "_isVerified": "true for verify and false for reject",
          "_tempTreeId": "tempTreeId to verify"
        }
      },
      "verifyUpdate(uint256,bool)": {
        "details": "admin or allowed verifier can verifiy or reject update request for tree. NOTE based on the current time of verifing and plant date, age of tree calculated and set as the treeStatus NOTE if a token exist for that tree (minted before) planter of tree funded based on calculated tree status",
        "params": {
          "_isVerified": "true for verify and false for reject",
          "_treeId": "id of tree to verify update request"
        }
      },
      "versionRecipient()": {
        "details": "return version recipient "
      }
    },
    "title": "TreeFactory Contract ",
    "version": 1
  },
  "userdoc": {
    "kind": "user",
    "methods": {
      "isTreeFactory()": {
        "notice": "NOTE {isTreeFactory} set inside the initialize to {true} "
      },
      "isTrustedForwarder(address)": {
        "notice": "return if the forwarder is trusted to forward relayed transactions to us. the forwarder is required to verify the sender's signature, and verify the call is not a replay."
      },
      "tempTrees(uint256)": {
        "notice": "NOTE mapping of treeId to TempTree struct "
      },
      "treeUpdates(uint256)": {
        "notice": "NOTE mapping of treeId to TreeUpdate struct "
      },
      "trees(uint256)": {
        "notice": "NOTE mapping of treeId to TreeData Struct "
      }
    },
    "version": 1
  }
}