{
  "contractName": "TreeAuction",
  "abi": [
    {
      "anonymous": false,
      "inputs": [
        {
          "indexed": false,
          "internalType": "uint256",
          "name": "auctionId",
          "type": "uint256"
        },
        {
          "indexed": false,
          "internalType": "uint256",
          "name": "newAuctionEndTime",
          "type": "uint256"
        }
      ],
      "name": "AuctionEndTimeIncreased",
      "type": "event"
    },
    {
      "anonymous": false,
      "inputs": [
        {
          "indexed": false,
          "internalType": "uint256",
          "name": "auctionId",
          "type": "uint256"
        },
        {
          "indexed": false,
          "internalType": "uint256",
          "name": "treeId",
          "type": "uint256"
        }
      ],
      "name": "AuctionEnded",
      "type": "event"
    },
    {
      "anonymous": false,
      "inputs": [
        {
          "indexed": false,
          "internalType": "uint256",
          "name": "auctionId",
          "type": "uint256"
        },
        {
          "indexed": false,
          "internalType": "uint256",
          "name": "treeId",
          "type": "uint256"
        },
        {
          "indexed": false,
          "internalType": "address",
          "name": "winner",
          "type": "address"
        },
        {
          "indexed": false,
          "internalType": "uint256",
          "name": "amount",
          "type": "uint256"
        }
      ],
      "name": "AuctionSettled",
      "type": "event"
    },
    {
      "anonymous": false,
      "inputs": [
        {
          "indexed": false,
          "internalType": "uint256",
          "name": "auctionId",
          "type": "uint256"
        },
        {
          "indexed": false,
          "internalType": "address",
          "name": "bidder",
          "type": "address"
        },
        {
          "indexed": false,
          "internalType": "uint256",
          "name": "amount",
          "type": "uint256"
        }
      ],
      "name": "AuctionWithdrawFaild",
      "type": "event"
    },
    {
      "anonymous": false,
      "inputs": [
        {
          "indexed": false,
          "internalType": "uint256",
          "name": "auctionId",
          "type": "uint256"
        },
        {
          "indexed": false,
          "internalType": "uint256",
          "name": "treeId",
          "type": "uint256"
        },
        {
          "indexed": false,
          "internalType": "address",
          "name": "bidder",
          "type": "address"
        },
        {
          "indexed": false,
          "internalType": "uint256",
          "name": "amount",
          "type": "uint256"
        }
      ],
      "name": "HighestBidIncreased",
      "type": "event"
    },
    {
      "inputs": [],
      "name": "accessRestriction",
      "outputs": [
        {
          "internalType": "contract IAccessRestriction",
          "name": "",
          "type": "address"
        }
      ],
      "stateMutability": "view",
      "type": "function",
      "constant": true
    },
    {
      "inputs": [
        {
          "internalType": "uint256",
          "name": "",
          "type": "uint256"
        }
      ],
      "name": "auctions",
      "outputs": [
        {
          "internalType": "uint256",
          "name": "treeId",
          "type": "uint256"
        },
        {
          "internalType": "address",
          "name": "bidder",
          "type": "address"
        },
        {
          "internalType": "uint64",
          "name": "startDate",
          "type": "uint64"
        },
        {
          "internalType": "uint64",
          "name": "endDate",
          "type": "uint64"
        },
        {
          "internalType": "uint256",
          "name": "highestBid",
          "type": "uint256"
        },
        {
          "internalType": "uint256",
          "name": "bidInterval",
          "type": "uint256"
        }
      ],
      "stateMutability": "view",
      "type": "function",
      "constant": true
    },
    {
      "inputs": [],
      "name": "isTreeAuction",
      "outputs": [
        {
          "internalType": "bool",
          "name": "",
          "type": "bool"
        }
      ],
      "stateMutability": "view",
      "type": "function",
      "constant": true
    },
    {
      "inputs": [
        {
          "internalType": "address",
          "name": "",
          "type": "address"
        }
      ],
      "name": "pendingWithdraw",
      "outputs": [
        {
          "internalType": "uint256",
          "name": "",
          "type": "uint256"
        }
      ],
      "stateMutability": "view",
      "type": "function",
      "constant": true
    },
    {
      "inputs": [],
      "name": "treasury",
      "outputs": [
        {
          "internalType": "contract ITreasury",
          "name": "",
          "type": "address"
        }
      ],
      "stateMutability": "view",
      "type": "function",
      "constant": true
    },
    {
      "inputs": [],
      "name": "treeFactory",
      "outputs": [
        {
          "internalType": "contract ITreeFactory",
          "name": "",
          "type": "address"
        }
      ],
      "stateMutability": "view",
      "type": "function",
      "constant": true
    },
    {
      "inputs": [
        {
          "internalType": "address",
          "name": "_accessRestrictionAddress",
          "type": "address"
        }
      ],
      "name": "initialize",
      "outputs": [],
      "stateMutability": "nonpayable",
      "type": "function"
    },
    {
      "inputs": [
        {
          "internalType": "address",
          "name": "_address",
          "type": "address"
        }
      ],
      "name": "setTreeFactoryAddress",
      "outputs": [],
      "stateMutability": "nonpayable",
      "type": "function"
    },
    {
      "inputs": [
        {
          "internalType": "address",
          "name": "_address",
          "type": "address"
        }
      ],
      "name": "setTreasuryAddress",
      "outputs": [],
      "stateMutability": "nonpayable",
      "type": "function"
    },
    {
      "inputs": [
        {
          "internalType": "uint256",
          "name": "_treeId",
          "type": "uint256"
        },
        {
          "internalType": "uint64",
          "name": "_startDate",
          "type": "uint64"
        },
        {
          "internalType": "uint64",
          "name": "_endDate",
          "type": "uint64"
        },
        {
          "internalType": "uint256",
          "name": "_intialPrice",
          "type": "uint256"
        },
        {
          "internalType": "uint256",
          "name": "_bidInterval",
          "type": "uint256"
        }
      ],
      "name": "createAuction",
      "outputs": [],
      "stateMutability": "nonpayable",
      "type": "function"
    },
    {
      "inputs": [
        {
          "internalType": "uint256",
          "name": "_auctionId",
          "type": "uint256"
        }
      ],
      "name": "bid",
      "outputs": [],
      "stateMutability": "payable",
      "type": "function",
      "payable": true
    },
    {
      "inputs": [],
      "name": "manualWithdraw",
      "outputs": [
        {
          "internalType": "bool",
          "name": "",
          "type": "bool"
        }
      ],
      "stateMutability": "nonpayable",
      "type": "function"
    },
    {
      "inputs": [
        {
          "internalType": "uint256",
          "name": "_auctionId",
          "type": "uint256"
        }
      ],
      "name": "endAuction",
      "outputs": [],
      "stateMutability": "nonpayable",
      "type": "function"
    }
  ],
  "bytecode": "0x608060405234801561001057600080fd5b5061134c806100206000396000f3fe6080604052600436106100c25760003560e01c806362e546f91161007f578063c4d66de811610059578063c4d66de814610289578063c56c3674146102a9578063d6762c4a146102c3578063f308cfca146102e857600080fd5b806362e546f9146102245780636605bfda14610249578063b9a2de3a1461026957600080fd5b806309172ea6146100c75780630bf351f8146100e9578063421ef6d414610109578063454a2ab314610146578063571a26a01461015957806361d027b314610204575b600080fd5b3480156100d357600080fd5b506100e76100e2366004611231565b610323565b005b3480156100f557600080fd5b506100e76101043660046111c6565b61060c565b34801561011557600080fd5b50600354610129906001600160a01b031681565b6040516001600160a01b0390911681526020015b60405180910390f35b6100e7610154366004611218565b61070d565b34801561016557600080fd5b506101c1610174366004611218565b6005602052600090815260409020805460018201546002830154600384015460049094015492936001600160a01b03831693600160a01b90930467ffffffffffffffff9081169392169186565b604080519687526001600160a01b03909516602087015267ffffffffffffffff9384169486019490945291166060840152608083015260a082015260c00161013d565b34801561021057600080fd5b50600454610129906001600160a01b031681565b34801561023057600080fd5b5061023961091c565b604051901515815260200161013d565b34801561025557600080fd5b506100e76102643660046111c6565b610a30565b34801561027557600080fd5b506100e7610284366004611218565b610b31565b34801561029557600080fd5b506100e76102a43660046111c6565b610e89565b3480156102b557600080fd5b506002546102399060ff1681565b3480156102cf57600080fd5b506002546101299061010090046001600160a01b031681565b3480156102f457600080fd5b506103156103033660046111c6565b60066020526000908152604090205481565b60405190815260200161013d565b600260019054906101000a90046001600160a01b03166001600160a01b0316634d868f986040518163ffffffff1660e01b815260040160006040518083038186803b15801561037157600080fd5b505afa158015610385573d6000803e3d6000fd5b5050600254604051632104fb0560e21b81523360048201526101009091046001600160a01b03169250638413ec14915060240160006040518083038186803b1580156103d057600080fd5b505afa1580156103e4573d6000803e3d6000fd5b50506004805460405163cb8b5da360e01b81529182018990526001600160a01b0316925063cb8b5da3915060240160206040518083038186803b15801561042a57600080fd5b505afa15801561043e573d6000803e3d6000fd5b505050506040513d601f19601f8201168201806040525081019061046291906111f6565b6104b35760405162461bcd60e51b815260206004820181905260248201527f6571756976616c616e742066756e64204d6f64656c206e6f742065786973747360448201526064015b60405180910390fd5b6003546040516337ff0f1760e21b815260048101879052600160248201526000916001600160a01b03169063dffc3c5c90604401602060405180830381600087803b15801561050157600080fd5b505af1158015610515573d6000803e3d6000fd5b505050506040513d601f19601f82011682018060405250810190610539919061127f565b905063ffffffff81161561058f5760405162461bcd60e51b815260206004820152601960248201527f6e6f7420617661696c61626c6520666f722061756374696f6e0000000000000060448201526064016104aa565b60006005600061059e60015490565b8152602081019190915260400160002096875550506001808601805467ffffffffffffffff60a01b1916600160a01b67ffffffffffffffff9788160217905560028601805467ffffffffffffffff191694909516939093179093556003840155600490920155805481019055565b600254604051632104fb0560e21b81523360048201526101009091046001600160a01b031690638413ec149060240160006040518083038186803b15801561065357600080fd5b505afa158015610667573d6000803e3d6000fd5b505050506000819050806001600160a01b031663e0eb4eb96040518163ffffffff1660e01b815260040160206040518083038186803b1580156106a957600080fd5b505afa1580156106bd573d6000803e3d6000fd5b505050506040513d601f19601f820116820180604052508101906106e191906111f6565b6106ea57600080fd5b600380546001600160a01b0319166001600160a01b039290921691909117905550565b600260019054906101000a90046001600160a01b03166001600160a01b0316634d868f986040518163ffffffff1660e01b815260040160006040518083038186803b15801561075b57600080fd5b505afa15801561076f573d6000803e3d6000fd5b5050506000828152600560205260409020600281015490915067ffffffffffffffff164211156107d95760405162461bcd60e51b8152602060048201526015602482015274185d58dd1a5bdb88185b1c9958591e48195b991959605a1b60448201526064016104aa565b6001810154600160a01b900467ffffffffffffffff164210156108345760405162461bcd60e51b8152602060048201526013602482015272185d58dd1a5bdb881b9bdd081cdd185c9d1959606a1b60448201526064016104aa565b8060040154816003015461084891906112a5565b3410156108885760405162461bcd60e51b815260206004820152600e60248201526d1a5b9d985b1a5908185b5bdd5b9d60921b60448201526064016104aa565b6001810180546003830180543491829055336001600160a01b031984168117909455845460408051888152602081019290925281019490945260608401919091526001600160a01b03909116917f8e3b623fbb9b68a4ccf874370563de26312e47135a381cd16ea33becbbfa04b99060800160405180910390a161090b84610fe4565b6109168183866110b3565b50505050565b6000600260019054906101000a90046001600160a01b03166001600160a01b0316634d868f986040518163ffffffff1660e01b815260040160006040518083038186803b15801561096c57600080fd5b505afa158015610980573d6000803e3d6000fd5b505033600090815260066020526040902054915050806109e25760405162461bcd60e51b815260206004820152601a60248201527f557365722062616c616e6365206973206e6f7420656e6f75676800000000000060448201526064016104aa565b336000818152600660205260408082208290555183156108fc0291849190818181858888f19350505050610a285733600090815260066020526040812091909155905090565b600191505090565b600254604051632104fb0560e21b81523360048201526101009091046001600160a01b031690638413ec149060240160006040518083038186803b158015610a7757600080fd5b505afa158015610a8b573d6000803e3d6000fd5b505050506000819050806001600160a01b031663842a3bdd6040518163ffffffff1660e01b815260040160206040518083038186803b158015610acd57600080fd5b505afa158015610ae1573d6000803e3d6000fd5b505050506040513d601f19601f82011682018060405250810190610b0591906111f6565b610b0e57600080fd5b600480546001600160a01b0319166001600160a01b039290921691909117905550565b600260019054906101000a90046001600160a01b03166001600160a01b0316634d868f986040518163ffffffff1660e01b815260040160006040518083038186803b158015610b7f57600080fd5b505afa158015610b93573d6000803e3d6000fd5b5050506000828152600560205260409020600281015490915067ffffffffffffffff16610bfb5760405162461bcd60e51b815260206004820152601660248201527541756374696f6e20697320756e617661696c61626c6560501b60448201526064016104aa565b600281015467ffffffffffffffff16421015610c515760405162461bcd60e51b8152602060048201526015602482015274105d58dd1a5bdb881b9bdd081e595d08195b991959605a1b60448201526064016104aa565b60018101546001600160a01b031615610da15760035481546001830154604051637192711f60e01b815260048101929092526001600160a01b03908116602483015290911690637192711f90604401600060405180830381600087803b158015610cba57600080fd5b505af1158015610cce573d6000803e3d6000fd5b50506004805460038501548554604051639faa98bf60e01b8152938401526001600160a01b039091169350639faa98bf9250906024016000604051808303818588803b158015610d1d57600080fd5b505af1158015610d31573d6000803e3d6000fd5b50508354600185015460038601546040805189815260208101949094526001600160a01b039092169183019190915260608201527fa3f81c0e157dc1e05cb31e254314bbde8e3878d9ff78b10ef6abfe316492bfbe93506080019150610d949050565b60405180910390a1610e45565b6003548154604051632419867b60e11b81526001600160a01b03909216916348330cf691610dd59160040190815260200190565b600060405180830381600087803b158015610def57600080fd5b505af1158015610e03573d6000803e3d6000fd5b505082546040805186815260208101929092527fe536ac546f86787f3ea4069f79235c6b5a681e87d051300a3ed19a6ebb0db71c935001905060405180910390a15b5060009081526005602052604081208181556001810180546001600160e01b031916905560028101805467ffffffffffffffff191690556003810182905560040155565b600054610100900460ff1680610ea2575060005460ff16155b610f055760405162461bcd60e51b815260206004820152602e60248201527f496e697469616c697a61626c653a20636f6e747261637420697320616c72656160448201526d191e481a5b9a5d1a585b1a5e995960921b60648201526084016104aa565b600054610100900460ff16158015610f27576000805461ffff19166101011790555b6000829050806001600160a01b031663ba84fd696040518163ffffffff1660e01b815260040160206040518083038186803b158015610f6557600080fd5b505afa158015610f79573d6000803e3d6000fd5b505050506040513d601f19601f82011682018060405250810190610f9d91906111f6565b610fa657600080fd5b600280546001600160a01b03909216610100026001600160a81b03199092169190911760011790558015610fe0576000805461ff00191690555b5050565b6000818152600560205260409020600201546102589061100f90429067ffffffffffffffff166112e9565b116110b05760008181526005602052604081206002018054610258929061104190849067ffffffffffffffff166112bd565b82546101009290920a67ffffffffffffffff8181021990931691831602179091556000838152600560209081526040918290206002015482518681529316908301527f9c9cc6f8fa269c17bd097ed592ca8e0d3b4451b4c7bdbee9b802563aec9cd7b492500160405180910390a15b50565b6001600160a01b038216156111a457813b63ffffffff811615611103576001600160a01b038316600090815260066020526040812080548692906110f89084906112a5565b909155506109169050565b6040516001600160a01b0384169085156108fc029086906000818181858888f19350505050610916576001600160a01b038316600090815260066020526040812080548692906111549084906112a5565b9091555050604080518381526001600160a01b03851660208201529081018590527f6c59c3db511d2e4113297c0a59c458e76726f9f3e5a0f87082d4f44df8a0ad5f9060600160405180910390a1505b505050565b803567ffffffffffffffff811681146111c157600080fd5b919050565b6000602082840312156111d857600080fd5b81356001600160a01b03811681146111ef57600080fd5b9392505050565b60006020828403121561120857600080fd5b815180151581146111ef57600080fd5b60006020828403121561122a57600080fd5b5035919050565b600080600080600060a0868803121561124957600080fd5b85359450611259602087016111a9565b9350611267604087016111a9565b94979396509394606081013594506080013592915050565b60006020828403121561129157600080fd5b815163ffffffff811681146111ef57600080fd5b600082198211156112b8576112b8611300565b500190565b600067ffffffffffffffff8083168185168083038211156112e0576112e0611300565b01949350505050565b6000828210156112fb576112fb611300565b500390565b634e487b7160e01b600052601160045260246000fdfea264697066735822122013f51506d63581825974f377f1d1c75bcba4f816f771b155e385055be787713764736f6c63430008060033",
  "immutableReferences": {},
  "source": "// // SPDX-License-Identifier: MIT\n\npragma solidity ^0.8.6;\n\nimport \"@openzeppelin/contracts-upgradeable/proxy/utils/Initializable.sol\";\nimport \"@openzeppelin/contracts-upgradeable/utils/CountersUpgradeable.sol\";\nimport \"../access/IAccessRestriction.sol\";\nimport \"../tree/ITreeFactory.sol\";\nimport \"../treasury/ITreasury.sol\";\n\n/** @title Tree Auction */\n\ncontract TreeAuction is Initializable {\n    using CountersUpgradeable for CountersUpgradeable.Counter;\n\n    CountersUpgradeable.Counter private auctionId;\n\n    /** NOTE {isTreeAuction} set inside the initialize to {true} */\n\n    bool public isTreeAuction;\n\n    IAccessRestriction public accessRestriction;\n    ITreeFactory public treeFactory;\n    ITreasury public treasury;\n\n    struct Auction {\n        uint256 treeId;\n        address bidder;\n        uint64 startDate;\n        uint64 endDate;\n        uint256 highestBid;\n        uint256 bidInterval;\n    }\n\n    /** NOTE mapping of auctionId to Auction struct */\n    mapping(uint256 => Auction) public auctions;\n\n    /** NOTE mapping of address to amount */\n    mapping(address => uint256) public pendingWithdraw;\n\n    event HighestBidIncreased(\n        uint256 auctionId,\n        uint256 treeId,\n        address bidder,\n        uint256 amount\n    );\n    event AuctionSettled(\n        uint256 auctionId,\n        uint256 treeId,\n        address winner,\n        uint256 amount\n    );\n    event AuctionEnded(uint256 auctionId, uint256 treeId);\n    event AuctionEndTimeIncreased(uint256 auctionId, uint256 newAuctionEndTime);\n    event AuctionWithdrawFaild(\n        uint256 auctionId,\n        address bidder,\n        uint256 amount\n    );\n\n    modifier onlyAdmin() {\n        accessRestriction.ifAdmin(msg.sender);\n        _;\n    }\n\n    modifier ifNotPaused() {\n        accessRestriction.ifNotPaused();\n        _;\n    }\n\n    /**\n     * @dev initialize accessRestriction contract and set true for isTreeAuction\n     * @param _accessRestrictionAddress set to the address of accessRestriction contract\n     */\n    function initialize(address _accessRestrictionAddress) public initializer {\n        IAccessRestriction candidateContract = IAccessRestriction(\n            _accessRestrictionAddress\n        );\n        require(candidateContract.isAccessRestriction());\n        isTreeAuction = true;\n        accessRestriction = candidateContract;\n    }\n\n    /**\n     * @dev admin set TreeFactoryAddress\n     * @param _address set to the address of treeFactory\n     */\n\n    function setTreeFactoryAddress(address _address) external onlyAdmin {\n        ITreeFactory candidateContract = ITreeFactory(_address);\n        require(candidateContract.isTreeFactory());\n        treeFactory = candidateContract;\n    }\n\n    /**\n     * @dev admin set TreasuryAddress\n     * @param _address set to the address of treasury\n     */\n\n    function setTreasuryAddress(address _address) external onlyAdmin {\n        ITreasury candidateContract = ITreasury(_address);\n        require(candidateContract.isTreasury());\n        treasury = candidateContract;\n    }\n\n    /**\n     * @dev admin create auction to a tree with provideStatus of '0' and push that auction\n     * to {auctions[auctionId]} and increament auctionId by 1.\n     * NOTE its necessary that a fundDestributionModel has been assigned to {_treeId}\n     * @param _treeId treeId that auction create for\n     * @param _startDate strat time of auction\n     * @param _endDate end time of auction\n     * @param _intialPrice initial price of auction\n     * @param _bidInterval bid interval for auction . if it set to 10 for example and the last bid is 100.new bidder can bid for 110\n     */\n\n    function createAuction(\n        uint256 _treeId,\n        uint64 _startDate,\n        uint64 _endDate,\n        uint256 _intialPrice,\n        uint256 _bidInterval\n    ) external ifNotPaused onlyAdmin {\n        require(\n            treasury.distributionModelExistance(_treeId),\n            \"equivalant fund Model not exists\"\n        );\n\n        uint32 provideStatus = treeFactory.availability(_treeId, 1);\n\n        require(provideStatus == 0, \"not available for auction\");\n\n        Auction storage auction = auctions[auctionId.current()];\n\n        auction.treeId = _treeId;\n        auction.startDate = _startDate;\n        auction.endDate = _endDate;\n        auction.highestBid = _intialPrice;\n        auction.bidInterval = _bidInterval;\n\n        auctionId.increment();\n    }\n\n    /**\n     * @dev bid to {auctions[_auctionId]} by user in a time beetwen start time and end time\n     * its require to send at least {higestBid + bidInterval } value.\n     * @param _auctionId auctionId that user bid for it.\n     */\n\n    function bid(uint256 _auctionId) external payable ifNotPaused {\n        Auction storage _storageAuction = auctions[_auctionId];\n\n        require(\n            block.timestamp <= _storageAuction.endDate,\n            \"auction already ended\"\n        );\n        require(\n            block.timestamp >= _storageAuction.startDate,\n            \"auction not started\"\n        );\n        require(\n            msg.value >=\n                _storageAuction.highestBid + _storageAuction.bidInterval,\n            \"invalid amount\"\n        );\n\n        address oldBidder = _storageAuction.bidder;\n        uint256 oldBid = _storageAuction.highestBid;\n\n        _storageAuction.highestBid = msg.value;\n        _storageAuction.bidder = msg.sender;\n\n        emit HighestBidIncreased(\n            _auctionId,\n            _storageAuction.treeId,\n            msg.sender,\n            msg.value\n        );\n\n        _increaseAuctionEndTime(_auctionId);\n        _withdraw(oldBid, oldBidder, _auctionId);\n    }\n\n    /** @dev users can manually withdraw if its balance is more than 0.\n     * @return true in case of successfull withdraw and false otherwise.\n     */\n\n    function manualWithdraw() external ifNotPaused returns (bool) {\n        uint256 amount = pendingWithdraw[msg.sender];\n\n        require(amount > 0, \"User balance is not enough\");\n\n        pendingWithdraw[msg.sender] = 0;\n\n        if (!payable(msg.sender).send(amount)) {\n            pendingWithdraw[msg.sender] = amount;\n            return false;\n        }\n\n        return true;\n    }\n\n    /** @dev everyone can call this method  including the winner of auction after\n     * auction end time and if auction have bidder transfer owner of tree to bidder and fund tree.\n     * @param _auctionId id of auction that want to finish.\n     */\n    function endAuction(uint256 _auctionId) external ifNotPaused {\n        Auction storage auction = auctions[_auctionId];\n\n        require(auction.endDate > 0, \"Auction is unavailable\");\n\n        require(block.timestamp >= auction.endDate, \"Auction not yet ended\");\n\n        if (auction.bidder != address(0)) {\n            treeFactory.updateOwner(auction.treeId, auction.bidder);\n\n            treasury.fundTree{value: auction.highestBid}(auction.treeId);\n\n            emit AuctionSettled(\n                _auctionId,\n                auction.treeId,\n                auction.bidder,\n                auction.highestBid\n            );\n        } else {\n            treeFactory.updateAvailability(auction.treeId);\n            emit AuctionEnded(_auctionId, auction.treeId);\n        }\n\n        delete auctions[_auctionId];\n    }\n\n    /** @dev if latest bid is less than 10 minutes to the end of auctionEndTime:\n     * we will increase auctionEndTime 600 seconds\n     * @param _auctionId id of auction that increase end time of it.\n     */\n    function _increaseAuctionEndTime(uint256 _auctionId) private {\n        if (auctions[_auctionId].endDate - block.timestamp <= 600) {\n            auctions[_auctionId].endDate += 600;\n            emit AuctionEndTimeIncreased(\n                _auctionId,\n                auctions[_auctionId].endDate\n            );\n        }\n    }\n\n    /** @dev when new bid take apart we charge the previous bidder as\n     * much as paid before using this function\n     */\n\n    function _withdraw(\n        uint256 _oldBid,\n        address _oldBidder,\n        uint256 _auctionId\n    ) private {\n        if (_oldBidder != address(0)) {\n            uint32 size;\n\n            assembly {\n                size := extcodesize(_oldBidder)\n            }\n\n            if (size > 0) {\n                pendingWithdraw[_oldBidder] += _oldBid;\n            } else if (!payable(_oldBidder).send(_oldBid)) {\n                pendingWithdraw[_oldBidder] += _oldBid;\n                emit AuctionWithdrawFaild(_auctionId, _oldBidder, _oldBid);\n            }\n        }\n    }\n}\n",
  "sourcePath": "/home/amir/Projects/treejer/contract-latest/contracts/auction/TreeAuction.sol",
  "compiler": {
    "name": "solc",
    "version": "0.8.6+commit.11564f7e.Emscripten.clang"
  },
  "schemaVersion": "3.4.1",
  "updatedAt": "2021-07-27T23:41:05.282Z",
  "networkType": "ethereum",
  "devdoc": {
    "kind": "dev",
    "methods": {
      "bid(uint256)": {
        "details": "bid to {auctions[_auctionId]} by user in a time beetwen start time and end time its require to send at least {higestBid + bidInterval } value.",
        "params": {
          "_auctionId": "auctionId that user bid for it."
        }
      },
      "createAuction(uint256,uint64,uint64,uint256,uint256)": {
        "details": "admin create auction to a tree with provideStatus of '0' and push that auction to {auctions[auctionId]} and increament auctionId by 1. NOTE its necessary that a fundDestributionModel has been assigned to {_treeId}",
        "params": {
          "_bidInterval": "bid interval for auction . if it set to 10 for example and the last bid is 100.new bidder can bid for 110",
          "_endDate": "end time of auction",
          "_intialPrice": "initial price of auction",
          "_startDate": "strat time of auction",
          "_treeId": "treeId that auction create for"
        }
      },
      "endAuction(uint256)": {
        "details": "everyone can call this method  including the winner of auction after auction end time and if auction have bidder transfer owner of tree to bidder and fund tree.",
        "params": {
          "_auctionId": "id of auction that want to finish."
        }
      },
      "initialize(address)": {
        "details": "initialize accessRestriction contract and set true for isTreeAuction",
        "params": {
          "_accessRestrictionAddress": "set to the address of accessRestriction contract"
        }
      },
      "manualWithdraw()": {
        "details": "users can manually withdraw if its balance is more than 0.",
        "returns": {
          "_0": "true in case of successfull withdraw and false otherwise."
        }
      },
      "setTreasuryAddress(address)": {
        "details": "admin set TreasuryAddress",
        "params": {
          "_address": "set to the address of treasury"
        }
      },
      "setTreeFactoryAddress(address)": {
        "details": "admin set TreeFactoryAddress",
        "params": {
          "_address": "set to the address of treeFactory"
        }
      }
    },
    "title": "Tree Auction ",
    "version": 1
  },
  "userdoc": {
    "kind": "user",
    "methods": {
      "auctions(uint256)": {
        "notice": "NOTE mapping of auctionId to Auction struct "
      },
      "isTreeAuction()": {
        "notice": "NOTE {isTreeAuction} set inside the initialize to {true} "
      },
      "pendingWithdraw(address)": {
        "notice": "NOTE mapping of address to amount "
      }
    },
    "version": 1
  }
}