{
  "contractName": "Tree",
  "abi": [
    {
      "anonymous": false,
      "inputs": [
        {
          "indexed": true,
          "internalType": "address",
          "name": "owner",
          "type": "address"
        },
        {
          "indexed": true,
          "internalType": "address",
          "name": "approved",
          "type": "address"
        },
        {
          "indexed": true,
          "internalType": "uint256",
          "name": "tokenId",
          "type": "uint256"
        }
      ],
      "name": "Approval",
      "type": "event"
    },
    {
      "anonymous": false,
      "inputs": [
        {
          "indexed": true,
          "internalType": "address",
          "name": "owner",
          "type": "address"
        },
        {
          "indexed": true,
          "internalType": "address",
          "name": "operator",
          "type": "address"
        },
        {
          "indexed": false,
          "internalType": "bool",
          "name": "approved",
          "type": "bool"
        }
      ],
      "name": "ApprovalForAll",
      "type": "event"
    },
    {
      "anonymous": false,
      "inputs": [
        {
          "indexed": true,
          "internalType": "address",
          "name": "from",
          "type": "address"
        },
        {
          "indexed": true,
          "internalType": "address",
          "name": "to",
          "type": "address"
        },
        {
          "indexed": true,
          "internalType": "uint256",
          "name": "tokenId",
          "type": "uint256"
        }
      ],
      "name": "Transfer",
      "type": "event"
    },
    {
      "inputs": [],
      "name": "accessRestriction",
      "outputs": [
        {
          "internalType": "contract IAccessRestriction",
          "name": "",
          "type": "address"
        }
      ],
      "stateMutability": "view",
      "type": "function",
      "constant": true
    },
    {
      "inputs": [
        {
          "internalType": "address",
          "name": "to",
          "type": "address"
        },
        {
          "internalType": "uint256",
          "name": "tokenId",
          "type": "uint256"
        }
      ],
      "name": "approve",
      "outputs": [],
      "stateMutability": "nonpayable",
      "type": "function"
    },
    {
      "inputs": [
        {
          "internalType": "uint256",
          "name": "",
          "type": "uint256"
        }
      ],
      "name": "attributes",
      "outputs": [
        {
          "internalType": "uint8",
          "name": "attribute1",
          "type": "uint8"
        },
        {
          "internalType": "uint8",
          "name": "attribute2",
          "type": "uint8"
        },
        {
          "internalType": "uint8",
          "name": "attribute3",
          "type": "uint8"
        },
        {
          "internalType": "uint8",
          "name": "attribute4",
          "type": "uint8"
        },
        {
          "internalType": "uint8",
          "name": "attribute5",
          "type": "uint8"
        },
        {
          "internalType": "uint8",
          "name": "attribute6",
          "type": "uint8"
        },
        {
          "internalType": "uint8",
          "name": "attribute7",
          "type": "uint8"
        },
        {
          "internalType": "uint8",
          "name": "attribute8",
          "type": "uint8"
        },
        {
          "internalType": "uint8",
          "name": "generationType",
          "type": "uint8"
        }
      ],
      "stateMutability": "view",
      "type": "function",
      "constant": true
    },
    {
      "inputs": [
        {
          "internalType": "address",
          "name": "owner",
          "type": "address"
        }
      ],
      "name": "balanceOf",
      "outputs": [
        {
          "internalType": "uint256",
          "name": "",
          "type": "uint256"
        }
      ],
      "stateMutability": "view",
      "type": "function",
      "constant": true
    },
    {
      "inputs": [
        {
          "internalType": "uint256",
          "name": "tokenId",
          "type": "uint256"
        }
      ],
      "name": "getApproved",
      "outputs": [
        {
          "internalType": "address",
          "name": "",
          "type": "address"
        }
      ],
      "stateMutability": "view",
      "type": "function",
      "constant": true
    },
    {
      "inputs": [
        {
          "internalType": "address",
          "name": "owner",
          "type": "address"
        },
        {
          "internalType": "address",
          "name": "operator",
          "type": "address"
        }
      ],
      "name": "isApprovedForAll",
      "outputs": [
        {
          "internalType": "bool",
          "name": "",
          "type": "bool"
        }
      ],
      "stateMutability": "view",
      "type": "function",
      "constant": true
    },
    {
      "inputs": [],
      "name": "isTree",
      "outputs": [
        {
          "internalType": "bool",
          "name": "",
          "type": "bool"
        }
      ],
      "stateMutability": "view",
      "type": "function",
      "constant": true
    },
    {
      "inputs": [],
      "name": "name",
      "outputs": [
        {
          "internalType": "string",
          "name": "",
          "type": "string"
        }
      ],
      "stateMutability": "view",
      "type": "function",
      "constant": true
    },
    {
      "inputs": [
        {
          "internalType": "uint256",
          "name": "tokenId",
          "type": "uint256"
        }
      ],
      "name": "ownerOf",
      "outputs": [
        {
          "internalType": "address",
          "name": "",
          "type": "address"
        }
      ],
      "stateMutability": "view",
      "type": "function",
      "constant": true
    },
    {
      "inputs": [
        {
          "internalType": "address",
          "name": "from",
          "type": "address"
        },
        {
          "internalType": "address",
          "name": "to",
          "type": "address"
        },
        {
          "internalType": "uint256",
          "name": "tokenId",
          "type": "uint256"
        }
      ],
      "name": "safeTransferFrom",
      "outputs": [],
      "stateMutability": "nonpayable",
      "type": "function"
    },
    {
      "inputs": [
        {
          "internalType": "address",
          "name": "from",
          "type": "address"
        },
        {
          "internalType": "address",
          "name": "to",
          "type": "address"
        },
        {
          "internalType": "uint256",
          "name": "tokenId",
          "type": "uint256"
        },
        {
          "internalType": "bytes",
          "name": "_data",
          "type": "bytes"
        }
      ],
      "name": "safeTransferFrom",
      "outputs": [],
      "stateMutability": "nonpayable",
      "type": "function"
    },
    {
      "inputs": [
        {
          "internalType": "address",
          "name": "operator",
          "type": "address"
        },
        {
          "internalType": "bool",
          "name": "approved",
          "type": "bool"
        }
      ],
      "name": "setApprovalForAll",
      "outputs": [],
      "stateMutability": "nonpayable",
      "type": "function"
    },
    {
      "inputs": [
        {
          "internalType": "bytes4",
          "name": "interfaceId",
          "type": "bytes4"
        }
      ],
      "name": "supportsInterface",
      "outputs": [
        {
          "internalType": "bool",
          "name": "",
          "type": "bool"
        }
      ],
      "stateMutability": "view",
      "type": "function",
      "constant": true
    },
    {
      "inputs": [],
      "name": "symbol",
      "outputs": [
        {
          "internalType": "string",
          "name": "",
          "type": "string"
        }
      ],
      "stateMutability": "view",
      "type": "function",
      "constant": true
    },
    {
      "inputs": [
        {
          "internalType": "uint256",
          "name": "",
          "type": "uint256"
        }
      ],
      "name": "symbols",
      "outputs": [
        {
          "internalType": "uint8",
          "name": "shape",
          "type": "uint8"
        },
        {
          "internalType": "uint8",
          "name": "trunkColor",
          "type": "uint8"
        },
        {
          "internalType": "uint8",
          "name": "crownColor",
          "type": "uint8"
        },
        {
          "internalType": "uint8",
          "name": "effect",
          "type": "uint8"
        },
        {
          "internalType": "uint8",
          "name": "coefficient",
          "type": "uint8"
        },
        {
          "internalType": "uint8",
          "name": "generationType",
          "type": "uint8"
        }
      ],
      "stateMutability": "view",
      "type": "function",
      "constant": true
    },
    {
      "inputs": [
        {
          "internalType": "uint256",
          "name": "tokenId",
          "type": "uint256"
        }
      ],
      "name": "tokenURI",
      "outputs": [
        {
          "internalType": "string",
          "name": "",
          "type": "string"
        }
      ],
      "stateMutability": "view",
      "type": "function",
      "constant": true
    },
    {
      "inputs": [
        {
          "internalType": "address",
          "name": "from",
          "type": "address"
        },
        {
          "internalType": "address",
          "name": "to",
          "type": "address"
        },
        {
          "internalType": "uint256",
          "name": "tokenId",
          "type": "uint256"
        }
      ],
      "name": "transferFrom",
      "outputs": [],
      "stateMutability": "nonpayable",
      "type": "function"
    },
    {
      "inputs": [
        {
          "internalType": "address",
          "name": "_accessRestrictionAddress",
          "type": "address"
        },
        {
          "internalType": "string",
          "name": "baseURI_",
          "type": "string"
        }
      ],
      "name": "initialize",
      "outputs": [],
      "stateMutability": "nonpayable",
      "type": "function"
    },
    {
      "inputs": [
        {
          "internalType": "string",
          "name": "baseURI_",
          "type": "string"
        }
      ],
      "name": "setBaseURI",
      "outputs": [],
      "stateMutability": "nonpayable",
      "type": "function"
    },
    {
      "inputs": [
        {
          "internalType": "address",
          "name": "_to",
          "type": "address"
        },
        {
          "internalType": "uint256",
          "name": "_tokenId",
          "type": "uint256"
        }
      ],
      "name": "safeMint",
      "outputs": [],
      "stateMutability": "nonpayable",
      "type": "function"
    },
    {
      "inputs": [
        {
          "internalType": "uint256",
          "name": "_tokenId",
          "type": "uint256"
        }
      ],
      "name": "exists",
      "outputs": [
        {
          "internalType": "bool",
          "name": "",
          "type": "bool"
        }
      ],
      "stateMutability": "view",
      "type": "function",
      "constant": true
    },
    {
      "inputs": [
        {
          "internalType": "uint256",
          "name": "_tokenId",
          "type": "uint256"
        },
        {
          "internalType": "uint256",
          "name": "_uniquenessFactor",
          "type": "uint256"
        },
        {
          "internalType": "uint8",
          "name": "_generationType",
          "type": "uint8"
        }
      ],
      "name": "setAttributes",
      "outputs": [],
      "stateMutability": "nonpayable",
      "type": "function"
    },
    {
      "inputs": [
        {
          "internalType": "uint256",
          "name": "_tokenId",
          "type": "uint256"
        }
      ],
      "name": "attributeExists",
      "outputs": [
        {
          "internalType": "bool",
          "name": "",
          "type": "bool"
        }
      ],
      "stateMutability": "view",
      "type": "function",
      "constant": true
    }
  ],
  "bytecode": "0x608060405234801561001057600080fd5b50612270806100206000396000f3fe608060405234801561001057600080fd5b506004361061014d5760003560e01c806370a08231116100c3578063c87b56dd1161007c578063c87b56dd146102c3578063ccce413b146102d6578063d05dcc6a14610368578063d6762c4a14610438578063e985e9c514610450578063f399e22e1461048c57600080fd5b806370a082311461024e57806395d89b411461026f5780639d25f4fe14610277578063a14481941461028a578063a22cb4651461029d578063b88d4fde146102b057600080fd5b806337b9fd771161011557806337b9fd77146101e257806342842e0e146101ef5780634a31620f146102025780634f558e791461021557806355f804b3146102285780636352211e1461023b57600080fd5b806301ffc9a71461015257806306fdde031461017a578063081812fc1461018f578063095ea7b3146101ba57806323b872dd146101cf575b600080fd5b610165610160366004611e75565b61049f565b60405190151581526020015b60405180910390f35b6101826104f1565b6040516101719190611fe1565b6101a261019d366004611ef1565b610583565b6040516001600160a01b039091168152602001610171565b6101cd6101c8366004611e2e565b61061d565b005b6101cd6101dd366004611c8c565b610733565b6097546101659060ff1681565b6101cd6101fd366004611c8c565b610764565b6101cd610210366004611f0a565b61077f565b610165610223366004611ef1565b610c9f565b6101cd610236366004611eaf565b610cbe565b6101a2610249366004611ef1565b610d2c565b61026161025c366004611c3e565b610da3565b604051908152602001610171565b610182610e2a565b610165610285366004611ef1565b610e39565b6101cd610298366004611e2e565b610ebd565b6101cd6102ab366004611da4565b610f2a565b6101cd6102be366004611cc8565b610fef565b6101826102d1366004611ef1565b611021565b61032c6102e4366004611ef1565b609a6020526000908152604090205460ff8082169161010081048216916201000082048116916301000000810482169164010000000082048116916501000000000090041686565b6040805160ff978816815295871660208701529386169385019390935290841660608401528316608083015290911660a082015260c001610171565b6103e4610376366004611ef1565b60996020526000908152604090205460ff808216916101008104821691620100008204811691630100000081048216916401000000008204811691650100000000008104821691660100000000000082048116916701000000000000008104821691600160401b9091041689565b6040805160ff9a8b168152988a1660208a01529689169688019690965293871660608701529186166080860152851660a0850152841660c0840152831660e083015290911661010082015261012001610171565b6097546101a29061010090046001600160a01b031681565b61016561045e366004611c59565b6001600160a01b039182166000908152606a6020908152604080832093909416825291909152205460ff1690565b6101cd61049a366004611ddb565b6110fc565b60006001600160e01b031982166380ac58cd60e01b14806104d057506001600160e01b03198216635b5e139f60e01b145b806104eb57506301ffc9a760e01b6001600160e01b03198316145b92915050565b60606065805461050090612154565b80601f016020809104026020016040519081016040528092919081815260200182805461052c90612154565b80156105795780601f1061054e57610100808354040283529160200191610579565b820191906000526020600020905b81548152906001019060200180831161055c57829003601f168201915b5050505050905090565b6000818152606760205260408120546001600160a01b03166106015760405162461bcd60e51b815260206004820152602c60248201527f4552433732313a20617070726f76656420717565727920666f72206e6f6e657860448201526b34b9ba32b73a103a37b5b2b760a11b60648201526084015b60405180910390fd5b506000908152606960205260409020546001600160a01b031690565b600061062882610d2c565b9050806001600160a01b0316836001600160a01b031614156106965760405162461bcd60e51b815260206004820152602160248201527f4552433732313a20617070726f76616c20746f2063757272656e74206f776e656044820152603960f91b60648201526084016105f8565b336001600160a01b03821614806106b257506106b2813361045e565b6107245760405162461bcd60e51b815260206004820152603860248201527f4552433732313a20617070726f76652063616c6c6572206973206e6f74206f7760448201527f6e6572206e6f7220617070726f76656420666f7220616c6c000000000000000060648201526084016105f8565b61072e8383611268565b505050565b61073d33826112d6565b6107595760405162461bcd60e51b81526004016105f890612094565b61072e8383836113cd565b61072e83838360405180602001604052806000815250610fef565b60975460405163ebe6a6f360e01b81523360048201526101009091046001600160a01b03169063ebe6a6f39060240160006040518083038186803b1580156107c657600080fd5b505afa1580156107da573d6000803e3d6000fd5b5060009250600891506107ea9050565b604051908082528060200260200182016040528015610813578160200160208202803683370190505b50905060005b6008811015610863578360ff16828281518110610838576108386121ea565b60ff9092166020928302919091019091015260089390931c928061085b8161218f565b915050610819565b5060405180610120016040528082600081518110610883576108836121ea565b602002602001015160ff168152602001826001815181106108a6576108a66121ea565b602002602001015160ff168152602001826002815181106108c9576108c96121ea565b602002602001015160ff168152602001826003815181106108ec576108ec6121ea565b602002602001015160ff1681526020018260048151811061090f5761090f6121ea565b602002602001015160ff16815260200182600581518110610932576109326121ea565b602002602001015160ff16815260200182600681518110610955576109556121ea565b602002602001015160ff16815260200182600781518110610978576109786121ea565b602002602001015160ff1681526020018360ff168152506099600086815260200190815260200160002060008201518160000160006101000a81548160ff021916908360ff16021790555060208201518160000160016101000a81548160ff021916908360ff16021790555060408201518160000160026101000a81548160ff021916908360ff16021790555060608201518160000160036101000a81548160ff021916908360ff16021790555060808201518160000160046101000a81548160ff021916908360ff16021790555060a08201518160000160056101000a81548160ff021916908360ff16021790555060c08201518160000160066101000a81548160ff021916908360ff16021790555060e08201518160000160076101000a81548160ff021916908360ff1602179055506101008201518160000160086101000a81548160ff021916908360ff160217905550905050600f8260ff161115610c995760005b6005811015610b28578360ff16828281518110610afd57610afd6121ea565b60ff9092166020928302919091019091015260089390931c9280610b208161218f565b915050610ade565b506040518060c0016040528082600081518110610b4757610b476121ea565b602002602001015160ff16815260200182600181518110610b6a57610b6a6121ea565b602002602001015160ff16815260200182600281518110610b8d57610b8d6121ea565b602002602001015160ff16815260200182600381518110610bb057610bb06121ea565b602002602001015160ff16815260200182600481518110610bd357610bd36121ea565b60209081029190910181015160ff9081168352858116928201929092526000878152609a82526040908190208451815493860151928601516060870151608088015160a0909801518716650100000000000265ff000000000019988816640100000000029890981665ffff000000001991881663010000000263ff0000001993891662010000029390931663ffff0000199689166101000261ffff1990981694909816939093179590951793909316949094179190911791909116919091179190911790555b50505050565b6000818152606760205260408120546001600160a01b031615156104eb565b609754604051632104fb0560e21b81523360048201526101009091046001600160a01b031690638413ec149060240160006040518083038186803b158015610d0557600080fd5b505afa158015610d19573d6000803e3d6000fd5b5061072e92506098915084905083611ad1565b6000818152606760205260408120546001600160a01b0316806104eb5760405162461bcd60e51b815260206004820152602960248201527f4552433732313a206f776e657220717565727920666f72206e6f6e657869737460448201526832b73a103a37b5b2b760b91b60648201526084016105f8565b60006001600160a01b038216610e0e5760405162461bcd60e51b815260206004820152602a60248201527f4552433732313a2062616c616e636520717565727920666f7220746865207a65604482015269726f206164647265737360b01b60648201526084016105f8565b506001600160a01b031660009081526068602052604090205490565b60606066805461050090612154565b60975460405163ebe6a6f360e01b815233600482015260009161010090046001600160a01b03169063ebe6a6f39060240160006040518083038186803b158015610e8257600080fd5b505afa158015610e96573d6000803e3d6000fd5b505050600083815260996020526040902054600160401b900460ff1615159150505b919050565b60975460405163ebe6a6f360e01b81523360048201526101009091046001600160a01b03169063ebe6a6f39060240160006040518083038186803b158015610f0457600080fd5b505afa158015610f18573d6000803e3d6000fd5b50505050610f26828261156d565b5050565b6001600160a01b038216331415610f835760405162461bcd60e51b815260206004820152601960248201527f4552433732313a20617070726f766520746f2063616c6c65720000000000000060448201526064016105f8565b336000818152606a602090815260408083206001600160a01b03871680855290835292819020805460ff191686151590811790915590519081529192917f17307eab39ab6107e8899845ad3d59bd9653f200f220920489ca2b5937696c31910160405180910390a35050565b610ff933836112d6565b6110155760405162461bcd60e51b81526004016105f890612094565b610c9984848484611587565b6000818152606760205260409020546060906001600160a01b03166110a05760405162461bcd60e51b815260206004820152602f60248201527f4552433732314d657461646174613a2055524920717565727920666f72206e6f60448201526e3732bc34b9ba32b73a103a37b5b2b760891b60648201526084016105f8565b60006110aa6115ba565b905060008151116110ca57604051806020016040528060008152506110f5565b806110d4846115c9565b6040516020016110e5929190611f75565b6040516020818303038152906040525b9392505050565b600054610100900460ff1680611115575060005460ff16155b6111315760405162461bcd60e51b81526004016105f890612046565b600054610100900460ff16158015611153576000805461ffff19166101011790555b6097805460ff191660011790556040805180820182526004808252635472656560e01b6020808401919091528351808501909452908352635452454560e01b9083015261119f916116c7565b6111ab60988484611ad1565b506000849050806001600160a01b031663ba84fd696040518163ffffffff1660e01b815260040160206040518083038186803b1580156111ea57600080fd5b505afa1580156111fe573d6000803e3d6000fd5b505050506040513d601f19601f820116820180604052508101906112229190611e58565b61122b57600080fd5b609780546001600160a01b0390921661010002610100600160a81b03199092169190911790558015610c99576000805461ff001916905550505050565b600081815260696020526040902080546001600160a01b0319166001600160a01b038416908117909155819061129d82610d2c565b6001600160a01b03167f8c5be1e5ebec7d5bd14f71427d1e84f3dd0314c0f7b2291e5b200ac8c7c3b92560405160405180910390a45050565b6000818152606760205260408120546001600160a01b031661134f5760405162461bcd60e51b815260206004820152602c60248201527f4552433732313a206f70657261746f7220717565727920666f72206e6f6e657860448201526b34b9ba32b73a103a37b5b2b760a11b60648201526084016105f8565b600061135a83610d2c565b9050806001600160a01b0316846001600160a01b031614806113955750836001600160a01b031661138a84610583565b6001600160a01b0316145b806113c557506001600160a01b038082166000908152606a602090815260408083209388168352929052205460ff165b949350505050565b826001600160a01b03166113e082610d2c565b6001600160a01b0316146114485760405162461bcd60e51b815260206004820152602960248201527f4552433732313a207472616e73666572206f6620746f6b656e2074686174206960448201526839903737ba1037bbb760b91b60648201526084016105f8565b6001600160a01b0382166114aa5760405162461bcd60e51b8152602060048201526024808201527f4552433732313a207472616e7366657220746f20746865207a65726f206164646044820152637265737360e01b60648201526084016105f8565b6114b5600082611268565b6001600160a01b03831660009081526068602052604081208054600192906114de908490612111565b90915550506001600160a01b038216600090815260686020526040812080546001929061150c9084906120e5565b909155505060008181526067602052604080822080546001600160a01b0319166001600160a01b0386811691821790925591518493918716917fddf252ad1be2c89b69c2b068fc378daa952ba7f163c4a11628f55a4df523b3ef91a4505050565b610f2682826040518060200160405280600081525061174e565b6115928484846113cd565b61159e84848484611781565b610c995760405162461bcd60e51b81526004016105f890611ff4565b60606098805461050090612154565b6060816115ed5750506040805180820190915260018152600360fc1b602082015290565b8160005b811561161757806116018161218f565b91506116109050600a836120fd565b91506115f1565b60008167ffffffffffffffff81111561163257611632612200565b6040519080825280601f01601f19166020018201604052801561165c576020820181803683370190505b5090505b84156113c557611671600183612111565b915061167e600a866121aa565b6116899060306120e5565b60f81b81838151811061169e5761169e6121ea565b60200101906001600160f81b031916908160001a9053506116c0600a866120fd565b9450611660565b600054610100900460ff16806116e0575060005460ff16155b6116fc5760405162461bcd60e51b81526004016105f890612046565b600054610100900460ff1615801561171e576000805461ffff19166101011790555b61172661188e565b61172e61188e565b61173883836118fa565b801561072e576000805461ff0019169055505050565b611758838361198f565b6117656000848484611781565b61072e5760405162461bcd60e51b81526004016105f890611ff4565b60006001600160a01b0384163b1561188357604051630a85bd0160e11b81526001600160a01b0385169063150b7a02906117c5903390899088908890600401611fa4565b602060405180830381600087803b1580156117df57600080fd5b505af192505050801561180f575060408051601f3d908101601f1916820190925261180c91810190611e92565b60015b611869573d80801561183d576040519150601f19603f3d011682016040523d82523d6000602084013e611842565b606091505b5080516118615760405162461bcd60e51b81526004016105f890611ff4565b805181602001fd5b6001600160e01b031916630a85bd0160e11b1490506113c5565b506001949350505050565b600054610100900460ff16806118a7575060005460ff16155b6118c35760405162461bcd60e51b81526004016105f890612046565b600054610100900460ff161580156118e5576000805461ffff19166101011790555b80156118f7576000805461ff00191690555b50565b600054610100900460ff1680611913575060005460ff16155b61192f5760405162461bcd60e51b81526004016105f890612046565b600054610100900460ff16158015611951576000805461ffff19166101011790555b8251611964906065906020860190611b55565b508151611978906066906020850190611b55565b50801561072e576000805461ff0019169055505050565b6001600160a01b0382166119e55760405162461bcd60e51b815260206004820181905260248201527f4552433732313a206d696e7420746f20746865207a65726f206164647265737360448201526064016105f8565b6000818152606760205260409020546001600160a01b031615611a4a5760405162461bcd60e51b815260206004820152601c60248201527f4552433732313a20746f6b656e20616c7265616479206d696e7465640000000060448201526064016105f8565b6001600160a01b0382166000908152606860205260408120805460019290611a739084906120e5565b909155505060008181526067602052604080822080546001600160a01b0319166001600160a01b03861690811790915590518392907fddf252ad1be2c89b69c2b068fc378daa952ba7f163c4a11628f55a4df523b3ef908290a45050565b828054611add90612154565b90600052602060002090601f016020900481019282611aff5760008555611b45565b82601f10611b185782800160ff19823516178555611b45565b82800160010185558215611b45579182015b82811115611b45578235825591602001919060010190611b2a565b50611b51929150611bc9565b5090565b828054611b6190612154565b90600052602060002090601f016020900481019282611b835760008555611b45565b82601f10611b9c57805160ff1916838001178555611b45565b82800160010185558215611b45579182015b82811115611b45578251825591602001919060010190611bae565b5b80821115611b515760008155600101611bca565b80356001600160a01b0381168114610eb857600080fd5b60008083601f840112611c0757600080fd5b50813567ffffffffffffffff811115611c1f57600080fd5b602083019150836020828501011115611c3757600080fd5b9250929050565b600060208284031215611c5057600080fd5b6110f582611bde565b60008060408385031215611c6c57600080fd5b611c7583611bde565b9150611c8360208401611bde565b90509250929050565b600080600060608486031215611ca157600080fd5b611caa84611bde565b9250611cb860208501611bde565b9150604084013590509250925092565b60008060008060808587031215611cde57600080fd5b611ce785611bde565b9350611cf560208601611bde565b925060408501359150606085013567ffffffffffffffff80821115611d1957600080fd5b818701915087601f830112611d2d57600080fd5b813581811115611d3f57611d3f612200565b604051601f8201601f19908116603f01168101908382118183101715611d6757611d67612200565b816040528281528a6020848701011115611d8057600080fd5b82602086016020830137600060208483010152809550505050505092959194509250565b60008060408385031215611db757600080fd5b611dc083611bde565b91506020830135611dd081612216565b809150509250929050565b600080600060408486031215611df057600080fd5b611df984611bde565b9250602084013567ffffffffffffffff811115611e1557600080fd5b611e2186828701611bf5565b9497909650939450505050565b60008060408385031215611e4157600080fd5b611e4a83611bde565b946020939093013593505050565b600060208284031215611e6a57600080fd5b81516110f581612216565b600060208284031215611e8757600080fd5b81356110f581612224565b600060208284031215611ea457600080fd5b81516110f581612224565b60008060208385031215611ec257600080fd5b823567ffffffffffffffff811115611ed957600080fd5b611ee585828601611bf5565b90969095509350505050565b600060208284031215611f0357600080fd5b5035919050565b600080600060608486031215611f1f57600080fd5b8335925060208401359150604084013560ff81168114611f3e57600080fd5b809150509250925092565b60008151808452611f61816020860160208601612128565b601f01601f19169290920160200192915050565b60008351611f87818460208801612128565b835190830190611f9b818360208801612128565b01949350505050565b6001600160a01b0385811682528416602082015260408101839052608060608201819052600090611fd790830184611f49565b9695505050505050565b6020815260006110f56020830184611f49565b60208082526032908201527f4552433732313a207472616e7366657220746f206e6f6e20455243373231526560408201527131b2b4bb32b91034b6b83632b6b2b73a32b960711b606082015260800190565b6020808252602e908201527f496e697469616c697a61626c653a20636f6e747261637420697320616c72656160408201526d191e481a5b9a5d1a585b1a5e995960921b606082015260800190565b60208082526031908201527f4552433732313a207472616e736665722063616c6c6572206973206e6f74206f6040820152701ddb995c881b9bdc88185c1c1c9bdd9959607a1b606082015260800190565b600082198211156120f8576120f86121be565b500190565b60008261210c5761210c6121d4565b500490565b600082821015612123576121236121be565b500390565b60005b8381101561214357818101518382015260200161212b565b83811115610c995750506000910152565b600181811c9082168061216857607f821691505b6020821081141561218957634e487b7160e01b600052602260045260246000fd5b50919050565b60006000198214156121a3576121a36121be565b5060010190565b6000826121b9576121b96121d4565b500690565b634e487b7160e01b600052601160045260246000fd5b634e487b7160e01b600052601260045260246000fd5b634e487b7160e01b600052603260045260246000fd5b634e487b7160e01b600052604160045260246000fd5b80151581146118f757600080fd5b6001600160e01b0319811681146118f757600080fdfea2646970667358221220e3a2dec23bcead5b6a2cc5fc86fc009941ac84c52b5092279977785dcfbe56e464736f6c63430008060033",
  "immutableReferences": {},
  "source": "// SPDX-License-Identifier: GPL-3.0\n\npragma solidity ^0.8.6;\n\nimport \"@openzeppelin/contracts-upgradeable/token/ERC721/ERC721Upgradeable.sol\";\nimport \"../access/IAccessRestriction.sol\";\n\n/** @title Tree Contract */\ncontract Tree is ERC721Upgradeable {\n    /** NOTE {isTree} set inside the initialize to {true} */\n    bool public isTree;\n\n    IAccessRestriction public accessRestriction;\n    string private baseURI;\n\n    struct Attribute {\n        uint8 attribute1;\n        uint8 attribute2;\n        uint8 attribute3;\n        uint8 attribute4;\n        uint8 attribute5;\n        uint8 attribute6;\n        uint8 attribute7;\n        uint8 attribute8;\n        uint8 generationType;\n    }\n    struct Symbol {\n        uint8 shape;\n        uint8 trunkColor;\n        uint8 crownColor;\n        uint8 effect;\n        uint8 coefficient;\n        uint8 generationType;\n    }\n\n    mapping(uint256 => Attribute) public attributes;\n    mapping(uint256 => Symbol) public symbols;\n\n    /** NOTE modifier to check msg.sender has admin role */\n    modifier onlyAdmin() {\n        accessRestriction.ifAdmin(msg.sender);\n        _;\n    }\n\n    modifier onlyTreejerContract() {\n        accessRestriction.ifTreejerContract(msg.sender);\n        _;\n    }\n\n    /**\n     * @dev initialize accessRestriction contract and set true for isTree\n     * @param _accessRestrictionAddress set to the address of accessRestriction contract\n     * @param baseURI_ initial baseURI\n     */\n    function initialize(\n        address _accessRestrictionAddress,\n        string calldata baseURI_\n    ) external initializer {\n        isTree = true;\n\n        __ERC721_init(\"Tree\", \"TREE\");\n\n        baseURI = baseURI_;\n\n        IAccessRestriction candidateContract = IAccessRestriction(\n            _accessRestrictionAddress\n        );\n        require(candidateContract.isAccessRestriction());\n        accessRestriction = candidateContract;\n    }\n\n    /**\n     * @dev admin set baseURI\n     * @param baseURI_ baseURI value\n     */\n    function setBaseURI(string calldata baseURI_) external onlyAdmin {\n        baseURI = baseURI_;\n    }\n\n    /**\n     * @dev mint {_tokenId} to {_to}\n     * NOTE must call by TreeFactory\n     */\n    function safeMint(address _to, uint256 _tokenId)\n        external\n        onlyTreejerContract\n    {\n        _safeMint(_to, _tokenId);\n    }\n\n    /**\n     * @dev check that _tokenId exist or not\n     * @param _tokenId id of token to check existance\n     * @return true if {_tokenId} exist\n     */\n    function exists(uint256 _tokenId) external view returns (bool) {\n        return _exists(_tokenId);\n    }\n\n    /** @return return baseURI */\n    function _baseURI() internal view virtual override returns (string memory) {\n        return baseURI;\n    }\n\n    function setAttributes(\n        uint256 _tokenId,\n        uint256 _uniquenessFactor,\n        uint8 _generationType\n    ) external onlyTreejerContract {\n        uint8[] memory attribute = new uint8[](8);\n\n        for (uint256 i = 0; i < 8; i++) {\n            attribute[i] = uint8(_uniquenessFactor & 255);\n            //TODO: check _uniquenessFactor = _uniquenessFactor / 256\n            _uniquenessFactor >>= 8;\n        }\n        attributes[_tokenId] = Attribute(\n            attribute[0],\n            attribute[1],\n            attribute[2],\n            attribute[3],\n            attribute[4],\n            attribute[5],\n            attribute[6],\n            attribute[7],\n            _generationType\n        );\n        if (_generationType > 15) {\n            for (uint256 i = 0; i < 5; i++) {\n                attribute[i] = uint8(_uniquenessFactor & 255);\n\n                //TODO: check _uniquenessFactor = _uniquenessFactor / 256\n                _uniquenessFactor >>= 8;\n            }\n            symbols[_tokenId] = Symbol(\n                attribute[0],\n                attribute[1],\n                attribute[2],\n                attribute[3],\n                attribute[4],\n                _generationType\n            );\n        }\n    }\n\n    function attributeExists(uint256 _tokenId)\n        external\n        view\n        onlyTreejerContract\n        returns (bool)\n    {\n        return attributes[_tokenId].generationType > 0;\n    }\n}\n",
  "sourcePath": "/media/ali/New Volume/treejer/contract/contracts/tree/Tree.sol",
  "compiler": {
    "name": "solc",
    "version": "0.8.6+commit.11564f7e.Emscripten.clang"
  },
  "schemaVersion": "3.4.1",
  "updatedAt": "2021-10-12T15:13:52.106Z",
  "networkType": "ethereum",
  "devdoc": {
    "kind": "dev",
    "methods": {
      "approve(address,uint256)": {
        "details": "See {IERC721-approve}."
      },
      "balanceOf(address)": {
        "details": "See {IERC721-balanceOf}."
      },
      "exists(uint256)": {
        "details": "check that _tokenId exist or not",
        "params": {
          "_tokenId": "id of token to check existance"
        },
        "returns": {
          "_0": "true if {_tokenId} exist"
        }
      },
      "getApproved(uint256)": {
        "details": "See {IERC721-getApproved}."
      },
      "initialize(address,string)": {
        "details": "initialize accessRestriction contract and set true for isTree",
        "params": {
          "_accessRestrictionAddress": "set to the address of accessRestriction contract",
          "baseURI_": "initial baseURI"
        }
      },
      "isApprovedForAll(address,address)": {
        "details": "See {IERC721-isApprovedForAll}."
      },
      "name()": {
        "details": "See {IERC721Metadata-name}."
      },
      "ownerOf(uint256)": {
        "details": "See {IERC721-ownerOf}."
      },
      "safeMint(address,uint256)": {
        "details": "mint {_tokenId} to {_to} NOTE must call by TreeFactory"
      },
      "safeTransferFrom(address,address,uint256)": {
        "details": "See {IERC721-safeTransferFrom}."
      },
      "safeTransferFrom(address,address,uint256,bytes)": {
        "details": "See {IERC721-safeTransferFrom}."
      },
      "setApprovalForAll(address,bool)": {
        "details": "See {IERC721-setApprovalForAll}."
      },
      "setBaseURI(string)": {
        "details": "admin set baseURI",
        "params": {
          "baseURI_": "baseURI value"
        }
      },
      "supportsInterface(bytes4)": {
        "details": "See {IERC165-supportsInterface}."
      },
      "symbol()": {
        "details": "See {IERC721Metadata-symbol}."
      },
      "tokenURI(uint256)": {
        "details": "See {IERC721Metadata-tokenURI}."
      },
      "transferFrom(address,address,uint256)": {
        "details": "See {IERC721-transferFrom}."
      }
    },
    "title": "Tree Contract ",
    "version": 1
  },
  "userdoc": {
    "kind": "user",
    "methods": {
      "isTree()": {
        "notice": "NOTE {isTree} set inside the initialize to {true} "
      }
    },
    "version": 1
  }
}