{
  "contractName": "TreeFactory",
  "abi": [
    {
      "anonymous": false,
      "inputs": [
        {
          "indexed": false,
          "internalType": "uint256",
          "name": "treeId",
          "type": "uint256"
        }
      ],
      "name": "PlantRejected",
      "type": "event"
    },
    {
      "anonymous": false,
      "inputs": [
        {
          "indexed": false,
          "internalType": "uint256",
          "name": "treeId",
          "type": "uint256"
        }
      ],
      "name": "PlantVerified",
      "type": "event"
    },
    {
      "anonymous": false,
      "inputs": [
        {
          "indexed": false,
          "internalType": "uint256",
          "name": "treeId",
          "type": "uint256"
        }
      ],
      "name": "RegularPlantRejected",
      "type": "event"
    },
    {
      "anonymous": false,
      "inputs": [
        {
          "indexed": false,
          "internalType": "uint256",
          "name": "treeId",
          "type": "uint256"
        }
      ],
      "name": "RegularPlantVerified",
      "type": "event"
    },
    {
      "anonymous": false,
      "inputs": [
        {
          "indexed": false,
          "internalType": "uint256",
          "name": "treeId",
          "type": "uint256"
        }
      ],
      "name": "RegularTreePlanted",
      "type": "event"
    },
    {
      "anonymous": false,
      "inputs": [
        {
          "indexed": false,
          "internalType": "uint256",
          "name": "treeId",
          "type": "uint256"
        }
      ],
      "name": "TreePlanted",
      "type": "event"
    },
    {
      "anonymous": false,
      "inputs": [
        {
          "indexed": false,
          "internalType": "uint256",
          "name": "treeId",
          "type": "uint256"
        }
      ],
      "name": "TreeUpdated",
      "type": "event"
    },
    {
      "anonymous": false,
      "inputs": [
        {
          "indexed": false,
          "internalType": "uint256",
          "name": "treeId",
          "type": "uint256"
        }
      ],
      "name": "UpdateRejected",
      "type": "event"
    },
    {
      "anonymous": false,
      "inputs": [
        {
          "indexed": false,
          "internalType": "uint256",
          "name": "treeId",
          "type": "uint256"
        }
      ],
      "name": "UpdateVerified",
      "type": "event"
    },
    {
      "inputs": [],
      "name": "accessRestriction",
      "outputs": [
        {
          "internalType": "contract IAccessRestriction",
          "name": "",
          "type": "address"
        }
      ],
      "stateMutability": "view",
      "type": "function",
      "constant": true
    },
    {
      "inputs": [],
      "name": "isTreeFactory",
      "outputs": [
        {
          "internalType": "bool",
          "name": "",
          "type": "bool"
        }
      ],
      "stateMutability": "view",
      "type": "function",
      "constant": true
    },
    {
      "inputs": [
        {
          "internalType": "address",
          "name": "forwarder",
          "type": "address"
        }
      ],
      "name": "isTrustedForwarder",
      "outputs": [
        {
          "internalType": "bool",
          "name": "",
          "type": "bool"
        }
      ],
      "stateMutability": "view",
      "type": "function",
      "constant": true
    },
    {
      "inputs": [],
      "name": "lastRegularPlantedTree",
      "outputs": [
        {
          "internalType": "uint256",
          "name": "",
          "type": "uint256"
        }
      ],
      "stateMutability": "view",
      "type": "function",
      "constant": true
    },
    {
      "inputs": [],
      "name": "planter",
      "outputs": [
        {
          "internalType": "contract IPlanter",
          "name": "",
          "type": "address"
        }
      ],
      "stateMutability": "view",
      "type": "function",
      "constant": true
    },
    {
      "inputs": [
        {
          "internalType": "uint256",
          "name": "",
          "type": "uint256"
        }
      ],
      "name": "regularTrees",
      "outputs": [
        {
          "internalType": "uint64",
          "name": "birthDate",
          "type": "uint64"
        },
        {
          "internalType": "uint64",
          "name": "plantDate",
          "type": "uint64"
        },
        {
          "internalType": "uint64",
          "name": "countryCode",
          "type": "uint64"
        },
        {
          "internalType": "uint64",
          "name": "otherData",
          "type": "uint64"
        },
        {
          "internalType": "address",
          "name": "planterAddress",
          "type": "address"
        },
        {
          "internalType": "string",
          "name": "treeSpecs",
          "type": "string"
        }
      ],
      "stateMutability": "view",
      "type": "function",
      "constant": true
    },
    {
      "inputs": [],
      "name": "treasury",
      "outputs": [
        {
          "internalType": "contract ITreasury",
          "name": "",
          "type": "address"
        }
      ],
      "stateMutability": "view",
      "type": "function",
      "constant": true
    },
    {
      "inputs": [
        {
          "internalType": "uint256",
          "name": "",
          "type": "uint256"
        }
      ],
      "name": "treeData",
      "outputs": [
        {
          "internalType": "address",
          "name": "planterId",
          "type": "address"
        },
        {
          "internalType": "uint256",
          "name": "treeType",
          "type": "uint256"
        },
        {
          "internalType": "uint16",
          "name": "mintStatus",
          "type": "uint16"
        },
        {
          "internalType": "uint16",
          "name": "countryCode",
          "type": "uint16"
        },
        {
          "internalType": "uint32",
          "name": "provideStatus",
          "type": "uint32"
        },
        {
          "internalType": "uint64",
          "name": "treeStatus",
          "type": "uint64"
        },
        {
          "internalType": "uint64",
          "name": "plantDate",
          "type": "uint64"
        },
        {
          "internalType": "uint64",
          "name": "birthDate",
          "type": "uint64"
        },
        {
          "internalType": "string",
          "name": "treeSpecs",
          "type": "string"
        }
      ],
      "stateMutability": "view",
      "type": "function",
      "constant": true
    },
    {
      "inputs": [],
      "name": "treeToken",
      "outputs": [
        {
          "internalType": "contract ITree",
          "name": "",
          "type": "address"
        }
      ],
      "stateMutability": "view",
      "type": "function",
      "constant": true
    },
    {
      "inputs": [],
      "name": "trustedForwarder",
      "outputs": [
        {
          "internalType": "address",
          "name": "",
          "type": "address"
        }
      ],
      "stateMutability": "view",
      "type": "function",
      "constant": true
    },
    {
      "inputs": [
        {
          "internalType": "uint256",
          "name": "",
          "type": "uint256"
        }
      ],
      "name": "updateTrees",
      "outputs": [
        {
          "internalType": "string",
          "name": "updateSpecs",
          "type": "string"
        },
        {
          "internalType": "uint64",
          "name": "updateStatus",
          "type": "uint64"
        }
      ],
      "stateMutability": "view",
      "type": "function",
      "constant": true
    },
    {
      "inputs": [],
      "name": "versionRecipient",
      "outputs": [
        {
          "internalType": "string",
          "name": "",
          "type": "string"
        }
      ],
      "stateMutability": "pure",
      "type": "function",
      "constant": true
    },
    {
      "inputs": [
        {
          "internalType": "address",
          "name": "_accessRestrictionAddress",
          "type": "address"
        }
      ],
      "name": "initialize",
      "outputs": [],
      "stateMutability": "nonpayable",
      "type": "function"
    },
    {
      "inputs": [
        {
          "internalType": "address",
          "name": "_address",
          "type": "address"
        }
      ],
      "name": "setTrustedForwarder",
      "outputs": [],
      "stateMutability": "nonpayable",
      "type": "function"
    },
    {
      "inputs": [
        {
          "internalType": "address",
          "name": "_address",
          "type": "address"
        }
      ],
      "name": "setTreasuryAddress",
      "outputs": [],
      "stateMutability": "nonpayable",
      "type": "function"
    },
    {
      "inputs": [
        {
          "internalType": "address",
          "name": "_address",
          "type": "address"
        }
      ],
      "name": "setPlanterAddress",
      "outputs": [],
      "stateMutability": "nonpayable",
      "type": "function"
    },
    {
      "inputs": [
        {
          "internalType": "address",
          "name": "_address",
          "type": "address"
        }
      ],
      "name": "setTreeTokenAddress",
      "outputs": [],
      "stateMutability": "nonpayable",
      "type": "function"
    },
    {
      "inputs": [
        {
          "internalType": "uint256",
          "name": "_treeId",
          "type": "uint256"
        },
        {
          "internalType": "string",
          "name": "_treeDescription",
          "type": "string"
        }
      ],
      "name": "addTree",
      "outputs": [],
      "stateMutability": "nonpayable",
      "type": "function"
    },
    {
      "inputs": [
        {
          "internalType": "uint256",
          "name": "_treeId",
          "type": "uint256"
        },
        {
          "internalType": "address",
          "name": "_planterId",
          "type": "address"
        }
      ],
      "name": "assignTreeToPlanter",
      "outputs": [],
      "stateMutability": "nonpayable",
      "type": "function"
    },
    {
      "inputs": [
        {
          "internalType": "uint256",
          "name": "_treeId",
          "type": "uint256"
        },
        {
          "internalType": "string",
          "name": "_treeSpecs",
          "type": "string"
        },
        {
          "internalType": "uint64",
          "name": "_birthDate",
          "type": "uint64"
        },
        {
          "internalType": "uint16",
          "name": "_countryCode",
          "type": "uint16"
        }
      ],
      "name": "plantTree",
      "outputs": [],
      "stateMutability": "nonpayable",
      "type": "function"
    },
    {
      "inputs": [
        {
          "internalType": "uint256",
          "name": "_treeId",
          "type": "uint256"
        },
        {
          "internalType": "bool",
          "name": "_isVerified",
          "type": "bool"
        }
      ],
      "name": "verifyPlant",
      "outputs": [],
      "stateMutability": "nonpayable",
      "type": "function"
    },
    {
      "inputs": [
        {
          "internalType": "uint256",
          "name": "_treeId",
          "type": "uint256"
        },
        {
          "internalType": "string",
          "name": "_treeSpecs",
          "type": "string"
        }
      ],
      "name": "updateTree",
      "outputs": [],
      "stateMutability": "nonpayable",
      "type": "function"
    },
    {
      "inputs": [
        {
          "internalType": "uint256",
          "name": "_treeId",
          "type": "uint256"
        },
        {
          "internalType": "bool",
          "name": "_isVerified",
          "type": "bool"
        }
      ],
      "name": "verifyUpdate",
      "outputs": [],
      "stateMutability": "nonpayable",
      "type": "function"
    },
    {
      "inputs": [
        {
          "internalType": "uint256",
          "name": "_treeId",
          "type": "uint256"
        },
        {
          "internalType": "uint32",
          "name": "_provideType",
          "type": "uint32"
        }
      ],
      "name": "availability",
      "outputs": [
        {
          "internalType": "uint32",
          "name": "",
          "type": "uint32"
        }
      ],
      "stateMutability": "nonpayable",
      "type": "function"
    },
    {
      "inputs": [
        {
          "internalType": "uint256",
          "name": "_treeId",
          "type": "uint256"
        },
        {
          "internalType": "address",
          "name": "_ownerId",
          "type": "address"
        }
      ],
      "name": "updateOwnerIncremental",
      "outputs": [],
      "stateMutability": "nonpayable",
      "type": "function"
    },
    {
      "inputs": [
        {
          "internalType": "uint256",
          "name": "_treeId",
          "type": "uint256"
        },
        {
          "internalType": "address",
          "name": "_ownerId",
          "type": "address"
        }
      ],
      "name": "updateOwner",
      "outputs": [],
      "stateMutability": "nonpayable",
      "type": "function"
    },
    {
      "inputs": [
        {
          "internalType": "uint256",
          "name": "_treeId",
          "type": "uint256"
        }
      ],
      "name": "updateAvailability",
      "outputs": [],
      "stateMutability": "nonpayable",
      "type": "function"
    },
    {
      "inputs": [
        {
          "internalType": "uint256",
          "name": "_startTreeId",
          "type": "uint256"
        },
        {
          "internalType": "uint256",
          "name": "_endTreeId",
          "type": "uint256"
        }
      ],
      "name": "bulkRevert",
      "outputs": [],
      "stateMutability": "nonpayable",
      "type": "function"
    },
    {
      "inputs": [
        {
          "internalType": "uint256",
          "name": "_startTreeId",
          "type": "uint256"
        },
        {
          "internalType": "uint256",
          "name": "_endTreeId",
          "type": "uint256"
        }
      ],
      "name": "bulkAvailability",
      "outputs": [
        {
          "internalType": "bool",
          "name": "",
          "type": "bool"
        }
      ],
      "stateMutability": "nonpayable",
      "type": "function"
    },
    {
      "inputs": [
        {
          "internalType": "uint256",
          "name": "_treeId",
          "type": "uint256"
        },
        {
          "internalType": "address",
          "name": "_buyer",
          "type": "address"
        }
      ],
      "name": "checkMintStatus",
      "outputs": [
        {
          "internalType": "bool",
          "name": "",
          "type": "bool"
        }
      ],
      "stateMutability": "view",
      "type": "function",
      "constant": true
    },
    {
      "inputs": [
        {
          "internalType": "string",
          "name": "_treeSpecs",
          "type": "string"
        },
        {
          "internalType": "uint64",
          "name": "_birthDate",
          "type": "uint64"
        },
        {
          "internalType": "uint16",
          "name": "_countryCode",
          "type": "uint16"
        }
      ],
      "name": "regularPlantTree",
      "outputs": [],
      "stateMutability": "nonpayable",
      "type": "function"
    },
    {
      "inputs": [
        {
          "internalType": "uint256",
          "name": "_regularTreeId",
          "type": "uint256"
        },
        {
          "internalType": "bool",
          "name": "_isVerified",
          "type": "bool"
        }
      ],
      "name": "verifyRegularPlant",
      "outputs": [],
      "stateMutability": "nonpayable",
      "type": "function"
    },
    {
      "inputs": [
        {
          "internalType": "uint256",
          "name": "_lastSold",
          "type": "uint256"
        },
        {
          "internalType": "address",
          "name": "_owner",
          "type": "address"
        }
      ],
      "name": "mintRegularTrees",
      "outputs": [
        {
          "internalType": "uint256",
          "name": "",
          "type": "uint256"
        }
      ],
      "stateMutability": "nonpayable",
      "type": "function"
    },
    {
      "inputs": [
        {
          "internalType": "uint256",
          "name": "_treeId",
          "type": "uint256"
        },
        {
          "internalType": "address",
          "name": "_owner",
          "type": "address"
        }
      ],
      "name": "requestRegularTree",
      "outputs": [],
      "stateMutability": "nonpayable",
      "type": "function"
    }
  ],
  "bytecode": "0x608060405234801561001057600080fd5b506139cd806100206000396000f3fe608060405234801561001057600080fd5b50600436106102055760003560e01c806383310b2f1161011a578063d6762c4a116100ad578063e0eb4eb91161007c578063e0eb4eb9146104ec578063e9455157146104f9578063ef480f1e1461050c578063f5894a031461051f578063ff0c66e51461053257600080fd5b8063d6762c4a14610486578063da7422281461049e578063dffc3c5c146104b1578063e0c89c1e146104d957600080fd5b8063b7aad563116100e9578063b7aad56314610444578063bc92ff3c1461044d578063c4d66de814610460578063c83a30651461047357600080fd5b806383310b2f146103ea57806390f343d3146103fd5780639a27ccfa14610410578063b20cae541461042357600080fd5b8063572b6c051161019d5780636605bfda1161016c5780636605bfda146103775780636b703cf51461038a5780636fd5214b146103ab5780637192711f146103be5780637da0a877146103d157600080fd5b8063572b6c05146103165780635a54e88a1461033e5780635c8bbd2f1461035157806361d027b31461036457600080fd5b806343579af6116101d957806343579af61461029e57806348330cf6146102b1578063486ff0cd146102c45780634dc933ef1461030357600080fd5b8062615e721461020a57806312cc3ab01461023b5780632ed094611461026657806338f1f40f14610289575b600080fd5b61021d610218366004613440565b610557565b604051610232999897969594939291906136be565b60405180910390f35b60035461024e906001600160a01b031681565b6040516001600160a01b039091168152602001610232565b610279610274366004613621565b61065a565b6040519015158152602001610232565b61029c61029736600461337e565b61076c565b005b61029c6102ac3660046133dc565b610883565b61029c6102bf366004613440565b610ad2565b604080518082018252601d81527f322e322e302b747265656a65722e6972656c6179726563697069656e74000000602082015290516102329190613738565b61029c610311366004613567565b610b68565b61027961032436600461337e565b6000546201000090046001600160a01b0390811691161490565b61029c61034c3660046134f9565b610de5565b61029c61035f366004613621565b61108d565b60045461024e906001600160a01b031681565b61029c61038536600461337e565b61116b565b61039d610398366004613440565b611282565b60405161023292919061374b565b61029c6103b9366004613489565b61132f565b61029c6103cc366004613459565b611865565b60005461024e906201000090046001600160a01b031681565b60055461024e906001600160a01b031681565b61029c61040b3660046134ae565b61196b565b61027961041e366004613459565b611a80565b610436610431366004613459565b611b41565b604051908152602001610232565b61043660065481565b61029c61045b36600461337e565b611dba565b61029c61046e36600461337e565b611ed1565b61029c610481366004613489565b612032565b60025461024e9061010090046001600160a01b031681565b61029c6104ac36600461337e565b612438565b6104c46104bf366004613643565b6124d8565b60405163ffffffff9091168152602001610232565b61029c6104e7366004613489565b612694565b6002546102799060ff1681565b61029c610507366004613459565b612b41565b61029c61051a366004613459565b612cbc565b61029c61052d366004613459565b612d8e565b610545610540366004613440565b612f5a565b604051610232969594939291906137f0565b60076020526000908152604090208054600182015460028301546003840180546001600160a01b0390941694929361ffff808416946201000085049091169363ffffffff600160201b820416936001600160401b03600160401b8304811694600160801b8404821694600160c01b9094049091169291906105d7906138f2565b80601f0160208091040260200160405190810160405280929190818152602001828054610603906138f2565b80156106505780601f1061062557610100808354040283529160200191610650565b820191906000526020600020905b81548152906001019060200180831161063357829003601f168201915b5050505050905089565b60025460009061010090046001600160a01b0316632f0a0d4c61067b61303c565b6040516001600160e01b031960e084901b1681526001600160a01b03909116600482015260240160006040518083038186803b1580156106ba57600080fd5b505afa1580156106ce573d6000803e3d6000fd5b5085925050505b8281101561071d57600081815260076020526040902060020154600160201b900463ffffffff161561070b576000915050610766565b806107158161392d565b9150506106d5565b50825b82811015610760576000818152600760205260409020600201805463ffffffff60201b1916640200000000179055806107588161392d565b915050610720565b50600190505b92915050565b60025461010090046001600160a01b0316638413ec1461078a61303c565b6040516001600160e01b031960e084901b1681526001600160a01b03909116600482015260240160006040518083038186803b1580156107c957600080fd5b505afa1580156107dd573d6000803e3d6000fd5b505050506000819050806001600160a01b03166337b9fd776040518163ffffffff1660e01b815260040160206040518083038186803b15801561081f57600080fd5b505afa158015610833573d6000803e3d6000fd5b505050506040513d601f19601f8201168201806040525081019061085791906133bf565b61086057600080fd5b600380546001600160a01b0319166001600160a01b039290921691909117905550565b6005546001600160a01b031663b2dbbded61089c61303c565b6040516001600160e01b031960e084901b1681526001600160a01b039091166004820152602401602060405180830381600087803b1580156108dd57600080fd5b505af11580156108f1573d6000803e3d6000fd5b505050506040513d601f19601f8201168201806040525081019061091591906133bf565b61091e57600080fd5b6040518060c00160405280836001600160401b0316815260200161094142613076565b6001600160401b0316815261ffff831660208201526000604082015260600161096861303c565b6001600160a01b0316815260200185858080601f0160208091040260200160405190810160405280939291908181526020018383808284376000920182905250939094525050600154600992508152602080820192909252604090810160002083518154858501519386015160608701516001600160401b03908116600160c01b026001600160c01b03928216600160801b02929092166fffffffffffffffffffffffffffffffff968216600160401b026fffffffffffffffffffffffffffffffff19909416919094161791909117939093161791909117815560808301516001820180546001600160a01b039092166001600160a01b031990921691909117905560a083015180519192610a8592600285019290910190613147565b50506001547f10c0a85809ada5011c1b0222076d7aebe7695eef1c0e500cbba5a0fb67aa48be915060405190815260200160405180910390a1610acc600180546001019055565b50505050565b60025461010090046001600160a01b03166334d42454610af061303c565b6040516001600160e01b031960e084901b1681526001600160a01b03909116600482015260240160006040518083038186803b158015610b2f57600080fd5b505afa158015610b43573d6000803e3d6000fd5b505050600091825250600760205260409020600201805463ffffffff60201b19169055565b610b7061303c565b6000838152600760205260409020546001600160a01b03908116911614610bea5760405162461bcd60e51b8152602060048201526024808201527f4f6e6c7920506c616e746572206f6620747265652063616e2073656e642075706044820152636461746560e01b60648201526084015b60405180910390fd5b6000828152600760205260409020600201546003600160401b9091046001600160401b031611610c4f5760405162461bcd60e51b815260206004820152601060248201526f151c9959481b9bdd081c1b185b9d195960821b6044820152606401610be1565b60008281526008602052604090206001908101546001600160401b03161415610cba5760405162461bcd60e51b815260206004820152601d60248201527f7570646174652074726565207374617475732069732070656e64696e670000006044820152606401610be1565b600082815260076020526040902060020154610ce890600160401b90046001600160401b0316610e106138ac565b610cf5906201518061385f565b600083815260076020526040902060020154610d219190600160801b90046001600160401b031661385f565b6001600160401b0316421015610d715760405162461bcd60e51b81526020600482015260156024820152740aae0c8c2e8ca40e8d2daca40dcdee840e4cac2c6d605b1b6044820152606401610be1565b600082815260086020908152604090912082519091610d94918391850190613147565b506001818101805467ffffffffffffffff191690911790556040518381527fb02fa78938a60840517eef874d53897819ea37cc053e40aac321dc45dcfed4a8906020015b60405180910390a1505050565b6000858152600760205260409020600280820154600160401b90046001600160401b031614610e565760405162461bcd60e51b815260206004820152601d60248201527f696e76616c696420747265652073746174757320666f7220706c616e740000006044820152606401610be1565b6005546000906001600160a01b031663055644d6610e7261303c565b845460405160e084901b6001600160e01b03191681526001600160a01b03928316600482015291166024820152604401602060405180830381600087803b158015610ebc57600080fd5b505af1158015610ed0573d6000803e3d6000fd5b505050506040513d601f19601f82011682018060405250810190610ef491906133bf565b905080610f435760405162461bcd60e51b815260206004820152601a60248201527f706c616e74696e67207065726d697373696f6e2064656e6965640000000000006044820152606401610be1565b81546001600160a01b0316610f5661303c565b6001600160a01b031614610f8857610f6c61303c565b82546001600160a01b0319166001600160a01b03919091161782555b6000878152600860205260409020610fa18188886131c7565b506001818101805467ffffffffffffffff1916909117905560028301805463ffff0001600160c01b03166201000061ffff8716026001600160c01b031617600160c01b6001600160401b03881602179055610ffb42613076565b60028401805477ffffffffffffffffffffffffffffffff00000000000000001916600160801b6001600160401b03939093169290920267ffffffffffffffff60401b191691909117680300000000000000001790556040518881527f6efeb6d0d0a494d52bc4a4c7fce81b3374786e440b2459f8ef1d87f1700219079060200160405180910390a15050505050505050565b60025461010090046001600160a01b0316632f0a0d4c6110ab61303c565b6040516001600160e01b031960e084901b1681526001600160a01b03909116600482015260240160006040518083038186803b1580156110ea57600080fd5b505afa1580156110fe573d6000803e3d6000fd5b5084925050505b81811015611166576000818152600760205260409020600290810154600160201b900463ffffffff161415611154576000818152600760205260409020600201805463ffffffff60201b191690555b8061115e8161392d565b915050611105565b505050565b60025461010090046001600160a01b0316638413ec1461118961303c565b6040516001600160e01b031960e084901b1681526001600160a01b03909116600482015260240160006040518083038186803b1580156111c857600080fd5b505afa1580156111dc573d6000803e3d6000fd5b505050506000819050806001600160a01b031663842a3bdd6040518163ffffffff1660e01b815260040160206040518083038186803b15801561121e57600080fd5b505afa158015611232573d6000803e3d6000fd5b505050506040513d601f19601f8201168201806040525081019061125691906133bf565b61125f57600080fd5b600480546001600160a01b0319166001600160a01b039290921691909117905550565b60086020526000908152604090208054819061129d906138f2565b80601f01602080910402602001604051908101604052809291908181526020018280546112c9906138f2565b80156113165780601f106112eb57610100808354040283529160200191611316565b820191906000526020600020905b8154815290600101906020018083116112f957829003601f168201915b505050600190930154919250506001600160401b031682565b600260019054906101000a90046001600160a01b03166001600160a01b0316634d868f986040518163ffffffff1660e01b815260040160006040518083038186803b15801561137d57600080fd5b505afa158015611391573d6000803e3d6000fd5b5050505061139d61303c565b6000838152600760205260409020546001600160a01b03908116911614156113d75760405162461bcd60e51b8152600401610be1906137ad565b60008281526008602052604090206001908101546001600160401b0316146114415760405162461bcd60e51b815260206004820152601d60248201527f75706461746520737461747573206d7573742062652070656e64696e670000006044820152606401610be1565b6000828152600760205260409020600201546003600160401b9091046001600160401b0316116114a65760405162461bcd60e51b815260206004820152601060248201526f151c9959481b9bdd081c1b185b9d195960821b6044820152606401610be1565b60025461010090046001600160a01b03166324d7806c6114c461303c565b6040516001600160e01b031960e084901b1681526001600160a01b03909116600482015260240160206040518083038186803b15801561150357600080fd5b505afa158015611517573d6000803e3d6000fd5b505050506040513d601f19601f8201168201806040525081019061153b91906133bf565b806115ec57506005546000838152600760205260409020546001600160a01b03918216916355c3a79e911661156e61303c565b6040516001600160e01b031960e085901b1681526001600160a01b0392831660048201529116602482015260440160206040518083038186803b1580156115b457600080fd5b505afa1580156115c8573d6000803e3d6000fd5b505050506040513d601f19601f820116820180604052508101906115ec91906133bf565b6116085760405162461bcd60e51b8152600401610be190613776565b6000828152600860205260409020811561181d57600083815260076020526040812060018301805467ffffffffffffffff19166003179055600281015490919061167990610e109061166a90600160801b90046001600160401b0316426138db565b611674919061388a565b6130e2565b6002830154909150600160401b90046001600160401b031663ffffffff821611156116c35760028201805467ffffffffffffffff60401b191663ffffffff8316600160401b021790555b8254600383019084906116d5906138f2565b6116e092919061323b565b50600354604051634f558e7960e01b8152600481018790526001600160a01b0390911690634f558e799060240160206040518083038186803b15801561172557600080fd5b505afa158015611739573d6000803e3d6000fd5b505050506040513d601f19601f8201168201806040525081019061175d91906133bf565b156117e3576004805483546002850154604051635182e6f760e11b81529384018990526001600160a01b039182166024850152600160401b90046001600160401b03166044840152169063a305cdee90606401600060405180830381600087803b1580156117ca57600080fd5b505af11580156117de573d6000803e3d6000fd5b505050505b6040518581527f9a54caca395ee556cf002513d32eff0d2e5a089a5876960d1f91242c8fafedc39060200160405180910390a15050505050565b60018101805467ffffffffffffffff191660021790556040517f0a4273908b9362e571cacd5610879e3dfd7ddc7c9b3ce1d7ea7ea8b41869116490610dd89085815260200190565b60025461010090046001600160a01b03166334d4245461188361303c565b6040516001600160e01b031960e084901b1681526001600160a01b03909116600482015260240160006040518083038186803b1580156118c257600080fd5b505afa1580156118d6573d6000803e3d6000fd5b505050600083815260076020526040908190206002908101805467ffffffff0000ffff191690911790556003549051632851206560e21b81526001600160a01b03848116600483015260248201869052909116915063a1448194906044015b600060405180830381600087803b15801561194f57600080fd5b505af1158015611963573d6000803e3d6000fd5b505050505050565b60025461010090046001600160a01b0316638413ec1461198961303c565b6040516001600160e01b031960e084901b1681526001600160a01b03909116600482015260240160006040518083038186803b1580156119c857600080fd5b505afa1580156119dc573d6000803e3d6000fd5b505050600084815260076020526040902060020154600160401b90046001600160401b0316159050611a415760405162461bcd60e51b815260206004820152600e60248201526d6475706c6963617465207472656560901b6044820152606401610be1565b600083815260076020526040902060028101805467ffffffffffffffff60401b1916600160411b179055611a796003820184846131c7565b5050505050565b60008281526007602052604081206002015461ffff166001811480611aa957508061ffff166002145b8015611b3957506003546040516331a9108f60e11b8152600481018690526001600160a01b03858116921690636352211e9060240160206040518083038186803b158015611af657600080fd5b505afa158015611b0a573d6000803e3d6000fd5b505050506040513d601f19601f82011682018060405250810190611b2e91906133a2565b6001600160a01b0316145b949350505050565b60025460009061010090046001600160a01b0316632e0b2731611b6261303c565b6040516001600160e01b031960e084901b1681526001600160a01b03909116600482015260240160006040518083038186803b158015611ba157600080fd5b505afa158015611bb5573d6000803e3d6000fd5b505050506000836001611bc89190613847565b60008181526007602052604081206002015491925090600160401b90046001600160401b0316158015611c175750600082815260076020526040902060020154600160201b900463ffffffff16155b80611c6d5750600082815260076020526040902060020154600160401b90046001600160401b03166004148015611c6d575060008281526007602052604090206002015463ffffffff600160201b909104166004145b90505b80611d2b57611c80826001613847565b600081815260076020526040902060020154909250600160401b90046001600160401b0316158015611cce5750600082815260076020526040902060020154600160201b900463ffffffff16155b80611d245750600082815260076020526040902060020154600160401b90046001600160401b03166004148015611d24575060008281526007602052604090206002015463ffffffff600160201b909104166004145b9050611c70565b60008281526007602052604090819020600201805463ffffffff60201b191690556003549051632851206560e21b81526001600160a01b038681166004830152602482018590529091169063a144819490604401600060405180830381600087803b158015611d9957600080fd5b505af1158015611dad573d6000803e3d6000fd5b5093979650505050505050565b60025461010090046001600160a01b0316638413ec14611dd861303c565b6040516001600160e01b031960e084901b1681526001600160a01b03909116600482015260240160006040518083038186803b158015611e1757600080fd5b505afa158015611e2b573d6000803e3d6000fd5b505050506000819050806001600160a01b03166303dc8deb6040518163ffffffff1660e01b815260040160206040518083038186803b158015611e6d57600080fd5b505afa158015611e81573d6000803e3d6000fd5b505050506040513d601f19601f82011682018060405250810190611ea591906133bf565b611eae57600080fd5b600580546001600160a01b0319166001600160a01b039290921691909117905550565b600054610100900460ff1680611eea575060005460ff16155b611f4d5760405162461bcd60e51b815260206004820152602e60248201527f496e697469616c697a61626c653a20636f6e747261637420697320616c72656160448201526d191e481a5b9a5d1a585b1a5e995960921b6064820152608401610be1565b600054610100900460ff16158015611f6f576000805461ffff19166101011790555b6000829050806001600160a01b031663ba84fd696040518163ffffffff1660e01b815260040160206040518083038186803b158015611fad57600080fd5b505afa158015611fc1573d6000803e3d6000fd5b505050506040513d601f19601f82011682018060405250810190611fe591906133bf565b611fee57600080fd5b600280546001600160a01b03909216610100026001600160a81b0319909216919091176001179055612710600655801561202e576000805461ff00191690555b5050565b600260019054906101000a90046001600160a01b03166001600160a01b0316634d868f986040518163ffffffff1660e01b815260040160006040518083038186803b15801561208057600080fd5b505afa158015612094573d6000803e3d6000fd5b50505060008381526007602052604090206002810154909150600160401b90046001600160401b03166003146121025760405162461bcd60e51b8152602060048201526013602482015272696e76616c696420747265652073746174757360681b6044820152606401610be1565b61210a61303c565b81546001600160a01b03908116911614156121735760405162461bcd60e51b815260206004820152602360248201527f506c616e746572206f6620747265652063616e2774206163636570742075706460448201526261746560e81b6064820152608401610be1565b60025461010090046001600160a01b03166324d7806c61219161303c565b6040516001600160e01b031960e084901b1681526001600160a01b03909116600482015260240160206040518083038186803b1580156121d057600080fd5b505afa1580156121e4573d6000803e3d6000fd5b505050506040513d601f19601f8201168201806040525081019061220891906133bf565b806122ac575060055481546001600160a01b03918216916355c3a79e911661222e61303c565b6040516001600160e01b031960e085901b1681526001600160a01b0392831660048201529116602482015260440160206040518083038186803b15801561227457600080fd5b505afa158015612288573d6000803e3d6000fd5b505050506040513d601f19601f820116820180604052508101906122ac91906133bf565b6122c85760405162461bcd60e51b8152600401610be190613776565b60008381526008602052604090208215612366578054600383019082906122ee906138f2565b6122f992919061323b565b5060028201805467ffffffffffffffff60401b1916600160421b179055600181018054600367ffffffffffffffff199091161790556040518481527f6669191701e4d341365a455d2b62b30c5bf1c8af5e2c87a840393c082e9b0a559060200160405180910390a1610acc565b6002828101805467ffffffffffffffff60401b1916600160411b17905560018201805467ffffffffffffffff191690911790556005548254604051630f937c7b60e31b81526001600160a01b039182166004820152911690637c9be3d890602401600060405180830381600087803b1580156123e157600080fd5b505af11580156123f5573d6000803e3d6000fd5b505050507f31a5e19037d478f1ff15cac02bada2e480111da92d1ebdcf9edd73b3560049fd8460405161242a91815260200190565b60405180910390a150505050565b60025461010090046001600160a01b0316638413ec1461245661303c565b6040516001600160e01b031960e084901b1681526001600160a01b03909116600482015260240160006040518083038186803b15801561249557600080fd5b505afa1580156124a9573d6000803e3d6000fd5b5050600080546001600160a01b03909416620100000262010000600160b01b0319909416939093179092555050565b60025460009061010090046001600160a01b03166334d424546124f961303c565b6040516001600160e01b031960e084901b1681526001600160a01b03909116600482015260240160006040518083038186803b15801561253857600080fd5b505afa15801561254c573d6000803e3d6000fd5b505050600084815260076020526040902060020154849150600160401b90046001600160401b03166125af5760405162461bcd60e51b815260206004820152600c60248201526b696e76616c6964207472656560a01b6044820152606401610be1565b600354604051634f558e7960e01b8152600481018690526001600160a01b0390911690634f558e799060240160206040518083038186803b1580156125f357600080fd5b505afa158015612607573d6000803e3d6000fd5b505050506040513d601f19601f8201168201806040525081019061262b91906133bf565b15612639576001915061268d565b600084815260076020526040902060020154600160201b900463ffffffff1680611b39576000858152600760205260409020600201805463ffffffff60201b1916600160201b63ffffffff87160217905591505b5092915050565b60008281526009602052604090206126aa61303c565b60018201546001600160a01b03908116911614156126da5760405162461bcd60e51b8152600401610be1906137ad565b60025461010090046001600160a01b03166324d7806c6126f861303c565b6040516001600160e01b031960e084901b1681526001600160a01b03909116600482015260240160206040518083038186803b15801561273757600080fd5b505afa15801561274b573d6000803e3d6000fd5b505050506040513d601f19601f8201168201806040525081019061276f91906133bf565b80612816575060055460018201546001600160a01b03918216916355c3a79e911661279861303c565b6040516001600160e01b031960e085901b1681526001600160a01b0392831660048201529116602482015260440160206040518083038186803b1580156127de57600080fd5b505afa1580156127f2573d6000803e3d6000fd5b505050506040513d601f19601f8201168201806040525081019061281691906133bf565b6128325760405162461bcd60e51b8152600401610be190613776565b8054600160401b90046001600160401b03166128885760405162461bcd60e51b81526020600482015260156024820152741c9959dd5b185c951c9959481b9bdd08195e1a5cdd605a1b6044820152606401610be1565b8115612adc576000600654600161289f9190613847565b90505b600081815260076020526040902060020154600160401b90046001600160401b03161580156128ed5750600081815260076020526040902060020154600160201b900463ffffffff16155b612903576128fc816001613847565b90506128a2565b60068190556000818152600760205260409020825460028083018054600160801b6001600160401b03600160401b9095048516810267ffffffffffffffff60801b19831681178455885461ffff92900491909116620100000263ffff00001990911677ffffffffffffffff000000000000000000000000ffff00001990921691909117178082558654600160c01b9416939093026001600160c01b0390931692909217909155830180546003830191906129bc906138f2565b6129c792919061323b565b50600183015481546001600160a01b039182166001600160a01b031990911617825560028201805467ffffffffffffffff60401b1916600160421b179055600354600654604051634f558e7960e01b81526004810191909152911690634f558e799060240160206040518083038186803b158015612a4457600080fd5b505afa158015612a58573d6000803e3d6000fd5b505050506040513d601f19601f82011682018060405250810190612a7c91906133bf565b612a9a5760028101805463ffffffff60201b19166404000000001790555b7fd6300cad506c4878602f102fc33c886ad30ee45cdb158c12525b7ccba9af5518600654604051612acd91815260200190565b60405180910390a15050612b10565b6040518381527f2d5d033d28c61a193a3b59cd41d5daa0f6c1c19729c30c447d64c02c01485aad9060200160405180910390a15b60008381526009602052604081208181556001810180546001600160a01b031916905590611a7960028301826132b6565b60025461010090046001600160a01b0316632e0b2731612b5f61303c565b6040516001600160e01b031960e084901b1681526001600160a01b03909116600482015260240160006040518083038186803b158015612b9e57600080fd5b505afa158015612bb2573d6000803e3d6000fd5b50505060008381526007602052604090206002810154909150600160401b90046001600160401b03166004148015612bfc5750600281015463ffffffff600160201b909104166004145b612c3f5760405162461bcd60e51b81526020600482015260146024820152731d1c9959481b5d5cdd081899481c1b185b9d195960621b6044820152606401610be1565b60028101805463ffffffff60201b19169055600354604051632851206560e21b81526001600160a01b038481166004830152602482018690529091169063a144819490604401600060405180830381600087803b158015612c9f57600080fd5b505af1158015612cb3573d6000803e3d6000fd5b50505050505050565b60025461010090046001600160a01b0316632f0a0d4c612cda61303c565b6040516001600160e01b031960e084901b1681526001600160a01b03909116600482015260240160006040518083038186803b158015612d1957600080fd5b505afa158015612d2d573d6000803e3d6000fd5b50505060008381526007602052604090819020600201805467ffffffff0000ffff191660011790556003549051632851206560e21b81526001600160a01b03848116600483015260248201869052909116915063a144819490604401611935565b60025461010090046001600160a01b0316638413ec14612dac61303c565b6040516001600160e01b031960e084901b1681526001600160a01b03909116600482015260240160006040518083038186803b158015612deb57600080fd5b505afa158015612dff573d6000803e3d6000fd5b5050506000838152600760205260409020600280820154919250600160401b9091046001600160401b031614612e705760405162461bcd60e51b815260206004820152601660248201527534b73b30b634b2103a3932b2903a379030b9b9b4b3b760511b6044820152606401610be1565b60055460405163df385cbd60e01b81526001600160a01b0384811660048301529091169063df385cbd9060240160206040518083038186803b158015612eb557600080fd5b505afa158015612ec9573d6000803e3d6000fd5b505050506040513d601f19601f82011682018060405250810190612eed91906133bf565b612f395760405162461bcd60e51b815260206004820152601c60248201527f63616e27742061737369676e207472656520746f20706c616e746572000000006044820152606401610be1565b80546001600160a01b0319166001600160a01b039290921691909117905550565b6009602052600090815260409020805460018201546002830180546001600160401b0380851695600160401b8604821695600160801b8104831695600160c01b909104909216936001600160a01b0390921692909190612fb9906138f2565b80601f0160208091040260200160405190810160405280929190818152602001828054612fe5906138f2565b80156130325780601f1061300757610100808354040283529160200191613032565b820191906000526020600020905b81548152906001019060200180831161301557829003601f168201915b5050505050905086565b60006014361080159061305f57506000546201000090046001600160a01b031633145b15613071575060131936013560601c90565b503390565b60006001600160401b038211156130de5760405162461bcd60e51b815260206004820152602660248201527f53616665436173743a2076616c756520646f65736e27742066697420696e203660448201526534206269747360d01b6064820152608401610be1565b5090565b600063ffffffff8211156130de5760405162461bcd60e51b815260206004820152602660248201527f53616665436173743a2076616c756520646f65736e27742066697420696e203360448201526532206269747360d01b6064820152608401610be1565b828054613153906138f2565b90600052602060002090601f01602090048101928261317557600085556131bb565b82601f1061318e57805160ff19168380011785556131bb565b828001600101855582156131bb579182015b828111156131bb5782518255916020019190600101906131a0565b506130de9291506132f3565b8280546131d3906138f2565b90600052602060002090601f0160209004810192826131f557600085556131bb565b82601f1061320e5782800160ff198235161785556131bb565b828001600101855582156131bb579182015b828111156131bb578235825591602001919060010190613220565b828054613247906138f2565b90600052602060002090601f01602090048101928261326957600085556131bb565b82601f1061327a57805485556131bb565b828001600101855582156131bb57600052602060002091601f016020900482015b828111156131bb57825482559160010191906001019061329b565b5080546132c2906138f2565b6000825580601f106132d2575050565b601f0160209004906000526020600020908101906132f091906132f3565b50565b5b808211156130de57600081556001016132f4565b60008083601f84011261331a57600080fd5b5081356001600160401b0381111561333157600080fd5b60208301915083602082850101111561334957600080fd5b9250929050565b803561ffff8116811461336257600080fd5b919050565b80356001600160401b038116811461336257600080fd5b60006020828403121561339057600080fd5b813561339b81613974565b9392505050565b6000602082840312156133b457600080fd5b815161339b81613974565b6000602082840312156133d157600080fd5b815161339b81613989565b600080600080606085870312156133f257600080fd5b84356001600160401b0381111561340857600080fd5b61341487828801613308565b9095509350613427905060208601613367565b915061343560408601613350565b905092959194509250565b60006020828403121561345257600080fd5b5035919050565b6000806040838503121561346c57600080fd5b82359150602083013561347e81613974565b809150509250929050565b6000806040838503121561349c57600080fd5b82359150602083013561347e81613989565b6000806000604084860312156134c357600080fd5b8335925060208401356001600160401b038111156134e057600080fd5b6134ec86828701613308565b9497909650939450505050565b60008060008060006080868803121561351157600080fd5b8535945060208601356001600160401b0381111561352e57600080fd5b61353a88828901613308565b909550935061354d905060408701613367565b915061355b60608701613350565b90509295509295909350565b6000806040838503121561357a57600080fd5b8235915060208301356001600160401b038082111561359857600080fd5b818501915085601f8301126135ac57600080fd5b8135818111156135be576135be61395e565b604051601f8201601f19908116603f011681019083821181831017156135e6576135e661395e565b816040528281528860208487010111156135ff57600080fd5b8260208601602083013760006020848301015280955050505050509250929050565b6000806040838503121561363457600080fd5b50508035926020909101359150565b6000806040838503121561365657600080fd5b82359150602083013563ffffffff8116811461347e57600080fd5b6000815180845260005b818110156136975760208185018101518683018201520161367b565b818111156136a9576000602083870101525b50601f01601f19169290920160200192915050565b6001600160a01b038a1681526020810189905261ffff88811660408301528716606082015263ffffffff861660808201526001600160401b0385811660a083015284811660c0830152831660e0820152610120610100820181905260009061372883820185613671565b9c9b505050505050505050505050565b60208152600061339b6020830184613671565b60408152600061375e6040830185613671565b90506001600160401b03831660208301529392505050565b60208082526018908201527f696e76616c69642061636365737320746f207665726966790000000000000000604082015260600190565b60208082526023908201527f506c616e746572206f6620747265652063616e2774207665726966792075706460408201526261746560e81b606082015260800190565b6001600160401b03878116825286811660208301528581166040830152841660608201526001600160a01b038316608082015260c060a0820181905260009061383b90830184613671565b98975050505050505050565b6000821982111561385a5761385a613948565b500190565b60006001600160401b0380831681851680830382111561388157613881613948565b01949350505050565b6000826138a757634e487b7160e01b600052601260045260246000fd5b500490565b60006001600160401b03808316818516818304811182151516156138d2576138d2613948565b02949350505050565b6000828210156138ed576138ed613948565b500390565b600181811c9082168061390657607f821691505b6020821081141561392757634e487b7160e01b600052602260045260246000fd5b50919050565b600060001982141561394157613941613948565b5060010190565b634e487b7160e01b600052601160045260246000fd5b634e487b7160e01b600052604160045260246000fd5b6001600160a01b03811681146132f057600080fd5b80151581146132f057600080fdfea26469706673582212205d2a58040feb0478823f469af17a80bdaf8f050aef5e20ad459ec0d73254792564736f6c63430008060033",
  "immutableReferences": {},
  "source": "//SPDX-License-Identifier: MIT\n\npragma solidity ^0.8.6;\n\nimport \"@openzeppelin/contracts-upgradeable/utils/math/SafeCastUpgradeable.sol\";\n\nimport \"@openzeppelin/contracts-upgradeable/utils/CountersUpgradeable.sol\";\nimport \"@openzeppelin/contracts-upgradeable/proxy/utils/Initializable.sol\";\nimport \"../access/IAccessRestriction.sol\";\nimport \"../gsn/RelayRecipient.sol\";\nimport \"../tree/ITree.sol\";\nimport \"../treasury/ITreasury.sol\";\nimport \"../planter/IPlanter.sol\";\n\ncontract TreeFactory is Initializable, RelayRecipient {\n    using CountersUpgradeable for CountersUpgradeable.Counter;\n    using SafeCastUpgradeable for uint256;\n    using SafeCastUpgradeable for uint32;\n\n    CountersUpgradeable.Counter private regularTreeId;\n\n    bool public isTreeFactory;\n\n    IAccessRestriction public accessRestriction;\n    ITree public treeToken;\n    ITreasury public treasury;\n    IPlanter public planter;\n\n    uint256 public lastRegularPlantedTree;\n\n    struct TreeStruct {\n        address planterId;\n        uint256 treeType;\n        uint16 mintStatus;\n        uint16 countryCode;\n        uint32 provideStatus;\n        uint64 treeStatus;\n        uint64 plantDate;\n        uint64 birthDate;\n        string treeSpecs;\n    }\n\n    struct UpdateTree {\n        string updateSpecs;\n        uint64 updateStatus;\n    }\n\n    struct RegularTree {\n        uint64 birthDate;\n        uint64 plantDate;\n        uint64 countryCode;\n        uint64 otherData;\n        address planterAddress;\n        string treeSpecs;\n    }\n\n    mapping(uint256 => TreeStruct) public treeData; //tree id to TreeStruct struct\n    mapping(uint256 => UpdateTree) public updateTrees; //tree id to UpdateTree struct\n    mapping(uint256 => RegularTree) public regularTrees; //tree id to RegularTree struct\n\n    event TreePlanted(uint256 treeId);\n    event PlantVerified(uint256 treeId);\n    event PlantRejected(uint256 treeId);\n    event TreeUpdated(uint256 treeId);\n    event UpdateVerified(uint256 treeId);\n    event UpdateRejected(uint256 treeId);\n    event RegularTreePlanted(uint256 treeId);\n    event RegularPlantVerified(uint256 treeId);\n    event RegularPlantRejected(uint256 treeId);\n\n    modifier onlyAdmin() {\n        accessRestriction.ifAdmin(_msgSender());\n        _;\n    }\n\n    modifier ifNotPaused() {\n        accessRestriction.ifNotPaused();\n        _;\n    }\n\n    modifier onlyAuction() {\n        accessRestriction.ifAuction(_msgSender());\n        _;\n    }\n\n    modifier onlyIncremental() {\n        accessRestriction.ifIncrementalSell(_msgSender());\n        _;\n    }\n\n    modifier onlyIncrementalSellOrAuction {\n        accessRestriction.ifIncrementalSellOrAuction(_msgSender());\n        _;\n    }\n    modifier validTree(uint256 _treeId) {\n        require(treeData[_treeId].treeStatus > 0, \"invalid tree\");\n        _;\n    }\n\n    modifier onlyRegularSellContract() {\n        accessRestriction.ifRegularSell(_msgSender());\n        _;\n    }\n\n    function initialize(address _accessRestrictionAddress) public initializer {\n        IAccessRestriction candidateContract = IAccessRestriction(\n            _accessRestrictionAddress\n        );\n\n        require(candidateContract.isAccessRestriction());\n\n        isTreeFactory = true;\n        accessRestriction = candidateContract;\n        lastRegularPlantedTree = 10000;\n    }\n\n    function setTrustedForwarder(address _address) external onlyAdmin {\n        trustedForwarder = _address;\n    }\n\n    function setTreasuryAddress(address _address) external onlyAdmin {\n        ITreasury candidateContract = ITreasury(_address);\n\n        require(candidateContract.isTreasury());\n\n        treasury = candidateContract;\n    }\n\n    function setPlanterAddress(address _address) external onlyAdmin {\n        IPlanter candidateContract = IPlanter(_address);\n\n        require(candidateContract.isPlanter());\n\n        planter = candidateContract;\n    }\n\n    function setTreeTokenAddress(address _address) external onlyAdmin {\n        ITree candidateContract = ITree(_address);\n\n        require(candidateContract.isTree());\n\n        treeToken = candidateContract;\n    }\n\n    function addTree(uint256 _treeId, string calldata _treeDescription)\n        external\n        onlyAdmin\n    {\n        require(treeData[_treeId].treeStatus == 0, \"duplicate tree\");\n\n        TreeStruct storage tree = treeData[_treeId];\n\n        tree.treeStatus = 2;\n        tree.treeSpecs = _treeDescription;\n    }\n\n    function assignTreeToPlanter(uint256 _treeId, address _planterId)\n        external\n        onlyAdmin\n    {\n        TreeStruct storage tempTree = treeData[_treeId];\n\n        require(tempTree.treeStatus == 2, \"invalid tree to assign\");\n\n        require(\n            planter.canAssignTreeToPlanter(_planterId),\n            \"can't assign tree to planter\"\n        );\n\n        tempTree.planterId = _planterId;\n    }\n\n    function plantTree(\n        uint256 _treeId,\n        string calldata _treeSpecs,\n        uint64 _birthDate,\n        uint16 _countryCode\n    ) external {\n        TreeStruct storage tempGenTree = treeData[_treeId];\n\n        require(tempGenTree.treeStatus == 2, \"invalid tree status for plant\");\n\n        bool _canPlant = planter.plantingPermission(\n            _msgSender(),\n            tempGenTree.planterId\n        );\n\n        require(_canPlant, \"planting permission denied\");\n\n        if (_msgSender() != tempGenTree.planterId) {\n            tempGenTree.planterId = _msgSender();\n        }\n\n        UpdateTree storage updateGenTree = updateTrees[_treeId];\n\n        updateGenTree.updateSpecs = _treeSpecs;\n        updateGenTree.updateStatus = 1;\n\n        tempGenTree.countryCode = _countryCode;\n        tempGenTree.birthDate = _birthDate;\n        tempGenTree.plantDate = block.timestamp.toUint64();\n        tempGenTree.treeStatus = 3;\n\n        emit TreePlanted(_treeId);\n    }\n\n    function verifyPlant(uint256 _treeId, bool _isVerified)\n        external\n        ifNotPaused\n    {\n        TreeStruct storage tempGenTree = treeData[_treeId];\n\n        require(tempGenTree.treeStatus == 3, \"invalid tree status\");\n\n        require(\n            tempGenTree.planterId != _msgSender(),\n            \"Planter of tree can't accept update\"\n        );\n\n        require(\n            accessRestriction.isAdmin(_msgSender()) ||\n                planter.canVerify(tempGenTree.planterId, _msgSender()),\n            \"invalid access to verify\"\n        );\n\n        UpdateTree storage tempUpdateGenTree = updateTrees[_treeId];\n\n        if (_isVerified) {\n            tempGenTree.treeSpecs = tempUpdateGenTree.updateSpecs;\n            tempGenTree.treeStatus = 4;\n            tempUpdateGenTree.updateStatus = 3;\n\n            emit PlantVerified(_treeId);\n        } else {\n            tempGenTree.treeStatus = 2;\n            tempUpdateGenTree.updateStatus = 2;\n            planter.reducePlantCount(tempGenTree.planterId);\n\n            emit PlantRejected(_treeId);\n        }\n    }\n\n    function updateTree(uint256 _treeId, string memory _treeSpecs) external {\n        require(\n            treeData[_treeId].planterId == _msgSender(),\n            \"Only Planter of tree can send update\"\n        );\n\n        require(treeData[_treeId].treeStatus > 3, \"Tree not planted\");\n\n        require(\n            updateTrees[_treeId].updateStatus != 1,\n            \"update tree status is pending\"\n        );\n\n        require(\n            block.timestamp >=\n                treeData[_treeId].plantDate +\n                    ((treeData[_treeId].treeStatus * 3600) + 86400),\n            \"Update time not reach\"\n        );\n\n        UpdateTree storage updateGenTree = updateTrees[_treeId];\n\n        updateGenTree.updateSpecs = _treeSpecs;\n        updateGenTree.updateStatus = 1;\n\n        emit TreeUpdated(_treeId);\n    }\n\n    function verifyUpdate(uint256 _treeId, bool _isVerified)\n        external\n        ifNotPaused\n    {\n        require(\n            treeData[_treeId].planterId != _msgSender(),\n            \"Planter of tree can't verify update\"\n        );\n\n        require(\n            updateTrees[_treeId].updateStatus == 1,\n            \"update status must be pending\"\n        );\n\n        require(treeData[_treeId].treeStatus > 3, \"Tree not planted\");\n\n        require(\n            accessRestriction.isAdmin(_msgSender()) ||\n                planter.canVerify(treeData[_treeId].planterId, _msgSender()),\n            \"invalid access to verify\"\n        );\n\n        UpdateTree storage updateGenTree = updateTrees[_treeId];\n\n        if (_isVerified) {\n            TreeStruct storage tree = treeData[_treeId];\n\n            updateGenTree.updateStatus = 3;\n\n            uint32 age = ((block.timestamp - treeData[_treeId].plantDate) /\n                3600)\n            .toUint32();\n\n            if (age > tree.treeStatus) {\n                tree.treeStatus = age;\n            }\n\n            tree.treeSpecs = updateGenTree.updateSpecs;\n\n            if (treeToken.exists(_treeId)) {\n                treasury.fundPlanter(_treeId, tree.planterId, tree.treeStatus);\n            }\n\n            emit UpdateVerified(_treeId);\n        } else {\n            updateGenTree.updateStatus = 2;\n\n            emit UpdateRejected(_treeId);\n        }\n    }\n\n    function availability(uint256 _treeId, uint32 _provideType)\n        external\n        onlyAuction\n        validTree(_treeId)\n        returns (uint32)\n    {\n        if (treeToken.exists(_treeId)) {\n            return 1;\n        }\n\n        uint32 nowProvideStatus = treeData[_treeId].provideStatus;\n\n        if (nowProvideStatus == 0) {\n            treeData[_treeId].provideStatus = _provideType;\n        }\n\n        return nowProvideStatus;\n    }\n\n    function updateOwnerIncremental(uint256 _treeId, address _ownerId)\n        external\n        onlyIncremental\n    {\n        treeData[_treeId].provideStatus = 0;\n        treeData[_treeId].mintStatus = 1;\n        treeToken.safeMint(_ownerId, _treeId);\n    }\n\n    function updateOwner(uint256 _treeId, address _ownerId)\n        external\n        onlyAuction\n    {\n        treeData[_treeId].provideStatus = 0;\n        treeData[_treeId].mintStatus = 2;\n        treeToken.safeMint(_ownerId, _treeId);\n    }\n\n    function updateAvailability(uint256 _treeId) external onlyAuction {\n        treeData[_treeId].provideStatus = 0;\n    }\n\n    //cancel all old incremental sell of trees\n    function bulkRevert(uint256 _startTreeId, uint256 _endTreeId)\n        external\n        onlyIncremental\n    {\n        for (uint256 i = _startTreeId; i < _endTreeId; i++) {\n            if (treeData[i].provideStatus == 2) {\n                treeData[i].provideStatus = 0;\n            }\n        }\n    }\n\n    //set incremental sell for trees\n    function bulkAvailability(uint256 _startTreeId, uint256 _endTreeId)\n        external\n        onlyIncremental\n        returns (bool)\n    {\n        for (uint256 i = _startTreeId; i < _endTreeId; i++) {\n            if (treeData[i].provideStatus > 0) {\n                return false;\n            }\n        }\n        for (uint256 j = _startTreeId; j < _endTreeId; j++) {\n            treeData[j].provideStatus = 2;\n        }\n        return true;\n    }\n\n    function checkMintStatus(uint256 _treeId, address _buyer)\n        external\n        view\n        returns (bool)\n    {\n        uint16 minted = treeData[_treeId].mintStatus;\n        return ((minted == 1 || minted == 2) &&\n            treeToken.ownerOf(_treeId) == _buyer);\n    }\n\n    // function updateTreefromOffer(\n    //     uint256 _treeId,\n    //     string memory _specsCid,\n    //     address _owner\n    // ) external onlyAuction {\n    //     treeData[_treeId].provideStatus = 0;\n\n    //     treeData[_treeId].treeSpecs = _specsCid;\n\n    //     treeToken.safeMint(_owner, _treeId);\n    // }\n\n    /**\n     * @dev This function is called by planter who have planted a new tree\n     * The planter enters the information of the new tree\n     * Information is stored in The {regularTrees} mapping\n     * And finally the tree is waiting for approval\n     *\n     *\n     * @param _treeSpecs //TODO: what is _treeSpecs ??\n     * @param _birthDate birthDate of the tree\n     * @param _countryCode Code of the country where the tree was planted\n     */\n    function regularPlantTree(\n        string calldata _treeSpecs,\n        uint64 _birthDate,\n        uint16 _countryCode\n    ) external {\n        require(planter.planterCheck(_msgSender()));\n\n        regularTrees[regularTreeId.current()] = RegularTree(\n            _birthDate,\n            block.timestamp.toUint64(),\n            _countryCode,\n            0,\n            _msgSender(),\n            _treeSpecs\n        );\n\n        emit RegularTreePlanted(regularTreeId.current());\n\n        regularTreeId.increment();\n    }\n\n    /**\n     * @dev In this function, the admin approves or rejects the pending trees\n     * After calling this function, if the tree is approved the tree information will be transferred to the {treeData}\n     *\n     * @param _regularTreeId _regularTreeId\n     * @param _isVerified Tree approved or not\n     */\n    function verifyRegularPlant(uint256 _regularTreeId, bool _isVerified)\n        external\n    {\n        RegularTree storage regularTree = regularTrees[_regularTreeId];\n\n        require(\n            regularTree.planterAddress != _msgSender(),\n            \"Planter of tree can't verify update\"\n        );\n\n        require(\n            accessRestriction.isAdmin(_msgSender()) ||\n                planter.canVerify(regularTree.planterAddress, _msgSender()),\n            \"invalid access to verify\"\n        );\n\n        require(regularTree.plantDate > 0, \"regularTree not exist\");\n\n        if (_isVerified) {\n            uint256 tempLastRegularPlantedTree = lastRegularPlantedTree + 1;\n\n            while (\n                !(treeData[tempLastRegularPlantedTree].treeStatus == 0 &&\n                    treeData[tempLastRegularPlantedTree].provideStatus == 0)\n            ) {\n                tempLastRegularPlantedTree = tempLastRegularPlantedTree + 1;\n            }\n\n            lastRegularPlantedTree = tempLastRegularPlantedTree;\n\n            TreeStruct storage tree = treeData[lastRegularPlantedTree];\n\n            tree.plantDate = regularTree.plantDate;\n            tree.countryCode = uint16(regularTree.countryCode);\n            tree.birthDate = regularTree.birthDate;\n            tree.treeSpecs = regularTree.treeSpecs;\n            tree.planterId = regularTree.planterAddress;\n            tree.treeStatus = 4;\n\n            if (!treeToken.exists(lastRegularPlantedTree)) {\n                tree.provideStatus = 4;\n            }\n            emit RegularPlantVerified(lastRegularPlantedTree);\n        } else {\n            emit RegularPlantRejected(_regularTreeId);\n        }\n\n        delete regularTrees[_regularTreeId];\n    }\n\n    /**\n     * @dev Transfer ownership of trees purchased by funders and Update the last tree sold\n     * This function is called only by the regularSell contract\n     *\n     * @param _lastSold The last tree sold in the regular\n     * @param _owner Owner of a new tree sold in Regular\n     *\n     *\n     * @return The last tree sold after update\n     */\n    function mintRegularTrees(uint256 _lastSold, address _owner)\n        external\n        onlyRegularSellContract\n        returns (uint256)\n    {\n        uint256 localLastSold = _lastSold + 1;\n\n        bool flag = (treeData[localLastSold].treeStatus == 0 &&\n            treeData[localLastSold].provideStatus == 0) ||\n            (treeData[localLastSold].treeStatus == 4 &&\n                treeData[localLastSold].provideStatus == 4);\n\n        while (!flag) {\n            localLastSold = localLastSold + 1;\n\n            flag =\n                (treeData[localLastSold].treeStatus == 0 &&\n                    treeData[localLastSold].provideStatus == 0) ||\n                (treeData[localLastSold].treeStatus == 4 &&\n                    treeData[localLastSold].provideStatus == 4);\n        }\n\n        treeData[localLastSold].provideStatus = 0;\n\n        treeToken.safeMint(_owner, localLastSold);\n\n        return localLastSold;\n    }\n\n    /**\n     * @dev Request to buy a tree with a specific Id already planted and this function transfer ownership to funder\n     * This function is called only by the regularSell contract\n     * @param _treeId Tree with special Id (The Id must be larger than the last tree sold)\n     * @param _owner Owner of a new tree sold in Regular\n     */\n    function requestRegularTree(uint256 _treeId, address _owner)\n        external\n        onlyRegularSellContract\n    {\n        TreeStruct storage tree = treeData[_treeId];\n\n        require(\n            tree.treeStatus == 4 && tree.provideStatus == 4,\n            \"tree must be planted\"\n        );\n\n        tree.provideStatus = 0;\n\n        treeToken.safeMint(_owner, _treeId);\n    }\n}\n",
  "sourcePath": "/home/amir/Projects/treejer/contract-latest/contracts/tree/TreeFactory.sol",
  "compiler": {
    "name": "solc",
    "version": "0.8.6+commit.11564f7e.Emscripten.clang"
  },
  "schemaVersion": "3.4.1",
  "updatedAt": "2021-07-27T23:41:05.296Z",
  "networkType": "ethereum",
  "devdoc": {
    "kind": "dev",
    "methods": {
      "mintRegularTrees(uint256,address)": {
        "details": "Transfer ownership of trees purchased by funders and Update the last tree sold This function is called only by the regularSell contract",
        "params": {
          "_lastSold": "The last tree sold in the regular",
          "_owner": "Owner of a new tree sold in Regular"
        },
        "returns": {
          "_0": "The last tree sold after update"
        }
      },
      "regularPlantTree(string,uint64,uint16)": {
        "details": "This function is called by planter who have planted a new tree The planter enters the information of the new tree Information is stored in The {regularTrees} mapping And finally the tree is waiting for approval",
        "params": {
          "_birthDate": "birthDate of the tree",
          "_countryCode": "Code of the country where the tree was planted",
          "_treeSpecs": "//TODO: what is _treeSpecs ??"
        }
      },
      "requestRegularTree(uint256,address)": {
        "details": "Request to buy a tree with a specific Id already planted and this function transfer ownership to funder This function is called only by the regularSell contract",
        "params": {
          "_owner": "Owner of a new tree sold in Regular",
          "_treeId": "Tree with special Id (The Id must be larger than the last tree sold)"
        }
      },
      "verifyRegularPlant(uint256,bool)": {
        "details": "In this function, the admin approves or rejects the pending trees After calling this function, if the tree is approved the tree information will be transferred to the {treeData}",
        "params": {
          "_isVerified": "Tree approved or not",
          "_regularTreeId": "_regularTreeId"
        }
      }
    },
    "version": 1
  },
  "userdoc": {
    "kind": "user",
    "methods": {
      "isTrustedForwarder(address)": {
        "notice": "return if the forwarder is trusted to forward relayed transactions to us. the forwarder is required to verify the sender's signature, and verify the call is not a replay."
      }
    },
    "version": 1
  }
}