{
  "contractName": "Tree",
  "abi": [
    {
      "anonymous": false,
      "inputs": [
        {
          "indexed": true,
          "internalType": "address",
          "name": "owner",
          "type": "address"
        },
        {
          "indexed": true,
          "internalType": "address",
          "name": "approved",
          "type": "address"
        },
        {
          "indexed": true,
          "internalType": "uint256",
          "name": "tokenId",
          "type": "uint256"
        }
      ],
      "name": "Approval",
      "type": "event"
    },
    {
      "anonymous": false,
      "inputs": [
        {
          "indexed": true,
          "internalType": "address",
          "name": "owner",
          "type": "address"
        },
        {
          "indexed": true,
          "internalType": "address",
          "name": "operator",
          "type": "address"
        },
        {
          "indexed": false,
          "internalType": "bool",
          "name": "approved",
          "type": "bool"
        }
      ],
      "name": "ApprovalForAll",
      "type": "event"
    },
    {
      "anonymous": false,
      "inputs": [
        {
          "indexed": true,
          "internalType": "address",
          "name": "from",
          "type": "address"
        },
        {
          "indexed": true,
          "internalType": "address",
          "name": "to",
          "type": "address"
        },
        {
          "indexed": true,
          "internalType": "uint256",
          "name": "tokenId",
          "type": "uint256"
        }
      ],
      "name": "Transfer",
      "type": "event"
    },
    {
      "inputs": [],
      "name": "accessRestriction",
      "outputs": [
        {
          "internalType": "contract IAccessRestriction",
          "name": "",
          "type": "address"
        }
      ],
      "stateMutability": "view",
      "type": "function",
      "constant": true
    },
    {
      "inputs": [
        {
          "internalType": "address",
          "name": "to",
          "type": "address"
        },
        {
          "internalType": "uint256",
          "name": "tokenId",
          "type": "uint256"
        }
      ],
      "name": "approve",
      "outputs": [],
      "stateMutability": "nonpayable",
      "type": "function"
    },
    {
      "inputs": [
        {
          "internalType": "address",
          "name": "owner",
          "type": "address"
        }
      ],
      "name": "balanceOf",
      "outputs": [
        {
          "internalType": "uint256",
          "name": "",
          "type": "uint256"
        }
      ],
      "stateMutability": "view",
      "type": "function",
      "constant": true
    },
    {
      "inputs": [
        {
          "internalType": "uint256",
          "name": "tokenId",
          "type": "uint256"
        }
      ],
      "name": "getApproved",
      "outputs": [
        {
          "internalType": "address",
          "name": "",
          "type": "address"
        }
      ],
      "stateMutability": "view",
      "type": "function",
      "constant": true
    },
    {
      "inputs": [
        {
          "internalType": "address",
          "name": "owner",
          "type": "address"
        },
        {
          "internalType": "address",
          "name": "operator",
          "type": "address"
        }
      ],
      "name": "isApprovedForAll",
      "outputs": [
        {
          "internalType": "bool",
          "name": "",
          "type": "bool"
        }
      ],
      "stateMutability": "view",
      "type": "function",
      "constant": true
    },
    {
      "inputs": [],
      "name": "isTree",
      "outputs": [
        {
          "internalType": "bool",
          "name": "",
          "type": "bool"
        }
      ],
      "stateMutability": "view",
      "type": "function",
      "constant": true
    },
    {
      "inputs": [],
      "name": "name",
      "outputs": [
        {
          "internalType": "string",
          "name": "",
          "type": "string"
        }
      ],
      "stateMutability": "view",
      "type": "function",
      "constant": true
    },
    {
      "inputs": [
        {
          "internalType": "uint256",
          "name": "tokenId",
          "type": "uint256"
        }
      ],
      "name": "ownerOf",
      "outputs": [
        {
          "internalType": "address",
          "name": "",
          "type": "address"
        }
      ],
      "stateMutability": "view",
      "type": "function",
      "constant": true
    },
    {
      "inputs": [
        {
          "internalType": "address",
          "name": "from",
          "type": "address"
        },
        {
          "internalType": "address",
          "name": "to",
          "type": "address"
        },
        {
          "internalType": "uint256",
          "name": "tokenId",
          "type": "uint256"
        }
      ],
      "name": "safeTransferFrom",
      "outputs": [],
      "stateMutability": "nonpayable",
      "type": "function"
    },
    {
      "inputs": [
        {
          "internalType": "address",
          "name": "from",
          "type": "address"
        },
        {
          "internalType": "address",
          "name": "to",
          "type": "address"
        },
        {
          "internalType": "uint256",
          "name": "tokenId",
          "type": "uint256"
        },
        {
          "internalType": "bytes",
          "name": "_data",
          "type": "bytes"
        }
      ],
      "name": "safeTransferFrom",
      "outputs": [],
      "stateMutability": "nonpayable",
      "type": "function"
    },
    {
      "inputs": [
        {
          "internalType": "address",
          "name": "operator",
          "type": "address"
        },
        {
          "internalType": "bool",
          "name": "approved",
          "type": "bool"
        }
      ],
      "name": "setApprovalForAll",
      "outputs": [],
      "stateMutability": "nonpayable",
      "type": "function"
    },
    {
      "inputs": [
        {
          "internalType": "bytes4",
          "name": "interfaceId",
          "type": "bytes4"
        }
      ],
      "name": "supportsInterface",
      "outputs": [
        {
          "internalType": "bool",
          "name": "",
          "type": "bool"
        }
      ],
      "stateMutability": "view",
      "type": "function",
      "constant": true
    },
    {
      "inputs": [],
      "name": "symbol",
      "outputs": [
        {
          "internalType": "string",
          "name": "",
          "type": "string"
        }
      ],
      "stateMutability": "view",
      "type": "function",
      "constant": true
    },
    {
      "inputs": [
        {
          "internalType": "uint256",
          "name": "tokenId",
          "type": "uint256"
        }
      ],
      "name": "tokenURI",
      "outputs": [
        {
          "internalType": "string",
          "name": "",
          "type": "string"
        }
      ],
      "stateMutability": "view",
      "type": "function",
      "constant": true
    },
    {
      "inputs": [
        {
          "internalType": "address",
          "name": "from",
          "type": "address"
        },
        {
          "internalType": "address",
          "name": "to",
          "type": "address"
        },
        {
          "internalType": "uint256",
          "name": "tokenId",
          "type": "uint256"
        }
      ],
      "name": "transferFrom",
      "outputs": [],
      "stateMutability": "nonpayable",
      "type": "function"
    },
    {
      "inputs": [
        {
          "internalType": "address",
          "name": "_accessRestrictionAddress",
          "type": "address"
        },
        {
          "internalType": "string",
          "name": "baseURI_",
          "type": "string"
        }
      ],
      "name": "initialize",
      "outputs": [],
      "stateMutability": "nonpayable",
      "type": "function"
    },
    {
      "inputs": [
        {
          "internalType": "string",
          "name": "baseURI_",
          "type": "string"
        }
      ],
      "name": "setBaseURI",
      "outputs": [],
      "stateMutability": "nonpayable",
      "type": "function"
    },
    {
      "inputs": [
        {
          "internalType": "uint256",
          "name": "_tokenId",
          "type": "uint256"
        },
        {
          "internalType": "string",
          "name": "_tokenURI",
          "type": "string"
        }
      ],
      "name": "setTokenURI",
      "outputs": [],
      "stateMutability": "nonpayable",
      "type": "function"
    },
    {
      "inputs": [
        {
          "internalType": "address",
          "name": "_to",
          "type": "address"
        },
        {
          "internalType": "uint256",
          "name": "_tokenId",
          "type": "uint256"
        }
      ],
      "name": "safeMint",
      "outputs": [],
      "stateMutability": "nonpayable",
      "type": "function"
    },
    {
      "inputs": [
        {
          "internalType": "uint256",
          "name": "_tokenId",
          "type": "uint256"
        }
      ],
      "name": "exists",
      "outputs": [
        {
          "internalType": "bool",
          "name": "",
          "type": "bool"
        }
      ],
      "stateMutability": "view",
      "type": "function",
      "constant": true
    }
  ],
  "bytecode": "0x608060405234801561001057600080fd5b50611f50806100206000396000f3fe608060405234801561001057600080fd5b506004361061012c5760003560e01c80636352211e116100ad578063b88d4fde11610071578063b88d4fde1461027c578063c87b56dd1461028f578063d6762c4a146102a2578063e985e9c5146102ba578063f399e22e146102f657600080fd5b80636352211e1461021a57806370a082311461022d57806395d89b411461024e578063a144819414610256578063a22cb4651461026957600080fd5b806323b872dd116100f457806323b872dd146101c157806337b9fd77146101d457806342842e0e146101e15780634f558e79146101f457806355f804b31461020757600080fd5b806301ffc9a71461013157806306fdde0314610159578063081812fc1461016e578063095ea7b314610199578063162094c4146101ae575b600080fd5b61014461013f366004611b61565b610309565b60405190151581526020015b60405180910390f35b61016161035b565b6040516101509190611cc1565b61018161017c366004611bdd565b6103ed565b6040516001600160a01b039091168152602001610150565b6101ac6101a7366004611b1a565b61047a565b005b6101ac6101bc366004611bf6565b610590565b6101ac6101cf366004611978565b61077e565b60c9546101449060ff1681565b6101ac6101ef366004611978565b6107af565b610144610202366004611bdd565b6107ca565b6101ac610215366004611b9b565b6107d5565b610181610228366004611bdd565b610843565b61024061023b36600461192a565b6108ba565b604051908152602001610150565b610161610941565b6101ac610264366004611b1a565b610950565b6101ac610277366004611a90565b610a29565b6101ac61028a3660046119b4565b610aee565b61016161029d366004611bdd565b610b26565b60c9546101819061010090046001600160a01b031681565b6101446102c8366004611945565b6001600160a01b039182166000908152606a6020908152604080832093909416825291909152205460ff1690565b6101ac610304366004611ac7565b610c90565b60006001600160e01b031982166380ac58cd60e01b148061033a57506001600160e01b03198216635b5e139f60e01b145b8061035557506301ffc9a760e01b6001600160e01b03198316145b92915050565b60606065805461036a90611e34565b80601f016020809104026020016040519081016040528092919081815260200182805461039690611e34565b80156103e35780601f106103b8576101008083540402835291602001916103e3565b820191906000526020600020905b8154815290600101906020018083116103c657829003601f168201915b5050505050905090565b60006103f882610dfc565b61045e5760405162461bcd60e51b815260206004820152602c60248201527f4552433732313a20617070726f76656420717565727920666f72206e6f6e657860448201526b34b9ba32b73a103a37b5b2b760a11b60648201526084015b60405180910390fd5b506000908152606960205260409020546001600160a01b031690565b600061048582610843565b9050806001600160a01b0316836001600160a01b031614156104f35760405162461bcd60e51b815260206004820152602160248201527f4552433732313a20617070726f76616c20746f2063757272656e74206f776e656044820152603960f91b6064820152608401610455565b336001600160a01b038216148061050f575061050f81336102c8565b6105815760405162461bcd60e51b815260206004820152603860248201527f4552433732313a20617070726f76652063616c6c6572206973206e6f74206f7760448201527f6e6572206e6f7220617070726f76656420666f7220616c6c00000000000000006064820152608401610455565b61058b8383610e19565b505050565b60c954604051632ea8de7f60e01b81523360048201526101009091046001600160a01b031690632ea8de7f9060240160206040518083038186803b1580156105d757600080fd5b505afa1580156105eb573d6000803e3d6000fd5b505050506040513d601f19601f8201168201806040525081019061060f9190611b44565b8061062a57503361061f84610843565b6001600160a01b0316145b806106af575060c954604051636a3a3d2960e11b81523360048201526101009091046001600160a01b03169063d4747a529060240160206040518083038186803b15801561067757600080fd5b505afa15801561068b573d6000803e3d6000fd5b505050506040513d601f19601f820116820180604052508101906106af9190611b44565b61073e5760405162461bcd60e51b815260206004820152605460248201527f43616c6c6572206d75737420626520706c616e746572206f7220616d6261737360448201527f61646f72206f72206f776e6572206f662074726565204f522054726565466163606482015273746f7279206f722054726565466163746f72792160601b608482015260a401610455565b61058b8383838080601f016020809104026020016040519081016040528093929190818152602001838380828437600092019190915250610e8792505050565b6107883382610f12565b6107a45760405162461bcd60e51b815260040161045590611d74565b61058b838383610ff8565b61058b83838360405180602001604052806000815250610aee565b600061035582610dfc565b60c954604051632104fb0560e21b81523360048201526101009091046001600160a01b031690638413ec149060240160006040518083038186803b15801561081c57600080fd5b505afa158015610830573d6000803e3d6000fd5b5061058b925060ca9150849050836117b8565b6000818152606760205260408120546001600160a01b0316806103555760405162461bcd60e51b815260206004820152602960248201527f4552433732313a206f776e657220717565727920666f72206e6f6e657869737460448201526832b73a103a37b5b2b760b91b6064820152608401610455565b60006001600160a01b0382166109255760405162461bcd60e51b815260206004820152602a60248201527f4552433732313a2062616c616e636520717565727920666f7220746865207a65604482015269726f206164647265737360b01b6064820152608401610455565b506001600160a01b031660009081526068602052604090205490565b60606066805461036a90611e34565b60c954604051636a3a3d2960e11b81523360048201526101009091046001600160a01b03169063d4747a529060240160206040518083038186803b15801561099757600080fd5b505afa1580156109ab573d6000803e3d6000fd5b505050506040513d601f19601f820116820180604052508101906109cf9190611b44565b610a1b5760405162461bcd60e51b815260206004820152601a60248201527f43616c6c6572206d7573742062652054726565466163746f72790000000000006044820152606401610455565b610a258282611198565b5050565b6001600160a01b038216331415610a825760405162461bcd60e51b815260206004820152601960248201527f4552433732313a20617070726f766520746f2063616c6c6572000000000000006044820152606401610455565b336000818152606a602090815260408083206001600160a01b03871680855290835292819020805460ff191686151590811790915590519081529192917f17307eab39ab6107e8899845ad3d59bd9653f200f220920489ca2b5937696c31910160405180910390a35050565b610af83383610f12565b610b145760405162461bcd60e51b815260040161045590611d74565b610b20848484846111b2565b50505050565b6060610b3182610dfc565b610b975760405162461bcd60e51b815260206004820152603160248201527f45524337323155524953746f726167653a2055524920717565727920666f72206044820152703737b732bc34b9ba32b73a103a37b5b2b760791b6064820152608401610455565b60008281526097602052604081208054610bb090611e34565b80601f0160208091040260200160405190810160405280929190818152602001828054610bdc90611e34565b8015610c295780601f10610bfe57610100808354040283529160200191610c29565b820191906000526020600020905b815481529060010190602001808311610c0c57829003601f168201915b505050505090506000610c3a6111e5565b9050805160001415610c4d575092915050565b815115610c7f578082604051602001610c67929190611c55565b60405160208183030381529060405292505050919050565b610c88846111f4565b949350505050565b600054610100900460ff1680610ca9575060005460ff16155b610cc55760405162461bcd60e51b815260040161045590611d26565b600054610100900460ff16158015610ce7576000805461ffff19166101011790555b60c9805460ff191660011790556040805180820182526004808252635472656560e01b6020808401919091528351808501909452908352635452454560e01b90830152610d33916112bf565b610d3f60ca84846117b8565b506000849050806001600160a01b031663ba84fd696040518163ffffffff1660e01b815260040160206040518083038186803b158015610d7e57600080fd5b505afa158015610d92573d6000803e3d6000fd5b505050506040513d601f19601f82011682018060405250810190610db69190611b44565b610dbf57600080fd5b60c980546001600160a01b0390921661010002610100600160a81b03199092169190911790558015610b20576000805461ff001916905550505050565b6000908152606760205260409020546001600160a01b0316151590565b600081815260696020526040902080546001600160a01b0319166001600160a01b0384169081179091558190610e4e82610843565b6001600160a01b03167f8c5be1e5ebec7d5bd14f71427d1e84f3dd0314c0f7b2291e5b200ac8c7c3b92560405160405180910390a45050565b610e9082610dfc565b610ef35760405162461bcd60e51b815260206004820152602e60248201527f45524337323155524953746f726167653a2055524920736574206f66206e6f6e60448201526d32bc34b9ba32b73a103a37b5b2b760911b6064820152608401610455565b6000828152609760209081526040909120825161058b9284019061183c565b6000610f1d82610dfc565b610f7e5760405162461bcd60e51b815260206004820152602c60248201527f4552433732313a206f70657261746f7220717565727920666f72206e6f6e657860448201526b34b9ba32b73a103a37b5b2b760a11b6064820152608401610455565b6000610f8983610843565b9050806001600160a01b0316846001600160a01b03161480610fc45750836001600160a01b0316610fb9846103ed565b6001600160a01b0316145b80610c8857506001600160a01b038082166000908152606a602090815260408083209388168352929052205460ff16610c88565b826001600160a01b031661100b82610843565b6001600160a01b0316146110735760405162461bcd60e51b815260206004820152602960248201527f4552433732313a207472616e73666572206f6620746f6b656e2074686174206960448201526839903737ba1037bbb760b91b6064820152608401610455565b6001600160a01b0382166110d55760405162461bcd60e51b8152602060048201526024808201527f4552433732313a207472616e7366657220746f20746865207a65726f206164646044820152637265737360e01b6064820152608401610455565b6110e0600082610e19565b6001600160a01b0383166000908152606860205260408120805460019290611109908490611df1565b90915550506001600160a01b0382166000908152606860205260408120805460019290611137908490611dc5565b909155505060008181526067602052604080822080546001600160a01b0319166001600160a01b0386811691821790925591518493918716917fddf252ad1be2c89b69c2b068fc378daa952ba7f163c4a11628f55a4df523b3ef91a4505050565b610a25828260405180602001604052806000815250611346565b6111bd848484610ff8565b6111c984848484611379565b610b205760405162461bcd60e51b815260040161045590611cd4565b606060ca805461036a90611e34565b60606111ff82610dfc565b6112635760405162461bcd60e51b815260206004820152602f60248201527f4552433732314d657461646174613a2055524920717565727920666f72206e6f60448201526e3732bc34b9ba32b73a103a37b5b2b760891b6064820152608401610455565b600061126d6111e5565b9050600081511161128d57604051806020016040528060008152506112b8565b8061129784611486565b6040516020016112a8929190611c55565b6040516020818303038152906040525b9392505050565b600054610100900460ff16806112d8575060005460ff16155b6112f45760405162461bcd60e51b815260040161045590611d26565b600054610100900460ff16158015611316576000805461ffff19166101011790555b61131e611584565b611326611584565b61133083836115f0565b801561058b576000805461ff0019169055505050565b6113508383611685565b61135d6000848484611379565b61058b5760405162461bcd60e51b815260040161045590611cd4565b60006001600160a01b0384163b1561147b57604051630a85bd0160e11b81526001600160a01b0385169063150b7a02906113bd903390899088908890600401611c84565b602060405180830381600087803b1580156113d757600080fd5b505af1925050508015611407575060408051601f3d908101601f1916820190925261140491810190611b7e565b60015b611461573d808015611435576040519150601f19603f3d011682016040523d82523d6000602084013e61143a565b606091505b5080516114595760405162461bcd60e51b815260040161045590611cd4565b805181602001fd5b6001600160e01b031916630a85bd0160e11b149050610c88565b506001949350505050565b6060816114aa5750506040805180820190915260018152600360fc1b602082015290565b8160005b81156114d457806114be81611e6f565b91506114cd9050600a83611ddd565b91506114ae565b60008167ffffffffffffffff8111156114ef576114ef611ee0565b6040519080825280601f01601f191660200182016040528015611519576020820181803683370190505b5090505b8415610c885761152e600183611df1565b915061153b600a86611e8a565b611546906030611dc5565b60f81b81838151811061155b5761155b611eca565b60200101906001600160f81b031916908160001a90535061157d600a86611ddd565b945061151d565b600054610100900460ff168061159d575060005460ff16155b6115b95760405162461bcd60e51b815260040161045590611d26565b600054610100900460ff161580156115db576000805461ffff19166101011790555b80156115ed576000805461ff00191690555b50565b600054610100900460ff1680611609575060005460ff16155b6116255760405162461bcd60e51b815260040161045590611d26565b600054610100900460ff16158015611647576000805461ffff19166101011790555b825161165a90606590602086019061183c565b50815161166e90606690602085019061183c565b50801561058b576000805461ff0019169055505050565b6001600160a01b0382166116db5760405162461bcd60e51b815260206004820181905260248201527f4552433732313a206d696e7420746f20746865207a65726f20616464726573736044820152606401610455565b6116e481610dfc565b156117315760405162461bcd60e51b815260206004820152601c60248201527f4552433732313a20746f6b656e20616c7265616479206d696e746564000000006044820152606401610455565b6001600160a01b038216600090815260686020526040812080546001929061175a908490611dc5565b909155505060008181526067602052604080822080546001600160a01b0319166001600160a01b03861690811790915590518392907fddf252ad1be2c89b69c2b068fc378daa952ba7f163c4a11628f55a4df523b3ef908290a45050565b8280546117c490611e34565b90600052602060002090601f0160209004810192826117e6576000855561182c565b82601f106117ff5782800160ff1982351617855561182c565b8280016001018555821561182c579182015b8281111561182c578235825591602001919060010190611811565b506118389291506118b0565b5090565b82805461184890611e34565b90600052602060002090601f01602090048101928261186a576000855561182c565b82601f1061188357805160ff191683800117855561182c565b8280016001018555821561182c579182015b8281111561182c578251825591602001919060010190611895565b5b8082111561183857600081556001016118b1565b80356001600160a01b03811681146118dc57600080fd5b919050565b60008083601f8401126118f357600080fd5b50813567ffffffffffffffff81111561190b57600080fd5b60208301915083602082850101111561192357600080fd5b9250929050565b60006020828403121561193c57600080fd5b6112b8826118c5565b6000806040838503121561195857600080fd5b611961836118c5565b915061196f602084016118c5565b90509250929050565b60008060006060848603121561198d57600080fd5b611996846118c5565b92506119a4602085016118c5565b9150604084013590509250925092565b600080600080608085870312156119ca57600080fd5b6119d3856118c5565b93506119e1602086016118c5565b925060408501359150606085013567ffffffffffffffff80821115611a0557600080fd5b818701915087601f830112611a1957600080fd5b813581811115611a2b57611a2b611ee0565b604051601f8201601f19908116603f01168101908382118183101715611a5357611a53611ee0565b816040528281528a6020848701011115611a6c57600080fd5b82602086016020830137600060208483010152809550505050505092959194509250565b60008060408385031215611aa357600080fd5b611aac836118c5565b91506020830135611abc81611ef6565b809150509250929050565b600080600060408486031215611adc57600080fd5b611ae5846118c5565b9250602084013567ffffffffffffffff811115611b0157600080fd5b611b0d868287016118e1565b9497909650939450505050565b60008060408385031215611b2d57600080fd5b611b36836118c5565b946020939093013593505050565b600060208284031215611b5657600080fd5b81516112b881611ef6565b600060208284031215611b7357600080fd5b81356112b881611f04565b600060208284031215611b9057600080fd5b81516112b881611f04565b60008060208385031215611bae57600080fd5b823567ffffffffffffffff811115611bc557600080fd5b611bd1858286016118e1565b90969095509350505050565b600060208284031215611bef57600080fd5b5035919050565b600080600060408486031215611c0b57600080fd5b83359250602084013567ffffffffffffffff811115611b0157600080fd5b60008151808452611c41816020860160208601611e08565b601f01601f19169290920160200192915050565b60008351611c67818460208801611e08565b835190830190611c7b818360208801611e08565b01949350505050565b6001600160a01b0385811682528416602082015260408101839052608060608201819052600090611cb790830184611c29565b9695505050505050565b6020815260006112b86020830184611c29565b60208082526032908201527f4552433732313a207472616e7366657220746f206e6f6e20455243373231526560408201527131b2b4bb32b91034b6b83632b6b2b73a32b960711b606082015260800190565b6020808252602e908201527f496e697469616c697a61626c653a20636f6e747261637420697320616c72656160408201526d191e481a5b9a5d1a585b1a5e995960921b606082015260800190565b60208082526031908201527f4552433732313a207472616e736665722063616c6c6572206973206e6f74206f6040820152701ddb995c881b9bdc88185c1c1c9bdd9959607a1b606082015260800190565b60008219821115611dd857611dd8611e9e565b500190565b600082611dec57611dec611eb4565b500490565b600082821015611e0357611e03611e9e565b500390565b60005b83811015611e23578181015183820152602001611e0b565b83811115610b205750506000910152565b600181811c90821680611e4857607f821691505b60208210811415611e6957634e487b7160e01b600052602260045260246000fd5b50919050565b6000600019821415611e8357611e83611e9e565b5060010190565b600082611e9957611e99611eb4565b500690565b634e487b7160e01b600052601160045260246000fd5b634e487b7160e01b600052601260045260246000fd5b634e487b7160e01b600052603260045260246000fd5b634e487b7160e01b600052604160045260246000fd5b80151581146115ed57600080fd5b6001600160e01b0319811681146115ed57600080fdfea2646970667358221220de992291421f0453059e2bbfa94a7249d4a08789b8320d3c0c18c95fe73cd5ef64736f6c63430008060033",
  "immutableReferences": {},
  "source": "// SPDX-License-Identifier: GPL-3.0\n\npragma solidity ^0.8.6;\n\n// import \"@openzeppelin/contracts-upgradeable/token/ERC721/ERC721Upgradeable.sol\";\nimport \"@openzeppelin/contracts-upgradeable/token/ERC721/extensions/ERC721URIStorageUpgradeable.sol\";\n\nimport \"../access/IAccessRestriction.sol\";\n\ncontract Tree is ERC721URIStorageUpgradeable {\n    bool public isTree;\n    IAccessRestriction public accessRestriction;\n    string private baseURI;\n\n    function initialize(\n        address _accessRestrictionAddress,\n        string calldata baseURI_\n    ) public initializer {\n        isTree = true;\n\n        __ERC721_init(\"Tree\", \"TREE\");\n        baseURI = baseURI_;\n\n        IAccessRestriction candidateContract = IAccessRestriction(\n            _accessRestrictionAddress\n        );\n        require(candidateContract.isAccessRestriction());\n        accessRestriction = candidateContract;\n    }\n\n    function setBaseURI(string calldata baseURI_) external {\n        accessRestriction.ifAdmin(msg.sender);\n\n        baseURI = baseURI_;\n    }\n\n    function setTokenURI(uint256 _tokenId, string calldata _tokenURI) external {\n        //TODO: isPlanterOrAmbassedor change to isPlanter and isTreeFactory deleted\n        require(\n            accessRestriction.isPlanter(msg.sender) ||\n                ownerOf(_tokenId) == msg.sender ||\n                accessRestriction.isTreeFactory(msg.sender),\n            \"Caller must be planter or ambassador or owner of tree OR TreeFactory or TreeFactory!\"\n        );\n\n        _setTokenURI(_tokenId, _tokenURI);\n    }\n\n    function safeMint(address _to, uint256 _tokenId) external {\n        require(\n            accessRestriction.isTreeFactory(msg.sender),\n            \"Caller must be TreeFactory\"\n        );\n        _safeMint(_to, _tokenId);\n    }\n\n    function exists(uint256 _tokenId) external view returns (bool) {\n        return _exists(_tokenId);\n    }\n\n    function _baseURI() internal view virtual override returns (string memory) {\n        return baseURI;\n    }\n}\n",
  "sourcePath": "/home/amir/Projects/treejer/contract-latest/contracts/tree/Tree.sol",
  "compiler": {
    "name": "solc",
    "version": "0.8.6+commit.11564f7e.Emscripten.clang"
  },
  "schemaVersion": "3.4.1",
  "updatedAt": "2021-07-27T23:41:05.275Z",
  "networkType": "ethereum",
  "devdoc": {
    "kind": "dev",
    "methods": {
      "approve(address,uint256)": {
        "details": "See {IERC721-approve}."
      },
      "balanceOf(address)": {
        "details": "See {IERC721-balanceOf}."
      },
      "getApproved(uint256)": {
        "details": "See {IERC721-getApproved}."
      },
      "isApprovedForAll(address,address)": {
        "details": "See {IERC721-isApprovedForAll}."
      },
      "name()": {
        "details": "See {IERC721Metadata-name}."
      },
      "ownerOf(uint256)": {
        "details": "See {IERC721-ownerOf}."
      },
      "safeTransferFrom(address,address,uint256)": {
        "details": "See {IERC721-safeTransferFrom}."
      },
      "safeTransferFrom(address,address,uint256,bytes)": {
        "details": "See {IERC721-safeTransferFrom}."
      },
      "setApprovalForAll(address,bool)": {
        "details": "See {IERC721-setApprovalForAll}."
      },
      "supportsInterface(bytes4)": {
        "details": "See {IERC165-supportsInterface}."
      },
      "symbol()": {
        "details": "See {IERC721Metadata-symbol}."
      },
      "tokenURI(uint256)": {
        "details": "See {IERC721Metadata-tokenURI}."
      },
      "transferFrom(address,address,uint256)": {
        "details": "See {IERC721-transferFrom}."
      }
    },
    "version": 1
  },
  "userdoc": {
    "kind": "user",
    "methods": {},
    "version": 1
  }
}