{
  "contractName": "TreeFactory",
  "abi": [
    {
      "anonymous": false,
      "inputs": [
        {
          "indexed": false,
          "internalType": "uint256",
          "name": "treeId",
          "type": "uint256"
        }
      ],
      "name": "AssignedTreePlanted",
      "type": "event"
    },
    {
      "anonymous": false,
      "inputs": [
        {
          "indexed": false,
          "internalType": "uint256",
          "name": "treeId",
          "type": "uint256"
        }
      ],
      "name": "AssignedTreeRejected",
      "type": "event"
    },
    {
      "anonymous": false,
      "inputs": [
        {
          "indexed": false,
          "internalType": "uint256",
          "name": "treeId",
          "type": "uint256"
        }
      ],
      "name": "AssignedTreeVerified",
      "type": "event"
    },
    {
      "anonymous": false,
      "inputs": [
        {
          "indexed": false,
          "internalType": "uint256",
          "name": "treeId",
          "type": "uint256"
        }
      ],
      "name": "TreeAssigned",
      "type": "event"
    },
    {
      "anonymous": false,
      "inputs": [
        {
          "indexed": false,
          "internalType": "uint256",
          "name": "treeId",
          "type": "uint256"
        }
      ],
      "name": "TreeListed",
      "type": "event"
    },
    {
      "anonymous": false,
      "inputs": [
        {
          "indexed": false,
          "internalType": "uint256",
          "name": "treeId",
          "type": "uint256"
        }
      ],
      "name": "TreePlanted",
      "type": "event"
    },
    {
      "anonymous": false,
      "inputs": [
        {
          "indexed": false,
          "internalType": "uint256",
          "name": "treeId",
          "type": "uint256"
        }
      ],
      "name": "TreeRejected",
      "type": "event"
    },
    {
      "anonymous": false,
      "inputs": [
        {
          "indexed": false,
          "internalType": "uint256",
          "name": "treeId",
          "type": "uint256"
        },
        {
          "indexed": false,
          "internalType": "string",
          "name": "treeSpecs",
          "type": "string"
        }
      ],
      "name": "TreeSpecsUpdated",
      "type": "event"
    },
    {
      "anonymous": false,
      "inputs": [],
      "name": "TreeUpdateIntervalChanged",
      "type": "event"
    },
    {
      "anonymous": false,
      "inputs": [
        {
          "indexed": false,
          "internalType": "uint256",
          "name": "treeId",
          "type": "uint256"
        }
      ],
      "name": "TreeUpdateRejected",
      "type": "event"
    },
    {
      "anonymous": false,
      "inputs": [
        {
          "indexed": false,
          "internalType": "uint256",
          "name": "treeId",
          "type": "uint256"
        }
      ],
      "name": "TreeUpdated",
      "type": "event"
    },
    {
      "anonymous": false,
      "inputs": [
        {
          "indexed": false,
          "internalType": "uint256",
          "name": "treeId",
          "type": "uint256"
        }
      ],
      "name": "TreeUpdatedVerified",
      "type": "event"
    },
    {
      "anonymous": false,
      "inputs": [
        {
          "indexed": false,
          "internalType": "uint256",
          "name": "treeId",
          "type": "uint256"
        }
      ],
      "name": "TreeVerified",
      "type": "event"
    },
    {
      "inputs": [],
      "name": "accessRestriction",
      "outputs": [
        {
          "internalType": "contract IAccessRestriction",
          "name": "",
          "type": "address"
        }
      ],
      "stateMutability": "view",
      "type": "function",
      "constant": true
    },
    {
      "inputs": [],
      "name": "isTreeFactory",
      "outputs": [
        {
          "internalType": "bool",
          "name": "",
          "type": "bool"
        }
      ],
      "stateMutability": "view",
      "type": "function",
      "constant": true
    },
    {
      "inputs": [
        {
          "internalType": "address",
          "name": "forwarder",
          "type": "address"
        }
      ],
      "name": "isTrustedForwarder",
      "outputs": [
        {
          "internalType": "bool",
          "name": "",
          "type": "bool"
        }
      ],
      "stateMutability": "view",
      "type": "function",
      "constant": true
    },
    {
      "inputs": [],
      "name": "lastRegualarTreeId",
      "outputs": [
        {
          "internalType": "uint256",
          "name": "",
          "type": "uint256"
        }
      ],
      "stateMutability": "view",
      "type": "function",
      "constant": true
    },
    {
      "inputs": [],
      "name": "planterContract",
      "outputs": [
        {
          "internalType": "contract IPlanter",
          "name": "",
          "type": "address"
        }
      ],
      "stateMutability": "view",
      "type": "function",
      "constant": true
    },
    {
      "inputs": [],
      "name": "planterFund",
      "outputs": [
        {
          "internalType": "contract IPlanterFund",
          "name": "",
          "type": "address"
        }
      ],
      "stateMutability": "view",
      "type": "function",
      "constant": true
    },
    {
      "inputs": [
        {
          "internalType": "uint256",
          "name": "",
          "type": "uint256"
        }
      ],
      "name": "tempTrees",
      "outputs": [
        {
          "internalType": "uint64",
          "name": "birthDate",
          "type": "uint64"
        },
        {
          "internalType": "uint64",
          "name": "plantDate",
          "type": "uint64"
        },
        {
          "internalType": "uint64",
          "name": "countryCode",
          "type": "uint64"
        },
        {
          "internalType": "uint64",
          "name": "otherData",
          "type": "uint64"
        },
        {
          "internalType": "address",
          "name": "planter",
          "type": "address"
        },
        {
          "internalType": "string",
          "name": "treeSpecs",
          "type": "string"
        }
      ],
      "stateMutability": "view",
      "type": "function",
      "constant": true
    },
    {
      "inputs": [],
      "name": "treeToken",
      "outputs": [
        {
          "internalType": "contract ITree",
          "name": "",
          "type": "address"
        }
      ],
      "stateMutability": "view",
      "type": "function",
      "constant": true
    },
    {
      "inputs": [],
      "name": "treeUpdateInterval",
      "outputs": [
        {
          "internalType": "uint256",
          "name": "",
          "type": "uint256"
        }
      ],
      "stateMutability": "view",
      "type": "function",
      "constant": true
    },
    {
      "inputs": [
        {
          "internalType": "uint256",
          "name": "",
          "type": "uint256"
        }
      ],
      "name": "treeUpdates",
      "outputs": [
        {
          "internalType": "string",
          "name": "updateSpecs",
          "type": "string"
        },
        {
          "internalType": "uint64",
          "name": "updateStatus",
          "type": "uint64"
        }
      ],
      "stateMutability": "view",
      "type": "function",
      "constant": true
    },
    {
      "inputs": [
        {
          "internalType": "uint256",
          "name": "",
          "type": "uint256"
        }
      ],
      "name": "trees",
      "outputs": [
        {
          "internalType": "address",
          "name": "planter",
          "type": "address"
        },
        {
          "internalType": "uint256",
          "name": "species",
          "type": "uint256"
        },
        {
          "internalType": "uint32",
          "name": "countryCode",
          "type": "uint32"
        },
        {
          "internalType": "uint32",
          "name": "saleType",
          "type": "uint32"
        },
        {
          "internalType": "uint64",
          "name": "treeStatus",
          "type": "uint64"
        },
        {
          "internalType": "uint64",
          "name": "plantDate",
          "type": "uint64"
        },
        {
          "internalType": "uint64",
          "name": "birthDate",
          "type": "uint64"
        },
        {
          "internalType": "string",
          "name": "treeSpecs",
          "type": "string"
        }
      ],
      "stateMutability": "view",
      "type": "function",
      "constant": true
    },
    {
      "inputs": [],
      "name": "trustedForwarder",
      "outputs": [
        {
          "internalType": "address",
          "name": "",
          "type": "address"
        }
      ],
      "stateMutability": "view",
      "type": "function",
      "constant": true
    },
    {
      "inputs": [],
      "name": "versionRecipient",
      "outputs": [
        {
          "internalType": "string",
          "name": "",
          "type": "string"
        }
      ],
      "stateMutability": "pure",
      "type": "function",
      "constant": true
    },
    {
      "inputs": [
        {
          "internalType": "address",
          "name": "_accessRestrictionAddress",
          "type": "address"
        }
      ],
      "name": "initialize",
      "outputs": [],
      "stateMutability": "nonpayable",
      "type": "function"
    },
    {
      "inputs": [
        {
          "internalType": "address",
          "name": "_address",
          "type": "address"
        }
      ],
      "name": "setTrustedForwarder",
      "outputs": [],
      "stateMutability": "nonpayable",
      "type": "function"
    },
    {
      "inputs": [
        {
          "internalType": "address",
          "name": "_address",
          "type": "address"
        }
      ],
      "name": "setPlanterFundAddress",
      "outputs": [],
      "stateMutability": "nonpayable",
      "type": "function"
    },
    {
      "inputs": [
        {
          "internalType": "address",
          "name": "_address",
          "type": "address"
        }
      ],
      "name": "setPlanterContractAddress",
      "outputs": [],
      "stateMutability": "nonpayable",
      "type": "function"
    },
    {
      "inputs": [
        {
          "internalType": "address",
          "name": "_address",
          "type": "address"
        }
      ],
      "name": "setTreeTokenAddress",
      "outputs": [],
      "stateMutability": "nonpayable",
      "type": "function"
    },
    {
      "inputs": [
        {
          "internalType": "uint256",
          "name": "_day",
          "type": "uint256"
        }
      ],
      "name": "setUpdateInterval",
      "outputs": [],
      "stateMutability": "nonpayable",
      "type": "function"
    },
    {
      "inputs": [
        {
          "internalType": "uint256",
          "name": "_treeId",
          "type": "uint256"
        },
        {
          "internalType": "string",
          "name": "_treeSpecs",
          "type": "string"
        }
      ],
      "name": "listTree",
      "outputs": [],
      "stateMutability": "nonpayable",
      "type": "function"
    },
    {
      "inputs": [
        {
          "internalType": "uint256",
          "name": "_treeId",
          "type": "uint256"
        },
        {
          "internalType": "address",
          "name": "_planter",
          "type": "address"
        }
      ],
      "name": "assignTree",
      "outputs": [],
      "stateMutability": "nonpayable",
      "type": "function"
    },
    {
      "inputs": [
        {
          "internalType": "uint256",
          "name": "_treeId",
          "type": "uint256"
        },
        {
          "internalType": "string",
          "name": "_treeSpecs",
          "type": "string"
        },
        {
          "internalType": "uint64",
          "name": "_birthDate",
          "type": "uint64"
        },
        {
          "internalType": "uint16",
          "name": "_countryCode",
          "type": "uint16"
        }
      ],
      "name": "plantAssignedTree",
      "outputs": [],
      "stateMutability": "nonpayable",
      "type": "function"
    },
    {
      "inputs": [
        {
          "internalType": "uint256",
          "name": "_treeId",
          "type": "uint256"
        },
        {
          "internalType": "bool",
          "name": "_isVerified",
          "type": "bool"
        }
      ],
      "name": "verifyAssignedTree",
      "outputs": [],
      "stateMutability": "nonpayable",
      "type": "function"
    },
    {
      "inputs": [
        {
          "internalType": "uint256",
          "name": "_treeId",
          "type": "uint256"
        },
        {
          "internalType": "string",
          "name": "_treeSpecs",
          "type": "string"
        }
      ],
      "name": "updateTree",
      "outputs": [],
      "stateMutability": "nonpayable",
      "type": "function"
    },
    {
      "inputs": [
        {
          "internalType": "uint256",
          "name": "_treeId",
          "type": "uint256"
        },
        {
          "internalType": "bool",
          "name": "_isVerified",
          "type": "bool"
        }
      ],
      "name": "verifyUpdate",
      "outputs": [],
      "stateMutability": "nonpayable",
      "type": "function"
    },
    {
      "inputs": [
        {
          "internalType": "uint256",
          "name": "_treeId",
          "type": "uint256"
        },
        {
          "internalType": "uint32",
          "name": "_saleType",
          "type": "uint32"
        }
      ],
      "name": "manageSaleType",
      "outputs": [
        {
          "internalType": "uint32",
          "name": "",
          "type": "uint32"
        }
      ],
      "stateMutability": "nonpayable",
      "type": "function"
    },
    {
      "inputs": [
        {
          "internalType": "uint256",
          "name": "_treeId",
          "type": "uint256"
        },
        {
          "internalType": "address",
          "name": "_funder",
          "type": "address"
        }
      ],
      "name": "mintAssignedTree",
      "outputs": [],
      "stateMutability": "nonpayable",
      "type": "function"
    },
    {
      "inputs": [
        {
          "internalType": "uint256",
          "name": "_treeId",
          "type": "uint256"
        }
      ],
      "name": "resetSaleType",
      "outputs": [],
      "stateMutability": "nonpayable",
      "type": "function"
    },
    {
      "inputs": [
        {
          "internalType": "uint256",
          "name": "_startTreeId",
          "type": "uint256"
        },
        {
          "internalType": "uint256",
          "name": "_endTreeId",
          "type": "uint256"
        },
        {
          "internalType": "uint256",
          "name": "_saleType",
          "type": "uint256"
        }
      ],
      "name": "resetSaleTypeBatch",
      "outputs": [],
      "stateMutability": "nonpayable",
      "type": "function"
    },
    {
      "inputs": [
        {
          "internalType": "uint256",
          "name": "_startTreeId",
          "type": "uint256"
        },
        {
          "internalType": "uint256",
          "name": "_endTreeId",
          "type": "uint256"
        },
        {
          "internalType": "uint32",
          "name": "_saleType",
          "type": "uint32"
        }
      ],
      "name": "manageSaleTypeBatch",
      "outputs": [
        {
          "internalType": "bool",
          "name": "",
          "type": "bool"
        }
      ],
      "stateMutability": "nonpayable",
      "type": "function"
    },
    {
      "inputs": [
        {
          "internalType": "string",
          "name": "_treeSpecs",
          "type": "string"
        },
        {
          "internalType": "uint64",
          "name": "_birthDate",
          "type": "uint64"
        },
        {
          "internalType": "uint16",
          "name": "_countryCode",
          "type": "uint16"
        }
      ],
      "name": "plantTree",
      "outputs": [],
      "stateMutability": "nonpayable",
      "type": "function"
    },
    {
      "inputs": [
        {
          "internalType": "uint256",
          "name": "_tempTreeId",
          "type": "uint256"
        },
        {
          "internalType": "bool",
          "name": "_isVerified",
          "type": "bool"
        }
      ],
      "name": "verifyTree",
      "outputs": [],
      "stateMutability": "nonpayable",
      "type": "function"
    },
    {
      "inputs": [
        {
          "internalType": "uint256",
          "name": "_lastFundedTreeId",
          "type": "uint256"
        },
        {
          "internalType": "address",
          "name": "_funder",
          "type": "address"
        }
      ],
      "name": "mintTree",
      "outputs": [
        {
          "internalType": "uint256",
          "name": "",
          "type": "uint256"
        }
      ],
      "stateMutability": "nonpayable",
      "type": "function"
    },
    {
      "inputs": [
        {
          "internalType": "uint256",
          "name": "_treeId",
          "type": "uint256"
        },
        {
          "internalType": "address",
          "name": "_funder",
          "type": "address"
        }
      ],
      "name": "mintTreeById",
      "outputs": [],
      "stateMutability": "nonpayable",
      "type": "function"
    },
    {
      "inputs": [
        {
          "internalType": "uint64",
          "name": "_treeId",
          "type": "uint64"
        },
        {
          "internalType": "string",
          "name": "_treeSpecs",
          "type": "string"
        }
      ],
      "name": "updateTreeSpecs",
      "outputs": [],
      "stateMutability": "nonpayable",
      "type": "function"
    }
  ],
  "bytecode": "0x608060405234801561001057600080fd5b50613b7e806100206000396000f3fe608060405234801561001057600080fd5b50600436106102115760003560e01c80637124c68311610125578063b7c924fc116100ad578063d6762c4a1161007c578063d6762c4a14610517578063da7422281461052f578063dc8aa57814610542578063e0eb4eb91461054b578063fa9ee5031461055857600080fd5b8063b7c924fc146104b6578063be49fa97146104c9578063c4d66de8146104dc578063c6826fc9146104ef57600080fd5b80637da0a877116100f45780637da0a877146104515780638fc5ab4d1461046a5780639c8446f71461047d578063ac5064a014610490578063b0449325146104a357600080fd5b80637124c683146103f1578063713507bb14610404578063738b11ab146104175780637a5080221461042a57600080fd5b80633891577f116101a85780634ad07f9e116101775780634ad07f9e1461036d5780634dc933ef14610380578063572b6c05146103935780636a58d22c146103cb5780636fd5214b146103de57600080fd5b80633891577f146102f557806338f1f40f146103085780633dc96d331461031b578063486ff0cd1461032e57600080fd5b806322347532116101e4578063223475321461029b57806329e7178b146102ae5780632ef6dabe146102cf578063375b4270146102e257600080fd5b806309ca4e5d146102165780630a3912561461022b57806312cc3ab01461025957806321b05e5914610284575b600080fd5b61022961022436600461362b565b61056b565b005b61023e61023936600461356b565b61080d565b604051610250969594939291906139c2565b60405180910390f35b60035461026c906001600160a01b031681565b6040516001600160a01b039091168152602001610250565b61028d60075481565b604051908152602001610250565b61028d6102a9366004613584565b6108ef565b6102c16102bc36600461356b565b610b68565b6040516102509291906138de565b6102296102dd366004613584565b610c15565b60055461026c906001600160a01b031681565b60045461026c906001600160a01b031681565b6102296103163660046134cf565b610e12565b6102296103293660046137d7565b610f29565b604080518082018252601d81527f322e322e302b747265656a65722e6972656c6179726563697069656e740000006020820152905161025091906138cb565b61022961037b3660046134cf565b610ff8565b61022961038e366004613699565b61110f565b6103bb6103a13660046134cf565b6000546201000090046001600160a01b0390811691161490565b6040519015158152602001610250565b6103bb6103d936600461377f565b61137e565b6102296103ec3660046135b0565b61151c565b6102296103ff36600461356b565b611a52565b610229610412366004613753565b611b05565b610229610425366004613584565b611be3565b61043d61043836600461356b565b611d5e565b60405161025098979695949392919061385d565b60005461026c906201000090046001600160a01b031681565b6102296104783660046135b0565b611e55565b61022961048b366004613584565b612319565b61022961049e36600461356b565b612418565b6102296104b1366004613507565b6124ae565b6102296104c43660046135b0565b6126f7565b6102296104d73660046135e0565b612afd565b6102296104ea3660046134cf565b612c3c565b6105026104fd3660046137b4565b612da4565b60405163ffffffff9091168152602001610250565b60025461026c9061010090046001600160a01b031681565b61022961053d3660046134cf565b612f61565b61028d60065481565b6002546103bb9060ff1681565b6102296105663660046134cf565b61304b565b6000858152600860205260409020600280820154600160401b90046001600160401b0316146105e15760405162461bcd60e51b815260206004820152601d60248201527f696e76616c696420747265652073746174757320666f7220706c616e7400000060448201526064015b60405180910390fd5b6005546000906001600160a01b0316630649d9306105fd613162565b845460405160e084901b6001600160e01b03191681526001600160a01b03928316600482015291166024820152604401602060405180830381600087803b15801561064757600080fd5b505af115801561065b573d6000803e3d6000fd5b505050506040513d601f19601f8201168201806040525081019061067f91906134ea565b9050806106ce5760405162461bcd60e51b815260206004820152601a60248201527f706c616e74696e67207065726d697373696f6e2064656e69656400000000000060448201526064016105d8565b81546001600160a01b03166106e1613162565b6001600160a01b031614610713576106f7613162565b82546001600160a01b0319166001600160a01b03919091161782555b600087815260096020526040902061072c81888861326d565b506001818101805467ffffffffffffffff191690911790556002830180546001600160401b038716600160c01b02640100000000600160c01b0390911661ffff87161717905561077b4261319c565b60028401805477ffffffffffffffffffffffffffffffff00000000000000001916600160801b6001600160401b03939093169290920267ffffffffffffffff60401b191691909117680300000000000000001790556040518881527f503b1a425e60188ed8f261fa766526cc490233516afaca990304c007989d40629060200160405180910390a15050505050505050565b600a602052600090815260409020805460018201546002830180546001600160401b0380851695600160401b8604821695600160801b8104831695600160c01b909104909216936001600160a01b039092169290919061086c90613ab8565b80601f016020809104026020016040519081016040528092919081815260200182805461089890613ab8565b80156108e55780601f106108ba576101008083540402835291602001916108e5565b820191906000526020600020905b8154815290600101906020018083116108c857829003601f168201915b5050505050905086565b60025460009061010090046001600160a01b031663ebe6a6f3610910613162565b6040516001600160e01b031960e084901b1681526001600160a01b03909116600482015260240160006040518083038186803b15801561094f57600080fd5b505afa158015610963573d6000803e3d6000fd5b5050505060008360016109769190613a19565b60008181526008602052604081206002015491925090600160401b90046001600160401b03161580156109c55750600082815260086020526040902060020154600160201b900463ffffffff16155b80610a1b5750600082815260086020526040902060020154600160401b90046001600160401b03166004148015610a1b575060008281526008602052604090206002015463ffffffff600160201b909104166004145b90505b80610ad957610a2e826001613a19565b600081815260086020526040902060020154909250600160401b90046001600160401b0316158015610a7c5750600082815260086020526040902060020154600160201b900463ffffffff16155b80610ad25750600082815260086020526040902060020154600160401b90046001600160401b03166004148015610ad2575060008281526008602052604090206002015463ffffffff600160201b909104166004145b9050610a1e565b60008281526008602052604090819020600201805463ffffffff60201b191690556003549051632851206560e21b81526001600160a01b038681166004830152602482018590529091169063a144819490604401600060405180830381600087803b158015610b4757600080fd5b505af1158015610b5b573d6000803e3d6000fd5b5093979650505050505050565b600960205260009081526040902080548190610b8390613ab8565b80601f0160208091040260200160405190810160405280929190818152602001828054610baf90613ab8565b8015610bfc5780601f10610bd157610100808354040283529160200191610bfc565b820191906000526020600020905b815481529060010190602001808311610bdf57829003601f168201915b505050600190930154919250506001600160401b031682565b60025461010090046001600160a01b031663c4d2a31b610c33613162565b6040516001600160e01b031960e084901b1681526001600160a01b03909116600482015260240160006040518083038186803b158015610c7257600080fd5b505afa158015610c86573d6000803e3d6000fd5b5050506000838152600860205260409020600280820154919250600160401b9091046001600160401b031614610cf75760405162461bcd60e51b815260206004820152601660248201527534b73b30b634b2103a3932b2903a379030b9b9b4b3b760511b60448201526064016105d8565b600554604051633d9b75df60e01b81526001600160a01b03848116600483015290911690633d9b75df9060240160206040518083038186803b158015610d3c57600080fd5b505afa158015610d50573d6000803e3d6000fd5b505050506040513d601f19601f82011682018060405250810190610d7491906134ea565b610dc05760405162461bcd60e51b815260206004820152601c60248201527f63616e27742061737369676e207472656520746f20706c616e7465720000000060448201526064016105d8565b80546001600160a01b0319166001600160a01b0383161781556040518381527f5569e20f761862546a9a892a1fd4508e29978c6a2673afb7ec47675e8cf6b465906020015b60405180910390a1505050565b60025461010090046001600160a01b0316638413ec14610e30613162565b6040516001600160e01b031960e084901b1681526001600160a01b03909116600482015260240160006040518083038186803b158015610e6f57600080fd5b505afa158015610e83573d6000803e3d6000fd5b505050506000819050806001600160a01b03166337b9fd776040518163ffffffff1660e01b815260040160206040518083038186803b158015610ec557600080fd5b505afa158015610ed9573d6000803e3d6000fd5b505050506040513d601f19601f82011682018060405250810190610efd91906134ea565b610f0657600080fd5b600380546001600160a01b0319166001600160a01b039290921691909117905550565b60025461010090046001600160a01b031663d449b6ac610f47613162565b6040516001600160e01b031960e084901b1681526001600160a01b03909116600482015260240160006040518083038186803b158015610f8657600080fd5b505afa158015610f9a573d6000803e3d6000fd5b5050506001600160401b0384166000908152600860205260409020610fc49150600301838361326d565b507fe057d65b6e89ca5556afee78d44476007a26185cff8218bc9e2d10f5bb0d6f6b838383604051610e0593929190613983565b60025461010090046001600160a01b0316638413ec14611016613162565b6040516001600160e01b031960e084901b1681526001600160a01b03909116600482015260240160006040518083038186803b15801561105557600080fd5b505afa158015611069573d6000803e3d6000fd5b505050506000819050806001600160a01b031663349904da6040518163ffffffff1660e01b815260040160206040518083038186803b1580156110ab57600080fd5b505afa1580156110bf573d6000803e3d6000fd5b505050506040513d601f19601f820116820180604052508101906110e391906134ea565b6110ec57600080fd5b600480546001600160a01b0319166001600160a01b039290921691909117905550565b611117613162565b6000838152600860205260409020546001600160a01b0390811691161461118c5760405162461bcd60e51b8152602060048201526024808201527f4f6e6c7920506c616e746572206f6620747265652063616e2073656e642075706044820152636461746560e01b60648201526084016105d8565b6000828152600860205260409020600201546003600160401b9091046001600160401b0316116111f15760405162461bcd60e51b815260206004820152601060248201526f151c9959481b9bdd081c1b185b9d195960821b60448201526064016105d8565b60008281526009602052604090206001908101546001600160401b0316141561125c5760405162461bcd60e51b815260206004820152601d60248201527f7570646174652074726565207374617475732069732070656e64696e6700000060448201526064016105d8565b60075460008381526008602052604090206002015461128d90600160401b90046001600160401b0316610e10613a72565b6001600160401b03166112a09190613a19565b6000838152600860205260409020600201546112cc9190600160801b90046001600160401b0316613a19565b4210156113135760405162461bcd60e51b81526020600482015260156024820152740aae0c8c2e8ca40e8d2daca40dcdee840e4cac2c6d605b1b60448201526064016105d8565b6000828152600960209081526040909120825190916113369183918501906132ed565b506001818101805467ffffffffffffffff191690911790556040518381527fb02fa78938a60840517eef874d53897819ea37cc053e40aac321dc45dcfed4a890602001610e05565b60025460009061010090046001600160a01b031663ebe6a6f361139f613162565b6040516001600160e01b031960e084901b1681526001600160a01b03909116600482015260240160006040518083038186803b1580156113de57600080fd5b505afa1580156113f2573d6000803e3d6000fd5b5086925050505b838110156114c557600081815260086020526040902060020154600160201b900463ffffffff161515806114a45750600354604051634f558e7960e01b8152600481018390526001600160a01b0390911690634f558e799060240160206040518083038186803b15801561146c57600080fd5b505afa158015611480573d6000803e3d6000fd5b505050506040513d601f19601f820116820180604052508101906114a491906134ea565b156114b3576000915050611515565b806114bd81613af3565b9150506113f9565b50835b8381101561150f576000818152600860205260409020600201805463ffffffff60201b1916600160201b63ffffffff8616021790558061150781613af3565b9150506114c8565b50600190505b9392505050565b600260019054906101000a90046001600160a01b03166001600160a01b0316634d868f986040518163ffffffff1660e01b815260040160006040518083038186803b15801561156a57600080fd5b505afa15801561157e573d6000803e3d6000fd5b5050505061158a613162565b6000838152600860205260409020546001600160a01b03908116911614156115c45760405162461bcd60e51b81526004016105d890613940565b60008281526009602052604090206001908101546001600160401b03161461162e5760405162461bcd60e51b815260206004820152601d60248201527f75706461746520737461747573206d7573742062652070656e64696e6700000060448201526064016105d8565b6000828152600860205260409020600201546003600160401b9091046001600160401b0316116116935760405162461bcd60e51b815260206004820152601060248201526f151c9959481b9bdd081c1b185b9d195960821b60448201526064016105d8565b60025461010090046001600160a01b0316637aa153b46116b1613162565b6040516001600160e01b031960e084901b1681526001600160a01b03909116600482015260240160206040518083038186803b1580156116f057600080fd5b505afa158015611704573d6000803e3d6000fd5b505050506040513d601f19601f8201168201806040525081019061172891906134ea565b806117d957506005546000838152600860205260409020546001600160a01b03918216916355c3a79e911661175b613162565b6040516001600160e01b031960e085901b1681526001600160a01b0392831660048201529116602482015260440160206040518083038186803b1580156117a157600080fd5b505afa1580156117b5573d6000803e3d6000fd5b505050506040513d601f19601f820116820180604052508101906117d991906134ea565b6117f55760405162461bcd60e51b81526004016105d890613909565b60008281526009602052604090208115611a0a57600083815260086020526040812060018301805467ffffffffffffffff19166003179055600281015490919061186690610e109061185790600160801b90046001600160401b031642613aa1565b6118619190613a31565b613208565b6002830154909150600160401b90046001600160401b031663ffffffff821611156118b05760028201805467ffffffffffffffff60401b191663ffffffff8316600160401b021790555b8254600383019084906118c290613ab8565b6118cd929190613361565b50600354604051634f558e7960e01b8152600481018790526001600160a01b0390911690634f558e799060240160206040518083038186803b15801561191257600080fd5b505afa158015611926573d6000803e3d6000fd5b505050506040513d601f19601f8201168201806040525081019061194a91906134ea565b156119d057600480548354600285015460405163c0ba4aff60e01b81529384018990526001600160a01b039182166024850152600160401b90046001600160401b03166044840152169063c0ba4aff90606401600060405180830381600087803b1580156119b757600080fd5b505af11580156119cb573d6000803e3d6000fd5b505050505b6040518581527f50dc150da4a25245987f08b8287e8418fa686f9fa829464e548245dff47345e19060200160405180910390a15050505050565b60018101805467ffffffffffffffff191660021790556040517fd673279ff35d1b6d6338f6c7540f40288d9660bf5f39d7c8a8b27eb206844f7390610e059085815260200190565b60025461010090046001600160a01b031663c4d2a31b611a70613162565b6040516001600160e01b031960e084901b1681526001600160a01b03909116600482015260240160006040518083038186803b158015611aaf57600080fd5b505afa158015611ac3573d6000803e3d6000fd5b505050508062015180611ad69190613a53565b6007556040517f724a8c86a27543b6d373c576963d00ead954c78a72015a1929b5757edeaa06c890600090a150565b60025461010090046001600160a01b031663ebe6a6f3611b23613162565b6040516001600160e01b031960e084901b1681526001600160a01b03909116600482015260240160006040518083038186803b158015611b6257600080fd5b505afa158015611b76573d6000803e3d6000fd5b5085925050505b82811015611bdd57600081815260086020526040902060020154600160201b900463ffffffff16821415611bcb576000818152600860205260409020600201805463ffffffff60201b191690555b80611bd581613af3565b915050611b7d565b50505050565b60025461010090046001600160a01b031663ebe6a6f3611c01613162565b6040516001600160e01b031960e084901b1681526001600160a01b03909116600482015260240160006040518083038186803b158015611c4057600080fd5b505afa158015611c54573d6000803e3d6000fd5b50505060008381526008602052604090206002810154909150600160401b90046001600160401b03166004148015611c9e5750600281015463ffffffff600160201b909104166004145b611ce15760405162461bcd60e51b81526020600482015260146024820152731d1c9959481b5d5cdd081899481c1b185b9d195960621b60448201526064016105d8565b60028101805463ffffffff60201b19169055600354604051632851206560e21b81526001600160a01b038481166004830152602482018690529091169063a144819490604401600060405180830381600087803b158015611d4157600080fd5b505af1158015611d55573d6000803e3d6000fd5b50505050505050565b60086020526000908152604090208054600182015460028301546003840180546001600160a01b0390941694929363ffffffff80841694600160201b8504909116936001600160401b03600160401b8204811694600160801b8304821694600160c01b9093049091169291611dd290613ab8565b80601f0160208091040260200160405190810160405280929190818152602001828054611dfe90613ab8565b8015611e4b5780601f10611e2057610100808354040283529160200191611e4b565b820191906000526020600020905b815481529060010190602001808311611e2e57829003601f168201915b5050505050905088565b6000828152600a60205260409020611e6b613162565b60018201546001600160a01b0390811691161415611e9b5760405162461bcd60e51b81526004016105d890613940565b60025461010090046001600160a01b0316637aa153b4611eb9613162565b6040516001600160e01b031960e084901b1681526001600160a01b03909116600482015260240160206040518083038186803b158015611ef857600080fd5b505afa158015611f0c573d6000803e3d6000fd5b505050506040513d601f19601f82011682018060405250810190611f3091906134ea565b80611fd7575060055460018201546001600160a01b03918216916355c3a79e9116611f59613162565b6040516001600160e01b031960e085901b1681526001600160a01b0392831660048201529116602482015260440160206040518083038186803b158015611f9f57600080fd5b505afa158015611fb3573d6000803e3d6000fd5b505050506040513d601f19601f82011682018060405250810190611fd791906134ea565b611ff35760405162461bcd60e51b81526004016105d890613909565b8054600160401b90046001600160401b03166120495760405162461bcd60e51b81526020600482015260156024820152741c9959dd5b185c951c9959481b9bdd08195e1a5cdd605a1b60448201526064016105d8565b81156122ad57600060065460016120609190613a19565b90505b600081815260086020526040902060020154600160401b90046001600160401b03161580156120ae5750600081815260086020526040902060020154600160201b900463ffffffff16155b6120c4576120bd816001613a19565b9050612063565b6006819055600081815260086020526040902082546002808301805467ffffffffffffffff60801b198116600160401b9094046001600160401b03908116600160801b908102958617845588540461ffff1677ffffffffffffffff000000000000000000000000ffffffff19831663ffffffff198716178117845588546fffffffffffffffffffffffff00000000909316640100000000600160c01b03909616959095179094179316600160c01b02929092179091558301805460038301919061218d90613ab8565b612198929190613361565b50600183015481546001600160a01b039182166001600160a01b031990911617825560028201805467ffffffffffffffff60401b1916600160421b179055600354600654604051634f558e7960e01b81526004810191909152911690634f558e799060240160206040518083038186803b15801561221557600080fd5b505afa158015612229573d6000803e3d6000fd5b505050506040513d601f19601f8201168201806040525081019061224d91906134ea565b61226b5760028101805463ffffffff60201b19166404000000001790555b7f75d4be3d71dae36b4a76a4dfaae743da5901ca7215c11a1dd0fb693730b9ea1760065460405161229e91815260200190565b60405180910390a150506122e1565b6040518381527fa9575f46e68545de141e3ca99ed4d1c7a814076adc5b7214da6b0a2cb44135569060200160405180910390a15b6000838152600a602052604081208181556001810180546001600160a01b03191690559061231260028301826133dc565b5050505050565b60025461010090046001600160a01b031663ebe6a6f3612337613162565b6040516001600160e01b031960e084901b1681526001600160a01b03909116600482015260240160006040518083038186803b15801561237657600080fd5b505afa15801561238a573d6000803e3d6000fd5b50505060008381526008602052604090819020600201805463ffffffff60201b191690556003549051632851206560e21b81526001600160a01b03848116600483015260248201869052909116915063a144819490604401600060405180830381600087803b1580156123fc57600080fd5b505af1158015612410573d6000803e3d6000fd5b505050505050565b60025461010090046001600160a01b031663ebe6a6f3612436613162565b6040516001600160e01b031960e084901b1681526001600160a01b03909116600482015260240160006040518083038186803b15801561247557600080fd5b505afa158015612489573d6000803e3d6000fd5b505050600091825250600860205260409020600201805463ffffffff60201b19169055565b6005546001600160a01b031663a1f74f0e6124c7613162565b6040516001600160e01b031960e084901b1681526001600160a01b039091166004820152602401602060405180830381600087803b15801561250857600080fd5b505af115801561251c573d6000803e3d6000fd5b505050506040513d601f19601f8201168201806040525081019061254091906134ea565b61254957600080fd5b6040518060c00160405280836001600160401b0316815260200161256c4261319c565b6001600160401b0316815261ffff8316602082015260006040820152606001612593613162565b6001600160a01b0316815260200185858080601f0160208091040260200160405190810160405280939291908181526020018383808284376000920182905250939094525050600154600a92508152602080820192909252604090810160002083518154858501519386015160608701516001600160401b03908116600160c01b026001600160c01b03928216600160801b02929092166fffffffffffffffffffffffffffffffff968216600160401b026fffffffffffffffffffffffffffffffff19909416919094161791909117939093161791909117815560808301516001820180546001600160a01b039092166001600160a01b031990921691909117905560a0830151805191926126b0926002850192909101906132ed565b50506001547f6efeb6d0d0a494d52bc4a4c7fce81b3374786e440b2459f8ef1d87f170021907915060405190815260200160405180910390a1611bdd600180546001019055565b600260019054906101000a90046001600160a01b03166001600160a01b0316634d868f986040518163ffffffff1660e01b815260040160006040518083038186803b15801561274557600080fd5b505afa158015612759573d6000803e3d6000fd5b50505060008381526008602052604090206002810154909150600160401b90046001600160401b03166003146127c75760405162461bcd60e51b8152602060048201526013602482015272696e76616c696420747265652073746174757360681b60448201526064016105d8565b6127cf613162565b81546001600160a01b03908116911614156128385760405162461bcd60e51b815260206004820152602360248201527f506c616e746572206f6620747265652063616e2774206163636570742075706460448201526261746560e81b60648201526084016105d8565b60025461010090046001600160a01b0316637aa153b4612856613162565b6040516001600160e01b031960e084901b1681526001600160a01b03909116600482015260240160206040518083038186803b15801561289557600080fd5b505afa1580156128a9573d6000803e3d6000fd5b505050506040513d601f19601f820116820180604052508101906128cd91906134ea565b80612971575060055481546001600160a01b03918216916355c3a79e91166128f3613162565b6040516001600160e01b031960e085901b1681526001600160a01b0392831660048201529116602482015260440160206040518083038186803b15801561293957600080fd5b505afa15801561294d573d6000803e3d6000fd5b505050506040513d601f19601f8201168201806040525081019061297191906134ea565b61298d5760405162461bcd60e51b81526004016105d890613909565b60008381526009602052604090208215612a2b578054600383019082906129b390613ab8565b6129be929190613361565b5060028201805467ffffffffffffffff60401b1916600160421b179055600181018054600367ffffffffffffffff199091161790556040518481527f84877ccbface2d9faaae31e1d836044ce2bec38ea03584b8b86d18f050d5dda99060200160405180910390a1611bdd565b6002828101805467ffffffffffffffff60401b1916600160411b17905560018201805467ffffffffffffffff1916909117905560055482546040516333fd9ea160e01b81526001600160a01b0391821660048201529116906333fd9ea190602401600060405180830381600087803b158015612aa657600080fd5b505af1158015612aba573d6000803e3d6000fd5b505050507f757078b47c8e43ba433477862b6756d44e0e727466986d807a29c9333927237384604051612aef91815260200190565b60405180910390a150505050565b60025461010090046001600160a01b031663c4d2a31b612b1b613162565b6040516001600160e01b031960e084901b1681526001600160a01b03909116600482015260240160006040518083038186803b158015612b5a57600080fd5b505afa158015612b6e573d6000803e3d6000fd5b505050600084815260086020526040902060020154600160401b90046001600160401b0316159050612bd35760405162461bcd60e51b815260206004820152600e60248201526d6475706c6963617465207472656560901b60448201526064016105d8565b600083815260086020526040902060028101805467ffffffffffffffff60401b1916600160411b179055612c0b60038201848461326d565b506040518481527fa4af200dc5a6779ca0b468c7da84df9212cacc9efa51c54cf145b4f8308796b490602001612aef565b600054610100900460ff1680612c55575060005460ff16155b612cb85760405162461bcd60e51b815260206004820152602e60248201527f496e697469616c697a61626c653a20636f6e747261637420697320616c72656160448201526d191e481a5b9a5d1a585b1a5e995960921b60648201526084016105d8565b600054610100900460ff16158015612cda576000805461ffff19166101011790555b6000829050806001600160a01b031663ba84fd696040518163ffffffff1660e01b815260040160206040518083038186803b158015612d1857600080fd5b505afa158015612d2c573d6000803e3d6000fd5b505050506040513d601f19601f82011682018060405250810190612d5091906134ea565b612d5957600080fd5b600280546001600160a01b03909216610100026001600160a81b031990921691909117600117905561271060065562093a806007558015612da0576000805461ff00191690555b5050565b60025460009061010090046001600160a01b031663ebe6a6f3612dc5613162565b6040516001600160e01b031960e084901b1681526001600160a01b03909116600482015260240160006040518083038186803b158015612e0457600080fd5b505afa158015612e18573d6000803e3d6000fd5b505050600084815260086020526040902060020154849150600160401b90046001600160401b0316612e7b5760405162461bcd60e51b815260206004820152600c60248201526b696e76616c6964207472656560a01b60448201526064016105d8565b600354604051634f558e7960e01b8152600481018690526001600160a01b0390911690634f558e799060240160206040518083038186803b158015612ebf57600080fd5b505afa158015612ed3573d6000803e3d6000fd5b505050506040513d601f19601f82011682018060405250810190612ef791906134ea565b15612f055760019150612f5a565b600084815260086020526040902060020154600160201b900463ffffffff1680612f57576000858152600860205260409020600201805463ffffffff60201b1916600160201b63ffffffff8716021790555b91505b5092915050565b60025461010090046001600160a01b0316638413ec14612f7f613162565b6040516001600160e01b031960e084901b1681526001600160a01b03909116600482015260240160006040518083038186803b158015612fbe57600080fd5b505afa158015612fd2573d6000803e3d6000fd5b5083925050506001600160a01b0381166130205760405162461bcd60e51b815260206004820152600f60248201526e696e76616c6964206164647265737360881b60448201526064016105d8565b50600080546001600160a01b03909216620100000262010000600160b01b0319909216919091179055565b60025461010090046001600160a01b0316638413ec14613069613162565b6040516001600160e01b031960e084901b1681526001600160a01b03909116600482015260240160006040518083038186803b1580156130a857600080fd5b505afa1580156130bc573d6000803e3d6000fd5b505050506000819050806001600160a01b03166303dc8deb6040518163ffffffff1660e01b815260040160206040518083038186803b1580156130fe57600080fd5b505afa158015613112573d6000803e3d6000fd5b505050506040513d601f19601f8201168201806040525081019061313691906134ea565b61313f57600080fd5b600580546001600160a01b0319166001600160a01b039290921691909117905550565b60006014361080159061318557506000546201000090046001600160a01b031633145b15613197575060131936013560601c90565b503390565b60006001600160401b038211156132045760405162461bcd60e51b815260206004820152602660248201527f53616665436173743a2076616c756520646f65736e27742066697420696e203660448201526534206269747360d01b60648201526084016105d8565b5090565b600063ffffffff8211156132045760405162461bcd60e51b815260206004820152602660248201527f53616665436173743a2076616c756520646f65736e27742066697420696e203360448201526532206269747360d01b60648201526084016105d8565b82805461327990613ab8565b90600052602060002090601f01602090048101928261329b57600085556132e1565b82601f106132b45782800160ff198235161785556132e1565b828001600101855582156132e1579182015b828111156132e15782358255916020019190600101906132c6565b50613204929150613419565b8280546132f990613ab8565b90600052602060002090601f01602090048101928261331b57600085556132e1565b82601f1061333457805160ff19168380011785556132e1565b828001600101855582156132e1579182015b828111156132e1578251825591602001919060010190613346565b82805461336d90613ab8565b90600052602060002090601f01602090048101928261338f57600085556132e1565b82601f106133a057805485556132e1565b828001600101855582156132e157600052602060002091601f016020900482015b828111156132e15782548255916001019190600101906133c1565b5080546133e890613ab8565b6000825580601f106133f8575050565b601f0160209004906000526020600020908101906134169190613419565b50565b5b80821115613204576000815560010161341a565b80356001600160a01b038116811461344557600080fd5b919050565b60008083601f84011261345c57600080fd5b5081356001600160401b0381111561347357600080fd5b60208301915083602082850101111561348b57600080fd5b9250929050565b803561ffff8116811461344557600080fd5b803563ffffffff8116811461344557600080fd5b80356001600160401b038116811461344557600080fd5b6000602082840312156134e157600080fd5b6115158261342e565b6000602082840312156134fc57600080fd5b815161151581613b3a565b6000806000806060858703121561351d57600080fd5b84356001600160401b0381111561353357600080fd5b61353f8782880161344a565b90955093506135529050602086016134b8565b915061356060408601613492565b905092959194509250565b60006020828403121561357d57600080fd5b5035919050565b6000806040838503121561359757600080fd5b823591506135a76020840161342e565b90509250929050565b600080604083850312156135c357600080fd5b8235915060208301356135d581613b3a565b809150509250929050565b6000806000604084860312156135f557600080fd5b8335925060208401356001600160401b0381111561361257600080fd5b61361e8682870161344a565b9497909650939450505050565b60008060008060006080868803121561364357600080fd5b8535945060208601356001600160401b0381111561366057600080fd5b61366c8882890161344a565b909550935061367f9050604087016134b8565b915061368d60608701613492565b90509295509295909350565b600080604083850312156136ac57600080fd5b8235915060208301356001600160401b03808211156136ca57600080fd5b818501915085601f8301126136de57600080fd5b8135818111156136f0576136f0613b24565b604051601f8201601f19908116603f0116810190838211818310171561371857613718613b24565b8160405282815288602084870101111561373157600080fd5b8260208601602083013760006020848301015280955050505050509250929050565b60008060006060848603121561376857600080fd5b505081359360208301359350604090920135919050565b60008060006060848603121561379457600080fd5b83359250602084013591506137ab604085016134a4565b90509250925092565b600080604083850312156137c757600080fd5b823591506135a7602084016134a4565b6000806000604084860312156137ec57600080fd5b6137f5846134b8565b925060208401356001600160401b0381111561361257600080fd5b6000815180845260005b818110156138365760208185018101518683018201520161381a565b81811115613848576000602083870101525b50601f01601f19169290920160200192915050565b6001600160a01b03891681526020810188905263ffffffff8781166040830152861660608201526001600160401b03858116608083015284811660a0830152831660c082015261010060e082018190526000906138bc83820185613810565b9b9a5050505050505050505050565b6020815260006115156020830184613810565b6040815260006138f16040830185613810565b90506001600160401b03831660208301529392505050565b60208082526018908201527f696e76616c69642061636365737320746f207665726966790000000000000000604082015260600190565b60208082526023908201527f506c616e746572206f6620747265652063616e2774207665726966792075706460408201526261746560e81b606082015260800190565b6001600160401b038416815260406020820152816040820152818360608301376000818301606090810191909152601f909201601f1916010192915050565b6001600160401b03878116825286811660208301528581166040830152841660608201526001600160a01b038316608082015260c060a08201819052600090613a0d90830184613810565b98975050505050505050565b60008219821115613a2c57613a2c613b0e565b500190565b600082613a4e57634e487b7160e01b600052601260045260246000fd5b500490565b6000816000190483118215151615613a6d57613a6d613b0e565b500290565b60006001600160401b0380831681851681830481118215151615613a9857613a98613b0e565b02949350505050565b600082821015613ab357613ab3613b0e565b500390565b600181811c90821680613acc57607f821691505b60208210811415613aed57634e487b7160e01b600052602260045260246000fd5b50919050565b6000600019821415613b0757613b07613b0e565b5060010190565b634e487b7160e01b600052601160045260246000fd5b634e487b7160e01b600052604160045260246000fd5b801515811461341657600080fdfea26469706673582212205f1b5fcc0df9c47a474756c598e59ca59df14dde1132a293e1cbcb641182b83364736f6c63430008060033",
  "immutableReferences": {},
  "source": "// SPDX-License-Identifier: GPL-3.0\n\npragma solidity ^0.8.6;\n\nimport \"@openzeppelin/contracts-upgradeable/utils/math/SafeCastUpgradeable.sol\";\n\nimport \"@openzeppelin/contracts-upgradeable/utils/CountersUpgradeable.sol\";\nimport \"@openzeppelin/contracts-upgradeable/proxy/utils/Initializable.sol\";\nimport \"../access/IAccessRestriction.sol\";\nimport \"../gsn/RelayRecipient.sol\";\nimport \"../tree/ITree.sol\";\nimport \"../treasury/IPlanterFund.sol\";\nimport \"../planter/IPlanter.sol\";\n\n/** @title TreeFactory Contract */\ncontract TreeFactory is Initializable, RelayRecipient {\n    using CountersUpgradeable for CountersUpgradeable.Counter;\n    using SafeCastUpgradeable for uint256;\n    using SafeCastUpgradeable for uint32;\n\n    CountersUpgradeable.Counter private pendingRegularTreeId;\n\n    /** NOTE {isTreeFactory} set inside the initialize to {true} */\n    bool public isTreeFactory;\n\n    IAccessRestriction public accessRestriction;\n    ITree public treeToken;\n    IPlanterFund public planterFund;\n    IPlanter public planterContract;\n\n    uint256 public lastRegualarTreeId;\n    uint256 public treeUpdateInterval;\n\n    struct TreeData {\n        address planter;\n        uint256 species;\n        uint32 countryCode;\n        uint32 saleType;\n        uint64 treeStatus;\n        uint64 plantDate;\n        uint64 birthDate;\n        string treeSpecs;\n    }\n\n    struct TreeUpdate {\n        string updateSpecs;\n        uint64 updateStatus;\n    }\n\n    struct TempTree {\n        uint64 birthDate;\n        uint64 plantDate;\n        uint64 countryCode;\n        uint64 otherData;\n        address planter;\n        string treeSpecs;\n    }\n    /** NOTE mapping of treeId to Tree Struct */\n    mapping(uint256 => TreeData) public trees;\n    /** NOTE mapping of treeId to TreeUpdate struct */\n    mapping(uint256 => TreeUpdate) public treeUpdates;\n    /** NOTE mapping of treeId to TempTree struct */\n    mapping(uint256 => TempTree) public tempTrees;\n\n    event TreeListed(uint256 treeId);\n    event TreeAssigned(uint256 treeId);\n    event AssignedTreePlanted(uint256 treeId);\n    event AssignedTreeVerified(uint256 treeId);\n    event AssignedTreeRejected(uint256 treeId);\n    event TreeUpdated(uint256 treeId);\n    event TreeUpdatedVerified(uint256 treeId);\n    event TreeUpdateRejected(uint256 treeId);\n    event TreePlanted(uint256 treeId);\n    event TreeVerified(uint256 treeId);\n    event TreeRejected(uint256 treeId);\n    event TreeUpdateIntervalChanged();\n    event TreeSpecsUpdated(uint256 treeId, string treeSpecs);\n\n    /** NOTE modifier to check msg.sender has admin role */\n    modifier onlyAdmin() {\n        accessRestriction.ifAdmin(_msgSender());\n        _;\n    }\n\n    /** NOTE modifier to check msg.sender has data manager role */\n    modifier onlyDataManager() {\n        accessRestriction.ifDataManager(_msgSender());\n        _;\n    }\n\n    /** NOTE modifier for check if function is not paused*/\n    modifier ifNotPaused() {\n        accessRestriction.ifNotPaused();\n        _;\n    }\n\n    /** NOTE modifier to check msg.sender has script role */\n    modifier onlyScript() {\n        accessRestriction.ifScript(_msgSender());\n        _;\n    }\n\n    /** NOTE modifier for check msg.sender has TreejerContract role */\n    modifier onlyTreejerContract() {\n        accessRestriction.ifTreejerContract(_msgSender());\n        _;\n    }\n\n    /** NOTE modifier for check treeId to be valid tree */\n    modifier validTree(uint256 _treeId) {\n        require(trees[_treeId].treeStatus > 0, \"invalid tree\");\n        _;\n    }\n\n    /** NOTE modifier for check valid address */\n    modifier validAddress(address _address) {\n        require(_address != address(0), \"invalid address\");\n        _;\n    }\n\n    /**\n     * @dev initialize accessRestriction contract and set true for isTreeFactory\n     * @param _accessRestrictionAddress set to the address of accessRestriction contract\n     * NOTE set lastRegualarTreeId to 10000\n     */\n    function initialize(address _accessRestrictionAddress)\n        external\n        initializer\n    {\n        IAccessRestriction candidateContract = IAccessRestriction(\n            _accessRestrictionAddress\n        );\n\n        require(candidateContract.isAccessRestriction());\n\n        isTreeFactory = true;\n        accessRestriction = candidateContract;\n        lastRegualarTreeId = 10000;\n        treeUpdateInterval = 604800;\n    }\n\n    /**\n     * @dev set trusted forwarder address\n     * @param _address set to {trustedForwarder}\n     */\n    function setTrustedForwarder(address _address)\n        external\n        onlyAdmin\n        validAddress(_address)\n    {\n        trustedForwarder = _address;\n    }\n\n    /**\n     * @dev admin set PlanterFund contract address\n     * @param _address set to the address of PlanterFund contract\n     */\n    function setPlanterFundAddress(address _address) external onlyAdmin {\n        IPlanterFund candidateContract = IPlanterFund(_address);\n\n        require(candidateContract.isPlanterFund());\n\n        planterFund = candidateContract;\n    }\n\n    /**\n     * @dev admin set Planter contract address\n     * @param _address set to the address of Planter contract\n     */\n    function setPlanterContractAddress(address _address) external onlyAdmin {\n        IPlanter candidateContract = IPlanter(_address);\n\n        require(candidateContract.isPlanter());\n\n        planterContract = candidateContract;\n    }\n\n    /**\n     * @dev admin set TreeToken contract address\n     * @param _address set to the address of TreeToken contract\n     */\n    function setTreeTokenAddress(address _address) external onlyAdmin {\n        ITree candidateContract = ITree(_address);\n\n        require(candidateContract.isTree());\n\n        treeToken = candidateContract;\n    }\n\n    /** @dev admin can set the minimum time to send next update request\n     * @param _day time to next update request\n     */\n    function setUpdateInterval(uint256 _day) external onlyDataManager {\n        treeUpdateInterval = _day * 86400;\n\n        emit TreeUpdateIntervalChanged();\n    }\n\n    /**\n     * @dev admin add tree\n     * @param _treeId id of tree to add\n     * @param _treeSpecs tree specs\n     */\n    function listTree(uint256 _treeId, string calldata _treeSpecs)\n        external\n        onlyDataManager\n    {\n        require(trees[_treeId].treeStatus == 0, \"duplicate tree\");\n\n        TreeData storage treeData = trees[_treeId];\n\n        treeData.treeStatus = 2;\n        treeData.treeSpecs = _treeSpecs;\n\n        emit TreeListed(_treeId);\n    }\n\n    /**\n     * @dev admin assign an existing tree to planter\n     * @param _treeId id of tree to assign\n     * @param _planter assignee planter\n     * NOTE tree must be not planted\n     */\n    function assignTree(uint256 _treeId, address _planter)\n        external\n        onlyDataManager\n    {\n        TreeData storage treeData = trees[_treeId];\n\n        require(treeData.treeStatus == 2, \"invalid tree to assign\");\n\n        require(\n            planterContract.canAssignTree(_planter),\n            \"can't assign tree to planter\"\n        );\n\n        treeData.planter = _planter;\n\n        emit TreeAssigned(_treeId);\n    }\n\n    /**\n     * @dev planter with permission to plant, can plan their trees\n     * @param _treeId id of tree to plant\n     * @param _treeSpecs tree specs\n     * @param _birthDate birth date of tree\n     * @param _countryCode country code of tree\n     */\n    function plantAssignedTree(\n        uint256 _treeId,\n        string calldata _treeSpecs,\n        uint64 _birthDate,\n        uint16 _countryCode\n    ) external {\n        TreeData storage treeData = trees[_treeId];\n\n        require(treeData.treeStatus == 2, \"invalid tree status for plant\");\n\n        bool canPlant = planterContract.manageAssignedTreePermission(\n            _msgSender(),\n            treeData.planter\n        );\n\n        require(canPlant, \"planting permission denied\");\n\n        if (_msgSender() != treeData.planter) {\n            treeData.planter = _msgSender();\n        }\n\n        TreeUpdate storage treeUpdateData = treeUpdates[_treeId];\n\n        treeUpdateData.updateSpecs = _treeSpecs;\n        treeUpdateData.updateStatus = 1;\n\n        treeData.countryCode = _countryCode;\n        treeData.birthDate = _birthDate;\n        treeData.plantDate = block.timestamp.toUint64();\n        treeData.treeStatus = 3;\n\n        emit AssignedTreePlanted(_treeId);\n    }\n\n    /**\n     * @dev admin or allowed verifier can verify a plant or reject.\n     * @param _treeId id of tree to verifiy\n     * @param _isVerified true for verify and false for reject\n     */\n    function verifyAssignedTree(uint256 _treeId, bool _isVerified)\n        external\n        ifNotPaused\n    {\n        TreeData storage treeData = trees[_treeId];\n\n        require(treeData.treeStatus == 3, \"invalid tree status\");\n\n        require(\n            treeData.planter != _msgSender(),\n            \"Planter of tree can't accept update\"\n        );\n\n        require(\n            accessRestriction.isDataManager(_msgSender()) ||\n                planterContract.canVerify(treeData.planter, _msgSender()),\n            \"invalid access to verify\"\n        );\n\n        TreeUpdate storage treeUpdateData = treeUpdates[_treeId];\n\n        if (_isVerified) {\n            treeData.treeSpecs = treeUpdateData.updateSpecs;\n            treeData.treeStatus = 4;\n            treeUpdateData.updateStatus = 3;\n\n            emit AssignedTreeVerified(_treeId);\n        } else {\n            treeData.treeStatus = 2;\n            treeUpdateData.updateStatus = 2;\n            planterContract.reducePlantedCount(treeData.planter);\n\n            emit AssignedTreeRejected(_treeId);\n        }\n    }\n\n    /**\n     * @dev planter of  tree send update request for tree\n     * @param _treeId id of tree to update\n     * @param _treeSpecs tree specs\n     */\n    function updateTree(uint256 _treeId, string memory _treeSpecs) external {\n        require(\n            trees[_treeId].planter == _msgSender(),\n            \"Only Planter of tree can send update\"\n        );\n\n        require(trees[_treeId].treeStatus > 3, \"Tree not planted\");\n\n        require(\n            treeUpdates[_treeId].updateStatus != 1,\n            \"update tree status is pending\"\n        );\n\n        require(\n            block.timestamp >=\n                trees[_treeId].plantDate +\n                    ((trees[_treeId].treeStatus * 3600) + treeUpdateInterval),\n            \"Update time not reach\"\n        );\n\n        TreeUpdate storage treeUpdateData = treeUpdates[_treeId];\n\n        treeUpdateData.updateSpecs = _treeSpecs;\n        treeUpdateData.updateStatus = 1;\n\n        emit TreeUpdated(_treeId);\n    }\n\n    /**\n     * @dev admin or allowed verifier can verifiy or reject update request for tree.\n     * @param _treeId id of tree to verify update request\n     * @param _isVerified true for verify and false for reject\n     * NOTE based on the current time of verifing and plant date, age of tree\n     * calculated and set as the treeStatus\n     * NOTE if a token exist for that tree (minted before) planter of tree funded\n     * based on calculated tree status\n     */\n    function verifyUpdate(uint256 _treeId, bool _isVerified)\n        external\n        ifNotPaused\n    {\n        require(\n            trees[_treeId].planter != _msgSender(),\n            \"Planter of tree can't verify update\"\n        );\n\n        require(\n            treeUpdates[_treeId].updateStatus == 1,\n            \"update status must be pending\"\n        );\n\n        require(trees[_treeId].treeStatus > 3, \"Tree not planted\");\n\n        require(\n            accessRestriction.isDataManager(_msgSender()) ||\n                planterContract.canVerify(trees[_treeId].planter, _msgSender()),\n            \"invalid access to verify\"\n        );\n\n        TreeUpdate storage treeUpdateData = treeUpdates[_treeId];\n\n        if (_isVerified) {\n            TreeData storage treeData = trees[_treeId];\n\n            treeUpdateData.updateStatus = 3;\n\n            uint32 age = ((block.timestamp - treeData.plantDate) / 3600)\n                .toUint32();\n\n            if (age > treeData.treeStatus) {\n                treeData.treeStatus = age;\n            }\n\n            treeData.treeSpecs = treeUpdateData.updateSpecs;\n\n            if (treeToken.exists(_treeId)) {\n                planterFund.updatePlanterTotalClaimed(\n                    _treeId,\n                    treeData.planter,\n                    treeData.treeStatus\n                );\n            }\n\n            emit TreeUpdatedVerified(_treeId);\n        } else {\n            treeUpdateData.updateStatus = 2;\n\n            emit TreeUpdateRejected(_treeId);\n        }\n    }\n\n    /**\n     * @dev check if a tree is valid to take part in an auction\n     * set {_saleType} to saleType when tree is not in use\n     * @return 0 if a tree ready for auction and 1 if a tree is in auction or minted before\n     */\n    function manageSaleType(uint256 _treeId, uint32 _saleType)\n        external\n        onlyTreejerContract\n        validTree(_treeId)\n        returns (uint32)\n    {\n        if (treeToken.exists(_treeId)) {\n            return 1;\n        }\n\n        uint32 currentSaleType = trees[_treeId].saleType;\n\n        if (currentSaleType == 0) {\n            trees[_treeId].saleType = _saleType;\n        }\n\n        return currentSaleType;\n    }\n\n    /** @dev mint {_treeId} to {_funder}  and privdeStatus to 0  */\n    function mintAssignedTree(uint256 _treeId, address _funder)\n        external\n        onlyTreejerContract\n    {\n        trees[_treeId].saleType = 0;\n        treeToken.safeMint(_funder, _treeId);\n    }\n\n    /** @dev exit a {_treeId} from auction */\n    function resetSaleType(uint256 _treeId) external onlyTreejerContract {\n        trees[_treeId].saleType = 0;\n    }\n\n    /** @dev cancel all old incremental sell of trees starting from {_startTreeId} and end at {_endTreeId} */\n    function resetSaleTypeBatch(\n        uint256 _startTreeId,\n        uint256 _endTreeId,\n        uint256 _saleType\n    ) external onlyTreejerContract {\n        for (uint256 i = _startTreeId; i < _endTreeId; i++) {\n            if (trees[i].saleType == _saleType) {\n                trees[i].saleType = 0;\n            }\n        }\n    }\n\n    /**\n     * @dev set incremental and HonoraryTree sell for trees starting from {_startTreeId}\n     * and end at {_endTreeId} by setting {_saleType} to saleType\n     */\n    function manageSaleTypeBatch(\n        uint256 _startTreeId,\n        uint256 _endTreeId,\n        uint32 _saleType\n    ) external onlyTreejerContract returns (bool) {\n        for (uint256 i = _startTreeId; i < _endTreeId; i++) {\n            if (trees[i].saleType > 0 || treeToken.exists(i)) {\n                return false;\n            }\n        }\n        for (uint256 j = _startTreeId; j < _endTreeId; j++) {\n            trees[j].saleType = _saleType;\n        }\n        return true;\n    }\n\n    /**\n     * @dev This function is called by planter who have planted a new tree\n     * The planter enters the information of the new tree\n     * Information is stored in The {tempTrees} mapping\n     * And finally the tree is waiting for approval\n     * @param _treeSpecs //TODO: what is _treeSpecs ??\n     * @param _birthDate birthDate of the tree\n     * @param _countryCode Code of the country where the tree was planted\n     */\n    function plantTree(\n        string calldata _treeSpecs,\n        uint64 _birthDate,\n        uint16 _countryCode\n    ) external {\n        require(planterContract.manageTreePermission(_msgSender()));\n\n        tempTrees[pendingRegularTreeId.current()] = TempTree(\n            _birthDate,\n            block.timestamp.toUint64(),\n            _countryCode,\n            0,\n            _msgSender(),\n            _treeSpecs\n        );\n\n        emit TreePlanted(pendingRegularTreeId.current());\n\n        pendingRegularTreeId.increment();\n    }\n\n    /**\n     * @dev In this function, the admin approves or rejects the pending trees\n     * After calling this function, if the tree is approved the tree information will be transferred to the {trees}\n     *\n     * @param _tempTreeId _tempTreeId\n     * @param _isVerified Tree approved or not\n     */\n    function verifyTree(uint256 _tempTreeId, bool _isVerified) external {\n        TempTree storage tempTreeData = tempTrees[_tempTreeId];\n\n        require(\n            tempTreeData.planter != _msgSender(),\n            \"Planter of tree can't verify update\"\n        );\n\n        require(\n            accessRestriction.isDataManager(_msgSender()) ||\n                planterContract.canVerify(tempTreeData.planter, _msgSender()),\n            \"invalid access to verify\"\n        );\n\n        require(tempTreeData.plantDate > 0, \"regularTree not exist\");\n\n        if (_isVerified) {\n            uint256 tempLastRegularTreeId = lastRegualarTreeId + 1;\n\n            while (\n                !(trees[tempLastRegularTreeId].treeStatus == 0 &&\n                    trees[tempLastRegularTreeId].saleType == 0)\n            ) {\n                tempLastRegularTreeId = tempLastRegularTreeId + 1;\n            }\n\n            lastRegualarTreeId = tempLastRegularTreeId;\n\n            TreeData storage treeData = trees[lastRegualarTreeId];\n\n            treeData.plantDate = tempTreeData.plantDate;\n            treeData.countryCode = uint16(tempTreeData.countryCode);\n            treeData.birthDate = tempTreeData.birthDate;\n            treeData.treeSpecs = tempTreeData.treeSpecs;\n            treeData.planter = tempTreeData.planter;\n            treeData.treeStatus = 4;\n\n            if (!treeToken.exists(lastRegualarTreeId)) {\n                treeData.saleType = 4;\n            }\n            emit TreeVerified(lastRegualarTreeId);\n        } else {\n            emit TreeRejected(_tempTreeId);\n        }\n\n        delete tempTrees[_tempTreeId];\n    }\n\n    /**\n     * @dev Transfer ownership of trees purchased by funders and Update the last tree sold\n     * This function is called only by the regularSale contract\n     * @param _lastFundedTreeId The last tree sold in the regular\n     * @param _funder funder of a new tree sold in Regular\n     * @return The last tree sold after update\n     */\n    function mintTree(uint256 _lastFundedTreeId, address _funder)\n        external\n        onlyTreejerContract\n        returns (uint256)\n    {\n        uint256 tempLastFundedTreeId = _lastFundedTreeId + 1;\n\n        bool flag = (trees[tempLastFundedTreeId].treeStatus == 0 &&\n            trees[tempLastFundedTreeId].saleType == 0) ||\n            (trees[tempLastFundedTreeId].treeStatus == 4 &&\n                trees[tempLastFundedTreeId].saleType == 4);\n\n        while (!flag) {\n            tempLastFundedTreeId = tempLastFundedTreeId + 1;\n\n            flag =\n                (trees[tempLastFundedTreeId].treeStatus == 0 &&\n                    trees[tempLastFundedTreeId].saleType == 0) ||\n                (trees[tempLastFundedTreeId].treeStatus == 4 &&\n                    trees[tempLastFundedTreeId].saleType == 4);\n        }\n\n        trees[tempLastFundedTreeId].saleType = 0;\n\n        treeToken.safeMint(_funder, tempLastFundedTreeId);\n\n        return tempLastFundedTreeId;\n    }\n\n    /**\n     * @dev Request to buy a tree with a specific Id already planted and this function transfer ownership to funder\n     * This function is called only by the regularSale contract\n     * @param _treeId Tree with special Id (The Id must be larger than the last tree sold)\n     * @param _funder funder of a new tree sold in Regular\n     */\n    function mintTreeById(uint256 _treeId, address _funder)\n        external\n        onlyTreejerContract\n    {\n        TreeData storage treeData = trees[_treeId];\n\n        require(\n            treeData.treeStatus == 4 && treeData.saleType == 4,\n            \"tree must be planted\"\n        );\n\n        treeData.saleType = 0;\n\n        treeToken.safeMint(_funder, _treeId);\n    }\n\n    /** @dev script role update {_treeSpecs} of {_treeId} */\n    function updateTreeSpecs(uint64 _treeId, string calldata _treeSpecs)\n        external\n        onlyScript\n    {\n        trees[_treeId].treeSpecs = _treeSpecs;\n\n        emit TreeSpecsUpdated(_treeId, _treeSpecs);\n    }\n}\n",
  "sourcePath": "/media/ali/New Volume/treejer/contract/contracts/tree/TreeFactory.sol",
  "compiler": {
    "name": "solc",
    "version": "0.8.6+commit.11564f7e.Emscripten.clang"
  },
  "schemaVersion": "3.4.1",
  "updatedAt": "2021-10-12T15:17:07.444Z",
  "networkType": "ethereum",
  "devdoc": {
    "kind": "dev",
    "methods": {
      "assignTree(uint256,address)": {
        "details": "admin assign an existing tree to planter",
        "params": {
          "_planter": "assignee planter NOTE tree must be not planted",
          "_treeId": "id of tree to assign"
        }
      },
      "initialize(address)": {
        "details": "initialize accessRestriction contract and set true for isTreeFactory",
        "params": {
          "_accessRestrictionAddress": "set to the address of accessRestriction contract NOTE set lastRegualarTreeId to 10000"
        }
      },
      "listTree(uint256,string)": {
        "details": "admin add tree",
        "params": {
          "_treeId": "id of tree to add",
          "_treeSpecs": "tree specs"
        }
      },
      "manageSaleType(uint256,uint32)": {
        "details": "check if a tree is valid to take part in an auction set {_saleType} to saleType when tree is not in use",
        "returns": {
          "_0": "0 if a tree ready for auction and 1 if a tree is in auction or minted before"
        }
      },
      "manageSaleTypeBatch(uint256,uint256,uint32)": {
        "details": "set incremental and HonoraryTree sell for trees starting from {_startTreeId} and end at {_endTreeId} by setting {_saleType} to saleType"
      },
      "mintAssignedTree(uint256,address)": {
        "details": "mint {_treeId} to {_funder}  and privdeStatus to 0  "
      },
      "mintTree(uint256,address)": {
        "details": "Transfer ownership of trees purchased by funders and Update the last tree sold This function is called only by the regularSale contract",
        "params": {
          "_funder": "funder of a new tree sold in Regular",
          "_lastFundedTreeId": "The last tree sold in the regular"
        },
        "returns": {
          "_0": "The last tree sold after update"
        }
      },
      "mintTreeById(uint256,address)": {
        "details": "Request to buy a tree with a specific Id already planted and this function transfer ownership to funder This function is called only by the regularSale contract",
        "params": {
          "_funder": "funder of a new tree sold in Regular",
          "_treeId": "Tree with special Id (The Id must be larger than the last tree sold)"
        }
      },
      "plantAssignedTree(uint256,string,uint64,uint16)": {
        "details": "planter with permission to plant, can plan their trees",
        "params": {
          "_birthDate": "birth date of tree",
          "_countryCode": "country code of tree",
          "_treeId": "id of tree to plant",
          "_treeSpecs": "tree specs"
        }
      },
      "plantTree(string,uint64,uint16)": {
        "details": "This function is called by planter who have planted a new tree The planter enters the information of the new tree Information is stored in The {tempTrees} mapping And finally the tree is waiting for approval",
        "params": {
          "_birthDate": "birthDate of the tree",
          "_countryCode": "Code of the country where the tree was planted",
          "_treeSpecs": "//TODO: what is _treeSpecs ??"
        }
      },
      "resetSaleType(uint256)": {
        "details": "exit a {_treeId} from auction "
      },
      "resetSaleTypeBatch(uint256,uint256,uint256)": {
        "details": "cancel all old incremental sell of trees starting from {_startTreeId} and end at {_endTreeId} "
      },
      "setPlanterContractAddress(address)": {
        "details": "admin set Planter contract address",
        "params": {
          "_address": "set to the address of Planter contract"
        }
      },
      "setPlanterFundAddress(address)": {
        "details": "admin set PlanterFund contract address",
        "params": {
          "_address": "set to the address of PlanterFund contract"
        }
      },
      "setTreeTokenAddress(address)": {
        "details": "admin set TreeToken contract address",
        "params": {
          "_address": "set to the address of TreeToken contract"
        }
      },
      "setTrustedForwarder(address)": {
        "details": "set trusted forwarder address",
        "params": {
          "_address": "set to {trustedForwarder}"
        }
      },
      "setUpdateInterval(uint256)": {
        "details": "admin can set the minimum time to send next update request",
        "params": {
          "_day": "time to next update request"
        }
      },
      "updateTree(uint256,string)": {
        "details": "planter of  tree send update request for tree",
        "params": {
          "_treeId": "id of tree to update",
          "_treeSpecs": "tree specs"
        }
      },
      "updateTreeSpecs(uint64,string)": {
        "details": "script role update {_treeSpecs} of {_treeId} "
      },
      "verifyAssignedTree(uint256,bool)": {
        "details": "admin or allowed verifier can verify a plant or reject.",
        "params": {
          "_isVerified": "true for verify and false for reject",
          "_treeId": "id of tree to verifiy"
        }
      },
      "verifyTree(uint256,bool)": {
        "details": "In this function, the admin approves or rejects the pending trees After calling this function, if the tree is approved the tree information will be transferred to the {trees}",
        "params": {
          "_isVerified": "Tree approved or not",
          "_tempTreeId": "_tempTreeId"
        }
      },
      "verifyUpdate(uint256,bool)": {
        "details": "admin or allowed verifier can verifiy or reject update request for tree.",
        "params": {
          "_isVerified": "true for verify and false for reject NOTE based on the current time of verifing and plant date, age of tree calculated and set as the treeStatus NOTE if a token exist for that tree (minted before) planter of tree funded based on calculated tree status",
          "_treeId": "id of tree to verify update request"
        }
      },
      "versionRecipient()": {
        "details": "return version recipient "
      }
    },
    "title": "TreeFactory Contract ",
    "version": 1
  },
  "userdoc": {
    "kind": "user",
    "methods": {
      "isTreeFactory()": {
        "notice": "NOTE {isTreeFactory} set inside the initialize to {true} "
      },
      "isTrustedForwarder(address)": {
        "notice": "return if the forwarder is trusted to forward relayed transactions to us. the forwarder is required to verify the sender's signature, and verify the call is not a replay."
      },
      "tempTrees(uint256)": {
        "notice": "NOTE mapping of treeId to TempTree struct "
      },
      "treeUpdates(uint256)": {
        "notice": "NOTE mapping of treeId to TreeUpdate struct "
      },
      "trees(uint256)": {
        "notice": "NOTE mapping of treeId to Tree Struct "
      }
    },
    "version": 1
  }
}