{
  "contractName": "WethFund",
  "abi": [
    {
      "anonymous": false,
      "inputs": [
        {
          "indexed": false,
          "internalType": "uint256",
          "name": "wethMaxUse",
          "type": "uint256"
        },
        {
          "indexed": false,
          "internalType": "uint256",
          "name": "daiAmount",
          "type": "uint256"
        },
        {
          "indexed": false,
          "internalType": "uint256",
          "name": "wethAmount",
          "type": "uint256"
        }
      ],
      "name": "DaiDebtToPlanterContractPaid",
      "type": "event"
    },
    {
      "anonymous": false,
      "inputs": [
        {
          "indexed": false,
          "internalType": "uint256",
          "name": "amount",
          "type": "uint256"
        },
        {
          "indexed": false,
          "internalType": "address",
          "name": "account",
          "type": "address"
        },
        {
          "indexed": false,
          "internalType": "string",
          "name": "reason",
          "type": "string"
        }
      ],
      "name": "InsuranceBalanceWithdrew",
      "type": "event"
    },
    {
      "anonymous": false,
      "inputs": [
        {
          "indexed": false,
          "internalType": "uint256",
          "name": "amount",
          "type": "uint256"
        },
        {
          "indexed": false,
          "internalType": "address",
          "name": "account",
          "type": "address"
        },
        {
          "indexed": false,
          "internalType": "string",
          "name": "reason",
          "type": "string"
        }
      ],
      "name": "LocalDevelopmentBalanceWithdrew",
      "type": "event"
    },
    {
      "anonymous": false,
      "inputs": [
        {
          "indexed": false,
          "internalType": "uint256",
          "name": "amount",
          "type": "uint256"
        },
        {
          "indexed": false,
          "internalType": "address",
          "name": "account",
          "type": "address"
        },
        {
          "indexed": false,
          "internalType": "string",
          "name": "reason",
          "type": "string"
        }
      ],
      "name": "ResearchBalanceWithdrew",
      "type": "event"
    },
    {
      "anonymous": false,
      "inputs": [
        {
          "indexed": false,
          "internalType": "uint256",
          "name": "amount",
          "type": "uint256"
        },
        {
          "indexed": false,
          "internalType": "address",
          "name": "account",
          "type": "address"
        },
        {
          "indexed": false,
          "internalType": "string",
          "name": "reason",
          "type": "string"
        }
      ],
      "name": "Reserve1BalanceWithdrew",
      "type": "event"
    },
    {
      "anonymous": false,
      "inputs": [
        {
          "indexed": false,
          "internalType": "uint256",
          "name": "amount",
          "type": "uint256"
        },
        {
          "indexed": false,
          "internalType": "address",
          "name": "account",
          "type": "address"
        },
        {
          "indexed": false,
          "internalType": "string",
          "name": "reason",
          "type": "string"
        }
      ],
      "name": "Reserve2BalanceWithdrew",
      "type": "event"
    },
    {
      "anonymous": false,
      "inputs": [
        {
          "indexed": false,
          "internalType": "uint256",
          "name": "amount",
          "type": "uint256"
        },
        {
          "indexed": false,
          "internalType": "address",
          "name": "account",
          "type": "address"
        },
        {
          "indexed": false,
          "internalType": "string",
          "name": "reason",
          "type": "string"
        }
      ],
      "name": "TreasuryBalanceWithdrew",
      "type": "event"
    },
    {
      "anonymous": false,
      "inputs": [
        {
          "indexed": false,
          "internalType": "uint256",
          "name": "treeId",
          "type": "uint256"
        },
        {
          "indexed": false,
          "internalType": "uint256",
          "name": "amount",
          "type": "uint256"
        },
        {
          "indexed": false,
          "internalType": "uint256",
          "name": "planterPart",
          "type": "uint256"
        }
      ],
      "name": "TreeFunded",
      "type": "event"
    },
    {
      "anonymous": false,
      "inputs": [],
      "name": "TreeFundedBatch",
      "type": "event"
    },
    {
      "inputs": [],
      "name": "accessRestriction",
      "outputs": [
        {
          "internalType": "contract IAccessRestriction",
          "name": "",
          "type": "address"
        }
      ],
      "stateMutability": "view",
      "type": "function",
      "constant": true
    },
    {
      "inputs": [],
      "name": "daiAddress",
      "outputs": [
        {
          "internalType": "address",
          "name": "",
          "type": "address"
        }
      ],
      "stateMutability": "view",
      "type": "function",
      "constant": true
    },
    {
      "inputs": [],
      "name": "insuranceAddress",
      "outputs": [
        {
          "internalType": "address",
          "name": "",
          "type": "address"
        }
      ],
      "stateMutability": "view",
      "type": "function",
      "constant": true
    },
    {
      "inputs": [],
      "name": "isWethFund",
      "outputs": [
        {
          "internalType": "bool",
          "name": "",
          "type": "bool"
        }
      ],
      "stateMutability": "view",
      "type": "function",
      "constant": true
    },
    {
      "inputs": [],
      "name": "localDevelopmentAddress",
      "outputs": [
        {
          "internalType": "address",
          "name": "",
          "type": "address"
        }
      ],
      "stateMutability": "view",
      "type": "function",
      "constant": true
    },
    {
      "inputs": [],
      "name": "planterFundContract",
      "outputs": [
        {
          "internalType": "contract IPlanterFund",
          "name": "",
          "type": "address"
        }
      ],
      "stateMutability": "view",
      "type": "function",
      "constant": true
    },
    {
      "inputs": [],
      "name": "researchAddress",
      "outputs": [
        {
          "internalType": "address",
          "name": "",
          "type": "address"
        }
      ],
      "stateMutability": "view",
      "type": "function",
      "constant": true
    },
    {
      "inputs": [],
      "name": "reserve1Address",
      "outputs": [
        {
          "internalType": "address",
          "name": "",
          "type": "address"
        }
      ],
      "stateMutability": "view",
      "type": "function",
      "constant": true
    },
    {
      "inputs": [],
      "name": "reserve2Address",
      "outputs": [
        {
          "internalType": "address",
          "name": "",
          "type": "address"
        }
      ],
      "stateMutability": "view",
      "type": "function",
      "constant": true
    },
    {
      "inputs": [],
      "name": "totalBalances",
      "outputs": [
        {
          "internalType": "uint256",
          "name": "research",
          "type": "uint256"
        },
        {
          "internalType": "uint256",
          "name": "localDevelopment",
          "type": "uint256"
        },
        {
          "internalType": "uint256",
          "name": "insurance",
          "type": "uint256"
        },
        {
          "internalType": "uint256",
          "name": "treasury",
          "type": "uint256"
        },
        {
          "internalType": "uint256",
          "name": "reserve1",
          "type": "uint256"
        },
        {
          "internalType": "uint256",
          "name": "reserve2",
          "type": "uint256"
        }
      ],
      "stateMutability": "view",
      "type": "function",
      "constant": true
    },
    {
      "inputs": [],
      "name": "totalDaiDebtToPlanterContract",
      "outputs": [
        {
          "internalType": "uint256",
          "name": "",
          "type": "uint256"
        }
      ],
      "stateMutability": "view",
      "type": "function",
      "constant": true
    },
    {
      "inputs": [],
      "name": "treasuryAddress",
      "outputs": [
        {
          "internalType": "address",
          "name": "",
          "type": "address"
        }
      ],
      "stateMutability": "view",
      "type": "function",
      "constant": true
    },
    {
      "inputs": [],
      "name": "uniswapRouter",
      "outputs": [
        {
          "internalType": "contract IUniswapV2Router02New",
          "name": "",
          "type": "address"
        }
      ],
      "stateMutability": "view",
      "type": "function",
      "constant": true
    },
    {
      "inputs": [],
      "name": "wethToken",
      "outputs": [
        {
          "internalType": "contract IERC20Upgradeable",
          "name": "",
          "type": "address"
        }
      ],
      "stateMutability": "view",
      "type": "function",
      "constant": true
    },
    {
      "inputs": [
        {
          "internalType": "address",
          "name": "_accessRestrictionAddress",
          "type": "address"
        }
      ],
      "name": "initialize",
      "outputs": [],
      "stateMutability": "nonpayable",
      "type": "function"
    },
    {
      "inputs": [
        {
          "internalType": "address",
          "name": "_daiAddress",
          "type": "address"
        }
      ],
      "name": "setDaiAddress",
      "outputs": [],
      "stateMutability": "nonpayable",
      "type": "function"
    },
    {
      "inputs": [
        {
          "internalType": "address",
          "name": "_wethTokenAddress",
          "type": "address"
        }
      ],
      "name": "setWethTokenAddress",
      "outputs": [],
      "stateMutability": "nonpayable",
      "type": "function"
    },
    {
      "inputs": [
        {
          "internalType": "address",
          "name": "_uniswapRouterAddress",
          "type": "address"
        }
      ],
      "name": "setUniswapRouterAddress",
      "outputs": [],
      "stateMutability": "nonpayable",
      "type": "function"
    },
    {
      "inputs": [
        {
          "internalType": "address",
          "name": "_address",
          "type": "address"
        }
      ],
      "name": "setPlanterFundContractAddress",
      "outputs": [],
      "stateMutability": "nonpayable",
      "type": "function"
    },
    {
      "inputs": [
        {
          "internalType": "address payable",
          "name": "_address",
          "type": "address"
        }
      ],
      "name": "setResearchAddress",
      "outputs": [],
      "stateMutability": "nonpayable",
      "type": "function"
    },
    {
      "inputs": [
        {
          "internalType": "address payable",
          "name": "_address",
          "type": "address"
        }
      ],
      "name": "setLocalDevelopmentAddress",
      "outputs": [],
      "stateMutability": "nonpayable",
      "type": "function"
    },
    {
      "inputs": [
        {
          "internalType": "address payable",
          "name": "_address",
          "type": "address"
        }
      ],
      "name": "setInsuranceAddress",
      "outputs": [],
      "stateMutability": "nonpayable",
      "type": "function"
    },
    {
      "inputs": [
        {
          "internalType": "address payable",
          "name": "_address",
          "type": "address"
        }
      ],
      "name": "setTreasuryAddress",
      "outputs": [],
      "stateMutability": "nonpayable",
      "type": "function"
    },
    {
      "inputs": [
        {
          "internalType": "address payable",
          "name": "_address",
          "type": "address"
        }
      ],
      "name": "setReserve1Address",
      "outputs": [],
      "stateMutability": "nonpayable",
      "type": "function"
    },
    {
      "inputs": [
        {
          "internalType": "address payable",
          "name": "_address",
          "type": "address"
        }
      ],
      "name": "setReserve2Address",
      "outputs": [],
      "stateMutability": "nonpayable",
      "type": "function"
    },
    {
      "inputs": [
        {
          "internalType": "uint256",
          "name": "_treeId",
          "type": "uint256"
        },
        {
          "internalType": "uint256",
          "name": "_amount",
          "type": "uint256"
        },
        {
          "internalType": "uint16",
          "name": "_planterShare",
          "type": "uint16"
        },
        {
          "internalType": "uint16",
          "name": "_ambassadorShare",
          "type": "uint16"
        },
        {
          "internalType": "uint16",
          "name": "_researchShare",
          "type": "uint16"
        },
        {
          "internalType": "uint16",
          "name": "_localDevelopmentShare",
          "type": "uint16"
        },
        {
          "internalType": "uint16",
          "name": "_insuranceShare",
          "type": "uint16"
        },
        {
          "internalType": "uint16",
          "name": "_treasuryShare",
          "type": "uint16"
        },
        {
          "internalType": "uint16",
          "name": "_reserve1Share",
          "type": "uint16"
        },
        {
          "internalType": "uint16",
          "name": "_reserve2Share",
          "type": "uint16"
        }
      ],
      "name": "fundTree",
      "outputs": [],
      "stateMutability": "nonpayable",
      "type": "function"
    },
    {
      "inputs": [
        {
          "internalType": "uint256",
          "name": "_totalPlanterAmount",
          "type": "uint256"
        },
        {
          "internalType": "uint256",
          "name": "_totalAmbassadorAmount",
          "type": "uint256"
        },
        {
          "internalType": "uint256",
          "name": "_totalResearch",
          "type": "uint256"
        },
        {
          "internalType": "uint256",
          "name": "_totalLocalDevelopment",
          "type": "uint256"
        },
        {
          "internalType": "uint256",
          "name": "_totalInsurance",
          "type": "uint256"
        },
        {
          "internalType": "uint256",
          "name": "_totalTreasury",
          "type": "uint256"
        },
        {
          "internalType": "uint256",
          "name": "_totalReserve1",
          "type": "uint256"
        },
        {
          "internalType": "uint256",
          "name": "_totalReserve2",
          "type": "uint256"
        }
      ],
      "name": "fundTreeBatch",
      "outputs": [
        {
          "internalType": "uint256",
          "name": "",
          "type": "uint256"
        }
      ],
      "stateMutability": "nonpayable",
      "type": "function"
    },
    {
      "inputs": [
        {
          "internalType": "uint256",
          "name": "_wethMaxUse",
          "type": "uint256"
        },
        {
          "internalType": "uint256",
          "name": "_daiAmountToSwap",
          "type": "uint256"
        }
      ],
      "name": "payDaiDebtToPlanterContract",
      "outputs": [],
      "stateMutability": "nonpayable",
      "type": "function"
    },
    {
      "inputs": [
        {
          "internalType": "uint256",
          "name": "_amount",
          "type": "uint256"
        }
      ],
      "name": "updateDaiDebtToPlanterContract",
      "outputs": [],
      "stateMutability": "nonpayable",
      "type": "function"
    },
    {
      "inputs": [
        {
          "internalType": "uint256",
          "name": "_amount",
          "type": "uint256"
        },
        {
          "internalType": "string",
          "name": "_reason",
          "type": "string"
        }
      ],
      "name": "withdrawResearchBalance",
      "outputs": [],
      "stateMutability": "nonpayable",
      "type": "function"
    },
    {
      "inputs": [
        {
          "internalType": "uint256",
          "name": "_amount",
          "type": "uint256"
        },
        {
          "internalType": "string",
          "name": "_reason",
          "type": "string"
        }
      ],
      "name": "withdrawLocalDevelopmentBalance",
      "outputs": [],
      "stateMutability": "nonpayable",
      "type": "function"
    },
    {
      "inputs": [
        {
          "internalType": "uint256",
          "name": "_amount",
          "type": "uint256"
        },
        {
          "internalType": "string",
          "name": "_reason",
          "type": "string"
        }
      ],
      "name": "withdrawInsuranceBalance",
      "outputs": [],
      "stateMutability": "nonpayable",
      "type": "function"
    },
    {
      "inputs": [
        {
          "internalType": "uint256",
          "name": "_amount",
          "type": "uint256"
        },
        {
          "internalType": "string",
          "name": "_reason",
          "type": "string"
        }
      ],
      "name": "withdrawTreasuryBalance",
      "outputs": [],
      "stateMutability": "nonpayable",
      "type": "function"
    },
    {
      "inputs": [
        {
          "internalType": "uint256",
          "name": "_amount",
          "type": "uint256"
        },
        {
          "internalType": "string",
          "name": "_reason",
          "type": "string"
        }
      ],
      "name": "withdrawReserve1Balance",
      "outputs": [],
      "stateMutability": "nonpayable",
      "type": "function"
    },
    {
      "inputs": [
        {
          "internalType": "uint256",
          "name": "_amount",
          "type": "uint256"
        },
        {
          "internalType": "string",
          "name": "_reason",
          "type": "string"
        }
      ],
      "name": "withdrawReserve2Balance",
      "outputs": [],
      "stateMutability": "nonpayable",
      "type": "function"
    }
  ],
  "bytecode": "0x608060405234801561001057600080fd5b50612b5d806100206000396000f3fe608060405234801561001057600080fd5b50600436106102115760003560e01c8063a669359011610125578063c4d66de8116100ad578063e1c6cddf1161007c578063e1c6cddf146104be578063e218a752146104d1578063e5a41e25146104e4578063f506398114610505578063fc012e3a1461051857600080fd5b8063c4d66de81461046b578063c5f956af1461047e578063d6762c4a14610491578063db15d185146104ab57600080fd5b8063a864e688116100f4578063a864e6881461040c578063b005e1021461041f578063b367583214610432578063b5e1eabd14610445578063bb208f551461045857600080fd5b8063a669359014610378578063a69a2ad11461038b578063a6a45cdf146103d6578063a6cd16fd146103e957600080fd5b80636605bfda116101a857806380d663ea1161017757806380d663ea1461031957806385d6d8a91461032c5780638f76719b1461033f578063979260bd14610352578063a38b72701461036557600080fd5b80636605bfda146102cd5780636acc9777146102e05780637169029d146102f3578063735de9f71461030657600080fd5b80634b57b0be116101e45780634b57b0be146102815780635242d444146102945780635773780d146102a757806363cb2afb146102ba57600080fd5b806321ee217a146102165780632401273c1461022b5780632c3872751461025b5780632cf2ec9e1461026e575b600080fd5b610229610224366004612628565b610521565b005b600e5461023e906001600160a01b031681565b6040516001600160a01b0390911681526020015b60405180910390f35b60045461023e906001600160a01b031681565b600c5461023e906001600160a01b031681565b60025461023e906001600160a01b031681565b6102296102a2366004612733565b6105d6565b6102296102b5366004612628565b610651565b60105461023e906001600160a01b031681565b6102296102db366004612628565b610754565b6102296102ee366004612628565b610800565b610229610301366004612628565b6108ac565b60035461023e906001600160a01b031681565b60015461023e906001600160a01b031681565b61022961033a3660046127c8565b610958565b61022961034d366004612628565b610d23565b60115461023e906001600160a01b031681565b61022961037336600461274c565b610dcf565b610229610386366004612628565b611004565b600654600754600854600954600a54600b546103a995949392919086565b604080519687526020870195909552938501929092526060840152608083015260a082015260c001610252565b6102296103e436600461274c565b6110b0565b6000546103fc9062010000900460ff1681565b6040519015158152602001610252565b61022961041a36600461274c565b6112d6565b61022961042d36600461274c565b6114fc565b6102296104403660046127ea565b611722565b600d5461023e906001600160a01b031681565b610229610466366004612628565b6118cf565b610229610479366004612628565b61197b565b600f5461023e906001600160a01b031681565b60005461023e90630100000090046001600160a01b031681565b6102296104b9366004612628565b611adc565b6102296104cc366004612628565b611b88565b6102296104df36600461274c565b611c34565b6104f76104f2366004612896565b611e5a565b604051908152602001610252565b61022961051336600461274c565b611fba565b6104f760055481565b600054604051632104fb0560e21b815233600482015263010000009091046001600160a01b031690638413ec149060240160006040518083038186803b15801561056a57600080fd5b505afa15801561057e573d6000803e3d6000fd5b5083925050506001600160a01b0381166105b35760405162461bcd60e51b81526004016105aa9061298b565b60405180910390fd5b50601080546001600160a01b0319166001600160a01b0392909216919091179055565b60005460405163ebe6a6f360e01b815233600482015263010000009091046001600160a01b03169063ebe6a6f39060240160006040518083038186803b15801561061f57600080fd5b505afa158015610633573d6000803e3d6000fd5b5050505080600560008282546106499190612a5d565b909155505050565b600054604051632104fb0560e21b815233600482015263010000009091046001600160a01b031690638413ec149060240160006040518083038186803b15801561069a57600080fd5b505afa1580156106ae573d6000803e3d6000fd5b505050506000819050806001600160a01b031663349904da6040518163ffffffff1660e01b815260040160206040518083038186803b1580156106f057600080fd5b505afa158015610704573d6000803e3d6000fd5b505050506040513d601f19601f820116820180604052508101906107289190612711565b61073157600080fd5b600180546001600160a01b0319166001600160a01b039290921691909117905550565b600054604051632104fb0560e21b815233600482015263010000009091046001600160a01b031690638413ec149060240160006040518083038186803b15801561079d57600080fd5b505afa1580156107b1573d6000803e3d6000fd5b5083925050506001600160a01b0381166107dd5760405162461bcd60e51b81526004016105aa9061298b565b50600f80546001600160a01b0319166001600160a01b0392909216919091179055565b600054604051632104fb0560e21b815233600482015263010000009091046001600160a01b031690638413ec149060240160006040518083038186803b15801561084957600080fd5b505afa15801561085d573d6000803e3d6000fd5b5083925050506001600160a01b0381166108895760405162461bcd60e51b81526004016105aa9061298b565b50600280546001600160a01b0319166001600160a01b0392909216919091179055565b600054604051632104fb0560e21b815233600482015263010000009091046001600160a01b031690638413ec149060240160006040518083038186803b1580156108f557600080fd5b505afa158015610909573d6000803e3d6000fd5b5083925050506001600160a01b0381166109355760405162461bcd60e51b81526004016105aa9061298b565b50601180546001600160a01b0319166001600160a01b0392909216919091179055565b6000546040516335126dab60e21b815233600482015263010000009091046001600160a01b03169063d449b6ac9060240160006040518083038186803b1580156109a157600080fd5b505afa1580156109b5573d6000803e3d6000fd5b50505050600660030154821115610a055760405162461bcd60e51b8152602060048201526014602482015273098d2e2ead2c8d2e8f240dcdee840cadcdeeaced60631b60448201526064016105aa565b600081118015610a1757506005548111155b610a715760405162461bcd60e51b815260206004820152602560248201527f746f74616c44616944656274546f506c616e746572436f6e747261637420696e6044820152641d985b1a5960da1b60648201526084016105aa565b6040805160028082526060808301845292602083019080368337505060025482519293506001600160a01b031691839150600090610ab157610ab1612ae3565b6001600160a01b039283166020918202929092010152600454825191169082906001908110610ae257610ae2612ae3565b6001600160a01b03928316602091820292909201015260025460035460405163095ea7b360e01b8152908316600482015260248101869052600092919091169063095ea7b390604401602060405180830381600087803b158015610b4557600080fd5b505af1158015610b59573d6000803e3d6000fd5b505050506040513d601f19601f82011682018060405250810190610b7d9190612711565b905080610bc35760405162461bcd60e51b8152602060048201526014602482015273756e7375636365737366756c20617070726f766560601b60448201526064016105aa565b6003546001546000916001600160a01b0390811691638803dbee9187918991889116610bf142610708612a5d565b6040518663ffffffff1660e01b8152600401610c119594939291906129fb565b600060405180830381600087803b158015610c2b57600080fd5b505af1158015610c3f573d6000803e3d6000fd5b505050506040513d6000823e601f3d908101601f19168201604052610c67919081019061264c565b90507f645316a4885b6cee7a09a29aa9bc4b9c97a3bef89b8af14cfaf5b2b08bf2619c858583600081518110610c9f57610c9f612ae3565b6020026020010151604051610cc7939291909283526020830191909152604082015260600190565b60405180910390a18360056000828254610ce19190612ab6565b9250508190555080600081518110610cfb57610cfb612ae3565b602002602001015160066003016000828254610d179190612ab6565b90915550505050505050565b600054604051632104fb0560e21b815233600482015263010000009091046001600160a01b031690638413ec149060240160006040518083038186803b158015610d6c57600080fd5b505afa158015610d80573d6000803e3d6000fd5b5083925050506001600160a01b038116610dac5760405162461bcd60e51b81526004016105aa9061298b565b50600d80546001600160a01b0319166001600160a01b0392909216919091179055565b600060039054906101000a90046001600160a01b03166001600160a01b0316634d868f986040518163ffffffff1660e01b815260040160006040518083038186803b158015610e1d57600080fd5b505afa158015610e31573d6000803e3d6000fd5b5050600054604051632104fb0560e21b815233600482015263010000009091046001600160a01b03169250638413ec14915060240160006040518083038186803b158015610e7e57600080fd5b505afa158015610e92573d6000803e3d6000fd5b5050600c546001600160a01b031691505080610ec05760405162461bcd60e51b81526004016105aa9061298b565b6006548411801590610ed25750600084115b610eee5760405162461bcd60e51b81526004016105aa9061292f565b8360066000016000828254610f039190612ab6565b9091555050600254600c5460405163a9059cbb60e01b81526001600160a01b03918216600482015260248101879052600092919091169063a9059cbb90604401602060405180830381600087803b158015610f5d57600080fd5b505af1158015610f71573d6000803e3d6000fd5b505050506040513d601f19601f82011682018060405250810190610f959190612711565b905080610fb45760405162461bcd60e51b81526004016105aa9061295c565b600c546040517f089ad476ae3c1b2e69d13588d790baaa84babf9b609e0c3e989462a3ec1a9e0091610ff59188916001600160a01b031690889088906129b4565b60405180910390a15050505050565b600054604051632104fb0560e21b815233600482015263010000009091046001600160a01b031690638413ec149060240160006040518083038186803b15801561104d57600080fd5b505afa158015611061573d6000803e3d6000fd5b5083925050506001600160a01b03811661108d5760405162461bcd60e51b81526004016105aa9061298b565b50600480546001600160a01b0319166001600160a01b0392909216919091179055565b600060039054906101000a90046001600160a01b03166001600160a01b0316634d868f986040518163ffffffff1660e01b815260040160006040518083038186803b1580156110fe57600080fd5b505afa158015611112573d6000803e3d6000fd5b5050600054604051632104fb0560e21b815233600482015263010000009091046001600160a01b03169250638413ec14915060240160006040518083038186803b15801561115f57600080fd5b505afa158015611173573d6000803e3d6000fd5b50506010546001600160a01b0316915050806111a15760405162461bcd60e51b81526004016105aa9061298b565b600a5484118015906111b35750600084115b6111cf5760405162461bcd60e51b81526004016105aa9061292f565b83600660040160008282546111e49190612ab6565b909155505060025460105460405163a9059cbb60e01b81526001600160a01b03918216600482015260248101879052600092919091169063a9059cbb90604401602060405180830381600087803b15801561123e57600080fd5b505af1158015611252573d6000803e3d6000fd5b505050506040513d601f19601f820116820180604052508101906112769190612711565b9050806112955760405162461bcd60e51b81526004016105aa9061295c565b6010546040517f7751df118e40529fccb7b79395d7eb57ed187628770d2c8bbf20f99263179baa91610ff59188916001600160a01b031690889088906129b4565b600060039054906101000a90046001600160a01b03166001600160a01b0316634d868f986040518163ffffffff1660e01b815260040160006040518083038186803b15801561132457600080fd5b505afa158015611338573d6000803e3d6000fd5b5050600054604051632104fb0560e21b815233600482015263010000009091046001600160a01b03169250638413ec14915060240160006040518083038186803b15801561138557600080fd5b505afa158015611399573d6000803e3d6000fd5b50506011546001600160a01b0316915050806113c75760405162461bcd60e51b81526004016105aa9061298b565b600b5484118015906113d95750600084115b6113f55760405162461bcd60e51b81526004016105aa9061292f565b836006600501600082825461140a9190612ab6565b909155505060025460115460405163a9059cbb60e01b81526001600160a01b03918216600482015260248101879052600092919091169063a9059cbb90604401602060405180830381600087803b15801561146457600080fd5b505af1158015611478573d6000803e3d6000fd5b505050506040513d601f19601f8201168201806040525081019061149c9190612711565b9050806114bb5760405162461bcd60e51b81526004016105aa9061295c565b6011546040517f05e3bd1cbce052a5979f9a6d81ba06a0981431a3f6623095bc2c2f5f6744f42691610ff59188916001600160a01b031690889088906129b4565b600060039054906101000a90046001600160a01b03166001600160a01b0316634d868f986040518163ffffffff1660e01b815260040160006040518083038186803b15801561154a57600080fd5b505afa15801561155e573d6000803e3d6000fd5b5050600054604051632104fb0560e21b815233600482015263010000009091046001600160a01b03169250638413ec14915060240160006040518083038186803b1580156115ab57600080fd5b505afa1580156115bf573d6000803e3d6000fd5b5050600e546001600160a01b0316915050806115ed5760405162461bcd60e51b81526004016105aa9061298b565b60085484118015906115ff5750600084115b61161b5760405162461bcd60e51b81526004016105aa9061292f565b83600660020160008282546116309190612ab6565b9091555050600254600e5460405163a9059cbb60e01b81526001600160a01b03918216600482015260248101879052600092919091169063a9059cbb90604401602060405180830381600087803b15801561168a57600080fd5b505af115801561169e573d6000803e3d6000fd5b505050506040513d601f19601f820116820180604052508101906116c29190612711565b9050806116e15760405162461bcd60e51b81526004016105aa9061295c565b600e546040517f04d746950c36a30cd172d661d429bb5c5ea99b2f9eb1d8839d7b97e75e20643d91610ff59188916001600160a01b031690889088906129b4565b60005460405163ebe6a6f360e01b815233600482015263010000009091046001600160a01b03169063ebe6a6f39060240160006040518083038186803b15801561176b57600080fd5b505afa15801561177f573d6000803e3d6000fd5b505050506127108661ffff168a6117969190612a97565b6117a09190612a75565b600680546000906117b2908490612a5d565b9091555061271090506117c961ffff87168b612a97565b6117d39190612a75565b600780546000906117e5908490612a5d565b9091555061271090506117fc61ffff86168b612a97565b6118069190612a75565b60088054600090611818908490612a5d565b90915550612710905061182f61ffff85168b612a97565b6118399190612a75565b6009805460009061184b908490612a5d565b90915550612710905061186261ffff84168b612a97565b61186c9190612a75565b600a805460009061187e908490612a5d565b90915550612710905061189561ffff83168b612a97565b61189f9190612a75565b600b80546000906118b1908490612a5d565b909155506118c390508a8a8a8a6121e0565b50505050505050505050565b600054604051632104fb0560e21b815233600482015263010000009091046001600160a01b031690638413ec149060240160006040518083038186803b15801561191857600080fd5b505afa15801561192c573d6000803e3d6000fd5b5083925050506001600160a01b0381166119585760405162461bcd60e51b81526004016105aa9061298b565b50600e80546001600160a01b0319166001600160a01b0392909216919091179055565b600054610100900460ff1680611994575060005460ff16155b6119f75760405162461bcd60e51b815260206004820152602e60248201527f496e697469616c697a61626c653a20636f6e747261637420697320616c72656160448201526d191e481a5b9a5d1a585b1a5e995960921b60648201526084016105aa565b600054610100900460ff16158015611a19576000805461ffff19166101011790555b6000829050806001600160a01b031663ba84fd696040518163ffffffff1660e01b815260040160206040518083038186803b158015611a5757600080fd5b505afa158015611a6b573d6000803e3d6000fd5b505050506040513d601f19601f82011682018060405250810190611a8f9190612711565b611a9857600080fd5b600080546001600160a01b0390921663010000000262010000600160b81b031990921691909117620100001790558015611ad8576000805461ff00191690555b5050565b600054604051632104fb0560e21b815233600482015263010000009091046001600160a01b031690638413ec149060240160006040518083038186803b158015611b2557600080fd5b505afa158015611b39573d6000803e3d6000fd5b5083925050506001600160a01b038116611b655760405162461bcd60e51b81526004016105aa9061298b565b50600380546001600160a01b0319166001600160a01b0392909216919091179055565b600054604051632104fb0560e21b815233600482015263010000009091046001600160a01b031690638413ec149060240160006040518083038186803b158015611bd157600080fd5b505afa158015611be5573d6000803e3d6000fd5b5083925050506001600160a01b038116611c115760405162461bcd60e51b81526004016105aa9061298b565b50600c80546001600160a01b0319166001600160a01b0392909216919091179055565b600060039054906101000a90046001600160a01b03166001600160a01b0316634d868f986040518163ffffffff1660e01b815260040160006040518083038186803b158015611c8257600080fd5b505afa158015611c96573d6000803e3d6000fd5b5050600054604051632104fb0560e21b815233600482015263010000009091046001600160a01b03169250638413ec14915060240160006040518083038186803b158015611ce357600080fd5b505afa158015611cf7573d6000803e3d6000fd5b5050600d546001600160a01b031691505080611d255760405162461bcd60e51b81526004016105aa9061298b565b6007548411801590611d375750600084115b611d535760405162461bcd60e51b81526004016105aa9061292f565b8360066001016000828254611d689190612ab6565b9091555050600254600d5460405163a9059cbb60e01b81526001600160a01b03918216600482015260248101879052600092919091169063a9059cbb90604401602060405180830381600087803b158015611dc257600080fd5b505af1158015611dd6573d6000803e3d6000fd5b505050506040513d601f19601f82011682018060405250810190611dfa9190612711565b905080611e195760405162461bcd60e51b81526004016105aa9061295c565b600d546040517ff3eae86b7e55a245daebeb81b673beb23720493d02b3a002dfb444e1c3b75bf091610ff59188916001600160a01b031690889088906129b4565b6000805460405163ebe6a6f360e01b815233600482015263010000009091046001600160a01b03169063ebe6a6f39060240160006040518083038186803b158015611ea457600080fd5b505afa158015611eb8573d6000803e3d6000fd5b505050508660066000016000828254611ed19190612a5d565b909155505060078054879190600090611eeb908490612a5d565b909155505060088054869190600090611f05908490612a5d565b909155505060098054859190600090611f1f908490612a5d565b9091555050600a8054849190600090611f39908490612a5d565b9091555050600b8054839190600090611f53908490612a5d565b9091555060009050611f65898b612a5d565b90506000808211611f77576000611f80565b611f80826123ef565b6040519091507fca28042b42a4dc0e3c83200879ace7424274b60db7de700fddc1a65d227f91fb90600090a19a9950505050505050505050565b600060039054906101000a90046001600160a01b03166001600160a01b0316634d868f986040518163ffffffff1660e01b815260040160006040518083038186803b15801561200857600080fd5b505afa15801561201c573d6000803e3d6000fd5b5050600054604051632104fb0560e21b815233600482015263010000009091046001600160a01b03169250638413ec14915060240160006040518083038186803b15801561206957600080fd5b505afa15801561207d573d6000803e3d6000fd5b5050600f546001600160a01b0316915050806120ab5760405162461bcd60e51b81526004016105aa9061298b565b60095484118015906120bd5750600084115b6120d95760405162461bcd60e51b81526004016105aa9061292f565b83600660030160008282546120ee9190612ab6565b9091555050600254600f5460405163a9059cbb60e01b81526001600160a01b03918216600482015260248101879052600092919091169063a9059cbb90604401602060405180830381600087803b15801561214857600080fd5b505af115801561215c573d6000803e3d6000fd5b505050506040513d601f19601f820116820180604052508101906121809190612711565b90508061219f5760405162461bcd60e51b81526004016105aa9061295c565b600f546040517fd1a91c319bf356387819b3ae1c850a519beac3eb65916e12b665ad9dce02224391610ff59188916001600160a01b031690889088906129b4565b60006127106121f361ffff851686612a97565b6121fd9190612a75565b9050600061271061221261ffff851687612a97565b61221c9190612a75565b9050600061222a8284612a5d565b905060006122388587612a37565b604080516002808252606080830184529394509091602083019080368337505060025482519293506001600160a01b03169183915060009061227c5761227c612ae3565b6001600160a01b0392831660209182029290920101526004548251911690829060019081106122ad576122ad612ae3565b60200260200101906001600160a01b031690816001600160a01b03168152505060008084116122dd5760006122e6565b6122e6846123ef565b6001549091506001600160a01b03166397795c668b61ffff8087169061230f9086908e16612a97565b6123199190612a75565b8661ffff16858c61ffff1661232e9190612a97565b6123389190612a75565b6040516001600160e01b031960e086901b168152600481019390935260248301919091526044820152606401600060405180830381600087803b15801561237e57600080fd5b505af1158015612392573d6000803e3d6000fd5b505050507f347f488d341632b8f0297fc353e08cc384d9a8c7bb93600a7ede83515b56b9948a8a87896123c59190612a5d565b6040805193845260208401929092529082015260600160405180910390a150505050505050505050565b6040805160028082526060808301845260009390929190602083019080368337505060025482519293506001600160a01b03169183915060009061243557612435612ae3565b6001600160a01b03928316602091820292909201015260045482519116908290600190811061246657612466612ae3565b6001600160a01b03928316602091820292909201015260025460035460405163095ea7b360e01b8152908316600482015260248101869052600092919091169063095ea7b390604401602060405180830381600087803b1580156124c957600080fd5b505af11580156124dd573d6000803e3d6000fd5b505050506040513d601f19601f820116820180604052508101906125019190612711565b9050806125475760405162461bcd60e51b8152602060048201526014602482015273756e7375636365737366756c20617070726f766560601b60448201526064016105aa565b600354600180546000926001600160a01b03908116926338ed173992899288911661257442610708612a5d565b6040518663ffffffff1660e01b81526004016125949594939291906129fb565b600060405180830381600087803b1580156125ae57600080fd5b505af11580156125c2573d6000803e3d6000fd5b505050506040513d6000823e601f3d908101601f191682016040526125ea919081019061264c565b9050806001815181106125ff576125ff612ae3565b60200260200101519350505050919050565b803561ffff8116811461262357600080fd5b919050565b60006020828403121561263a57600080fd5b813561264581612b0f565b9392505050565b6000602080838503121561265f57600080fd5b825167ffffffffffffffff8082111561267757600080fd5b818501915085601f83011261268b57600080fd5b81518181111561269d5761269d612af9565b8060051b604051601f19603f830116810181811085821117156126c2576126c2612af9565b604052828152858101935084860182860187018a10156126e157600080fd5b600095505b838610156127045780518552600195909501949386019386016126e6565b5098975050505050505050565b60006020828403121561272357600080fd5b8151801515811461264557600080fd5b60006020828403121561274557600080fd5b5035919050565b60008060006040848603121561276157600080fd5b83359250602084013567ffffffffffffffff8082111561278057600080fd5b818601915086601f83011261279457600080fd5b8135818111156127a357600080fd5b8760208285010111156127b557600080fd5b6020830194508093505050509250925092565b600080604083850312156127db57600080fd5b50508035926020909101359150565b6000806000806000806000806000806101408b8d03121561280a57600080fd5b8a35995060208b0135985061282160408c01612611565b975061282f60608c01612611565b965061283d60808c01612611565b955061284b60a08c01612611565b945061285960c08c01612611565b935061286760e08c01612611565b92506128766101008c01612611565b91506128856101208c01612611565b90509295989b9194979a5092959850565b600080600080600080600080610100898b0312156128b357600080fd5b505086359860208801359850604088013597606081013597506080810135965060a0810135955060c0810135945060e0013592509050565b600081518084526020808501945080840160005b838110156129245781516001600160a01b0316875295820195908201906001016128ff565b509495945050505050565b6020808252601390820152721a5b9cdd59999a58da595b9d08185b5bdd5b9d606a1b604082015260600190565b6020808252601590820152743ab739bab1b1b2b9b9b33ab6103a3930b739b332b960591b604082015260600190565b6020808252600f908201526e696e76616c6964206164647265737360881b604082015260600190565b8481526001600160a01b03841660208201526060604082018190528101829052818360808301376000818301608090810191909152601f909201601f191601019392505050565b85815284602082015260a060408201526000612a1a60a08301866128eb565b6001600160a01b0394909416606083015250608001529392505050565b600061ffff808316818516808303821115612a5457612a54612acd565b01949350505050565b60008219821115612a7057612a70612acd565b500190565b600082612a9257634e487b7160e01b600052601260045260246000fd5b500490565b6000816000190483118215151615612ab157612ab1612acd565b500290565b600082821015612ac857612ac8612acd565b500390565b634e487b7160e01b600052601160045260246000fd5b634e487b7160e01b600052603260045260246000fd5b634e487b7160e01b600052604160045260246000fd5b6001600160a01b0381168114612b2457600080fd5b5056fea26469706673582212206a0c67b518d899432477571c03e7b8f925ffdfcfcfa2d2fe134aa76b2a15059164736f6c63430008060033",
  "immutableReferences": {},
  "source": "// SPDX-License-Identifier: GPL-3.0\n\npragma solidity ^0.8.6;\n\nimport \"@openzeppelin/contracts-upgradeable/utils/CountersUpgradeable.sol\";\nimport \"@openzeppelin/contracts-upgradeable/proxy/utils/Initializable.sol\";\nimport \"@openzeppelin/contracts-upgradeable/token/ERC20/IERC20Upgradeable.sol\";\nimport \"../access/IAccessRestriction.sol\";\nimport \"./IPlanterFund.sol\";\nimport \"./interfaces/IUniswapV2Router02New.sol\";\n\n/** @title WethFund Contract */\n\ncontract WethFund is Initializable {\n    /** NOTE {isWethFund} set inside the initialize to {true} */\n    bool public isWethFund;\n\n    IAccessRestriction public accessRestriction;\n    IPlanterFund public planterFundContract;\n    IERC20Upgradeable public wethToken;\n    IUniswapV2Router02New public uniswapRouter;\n\n    /** NOTE daiToken address */\n    address public daiAddress;\n\n    //TODO:ADD_COMMENT\n    uint256 public totalDaiDebtToPlanterContract;\n\n    /** NOTE {totalBalances} is struct of TotalBalances that keep total share of\n     * research, localDevelopment,insurance,treasury,reserve1\n     * and reserve2\n     */\n    TotalBalances public totalBalances;\n\n    address public researchAddress;\n    address public localDevelopmentAddress;\n    address public insuranceAddress;\n    address public treasuryAddress;\n    address public reserve1Address;\n    address public reserve2Address;\n\n    struct TotalBalances {\n        uint256 research;\n        uint256 localDevelopment;\n        uint256 insurance;\n        uint256 treasury;\n        uint256 reserve1;\n        uint256 reserve2;\n    }\n\n    event ResearchBalanceWithdrew(\n        uint256 amount,\n        address account,\n        string reason\n    );\n    event LocalDevelopmentBalanceWithdrew(\n        uint256 amount,\n        address account,\n        string reason\n    );\n    event InsuranceBalanceWithdrew(\n        uint256 amount,\n        address account,\n        string reason\n    );\n    event TreasuryBalanceWithdrew(\n        uint256 amount,\n        address account,\n        string reason\n    );\n    event Reserve1BalanceWithdrew(\n        uint256 amount,\n        address account,\n        string reason\n    );\n    event Reserve2BalanceWithdrew(\n        uint256 amount,\n        address account,\n        string reason\n    );\n    event TreeFunded(uint256 treeId, uint256 amount, uint256 planterPart);\n\n    event TreeFundedBatch();\n\n    event DaiDebtToPlanterContractPaid(\n        uint256 wethMaxUse,\n        uint256 daiAmount,\n        uint256 wethAmount\n    );\n\n    /** NOTE modifier to check msg.sender has admin role */\n    modifier onlyAdmin() {\n        accessRestriction.ifAdmin(msg.sender);\n        _;\n    }\n\n    /** NOTE modifier for check msg.sender has TreejerContract role */\n    modifier onlyTreejerContract() {\n        accessRestriction.ifTreejerContract(msg.sender);\n        _;\n    }\n\n    /** NOTE modifier for check if function is not paused*/\n    modifier ifNotPaused() {\n        accessRestriction.ifNotPaused();\n        _;\n    }\n\n    /** NOTE modifier for check valid address */\n    modifier validAddress(address _address) {\n        require(_address != address(0), \"invalid address\");\n        _;\n    }\n\n    /** NOTE modifier to check msg.sender has script role */\n    modifier onlyScript() {\n        accessRestriction.ifScript(msg.sender);\n        _;\n    }\n\n    /**\n     * @dev initialize accessRestriction contract and set true for isWethFund\n     * @param _accessRestrictionAddress set to the address of accessRestriction contract\n     */\n    function initialize(address _accessRestrictionAddress)\n        external\n        initializer\n    {\n        IAccessRestriction candidateContract = IAccessRestriction(\n            _accessRestrictionAddress\n        );\n\n        require(candidateContract.isAccessRestriction());\n\n        isWethFund = true;\n        accessRestriction = candidateContract;\n    }\n\n    /**\n     * @dev admin set DaiToken address\n     * @param _daiAddress set to the address of DaiToken\n     */\n    function setDaiAddress(address _daiAddress)\n        external\n        onlyAdmin\n        validAddress(_daiAddress)\n    {\n        daiAddress = _daiAddress;\n    }\n\n    /**\n     * @dev admin set WethToken contract address\n     * @param _wethTokenAddress set to the address of WethToken contract\n     */\n    function setWethTokenAddress(address _wethTokenAddress)\n        external\n        onlyAdmin\n        validAddress(_wethTokenAddress)\n    {\n        IERC20Upgradeable candidateContract = IERC20Upgradeable(\n            _wethTokenAddress\n        );\n        wethToken = candidateContract;\n    }\n\n    /**\n     * @dev admin set UniswapRouter contract address\n     * @param _uniswapRouterAddress set to the address of UniswapRouter contract\n     */\n    function setUniswapRouterAddress(address _uniswapRouterAddress)\n        external\n        onlyAdmin\n        validAddress(_uniswapRouterAddress)\n    {\n        IUniswapV2Router02New candidateContract = IUniswapV2Router02New(\n            _uniswapRouterAddress\n        );\n\n        uniswapRouter = candidateContract;\n    }\n\n    /**\n     * @dev admin set PlanterFund contract address\n     * @param _address set to the address of PlanterFund contract\n     */\n    function setPlanterFundContractAddress(address _address)\n        external\n        onlyAdmin\n    {\n        IPlanterFund candidateContract = IPlanterFund(_address);\n        require(candidateContract.isPlanterFund());\n        planterFundContract = candidateContract;\n    }\n\n    /**\n     * @dev admin set research address to fund\n     * @param _address research address\n     */\n    function setResearchAddress(address payable _address)\n        external\n        onlyAdmin\n        validAddress(_address)\n    {\n        researchAddress = _address;\n    }\n\n    /**\n     * @dev admin set localDevelopment address to fund\n     * @param _address local development address\n     */\n    function setLocalDevelopmentAddress(address payable _address)\n        external\n        onlyAdmin\n        validAddress(_address)\n    {\n        localDevelopmentAddress = _address;\n    }\n\n    /**\n     * @dev admin set insurance address to fund\n     * @param _address insurance address\n     */\n    function setInsuranceAddress(address payable _address)\n        external\n        onlyAdmin\n        validAddress(_address)\n    {\n        insuranceAddress = _address;\n    }\n\n    /**\n     * @dev admin set treasury address to fund\n     * @param _address treejer develop address\n     */\n    function setTreasuryAddress(address payable _address)\n        external\n        onlyAdmin\n        validAddress(_address)\n    {\n        treasuryAddress = _address;\n    }\n\n    /**\n     * @dev admin set reserve1 address to fund\n     * @param _address reserve1 address\n     */\n    function setReserve1Address(address payable _address)\n        external\n        onlyAdmin\n        validAddress(_address)\n    {\n        reserve1Address = _address;\n    }\n\n    /**\n     * @dev admin set reserve2 address to fund\n     * @param _address reserve2 address\n     */\n    function setReserve2Address(address payable _address)\n        external\n        onlyAdmin\n        validAddress(_address)\n    {\n        reserve2Address = _address;\n    }\n\n    /**\n     * @dev fund a tree by IncrementalSale or Auction contract and based on allocation\n     * data of tree, shares divide beetwen (planter, ambassador, research,\n     * localDevelopment, insurance, treasury, reserve1 and reserve2)\n     * and added to the totalBalances of each part,\n     * @param _treeId id of a tree to fund\n     * NOTE planter and ambassador share first swap to daiToken and then\n     * transfer to PlanterFund contract and add to totalBalances section there\n     */\n    function fundTree(\n        uint256 _treeId,\n        uint256 _amount,\n        uint16 _planterShare,\n        uint16 _ambassadorShare,\n        uint16 _researchShare,\n        uint16 _localDevelopmentShare,\n        uint16 _insuranceShare,\n        uint16 _treasuryShare,\n        uint16 _reserve1Share,\n        uint16 _reserve2Share\n    ) external onlyTreejerContract {\n        totalBalances.research += (_amount * _researchShare) / 10000;\n\n        totalBalances.localDevelopment +=\n            (_amount * _localDevelopmentShare) /\n            10000;\n\n        totalBalances.insurance += (_amount * _insuranceShare) / 10000;\n\n        totalBalances.treasury += (_amount * _treasuryShare) / 10000;\n\n        totalBalances.reserve1 += (_amount * _reserve1Share) / 10000;\n\n        totalBalances.reserve2 += (_amount * _reserve2Share) / 10000;\n\n        _swapPlanterShare(_treeId, _amount, _planterShare, _ambassadorShare);\n    }\n\n    function fundTreeBatch(\n        uint256 _totalPlanterAmount,\n        uint256 _totalAmbassadorAmount,\n        uint256 _totalResearch,\n        uint256 _totalLocalDevelopment,\n        uint256 _totalInsurance,\n        uint256 _totalTreasury,\n        uint256 _totalReserve1,\n        uint256 _totalReserve2\n    ) external onlyTreejerContract returns (uint256) {\n        totalBalances.research += _totalResearch;\n\n        totalBalances.localDevelopment += _totalLocalDevelopment;\n\n        totalBalances.insurance += _totalInsurance;\n\n        totalBalances.treasury += _totalTreasury;\n\n        totalBalances.reserve1 += _totalReserve1;\n\n        totalBalances.reserve2 += _totalReserve2;\n\n        uint256 sumAmount = _totalPlanterAmount + _totalAmbassadorAmount;\n\n        uint256 daiAmount = sumAmount > 0\n            ? _swapExactTokensForTokens(sumAmount)\n            : 0;\n\n        emit TreeFundedBatch();\n\n        return daiAmount;\n    }\n\n    //TODO: ADD_COMMENT\n    function payDaiDebtToPlanterContract(\n        uint256 _wethMaxUse,\n        uint256 _daiAmountToSwap\n    ) external onlyScript {\n        require(_wethMaxUse <= totalBalances.treasury, \"Liquidity not enough\");\n\n        require(\n            _daiAmountToSwap > 0 &&\n                _daiAmountToSwap <= totalDaiDebtToPlanterContract,\n            \"totalDaiDebtToPlanterContract invalid\"\n        );\n\n        address[] memory path;\n        path = new address[](2);\n\n        path[0] = address(wethToken);\n        path[1] = daiAddress;\n\n        bool success = wethToken.approve(address(uniswapRouter), _wethMaxUse);\n\n        require(success, \"unsuccessful approve\");\n\n        uint256[] memory amounts = uniswapRouter.swapTokensForExactTokens(\n            _daiAmountToSwap,\n            _wethMaxUse,\n            path,\n            address(planterFundContract),\n            block.timestamp + 1800 // 30 * 60 (30 min)\n        );\n\n        emit DaiDebtToPlanterContractPaid(\n            _wethMaxUse,\n            _daiAmountToSwap,\n            amounts[0]\n        );\n\n        totalDaiDebtToPlanterContract -= _daiAmountToSwap;\n        totalBalances.treasury -= amounts[0];\n    }\n\n    //TODO: ADD_COMMENT\n    function updateDaiDebtToPlanterContract(uint256 _amount)\n        external\n        onlyTreejerContract\n    {\n        totalDaiDebtToPlanterContract += _amount;\n    }\n\n    /**\n     * @dev admin withdraw {_amount} from research totalBalances in case of\n     * valid {_amount}  and wethToken transfer to {researchAddress}\n     * @param _amount amount to withdraw\n     * @param _reason reason to withdraw\n     */\n    function withdrawResearchBalance(uint256 _amount, string calldata _reason)\n        external\n        ifNotPaused\n        onlyAdmin\n        validAddress(researchAddress)\n    {\n        require(\n            _amount <= totalBalances.research && _amount > 0,\n            \"insufficient amount\"\n        );\n\n        totalBalances.research -= _amount;\n\n        bool success = wethToken.transfer(researchAddress, _amount);\n\n        require(success, \"unsuccessful transfer\");\n\n        emit ResearchBalanceWithdrew(_amount, researchAddress, _reason);\n    }\n\n    /**\n     * @dev admin withdraw {_amount} from localDevelopment totalBalances in case of\n     * valid {_amount} and wethToken transfer to {localDevelopmentAddress}\n     * @param _amount amount to withdraw\n     * @param _reason reason to withdraw\n     */\n    function withdrawLocalDevelopmentBalance(\n        uint256 _amount,\n        string calldata _reason\n    ) external ifNotPaused onlyAdmin validAddress(localDevelopmentAddress) {\n        require(\n            _amount <= totalBalances.localDevelopment && _amount > 0,\n            \"insufficient amount\"\n        );\n\n        totalBalances.localDevelopment -= _amount;\n\n        bool success = wethToken.transfer(localDevelopmentAddress, _amount);\n\n        require(success, \"unsuccessful transfer\");\n\n        emit LocalDevelopmentBalanceWithdrew(\n            _amount,\n            localDevelopmentAddress,\n            _reason\n        );\n    }\n\n    /**\n     * @dev admin withdraw {_amount} from insurance totalBalances in case of\n     * valid {_amount} and wethToken transfer to {insuranceAddress}\n     * @param _amount amount to withdraw\n     * @param _reason reason to withdraw\n     */\n    function withdrawInsuranceBalance(uint256 _amount, string calldata _reason)\n        external\n        ifNotPaused\n        onlyAdmin\n        validAddress(insuranceAddress)\n    {\n        require(\n            _amount <= totalBalances.insurance && _amount > 0,\n            \"insufficient amount\"\n        );\n\n        totalBalances.insurance -= _amount;\n\n        bool success = wethToken.transfer(insuranceAddress, _amount);\n\n        require(success, \"unsuccessful transfer\");\n\n        emit InsuranceBalanceWithdrew(_amount, insuranceAddress, _reason);\n    }\n\n    /**\n     * @dev admin withdraw {_amount} from treasury totalBalances in case of\n     * valid {_amount} and wethToken transfer to {treasuryAddress}\n     * @param _amount amount to withdraw\n     * @param _reason reason to withdraw\n     */\n    function withdrawTreasuryBalance(uint256 _amount, string calldata _reason)\n        external\n        ifNotPaused\n        onlyAdmin\n        validAddress(treasuryAddress)\n    {\n        require(\n            _amount <= totalBalances.treasury && _amount > 0,\n            \"insufficient amount\"\n        );\n\n        totalBalances.treasury -= _amount;\n\n        bool success = wethToken.transfer(treasuryAddress, _amount);\n\n        require(success, \"unsuccessful transfer\");\n\n        emit TreasuryBalanceWithdrew(_amount, treasuryAddress, _reason);\n    }\n\n    /**\n     * @dev admin withdraw {_amount} from reserve1 totalBalances in case of\n     * valid {_amount} and wethToken transfer to {reserve1Address}\n     * @param _amount amount to withdraw\n     * @param _reason reason to withdraw\n     */\n    function withdrawReserve1Balance(uint256 _amount, string calldata _reason)\n        external\n        ifNotPaused\n        onlyAdmin\n        validAddress(reserve1Address)\n    {\n        require(\n            _amount <= totalBalances.reserve1 && _amount > 0,\n            \"insufficient amount\"\n        );\n\n        totalBalances.reserve1 -= _amount;\n\n        bool success = wethToken.transfer(reserve1Address, _amount);\n\n        require(success, \"unsuccessful transfer\");\n\n        emit Reserve1BalanceWithdrew(_amount, reserve1Address, _reason);\n    }\n\n    /**\n     * @dev admin withdraw {_amount} from reserve2 totalBalances in case of\n     * valid {_amount} and wethToken transfer to {reserve2Address}\n     * @param _amount amount to withdraw\n     * @param _reason reason to withdraw\n     */\n    function withdrawReserve2Balance(uint256 _amount, string calldata _reason)\n        external\n        ifNotPaused\n        onlyAdmin\n        validAddress(reserve2Address)\n    {\n        require(\n            _amount <= totalBalances.reserve2 && _amount > 0,\n            \"insufficient amount\"\n        );\n\n        totalBalances.reserve2 -= _amount;\n\n        bool success = wethToken.transfer(reserve2Address, _amount);\n\n        require(success, \"unsuccessful transfer\");\n\n        emit Reserve2BalanceWithdrew(_amount, reserve2Address, _reason);\n    }\n\n    /** @dev private function to swap {_amount} wethToken to daiToken\n     * @param _treeId id of tree that funded\n     * @param _amount amount to swap\n     * @param _planterShare planter share\n     * @param _ambassadorShare ambassador share\n     */\n    function _swapPlanterShare(\n        uint256 _treeId,\n        uint256 _amount,\n        uint16 _planterShare,\n        uint16 _ambassadorShare\n    ) private {\n        uint256 planterAmount = (_amount * _planterShare) / 10000;\n        uint256 ambassadorAmount = (_amount * _ambassadorShare) / 10000;\n\n        uint256 sumAmount = planterAmount + ambassadorAmount;\n        uint16 sumShare = _planterShare + _ambassadorShare;\n\n        address[] memory path;\n        path = new address[](2);\n\n        path[0] = address(wethToken);\n        path[1] = daiAddress;\n\n        uint256 daiAmount = sumAmount > 0\n            ? _swapExactTokensForTokens(sumAmount)\n            : 0;\n\n        planterFundContract.updateProjectedEarnings(\n            _treeId,\n            (_planterShare * daiAmount) / sumShare,\n            (_ambassadorShare * daiAmount) / sumShare\n        );\n\n        emit TreeFunded(_treeId, _amount, planterAmount + ambassadorAmount);\n    }\n\n    //TODO: ADD_COMMENT\n    function _swapExactTokensForTokens(uint256 _amount)\n        private\n        returns (uint256 amount)\n    {\n        address[] memory path;\n        path = new address[](2);\n\n        path[0] = address(wethToken);\n        path[1] = daiAddress;\n\n        bool success = wethToken.approve(address(uniswapRouter), _amount);\n\n        require(success, \"unsuccessful approve\");\n\n        uint256[] memory amounts = uniswapRouter.swapExactTokensForTokens(\n            _amount,\n            1,\n            path,\n            address(planterFundContract),\n            block.timestamp + 1800 // 30 * 60 (30 min)\n        );\n\n        return amounts[1];\n    }\n}\n",
  "sourcePath": "/media/ali/New Volume/treejer/contract/contracts/treasury/WethFund.sol",
  "compiler": {
    "name": "solc",
    "version": "0.8.6+commit.11564f7e.Emscripten.clang"
  },
  "schemaVersion": "3.4.1",
  "updatedAt": "2021-10-12T15:19:37.838Z",
  "networkType": "ethereum",
  "devdoc": {
    "kind": "dev",
    "methods": {
      "fundTree(uint256,uint256,uint16,uint16,uint16,uint16,uint16,uint16,uint16,uint16)": {
        "details": "fund a tree by IncrementalSale or Auction contract and based on allocation data of tree, shares divide beetwen (planter, ambassador, research, localDevelopment, insurance, treasury, reserve1 and reserve2) and added to the totalBalances of each part,",
        "params": {
          "_treeId": "id of a tree to fund NOTE planter and ambassador share first swap to daiToken and then transfer to PlanterFund contract and add to totalBalances section there"
        }
      },
      "initialize(address)": {
        "details": "initialize accessRestriction contract and set true for isWethFund",
        "params": {
          "_accessRestrictionAddress": "set to the address of accessRestriction contract"
        }
      },
      "setDaiAddress(address)": {
        "details": "admin set DaiToken address",
        "params": {
          "_daiAddress": "set to the address of DaiToken"
        }
      },
      "setInsuranceAddress(address)": {
        "details": "admin set insurance address to fund",
        "params": {
          "_address": "insurance address"
        }
      },
      "setLocalDevelopmentAddress(address)": {
        "details": "admin set localDevelopment address to fund",
        "params": {
          "_address": "local development address"
        }
      },
      "setPlanterFundContractAddress(address)": {
        "details": "admin set PlanterFund contract address",
        "params": {
          "_address": "set to the address of PlanterFund contract"
        }
      },
      "setResearchAddress(address)": {
        "details": "admin set research address to fund",
        "params": {
          "_address": "research address"
        }
      },
      "setReserve1Address(address)": {
        "details": "admin set reserve1 address to fund",
        "params": {
          "_address": "reserve1 address"
        }
      },
      "setReserve2Address(address)": {
        "details": "admin set reserve2 address to fund",
        "params": {
          "_address": "reserve2 address"
        }
      },
      "setTreasuryAddress(address)": {
        "details": "admin set treasury address to fund",
        "params": {
          "_address": "treejer develop address"
        }
      },
      "setUniswapRouterAddress(address)": {
        "details": "admin set UniswapRouter contract address",
        "params": {
          "_uniswapRouterAddress": "set to the address of UniswapRouter contract"
        }
      },
      "setWethTokenAddress(address)": {
        "details": "admin set WethToken contract address",
        "params": {
          "_wethTokenAddress": "set to the address of WethToken contract"
        }
      },
      "withdrawInsuranceBalance(uint256,string)": {
        "details": "admin withdraw {_amount} from insurance totalBalances in case of valid {_amount} and wethToken transfer to {insuranceAddress}",
        "params": {
          "_amount": "amount to withdraw",
          "_reason": "reason to withdraw"
        }
      },
      "withdrawLocalDevelopmentBalance(uint256,string)": {
        "details": "admin withdraw {_amount} from localDevelopment totalBalances in case of valid {_amount} and wethToken transfer to {localDevelopmentAddress}",
        "params": {
          "_amount": "amount to withdraw",
          "_reason": "reason to withdraw"
        }
      },
      "withdrawResearchBalance(uint256,string)": {
        "details": "admin withdraw {_amount} from research totalBalances in case of valid {_amount}  and wethToken transfer to {researchAddress}",
        "params": {
          "_amount": "amount to withdraw",
          "_reason": "reason to withdraw"
        }
      },
      "withdrawReserve1Balance(uint256,string)": {
        "details": "admin withdraw {_amount} from reserve1 totalBalances in case of valid {_amount} and wethToken transfer to {reserve1Address}",
        "params": {
          "_amount": "amount to withdraw",
          "_reason": "reason to withdraw"
        }
      },
      "withdrawReserve2Balance(uint256,string)": {
        "details": "admin withdraw {_amount} from reserve2 totalBalances in case of valid {_amount} and wethToken transfer to {reserve2Address}",
        "params": {
          "_amount": "amount to withdraw",
          "_reason": "reason to withdraw"
        }
      },
      "withdrawTreasuryBalance(uint256,string)": {
        "details": "admin withdraw {_amount} from treasury totalBalances in case of valid {_amount} and wethToken transfer to {treasuryAddress}",
        "params": {
          "_amount": "amount to withdraw",
          "_reason": "reason to withdraw"
        }
      }
    },
    "title": "WethFund Contract ",
    "version": 1
  },
  "userdoc": {
    "kind": "user",
    "methods": {
      "daiAddress()": {
        "notice": "NOTE daiToken address "
      },
      "isWethFund()": {
        "notice": "NOTE {isWethFund} set inside the initialize to {true} "
      },
      "totalBalances()": {
        "notice": "NOTE {totalBalances} is struct of TotalBalances that keep total share of research, localDevelopment,insurance,treasury,reserve1 and reserve2"
      }
    },
    "version": 1
  }
}